{
	"data": {
		"bytecode": {
			"linkReferences": {},
			"object": "60a060405230608052348015610013575f80fd5b506080516142886100485f395f8181610e0a01528181610e4a01528181610fb901528181610ff9015261111601526142885ff3fe6080604052600436106102f2575f3560e01c8063599ed3ff11610189578063a217fddf116100d8578063d547741f11610092578063e15e2fd41161006d578063e15e2fd4146108e6578063e7f08e6914610905578063e985e9c514610924578063f1fe69111461096b575f80fd5b8063d547741f14610888578063d674cc2b146108a7578063d6df096d146108c6575f80fd5b8063a217fddf146107c1578063a22cb465146107d4578063b63cb3b9146107f3578063b88d4fde1461082b578063c0cecb9a1461084a578063c87b56dd14610869575f80fd5b80637909eb7311610143578063865d79b31161011e578063865d79b31461075b57806391d148541461077a57806395d89b41146107995780639cbff422146107ad575f80fd5b80637909eb73146107125780637ffe8f25146107285780638129fc1c14610747575f80fd5b8063599ed3ff146106685780635a8afbfc146106965780636344cd20146106ac5780636352211e146106c05780636c0360eb146106df57806370a08231146106f3575f80fd5b806332a93a3a1161024557806342966c68116101ff5780634f6ccce7116101da5780634f6ccce7146105e957806352d1902d1461060857806354fd4d501461061c57806355f804b314610649575f80fd5b806342966c68146105a357806343d3cf61146105c25780634f1ef286146105d6575f80fd5b806332a93a3a146104f257806335b1a7ea1461051157806336568abe146105305780633659cfe61461054f578063427786421461056e57806342842e0e14610584575f80fd5b806318160ddd116102b057806323b872dd1161028b57806323b872dd14610467578063248a9ca3146104865780632f2ff15d146104b45780632f745c59146104d3575f80fd5b806318160ddd146103fc5780631823e26a146104105780631aa2c2f814610448575f80fd5b80625c154e146102f657806301ffc9a71461033557806306fdde0314610364578063081812fc14610385578063095ea7b3146103bc5780631693d2eb146103dd575b5f80fd5b348015610301575f80fd5b5061032261031036600461337a565b6101946020525f908152604090205481565b6040519081526020015b60405180910390f35b348015610340575f80fd5b5061035461034f3660046133a8565b61097f565b604051901515815260200161032c565b34801561036f575f80fd5b5061037861098f565b60405161032c9190613410565b348015610390575f80fd5b506103a461039f366004613422565b610a1f565b6040516001600160a01b03909116815260200161032c565b3480156103c7575f80fd5b506103db6103d6366004613439565b610a44565b005b3480156103e8575f80fd5b506103db6103f7366004613461565b610b5d565b348015610407575f80fd5b50609954610322565b34801561041b575f80fd5b5061032261042a3660046135ba565b805160208183018101805161019d8252928201919093012091525481565b348015610453575f80fd5b506103db61046236600461362f565b610bde565b348015610472575f80fd5b506103db61048136600461366d565b610bfc565b348015610491575f80fd5b506103226104a0366004613422565b5f90815260fb602052604090206001015490565b3480156104bf575f80fd5b506103db6104ce3660046136a6565b610c2e565b3480156104de575f80fd5b506103226104ed366004613439565b610c52565b3480156104fd575f80fd5b506103db61050c36600461337a565b610ce6565b34801561051c575f80fd5b506103db61052b3660046136d0565b610d63565b34801561053b575f80fd5b506103db61054a3660046136a6565b610d82565b34801561055a575f80fd5b506103db61056936600461337a565b610e00565b348015610579575f80fd5b5061032261019c5481565b34801561058f575f80fd5b506103db61059e36600461366d565b610eda565b3480156105ae575f80fd5b506103db6105bd366004613422565b610ef4565b3480156105cd575f80fd5b50610378610f22565b6103db6105e4366004613769565b610faf565b3480156105f4575f80fd5b50610322610603366004613422565b61107a565b348015610613575f80fd5b5061032261110a565b348015610627575f80fd5b506040805180820190915260058152640322e342e360dc1b6020820152610378565b348015610654575f80fd5b506103db61066336600461362f565b6111bb565b348015610673575f80fd5b50610687610682366004613422565b6111d3565b60405161032c939291906137b3565b3480156106a1575f80fd5b5061032261019b5481565b3480156106b7575f80fd5b50610378611387565b3480156106cb575f80fd5b506103a46106da366004613422565b611395565b3480156106ea575f80fd5b506103786113f4565b3480156106fe575f80fd5b5061032261070d36600461337a565b611402565b34801561071d575f80fd5b5061032261019a5481565b348015610733575f80fd5b506103db6107423660046137f5565b611486565b348015610752575f80fd5b506103db61151f565b348015610766575f80fd5b506103db61077536600461392b565b61168b565b348015610785575f80fd5b506103546107943660046136a6565b611c9b565b3480156107a4575f80fd5b50610378611cc5565b3480156107b8575f80fd5b50610378611cd4565b3480156107cc575f80fd5b506103225f81565b3480156107df575f80fd5b506103db6107ee3660046139f3565b611ce2565b3480156107fe575f80fd5b5061032261080d3660046135ba565b805160208183018101805161019e8252928201919093012091525481565b348015610836575f80fd5b506103db610845366004613a28565b611ced565b348015610855575f80fd5b506103db610864366004613a8b565b611d1f565b348015610874575f80fd5b50610378610883366004613422565b611dac565b348015610893575f80fd5b506103db6108a23660046136a6565b611e10565b3480156108b2575f80fd5b506103226108c1366004613422565b611e34565b3480156108d1575f80fd5b50610197546103a4906001600160a01b031681565b3480156108f1575f80fd5b506103db61090036600461362f565b611e4b565b348015610910575f80fd5b506103db61091f36600461362f565b611e84565b34801561092f575f80fd5b5061035461093e366004613ad2565b6001600160a01b039182165f908152606a6020908152604080832093909416825291909152205460ff1690565b348015610976575f80fd5b50610378611ec8565b5f61098982611ed6565b92915050565b60606065805461099e90613afa565b80601f01602080910402602001604051908101604052809291908181526020018280546109ca90613afa565b8015610a155780601f106109ec57610100808354040283529160200191610a15565b820191905f5260205f20905b8154815290600101906020018083116109f857829003601f168201915b5050505050905090565b5f610a2982611efa565b505f908152606960205260409020546001600160a01b031690565b5f610a4e82611395565b9050806001600160a01b0316836001600160a01b031603610ac05760405162461bcd60e51b815260206004820152602160248201527f4552433732313a20617070726f76616c20746f2063757272656e74206f776e656044820152603960f91b60648201526084015b60405180910390fd5b336001600160a01b0382161480610adc5750610adc813361093e565b610b4e5760405162461bcd60e51b815260206004820152603e60248201527f4552433732313a20617070726f76652063616c6c6572206973206e6f7420746f60448201527f6b656e206f776e6572206e6f7220617070726f76656420666f7220616c6c00006064820152608401610ab7565b610b588383611f58565b505050565b5f610b6781611fc5565b5f5b83811015610bd757826101945f878785818110610b8857610b88613b32565b9050602002016020810190610b9d919061337a565b6001600160a01b03166001600160a01b031681526020019081526020015f205f828254610bca9190613b5a565b9091555050600101610b69565b5050505050565b5f610be881611fc5565b610195610bf6838583613bc5565b50505050565b610c07335b82611fcf565b610c235760405162461bcd60e51b8152600401610ab790613c79565b610b5883838361204c565b5f82815260fb6020526040902060010154610c4881611fc5565b610b5883836121ef565b5f610c5c83611402565b8210610cbe5760405162461bcd60e51b815260206004820152602b60248201527f455243373231456e756d657261626c653a206f776e657220696e646578206f7560448201526a74206f6620626f756e647360a81b6064820152608401610ab7565b506001600160a01b03919091165f908152609760209081526040808320938352929052205490565b335f9081526101946020526040902054610d375760405162461bcd60e51b81526020600482015260126024820152711b9bc81b5a5b9d1a5b99c8185b1b1bddd95960721b6044820152606401610ab7565b335f90815261019460205260408120805491610d5283613cc7565b9190505550610d6081612274565b50565b5f610d6d81611fc5565b610d7a86868686866122f9565b505050505050565b6001600160a01b0381163314610df25760405162461bcd60e51b815260206004820152602f60248201527f416363657373436f6e74726f6c3a2063616e206f6e6c792072656e6f756e636560448201526e103937b632b9903337b91039b2b63360891b6064820152608401610ab7565b610dfc828261242b565b5050565b6001600160a01b037f0000000000000000000000000000000000000000000000000000000000000000163003610e485760405162461bcd60e51b8152600401610ab790613cdc565b7f00000000000000000000000000000000000000000000000000000000000000006001600160a01b0316610e905f8051602061420c833981519152546001600160a01b031690565b6001600160a01b031614610eb65760405162461bcd60e51b8152600401610ab790613d28565b610ebf81612491565b604080515f80825260208201909252610d609183919061249b565b610b5883838360405180602001604052805f815250611ced565b610efd33610c01565b610f195760405162461bcd60e51b8152600401610ab790613c79565b610d6081612605565b6101a18054610f3090613afa565b80601f0160208091040260200160405190810160405280929190818152602001828054610f5c90613afa565b8015610fa75780601f10610f7e57610100808354040283529160200191610fa7565b820191905f5260205f20905b815481529060010190602001808311610f8a57829003601f168201915b505050505081565b6001600160a01b037f0000000000000000000000000000000000000000000000000000000000000000163003610ff75760405162461bcd60e51b8152600401610ab790613cdc565b7f00000000000000000000000000000000000000000000000000000000000000006001600160a01b031661103f5f8051602061420c833981519152546001600160a01b031690565b6001600160a01b0316146110655760405162461bcd60e51b8152600401610ab790613d28565b61106e82612491565b610dfc8282600161249b565b5f61108460995490565b82106110e75760405162461bcd60e51b815260206004820152602c60248201527f455243373231456e756d657261626c653a20676c6f62616c20696e646578206f60448201526b7574206f6620626f756e647360a01b6064820152608401610ab7565b609982815481106110fa576110fa613b32565b905f5260205f2001549050919050565b5f306001600160a01b037f000000000000000000000000000000000000000000000000000000000000000016146111a95760405162461bcd60e51b815260206004820152603860248201527f555550535570677261646561626c653a206d757374206e6f742062652063616c60448201527f6c6564207468726f7567682064656c656761746563616c6c00000000000000006064820152608401610ab7565b505f8051602061420c83398151915290565b5f6111c581611fc5565b610196610bf6838583613bc5565b6101936020525f90815260409020805481906111ee90613afa565b80601f016020809104026020016040519081016040528092919081815260200182805461121a90613afa565b80156112655780601f1061123c57610100808354040283529160200191611265565b820191905f5260205f20905b81548152906001019060200180831161124857829003601f168201915b50505050509080600101805461127a90613afa565b80601f01602080910402602001604051908101604052809291908181526020018280546112a690613afa565b80156112f15780601f106112c8576101008083540402835291602001916112f1565b820191905f5260205f20905b8154815290600101906020018083116112d457829003601f168201915b50505050509080600201805461130690613afa565b80601f016020809104026020016040519081016040528092919081815260200182805461133290613afa565b801561137d5780601f106113545761010080835404028352916020019161137d565b820191905f5260205f20905b81548152906001019060200180831161136057829003601f168201915b5050505050905083565b6101958054610f3090613afa565b5f818152606760205260408120546001600160a01b0316806109895760405162461bcd60e51b8152602060048201526018602482015277115490cdcc8c4e881a5b9d985b1a59081d1bdad95b88125160421b6044820152606401610ab7565b6101968054610f3090613afa565b5f6001600160a01b03821661146b5760405162461bcd60e51b815260206004820152602960248201527f4552433732313a2061646472657373207a65726f206973206e6f7420612076616044820152683634b21037bbb732b960b91b6064820152608401610ab7565b506001600160a01b03165f9081526068602052604090205490565b5f61149081611fc5565b61149a8787611e84565b61019780546001600160a01b0319166001600160a01b038c161790556114c46101988a600261330d565b5061019f6114d3878983613bc5565b506101a06114e2858783613bc5565b506101a16114f1838583613bc5565b5061019b8890555f61019c81905561019a80549161150e83613d74565b919050555050505050505050505050565b5f54610100900460ff161580801561153d57505f54600160ff909116105b806115565750303b15801561155657505f5460ff166001145b6115b95760405162461bcd60e51b815260206004820152602e60248201527f496e697469616c697a61626c653a20636f6e747261637420697320616c72656160448201526d191e481a5b9a5d1a585b1a5e995960921b6064820152608401610ab7565b5f805460ff1916600117905580156115da575f805461ff0019166101001790555b61161a604051806040016040528060058152602001640a4cadad2f60db1b815250604051806040016040528060018152602001602960f91b8152506126a7565b6116226126d7565b61162a6126d7565b6116326126d7565b61163a6126d7565b6116445f336126ff565b8015610d60575f805461ff0019169055604051600181527f7f26b83ff96e1f2b6a682f133852f6798a09c465da95921460cefb38474024989060200160405180910390a150565b610197546001600160a01b03166116db5760405162461bcd60e51b81526020600482015260146024820152731b9bc818da185b1b195b99d9481cdd185c9d195960621b6044820152606401610ab7565b61019b5461019c541061173a5760405162461bcd60e51b815260206004820152602160248201527f7075626c6973686572732072656163686564206d6178696d756d20616d6f756e6044820152601d60fa1b6064820152608401610ab7565b61019a5460408083015181516020810193909352908201525f9060600160408051808303601f1901815282825261019a5460208401523360601b6bffffffffffffffffffffffff19168383015281516034818503018152605490930191829052925061019d906117ab908490613d8c565b9081526020016040518091039020545f146118085760405162461bcd60e51b815260206004820152601760248201527f70726f6f6620616c7265616479207075626c69736865640000000000000000006044820152606401610ab7565b61019e816040516118199190613d8c565b9081526020016040518091039020545f146118865760405162461bcd60e51b815260206004820152602760248201527f63757272656e74207075626c69736865642068617320616c7265616479207375604482015266189b5a5d1d195960ca1b6064820152608401610ab7565b825161019854146118d95760405162461bcd60e51b815260206004820152601f60248201527f70726f7669646564206368616c6c656e6765206973206e6f742076616c6964006044820152606401610ab7565b6020830151610199541461192f5760405162461bcd60e51b815260206004820152601f60248201527f70726f7669646564206368616c6c656e6765206973206e6f742076616c6964006044820152606401610ab7565b610197548451602086015160408088015190515f9485946001600160a01b03909116938593611962938b90602401613dc9565b60408051601f198184030181529181526020820180516001600160e01b03166343753b4d60e01b179052516119979190613d8c565b5f6040518083038185875af1925050503d805f81146119d1576040519150601f19603f3d011682016040523d82523d5f602084013e6119d6565b606091505b509150915081611a285760405162461bcd60e51b815260206004820152601f60248201527f7468652063616c6c20746f20746865207665726966696572206661696c6564006044820152606401610ab7565b5f81806020019051810190611a3d9190613e4b565b905080611a8c5760405162461bcd60e51b815260206004820152601e60248201527f7468652070726f76696465642070726f6f662069736e27742076616c696400006044820152606401610ab7565b611c353361019f8054611a9e90613afa565b80601f0160208091040260200160405190810160405280929190818152602001828054611aca90613afa565b8015611b155780601f10611aec57610100808354040283529160200191611b15565b820191905f5260205f20905b815481529060010190602001808311611af857829003601f168201915b50505050506101a08054611b2890613afa565b80601f0160208091040260200160405190810160405280929190818152602001828054611b5490613afa565b8015611b9f5780601f10611b7657610100808354040283529160200191611b9f565b820191905f5260205f20905b815481529060010190602001808311611b8257829003601f168201915b50505050506101a18054611bb290613afa565b80601f0160208091040260200160405190810160405280929190818152602001828054611bde90613afa565b8015611c295780601f10611c0057610100808354040283529160200191611c29565b820191905f5260205f20905b815481529060010190602001808311611c0c57829003601f168201915b505050505060016122f9565b61019c8054905f611c4583613d74565b9190505550600161019d86604051611c5d9190613d8c565b908152602001604051809103902081905550600161019e85604051611c829190613d8c565b9081526040519081900360200190205550505050505050565b5f91825260fb602090815260408084206001600160a01b0393909316845291905290205460ff1690565b60606066805461099e90613afa565b61019f8054610f3090613afa565b610dfc338383612709565b611cf73383611fcf565b611d135760405162461bcd60e51b8152600401610ab790613c79565b610bf6848484846127d6565b5f611d2981611fc5565b611d3284611efa565b5f848152610193602052604090206002018054611d4e90613afa565b159050611d905760405162461bcd60e51b815260206004820152601060248201526f1a185cda08185b1c9958591e481cd95d60821b6044820152606401610ab7565b5f84815261019360205260409020600201610bd7838583613bc5565b6060611db782611efa565b5f611dc0612809565b90505f815111611dde5760405180602001604052805f815250611e09565b80611de884612819565b604051602001611df9929190613e66565b6040516020818303038152906040525b9392505050565b5f82815260fb6020526040902060010154611e2a81611fc5565b610b58838361242b565b6101988160028110611e44575f80fd5b0154905081565b5f611e5581611fc5565b6101928383604051611e68929190613e94565b908152604051908190036020019020805460ff19169055505050565b5f611e8e81611fc5565b60016101928484604051611ea3929190613e94565b908152604051908190036020019020805491151560ff19909216919091179055505050565b6101a08054610f3090613afa565b5f6001600160e01b03198216637965db0b60e01b1480610989575061098982612915565b5f818152606760205260409020546001600160a01b0316610d605760405162461bcd60e51b8152602060048201526018602482015277115490cdcc8c4e881a5b9d985b1a59081d1bdad95b88125160421b6044820152606401610ab7565b5f81815260696020526040902080546001600160a01b0319166001600160a01b0384169081179091558190611f8c82611395565b6001600160a01b03167f8c5be1e5ebec7d5bd14f71427d1e84f3dd0314c0f7b2291e5b200ac8c7c3b92560405160405180910390a45050565b610d608133612939565b5f80611fda83611395565b9050806001600160a01b0316846001600160a01b0316148061202057506001600160a01b038082165f908152606a602090815260408083209388168352929052205460ff165b806120445750836001600160a01b031661203984610a1f565b6001600160a01b0316145b949350505050565b826001600160a01b031661205f82611395565b6001600160a01b0316146120c35760405162461bcd60e51b815260206004820152602560248201527f4552433732313a207472616e736665722066726f6d20696e636f72726563742060448201526437bbb732b960d91b6064820152608401610ab7565b6001600160a01b0382166121255760405162461bcd60e51b8152602060048201526024808201527f4552433732313a207472616e7366657220746f20746865207a65726f206164646044820152637265737360e01b6064820152608401610ab7565b61213083838361299d565b61213a5f82611f58565b6001600160a01b0383165f908152606860205260408120805460019290612162908490613ea3565b90915550506001600160a01b0382165f90815260686020526040812080546001929061218f908490613b5a565b90915550505f8181526067602052604080822080546001600160a01b0319166001600160a01b0386811691821790925591518493918716917fddf252ad1be2c89b69c2b068fc378daa952ba7f163c4a11628f55a4df523b3ef91a4505050565b6121f98282611c9b565b610dfc575f82815260fb602090815260408083206001600160a01b03851684529091529020805460ff191660011790556122303390565b6001600160a01b0316816001600160a01b0316837f2f8788117e7eff1d82e926ec794901d17c78024a50270940304540a733656f0d60405160405180910390a45050565b5f61227f6101915490565b905061229061019180546001019055565b61229a82826129f8565b604051806040016040528060078152602001662932b6b4bc32b960c91b8152506101935f8381526020019081526020015f2060010190816122db9190613eb6565b505f81815261019360205260409020600201610b5861019582613f6c565b6101928460405161230a9190613d8c565b9081526040519081900360200190205460ff166123695760405162461bcd60e51b815260206004820152601760248201527f747970652073686f756c64206265206465636c617265640000000000000000006044820152606401610ab7565b5f6123746101915490565b905061238561019180546001019055565b61238f86826129f8565b5f818152610193602052604090206123a78582613eb6565b505f818152610193602052604090206001016123c38682613eb6565b505f818152610193602052604090206002016123df8482613eb6565b508115610d7a576001600160a01b0386165f908152610194602052604090205461240a908390613b5a565b6001600160a01b0387165f9081526101946020526040902055505050505050565b6124358282611c9b565b15610dfc575f82815260fb602090815260408083206001600160a01b0385168085529252808320805460ff1916905551339285917ff6391f5c32d9c69d2a47ea670b442974b53935d1edc7fd64eb21e047a839171b9190a45050565b5f610dfc81611fc5565b7f4910fdfa16fed3260ed0e7147f7cc6da11a60208b5b9406d12a635614ffd91435460ff16156124ce57610b5883612a11565b826001600160a01b03166352d1902d6040518163ffffffff1660e01b8152600401602060405180830381865afa925050508015612528575060408051601f3d908101601f1916820190925261252591810190614031565b60015b61258b5760405162461bcd60e51b815260206004820152602e60248201527f45524331393637557067726164653a206e657720696d706c656d656e7461746960448201526d6f6e206973206e6f74205555505360901b6064820152608401610ab7565b5f8051602061420c83398151915281146125f95760405162461bcd60e51b815260206004820152602960248201527f45524331393637557067726164653a20756e737570706f727465642070726f786044820152681a58589b195555525160ba1b6064820152608401610ab7565b50610b58838383612aac565b5f61260f82611395565b905061261c815f8461299d565b6126265f83611f58565b6001600160a01b0381165f90815260686020526040812080546001929061264e908490613ea3565b90915550505f8281526067602052604080822080546001600160a01b0319169055518391906001600160a01b038416907fddf252ad1be2c89b69c2b068fc378daa952ba7f163c4a11628f55a4df523b3ef908390a45050565b5f54610100900460ff166126cd5760405162461bcd60e51b8152600401610ab790614048565b610dfc8282612ad0565b5f54610100900460ff166126fd5760405162461bcd60e51b8152600401610ab790614048565b565b610dfc82826121ef565b816001600160a01b0316836001600160a01b03160361276a5760405162461bcd60e51b815260206004820152601960248201527f4552433732313a20617070726f766520746f2063616c6c6572000000000000006044820152606401610ab7565b6001600160a01b038381165f818152606a6020908152604080832094871680845294825291829020805460ff191686151590811790915591519182527f17307eab39ab6107e8899845ad3d59bd9653f200f220920489ca2b5937696c31910160405180910390a3505050565b6127e184848461204c565b6127ed84848484612b0f565b610bf65760405162461bcd60e51b8152600401610ab790614093565b6060610196805461099e90613afa565b6060815f0361283f5750506040805180820190915260018152600360fc1b602082015290565b815f5b8115612868578061285281613d74565b91506128619050600a836140f9565b9150612842565b5f816001600160401b03811115612881576128816134d4565b6040519080825280601f01601f1916602001820160405280156128ab576020820181803683370190505b5090505b8415612044576128c0600183613ea3565b91506128cd600a8661410c565b6128d8906030613b5a565b60f81b8183815181106128ed576128ed613b32565b60200101906001600160f81b03191690815f1a90535061290e600a866140f9565b94506128af565b5f6001600160e01b0319821663780e9d6360e01b1480610989575061098982612c0c565b6129438282611c9b565b610dfc5761295b816001600160a01b03166014612c5b565b612966836020612c5b565b60405160200161297792919061411f565b60408051601f198184030181529082905262461bcd60e51b8252610ab791600401613410565b6001600160a01b038316156129ed5760405162461bcd60e51b8152602060048201526016602482015275746f6b656e206e6f74207472616e7366657261626c6560501b6044820152606401610ab7565b610b58838383612df0565b610dfc828260405180602001604052805f815250612ea7565b6001600160a01b0381163b612a7e5760405162461bcd60e51b815260206004820152602d60248201527f455243313936373a206e657720696d706c656d656e746174696f6e206973206e60448201526c1bdd08184818dbdb9d1c9858dd609a1b6064820152608401610ab7565b5f8051602061420c83398151915280546001600160a01b0319166001600160a01b0392909216919091179055565b612ab583612ed9565b5f82511180612ac15750805b15610b5857610bf68383612f18565b5f54610100900460ff16612af65760405162461bcd60e51b8152600401610ab790614048565b6065612b028382613eb6565b506066610b588282613eb6565b5f6001600160a01b0384163b15612c0157604051630a85bd0160e11b81526001600160a01b0385169063150b7a0290612b52903390899088908890600401614193565b6020604051808303815f875af1925050508015612b8c575060408051601f3d908101601f19168201909252612b89918101906141c5565b60015b612be7573d808015612bb9576040519150601f19603f3d011682016040523d82523d5f602084013e612bbe565b606091505b5080515f03612bdf5760405162461bcd60e51b8152600401610ab790614093565b805181602001fd5b6001600160e01b031916630a85bd0160e11b149050612044565b506001949350505050565b5f6001600160e01b031982166380ac58cd60e01b1480612c3c57506001600160e01b03198216635b5e139f60e01b145b8061098957506301ffc9a760e01b6001600160e01b0319831614610989565b60605f612c698360026141e0565b612c74906002613b5a565b6001600160401b03811115612c8b57612c8b6134d4565b6040519080825280601f01601f191660200182016040528015612cb5576020820181803683370190505b509050600360fc1b815f81518110612ccf57612ccf613b32565b60200101906001600160f81b03191690815f1a905350600f60fb1b81600181518110612cfd57612cfd613b32565b60200101906001600160f81b03191690815f1a9053505f612d1f8460026141e0565b612d2a906001613b5a565b90505b6001811115612da1576f181899199a1a9b1b9c1cb0b131b232b360811b85600f1660108110612d5e57612d5e613b32565b1a60f81b828281518110612d7457612d74613b32565b60200101906001600160f81b03191690815f1a90535060049490941c93612d9a81613cc7565b9050612d2d565b508315611e095760405162461bcd60e51b815260206004820181905260248201527f537472696e67733a20686578206c656e67746820696e73756666696369656e746044820152606401610ab7565b6001600160a01b038316612e4a57612e4581609980545f838152609a60205260408120829055600182018355919091527f72a152ddfb8e864297c917af52ea6c1c68aead0fee1a62673fcc7e0c94979d000155565b612e6d565b816001600160a01b0316836001600160a01b031614612e6d57612e6d8382613008565b6001600160a01b038216612e8457610b58816130a1565b826001600160a01b0316826001600160a01b031614610b5857610b588282613148565b612eb1838361318a565b612ebd5f848484612b0f565b610b585760405162461bcd60e51b8152600401610ab790614093565b612ee281612a11565b6040516001600160a01b038216907fbc7cd75a20ee27fd9adebab32041f755214dbc6bffa90cc0225b39da2e5c2d3b905f90a250565b60606001600160a01b0383163b612f805760405162461bcd60e51b815260206004820152602660248201527f416464726573733a2064656c65676174652063616c6c20746f206e6f6e2d636f6044820152651b9d1c9858dd60d21b6064820152608401610ab7565b5f80846001600160a01b031684604051612f9a9190613d8c565b5f60405180830381855af49150503d805f8114612fd2576040519150601f19603f3d011682016040523d82523d5f602084013e612fd7565b606091505b5091509150612fff828260405180606001604052806027815260200161422c602791396132d4565b95945050505050565b5f600161301484611402565b61301e9190613ea3565b5f8381526098602052604090205490915080821461306f576001600160a01b0384165f9081526097602090815260408083208584528252808320548484528184208190558352609890915290208190555b505f9182526098602090815260408084208490556001600160a01b039094168352609781528383209183525290812055565b6099545f906130b290600190613ea3565b5f838152609a6020526040812054609980549394509092849081106130d9576130d9613b32565b905f5260205f200154905080609983815481106130f8576130f8613b32565b5f918252602080832090910192909255828152609a9091526040808220849055858252812055609980548061312f5761312f6141f7565b600190038181905f5260205f20015f9055905550505050565b5f61315283611402565b6001600160a01b039093165f908152609760209081526040808320868452825280832085905593825260989052919091209190915550565b6001600160a01b0382166131e05760405162461bcd60e51b815260206004820181905260248201527f4552433732313a206d696e7420746f20746865207a65726f20616464726573736044820152606401610ab7565b5f818152606760205260409020546001600160a01b0316156132445760405162461bcd60e51b815260206004820152601c60248201527f4552433732313a20746f6b656e20616c7265616479206d696e746564000000006044820152606401610ab7565b61324f5f838361299d565b6001600160a01b0382165f908152606860205260408120805460019290613277908490613b5a565b90915550505f8181526067602052604080822080546001600160a01b0319166001600160a01b03861690811790915590518392907fddf252ad1be2c89b69c2b068fc378daa952ba7f163c4a11628f55a4df523b3ef908290a45050565b606083156132e3575081611e09565b8251156132f35782518084602001fd5b8160405162461bcd60e51b8152600401610ab79190613410565b826002810192821561333b579160200282015b8281111561333b578235825591602001919060010190613320565b5061334792915061334b565b5090565b5b80821115613347575f815560010161334c565b80356001600160a01b0381168114613375575f80fd5b919050565b5f6020828403121561338a575f80fd5b611e098261335f565b6001600160e01b031981168114610d60575f80fd5b5f602082840312156133b8575f80fd5b8135611e0981613393565b5f5b838110156133dd5781810151838201526020016133c5565b50505f910152565b5f81518084526133fc8160208601602086016133c3565b601f01601f19169290920160200192915050565b602081525f611e0960208301846133e5565b5f60208284031215613432575f80fd5b5035919050565b5f806040838503121561344a575f80fd5b6134538361335f565b946020939093013593505050565b5f805f60408486031215613473575f80fd5b83356001600160401b0380821115613489575f80fd5b818601915086601f83011261349c575f80fd5b8135818111156134aa575f80fd5b8760208260051b85010111156134be575f80fd5b6020928301989097509590910135949350505050565b634e487b7160e01b5f52604160045260245ffd5b604051606081016001600160401b038111828210171561350a5761350a6134d4565b60405290565b604080519081016001600160401b038111828210171561350a5761350a6134d4565b5f82601f830112613541575f80fd5b81356001600160401b038082111561355b5761355b6134d4565b604051601f8301601f19908116603f01168101908282118183101715613583576135836134d4565b8160405283815286602085880101111561359b575f80fd5b836020870160208301375f602085830101528094505050505092915050565b5f602082840312156135ca575f80fd5b81356001600160401b038111156135df575f80fd5b61204484828501613532565b5f8083601f8401126135fb575f80fd5b5081356001600160401b03811115613611575f80fd5b602083019150836020828501011115613628575f80fd5b9250929050565b5f8060208385031215613640575f80fd5b82356001600160401b03811115613655575f80fd5b613661858286016135eb565b90969095509350505050565b5f805f6060848603121561367f575f80fd5b6136888461335f565b92506136966020850161335f565b9150604084013590509250925092565b5f80604083850312156136b7575f80fd5b823591506136c76020840161335f565b90509250929050565b5f805f805f60a086880312156136e4575f80fd5b6136ed8661335f565b945060208601356001600160401b0380821115613708575f80fd5b61371489838a01613532565b95506040880135915080821115613729575f80fd5b61373589838a01613532565b9450606088013591508082111561374a575f80fd5b5061375788828901613532565b95989497509295608001359392505050565b5f806040838503121561377a575f80fd5b6137838361335f565b915060208301356001600160401b0381111561379d575f80fd5b6137a985828601613532565b9150509250929050565b606081525f6137c560608301866133e5565b82810360208401526137d781866133e5565b905082810360408401526137eb81856133e5565b9695505050505050565b5f805f805f805f805f60e08a8c03121561380d575f80fd5b6138168a61335f565b985060608a018b811115613828575f80fd5b60208b01985035965060808a01356001600160401b038082111561384a575f80fd5b6138568d838e016135eb565b909850965060a08c013591508082111561386e575f80fd5b61387a8d838e016135eb565b909650945060c08c0135915080821115613892575f80fd5b5061389f8c828d016135eb565b915080935050809150509295985092959850929598565b5f82601f8301126138c5575f80fd5b6138cd613510565b8060408401858111156138de575f80fd5b845b818110156138f85780358452602093840193016138e0565b509095945050505050565b5f82601f830112613912575f80fd5b61391a6134e8565b8060608401858111156138de575f80fd5b5f8082840361016081121561393e575f80fd5b6101008082121561394d575f80fd5b6139556134e8565b915061396186866138b6565b8252604086605f870112613973575f80fd5b61397b613510565b8060c088018981111561398c575f80fd5b604089015b818110156139b2576139a38b826138b6565b84526020909301928401613991565b508160208701526139c38a826138b6565b6040870152505050508193506139db86828701613903565b925050509250929050565b8015158114610d60575f80fd5b5f8060408385031215613a04575f80fd5b613a0d8361335f565b91506020830135613a1d816139e6565b809150509250929050565b5f805f8060808587031215613a3b575f80fd5b613a448561335f565b9350613a526020860161335f565b92506040850135915060608501356001600160401b03811115613a73575f80fd5b613a7f87828801613532565b91505092959194509250565b5f805f60408486031215613a9d575f80fd5b8335925060208401356001600160401b03811115613ab9575f80fd5b613ac5868287016135eb565b9497909650939450505050565b5f8060408385031215613ae3575f80fd5b613aec8361335f565b91506136c76020840161335f565b600181811c90821680613b0e57607f821691505b602082108103613b2c57634e487b7160e01b5f52602260045260245ffd5b50919050565b634e487b7160e01b5f52603260045260245ffd5b634e487b7160e01b5f52601160045260245ffd5b8082018082111561098957610989613b46565b601f821115610b5857805f5260205f20601f840160051c81016020851015613b925750805b601f840160051c820191505b81811015610bd7575f8155600101613b9e565b5f19600383901b1c191660019190911b1790565b6001600160401b03831115613bdc57613bdc6134d4565b613bf083613bea8354613afa565b83613b6d565b5f601f841160018114613c1c575f8515613c0a5750838201355b613c148682613bb1565b845550610bd7565b5f83815260208120601f198716915b82811015613c4b5786850135825560209485019460019092019101613c2b565b5086821015613c67575f1960f88860031b161c19848701351681555b505060018560011b0183555050505050565b6020808252602e908201527f4552433732313a2063616c6c6572206973206e6f7420746f6b656e206f776e6560408201526d1c881b9bdc88185c1c1c9bdd995960921b606082015260800190565b5f81613cd557613cd5613b46565b505f190190565b6020808252602c908201527f46756e6374696f6e206d7573742062652063616c6c6564207468726f7567682060408201526b19195b1959d85d1958d85b1b60a21b606082015260800190565b6020808252602c908201527f46756e6374696f6e206d7573742062652063616c6c6564207468726f7567682060408201526b6163746976652070726f787960a01b606082015260800190565b5f60018201613d8557613d85613b46565b5060010190565b5f8251613d9d8184602087016133c3565b9190910192915050565b805f5b6002811015610bf6578151845260209384019390910190600101613daa565b6101608101613dd88287613da7565b6040808301865f5b6002811015613e0757613df4838351613da7565b9183019160209190910190600101613de0565b50505050613e1860c0830185613da7565b6101008201835f5b6003811015613e3f578151835260209283019290910190600101613e20565b50505095945050505050565b5f60208284031215613e5b575f80fd5b8151611e09816139e6565b5f8351613e778184602088016133c3565b835190830190613e8b8183602088016133c3565b01949350505050565b818382375f9101908152919050565b8181038181111561098957610989613b46565b81516001600160401b03811115613ecf57613ecf6134d4565b613ee381613edd8454613afa565b84613b6d565b602080601f831160018114613f11575f8415613eff5750858301515b613f098582613bb1565b865550610d7a565b5f85815260208120601f198616915b82811015613f3f57888601518255948401946001909101908401613f20565b5085821015613f5c57878501515f19600388901b60f8161c191681555b5050505050600190811b01905550565b818103613f77575050565b613f818254613afa565b6001600160401b03811115613f9857613f986134d4565b613fa681613edd8454613afa565b5f601f821160018114613fd2575f8315613fc05750848201545b613fca8482613bb1565b855550610bd7565b5f8581526020808220868352908220601f198616925b838110156140085782860154825560019586019590910190602001613fe8565b5085831015613f5c579301545f1960f8600387901b161c19169092555050600190811b01905550565b5f60208284031215614041575f80fd5b5051919050565b6020808252602b908201527f496e697469616c697a61626c653a20636f6e7472616374206973206e6f74206960408201526a6e697469616c697a696e6760a81b606082015260800190565b60208082526032908201527f4552433732313a207472616e7366657220746f206e6f6e20455243373231526560408201527131b2b4bb32b91034b6b83632b6b2b73a32b960711b606082015260800190565b634e487b7160e01b5f52601260045260245ffd5b5f82614107576141076140e5565b500490565b5f8261411a5761411a6140e5565b500690565b7f416363657373436f6e74726f6c3a206163636f756e742000000000000000000081525f83516141568160178501602088016133c3565b7001034b99036b4b9b9b4b733903937b6329607d1b60179184019182015283516141878160288401602088016133c3565b01602801949350505050565b6001600160a01b03858116825284166020820152604081018390526080606082018190525f906137eb908301846133e5565b5f602082840312156141d5575f80fd5b8151611e0981613393565b808202811582820484141761098957610989613b46565b634e487b7160e01b5f52603160045260245ffdfe360894a13ba1a3210667c828492db98dca3e2076cc3735a920a3ca505d382bbc416464726573733a206c6f772d6c6576656c2064656c65676174652063616c6c206661696c6564a2646970667358221220e68a3794ff6cc0d356e22534deccdc5c1e860d5fcdc510a99cb2840291bfd4d064736f6c63430008160033",
			"opcodes": "PUSH1 0xA0 PUSH1 0x40 MSTORE ADDRESS PUSH1 0x80 MSTORE CALLVALUE DUP1 ISZERO PUSH2 0x13 JUMPI PUSH0 DUP1 REVERT JUMPDEST POP PUSH1 0x80 MLOAD PUSH2 0x4288 PUSH2 0x48 PUSH0 CODECOPY PUSH0 DUP2 DUP2 PUSH2 0xE0A ADD MSTORE DUP2 DUP2 PUSH2 0xE4A ADD MSTORE DUP2 DUP2 PUSH2 0xFB9 ADD MSTORE DUP2 DUP2 PUSH2 0xFF9 ADD MSTORE PUSH2 0x1116 ADD MSTORE PUSH2 0x4288 PUSH0 RETURN INVALID PUSH1 0x80 PUSH1 0x40 MSTORE PUSH1 0x4 CALLDATASIZE LT PUSH2 0x2F2 JUMPI PUSH0 CALLDATALOAD PUSH1 0xE0 SHR DUP1 PUSH4 0x599ED3FF GT PUSH2 0x189 JUMPI DUP1 PUSH4 0xA217FDDF GT PUSH2 0xD8 JUMPI DUP1 PUSH4 0xD547741F GT PUSH2 0x92 JUMPI DUP1 PUSH4 0xE15E2FD4 GT PUSH2 0x6D JUMPI DUP1 PUSH4 0xE15E2FD4 EQ PUSH2 0x8E6 JUMPI DUP1 PUSH4 0xE7F08E69 EQ PUSH2 0x905 JUMPI DUP1 PUSH4 0xE985E9C5 EQ PUSH2 0x924 JUMPI DUP1 PUSH4 0xF1FE6911 EQ PUSH2 0x96B JUMPI PUSH0 DUP1 REVERT JUMPDEST DUP1 PUSH4 0xD547741F EQ PUSH2 0x888 JUMPI DUP1 PUSH4 0xD674CC2B EQ PUSH2 0x8A7 JUMPI DUP1 PUSH4 0xD6DF096D EQ PUSH2 0x8C6 JUMPI PUSH0 DUP1 REVERT JUMPDEST DUP1 PUSH4 0xA217FDDF EQ PUSH2 0x7C1 JUMPI DUP1 PUSH4 0xA22CB465 EQ PUSH2 0x7D4 JUMPI DUP1 PUSH4 0xB63CB3B9 EQ PUSH2 0x7F3 JUMPI DUP1 PUSH4 0xB88D4FDE EQ PUSH2 0x82B JUMPI DUP1 PUSH4 0xC0CECB9A EQ PUSH2 0x84A JUMPI DUP1 PUSH4 0xC87B56DD EQ PUSH2 0x869 JUMPI PUSH0 DUP1 REVERT JUMPDEST DUP1 PUSH4 0x7909EB73 GT PUSH2 0x143 JUMPI DUP1 PUSH4 0x865D79B3 GT PUSH2 0x11E JUMPI DUP1 PUSH4 0x865D79B3 EQ PUSH2 0x75B JUMPI DUP1 PUSH4 0x91D14854 EQ PUSH2 0x77A JUMPI DUP1 PUSH4 0x95D89B41 EQ PUSH2 0x799 JUMPI DUP1 PUSH4 0x9CBFF422 EQ PUSH2 0x7AD JUMPI PUSH0 DUP1 REVERT JUMPDEST DUP1 PUSH4 0x7909EB73 EQ PUSH2 0x712 JUMPI DUP1 PUSH4 0x7FFE8F25 EQ PUSH2 0x728 JUMPI DUP1 PUSH4 0x8129FC1C EQ PUSH2 0x747 JUMPI PUSH0 DUP1 REVERT JUMPDEST DUP1 PUSH4 0x599ED3FF EQ PUSH2 0x668 JUMPI DUP1 PUSH4 0x5A8AFBFC EQ PUSH2 0x696 JUMPI DUP1 PUSH4 0x6344CD20 EQ PUSH2 0x6AC JUMPI DUP1 PUSH4 0x6352211E EQ PUSH2 0x6C0 JUMPI DUP1 PUSH4 0x6C0360EB EQ PUSH2 0x6DF JUMPI DUP1 PUSH4 0x70A08231 EQ PUSH2 0x6F3 JUMPI PUSH0 DUP1 REVERT JUMPDEST DUP1 PUSH4 0x32A93A3A GT PUSH2 0x245 JUMPI DUP1 PUSH4 0x42966C68 GT PUSH2 0x1FF JUMPI DUP1 PUSH4 0x4F6CCCE7 GT PUSH2 0x1DA JUMPI DUP1 PUSH4 0x4F6CCCE7 EQ PUSH2 0x5E9 JUMPI DUP1 PUSH4 0x52D1902D EQ PUSH2 0x608 JUMPI DUP1 PUSH4 0x54FD4D50 EQ PUSH2 0x61C JUMPI DUP1 PUSH4 0x55F804B3 EQ PUSH2 0x649 JUMPI PUSH0 DUP1 REVERT JUMPDEST DUP1 PUSH4 0x42966C68 EQ PUSH2 0x5A3 JUMPI DUP1 PUSH4 0x43D3CF61 EQ PUSH2 0x5C2 JUMPI DUP1 PUSH4 0x4F1EF286 EQ PUSH2 0x5D6 JUMPI PUSH0 DUP1 REVERT JUMPDEST DUP1 PUSH4 0x32A93A3A EQ PUSH2 0x4F2 JUMPI DUP1 PUSH4 0x35B1A7EA EQ PUSH2 0x511 JUMPI DUP1 PUSH4 0x36568ABE EQ PUSH2 0x530 JUMPI DUP1 PUSH4 0x3659CFE6 EQ PUSH2 0x54F JUMPI DUP1 PUSH4 0x42778642 EQ PUSH2 0x56E JUMPI DUP1 PUSH4 0x42842E0E EQ PUSH2 0x584 JUMPI PUSH0 DUP1 REVERT JUMPDEST DUP1 PUSH4 0x18160DDD GT PUSH2 0x2B0 JUMPI DUP1 PUSH4 0x23B872DD GT PUSH2 0x28B JUMPI DUP1 PUSH4 0x23B872DD EQ PUSH2 0x467 JUMPI DUP1 PUSH4 0x248A9CA3 EQ PUSH2 0x486 JUMPI DUP1 PUSH4 0x2F2FF15D EQ PUSH2 0x4B4 JUMPI DUP1 PUSH4 0x2F745C59 EQ PUSH2 0x4D3 JUMPI PUSH0 DUP1 REVERT JUMPDEST DUP1 PUSH4 0x18160DDD EQ PUSH2 0x3FC JUMPI DUP1 PUSH4 0x1823E26A EQ PUSH2 0x410 JUMPI DUP1 PUSH4 0x1AA2C2F8 EQ PUSH2 0x448 JUMPI PUSH0 DUP1 REVERT JUMPDEST DUP1 PUSH3 0x5C154E EQ PUSH2 0x2F6 JUMPI DUP1 PUSH4 0x1FFC9A7 EQ PUSH2 0x335 JUMPI DUP1 PUSH4 0x6FDDE03 EQ PUSH2 0x364 JUMPI DUP1 PUSH4 0x81812FC EQ PUSH2 0x385 JUMPI DUP1 PUSH4 0x95EA7B3 EQ PUSH2 0x3BC JUMPI DUP1 PUSH4 0x1693D2EB EQ PUSH2 0x3DD JUMPI JUMPDEST PUSH0 DUP1 REVERT JUMPDEST CALLVALUE DUP1 ISZERO PUSH2 0x301 JUMPI PUSH0 DUP1 REVERT JUMPDEST POP PUSH2 0x322 PUSH2 0x310 CALLDATASIZE PUSH1 0x4 PUSH2 0x337A JUMP JUMPDEST PUSH2 0x194 PUSH1 0x20 MSTORE PUSH0 SWAP1 DUP2 MSTORE PUSH1 0x40 SWAP1 KECCAK256 SLOAD DUP2 JUMP JUMPDEST PUSH1 0x40 MLOAD SWAP1 DUP2 MSTORE PUSH1 0x20 ADD JUMPDEST PUSH1 0x40 MLOAD DUP1 SWAP2 SUB SWAP1 RETURN JUMPDEST CALLVALUE DUP1 ISZERO PUSH2 0x340 JUMPI PUSH0 DUP1 REVERT JUMPDEST POP PUSH2 0x354 PUSH2 0x34F CALLDATASIZE PUSH1 0x4 PUSH2 0x33A8 JUMP JUMPDEST PUSH2 0x97F JUMP JUMPDEST PUSH1 0x40 MLOAD SWAP1 ISZERO ISZERO DUP2 MSTORE PUSH1 0x20 ADD PUSH2 0x32C JUMP JUMPDEST CALLVALUE DUP1 ISZERO PUSH2 0x36F JUMPI PUSH0 DUP1 REVERT JUMPDEST POP PUSH2 0x378 PUSH2 0x98F JUMP JUMPDEST PUSH1 0x40 MLOAD PUSH2 0x32C SWAP2 SWAP1 PUSH2 0x3410 JUMP JUMPDEST CALLVALUE DUP1 ISZERO PUSH2 0x390 JUMPI PUSH0 DUP1 REVERT JUMPDEST POP PUSH2 0x3A4 PUSH2 0x39F CALLDATASIZE PUSH1 0x4 PUSH2 0x3422 JUMP JUMPDEST PUSH2 0xA1F JUMP JUMPDEST PUSH1 0x40 MLOAD PUSH1 0x1 PUSH1 0x1 PUSH1 0xA0 SHL SUB SWAP1 SWAP2 AND DUP2 MSTORE PUSH1 0x20 ADD PUSH2 0x32C JUMP JUMPDEST CALLVALUE DUP1 ISZERO PUSH2 0x3C7 JUMPI PUSH0 DUP1 REVERT JUMPDEST POP PUSH2 0x3DB PUSH2 0x3D6 CALLDATASIZE PUSH1 0x4 PUSH2 0x3439 JUMP JUMPDEST PUSH2 0xA44 JUMP JUMPDEST STOP JUMPDEST CALLVALUE DUP1 ISZERO PUSH2 0x3E8 JUMPI PUSH0 DUP1 REVERT JUMPDEST POP PUSH2 0x3DB PUSH2 0x3F7 CALLDATASIZE PUSH1 0x4 PUSH2 0x3461 JUMP JUMPDEST PUSH2 0xB5D JUMP JUMPDEST CALLVALUE DUP1 ISZERO PUSH2 0x407 JUMPI PUSH0 DUP1 REVERT JUMPDEST POP PUSH1 0x99 SLOAD PUSH2 0x322 JUMP JUMPDEST CALLVALUE DUP1 ISZERO PUSH2 0x41B JUMPI PUSH0 DUP1 REVERT JUMPDEST POP PUSH2 0x322 PUSH2 0x42A CALLDATASIZE PUSH1 0x4 PUSH2 0x35BA JUMP JUMPDEST DUP1 MLOAD PUSH1 0x20 DUP2 DUP4 ADD DUP2 ADD DUP1 MLOAD PUSH2 0x19D DUP3 MSTORE SWAP3 DUP3 ADD SWAP2 SWAP1 SWAP4 ADD KECCAK256 SWAP2 MSTORE SLOAD DUP2 JUMP JUMPDEST CALLVALUE DUP1 ISZERO PUSH2 0x453 JUMPI PUSH0 DUP1 REVERT JUMPDEST POP PUSH2 0x3DB PUSH2 0x462 CALLDATASIZE PUSH1 0x4 PUSH2 0x362F JUMP JUMPDEST PUSH2 0xBDE JUMP JUMPDEST CALLVALUE DUP1 ISZERO PUSH2 0x472 JUMPI PUSH0 DUP1 REVERT JUMPDEST POP PUSH2 0x3DB PUSH2 0x481 CALLDATASIZE PUSH1 0x4 PUSH2 0x366D JUMP JUMPDEST PUSH2 0xBFC JUMP JUMPDEST CALLVALUE DUP1 ISZERO PUSH2 0x491 JUMPI PUSH0 DUP1 REVERT JUMPDEST POP PUSH2 0x322 PUSH2 0x4A0 CALLDATASIZE PUSH1 0x4 PUSH2 0x3422 JUMP JUMPDEST PUSH0 SWAP1 DUP2 MSTORE PUSH1 0xFB PUSH1 0x20 MSTORE PUSH1 0x40 SWAP1 KECCAK256 PUSH1 0x1 ADD SLOAD SWAP1 JUMP JUMPDEST CALLVALUE DUP1 ISZERO PUSH2 0x4BF JUMPI PUSH0 DUP1 REVERT JUMPDEST POP PUSH2 0x3DB PUSH2 0x4CE CALLDATASIZE PUSH1 0x4 PUSH2 0x36A6 JUMP JUMPDEST PUSH2 0xC2E JUMP JUMPDEST CALLVALUE DUP1 ISZERO PUSH2 0x4DE JUMPI PUSH0 DUP1 REVERT JUMPDEST POP PUSH2 0x322 PUSH2 0x4ED CALLDATASIZE PUSH1 0x4 PUSH2 0x3439 JUMP JUMPDEST PUSH2 0xC52 JUMP JUMPDEST CALLVALUE DUP1 ISZERO PUSH2 0x4FD JUMPI PUSH0 DUP1 REVERT JUMPDEST POP PUSH2 0x3DB PUSH2 0x50C CALLDATASIZE PUSH1 0x4 PUSH2 0x337A JUMP JUMPDEST PUSH2 0xCE6 JUMP JUMPDEST CALLVALUE DUP1 ISZERO PUSH2 0x51C JUMPI PUSH0 DUP1 REVERT JUMPDEST POP PUSH2 0x3DB PUSH2 0x52B CALLDATASIZE PUSH1 0x4 PUSH2 0x36D0 JUMP JUMPDEST PUSH2 0xD63 JUMP JUMPDEST CALLVALUE DUP1 ISZERO PUSH2 0x53B JUMPI PUSH0 DUP1 REVERT JUMPDEST POP PUSH2 0x3DB PUSH2 0x54A CALLDATASIZE PUSH1 0x4 PUSH2 0x36A6 JUMP JUMPDEST PUSH2 0xD82 JUMP JUMPDEST CALLVALUE DUP1 ISZERO PUSH2 0x55A JUMPI PUSH0 DUP1 REVERT JUMPDEST POP PUSH2 0x3DB PUSH2 0x569 CALLDATASIZE PUSH1 0x4 PUSH2 0x337A JUMP JUMPDEST PUSH2 0xE00 JUMP JUMPDEST CALLVALUE DUP1 ISZERO PUSH2 0x579 JUMPI PUSH0 DUP1 REVERT JUMPDEST POP PUSH2 0x322 PUSH2 0x19C SLOAD DUP2 JUMP JUMPDEST CALLVALUE DUP1 ISZERO PUSH2 0x58F JUMPI PUSH0 DUP1 REVERT JUMPDEST POP PUSH2 0x3DB PUSH2 0x59E CALLDATASIZE PUSH1 0x4 PUSH2 0x366D JUMP JUMPDEST PUSH2 0xEDA JUMP JUMPDEST CALLVALUE DUP1 ISZERO PUSH2 0x5AE JUMPI PUSH0 DUP1 REVERT JUMPDEST POP PUSH2 0x3DB PUSH2 0x5BD CALLDATASIZE PUSH1 0x4 PUSH2 0x3422 JUMP JUMPDEST PUSH2 0xEF4 JUMP JUMPDEST CALLVALUE DUP1 ISZERO PUSH2 0x5CD JUMPI PUSH0 DUP1 REVERT JUMPDEST POP PUSH2 0x378 PUSH2 0xF22 JUMP JUMPDEST PUSH2 0x3DB PUSH2 0x5E4 CALLDATASIZE PUSH1 0x4 PUSH2 0x3769 JUMP JUMPDEST PUSH2 0xFAF JUMP JUMPDEST CALLVALUE DUP1 ISZERO PUSH2 0x5F4 JUMPI PUSH0 DUP1 REVERT JUMPDEST POP PUSH2 0x322 PUSH2 0x603 CALLDATASIZE PUSH1 0x4 PUSH2 0x3422 JUMP JUMPDEST PUSH2 0x107A JUMP JUMPDEST CALLVALUE DUP1 ISZERO PUSH2 0x613 JUMPI PUSH0 DUP1 REVERT JUMPDEST POP PUSH2 0x322 PUSH2 0x110A JUMP JUMPDEST CALLVALUE DUP1 ISZERO PUSH2 0x627 JUMPI PUSH0 DUP1 REVERT JUMPDEST POP PUSH1 0x40 DUP1 MLOAD DUP1 DUP3 ADD SWAP1 SWAP2 MSTORE PUSH1 0x5 DUP2 MSTORE PUSH5 0x322E342E3 PUSH1 0xDC SHL PUSH1 0x20 DUP3 ADD MSTORE PUSH2 0x378 JUMP JUMPDEST CALLVALUE DUP1 ISZERO PUSH2 0x654 JUMPI PUSH0 DUP1 REVERT JUMPDEST POP PUSH2 0x3DB PUSH2 0x663 CALLDATASIZE PUSH1 0x4 PUSH2 0x362F JUMP JUMPDEST PUSH2 0x11BB JUMP JUMPDEST CALLVALUE DUP1 ISZERO PUSH2 0x673 JUMPI PUSH0 DUP1 REVERT JUMPDEST POP PUSH2 0x687 PUSH2 0x682 CALLDATASIZE PUSH1 0x4 PUSH2 0x3422 JUMP JUMPDEST PUSH2 0x11D3 JUMP JUMPDEST PUSH1 0x40 MLOAD PUSH2 0x32C SWAP4 SWAP3 SWAP2 SWAP1 PUSH2 0x37B3 JUMP JUMPDEST CALLVALUE DUP1 ISZERO PUSH2 0x6A1 JUMPI PUSH0 DUP1 REVERT JUMPDEST POP PUSH2 0x322 PUSH2 0x19B SLOAD DUP2 JUMP JUMPDEST CALLVALUE DUP1 ISZERO PUSH2 0x6B7 JUMPI PUSH0 DUP1 REVERT JUMPDEST POP PUSH2 0x378 PUSH2 0x1387 JUMP JUMPDEST CALLVALUE DUP1 ISZERO PUSH2 0x6CB JUMPI PUSH0 DUP1 REVERT JUMPDEST POP PUSH2 0x3A4 PUSH2 0x6DA CALLDATASIZE PUSH1 0x4 PUSH2 0x3422 JUMP JUMPDEST PUSH2 0x1395 JUMP JUMPDEST CALLVALUE DUP1 ISZERO PUSH2 0x6EA JUMPI PUSH0 DUP1 REVERT JUMPDEST POP PUSH2 0x378 PUSH2 0x13F4 JUMP JUMPDEST CALLVALUE DUP1 ISZERO PUSH2 0x6FE JUMPI PUSH0 DUP1 REVERT JUMPDEST POP PUSH2 0x322 PUSH2 0x70D CALLDATASIZE PUSH1 0x4 PUSH2 0x337A JUMP JUMPDEST PUSH2 0x1402 JUMP JUMPDEST CALLVALUE DUP1 ISZERO PUSH2 0x71D JUMPI PUSH0 DUP1 REVERT JUMPDEST POP PUSH2 0x322 PUSH2 0x19A SLOAD DUP2 JUMP JUMPDEST CALLVALUE DUP1 ISZERO PUSH2 0x733 JUMPI PUSH0 DUP1 REVERT JUMPDEST POP PUSH2 0x3DB PUSH2 0x742 CALLDATASIZE PUSH1 0x4 PUSH2 0x37F5 JUMP JUMPDEST PUSH2 0x1486 JUMP JUMPDEST CALLVALUE DUP1 ISZERO PUSH2 0x752 JUMPI PUSH0 DUP1 REVERT JUMPDEST POP PUSH2 0x3DB PUSH2 0x151F JUMP JUMPDEST CALLVALUE DUP1 ISZERO PUSH2 0x766 JUMPI PUSH0 DUP1 REVERT JUMPDEST POP PUSH2 0x3DB PUSH2 0x775 CALLDATASIZE PUSH1 0x4 PUSH2 0x392B JUMP JUMPDEST PUSH2 0x168B JUMP JUMPDEST CALLVALUE DUP1 ISZERO PUSH2 0x785 JUMPI PUSH0 DUP1 REVERT JUMPDEST POP PUSH2 0x354 PUSH2 0x794 CALLDATASIZE PUSH1 0x4 PUSH2 0x36A6 JUMP JUMPDEST PUSH2 0x1C9B JUMP JUMPDEST CALLVALUE DUP1 ISZERO PUSH2 0x7A4 JUMPI PUSH0 DUP1 REVERT JUMPDEST POP PUSH2 0x378 PUSH2 0x1CC5 JUMP JUMPDEST CALLVALUE DUP1 ISZERO PUSH2 0x7B8 JUMPI PUSH0 DUP1 REVERT JUMPDEST POP PUSH2 0x378 PUSH2 0x1CD4 JUMP JUMPDEST CALLVALUE DUP1 ISZERO PUSH2 0x7CC JUMPI PUSH0 DUP1 REVERT JUMPDEST POP PUSH2 0x322 PUSH0 DUP2 JUMP JUMPDEST CALLVALUE DUP1 ISZERO PUSH2 0x7DF JUMPI PUSH0 DUP1 REVERT JUMPDEST POP PUSH2 0x3DB PUSH2 0x7EE CALLDATASIZE PUSH1 0x4 PUSH2 0x39F3 JUMP JUMPDEST PUSH2 0x1CE2 JUMP JUMPDEST CALLVALUE DUP1 ISZERO PUSH2 0x7FE JUMPI PUSH0 DUP1 REVERT JUMPDEST POP PUSH2 0x322 PUSH2 0x80D CALLDATASIZE PUSH1 0x4 PUSH2 0x35BA JUMP JUMPDEST DUP1 MLOAD PUSH1 0x20 DUP2 DUP4 ADD DUP2 ADD DUP1 MLOAD PUSH2 0x19E DUP3 MSTORE SWAP3 DUP3 ADD SWAP2 SWAP1 SWAP4 ADD KECCAK256 SWAP2 MSTORE SLOAD DUP2 JUMP JUMPDEST CALLVALUE DUP1 ISZERO PUSH2 0x836 JUMPI PUSH0 DUP1 REVERT JUMPDEST POP PUSH2 0x3DB PUSH2 0x845 CALLDATASIZE PUSH1 0x4 PUSH2 0x3A28 JUMP JUMPDEST PUSH2 0x1CED JUMP JUMPDEST CALLVALUE DUP1 ISZERO PUSH2 0x855 JUMPI PUSH0 DUP1 REVERT JUMPDEST POP PUSH2 0x3DB PUSH2 0x864 CALLDATASIZE PUSH1 0x4 PUSH2 0x3A8B JUMP JUMPDEST PUSH2 0x1D1F JUMP JUMPDEST CALLVALUE DUP1 ISZERO PUSH2 0x874 JUMPI PUSH0 DUP1 REVERT JUMPDEST POP PUSH2 0x378 PUSH2 0x883 CALLDATASIZE PUSH1 0x4 PUSH2 0x3422 JUMP JUMPDEST PUSH2 0x1DAC JUMP JUMPDEST CALLVALUE DUP1 ISZERO PUSH2 0x893 JUMPI PUSH0 DUP1 REVERT JUMPDEST POP PUSH2 0x3DB PUSH2 0x8A2 CALLDATASIZE PUSH1 0x4 PUSH2 0x36A6 JUMP JUMPDEST PUSH2 0x1E10 JUMP JUMPDEST CALLVALUE DUP1 ISZERO PUSH2 0x8B2 JUMPI PUSH0 DUP1 REVERT JUMPDEST POP PUSH2 0x322 PUSH2 0x8C1 CALLDATASIZE PUSH1 0x4 PUSH2 0x3422 JUMP JUMPDEST PUSH2 0x1E34 JUMP JUMPDEST CALLVALUE DUP1 ISZERO PUSH2 0x8D1 JUMPI PUSH0 DUP1 REVERT JUMPDEST POP PUSH2 0x197 SLOAD PUSH2 0x3A4 SWAP1 PUSH1 0x1 PUSH1 0x1 PUSH1 0xA0 SHL SUB AND DUP2 JUMP JUMPDEST CALLVALUE DUP1 ISZERO PUSH2 0x8F1 JUMPI PUSH0 DUP1 REVERT JUMPDEST POP PUSH2 0x3DB PUSH2 0x900 CALLDATASIZE PUSH1 0x4 PUSH2 0x362F JUMP JUMPDEST PUSH2 0x1E4B JUMP JUMPDEST CALLVALUE DUP1 ISZERO PUSH2 0x910 JUMPI PUSH0 DUP1 REVERT JUMPDEST POP PUSH2 0x3DB PUSH2 0x91F CALLDATASIZE PUSH1 0x4 PUSH2 0x362F JUMP JUMPDEST PUSH2 0x1E84 JUMP JUMPDEST CALLVALUE DUP1 ISZERO PUSH2 0x92F JUMPI PUSH0 DUP1 REVERT JUMPDEST POP PUSH2 0x354 PUSH2 0x93E CALLDATASIZE PUSH1 0x4 PUSH2 0x3AD2 JUMP JUMPDEST PUSH1 0x1 PUSH1 0x1 PUSH1 0xA0 SHL SUB SWAP2 DUP3 AND PUSH0 SWAP1 DUP2 MSTORE PUSH1 0x6A PUSH1 0x20 SWAP1 DUP2 MSTORE PUSH1 0x40 DUP1 DUP4 KECCAK256 SWAP4 SWAP1 SWAP5 AND DUP3 MSTORE SWAP2 SWAP1 SWAP2 MSTORE KECCAK256 SLOAD PUSH1 0xFF AND SWAP1 JUMP JUMPDEST CALLVALUE DUP1 ISZERO PUSH2 0x976 JUMPI PUSH0 DUP1 REVERT JUMPDEST POP PUSH2 0x378 PUSH2 0x1EC8 JUMP JUMPDEST PUSH0 PUSH2 0x989 DUP3 PUSH2 0x1ED6 JUMP JUMPDEST SWAP3 SWAP2 POP POP JUMP JUMPDEST PUSH1 0x60 PUSH1 0x65 DUP1 SLOAD PUSH2 0x99E SWAP1 PUSH2 0x3AFA JUMP JUMPDEST DUP1 PUSH1 0x1F ADD PUSH1 0x20 DUP1 SWAP2 DIV MUL PUSH1 0x20 ADD PUSH1 0x40 MLOAD SWAP1 DUP2 ADD PUSH1 0x40 MSTORE DUP1 SWAP3 SWAP2 SWAP1 DUP2 DUP2 MSTORE PUSH1 0x20 ADD DUP3 DUP1 SLOAD PUSH2 0x9CA SWAP1 PUSH2 0x3AFA JUMP JUMPDEST DUP1 ISZERO PUSH2 0xA15 JUMPI DUP1 PUSH1 0x1F LT PUSH2 0x9EC JUMPI PUSH2 0x100 DUP1 DUP4 SLOAD DIV MUL DUP4 MSTORE SWAP2 PUSH1 0x20 ADD SWAP2 PUSH2 0xA15 JUMP JUMPDEST DUP3 ADD SWAP2 SWAP1 PUSH0 MSTORE PUSH1 0x20 PUSH0 KECCAK256 SWAP1 JUMPDEST DUP2 SLOAD DUP2 MSTORE SWAP1 PUSH1 0x1 ADD SWAP1 PUSH1 0x20 ADD DUP1 DUP4 GT PUSH2 0x9F8 JUMPI DUP3 SWAP1 SUB PUSH1 0x1F AND DUP3 ADD SWAP2 JUMPDEST POP POP POP POP POP SWAP1 POP SWAP1 JUMP JUMPDEST PUSH0 PUSH2 0xA29 DUP3 PUSH2 0x1EFA JUMP JUMPDEST POP PUSH0 SWAP1 DUP2 MSTORE PUSH1 0x69 PUSH1 0x20 MSTORE PUSH1 0x40 SWAP1 KECCAK256 SLOAD PUSH1 0x1 PUSH1 0x1 PUSH1 0xA0 SHL SUB AND SWAP1 JUMP JUMPDEST PUSH0 PUSH2 0xA4E DUP3 PUSH2 0x1395 JUMP JUMPDEST SWAP1 POP DUP1 PUSH1 0x1 PUSH1 0x1 PUSH1 0xA0 SHL SUB AND DUP4 PUSH1 0x1 PUSH1 0x1 PUSH1 0xA0 SHL SUB AND SUB PUSH2 0xAC0 JUMPI PUSH1 0x40 MLOAD PUSH3 0x461BCD PUSH1 0xE5 SHL DUP2 MSTORE PUSH1 0x20 PUSH1 0x4 DUP3 ADD MSTORE PUSH1 0x21 PUSH1 0x24 DUP3 ADD MSTORE PUSH32 0x4552433732313A20617070726F76616C20746F2063757272656E74206F776E65 PUSH1 0x44 DUP3 ADD MSTORE PUSH1 0x39 PUSH1 0xF9 SHL PUSH1 0x64 DUP3 ADD MSTORE PUSH1 0x84 ADD JUMPDEST PUSH1 0x40 MLOAD DUP1 SWAP2 SUB SWAP1 REVERT JUMPDEST CALLER PUSH1 0x1 PUSH1 0x1 PUSH1 0xA0 SHL SUB DUP3 AND EQ DUP1 PUSH2 0xADC JUMPI POP PUSH2 0xADC DUP2 CALLER PUSH2 0x93E JUMP JUMPDEST PUSH2 0xB4E JUMPI PUSH1 0x40 MLOAD PUSH3 0x461BCD PUSH1 0xE5 SHL DUP2 MSTORE PUSH1 0x20 PUSH1 0x4 DUP3 ADD MSTORE PUSH1 0x3E PUSH1 0x24 DUP3 ADD MSTORE PUSH32 0x4552433732313A20617070726F76652063616C6C6572206973206E6F7420746F PUSH1 0x44 DUP3 ADD MSTORE PUSH32 0x6B656E206F776E6572206E6F7220617070726F76656420666F7220616C6C0000 PUSH1 0x64 DUP3 ADD MSTORE PUSH1 0x84 ADD PUSH2 0xAB7 JUMP JUMPDEST PUSH2 0xB58 DUP4 DUP4 PUSH2 0x1F58 JUMP JUMPDEST POP POP POP JUMP JUMPDEST PUSH0 PUSH2 0xB67 DUP2 PUSH2 0x1FC5 JUMP JUMPDEST PUSH0 JUMPDEST DUP4 DUP2 LT ISZERO PUSH2 0xBD7 JUMPI DUP3 PUSH2 0x194 PUSH0 DUP8 DUP8 DUP6 DUP2 DUP2 LT PUSH2 0xB88 JUMPI PUSH2 0xB88 PUSH2 0x3B32 JUMP JUMPDEST SWAP1 POP PUSH1 0x20 MUL ADD PUSH1 0x20 DUP2 ADD SWAP1 PUSH2 0xB9D SWAP2 SWAP1 PUSH2 0x337A JUMP JUMPDEST PUSH1 0x1 PUSH1 0x1 PUSH1 0xA0 SHL SUB AND PUSH1 0x1 PUSH1 0x1 PUSH1 0xA0 SHL SUB AND DUP2 MSTORE PUSH1 0x20 ADD SWAP1 DUP2 MSTORE PUSH1 0x20 ADD PUSH0 KECCAK256 PUSH0 DUP3 DUP3 SLOAD PUSH2 0xBCA SWAP2 SWAP1 PUSH2 0x3B5A JUMP JUMPDEST SWAP1 SWAP2 SSTORE POP POP PUSH1 0x1 ADD PUSH2 0xB69 JUMP JUMPDEST POP POP POP POP POP JUMP JUMPDEST PUSH0 PUSH2 0xBE8 DUP2 PUSH2 0x1FC5 JUMP JUMPDEST PUSH2 0x195 PUSH2 0xBF6 DUP4 DUP6 DUP4 PUSH2 0x3BC5 JUMP JUMPDEST POP POP POP POP JUMP JUMPDEST PUSH2 0xC07 CALLER JUMPDEST DUP3 PUSH2 0x1FCF JUMP JUMPDEST PUSH2 0xC23 JUMPI PUSH1 0x40 MLOAD PUSH3 0x461BCD PUSH1 0xE5 SHL DUP2 MSTORE PUSH1 0x4 ADD PUSH2 0xAB7 SWAP1 PUSH2 0x3C79 JUMP JUMPDEST PUSH2 0xB58 DUP4 DUP4 DUP4 PUSH2 0x204C JUMP JUMPDEST PUSH0 DUP3 DUP2 MSTORE PUSH1 0xFB PUSH1 0x20 MSTORE PUSH1 0x40 SWAP1 KECCAK256 PUSH1 0x1 ADD SLOAD PUSH2 0xC48 DUP2 PUSH2 0x1FC5 JUMP JUMPDEST PUSH2 0xB58 DUP4 DUP4 PUSH2 0x21EF JUMP JUMPDEST PUSH0 PUSH2 0xC5C DUP4 PUSH2 0x1402 JUMP JUMPDEST DUP3 LT PUSH2 0xCBE JUMPI PUSH1 0x40 MLOAD PUSH3 0x461BCD PUSH1 0xE5 SHL DUP2 MSTORE PUSH1 0x20 PUSH1 0x4 DUP3 ADD MSTORE PUSH1 0x2B PUSH1 0x24 DUP3 ADD MSTORE PUSH32 0x455243373231456E756D657261626C653A206F776E657220696E646578206F75 PUSH1 0x44 DUP3 ADD MSTORE PUSH11 0x74206F6620626F756E6473 PUSH1 0xA8 SHL PUSH1 0x64 DUP3 ADD MSTORE PUSH1 0x84 ADD PUSH2 0xAB7 JUMP JUMPDEST POP PUSH1 0x1 PUSH1 0x1 PUSH1 0xA0 SHL SUB SWAP2 SWAP1 SWAP2 AND PUSH0 SWAP1 DUP2 MSTORE PUSH1 0x97 PUSH1 0x20 SWAP1 DUP2 MSTORE PUSH1 0x40 DUP1 DUP4 KECCAK256 SWAP4 DUP4 MSTORE SWAP3 SWAP1 MSTORE KECCAK256 SLOAD SWAP1 JUMP JUMPDEST CALLER PUSH0 SWAP1 DUP2 MSTORE PUSH2 0x194 PUSH1 0x20 MSTORE PUSH1 0x40 SWAP1 KECCAK256 SLOAD PUSH2 0xD37 JUMPI PUSH1 0x40 MLOAD PUSH3 0x461BCD PUSH1 0xE5 SHL DUP2 MSTORE PUSH1 0x20 PUSH1 0x4 DUP3 ADD MSTORE PUSH1 0x12 PUSH1 0x24 DUP3 ADD MSTORE PUSH18 0x1B9BC81B5A5B9D1A5B99C8185B1B1BDDD959 PUSH1 0x72 SHL PUSH1 0x44 DUP3 ADD MSTORE PUSH1 0x64 ADD PUSH2 0xAB7 JUMP JUMPDEST CALLER PUSH0 SWAP1 DUP2 MSTORE PUSH2 0x194 PUSH1 0x20 MSTORE PUSH1 0x40 DUP2 KECCAK256 DUP1 SLOAD SWAP2 PUSH2 0xD52 DUP4 PUSH2 0x3CC7 JUMP JUMPDEST SWAP2 SWAP1 POP SSTORE POP PUSH2 0xD60 DUP2 PUSH2 0x2274 JUMP JUMPDEST POP JUMP JUMPDEST PUSH0 PUSH2 0xD6D DUP2 PUSH2 0x1FC5 JUMP JUMPDEST PUSH2 0xD7A DUP7 DUP7 DUP7 DUP7 DUP7 PUSH2 0x22F9 JUMP JUMPDEST POP POP POP POP POP POP JUMP JUMPDEST PUSH1 0x1 PUSH1 0x1 PUSH1 0xA0 SHL SUB DUP2 AND CALLER EQ PUSH2 0xDF2 JUMPI PUSH1 0x40 MLOAD PUSH3 0x461BCD PUSH1 0xE5 SHL DUP2 MSTORE PUSH1 0x20 PUSH1 0x4 DUP3 ADD MSTORE PUSH1 0x2F PUSH1 0x24 DUP3 ADD MSTORE PUSH32 0x416363657373436F6E74726F6C3A2063616E206F6E6C792072656E6F756E6365 PUSH1 0x44 DUP3 ADD MSTORE PUSH15 0x103937B632B9903337B91039B2B633 PUSH1 0x89 SHL PUSH1 0x64 DUP3 ADD MSTORE PUSH1 0x84 ADD PUSH2 0xAB7 JUMP JUMPDEST PUSH2 0xDFC DUP3 DUP3 PUSH2 0x242B JUMP JUMPDEST POP POP JUMP JUMPDEST PUSH1 0x1 PUSH1 0x1 PUSH1 0xA0 SHL SUB PUSH32 0x0 AND ADDRESS SUB PUSH2 0xE48 JUMPI PUSH1 0x40 MLOAD PUSH3 0x461BCD PUSH1 0xE5 SHL DUP2 MSTORE PUSH1 0x4 ADD PUSH2 0xAB7 SWAP1 PUSH2 0x3CDC JUMP JUMPDEST PUSH32 0x0 PUSH1 0x1 PUSH1 0x1 PUSH1 0xA0 SHL SUB AND PUSH2 0xE90 PUSH0 DUP1 MLOAD PUSH1 0x20 PUSH2 0x420C DUP4 CODECOPY DUP2 MLOAD SWAP2 MSTORE SLOAD PUSH1 0x1 PUSH1 0x1 PUSH1 0xA0 SHL SUB AND SWAP1 JUMP JUMPDEST PUSH1 0x1 PUSH1 0x1 PUSH1 0xA0 SHL SUB AND EQ PUSH2 0xEB6 JUMPI PUSH1 0x40 MLOAD PUSH3 0x461BCD PUSH1 0xE5 SHL DUP2 MSTORE PUSH1 0x4 ADD PUSH2 0xAB7 SWAP1 PUSH2 0x3D28 JUMP JUMPDEST PUSH2 0xEBF DUP2 PUSH2 0x2491 JUMP JUMPDEST PUSH1 0x40 DUP1 MLOAD PUSH0 DUP1 DUP3 MSTORE PUSH1 0x20 DUP3 ADD SWAP1 SWAP3 MSTORE PUSH2 0xD60 SWAP2 DUP4 SWAP2 SWAP1 PUSH2 0x249B JUMP JUMPDEST PUSH2 0xB58 DUP4 DUP4 DUP4 PUSH1 0x40 MLOAD DUP1 PUSH1 0x20 ADD PUSH1 0x40 MSTORE DUP1 PUSH0 DUP2 MSTORE POP PUSH2 0x1CED JUMP JUMPDEST PUSH2 0xEFD CALLER PUSH2 0xC01 JUMP JUMPDEST PUSH2 0xF19 JUMPI PUSH1 0x40 MLOAD PUSH3 0x461BCD PUSH1 0xE5 SHL DUP2 MSTORE PUSH1 0x4 ADD PUSH2 0xAB7 SWAP1 PUSH2 0x3C79 JUMP JUMPDEST PUSH2 0xD60 DUP2 PUSH2 0x2605 JUMP JUMPDEST PUSH2 0x1A1 DUP1 SLOAD PUSH2 0xF30 SWAP1 PUSH2 0x3AFA JUMP JUMPDEST DUP1 PUSH1 0x1F ADD PUSH1 0x20 DUP1 SWAP2 DIV MUL PUSH1 0x20 ADD PUSH1 0x40 MLOAD SWAP1 DUP2 ADD PUSH1 0x40 MSTORE DUP1 SWAP3 SWAP2 SWAP1 DUP2 DUP2 MSTORE PUSH1 0x20 ADD DUP3 DUP1 SLOAD PUSH2 0xF5C SWAP1 PUSH2 0x3AFA JUMP JUMPDEST DUP1 ISZERO PUSH2 0xFA7 JUMPI DUP1 PUSH1 0x1F LT PUSH2 0xF7E JUMPI PUSH2 0x100 DUP1 DUP4 SLOAD DIV MUL DUP4 MSTORE SWAP2 PUSH1 0x20 ADD SWAP2 PUSH2 0xFA7 JUMP JUMPDEST DUP3 ADD SWAP2 SWAP1 PUSH0 MSTORE PUSH1 0x20 PUSH0 KECCAK256 SWAP1 JUMPDEST DUP2 SLOAD DUP2 MSTORE SWAP1 PUSH1 0x1 ADD SWAP1 PUSH1 0x20 ADD DUP1 DUP4 GT PUSH2 0xF8A JUMPI DUP3 SWAP1 SUB PUSH1 0x1F AND DUP3 ADD SWAP2 JUMPDEST POP POP POP POP POP DUP2 JUMP JUMPDEST PUSH1 0x1 PUSH1 0x1 PUSH1 0xA0 SHL SUB PUSH32 0x0 AND ADDRESS SUB PUSH2 0xFF7 JUMPI PUSH1 0x40 MLOAD PUSH3 0x461BCD PUSH1 0xE5 SHL DUP2 MSTORE PUSH1 0x4 ADD PUSH2 0xAB7 SWAP1 PUSH2 0x3CDC JUMP JUMPDEST PUSH32 0x0 PUSH1 0x1 PUSH1 0x1 PUSH1 0xA0 SHL SUB AND PUSH2 0x103F PUSH0 DUP1 MLOAD PUSH1 0x20 PUSH2 0x420C DUP4 CODECOPY DUP2 MLOAD SWAP2 MSTORE SLOAD PUSH1 0x1 PUSH1 0x1 PUSH1 0xA0 SHL SUB AND SWAP1 JUMP JUMPDEST PUSH1 0x1 PUSH1 0x1 PUSH1 0xA0 SHL SUB AND EQ PUSH2 0x1065 JUMPI PUSH1 0x40 MLOAD PUSH3 0x461BCD PUSH1 0xE5 SHL DUP2 MSTORE PUSH1 0x4 ADD PUSH2 0xAB7 SWAP1 PUSH2 0x3D28 JUMP JUMPDEST PUSH2 0x106E DUP3 PUSH2 0x2491 JUMP JUMPDEST PUSH2 0xDFC DUP3 DUP3 PUSH1 0x1 PUSH2 0x249B JUMP JUMPDEST PUSH0 PUSH2 0x1084 PUSH1 0x99 SLOAD SWAP1 JUMP JUMPDEST DUP3 LT PUSH2 0x10E7 JUMPI PUSH1 0x40 MLOAD PUSH3 0x461BCD PUSH1 0xE5 SHL DUP2 MSTORE PUSH1 0x20 PUSH1 0x4 DUP3 ADD MSTORE PUSH1 0x2C PUSH1 0x24 DUP3 ADD MSTORE PUSH32 0x455243373231456E756D657261626C653A20676C6F62616C20696E646578206F PUSH1 0x44 DUP3 ADD MSTORE PUSH12 0x7574206F6620626F756E6473 PUSH1 0xA0 SHL PUSH1 0x64 DUP3 ADD MSTORE PUSH1 0x84 ADD PUSH2 0xAB7 JUMP JUMPDEST PUSH1 0x99 DUP3 DUP2 SLOAD DUP2 LT PUSH2 0x10FA JUMPI PUSH2 0x10FA PUSH2 0x3B32 JUMP JUMPDEST SWAP1 PUSH0 MSTORE PUSH1 0x20 PUSH0 KECCAK256 ADD SLOAD SWAP1 POP SWAP2 SWAP1 POP JUMP JUMPDEST PUSH0 ADDRESS PUSH1 0x1 PUSH1 0x1 PUSH1 0xA0 SHL SUB PUSH32 0x0 AND EQ PUSH2 0x11A9 JUMPI PUSH1 0x40 MLOAD PUSH3 0x461BCD PUSH1 0xE5 SHL DUP2 MSTORE PUSH1 0x20 PUSH1 0x4 DUP3 ADD MSTORE PUSH1 0x38 PUSH1 0x24 DUP3 ADD MSTORE PUSH32 0x555550535570677261646561626C653A206D757374206E6F742062652063616C PUSH1 0x44 DUP3 ADD MSTORE PUSH32 0x6C6564207468726F7567682064656C656761746563616C6C0000000000000000 PUSH1 0x64 DUP3 ADD MSTORE PUSH1 0x84 ADD PUSH2 0xAB7 JUMP JUMPDEST POP PUSH0 DUP1 MLOAD PUSH1 0x20 PUSH2 0x420C DUP4 CODECOPY DUP2 MLOAD SWAP2 MSTORE SWAP1 JUMP JUMPDEST PUSH0 PUSH2 0x11C5 DUP2 PUSH2 0x1FC5 JUMP JUMPDEST PUSH2 0x196 PUSH2 0xBF6 DUP4 DUP6 DUP4 PUSH2 0x3BC5 JUMP JUMPDEST PUSH2 0x193 PUSH1 0x20 MSTORE PUSH0 SWAP1 DUP2 MSTORE PUSH1 0x40 SWAP1 KECCAK256 DUP1 SLOAD DUP2 SWAP1 PUSH2 0x11EE SWAP1 PUSH2 0x3AFA JUMP JUMPDEST DUP1 PUSH1 0x1F ADD PUSH1 0x20 DUP1 SWAP2 DIV MUL PUSH1 0x20 ADD PUSH1 0x40 MLOAD SWAP1 DUP2 ADD PUSH1 0x40 MSTORE DUP1 SWAP3 SWAP2 SWAP1 DUP2 DUP2 MSTORE PUSH1 0x20 ADD DUP3 DUP1 SLOAD PUSH2 0x121A SWAP1 PUSH2 0x3AFA JUMP JUMPDEST DUP1 ISZERO PUSH2 0x1265 JUMPI DUP1 PUSH1 0x1F LT PUSH2 0x123C JUMPI PUSH2 0x100 DUP1 DUP4 SLOAD DIV MUL DUP4 MSTORE SWAP2 PUSH1 0x20 ADD SWAP2 PUSH2 0x1265 JUMP JUMPDEST DUP3 ADD SWAP2 SWAP1 PUSH0 MSTORE PUSH1 0x20 PUSH0 KECCAK256 SWAP1 JUMPDEST DUP2 SLOAD DUP2 MSTORE SWAP1 PUSH1 0x1 ADD SWAP1 PUSH1 0x20 ADD DUP1 DUP4 GT PUSH2 0x1248 JUMPI DUP3 SWAP1 SUB PUSH1 0x1F AND DUP3 ADD SWAP2 JUMPDEST POP POP POP POP POP SWAP1 DUP1 PUSH1 0x1 ADD DUP1 SLOAD PUSH2 0x127A SWAP1 PUSH2 0x3AFA JUMP JUMPDEST DUP1 PUSH1 0x1F ADD PUSH1 0x20 DUP1 SWAP2 DIV MUL PUSH1 0x20 ADD PUSH1 0x40 MLOAD SWAP1 DUP2 ADD PUSH1 0x40 MSTORE DUP1 SWAP3 SWAP2 SWAP1 DUP2 DUP2 MSTORE PUSH1 0x20 ADD DUP3 DUP1 SLOAD PUSH2 0x12A6 SWAP1 PUSH2 0x3AFA JUMP JUMPDEST DUP1 ISZERO PUSH2 0x12F1 JUMPI DUP1 PUSH1 0x1F LT PUSH2 0x12C8 JUMPI PUSH2 0x100 DUP1 DUP4 SLOAD DIV MUL DUP4 MSTORE SWAP2 PUSH1 0x20 ADD SWAP2 PUSH2 0x12F1 JUMP JUMPDEST DUP3 ADD SWAP2 SWAP1 PUSH0 MSTORE PUSH1 0x20 PUSH0 KECCAK256 SWAP1 JUMPDEST DUP2 SLOAD DUP2 MSTORE SWAP1 PUSH1 0x1 ADD SWAP1 PUSH1 0x20 ADD DUP1 DUP4 GT PUSH2 0x12D4 JUMPI DUP3 SWAP1 SUB PUSH1 0x1F AND DUP3 ADD SWAP2 JUMPDEST POP POP POP POP POP SWAP1 DUP1 PUSH1 0x2 ADD DUP1 SLOAD PUSH2 0x1306 SWAP1 PUSH2 0x3AFA JUMP JUMPDEST DUP1 PUSH1 0x1F ADD PUSH1 0x20 DUP1 SWAP2 DIV MUL PUSH1 0x20 ADD PUSH1 0x40 MLOAD SWAP1 DUP2 ADD PUSH1 0x40 MSTORE DUP1 SWAP3 SWAP2 SWAP1 DUP2 DUP2 MSTORE PUSH1 0x20 ADD DUP3 DUP1 SLOAD PUSH2 0x1332 SWAP1 PUSH2 0x3AFA JUMP JUMPDEST DUP1 ISZERO PUSH2 0x137D JUMPI DUP1 PUSH1 0x1F LT PUSH2 0x1354 JUMPI PUSH2 0x100 DUP1 DUP4 SLOAD DIV MUL DUP4 MSTORE SWAP2 PUSH1 0x20 ADD SWAP2 PUSH2 0x137D JUMP JUMPDEST DUP3 ADD SWAP2 SWAP1 PUSH0 MSTORE PUSH1 0x20 PUSH0 KECCAK256 SWAP1 JUMPDEST DUP2 SLOAD DUP2 MSTORE SWAP1 PUSH1 0x1 ADD SWAP1 PUSH1 0x20 ADD DUP1 DUP4 GT PUSH2 0x1360 JUMPI DUP3 SWAP1 SUB PUSH1 0x1F AND DUP3 ADD SWAP2 JUMPDEST POP POP POP POP POP SWAP1 POP DUP4 JUMP JUMPDEST PUSH2 0x195 DUP1 SLOAD PUSH2 0xF30 SWAP1 PUSH2 0x3AFA JUMP JUMPDEST PUSH0 DUP2 DUP2 MSTORE PUSH1 0x67 PUSH1 0x20 MSTORE PUSH1 0x40 DUP2 KECCAK256 SLOAD PUSH1 0x1 PUSH1 0x1 PUSH1 0xA0 SHL SUB AND DUP1 PUSH2 0x989 JUMPI PUSH1 0x40 MLOAD PUSH3 0x461BCD PUSH1 0xE5 SHL DUP2 MSTORE PUSH1 0x20 PUSH1 0x4 DUP3 ADD MSTORE PUSH1 0x18 PUSH1 0x24 DUP3 ADD MSTORE PUSH24 0x115490CDCC8C4E881A5B9D985B1A59081D1BDAD95B881251 PUSH1 0x42 SHL PUSH1 0x44 DUP3 ADD MSTORE PUSH1 0x64 ADD PUSH2 0xAB7 JUMP JUMPDEST PUSH2 0x196 DUP1 SLOAD PUSH2 0xF30 SWAP1 PUSH2 0x3AFA JUMP JUMPDEST PUSH0 PUSH1 0x1 PUSH1 0x1 PUSH1 0xA0 SHL SUB DUP3 AND PUSH2 0x146B JUMPI PUSH1 0x40 MLOAD PUSH3 0x461BCD PUSH1 0xE5 SHL DUP2 MSTORE PUSH1 0x20 PUSH1 0x4 DUP3 ADD MSTORE PUSH1 0x29 PUSH1 0x24 DUP3 ADD MSTORE PUSH32 0x4552433732313A2061646472657373207A65726F206973206E6F742061207661 PUSH1 0x44 DUP3 ADD MSTORE PUSH9 0x3634B21037BBB732B9 PUSH1 0xB9 SHL PUSH1 0x64 DUP3 ADD MSTORE PUSH1 0x84 ADD PUSH2 0xAB7 JUMP JUMPDEST POP PUSH1 0x1 PUSH1 0x1 PUSH1 0xA0 SHL SUB AND PUSH0 SWAP1 DUP2 MSTORE PUSH1 0x68 PUSH1 0x20 MSTORE PUSH1 0x40 SWAP1 KECCAK256 SLOAD SWAP1 JUMP JUMPDEST PUSH0 PUSH2 0x1490 DUP2 PUSH2 0x1FC5 JUMP JUMPDEST PUSH2 0x149A DUP8 DUP8 PUSH2 0x1E84 JUMP JUMPDEST PUSH2 0x197 DUP1 SLOAD PUSH1 0x1 PUSH1 0x1 PUSH1 0xA0 SHL SUB NOT AND PUSH1 0x1 PUSH1 0x1 PUSH1 0xA0 SHL SUB DUP13 AND OR SWAP1 SSTORE PUSH2 0x14C4 PUSH2 0x198 DUP11 PUSH1 0x2 PUSH2 0x330D JUMP JUMPDEST POP PUSH2 0x19F PUSH2 0x14D3 DUP8 DUP10 DUP4 PUSH2 0x3BC5 JUMP JUMPDEST POP PUSH2 0x1A0 PUSH2 0x14E2 DUP6 DUP8 DUP4 PUSH2 0x3BC5 JUMP JUMPDEST POP PUSH2 0x1A1 PUSH2 0x14F1 DUP4 DUP6 DUP4 PUSH2 0x3BC5 JUMP JUMPDEST POP PUSH2 0x19B DUP9 SWAP1 SSTORE PUSH0 PUSH2 0x19C DUP2 SWAP1 SSTORE PUSH2 0x19A DUP1 SLOAD SWAP2 PUSH2 0x150E DUP4 PUSH2 0x3D74 JUMP JUMPDEST SWAP2 SWAP1 POP SSTORE POP POP POP POP POP POP POP POP POP POP POP JUMP JUMPDEST PUSH0 SLOAD PUSH2 0x100 SWAP1 DIV PUSH1 0xFF AND ISZERO DUP1 DUP1 ISZERO PUSH2 0x153D JUMPI POP PUSH0 SLOAD PUSH1 0x1 PUSH1 0xFF SWAP1 SWAP2 AND LT JUMPDEST DUP1 PUSH2 0x1556 JUMPI POP ADDRESS EXTCODESIZE ISZERO DUP1 ISZERO PUSH2 0x1556 JUMPI POP PUSH0 SLOAD PUSH1 0xFF AND PUSH1 0x1 EQ JUMPDEST PUSH2 0x15B9 JUMPI PUSH1 0x40 MLOAD PUSH3 0x461BCD PUSH1 0xE5 SHL DUP2 MSTORE PUSH1 0x20 PUSH1 0x4 DUP3 ADD MSTORE PUSH1 0x2E PUSH1 0x24 DUP3 ADD MSTORE PUSH32 0x496E697469616C697A61626C653A20636F6E747261637420697320616C726561 PUSH1 0x44 DUP3 ADD MSTORE PUSH14 0x191E481A5B9A5D1A585B1A5E9959 PUSH1 0x92 SHL PUSH1 0x64 DUP3 ADD MSTORE PUSH1 0x84 ADD PUSH2 0xAB7 JUMP JUMPDEST PUSH0 DUP1 SLOAD PUSH1 0xFF NOT AND PUSH1 0x1 OR SWAP1 SSTORE DUP1 ISZERO PUSH2 0x15DA JUMPI PUSH0 DUP1 SLOAD PUSH2 0xFF00 NOT AND PUSH2 0x100 OR SWAP1 SSTORE JUMPDEST PUSH2 0x161A PUSH1 0x40 MLOAD DUP1 PUSH1 0x40 ADD PUSH1 0x40 MSTORE DUP1 PUSH1 0x5 DUP2 MSTORE PUSH1 0x20 ADD PUSH5 0xA4CADAD2F PUSH1 0xDB SHL DUP2 MSTORE POP PUSH1 0x40 MLOAD DUP1 PUSH1 0x40 ADD PUSH1 0x40 MSTORE DUP1 PUSH1 0x1 DUP2 MSTORE PUSH1 0x20 ADD PUSH1 0x29 PUSH1 0xF9 SHL DUP2 MSTORE POP PUSH2 0x26A7 JUMP JUMPDEST PUSH2 0x1622 PUSH2 0x26D7 JUMP JUMPDEST PUSH2 0x162A PUSH2 0x26D7 JUMP JUMPDEST PUSH2 0x1632 PUSH2 0x26D7 JUMP JUMPDEST PUSH2 0x163A PUSH2 0x26D7 JUMP JUMPDEST PUSH2 0x1644 PUSH0 CALLER PUSH2 0x26FF JUMP JUMPDEST DUP1 ISZERO PUSH2 0xD60 JUMPI PUSH0 DUP1 SLOAD PUSH2 0xFF00 NOT AND SWAP1 SSTORE PUSH1 0x40 MLOAD PUSH1 0x1 DUP2 MSTORE PUSH32 0x7F26B83FF96E1F2B6A682F133852F6798A09C465DA95921460CEFB3847402498 SWAP1 PUSH1 0x20 ADD PUSH1 0x40 MLOAD DUP1 SWAP2 SUB SWAP1 LOG1 POP JUMP JUMPDEST PUSH2 0x197 SLOAD PUSH1 0x1 PUSH1 0x1 PUSH1 0xA0 SHL SUB AND PUSH2 0x16DB JUMPI PUSH1 0x40 MLOAD PUSH3 0x461BCD PUSH1 0xE5 SHL DUP2 MSTORE PUSH1 0x20 PUSH1 0x4 DUP3 ADD MSTORE PUSH1 0x14 PUSH1 0x24 DUP3 ADD MSTORE PUSH20 0x1B9BC818DA185B1B195B99D9481CDD185C9D1959 PUSH1 0x62 SHL PUSH1 0x44 DUP3 ADD MSTORE PUSH1 0x64 ADD PUSH2 0xAB7 JUMP JUMPDEST PUSH2 0x19B SLOAD PUSH2 0x19C SLOAD LT PUSH2 0x173A JUMPI PUSH1 0x40 MLOAD PUSH3 0x461BCD PUSH1 0xE5 SHL DUP2 MSTORE PUSH1 0x20 PUSH1 0x4 DUP3 ADD MSTORE PUSH1 0x21 PUSH1 0x24 DUP3 ADD MSTORE PUSH32 0x7075626C6973686572732072656163686564206D6178696D756D20616D6F756E PUSH1 0x44 DUP3 ADD MSTORE PUSH1 0x1D PUSH1 0xFA SHL PUSH1 0x64 DUP3 ADD MSTORE PUSH1 0x84 ADD PUSH2 0xAB7 JUMP JUMPDEST PUSH2 0x19A SLOAD PUSH1 0x40 DUP1 DUP4 ADD MLOAD DUP2 MLOAD PUSH1 0x20 DUP2 ADD SWAP4 SWAP1 SWAP4 MSTORE SWAP1 DUP3 ADD MSTORE PUSH0 SWAP1 PUSH1 0x60 ADD PUSH1 0x40 DUP1 MLOAD DUP1 DUP4 SUB PUSH1 0x1F NOT ADD DUP2 MSTORE DUP3 DUP3 MSTORE PUSH2 0x19A SLOAD PUSH1 0x20 DUP5 ADD MSTORE CALLER PUSH1 0x60 SHL PUSH12 0xFFFFFFFFFFFFFFFFFFFFFFFF NOT AND DUP4 DUP4 ADD MSTORE DUP2 MLOAD PUSH1 0x34 DUP2 DUP6 SUB ADD DUP2 MSTORE PUSH1 0x54 SWAP1 SWAP4 ADD SWAP2 DUP3 SWAP1 MSTORE SWAP3 POP PUSH2 0x19D SWAP1 PUSH2 0x17AB SWAP1 DUP5 SWAP1 PUSH2 0x3D8C JUMP JUMPDEST SWAP1 DUP2 MSTORE PUSH1 0x20 ADD PUSH1 0x40 MLOAD DUP1 SWAP2 SUB SWAP1 KECCAK256 SLOAD PUSH0 EQ PUSH2 0x1808 JUMPI PUSH1 0x40 MLOAD PUSH3 0x461BCD PUSH1 0xE5 SHL DUP2 MSTORE PUSH1 0x20 PUSH1 0x4 DUP3 ADD MSTORE PUSH1 0x17 PUSH1 0x24 DUP3 ADD MSTORE PUSH32 0x70726F6F6620616C7265616479207075626C6973686564000000000000000000 PUSH1 0x44 DUP3 ADD MSTORE PUSH1 0x64 ADD PUSH2 0xAB7 JUMP JUMPDEST PUSH2 0x19E DUP2 PUSH1 0x40 MLOAD PUSH2 0x1819 SWAP2 SWAP1 PUSH2 0x3D8C JUMP JUMPDEST SWAP1 DUP2 MSTORE PUSH1 0x20 ADD PUSH1 0x40 MLOAD DUP1 SWAP2 SUB SWAP1 KECCAK256 SLOAD PUSH0 EQ PUSH2 0x1886 JUMPI PUSH1 0x40 MLOAD PUSH3 0x461BCD PUSH1 0xE5 SHL DUP2 MSTORE PUSH1 0x20 PUSH1 0x4 DUP3 ADD MSTORE PUSH1 0x27 PUSH1 0x24 DUP3 ADD MSTORE PUSH32 0x63757272656E74207075626C69736865642068617320616C7265616479207375 PUSH1 0x44 DUP3 ADD MSTORE PUSH7 0x189B5A5D1D1959 PUSH1 0xCA SHL PUSH1 0x64 DUP3 ADD MSTORE PUSH1 0x84 ADD PUSH2 0xAB7 JUMP JUMPDEST DUP3 MLOAD PUSH2 0x198 SLOAD EQ PUSH2 0x18D9 JUMPI PUSH1 0x40 MLOAD PUSH3 0x461BCD PUSH1 0xE5 SHL DUP2 MSTORE PUSH1 0x20 PUSH1 0x4 DUP3 ADD MSTORE PUSH1 0x1F PUSH1 0x24 DUP3 ADD MSTORE PUSH32 0x70726F7669646564206368616C6C656E6765206973206E6F742076616C696400 PUSH1 0x44 DUP3 ADD MSTORE PUSH1 0x64 ADD PUSH2 0xAB7 JUMP JUMPDEST PUSH1 0x20 DUP4 ADD MLOAD PUSH2 0x199 SLOAD EQ PUSH2 0x192F JUMPI PUSH1 0x40 MLOAD PUSH3 0x461BCD PUSH1 0xE5 SHL DUP2 MSTORE PUSH1 0x20 PUSH1 0x4 DUP3 ADD MSTORE PUSH1 0x1F PUSH1 0x24 DUP3 ADD MSTORE PUSH32 0x70726F7669646564206368616C6C656E6765206973206E6F742076616C696400 PUSH1 0x44 DUP3 ADD MSTORE PUSH1 0x64 ADD PUSH2 0xAB7 JUMP JUMPDEST PUSH2 0x197 SLOAD DUP5 MLOAD PUSH1 0x20 DUP7 ADD MLOAD PUSH1 0x40 DUP1 DUP9 ADD MLOAD SWAP1 MLOAD PUSH0 SWAP5 DUP6 SWAP5 PUSH1 0x1 PUSH1 0x1 PUSH1 0xA0 SHL SUB SWAP1 SWAP2 AND SWAP4 DUP6 SWAP4 PUSH2 0x1962 SWAP4 DUP12 SWAP1 PUSH1 0x24 ADD PUSH2 0x3DC9 JUMP JUMPDEST PUSH1 0x40 DUP1 MLOAD PUSH1 0x1F NOT DUP2 DUP5 SUB ADD DUP2 MSTORE SWAP2 DUP2 MSTORE PUSH1 0x20 DUP3 ADD DUP1 MLOAD PUSH1 0x1 PUSH1 0x1 PUSH1 0xE0 SHL SUB AND PUSH4 0x43753B4D PUSH1 0xE0 SHL OR SWAP1 MSTORE MLOAD PUSH2 0x1997 SWAP2 SWAP1 PUSH2 0x3D8C JUMP JUMPDEST PUSH0 PUSH1 0x40 MLOAD DUP1 DUP4 SUB DUP2 DUP6 DUP8 GAS CALL SWAP3 POP POP POP RETURNDATASIZE DUP1 PUSH0 DUP2 EQ PUSH2 0x19D1 JUMPI PUSH1 0x40 MLOAD SWAP2 POP PUSH1 0x1F NOT PUSH1 0x3F RETURNDATASIZE ADD AND DUP3 ADD PUSH1 0x40 MSTORE RETURNDATASIZE DUP3 MSTORE RETURNDATASIZE PUSH0 PUSH1 0x20 DUP5 ADD RETURNDATACOPY PUSH2 0x19D6 JUMP JUMPDEST PUSH1 0x60 SWAP2 POP JUMPDEST POP SWAP2 POP SWAP2 POP DUP2 PUSH2 0x1A28 JUMPI PUSH1 0x40 MLOAD PUSH3 0x461BCD PUSH1 0xE5 SHL DUP2 MSTORE PUSH1 0x20 PUSH1 0x4 DUP3 ADD MSTORE PUSH1 0x1F PUSH1 0x24 DUP3 ADD MSTORE PUSH32 0x7468652063616C6C20746F20746865207665726966696572206661696C656400 PUSH1 0x44 DUP3 ADD MSTORE PUSH1 0x64 ADD PUSH2 0xAB7 JUMP JUMPDEST PUSH0 DUP2 DUP1 PUSH1 0x20 ADD SWAP1 MLOAD DUP2 ADD SWAP1 PUSH2 0x1A3D SWAP2 SWAP1 PUSH2 0x3E4B JUMP JUMPDEST SWAP1 POP DUP1 PUSH2 0x1A8C JUMPI PUSH1 0x40 MLOAD PUSH3 0x461BCD PUSH1 0xE5 SHL DUP2 MSTORE PUSH1 0x20 PUSH1 0x4 DUP3 ADD MSTORE PUSH1 0x1E PUSH1 0x24 DUP3 ADD MSTORE PUSH32 0x7468652070726F76696465642070726F6F662069736E27742076616C69640000 PUSH1 0x44 DUP3 ADD MSTORE PUSH1 0x64 ADD PUSH2 0xAB7 JUMP JUMPDEST PUSH2 0x1C35 CALLER PUSH2 0x19F DUP1 SLOAD PUSH2 0x1A9E SWAP1 PUSH2 0x3AFA JUMP JUMPDEST DUP1 PUSH1 0x1F ADD PUSH1 0x20 DUP1 SWAP2 DIV MUL PUSH1 0x20 ADD PUSH1 0x40 MLOAD SWAP1 DUP2 ADD PUSH1 0x40 MSTORE DUP1 SWAP3 SWAP2 SWAP1 DUP2 DUP2 MSTORE PUSH1 0x20 ADD DUP3 DUP1 SLOAD PUSH2 0x1ACA SWAP1 PUSH2 0x3AFA JUMP JUMPDEST DUP1 ISZERO PUSH2 0x1B15 JUMPI DUP1 PUSH1 0x1F LT PUSH2 0x1AEC JUMPI PUSH2 0x100 DUP1 DUP4 SLOAD DIV MUL DUP4 MSTORE SWAP2 PUSH1 0x20 ADD SWAP2 PUSH2 0x1B15 JUMP JUMPDEST DUP3 ADD SWAP2 SWAP1 PUSH0 MSTORE PUSH1 0x20 PUSH0 KECCAK256 SWAP1 JUMPDEST DUP2 SLOAD DUP2 MSTORE SWAP1 PUSH1 0x1 ADD SWAP1 PUSH1 0x20 ADD DUP1 DUP4 GT PUSH2 0x1AF8 JUMPI DUP3 SWAP1 SUB PUSH1 0x1F AND DUP3 ADD SWAP2 JUMPDEST POP POP POP POP POP PUSH2 0x1A0 DUP1 SLOAD PUSH2 0x1B28 SWAP1 PUSH2 0x3AFA JUMP JUMPDEST DUP1 PUSH1 0x1F ADD PUSH1 0x20 DUP1 SWAP2 DIV MUL PUSH1 0x20 ADD PUSH1 0x40 MLOAD SWAP1 DUP2 ADD PUSH1 0x40 MSTORE DUP1 SWAP3 SWAP2 SWAP1 DUP2 DUP2 MSTORE PUSH1 0x20 ADD DUP3 DUP1 SLOAD PUSH2 0x1B54 SWAP1 PUSH2 0x3AFA JUMP JUMPDEST DUP1 ISZERO PUSH2 0x1B9F JUMPI DUP1 PUSH1 0x1F LT PUSH2 0x1B76 JUMPI PUSH2 0x100 DUP1 DUP4 SLOAD DIV MUL DUP4 MSTORE SWAP2 PUSH1 0x20 ADD SWAP2 PUSH2 0x1B9F JUMP JUMPDEST DUP3 ADD SWAP2 SWAP1 PUSH0 MSTORE PUSH1 0x20 PUSH0 KECCAK256 SWAP1 JUMPDEST DUP2 SLOAD DUP2 MSTORE SWAP1 PUSH1 0x1 ADD SWAP1 PUSH1 0x20 ADD DUP1 DUP4 GT PUSH2 0x1B82 JUMPI DUP3 SWAP1 SUB PUSH1 0x1F AND DUP3 ADD SWAP2 JUMPDEST POP POP POP POP POP PUSH2 0x1A1 DUP1 SLOAD PUSH2 0x1BB2 SWAP1 PUSH2 0x3AFA JUMP JUMPDEST DUP1 PUSH1 0x1F ADD PUSH1 0x20 DUP1 SWAP2 DIV MUL PUSH1 0x20 ADD PUSH1 0x40 MLOAD SWAP1 DUP2 ADD PUSH1 0x40 MSTORE DUP1 SWAP3 SWAP2 SWAP1 DUP2 DUP2 MSTORE PUSH1 0x20 ADD DUP3 DUP1 SLOAD PUSH2 0x1BDE SWAP1 PUSH2 0x3AFA JUMP JUMPDEST DUP1 ISZERO PUSH2 0x1C29 JUMPI DUP1 PUSH1 0x1F LT PUSH2 0x1C00 JUMPI PUSH2 0x100 DUP1 DUP4 SLOAD DIV MUL DUP4 MSTORE SWAP2 PUSH1 0x20 ADD SWAP2 PUSH2 0x1C29 JUMP JUMPDEST DUP3 ADD SWAP2 SWAP1 PUSH0 MSTORE PUSH1 0x20 PUSH0 KECCAK256 SWAP1 JUMPDEST DUP2 SLOAD DUP2 MSTORE SWAP1 PUSH1 0x1 ADD SWAP1 PUSH1 0x20 ADD DUP1 DUP4 GT PUSH2 0x1C0C JUMPI DUP3 SWAP1 SUB PUSH1 0x1F AND DUP3 ADD SWAP2 JUMPDEST POP POP POP POP POP PUSH1 0x1 PUSH2 0x22F9 JUMP JUMPDEST PUSH2 0x19C DUP1 SLOAD SWAP1 PUSH0 PUSH2 0x1C45 DUP4 PUSH2 0x3D74 JUMP JUMPDEST SWAP2 SWAP1 POP SSTORE POP PUSH1 0x1 PUSH2 0x19D DUP7 PUSH1 0x40 MLOAD PUSH2 0x1C5D SWAP2 SWAP1 PUSH2 0x3D8C JUMP JUMPDEST SWAP1 DUP2 MSTORE PUSH1 0x20 ADD PUSH1 0x40 MLOAD DUP1 SWAP2 SUB SWAP1 KECCAK256 DUP2 SWAP1 SSTORE POP PUSH1 0x1 PUSH2 0x19E DUP6 PUSH1 0x40 MLOAD PUSH2 0x1C82 SWAP2 SWAP1 PUSH2 0x3D8C JUMP JUMPDEST SWAP1 DUP2 MSTORE PUSH1 0x40 MLOAD SWAP1 DUP2 SWAP1 SUB PUSH1 0x20 ADD SWAP1 KECCAK256 SSTORE POP POP POP POP POP POP POP JUMP JUMPDEST PUSH0 SWAP2 DUP3 MSTORE PUSH1 0xFB PUSH1 0x20 SWAP1 DUP2 MSTORE PUSH1 0x40 DUP1 DUP5 KECCAK256 PUSH1 0x1 PUSH1 0x1 PUSH1 0xA0 SHL SUB SWAP4 SWAP1 SWAP4 AND DUP5 MSTORE SWAP2 SWAP1 MSTORE SWAP1 KECCAK256 SLOAD PUSH1 0xFF AND SWAP1 JUMP JUMPDEST PUSH1 0x60 PUSH1 0x66 DUP1 SLOAD PUSH2 0x99E SWAP1 PUSH2 0x3AFA JUMP JUMPDEST PUSH2 0x19F DUP1 SLOAD PUSH2 0xF30 SWAP1 PUSH2 0x3AFA JUMP JUMPDEST PUSH2 0xDFC CALLER DUP4 DUP4 PUSH2 0x2709 JUMP JUMPDEST PUSH2 0x1CF7 CALLER DUP4 PUSH2 0x1FCF JUMP JUMPDEST PUSH2 0x1D13 JUMPI PUSH1 0x40 MLOAD PUSH3 0x461BCD PUSH1 0xE5 SHL DUP2 MSTORE PUSH1 0x4 ADD PUSH2 0xAB7 SWAP1 PUSH2 0x3C79 JUMP JUMPDEST PUSH2 0xBF6 DUP5 DUP5 DUP5 DUP5 PUSH2 0x27D6 JUMP JUMPDEST PUSH0 PUSH2 0x1D29 DUP2 PUSH2 0x1FC5 JUMP JUMPDEST PUSH2 0x1D32 DUP5 PUSH2 0x1EFA JUMP JUMPDEST PUSH0 DUP5 DUP2 MSTORE PUSH2 0x193 PUSH1 0x20 MSTORE PUSH1 0x40 SWAP1 KECCAK256 PUSH1 0x2 ADD DUP1 SLOAD PUSH2 0x1D4E SWAP1 PUSH2 0x3AFA JUMP JUMPDEST ISZERO SWAP1 POP PUSH2 0x1D90 JUMPI PUSH1 0x40 MLOAD PUSH3 0x461BCD PUSH1 0xE5 SHL DUP2 MSTORE PUSH1 0x20 PUSH1 0x4 DUP3 ADD MSTORE PUSH1 0x10 PUSH1 0x24 DUP3 ADD MSTORE PUSH16 0x1A185CDA08185B1C9958591E481CD95D PUSH1 0x82 SHL PUSH1 0x44 DUP3 ADD MSTORE PUSH1 0x64 ADD PUSH2 0xAB7 JUMP JUMPDEST PUSH0 DUP5 DUP2 MSTORE PUSH2 0x193 PUSH1 0x20 MSTORE PUSH1 0x40 SWAP1 KECCAK256 PUSH1 0x2 ADD PUSH2 0xBD7 DUP4 DUP6 DUP4 PUSH2 0x3BC5 JUMP JUMPDEST PUSH1 0x60 PUSH2 0x1DB7 DUP3 PUSH2 0x1EFA JUMP JUMPDEST PUSH0 PUSH2 0x1DC0 PUSH2 0x2809 JUMP JUMPDEST SWAP1 POP PUSH0 DUP2 MLOAD GT PUSH2 0x1DDE JUMPI PUSH1 0x40 MLOAD DUP1 PUSH1 0x20 ADD PUSH1 0x40 MSTORE DUP1 PUSH0 DUP2 MSTORE POP PUSH2 0x1E09 JUMP JUMPDEST DUP1 PUSH2 0x1DE8 DUP5 PUSH2 0x2819 JUMP JUMPDEST PUSH1 0x40 MLOAD PUSH1 0x20 ADD PUSH2 0x1DF9 SWAP3 SWAP2 SWAP1 PUSH2 0x3E66 JUMP JUMPDEST PUSH1 0x40 MLOAD PUSH1 0x20 DUP2 DUP4 SUB SUB DUP2 MSTORE SWAP1 PUSH1 0x40 MSTORE JUMPDEST SWAP4 SWAP3 POP POP POP JUMP JUMPDEST PUSH0 DUP3 DUP2 MSTORE PUSH1 0xFB PUSH1 0x20 MSTORE PUSH1 0x40 SWAP1 KECCAK256 PUSH1 0x1 ADD SLOAD PUSH2 0x1E2A DUP2 PUSH2 0x1FC5 JUMP JUMPDEST PUSH2 0xB58 DUP4 DUP4 PUSH2 0x242B JUMP JUMPDEST PUSH2 0x198 DUP2 PUSH1 0x2 DUP2 LT PUSH2 0x1E44 JUMPI PUSH0 DUP1 REVERT JUMPDEST ADD SLOAD SWAP1 POP DUP2 JUMP JUMPDEST PUSH0 PUSH2 0x1E55 DUP2 PUSH2 0x1FC5 JUMP JUMPDEST PUSH2 0x192 DUP4 DUP4 PUSH1 0x40 MLOAD PUSH2 0x1E68 SWAP3 SWAP2 SWAP1 PUSH2 0x3E94 JUMP JUMPDEST SWAP1 DUP2 MSTORE PUSH1 0x40 MLOAD SWAP1 DUP2 SWAP1 SUB PUSH1 0x20 ADD SWAP1 KECCAK256 DUP1 SLOAD PUSH1 0xFF NOT AND SWAP1 SSTORE POP POP POP JUMP JUMPDEST PUSH0 PUSH2 0x1E8E DUP2 PUSH2 0x1FC5 JUMP JUMPDEST PUSH1 0x1 PUSH2 0x192 DUP5 DUP5 PUSH1 0x40 MLOAD PUSH2 0x1EA3 SWAP3 SWAP2 SWAP1 PUSH2 0x3E94 JUMP JUMPDEST SWAP1 DUP2 MSTORE PUSH1 0x40 MLOAD SWAP1 DUP2 SWAP1 SUB PUSH1 0x20 ADD SWAP1 KECCAK256 DUP1 SLOAD SWAP2 ISZERO ISZERO PUSH1 0xFF NOT SWAP1 SWAP3 AND SWAP2 SWAP1 SWAP2 OR SWAP1 SSTORE POP POP POP JUMP JUMPDEST PUSH2 0x1A0 DUP1 SLOAD PUSH2 0xF30 SWAP1 PUSH2 0x3AFA JUMP JUMPDEST PUSH0 PUSH1 0x1 PUSH1 0x1 PUSH1 0xE0 SHL SUB NOT DUP3 AND PUSH4 0x7965DB0B PUSH1 0xE0 SHL EQ DUP1 PUSH2 0x989 JUMPI POP PUSH2 0x989 DUP3 PUSH2 0x2915 JUMP JUMPDEST PUSH0 DUP2 DUP2 MSTORE PUSH1 0x67 PUSH1 0x20 MSTORE PUSH1 0x40 SWAP1 KECCAK256 SLOAD PUSH1 0x1 PUSH1 0x1 PUSH1 0xA0 SHL SUB AND PUSH2 0xD60 JUMPI PUSH1 0x40 MLOAD PUSH3 0x461BCD PUSH1 0xE5 SHL DUP2 MSTORE PUSH1 0x20 PUSH1 0x4 DUP3 ADD MSTORE PUSH1 0x18 PUSH1 0x24 DUP3 ADD MSTORE PUSH24 0x115490CDCC8C4E881A5B9D985B1A59081D1BDAD95B881251 PUSH1 0x42 SHL PUSH1 0x44 DUP3 ADD MSTORE PUSH1 0x64 ADD PUSH2 0xAB7 JUMP JUMPDEST PUSH0 DUP2 DUP2 MSTORE PUSH1 0x69 PUSH1 0x20 MSTORE PUSH1 0x40 SWAP1 KECCAK256 DUP1 SLOAD PUSH1 0x1 PUSH1 0x1 PUSH1 0xA0 SHL SUB NOT AND PUSH1 0x1 PUSH1 0x1 PUSH1 0xA0 SHL SUB DUP5 AND SWAP1 DUP2 OR SWAP1 SWAP2 SSTORE DUP2 SWAP1 PUSH2 0x1F8C DUP3 PUSH2 0x1395 JUMP JUMPDEST PUSH1 0x1 PUSH1 0x1 PUSH1 0xA0 SHL SUB AND PUSH32 0x8C5BE1E5EBEC7D5BD14F71427D1E84F3DD0314C0F7B2291E5B200AC8C7C3B925 PUSH1 0x40 MLOAD PUSH1 0x40 MLOAD DUP1 SWAP2 SUB SWAP1 LOG4 POP POP JUMP JUMPDEST PUSH2 0xD60 DUP2 CALLER PUSH2 0x2939 JUMP JUMPDEST PUSH0 DUP1 PUSH2 0x1FDA DUP4 PUSH2 0x1395 JUMP JUMPDEST SWAP1 POP DUP1 PUSH1 0x1 PUSH1 0x1 PUSH1 0xA0 SHL SUB AND DUP5 PUSH1 0x1 PUSH1 0x1 PUSH1 0xA0 SHL SUB AND EQ DUP1 PUSH2 0x2020 JUMPI POP PUSH1 0x1 PUSH1 0x1 PUSH1 0xA0 SHL SUB DUP1 DUP3 AND PUSH0 SWAP1 DUP2 MSTORE PUSH1 0x6A PUSH1 0x20 SWAP1 DUP2 MSTORE PUSH1 0x40 DUP1 DUP4 KECCAK256 SWAP4 DUP9 AND DUP4 MSTORE SWAP3 SWAP1 MSTORE KECCAK256 SLOAD PUSH1 0xFF AND JUMPDEST DUP1 PUSH2 0x2044 JUMPI POP DUP4 PUSH1 0x1 PUSH1 0x1 PUSH1 0xA0 SHL SUB AND PUSH2 0x2039 DUP5 PUSH2 0xA1F JUMP JUMPDEST PUSH1 0x1 PUSH1 0x1 PUSH1 0xA0 SHL SUB AND EQ JUMPDEST SWAP5 SWAP4 POP POP POP POP JUMP JUMPDEST DUP3 PUSH1 0x1 PUSH1 0x1 PUSH1 0xA0 SHL SUB AND PUSH2 0x205F DUP3 PUSH2 0x1395 JUMP JUMPDEST PUSH1 0x1 PUSH1 0x1 PUSH1 0xA0 SHL SUB AND EQ PUSH2 0x20C3 JUMPI PUSH1 0x40 MLOAD PUSH3 0x461BCD PUSH1 0xE5 SHL DUP2 MSTORE PUSH1 0x20 PUSH1 0x4 DUP3 ADD MSTORE PUSH1 0x25 PUSH1 0x24 DUP3 ADD MSTORE PUSH32 0x4552433732313A207472616E736665722066726F6D20696E636F727265637420 PUSH1 0x44 DUP3 ADD MSTORE PUSH5 0x37BBB732B9 PUSH1 0xD9 SHL PUSH1 0x64 DUP3 ADD MSTORE PUSH1 0x84 ADD PUSH2 0xAB7 JUMP JUMPDEST PUSH1 0x1 PUSH1 0x1 PUSH1 0xA0 SHL SUB DUP3 AND PUSH2 0x2125 JUMPI PUSH1 0x40 MLOAD PUSH3 0x461BCD PUSH1 0xE5 SHL DUP2 MSTORE PUSH1 0x20 PUSH1 0x4 DUP3 ADD MSTORE PUSH1 0x24 DUP1 DUP3 ADD MSTORE PUSH32 0x4552433732313A207472616E7366657220746F20746865207A65726F20616464 PUSH1 0x44 DUP3 ADD MSTORE PUSH4 0x72657373 PUSH1 0xE0 SHL PUSH1 0x64 DUP3 ADD MSTORE PUSH1 0x84 ADD PUSH2 0xAB7 JUMP JUMPDEST PUSH2 0x2130 DUP4 DUP4 DUP4 PUSH2 0x299D JUMP JUMPDEST PUSH2 0x213A PUSH0 DUP3 PUSH2 0x1F58 JUMP JUMPDEST PUSH1 0x1 PUSH1 0x1 PUSH1 0xA0 SHL SUB DUP4 AND PUSH0 SWAP1 DUP2 MSTORE PUSH1 0x68 PUSH1 0x20 MSTORE PUSH1 0x40 DUP2 KECCAK256 DUP1 SLOAD PUSH1 0x1 SWAP3 SWAP1 PUSH2 0x2162 SWAP1 DUP5 SWAP1 PUSH2 0x3EA3 JUMP JUMPDEST SWAP1 SWAP2 SSTORE POP POP PUSH1 0x1 PUSH1 0x1 PUSH1 0xA0 SHL SUB DUP3 AND PUSH0 SWAP1 DUP2 MSTORE PUSH1 0x68 PUSH1 0x20 MSTORE PUSH1 0x40 DUP2 KECCAK256 DUP1 SLOAD PUSH1 0x1 SWAP3 SWAP1 PUSH2 0x218F SWAP1 DUP5 SWAP1 PUSH2 0x3B5A JUMP JUMPDEST SWAP1 SWAP2 SSTORE POP POP PUSH0 DUP2 DUP2 MSTORE PUSH1 0x67 PUSH1 0x20 MSTORE PUSH1 0x40 DUP1 DUP3 KECCAK256 DUP1 SLOAD PUSH1 0x1 PUSH1 0x1 PUSH1 0xA0 SHL SUB NOT AND PUSH1 0x1 PUSH1 0x1 PUSH1 0xA0 SHL SUB DUP7 DUP2 AND SWAP2 DUP3 OR SWAP1 SWAP3 SSTORE SWAP2 MLOAD DUP5 SWAP4 SWAP2 DUP8 AND SWAP2 PUSH32 0xDDF252AD1BE2C89B69C2B068FC378DAA952BA7F163C4A11628F55A4DF523B3EF SWAP2 LOG4 POP POP POP JUMP JUMPDEST PUSH2 0x21F9 DUP3 DUP3 PUSH2 0x1C9B JUMP JUMPDEST PUSH2 0xDFC JUMPI PUSH0 DUP3 DUP2 MSTORE PUSH1 0xFB PUSH1 0x20 SWAP1 DUP2 MSTORE PUSH1 0x40 DUP1 DUP4 KECCAK256 PUSH1 0x1 PUSH1 0x1 PUSH1 0xA0 SHL SUB DUP6 AND DUP5 MSTORE SWAP1 SWAP2 MSTORE SWAP1 KECCAK256 DUP1 SLOAD PUSH1 0xFF NOT AND PUSH1 0x1 OR SWAP1 SSTORE PUSH2 0x2230 CALLER SWAP1 JUMP JUMPDEST PUSH1 0x1 PUSH1 0x1 PUSH1 0xA0 SHL SUB AND DUP2 PUSH1 0x1 PUSH1 0x1 PUSH1 0xA0 SHL SUB AND DUP4 PUSH32 0x2F8788117E7EFF1D82E926EC794901D17C78024A50270940304540A733656F0D PUSH1 0x40 MLOAD PUSH1 0x40 MLOAD DUP1 SWAP2 SUB SWAP1 LOG4 POP POP JUMP JUMPDEST PUSH0 PUSH2 0x227F PUSH2 0x191 SLOAD SWAP1 JUMP JUMPDEST SWAP1 POP PUSH2 0x2290 PUSH2 0x191 DUP1 SLOAD PUSH1 0x1 ADD SWAP1 SSTORE JUMP JUMPDEST PUSH2 0x229A DUP3 DUP3 PUSH2 0x29F8 JUMP JUMPDEST PUSH1 0x40 MLOAD DUP1 PUSH1 0x40 ADD PUSH1 0x40 MSTORE DUP1 PUSH1 0x7 DUP2 MSTORE PUSH1 0x20 ADD PUSH7 0x2932B6B4BC32B9 PUSH1 0xC9 SHL DUP2 MSTORE POP PUSH2 0x193 PUSH0 DUP4 DUP2 MSTORE PUSH1 0x20 ADD SWAP1 DUP2 MSTORE PUSH1 0x20 ADD PUSH0 KECCAK256 PUSH1 0x1 ADD SWAP1 DUP2 PUSH2 0x22DB SWAP2 SWAP1 PUSH2 0x3EB6 JUMP JUMPDEST POP PUSH0 DUP2 DUP2 MSTORE PUSH2 0x193 PUSH1 0x20 MSTORE PUSH1 0x40 SWAP1 KECCAK256 PUSH1 0x2 ADD PUSH2 0xB58 PUSH2 0x195 DUP3 PUSH2 0x3F6C JUMP JUMPDEST PUSH2 0x192 DUP5 PUSH1 0x40 MLOAD PUSH2 0x230A SWAP2 SWAP1 PUSH2 0x3D8C JUMP JUMPDEST SWAP1 DUP2 MSTORE PUSH1 0x40 MLOAD SWAP1 DUP2 SWAP1 SUB PUSH1 0x20 ADD SWAP1 KECCAK256 SLOAD PUSH1 0xFF AND PUSH2 0x2369 JUMPI PUSH1 0x40 MLOAD PUSH3 0x461BCD PUSH1 0xE5 SHL DUP2 MSTORE PUSH1 0x20 PUSH1 0x4 DUP3 ADD MSTORE PUSH1 0x17 PUSH1 0x24 DUP3 ADD MSTORE PUSH32 0x747970652073686F756C64206265206465636C61726564000000000000000000 PUSH1 0x44 DUP3 ADD MSTORE PUSH1 0x64 ADD PUSH2 0xAB7 JUMP JUMPDEST PUSH0 PUSH2 0x2374 PUSH2 0x191 SLOAD SWAP1 JUMP JUMPDEST SWAP1 POP PUSH2 0x2385 PUSH2 0x191 DUP1 SLOAD PUSH1 0x1 ADD SWAP1 SSTORE JUMP JUMPDEST PUSH2 0x238F DUP7 DUP3 PUSH2 0x29F8 JUMP JUMPDEST PUSH0 DUP2 DUP2 MSTORE PUSH2 0x193 PUSH1 0x20 MSTORE PUSH1 0x40 SWAP1 KECCAK256 PUSH2 0x23A7 DUP6 DUP3 PUSH2 0x3EB6 JUMP JUMPDEST POP PUSH0 DUP2 DUP2 MSTORE PUSH2 0x193 PUSH1 0x20 MSTORE PUSH1 0x40 SWAP1 KECCAK256 PUSH1 0x1 ADD PUSH2 0x23C3 DUP7 DUP3 PUSH2 0x3EB6 JUMP JUMPDEST POP PUSH0 DUP2 DUP2 MSTORE PUSH2 0x193 PUSH1 0x20 MSTORE PUSH1 0x40 SWAP1 KECCAK256 PUSH1 0x2 ADD PUSH2 0x23DF DUP5 DUP3 PUSH2 0x3EB6 JUMP JUMPDEST POP DUP2 ISZERO PUSH2 0xD7A JUMPI PUSH1 0x1 PUSH1 0x1 PUSH1 0xA0 SHL SUB DUP7 AND PUSH0 SWAP1 DUP2 MSTORE PUSH2 0x194 PUSH1 0x20 MSTORE PUSH1 0x40 SWAP1 KECCAK256 SLOAD PUSH2 0x240A SWAP1 DUP4 SWAP1 PUSH2 0x3B5A JUMP JUMPDEST PUSH1 0x1 PUSH1 0x1 PUSH1 0xA0 SHL SUB DUP8 AND PUSH0 SWAP1 DUP2 MSTORE PUSH2 0x194 PUSH1 0x20 MSTORE PUSH1 0x40 SWAP1 KECCAK256 SSTORE POP POP POP POP POP POP JUMP JUMPDEST PUSH2 0x2435 DUP3 DUP3 PUSH2 0x1C9B JUMP JUMPDEST ISZERO PUSH2 0xDFC JUMPI PUSH0 DUP3 DUP2 MSTORE PUSH1 0xFB PUSH1 0x20 SWAP1 DUP2 MSTORE PUSH1 0x40 DUP1 DUP4 KECCAK256 PUSH1 0x1 PUSH1 0x1 PUSH1 0xA0 SHL SUB DUP6 AND DUP1 DUP6 MSTORE SWAP3 MSTORE DUP1 DUP4 KECCAK256 DUP1 SLOAD PUSH1 0xFF NOT AND SWAP1 SSTORE MLOAD CALLER SWAP3 DUP6 SWAP2 PUSH32 0xF6391F5C32D9C69D2A47EA670B442974B53935D1EDC7FD64EB21E047A839171B SWAP2 SWAP1 LOG4 POP POP JUMP JUMPDEST PUSH0 PUSH2 0xDFC DUP2 PUSH2 0x1FC5 JUMP JUMPDEST PUSH32 0x4910FDFA16FED3260ED0E7147F7CC6DA11A60208B5B9406D12A635614FFD9143 SLOAD PUSH1 0xFF AND ISZERO PUSH2 0x24CE JUMPI PUSH2 0xB58 DUP4 PUSH2 0x2A11 JUMP JUMPDEST DUP3 PUSH1 0x1 PUSH1 0x1 PUSH1 0xA0 SHL SUB AND PUSH4 0x52D1902D PUSH1 0x40 MLOAD DUP2 PUSH4 0xFFFFFFFF AND PUSH1 0xE0 SHL DUP2 MSTORE PUSH1 0x4 ADD PUSH1 0x20 PUSH1 0x40 MLOAD DUP1 DUP4 SUB DUP2 DUP7 GAS STATICCALL SWAP3 POP POP POP DUP1 ISZERO PUSH2 0x2528 JUMPI POP PUSH1 0x40 DUP1 MLOAD PUSH1 0x1F RETURNDATASIZE SWAP1 DUP2 ADD PUSH1 0x1F NOT AND DUP3 ADD SWAP1 SWAP3 MSTORE PUSH2 0x2525 SWAP2 DUP2 ADD SWAP1 PUSH2 0x4031 JUMP JUMPDEST PUSH1 0x1 JUMPDEST PUSH2 0x258B JUMPI PUSH1 0x40 MLOAD PUSH3 0x461BCD PUSH1 0xE5 SHL DUP2 MSTORE PUSH1 0x20 PUSH1 0x4 DUP3 ADD MSTORE PUSH1 0x2E PUSH1 0x24 DUP3 ADD MSTORE PUSH32 0x45524331393637557067726164653A206E657720696D706C656D656E74617469 PUSH1 0x44 DUP3 ADD MSTORE PUSH14 0x6F6E206973206E6F742055555053 PUSH1 0x90 SHL PUSH1 0x64 DUP3 ADD MSTORE PUSH1 0x84 ADD PUSH2 0xAB7 JUMP JUMPDEST PUSH0 DUP1 MLOAD PUSH1 0x20 PUSH2 0x420C DUP4 CODECOPY DUP2 MLOAD SWAP2 MSTORE DUP2 EQ PUSH2 0x25F9 JUMPI PUSH1 0x40 MLOAD PUSH3 0x461BCD PUSH1 0xE5 SHL DUP2 MSTORE PUSH1 0x20 PUSH1 0x4 DUP3 ADD MSTORE PUSH1 0x29 PUSH1 0x24 DUP3 ADD MSTORE PUSH32 0x45524331393637557067726164653A20756E737570706F727465642070726F78 PUSH1 0x44 DUP3 ADD MSTORE PUSH9 0x1A58589B1955555251 PUSH1 0xBA SHL PUSH1 0x64 DUP3 ADD MSTORE PUSH1 0x84 ADD PUSH2 0xAB7 JUMP JUMPDEST POP PUSH2 0xB58 DUP4 DUP4 DUP4 PUSH2 0x2AAC JUMP JUMPDEST PUSH0 PUSH2 0x260F DUP3 PUSH2 0x1395 JUMP JUMPDEST SWAP1 POP PUSH2 0x261C DUP2 PUSH0 DUP5 PUSH2 0x299D JUMP JUMPDEST PUSH2 0x2626 PUSH0 DUP4 PUSH2 0x1F58 JUMP JUMPDEST PUSH1 0x1 PUSH1 0x1 PUSH1 0xA0 SHL SUB DUP2 AND PUSH0 SWAP1 DUP2 MSTORE PUSH1 0x68 PUSH1 0x20 MSTORE PUSH1 0x40 DUP2 KECCAK256 DUP1 SLOAD PUSH1 0x1 SWAP3 SWAP1 PUSH2 0x264E SWAP1 DUP5 SWAP1 PUSH2 0x3EA3 JUMP JUMPDEST SWAP1 SWAP2 SSTORE POP POP PUSH0 DUP3 DUP2 MSTORE PUSH1 0x67 PUSH1 0x20 MSTORE PUSH1 0x40 DUP1 DUP3 KECCAK256 DUP1 SLOAD PUSH1 0x1 PUSH1 0x1 PUSH1 0xA0 SHL SUB NOT AND SWAP1 SSTORE MLOAD DUP4 SWAP2 SWAP1 PUSH1 0x1 PUSH1 0x1 PUSH1 0xA0 SHL SUB DUP5 AND SWAP1 PUSH32 0xDDF252AD1BE2C89B69C2B068FC378DAA952BA7F163C4A11628F55A4DF523B3EF SWAP1 DUP4 SWAP1 LOG4 POP POP JUMP JUMPDEST PUSH0 SLOAD PUSH2 0x100 SWAP1 DIV PUSH1 0xFF AND PUSH2 0x26CD JUMPI PUSH1 0x40 MLOAD PUSH3 0x461BCD PUSH1 0xE5 SHL DUP2 MSTORE PUSH1 0x4 ADD PUSH2 0xAB7 SWAP1 PUSH2 0x4048 JUMP JUMPDEST PUSH2 0xDFC DUP3 DUP3 PUSH2 0x2AD0 JUMP JUMPDEST PUSH0 SLOAD PUSH2 0x100 SWAP1 DIV PUSH1 0xFF AND PUSH2 0x26FD JUMPI PUSH1 0x40 MLOAD PUSH3 0x461BCD PUSH1 0xE5 SHL DUP2 MSTORE PUSH1 0x4 ADD PUSH2 0xAB7 SWAP1 PUSH2 0x4048 JUMP JUMPDEST JUMP JUMPDEST PUSH2 0xDFC DUP3 DUP3 PUSH2 0x21EF JUMP JUMPDEST DUP2 PUSH1 0x1 PUSH1 0x1 PUSH1 0xA0 SHL SUB AND DUP4 PUSH1 0x1 PUSH1 0x1 PUSH1 0xA0 SHL SUB AND SUB PUSH2 0x276A JUMPI PUSH1 0x40 MLOAD PUSH3 0x461BCD PUSH1 0xE5 SHL DUP2 MSTORE PUSH1 0x20 PUSH1 0x4 DUP3 ADD MSTORE PUSH1 0x19 PUSH1 0x24 DUP3 ADD MSTORE PUSH32 0x4552433732313A20617070726F766520746F2063616C6C657200000000000000 PUSH1 0x44 DUP3 ADD MSTORE PUSH1 0x64 ADD PUSH2 0xAB7 JUMP JUMPDEST PUSH1 0x1 PUSH1 0x1 PUSH1 0xA0 SHL SUB DUP4 DUP2 AND PUSH0 DUP2 DUP2 MSTORE PUSH1 0x6A PUSH1 0x20 SWAP1 DUP2 MSTORE PUSH1 0x40 DUP1 DUP4 KECCAK256 SWAP5 DUP8 AND DUP1 DUP5 MSTORE SWAP5 DUP3 MSTORE SWAP2 DUP3 SWAP1 KECCAK256 DUP1 SLOAD PUSH1 0xFF NOT AND DUP7 ISZERO ISZERO SWAP1 DUP2 OR SWAP1 SWAP2 SSTORE SWAP2 MLOAD SWAP2 DUP3 MSTORE PUSH32 0x17307EAB39AB6107E8899845AD3D59BD9653F200F220920489CA2B5937696C31 SWAP2 ADD PUSH1 0x40 MLOAD DUP1 SWAP2 SUB SWAP1 LOG3 POP POP POP JUMP JUMPDEST PUSH2 0x27E1 DUP5 DUP5 DUP5 PUSH2 0x204C JUMP JUMPDEST PUSH2 0x27ED DUP5 DUP5 DUP5 DUP5 PUSH2 0x2B0F JUMP JUMPDEST PUSH2 0xBF6 JUMPI PUSH1 0x40 MLOAD PUSH3 0x461BCD PUSH1 0xE5 SHL DUP2 MSTORE PUSH1 0x4 ADD PUSH2 0xAB7 SWAP1 PUSH2 0x4093 JUMP JUMPDEST PUSH1 0x60 PUSH2 0x196 DUP1 SLOAD PUSH2 0x99E SWAP1 PUSH2 0x3AFA JUMP JUMPDEST PUSH1 0x60 DUP2 PUSH0 SUB PUSH2 0x283F JUMPI POP POP PUSH1 0x40 DUP1 MLOAD DUP1 DUP3 ADD SWAP1 SWAP2 MSTORE PUSH1 0x1 DUP2 MSTORE PUSH1 0x3 PUSH1 0xFC SHL PUSH1 0x20 DUP3 ADD MSTORE SWAP1 JUMP JUMPDEST DUP2 PUSH0 JUMPDEST DUP2 ISZERO PUSH2 0x2868 JUMPI DUP1 PUSH2 0x2852 DUP2 PUSH2 0x3D74 JUMP JUMPDEST SWAP2 POP PUSH2 0x2861 SWAP1 POP PUSH1 0xA DUP4 PUSH2 0x40F9 JUMP JUMPDEST SWAP2 POP PUSH2 0x2842 JUMP JUMPDEST PUSH0 DUP2 PUSH1 0x1 PUSH1 0x1 PUSH1 0x40 SHL SUB DUP2 GT ISZERO PUSH2 0x2881 JUMPI PUSH2 0x2881 PUSH2 0x34D4 JUMP JUMPDEST PUSH1 0x40 MLOAD SWAP1 DUP1 DUP3 MSTORE DUP1 PUSH1 0x1F ADD PUSH1 0x1F NOT AND PUSH1 0x20 ADD DUP3 ADD PUSH1 0x40 MSTORE DUP1 ISZERO PUSH2 0x28AB JUMPI PUSH1 0x20 DUP3 ADD DUP2 DUP1 CALLDATASIZE DUP4 CALLDATACOPY ADD SWAP1 POP JUMPDEST POP SWAP1 POP JUMPDEST DUP5 ISZERO PUSH2 0x2044 JUMPI PUSH2 0x28C0 PUSH1 0x1 DUP4 PUSH2 0x3EA3 JUMP JUMPDEST SWAP2 POP PUSH2 0x28CD PUSH1 0xA DUP7 PUSH2 0x410C JUMP JUMPDEST PUSH2 0x28D8 SWAP1 PUSH1 0x30 PUSH2 0x3B5A JUMP JUMPDEST PUSH1 0xF8 SHL DUP2 DUP4 DUP2 MLOAD DUP2 LT PUSH2 0x28ED JUMPI PUSH2 0x28ED PUSH2 0x3B32 JUMP JUMPDEST PUSH1 0x20 ADD ADD SWAP1 PUSH1 0x1 PUSH1 0x1 PUSH1 0xF8 SHL SUB NOT AND SWAP1 DUP2 PUSH0 BYTE SWAP1 MSTORE8 POP PUSH2 0x290E PUSH1 0xA DUP7 PUSH2 0x40F9 JUMP JUMPDEST SWAP5 POP PUSH2 0x28AF JUMP JUMPDEST PUSH0 PUSH1 0x1 PUSH1 0x1 PUSH1 0xE0 SHL SUB NOT DUP3 AND PUSH4 0x780E9D63 PUSH1 0xE0 SHL EQ DUP1 PUSH2 0x989 JUMPI POP PUSH2 0x989 DUP3 PUSH2 0x2C0C JUMP JUMPDEST PUSH2 0x2943 DUP3 DUP3 PUSH2 0x1C9B JUMP JUMPDEST PUSH2 0xDFC JUMPI PUSH2 0x295B DUP2 PUSH1 0x1 PUSH1 0x1 PUSH1 0xA0 SHL SUB AND PUSH1 0x14 PUSH2 0x2C5B JUMP JUMPDEST PUSH2 0x2966 DUP4 PUSH1 0x20 PUSH2 0x2C5B JUMP JUMPDEST PUSH1 0x40 MLOAD PUSH1 0x20 ADD PUSH2 0x2977 SWAP3 SWAP2 SWAP1 PUSH2 0x411F JUMP JUMPDEST PUSH1 0x40 DUP1 MLOAD PUSH1 0x1F NOT DUP2 DUP5 SUB ADD DUP2 MSTORE SWAP1 DUP3 SWAP1 MSTORE PUSH3 0x461BCD PUSH1 0xE5 SHL DUP3 MSTORE PUSH2 0xAB7 SWAP2 PUSH1 0x4 ADD PUSH2 0x3410 JUMP JUMPDEST PUSH1 0x1 PUSH1 0x1 PUSH1 0xA0 SHL SUB DUP4 AND ISZERO PUSH2 0x29ED JUMPI PUSH1 0x40 MLOAD PUSH3 0x461BCD PUSH1 0xE5 SHL DUP2 MSTORE PUSH1 0x20 PUSH1 0x4 DUP3 ADD MSTORE PUSH1 0x16 PUSH1 0x24 DUP3 ADD MSTORE PUSH22 0x746F6B656E206E6F74207472616E7366657261626C65 PUSH1 0x50 SHL PUSH1 0x44 DUP3 ADD MSTORE PUSH1 0x64 ADD PUSH2 0xAB7 JUMP JUMPDEST PUSH2 0xB58 DUP4 DUP4 DUP4 PUSH2 0x2DF0 JUMP JUMPDEST PUSH2 0xDFC DUP3 DUP3 PUSH1 0x40 MLOAD DUP1 PUSH1 0x20 ADD PUSH1 0x40 MSTORE DUP1 PUSH0 DUP2 MSTORE POP PUSH2 0x2EA7 JUMP JUMPDEST PUSH1 0x1 PUSH1 0x1 PUSH1 0xA0 SHL SUB DUP2 AND EXTCODESIZE PUSH2 0x2A7E JUMPI PUSH1 0x40 MLOAD PUSH3 0x461BCD PUSH1 0xE5 SHL DUP2 MSTORE PUSH1 0x20 PUSH1 0x4 DUP3 ADD MSTORE PUSH1 0x2D PUSH1 0x24 DUP3 ADD MSTORE PUSH32 0x455243313936373A206E657720696D706C656D656E746174696F6E206973206E PUSH1 0x44 DUP3 ADD MSTORE PUSH13 0x1BDD08184818DBDB9D1C9858DD PUSH1 0x9A SHL PUSH1 0x64 DUP3 ADD MSTORE PUSH1 0x84 ADD PUSH2 0xAB7 JUMP JUMPDEST PUSH0 DUP1 MLOAD PUSH1 0x20 PUSH2 0x420C DUP4 CODECOPY DUP2 MLOAD SWAP2 MSTORE DUP1 SLOAD PUSH1 0x1 PUSH1 0x1 PUSH1 0xA0 SHL SUB NOT AND PUSH1 0x1 PUSH1 0x1 PUSH1 0xA0 SHL SUB SWAP3 SWAP1 SWAP3 AND SWAP2 SWAP1 SWAP2 OR SWAP1 SSTORE JUMP JUMPDEST PUSH2 0x2AB5 DUP4 PUSH2 0x2ED9 JUMP JUMPDEST PUSH0 DUP3 MLOAD GT DUP1 PUSH2 0x2AC1 JUMPI POP DUP1 JUMPDEST ISZERO PUSH2 0xB58 JUMPI PUSH2 0xBF6 DUP4 DUP4 PUSH2 0x2F18 JUMP JUMPDEST PUSH0 SLOAD PUSH2 0x100 SWAP1 DIV PUSH1 0xFF AND PUSH2 0x2AF6 JUMPI PUSH1 0x40 MLOAD PUSH3 0x461BCD PUSH1 0xE5 SHL DUP2 MSTORE PUSH1 0x4 ADD PUSH2 0xAB7 SWAP1 PUSH2 0x4048 JUMP JUMPDEST PUSH1 0x65 PUSH2 0x2B02 DUP4 DUP3 PUSH2 0x3EB6 JUMP JUMPDEST POP PUSH1 0x66 PUSH2 0xB58 DUP3 DUP3 PUSH2 0x3EB6 JUMP JUMPDEST PUSH0 PUSH1 0x1 PUSH1 0x1 PUSH1 0xA0 SHL SUB DUP5 AND EXTCODESIZE ISZERO PUSH2 0x2C01 JUMPI PUSH1 0x40 MLOAD PUSH4 0xA85BD01 PUSH1 0xE1 SHL DUP2 MSTORE PUSH1 0x1 PUSH1 0x1 PUSH1 0xA0 SHL SUB DUP6 AND SWAP1 PUSH4 0x150B7A02 SWAP1 PUSH2 0x2B52 SWAP1 CALLER SWAP1 DUP10 SWAP1 DUP9 SWAP1 DUP9 SWAP1 PUSH1 0x4 ADD PUSH2 0x4193 JUMP JUMPDEST PUSH1 0x20 PUSH1 0x40 MLOAD DUP1 DUP4 SUB DUP2 PUSH0 DUP8 GAS CALL SWAP3 POP POP POP DUP1 ISZERO PUSH2 0x2B8C JUMPI POP PUSH1 0x40 DUP1 MLOAD PUSH1 0x1F RETURNDATASIZE SWAP1 DUP2 ADD PUSH1 0x1F NOT AND DUP3 ADD SWAP1 SWAP3 MSTORE PUSH2 0x2B89 SWAP2 DUP2 ADD SWAP1 PUSH2 0x41C5 JUMP JUMPDEST PUSH1 0x1 JUMPDEST PUSH2 0x2BE7 JUMPI RETURNDATASIZE DUP1 DUP1 ISZERO PUSH2 0x2BB9 JUMPI PUSH1 0x40 MLOAD SWAP2 POP PUSH1 0x1F NOT PUSH1 0x3F RETURNDATASIZE ADD AND DUP3 ADD PUSH1 0x40 MSTORE RETURNDATASIZE DUP3 MSTORE RETURNDATASIZE PUSH0 PUSH1 0x20 DUP5 ADD RETURNDATACOPY PUSH2 0x2BBE JUMP JUMPDEST PUSH1 0x60 SWAP2 POP JUMPDEST POP DUP1 MLOAD PUSH0 SUB PUSH2 0x2BDF JUMPI PUSH1 0x40 MLOAD PUSH3 0x461BCD PUSH1 0xE5 SHL DUP2 MSTORE PUSH1 0x4 ADD PUSH2 0xAB7 SWAP1 PUSH2 0x4093 JUMP JUMPDEST DUP1 MLOAD DUP2 PUSH1 0x20 ADD REVERT JUMPDEST PUSH1 0x1 PUSH1 0x1 PUSH1 0xE0 SHL SUB NOT AND PUSH4 0xA85BD01 PUSH1 0xE1 SHL EQ SWAP1 POP PUSH2 0x2044 JUMP JUMPDEST POP PUSH1 0x1 SWAP5 SWAP4 POP POP POP POP JUMP JUMPDEST PUSH0 PUSH1 0x1 PUSH1 0x1 PUSH1 0xE0 SHL SUB NOT DUP3 AND PUSH4 0x80AC58CD PUSH1 0xE0 SHL EQ DUP1 PUSH2 0x2C3C JUMPI POP PUSH1 0x1 PUSH1 0x1 PUSH1 0xE0 SHL SUB NOT DUP3 AND PUSH4 0x5B5E139F PUSH1 0xE0 SHL EQ JUMPDEST DUP1 PUSH2 0x989 JUMPI POP PUSH4 0x1FFC9A7 PUSH1 0xE0 SHL PUSH1 0x1 PUSH1 0x1 PUSH1 0xE0 SHL SUB NOT DUP4 AND EQ PUSH2 0x989 JUMP JUMPDEST PUSH1 0x60 PUSH0 PUSH2 0x2C69 DUP4 PUSH1 0x2 PUSH2 0x41E0 JUMP JUMPDEST PUSH2 0x2C74 SWAP1 PUSH1 0x2 PUSH2 0x3B5A JUMP JUMPDEST PUSH1 0x1 PUSH1 0x1 PUSH1 0x40 SHL SUB DUP2 GT ISZERO PUSH2 0x2C8B JUMPI PUSH2 0x2C8B PUSH2 0x34D4 JUMP JUMPDEST PUSH1 0x40 MLOAD SWAP1 DUP1 DUP3 MSTORE DUP1 PUSH1 0x1F ADD PUSH1 0x1F NOT AND PUSH1 0x20 ADD DUP3 ADD PUSH1 0x40 MSTORE DUP1 ISZERO PUSH2 0x2CB5 JUMPI PUSH1 0x20 DUP3 ADD DUP2 DUP1 CALLDATASIZE DUP4 CALLDATACOPY ADD SWAP1 POP JUMPDEST POP SWAP1 POP PUSH1 0x3 PUSH1 0xFC SHL DUP2 PUSH0 DUP2 MLOAD DUP2 LT PUSH2 0x2CCF JUMPI PUSH2 0x2CCF PUSH2 0x3B32 JUMP JUMPDEST PUSH1 0x20 ADD ADD SWAP1 PUSH1 0x1 PUSH1 0x1 PUSH1 0xF8 SHL SUB NOT AND SWAP1 DUP2 PUSH0 BYTE SWAP1 MSTORE8 POP PUSH1 0xF PUSH1 0xFB SHL DUP2 PUSH1 0x1 DUP2 MLOAD DUP2 LT PUSH2 0x2CFD JUMPI PUSH2 0x2CFD PUSH2 0x3B32 JUMP JUMPDEST PUSH1 0x20 ADD ADD SWAP1 PUSH1 0x1 PUSH1 0x1 PUSH1 0xF8 SHL SUB NOT AND SWAP1 DUP2 PUSH0 BYTE SWAP1 MSTORE8 POP PUSH0 PUSH2 0x2D1F DUP5 PUSH1 0x2 PUSH2 0x41E0 JUMP JUMPDEST PUSH2 0x2D2A SWAP1 PUSH1 0x1 PUSH2 0x3B5A JUMP JUMPDEST SWAP1 POP JUMPDEST PUSH1 0x1 DUP2 GT ISZERO PUSH2 0x2DA1 JUMPI PUSH16 0x181899199A1A9B1B9C1CB0B131B232B3 PUSH1 0x81 SHL DUP6 PUSH1 0xF AND PUSH1 0x10 DUP2 LT PUSH2 0x2D5E JUMPI PUSH2 0x2D5E PUSH2 0x3B32 JUMP JUMPDEST BYTE PUSH1 0xF8 SHL DUP3 DUP3 DUP2 MLOAD DUP2 LT PUSH2 0x2D74 JUMPI PUSH2 0x2D74 PUSH2 0x3B32 JUMP JUMPDEST PUSH1 0x20 ADD ADD SWAP1 PUSH1 0x1 PUSH1 0x1 PUSH1 0xF8 SHL SUB NOT AND SWAP1 DUP2 PUSH0 BYTE SWAP1 MSTORE8 POP PUSH1 0x4 SWAP5 SWAP1 SWAP5 SHR SWAP4 PUSH2 0x2D9A DUP2 PUSH2 0x3CC7 JUMP JUMPDEST SWAP1 POP PUSH2 0x2D2D JUMP JUMPDEST POP DUP4 ISZERO PUSH2 0x1E09 JUMPI PUSH1 0x40 MLOAD PUSH3 0x461BCD PUSH1 0xE5 SHL DUP2 MSTORE PUSH1 0x20 PUSH1 0x4 DUP3 ADD DUP2 SWAP1 MSTORE PUSH1 0x24 DUP3 ADD MSTORE PUSH32 0x537472696E67733A20686578206C656E67746820696E73756666696369656E74 PUSH1 0x44 DUP3 ADD MSTORE PUSH1 0x64 ADD PUSH2 0xAB7 JUMP JUMPDEST PUSH1 0x1 PUSH1 0x1 PUSH1 0xA0 SHL SUB DUP4 AND PUSH2 0x2E4A JUMPI PUSH2 0x2E45 DUP2 PUSH1 0x99 DUP1 SLOAD PUSH0 DUP4 DUP2 MSTORE PUSH1 0x9A PUSH1 0x20 MSTORE PUSH1 0x40 DUP2 KECCAK256 DUP3 SWAP1 SSTORE PUSH1 0x1 DUP3 ADD DUP4 SSTORE SWAP2 SWAP1 SWAP2 MSTORE PUSH32 0x72A152DDFB8E864297C917AF52EA6C1C68AEAD0FEE1A62673FCC7E0C94979D00 ADD SSTORE JUMP JUMPDEST PUSH2 0x2E6D JUMP JUMPDEST DUP2 PUSH1 0x1 PUSH1 0x1 PUSH1 0xA0 SHL SUB AND DUP4 PUSH1 0x1 PUSH1 0x1 PUSH1 0xA0 SHL SUB AND EQ PUSH2 0x2E6D JUMPI PUSH2 0x2E6D DUP4 DUP3 PUSH2 0x3008 JUMP JUMPDEST PUSH1 0x1 PUSH1 0x1 PUSH1 0xA0 SHL SUB DUP3 AND PUSH2 0x2E84 JUMPI PUSH2 0xB58 DUP2 PUSH2 0x30A1 JUMP JUMPDEST DUP3 PUSH1 0x1 PUSH1 0x1 PUSH1 0xA0 SHL SUB AND DUP3 PUSH1 0x1 PUSH1 0x1 PUSH1 0xA0 SHL SUB AND EQ PUSH2 0xB58 JUMPI PUSH2 0xB58 DUP3 DUP3 PUSH2 0x3148 JUMP JUMPDEST PUSH2 0x2EB1 DUP4 DUP4 PUSH2 0x318A JUMP JUMPDEST PUSH2 0x2EBD PUSH0 DUP5 DUP5 DUP5 PUSH2 0x2B0F JUMP JUMPDEST PUSH2 0xB58 JUMPI PUSH1 0x40 MLOAD PUSH3 0x461BCD PUSH1 0xE5 SHL DUP2 MSTORE PUSH1 0x4 ADD PUSH2 0xAB7 SWAP1 PUSH2 0x4093 JUMP JUMPDEST PUSH2 0x2EE2 DUP2 PUSH2 0x2A11 JUMP JUMPDEST PUSH1 0x40 MLOAD PUSH1 0x1 PUSH1 0x1 PUSH1 0xA0 SHL SUB DUP3 AND SWAP1 PUSH32 0xBC7CD75A20EE27FD9ADEBAB32041F755214DBC6BFFA90CC0225B39DA2E5C2D3B SWAP1 PUSH0 SWAP1 LOG2 POP JUMP JUMPDEST PUSH1 0x60 PUSH1 0x1 PUSH1 0x1 PUSH1 0xA0 SHL SUB DUP4 AND EXTCODESIZE PUSH2 0x2F80 JUMPI PUSH1 0x40 MLOAD PUSH3 0x461BCD PUSH1 0xE5 SHL DUP2 MSTORE PUSH1 0x20 PUSH1 0x4 DUP3 ADD MSTORE PUSH1 0x26 PUSH1 0x24 DUP3 ADD MSTORE PUSH32 0x416464726573733A2064656C65676174652063616C6C20746F206E6F6E2D636F PUSH1 0x44 DUP3 ADD MSTORE PUSH6 0x1B9D1C9858DD PUSH1 0xD2 SHL PUSH1 0x64 DUP3 ADD MSTORE PUSH1 0x84 ADD PUSH2 0xAB7 JUMP JUMPDEST PUSH0 DUP1 DUP5 PUSH1 0x1 PUSH1 0x1 PUSH1 0xA0 SHL SUB AND DUP5 PUSH1 0x40 MLOAD PUSH2 0x2F9A SWAP2 SWAP1 PUSH2 0x3D8C JUMP JUMPDEST PUSH0 PUSH1 0x40 MLOAD DUP1 DUP4 SUB DUP2 DUP6 GAS DELEGATECALL SWAP2 POP POP RETURNDATASIZE DUP1 PUSH0 DUP2 EQ PUSH2 0x2FD2 JUMPI PUSH1 0x40 MLOAD SWAP2 POP PUSH1 0x1F NOT PUSH1 0x3F RETURNDATASIZE ADD AND DUP3 ADD PUSH1 0x40 MSTORE RETURNDATASIZE DUP3 MSTORE RETURNDATASIZE PUSH0 PUSH1 0x20 DUP5 ADD RETURNDATACOPY PUSH2 0x2FD7 JUMP JUMPDEST PUSH1 0x60 SWAP2 POP JUMPDEST POP SWAP2 POP SWAP2 POP PUSH2 0x2FFF DUP3 DUP3 PUSH1 0x40 MLOAD DUP1 PUSH1 0x60 ADD PUSH1 0x40 MSTORE DUP1 PUSH1 0x27 DUP2 MSTORE PUSH1 0x20 ADD PUSH2 0x422C PUSH1 0x27 SWAP2 CODECOPY PUSH2 0x32D4 JUMP JUMPDEST SWAP6 SWAP5 POP POP POP POP POP JUMP JUMPDEST PUSH0 PUSH1 0x1 PUSH2 0x3014 DUP5 PUSH2 0x1402 JUMP JUMPDEST PUSH2 0x301E SWAP2 SWAP1 PUSH2 0x3EA3 JUMP JUMPDEST PUSH0 DUP4 DUP2 MSTORE PUSH1 0x98 PUSH1 0x20 MSTORE PUSH1 0x40 SWAP1 KECCAK256 SLOAD SWAP1 SWAP2 POP DUP1 DUP3 EQ PUSH2 0x306F JUMPI PUSH1 0x1 PUSH1 0x1 PUSH1 0xA0 SHL SUB DUP5 AND PUSH0 SWAP1 DUP2 MSTORE PUSH1 0x97 PUSH1 0x20 SWAP1 DUP2 MSTORE PUSH1 0x40 DUP1 DUP4 KECCAK256 DUP6 DUP5 MSTORE DUP3 MSTORE DUP1 DUP4 KECCAK256 SLOAD DUP5 DUP5 MSTORE DUP2 DUP5 KECCAK256 DUP2 SWAP1 SSTORE DUP4 MSTORE PUSH1 0x98 SWAP1 SWAP2 MSTORE SWAP1 KECCAK256 DUP2 SWAP1 SSTORE JUMPDEST POP PUSH0 SWAP2 DUP3 MSTORE PUSH1 0x98 PUSH1 0x20 SWAP1 DUP2 MSTORE PUSH1 0x40 DUP1 DUP5 KECCAK256 DUP5 SWAP1 SSTORE PUSH1 0x1 PUSH1 0x1 PUSH1 0xA0 SHL SUB SWAP1 SWAP5 AND DUP4 MSTORE PUSH1 0x97 DUP2 MSTORE DUP4 DUP4 KECCAK256 SWAP2 DUP4 MSTORE MSTORE SWAP1 DUP2 KECCAK256 SSTORE JUMP JUMPDEST PUSH1 0x99 SLOAD PUSH0 SWAP1 PUSH2 0x30B2 SWAP1 PUSH1 0x1 SWAP1 PUSH2 0x3EA3 JUMP JUMPDEST PUSH0 DUP4 DUP2 MSTORE PUSH1 0x9A PUSH1 0x20 MSTORE PUSH1 0x40 DUP2 KECCAK256 SLOAD PUSH1 0x99 DUP1 SLOAD SWAP4 SWAP5 POP SWAP1 SWAP3 DUP5 SWAP1 DUP2 LT PUSH2 0x30D9 JUMPI PUSH2 0x30D9 PUSH2 0x3B32 JUMP JUMPDEST SWAP1 PUSH0 MSTORE PUSH1 0x20 PUSH0 KECCAK256 ADD SLOAD SWAP1 POP DUP1 PUSH1 0x99 DUP4 DUP2 SLOAD DUP2 LT PUSH2 0x30F8 JUMPI PUSH2 0x30F8 PUSH2 0x3B32 JUMP JUMPDEST PUSH0 SWAP2 DUP3 MSTORE PUSH1 0x20 DUP1 DUP4 KECCAK256 SWAP1 SWAP2 ADD SWAP3 SWAP1 SWAP3 SSTORE DUP3 DUP2 MSTORE PUSH1 0x9A SWAP1 SWAP2 MSTORE PUSH1 0x40 DUP1 DUP3 KECCAK256 DUP5 SWAP1 SSTORE DUP6 DUP3 MSTORE DUP2 KECCAK256 SSTORE PUSH1 0x99 DUP1 SLOAD DUP1 PUSH2 0x312F JUMPI PUSH2 0x312F PUSH2 0x41F7 JUMP JUMPDEST PUSH1 0x1 SWAP1 SUB DUP2 DUP2 SWAP1 PUSH0 MSTORE PUSH1 0x20 PUSH0 KECCAK256 ADD PUSH0 SWAP1 SSTORE SWAP1 SSTORE POP POP POP POP JUMP JUMPDEST PUSH0 PUSH2 0x3152 DUP4 PUSH2 0x1402 JUMP JUMPDEST PUSH1 0x1 PUSH1 0x1 PUSH1 0xA0 SHL SUB SWAP1 SWAP4 AND PUSH0 SWAP1 DUP2 MSTORE PUSH1 0x97 PUSH1 0x20 SWAP1 DUP2 MSTORE PUSH1 0x40 DUP1 DUP4 KECCAK256 DUP7 DUP5 MSTORE DUP3 MSTORE DUP1 DUP4 KECCAK256 DUP6 SWAP1 SSTORE SWAP4 DUP3 MSTORE PUSH1 0x98 SWAP1 MSTORE SWAP2 SWAP1 SWAP2 KECCAK256 SWAP2 SWAP1 SWAP2 SSTORE POP JUMP JUMPDEST PUSH1 0x1 PUSH1 0x1 PUSH1 0xA0 SHL SUB DUP3 AND PUSH2 0x31E0 JUMPI PUSH1 0x40 MLOAD PUSH3 0x461BCD PUSH1 0xE5 SHL DUP2 MSTORE PUSH1 0x20 PUSH1 0x4 DUP3 ADD DUP2 SWAP1 MSTORE PUSH1 0x24 DUP3 ADD MSTORE PUSH32 0x4552433732313A206D696E7420746F20746865207A65726F2061646472657373 PUSH1 0x44 DUP3 ADD MSTORE PUSH1 0x64 ADD PUSH2 0xAB7 JUMP JUMPDEST PUSH0 DUP2 DUP2 MSTORE PUSH1 0x67 PUSH1 0x20 MSTORE PUSH1 0x40 SWAP1 KECCAK256 SLOAD PUSH1 0x1 PUSH1 0x1 PUSH1 0xA0 SHL SUB AND ISZERO PUSH2 0x3244 JUMPI PUSH1 0x40 MLOAD PUSH3 0x461BCD PUSH1 0xE5 SHL DUP2 MSTORE PUSH1 0x20 PUSH1 0x4 DUP3 ADD MSTORE PUSH1 0x1C PUSH1 0x24 DUP3 ADD MSTORE PUSH32 0x4552433732313A20746F6B656E20616C7265616479206D696E74656400000000 PUSH1 0x44 DUP3 ADD MSTORE PUSH1 0x64 ADD PUSH2 0xAB7 JUMP JUMPDEST PUSH2 0x324F PUSH0 DUP4 DUP4 PUSH2 0x299D JUMP JUMPDEST PUSH1 0x1 PUSH1 0x1 PUSH1 0xA0 SHL SUB DUP3 AND PUSH0 SWAP1 DUP2 MSTORE PUSH1 0x68 PUSH1 0x20 MSTORE PUSH1 0x40 DUP2 KECCAK256 DUP1 SLOAD PUSH1 0x1 SWAP3 SWAP1 PUSH2 0x3277 SWAP1 DUP5 SWAP1 PUSH2 0x3B5A JUMP JUMPDEST SWAP1 SWAP2 SSTORE POP POP PUSH0 DUP2 DUP2 MSTORE PUSH1 0x67 PUSH1 0x20 MSTORE PUSH1 0x40 DUP1 DUP3 KECCAK256 DUP1 SLOAD PUSH1 0x1 PUSH1 0x1 PUSH1 0xA0 SHL SUB NOT AND PUSH1 0x1 PUSH1 0x1 PUSH1 0xA0 SHL SUB DUP7 AND SWAP1 DUP2 OR SWAP1 SWAP2 SSTORE SWAP1 MLOAD DUP4 SWAP3 SWAP1 PUSH32 0xDDF252AD1BE2C89B69C2B068FC378DAA952BA7F163C4A11628F55A4DF523B3EF SWAP1 DUP3 SWAP1 LOG4 POP POP JUMP JUMPDEST PUSH1 0x60 DUP4 ISZERO PUSH2 0x32E3 JUMPI POP DUP2 PUSH2 0x1E09 JUMP JUMPDEST DUP3 MLOAD ISZERO PUSH2 0x32F3 JUMPI DUP3 MLOAD DUP1 DUP5 PUSH1 0x20 ADD REVERT JUMPDEST DUP2 PUSH1 0x40 MLOAD PUSH3 0x461BCD PUSH1 0xE5 SHL DUP2 MSTORE PUSH1 0x4 ADD PUSH2 0xAB7 SWAP2 SWAP1 PUSH2 0x3410 JUMP JUMPDEST DUP3 PUSH1 0x2 DUP2 ADD SWAP3 DUP3 ISZERO PUSH2 0x333B JUMPI SWAP2 PUSH1 0x20 MUL DUP3 ADD JUMPDEST DUP3 DUP2 GT ISZERO PUSH2 0x333B JUMPI DUP3 CALLDATALOAD DUP3 SSTORE SWAP2 PUSH1 0x20 ADD SWAP2 SWAP1 PUSH1 0x1 ADD SWAP1 PUSH2 0x3320 JUMP JUMPDEST POP PUSH2 0x3347 SWAP3 SWAP2 POP PUSH2 0x334B JUMP JUMPDEST POP SWAP1 JUMP JUMPDEST JUMPDEST DUP1 DUP3 GT ISZERO PUSH2 0x3347 JUMPI PUSH0 DUP2 SSTORE PUSH1 0x1 ADD PUSH2 0x334C JUMP JUMPDEST DUP1 CALLDATALOAD PUSH1 0x1 PUSH1 0x1 PUSH1 0xA0 SHL SUB DUP2 AND DUP2 EQ PUSH2 0x3375 JUMPI PUSH0 DUP1 REVERT JUMPDEST SWAP2 SWAP1 POP JUMP JUMPDEST PUSH0 PUSH1 0x20 DUP3 DUP5 SUB SLT ISZERO PUSH2 0x338A JUMPI PUSH0 DUP1 REVERT JUMPDEST PUSH2 0x1E09 DUP3 PUSH2 0x335F JUMP JUMPDEST PUSH1 0x1 PUSH1 0x1 PUSH1 0xE0 SHL SUB NOT DUP2 AND DUP2 EQ PUSH2 0xD60 JUMPI PUSH0 DUP1 REVERT JUMPDEST PUSH0 PUSH1 0x20 DUP3 DUP5 SUB SLT ISZERO PUSH2 0x33B8 JUMPI PUSH0 DUP1 REVERT JUMPDEST DUP2 CALLDATALOAD PUSH2 0x1E09 DUP2 PUSH2 0x3393 JUMP JUMPDEST PUSH0 JUMPDEST DUP4 DUP2 LT ISZERO PUSH2 0x33DD JUMPI DUP2 DUP2 ADD MLOAD DUP4 DUP3 ADD MSTORE PUSH1 0x20 ADD PUSH2 0x33C5 JUMP JUMPDEST POP POP PUSH0 SWAP2 ADD MSTORE JUMP JUMPDEST PUSH0 DUP2 MLOAD DUP1 DUP5 MSTORE PUSH2 0x33FC DUP2 PUSH1 0x20 DUP7 ADD PUSH1 0x20 DUP7 ADD PUSH2 0x33C3 JUMP JUMPDEST PUSH1 0x1F ADD PUSH1 0x1F NOT AND SWAP3 SWAP1 SWAP3 ADD PUSH1 0x20 ADD SWAP3 SWAP2 POP POP JUMP JUMPDEST PUSH1 0x20 DUP2 MSTORE PUSH0 PUSH2 0x1E09 PUSH1 0x20 DUP4 ADD DUP5 PUSH2 0x33E5 JUMP JUMPDEST PUSH0 PUSH1 0x20 DUP3 DUP5 SUB SLT ISZERO PUSH2 0x3432 JUMPI PUSH0 DUP1 REVERT JUMPDEST POP CALLDATALOAD SWAP2 SWAP1 POP JUMP JUMPDEST PUSH0 DUP1 PUSH1 0x40 DUP4 DUP6 SUB SLT ISZERO PUSH2 0x344A JUMPI PUSH0 DUP1 REVERT JUMPDEST PUSH2 0x3453 DUP4 PUSH2 0x335F JUMP JUMPDEST SWAP5 PUSH1 0x20 SWAP4 SWAP1 SWAP4 ADD CALLDATALOAD SWAP4 POP POP POP JUMP JUMPDEST PUSH0 DUP1 PUSH0 PUSH1 0x40 DUP5 DUP7 SUB SLT ISZERO PUSH2 0x3473 JUMPI PUSH0 DUP1 REVERT JUMPDEST DUP4 CALLDATALOAD PUSH1 0x1 PUSH1 0x1 PUSH1 0x40 SHL SUB DUP1 DUP3 GT ISZERO PUSH2 0x3489 JUMPI PUSH0 DUP1 REVERT JUMPDEST DUP2 DUP7 ADD SWAP2 POP DUP7 PUSH1 0x1F DUP4 ADD SLT PUSH2 0x349C JUMPI PUSH0 DUP1 REVERT JUMPDEST DUP2 CALLDATALOAD DUP2 DUP2 GT ISZERO PUSH2 0x34AA JUMPI PUSH0 DUP1 REVERT JUMPDEST DUP8 PUSH1 0x20 DUP3 PUSH1 0x5 SHL DUP6 ADD ADD GT ISZERO PUSH2 0x34BE JUMPI PUSH0 DUP1 REVERT JUMPDEST PUSH1 0x20 SWAP3 DUP4 ADD SWAP9 SWAP1 SWAP8 POP SWAP6 SWAP1 SWAP2 ADD CALLDATALOAD SWAP5 SWAP4 POP POP POP POP JUMP JUMPDEST PUSH4 0x4E487B71 PUSH1 0xE0 SHL PUSH0 MSTORE PUSH1 0x41 PUSH1 0x4 MSTORE PUSH1 0x24 PUSH0 REVERT JUMPDEST PUSH1 0x40 MLOAD PUSH1 0x60 DUP2 ADD PUSH1 0x1 PUSH1 0x1 PUSH1 0x40 SHL SUB DUP2 GT DUP3 DUP3 LT OR ISZERO PUSH2 0x350A JUMPI PUSH2 0x350A PUSH2 0x34D4 JUMP JUMPDEST PUSH1 0x40 MSTORE SWAP1 JUMP JUMPDEST PUSH1 0x40 DUP1 MLOAD SWAP1 DUP2 ADD PUSH1 0x1 PUSH1 0x1 PUSH1 0x40 SHL SUB DUP2 GT DUP3 DUP3 LT OR ISZERO PUSH2 0x350A JUMPI PUSH2 0x350A PUSH2 0x34D4 JUMP JUMPDEST PUSH0 DUP3 PUSH1 0x1F DUP4 ADD SLT PUSH2 0x3541 JUMPI PUSH0 DUP1 REVERT JUMPDEST DUP2 CALLDATALOAD PUSH1 0x1 PUSH1 0x1 PUSH1 0x40 SHL SUB DUP1 DUP3 GT ISZERO PUSH2 0x355B JUMPI PUSH2 0x355B PUSH2 0x34D4 JUMP JUMPDEST PUSH1 0x40 MLOAD PUSH1 0x1F DUP4 ADD PUSH1 0x1F NOT SWAP1 DUP2 AND PUSH1 0x3F ADD AND DUP2 ADD SWAP1 DUP3 DUP3 GT DUP2 DUP4 LT OR ISZERO PUSH2 0x3583 JUMPI PUSH2 0x3583 PUSH2 0x34D4 JUMP JUMPDEST DUP2 PUSH1 0x40 MSTORE DUP4 DUP2 MSTORE DUP7 PUSH1 0x20 DUP6 DUP9 ADD ADD GT ISZERO PUSH2 0x359B JUMPI PUSH0 DUP1 REVERT JUMPDEST DUP4 PUSH1 0x20 DUP8 ADD PUSH1 0x20 DUP4 ADD CALLDATACOPY PUSH0 PUSH1 0x20 DUP6 DUP4 ADD ADD MSTORE DUP1 SWAP5 POP POP POP POP POP SWAP3 SWAP2 POP POP JUMP JUMPDEST PUSH0 PUSH1 0x20 DUP3 DUP5 SUB SLT ISZERO PUSH2 0x35CA JUMPI PUSH0 DUP1 REVERT JUMPDEST DUP2 CALLDATALOAD PUSH1 0x1 PUSH1 0x1 PUSH1 0x40 SHL SUB DUP2 GT ISZERO PUSH2 0x35DF JUMPI PUSH0 DUP1 REVERT JUMPDEST PUSH2 0x2044 DUP5 DUP3 DUP6 ADD PUSH2 0x3532 JUMP JUMPDEST PUSH0 DUP1 DUP4 PUSH1 0x1F DUP5 ADD SLT PUSH2 0x35FB JUMPI PUSH0 DUP1 REVERT JUMPDEST POP DUP2 CALLDATALOAD PUSH1 0x1 PUSH1 0x1 PUSH1 0x40 SHL SUB DUP2 GT ISZERO PUSH2 0x3611 JUMPI PUSH0 DUP1 REVERT JUMPDEST PUSH1 0x20 DUP4 ADD SWAP2 POP DUP4 PUSH1 0x20 DUP3 DUP6 ADD ADD GT ISZERO PUSH2 0x3628 JUMPI PUSH0 DUP1 REVERT JUMPDEST SWAP3 POP SWAP3 SWAP1 POP JUMP JUMPDEST PUSH0 DUP1 PUSH1 0x20 DUP4 DUP6 SUB SLT ISZERO PUSH2 0x3640 JUMPI PUSH0 DUP1 REVERT JUMPDEST DUP3 CALLDATALOAD PUSH1 0x1 PUSH1 0x1 PUSH1 0x40 SHL SUB DUP2 GT ISZERO PUSH2 0x3655 JUMPI PUSH0 DUP1 REVERT JUMPDEST PUSH2 0x3661 DUP6 DUP3 DUP7 ADD PUSH2 0x35EB JUMP JUMPDEST SWAP1 SWAP7 SWAP1 SWAP6 POP SWAP4 POP POP POP POP JUMP JUMPDEST PUSH0 DUP1 PUSH0 PUSH1 0x60 DUP5 DUP7 SUB SLT ISZERO PUSH2 0x367F JUMPI PUSH0 DUP1 REVERT JUMPDEST PUSH2 0x3688 DUP5 PUSH2 0x335F JUMP JUMPDEST SWAP3 POP PUSH2 0x3696 PUSH1 0x20 DUP6 ADD PUSH2 0x335F JUMP JUMPDEST SWAP2 POP PUSH1 0x40 DUP5 ADD CALLDATALOAD SWAP1 POP SWAP3 POP SWAP3 POP SWAP3 JUMP JUMPDEST PUSH0 DUP1 PUSH1 0x40 DUP4 DUP6 SUB SLT ISZERO PUSH2 0x36B7 JUMPI PUSH0 DUP1 REVERT JUMPDEST DUP3 CALLDATALOAD SWAP2 POP PUSH2 0x36C7 PUSH1 0x20 DUP5 ADD PUSH2 0x335F JUMP JUMPDEST SWAP1 POP SWAP3 POP SWAP3 SWAP1 POP JUMP JUMPDEST PUSH0 DUP1 PUSH0 DUP1 PUSH0 PUSH1 0xA0 DUP7 DUP9 SUB SLT ISZERO PUSH2 0x36E4 JUMPI PUSH0 DUP1 REVERT JUMPDEST PUSH2 0x36ED DUP7 PUSH2 0x335F JUMP JUMPDEST SWAP5 POP PUSH1 0x20 DUP7 ADD CALLDATALOAD PUSH1 0x1 PUSH1 0x1 PUSH1 0x40 SHL SUB DUP1 DUP3 GT ISZERO PUSH2 0x3708 JUMPI PUSH0 DUP1 REVERT JUMPDEST PUSH2 0x3714 DUP10 DUP4 DUP11 ADD PUSH2 0x3532 JUMP JUMPDEST SWAP6 POP PUSH1 0x40 DUP9 ADD CALLDATALOAD SWAP2 POP DUP1 DUP3 GT ISZERO PUSH2 0x3729 JUMPI PUSH0 DUP1 REVERT JUMPDEST PUSH2 0x3735 DUP10 DUP4 DUP11 ADD PUSH2 0x3532 JUMP JUMPDEST SWAP5 POP PUSH1 0x60 DUP9 ADD CALLDATALOAD SWAP2 POP DUP1 DUP3 GT ISZERO PUSH2 0x374A JUMPI PUSH0 DUP1 REVERT JUMPDEST POP PUSH2 0x3757 DUP9 DUP3 DUP10 ADD PUSH2 0x3532 JUMP JUMPDEST SWAP6 SWAP9 SWAP5 SWAP8 POP SWAP3 SWAP6 PUSH1 0x80 ADD CALLDATALOAD SWAP4 SWAP3 POP POP POP JUMP JUMPDEST PUSH0 DUP1 PUSH1 0x40 DUP4 DUP6 SUB SLT ISZERO PUSH2 0x377A JUMPI PUSH0 DUP1 REVERT JUMPDEST PUSH2 0x3783 DUP4 PUSH2 0x335F JUMP JUMPDEST SWAP2 POP PUSH1 0x20 DUP4 ADD CALLDATALOAD PUSH1 0x1 PUSH1 0x1 PUSH1 0x40 SHL SUB DUP2 GT ISZERO PUSH2 0x379D JUMPI PUSH0 DUP1 REVERT JUMPDEST PUSH2 0x37A9 DUP6 DUP3 DUP7 ADD PUSH2 0x3532 JUMP JUMPDEST SWAP2 POP POP SWAP3 POP SWAP3 SWAP1 POP JUMP JUMPDEST PUSH1 0x60 DUP2 MSTORE PUSH0 PUSH2 0x37C5 PUSH1 0x60 DUP4 ADD DUP7 PUSH2 0x33E5 JUMP JUMPDEST DUP3 DUP2 SUB PUSH1 0x20 DUP5 ADD MSTORE PUSH2 0x37D7 DUP2 DUP7 PUSH2 0x33E5 JUMP JUMPDEST SWAP1 POP DUP3 DUP2 SUB PUSH1 0x40 DUP5 ADD MSTORE PUSH2 0x37EB DUP2 DUP6 PUSH2 0x33E5 JUMP JUMPDEST SWAP7 SWAP6 POP POP POP POP POP POP JUMP JUMPDEST PUSH0 DUP1 PUSH0 DUP1 PUSH0 DUP1 PUSH0 DUP1 PUSH0 PUSH1 0xE0 DUP11 DUP13 SUB SLT ISZERO PUSH2 0x380D JUMPI PUSH0 DUP1 REVERT JUMPDEST PUSH2 0x3816 DUP11 PUSH2 0x335F JUMP JUMPDEST SWAP9 POP PUSH1 0x60 DUP11 ADD DUP12 DUP2 GT ISZERO PUSH2 0x3828 JUMPI PUSH0 DUP1 REVERT JUMPDEST PUSH1 0x20 DUP12 ADD SWAP9 POP CALLDATALOAD SWAP7 POP PUSH1 0x80 DUP11 ADD CALLDATALOAD PUSH1 0x1 PUSH1 0x1 PUSH1 0x40 SHL SUB DUP1 DUP3 GT ISZERO PUSH2 0x384A JUMPI PUSH0 DUP1 REVERT JUMPDEST PUSH2 0x3856 DUP14 DUP4 DUP15 ADD PUSH2 0x35EB JUMP JUMPDEST SWAP1 SWAP9 POP SWAP7 POP PUSH1 0xA0 DUP13 ADD CALLDATALOAD SWAP2 POP DUP1 DUP3 GT ISZERO PUSH2 0x386E JUMPI PUSH0 DUP1 REVERT JUMPDEST PUSH2 0x387A DUP14 DUP4 DUP15 ADD PUSH2 0x35EB JUMP JUMPDEST SWAP1 SWAP7 POP SWAP5 POP PUSH1 0xC0 DUP13 ADD CALLDATALOAD SWAP2 POP DUP1 DUP3 GT ISZERO PUSH2 0x3892 JUMPI PUSH0 DUP1 REVERT JUMPDEST POP PUSH2 0x389F DUP13 DUP3 DUP14 ADD PUSH2 0x35EB JUMP JUMPDEST SWAP2 POP DUP1 SWAP4 POP POP DUP1 SWAP2 POP POP SWAP3 SWAP6 SWAP9 POP SWAP3 SWAP6 SWAP9 POP SWAP3 SWAP6 SWAP9 JUMP JUMPDEST PUSH0 DUP3 PUSH1 0x1F DUP4 ADD SLT PUSH2 0x38C5 JUMPI PUSH0 DUP1 REVERT JUMPDEST PUSH2 0x38CD PUSH2 0x3510 JUMP JUMPDEST DUP1 PUSH1 0x40 DUP5 ADD DUP6 DUP2 GT ISZERO PUSH2 0x38DE JUMPI PUSH0 DUP1 REVERT JUMPDEST DUP5 JUMPDEST DUP2 DUP2 LT ISZERO PUSH2 0x38F8 JUMPI DUP1 CALLDATALOAD DUP5 MSTORE PUSH1 0x20 SWAP4 DUP5 ADD SWAP4 ADD PUSH2 0x38E0 JUMP JUMPDEST POP SWAP1 SWAP6 SWAP5 POP POP POP POP POP JUMP JUMPDEST PUSH0 DUP3 PUSH1 0x1F DUP4 ADD SLT PUSH2 0x3912 JUMPI PUSH0 DUP1 REVERT JUMPDEST PUSH2 0x391A PUSH2 0x34E8 JUMP JUMPDEST DUP1 PUSH1 0x60 DUP5 ADD DUP6 DUP2 GT ISZERO PUSH2 0x38DE JUMPI PUSH0 DUP1 REVERT JUMPDEST PUSH0 DUP1 DUP3 DUP5 SUB PUSH2 0x160 DUP2 SLT ISZERO PUSH2 0x393E JUMPI PUSH0 DUP1 REVERT JUMPDEST PUSH2 0x100 DUP1 DUP3 SLT ISZERO PUSH2 0x394D JUMPI PUSH0 DUP1 REVERT JUMPDEST PUSH2 0x3955 PUSH2 0x34E8 JUMP JUMPDEST SWAP2 POP PUSH2 0x3961 DUP7 DUP7 PUSH2 0x38B6 JUMP JUMPDEST DUP3 MSTORE PUSH1 0x40 DUP7 PUSH1 0x5F DUP8 ADD SLT PUSH2 0x3973 JUMPI PUSH0 DUP1 REVERT JUMPDEST PUSH2 0x397B PUSH2 0x3510 JUMP JUMPDEST DUP1 PUSH1 0xC0 DUP9 ADD DUP10 DUP2 GT ISZERO PUSH2 0x398C JUMPI PUSH0 DUP1 REVERT JUMPDEST PUSH1 0x40 DUP10 ADD JUMPDEST DUP2 DUP2 LT ISZERO PUSH2 0x39B2 JUMPI PUSH2 0x39A3 DUP12 DUP3 PUSH2 0x38B6 JUMP JUMPDEST DUP5 MSTORE PUSH1 0x20 SWAP1 SWAP4 ADD SWAP3 DUP5 ADD PUSH2 0x3991 JUMP JUMPDEST POP DUP2 PUSH1 0x20 DUP8 ADD MSTORE PUSH2 0x39C3 DUP11 DUP3 PUSH2 0x38B6 JUMP JUMPDEST PUSH1 0x40 DUP8 ADD MSTORE POP POP POP POP DUP2 SWAP4 POP PUSH2 0x39DB DUP7 DUP3 DUP8 ADD PUSH2 0x3903 JUMP JUMPDEST SWAP3 POP POP POP SWAP3 POP SWAP3 SWAP1 POP JUMP JUMPDEST DUP1 ISZERO ISZERO DUP2 EQ PUSH2 0xD60 JUMPI PUSH0 DUP1 REVERT JUMPDEST PUSH0 DUP1 PUSH1 0x40 DUP4 DUP6 SUB SLT ISZERO PUSH2 0x3A04 JUMPI PUSH0 DUP1 REVERT JUMPDEST PUSH2 0x3A0D DUP4 PUSH2 0x335F JUMP JUMPDEST SWAP2 POP PUSH1 0x20 DUP4 ADD CALLDATALOAD PUSH2 0x3A1D DUP2 PUSH2 0x39E6 JUMP JUMPDEST DUP1 SWAP2 POP POP SWAP3 POP SWAP3 SWAP1 POP JUMP JUMPDEST PUSH0 DUP1 PUSH0 DUP1 PUSH1 0x80 DUP6 DUP8 SUB SLT ISZERO PUSH2 0x3A3B JUMPI PUSH0 DUP1 REVERT JUMPDEST PUSH2 0x3A44 DUP6 PUSH2 0x335F JUMP JUMPDEST SWAP4 POP PUSH2 0x3A52 PUSH1 0x20 DUP7 ADD PUSH2 0x335F JUMP JUMPDEST SWAP3 POP PUSH1 0x40 DUP6 ADD CALLDATALOAD SWAP2 POP PUSH1 0x60 DUP6 ADD CALLDATALOAD PUSH1 0x1 PUSH1 0x1 PUSH1 0x40 SHL SUB DUP2 GT ISZERO PUSH2 0x3A73 JUMPI PUSH0 DUP1 REVERT JUMPDEST PUSH2 0x3A7F DUP8 DUP3 DUP9 ADD PUSH2 0x3532 JUMP JUMPDEST SWAP2 POP POP SWAP3 SWAP6 SWAP2 SWAP5 POP SWAP3 POP JUMP JUMPDEST PUSH0 DUP1 PUSH0 PUSH1 0x40 DUP5 DUP7 SUB SLT ISZERO PUSH2 0x3A9D JUMPI PUSH0 DUP1 REVERT JUMPDEST DUP4 CALLDATALOAD SWAP3 POP PUSH1 0x20 DUP5 ADD CALLDATALOAD PUSH1 0x1 PUSH1 0x1 PUSH1 0x40 SHL SUB DUP2 GT ISZERO PUSH2 0x3AB9 JUMPI PUSH0 DUP1 REVERT JUMPDEST PUSH2 0x3AC5 DUP7 DUP3 DUP8 ADD PUSH2 0x35EB JUMP JUMPDEST SWAP5 SWAP8 SWAP1 SWAP7 POP SWAP4 SWAP5 POP POP POP POP JUMP JUMPDEST PUSH0 DUP1 PUSH1 0x40 DUP4 DUP6 SUB SLT ISZERO PUSH2 0x3AE3 JUMPI PUSH0 DUP1 REVERT JUMPDEST PUSH2 0x3AEC DUP4 PUSH2 0x335F JUMP JUMPDEST SWAP2 POP PUSH2 0x36C7 PUSH1 0x20 DUP5 ADD PUSH2 0x335F JUMP JUMPDEST PUSH1 0x1 DUP2 DUP2 SHR SWAP1 DUP3 AND DUP1 PUSH2 0x3B0E JUMPI PUSH1 0x7F DUP3 AND SWAP2 POP JUMPDEST PUSH1 0x20 DUP3 LT DUP2 SUB PUSH2 0x3B2C JUMPI PUSH4 0x4E487B71 PUSH1 0xE0 SHL PUSH0 MSTORE PUSH1 0x22 PUSH1 0x4 MSTORE PUSH1 0x24 PUSH0 REVERT JUMPDEST POP SWAP2 SWAP1 POP JUMP JUMPDEST PUSH4 0x4E487B71 PUSH1 0xE0 SHL PUSH0 MSTORE PUSH1 0x32 PUSH1 0x4 MSTORE PUSH1 0x24 PUSH0 REVERT JUMPDEST PUSH4 0x4E487B71 PUSH1 0xE0 SHL PUSH0 MSTORE PUSH1 0x11 PUSH1 0x4 MSTORE PUSH1 0x24 PUSH0 REVERT JUMPDEST DUP1 DUP3 ADD DUP1 DUP3 GT ISZERO PUSH2 0x989 JUMPI PUSH2 0x989 PUSH2 0x3B46 JUMP JUMPDEST PUSH1 0x1F DUP3 GT ISZERO PUSH2 0xB58 JUMPI DUP1 PUSH0 MSTORE PUSH1 0x20 PUSH0 KECCAK256 PUSH1 0x1F DUP5 ADD PUSH1 0x5 SHR DUP2 ADD PUSH1 0x20 DUP6 LT ISZERO PUSH2 0x3B92 JUMPI POP DUP1 JUMPDEST PUSH1 0x1F DUP5 ADD PUSH1 0x5 SHR DUP3 ADD SWAP2 POP JUMPDEST DUP2 DUP2 LT ISZERO PUSH2 0xBD7 JUMPI PUSH0 DUP2 SSTORE PUSH1 0x1 ADD PUSH2 0x3B9E JUMP JUMPDEST PUSH0 NOT PUSH1 0x3 DUP4 SWAP1 SHL SHR NOT AND PUSH1 0x1 SWAP2 SWAP1 SWAP2 SHL OR SWAP1 JUMP JUMPDEST PUSH1 0x1 PUSH1 0x1 PUSH1 0x40 SHL SUB DUP4 GT ISZERO PUSH2 0x3BDC JUMPI PUSH2 0x3BDC PUSH2 0x34D4 JUMP JUMPDEST PUSH2 0x3BF0 DUP4 PUSH2 0x3BEA DUP4 SLOAD PUSH2 0x3AFA JUMP JUMPDEST DUP4 PUSH2 0x3B6D JUMP JUMPDEST PUSH0 PUSH1 0x1F DUP5 GT PUSH1 0x1 DUP2 EQ PUSH2 0x3C1C JUMPI PUSH0 DUP6 ISZERO PUSH2 0x3C0A JUMPI POP DUP4 DUP3 ADD CALLDATALOAD JUMPDEST PUSH2 0x3C14 DUP7 DUP3 PUSH2 0x3BB1 JUMP JUMPDEST DUP5 SSTORE POP PUSH2 0xBD7 JUMP JUMPDEST PUSH0 DUP4 DUP2 MSTORE PUSH1 0x20 DUP2 KECCAK256 PUSH1 0x1F NOT DUP8 AND SWAP2 JUMPDEST DUP3 DUP2 LT ISZERO PUSH2 0x3C4B JUMPI DUP7 DUP6 ADD CALLDATALOAD DUP3 SSTORE PUSH1 0x20 SWAP5 DUP6 ADD SWAP5 PUSH1 0x1 SWAP1 SWAP3 ADD SWAP2 ADD PUSH2 0x3C2B JUMP JUMPDEST POP DUP7 DUP3 LT ISZERO PUSH2 0x3C67 JUMPI PUSH0 NOT PUSH1 0xF8 DUP9 PUSH1 0x3 SHL AND SHR NOT DUP5 DUP8 ADD CALLDATALOAD AND DUP2 SSTORE JUMPDEST POP POP PUSH1 0x1 DUP6 PUSH1 0x1 SHL ADD DUP4 SSTORE POP POP POP POP POP JUMP JUMPDEST PUSH1 0x20 DUP1 DUP3 MSTORE PUSH1 0x2E SWAP1 DUP3 ADD MSTORE PUSH32 0x4552433732313A2063616C6C6572206973206E6F7420746F6B656E206F776E65 PUSH1 0x40 DUP3 ADD MSTORE PUSH14 0x1C881B9BDC88185C1C1C9BDD9959 PUSH1 0x92 SHL PUSH1 0x60 DUP3 ADD MSTORE PUSH1 0x80 ADD SWAP1 JUMP JUMPDEST PUSH0 DUP2 PUSH2 0x3CD5 JUMPI PUSH2 0x3CD5 PUSH2 0x3B46 JUMP JUMPDEST POP PUSH0 NOT ADD SWAP1 JUMP JUMPDEST PUSH1 0x20 DUP1 DUP3 MSTORE PUSH1 0x2C SWAP1 DUP3 ADD MSTORE PUSH32 0x46756E6374696F6E206D7573742062652063616C6C6564207468726F75676820 PUSH1 0x40 DUP3 ADD MSTORE PUSH12 0x19195B1959D85D1958D85B1B PUSH1 0xA2 SHL PUSH1 0x60 DUP3 ADD MSTORE PUSH1 0x80 ADD SWAP1 JUMP JUMPDEST PUSH1 0x20 DUP1 DUP3 MSTORE PUSH1 0x2C SWAP1 DUP3 ADD MSTORE PUSH32 0x46756E6374696F6E206D7573742062652063616C6C6564207468726F75676820 PUSH1 0x40 DUP3 ADD MSTORE PUSH12 0x6163746976652070726F7879 PUSH1 0xA0 SHL PUSH1 0x60 DUP3 ADD MSTORE PUSH1 0x80 ADD SWAP1 JUMP JUMPDEST PUSH0 PUSH1 0x1 DUP3 ADD PUSH2 0x3D85 JUMPI PUSH2 0x3D85 PUSH2 0x3B46 JUMP JUMPDEST POP PUSH1 0x1 ADD SWAP1 JUMP JUMPDEST PUSH0 DUP3 MLOAD PUSH2 0x3D9D DUP2 DUP5 PUSH1 0x20 DUP8 ADD PUSH2 0x33C3 JUMP JUMPDEST SWAP2 SWAP1 SWAP2 ADD SWAP3 SWAP2 POP POP JUMP JUMPDEST DUP1 PUSH0 JUMPDEST PUSH1 0x2 DUP2 LT ISZERO PUSH2 0xBF6 JUMPI DUP2 MLOAD DUP5 MSTORE PUSH1 0x20 SWAP4 DUP5 ADD SWAP4 SWAP1 SWAP2 ADD SWAP1 PUSH1 0x1 ADD PUSH2 0x3DAA JUMP JUMPDEST PUSH2 0x160 DUP2 ADD PUSH2 0x3DD8 DUP3 DUP8 PUSH2 0x3DA7 JUMP JUMPDEST PUSH1 0x40 DUP1 DUP4 ADD DUP7 PUSH0 JUMPDEST PUSH1 0x2 DUP2 LT ISZERO PUSH2 0x3E07 JUMPI PUSH2 0x3DF4 DUP4 DUP4 MLOAD PUSH2 0x3DA7 JUMP JUMPDEST SWAP2 DUP4 ADD SWAP2 PUSH1 0x20 SWAP2 SWAP1 SWAP2 ADD SWAP1 PUSH1 0x1 ADD PUSH2 0x3DE0 JUMP JUMPDEST POP POP POP POP PUSH2 0x3E18 PUSH1 0xC0 DUP4 ADD DUP6 PUSH2 0x3DA7 JUMP JUMPDEST PUSH2 0x100 DUP3 ADD DUP4 PUSH0 JUMPDEST PUSH1 0x3 DUP2 LT ISZERO PUSH2 0x3E3F JUMPI DUP2 MLOAD DUP4 MSTORE PUSH1 0x20 SWAP3 DUP4 ADD SWAP3 SWAP1 SWAP2 ADD SWAP1 PUSH1 0x1 ADD PUSH2 0x3E20 JUMP JUMPDEST POP POP POP SWAP6 SWAP5 POP POP POP POP POP JUMP JUMPDEST PUSH0 PUSH1 0x20 DUP3 DUP5 SUB SLT ISZERO PUSH2 0x3E5B JUMPI PUSH0 DUP1 REVERT JUMPDEST DUP2 MLOAD PUSH2 0x1E09 DUP2 PUSH2 0x39E6 JUMP JUMPDEST PUSH0 DUP4 MLOAD PUSH2 0x3E77 DUP2 DUP5 PUSH1 0x20 DUP9 ADD PUSH2 0x33C3 JUMP JUMPDEST DUP4 MLOAD SWAP1 DUP4 ADD SWAP1 PUSH2 0x3E8B DUP2 DUP4 PUSH1 0x20 DUP9 ADD PUSH2 0x33C3 JUMP JUMPDEST ADD SWAP5 SWAP4 POP POP POP POP JUMP JUMPDEST DUP2 DUP4 DUP3 CALLDATACOPY PUSH0 SWAP2 ADD SWAP1 DUP2 MSTORE SWAP2 SWAP1 POP JUMP JUMPDEST DUP2 DUP2 SUB DUP2 DUP2 GT ISZERO PUSH2 0x989 JUMPI PUSH2 0x989 PUSH2 0x3B46 JUMP JUMPDEST DUP2 MLOAD PUSH1 0x1 PUSH1 0x1 PUSH1 0x40 SHL SUB DUP2 GT ISZERO PUSH2 0x3ECF JUMPI PUSH2 0x3ECF PUSH2 0x34D4 JUMP JUMPDEST PUSH2 0x3EE3 DUP2 PUSH2 0x3EDD DUP5 SLOAD PUSH2 0x3AFA JUMP JUMPDEST DUP5 PUSH2 0x3B6D JUMP JUMPDEST PUSH1 0x20 DUP1 PUSH1 0x1F DUP4 GT PUSH1 0x1 DUP2 EQ PUSH2 0x3F11 JUMPI PUSH0 DUP5 ISZERO PUSH2 0x3EFF JUMPI POP DUP6 DUP4 ADD MLOAD JUMPDEST PUSH2 0x3F09 DUP6 DUP3 PUSH2 0x3BB1 JUMP JUMPDEST DUP7 SSTORE POP PUSH2 0xD7A JUMP JUMPDEST PUSH0 DUP6 DUP2 MSTORE PUSH1 0x20 DUP2 KECCAK256 PUSH1 0x1F NOT DUP7 AND SWAP2 JUMPDEST DUP3 DUP2 LT ISZERO PUSH2 0x3F3F JUMPI DUP9 DUP7 ADD MLOAD DUP3 SSTORE SWAP5 DUP5 ADD SWAP5 PUSH1 0x1 SWAP1 SWAP2 ADD SWAP1 DUP5 ADD PUSH2 0x3F20 JUMP JUMPDEST POP DUP6 DUP3 LT ISZERO PUSH2 0x3F5C JUMPI DUP8 DUP6 ADD MLOAD PUSH0 NOT PUSH1 0x3 DUP9 SWAP1 SHL PUSH1 0xF8 AND SHR NOT AND DUP2 SSTORE JUMPDEST POP POP POP POP POP PUSH1 0x1 SWAP1 DUP2 SHL ADD SWAP1 SSTORE POP JUMP JUMPDEST DUP2 DUP2 SUB PUSH2 0x3F77 JUMPI POP POP JUMP JUMPDEST PUSH2 0x3F81 DUP3 SLOAD PUSH2 0x3AFA JUMP JUMPDEST PUSH1 0x1 PUSH1 0x1 PUSH1 0x40 SHL SUB DUP2 GT ISZERO PUSH2 0x3F98 JUMPI PUSH2 0x3F98 PUSH2 0x34D4 JUMP JUMPDEST PUSH2 0x3FA6 DUP2 PUSH2 0x3EDD DUP5 SLOAD PUSH2 0x3AFA JUMP JUMPDEST PUSH0 PUSH1 0x1F DUP3 GT PUSH1 0x1 DUP2 EQ PUSH2 0x3FD2 JUMPI PUSH0 DUP4 ISZERO PUSH2 0x3FC0 JUMPI POP DUP5 DUP3 ADD SLOAD JUMPDEST PUSH2 0x3FCA DUP5 DUP3 PUSH2 0x3BB1 JUMP JUMPDEST DUP6 SSTORE POP PUSH2 0xBD7 JUMP JUMPDEST PUSH0 DUP6 DUP2 MSTORE PUSH1 0x20 DUP1 DUP3 KECCAK256 DUP7 DUP4 MSTORE SWAP1 DUP3 KECCAK256 PUSH1 0x1F NOT DUP7 AND SWAP3 JUMPDEST DUP4 DUP2 LT ISZERO PUSH2 0x4008 JUMPI DUP3 DUP7 ADD SLOAD DUP3 SSTORE PUSH1 0x1 SWAP6 DUP7 ADD SWAP6 SWAP1 SWAP2 ADD SWAP1 PUSH1 0x20 ADD PUSH2 0x3FE8 JUMP JUMPDEST POP DUP6 DUP4 LT ISZERO PUSH2 0x3F5C JUMPI SWAP4 ADD SLOAD PUSH0 NOT PUSH1 0xF8 PUSH1 0x3 DUP8 SWAP1 SHL AND SHR NOT AND SWAP1 SWAP3 SSTORE POP POP PUSH1 0x1 SWAP1 DUP2 SHL ADD SWAP1 SSTORE POP JUMP JUMPDEST PUSH0 PUSH1 0x20 DUP3 DUP5 SUB SLT ISZERO PUSH2 0x4041 JUMPI PUSH0 DUP1 REVERT JUMPDEST POP MLOAD SWAP2 SWAP1 POP JUMP JUMPDEST PUSH1 0x20 DUP1 DUP3 MSTORE PUSH1 0x2B SWAP1 DUP3 ADD MSTORE PUSH32 0x496E697469616C697A61626C653A20636F6E7472616374206973206E6F742069 PUSH1 0x40 DUP3 ADD MSTORE PUSH11 0x6E697469616C697A696E67 PUSH1 0xA8 SHL PUSH1 0x60 DUP3 ADD MSTORE PUSH1 0x80 ADD SWAP1 JUMP JUMPDEST PUSH1 0x20 DUP1 DUP3 MSTORE PUSH1 0x32 SWAP1 DUP3 ADD MSTORE PUSH32 0x4552433732313A207472616E7366657220746F206E6F6E204552433732315265 PUSH1 0x40 DUP3 ADD MSTORE PUSH18 0x31B2B4BB32B91034B6B83632B6B2B73A32B9 PUSH1 0x71 SHL PUSH1 0x60 DUP3 ADD MSTORE PUSH1 0x80 ADD SWAP1 JUMP JUMPDEST PUSH4 0x4E487B71 PUSH1 0xE0 SHL PUSH0 MSTORE PUSH1 0x12 PUSH1 0x4 MSTORE PUSH1 0x24 PUSH0 REVERT JUMPDEST PUSH0 DUP3 PUSH2 0x4107 JUMPI PUSH2 0x4107 PUSH2 0x40E5 JUMP JUMPDEST POP DIV SWAP1 JUMP JUMPDEST PUSH0 DUP3 PUSH2 0x411A JUMPI PUSH2 0x411A PUSH2 0x40E5 JUMP JUMPDEST POP MOD SWAP1 JUMP JUMPDEST PUSH32 0x416363657373436F6E74726F6C3A206163636F756E7420000000000000000000 DUP2 MSTORE PUSH0 DUP4 MLOAD PUSH2 0x4156 DUP2 PUSH1 0x17 DUP6 ADD PUSH1 0x20 DUP9 ADD PUSH2 0x33C3 JUMP JUMPDEST PUSH17 0x1034B99036B4B9B9B4B733903937B6329 PUSH1 0x7D SHL PUSH1 0x17 SWAP2 DUP5 ADD SWAP2 DUP3 ADD MSTORE DUP4 MLOAD PUSH2 0x4187 DUP2 PUSH1 0x28 DUP5 ADD PUSH1 0x20 DUP9 ADD PUSH2 0x33C3 JUMP JUMPDEST ADD PUSH1 0x28 ADD SWAP5 SWAP4 POP POP POP POP JUMP JUMPDEST PUSH1 0x1 PUSH1 0x1 PUSH1 0xA0 SHL SUB DUP6 DUP2 AND DUP3 MSTORE DUP5 AND PUSH1 0x20 DUP3 ADD MSTORE PUSH1 0x40 DUP2 ADD DUP4 SWAP1 MSTORE PUSH1 0x80 PUSH1 0x60 DUP3 ADD DUP2 SWAP1 MSTORE PUSH0 SWAP1 PUSH2 0x37EB SWAP1 DUP4 ADD DUP5 PUSH2 0x33E5 JUMP JUMPDEST PUSH0 PUSH1 0x20 DUP3 DUP5 SUB SLT ISZERO PUSH2 0x41D5 JUMPI PUSH0 DUP1 REVERT JUMPDEST DUP2 MLOAD PUSH2 0x1E09 DUP2 PUSH2 0x3393 JUMP JUMPDEST DUP1 DUP3 MUL DUP2 ISZERO DUP3 DUP3 DIV DUP5 EQ OR PUSH2 0x989 JUMPI PUSH2 0x989 PUSH2 0x3B46 JUMP JUMPDEST PUSH4 0x4E487B71 PUSH1 0xE0 SHL PUSH0 MSTORE PUSH1 0x31 PUSH1 0x4 MSTORE PUSH1 0x24 PUSH0 REVERT INVALID CALLDATASIZE ADDMOD SWAP5 LOG1 EXTCODESIZE LOG1 LOG3 0x21 MOD PUSH8 0xC828492DB98DCA3E KECCAK256 PUSH23 0xCC3735A920A3CA505D382BBC416464726573733A206C6F PUSH24 0x2D6C6576656C2064656C65676174652063616C6C20666169 PUSH13 0x6564A2646970667358221220E6 DUP11 CALLDATACOPY SWAP5 SELFDESTRUCT PUSH13 0xC0D356E22534DECCDC5C1E860D PUSH0 0xCD 0xC5 LT 0xA9 SWAP13 0xB2 DUP5 MUL SWAP2 0xBF 0xD4 0xD0 PUSH5 0x736F6C6343 STOP ADDMOD AND STOP CALLER "
		},
		"gasEstimates": {
			"creation": {
				"codeDepositCost": "3406400",
				"executionCost": "infinite",
				"totalCost": "infinite"
			},
			"external": {
				"DEFAULT_ADMIN_ROLE()": "227",
				"addType(string)": "infinite",
				"allowedMinting(address)": "2552",
				"approve(address,uint256)": "infinite",
				"assignHash(uint256,bytes)": "infinite",
				"balanceOf(address)": "2730",
				"baseURI()": "infinite",
				"burn(uint256)": "infinite",
				"contributorHash()": "infinite",
				"getApproved(uint256)": "4832",
				"getRoleAdmin(bytes32)": "2520",
				"grantRemixersMinting(address[],uint256)": "infinite",
				"grantRole(bytes32,address)": "infinite",
				"hasRole(bytes32,address)": "2751",
				"initialize()": "infinite",
				"isApprovedForAll(address,address)": "infinite",
				"name()": "infinite",
				"nullifiers(bytes)": "infinite",
				"ownerOf(uint256)": "2647",
				"proxiableUUID()": "infinite",
				"publicMint(address)": "infinite",
				"publishChallenge((uint256[2],uint256[2][2],uint256[2]),uint256[3])": "infinite",
				"publishers(bytes)": "infinite",
				"publishersAmount()": "2417",
				"removeType(string)": "infinite",
				"renounceRole(bytes32,address)": "29087",
				"revokeRole(bytes32,address)": "infinite",
				"safeMint(address,string,string,bytes,uint256)": "infinite",
				"safeTransferFrom(address,address,uint256)": "infinite",
				"safeTransferFrom(address,address,uint256,bytes)": "infinite",
				"setApprovalForAll(address,bool)": "26776",
				"setBaseURI(string)": "infinite",
				"setChallenge(address,uint256[2],uint256,string,string,bytes)": "infinite",
				"setContributorHash(bytes)": "infinite",
				"supportsInterface(bytes4)": "infinite",
				"symbol()": "infinite",
				"tokenByIndex(uint256)": "6766",
				"tokenOfOwnerByIndex(address,uint256)": "5047",
				"tokenURI(uint256)": "infinite",
				"tokensData(uint256)": "infinite",
				"totalSupply()": "2349",
				"transferFrom(address,address,uint256)": "infinite",
				"upgradeTo(address)": "infinite",
				"upgradeToAndCall(address,bytes)": "infinite",
				"version()": "infinite",
				"zkChallenge(uint256)": "2494",
				"zkChallengeHash()": "infinite",
				"zkChallengeNonce()": "2351",
				"zkChallengePayload()": "infinite",
				"zkChallengeTokenType()": "infinite",
				"zkMax()": "2351",
				"zkVerifier()": "2447"
			},
			"internal": {
				"_authorizeUpgrade(address)": "infinite",
				"_baseURI()": "infinite",
				"_beforeTokenTransfer(address,address,uint256)": "infinite",
				"mintBadge(address,string memory,string memory,bytes memory,uint256)": "infinite",
				"mintRemixer(address)": "infinite"
			}
		},
		"methodIdentifiers": {
			"DEFAULT_ADMIN_ROLE()": "a217fddf",
			"addType(string)": "e7f08e69",
			"allowedMinting(address)": "005c154e",
			"approve(address,uint256)": "095ea7b3",
			"assignHash(uint256,bytes)": "c0cecb9a",
			"balanceOf(address)": "70a08231",
			"baseURI()": "6c0360eb",
			"burn(uint256)": "42966c68",
			"contributorHash()": "6344cd20",
			"getApproved(uint256)": "081812fc",
			"getRoleAdmin(bytes32)": "248a9ca3",
			"grantRemixersMinting(address[],uint256)": "1693d2eb",
			"grantRole(bytes32,address)": "2f2ff15d",
			"hasRole(bytes32,address)": "91d14854",
			"initialize()": "8129fc1c",
			"isApprovedForAll(address,address)": "e985e9c5",
			"name()": "06fdde03",
			"nullifiers(bytes)": "1823e26a",
			"ownerOf(uint256)": "6352211e",
			"proxiableUUID()": "52d1902d",
			"publicMint(address)": "32a93a3a",
			"publishChallenge((uint256[2],uint256[2][2],uint256[2]),uint256[3])": "865d79b3",
			"publishers(bytes)": "b63cb3b9",
			"publishersAmount()": "42778642",
			"removeType(string)": "e15e2fd4",
			"renounceRole(bytes32,address)": "36568abe",
			"revokeRole(bytes32,address)": "d547741f",
			"safeMint(address,string,string,bytes,uint256)": "35b1a7ea",
			"safeTransferFrom(address,address,uint256)": "42842e0e",
			"safeTransferFrom(address,address,uint256,bytes)": "b88d4fde",
			"setApprovalForAll(address,bool)": "a22cb465",
			"setBaseURI(string)": "55f804b3",
			"setChallenge(address,uint256[2],uint256,string,string,bytes)": "7ffe8f25",
			"setContributorHash(bytes)": "1aa2c2f8",
			"supportsInterface(bytes4)": "01ffc9a7",
			"symbol()": "95d89b41",
			"tokenByIndex(uint256)": "4f6ccce7",
			"tokenOfOwnerByIndex(address,uint256)": "2f745c59",
			"tokenURI(uint256)": "c87b56dd",
			"tokensData(uint256)": "599ed3ff",
			"totalSupply()": "18160ddd",
			"transferFrom(address,address,uint256)": "23b872dd",
			"upgradeTo(address)": "3659cfe6",
			"upgradeToAndCall(address,bytes)": "4f1ef286",
			"version()": "54fd4d50",
			"zkChallenge(uint256)": "d674cc2b",
			"zkChallengeHash()": "43d3cf61",
			"zkChallengeNonce()": "7909eb73",
			"zkChallengePayload()": "f1fe6911",
			"zkChallengeTokenType()": "9cbff422",
			"zkMax()": "5a8afbfc",
			"zkVerifier()": "d6df096d"
		}
	},
	"abi": [
		{
			"inputs": [],
			"stateMutability": "nonpayable",
			"type": "constructor"
		},
		{
			"anonymous": false,
			"inputs": [
				{
					"indexed": false,
					"internalType": "address",
					"name": "previousAdmin",
					"type": "address"
				},
				{
					"indexed": false,
					"internalType": "address",
					"name": "newAdmin",
					"type": "address"
				}
			],
			"name": "AdminChanged",
			"type": "event"
		},
		{
			"anonymous": false,
			"inputs": [
				{
					"indexed": true,
					"internalType": "address",
					"name": "owner",
					"type": "address"
				},
				{
					"indexed": true,
					"internalType": "address",
					"name": "approved",
					"type": "address"
				},
				{
					"indexed": true,
					"internalType": "uint256",
					"name": "tokenId",
					"type": "uint256"
				}
			],
			"name": "Approval",
			"type": "event"
		},
		{
			"anonymous": false,
			"inputs": [
				{
					"indexed": true,
					"internalType": "address",
					"name": "owner",
					"type": "address"
				},
				{
					"indexed": true,
					"internalType": "address",
					"name": "operator",
					"type": "address"
				},
				{
					"indexed": false,
					"internalType": "bool",
					"name": "approved",
					"type": "bool"
				}
			],
			"name": "ApprovalForAll",
			"type": "event"
		},
		{
			"anonymous": false,
			"inputs": [
				{
					"indexed": true,
					"internalType": "address",
					"name": "beacon",
					"type": "address"
				}
			],
			"name": "BeaconUpgraded",
			"type": "event"
		},
		{
			"anonymous": false,
			"inputs": [
				{
					"indexed": false,
					"internalType": "uint8",
					"name": "version",
					"type": "uint8"
				}
			],
			"name": "Initialized",
			"type": "event"
		},
		{
			"anonymous": false,
			"inputs": [
				{
					"indexed": true,
					"internalType": "bytes32",
					"name": "role",
					"type": "bytes32"
				},
				{
					"indexed": true,
					"internalType": "bytes32",
					"name": "previousAdminRole",
					"type": "bytes32"
				},
				{
					"indexed": true,
					"internalType": "bytes32",
					"name": "newAdminRole",
					"type": "bytes32"
				}
			],
			"name": "RoleAdminChanged",
			"type": "event"
		},
		{
			"anonymous": false,
			"inputs": [
				{
					"indexed": true,
					"internalType": "bytes32",
					"name": "role",
					"type": "bytes32"
				},
				{
					"indexed": true,
					"internalType": "address",
					"name": "account",
					"type": "address"
				},
				{
					"indexed": true,
					"internalType": "address",
					"name": "sender",
					"type": "address"
				}
			],
			"name": "RoleGranted",
			"type": "event"
		},
		{
			"anonymous": false,
			"inputs": [
				{
					"indexed": true,
					"internalType": "bytes32",
					"name": "role",
					"type": "bytes32"
				},
				{
					"indexed": true,
					"internalType": "address",
					"name": "account",
					"type": "address"
				},
				{
					"indexed": true,
					"internalType": "address",
					"name": "sender",
					"type": "address"
				}
			],
			"name": "RoleRevoked",
			"type": "event"
		},
		{
			"anonymous": false,
			"inputs": [
				{
					"indexed": true,
					"internalType": "address",
					"name": "from",
					"type": "address"
				},
				{
					"indexed": true,
					"internalType": "address",
					"name": "to",
					"type": "address"
				},
				{
					"indexed": true,
					"internalType": "uint256",
					"name": "tokenId",
					"type": "uint256"
				}
			],
			"name": "Transfer",
			"type": "event"
		},
		{
			"anonymous": false,
			"inputs": [
				{
					"indexed": true,
					"internalType": "address",
					"name": "implementation",
					"type": "address"
				}
			],
			"name": "Upgraded",
			"type": "event"
		},
		{
			"inputs": [],
			"name": "DEFAULT_ADMIN_ROLE",
			"outputs": [
				{
					"internalType": "bytes32",
					"name": "",
					"type": "bytes32"
				}
			],
			"stateMutability": "view",
			"type": "function"
		},
		{
			"inputs": [
				{
					"internalType": "string",
					"name": "tokenType",
					"type": "string"
				}
			],
			"name": "addType",
			"outputs": [],
			"stateMutability": "nonpayable",
			"type": "function"
		},
		{
			"inputs": [
				{
					"internalType": "address",
					"name": "",
					"type": "address"
				}
			],
			"name": "allowedMinting",
			"outputs": [
				{
					"internalType": "uint256",
					"name": "",
					"type": "uint256"
				}
			],
			"stateMutability": "view",
			"type": "function"
		},
		{
			"inputs": [
				{
					"internalType": "address",
					"name": "to",
					"type": "address"
				},
				{
					"internalType": "uint256",
					"name": "tokenId",
					"type": "uint256"
				}
			],
			"name": "approve",
			"outputs": [],
			"stateMutability": "nonpayable",
			"type": "function"
		},
		{
			"inputs": [
				{
					"internalType": "uint256",
					"name": "tokenId",
					"type": "uint256"
				},
				{
					"internalType": "bytes",
					"name": "hash",
					"type": "bytes"
				}
			],
			"name": "assignHash",
			"outputs": [],
			"stateMutability": "nonpayable",
			"type": "function"
		},
		{
			"inputs": [
				{
					"internalType": "address",
					"name": "owner",
					"type": "address"
				}
			],
			"name": "balanceOf",
			"outputs": [
				{
					"internalType": "uint256",
					"name": "",
					"type": "uint256"
				}
			],
			"stateMutability": "view",
			"type": "function"
		},
		{
			"inputs": [],
			"name": "baseURI",
			"outputs": [
				{
					"internalType": "string",
					"name": "",
					"type": "string"
				}
			],
			"stateMutability": "view",
			"type": "function"
		},
		{
			"inputs": [
				{
					"internalType": "uint256",
					"name": "tokenId",
					"type": "uint256"
				}
			],
			"name": "burn",
			"outputs": [],
			"stateMutability": "nonpayable",
			"type": "function"
		},
		{
			"inputs": [],
			"name": "contributorHash",
			"outputs": [
				{
					"internalType": "bytes",
					"name": "",
					"type": "bytes"
				}
			],
			"stateMutability": "view",
			"type": "function"
		},
		{
			"inputs": [
				{
					"internalType": "uint256",
					"name": "tokenId",
					"type": "uint256"
				}
			],
			"name": "getApproved",
			"outputs": [
				{
					"internalType": "address",
					"name": "",
					"type": "address"
				}
			],
			"stateMutability": "view",
			"type": "function"
		},
		{
			"inputs": [
				{
					"internalType": "bytes32",
					"name": "role",
					"type": "bytes32"
				}
			],
			"name": "getRoleAdmin",
			"outputs": [
				{
					"internalType": "bytes32",
					"name": "",
					"type": "bytes32"
				}
			],
			"stateMutability": "view",
			"type": "function"
		},
		{
			"inputs": [
				{
					"internalType": "address[]",
					"name": "remixers",
					"type": "address[]"
				},
				{
					"internalType": "uint256",
					"name": "amount",
					"type": "uint256"
				}
			],
			"name": "grantRemixersMinting",
			"outputs": [],
			"stateMutability": "nonpayable",
			"type": "function"
		},
		{
			"inputs": [
				{
					"internalType": "bytes32",
					"name": "role",
					"type": "bytes32"
				},
				{
					"internalType": "address",
					"name": "account",
					"type": "address"
				}
			],
			"name": "grantRole",
			"outputs": [],
			"stateMutability": "nonpayable",
			"type": "function"
		},
		{
			"inputs": [
				{
					"internalType": "bytes32",
					"name": "role",
					"type": "bytes32"
				},
				{
					"internalType": "address",
					"name": "account",
					"type": "address"
				}
			],
			"name": "hasRole",
			"outputs": [
				{
					"internalType": "bool",
					"name": "",
					"type": "bool"
				}
			],
			"stateMutability": "view",
			"type": "function"
		},
		{
			"inputs": [],
			"name": "initialize",
			"outputs": [],
			"stateMutability": "nonpayable",
			"type": "function"
		},
		{
			"inputs": [
				{
					"internalType": "address",
					"name": "owner",
					"type": "address"
				},
				{
					"internalType": "address",
					"name": "operator",
					"type": "address"
				}
			],
			"name": "isApprovedForAll",
			"outputs": [
				{
					"internalType": "bool",
					"name": "",
					"type": "bool"
				}
			],
			"stateMutability": "view",
			"type": "function"
		},
		{
			"inputs": [],
			"name": "name",
			"outputs": [
				{
					"internalType": "string",
					"name": "",
					"type": "string"
				}
			],
			"stateMutability": "view",
			"type": "function"
		},
		{
			"inputs": [
				{
					"internalType": "bytes",
					"name": "",
					"type": "bytes"
				}
			],
			"name": "nullifiers",
			"outputs": [
				{
					"internalType": "uint256",
					"name": "",
					"type": "uint256"
				}
			],
			"stateMutability": "view",
			"type": "function"
		},
		{
			"inputs": [
				{
					"internalType": "uint256",
					"name": "tokenId",
					"type": "uint256"
				}
			],
			"name": "ownerOf",
			"outputs": [
				{
					"internalType": "address",
					"name": "",
					"type": "address"
				}
			],
			"stateMutability": "view",
			"type": "function"
		},
		{
			"inputs": [],
			"name": "proxiableUUID",
			"outputs": [
				{
					"internalType": "bytes32",
					"name": "",
					"type": "bytes32"
				}
			],
			"stateMutability": "view",
			"type": "function"
		},
		{
			"inputs": [
				{
					"internalType": "address",
					"name": "to",
					"type": "address"
				}
			],
			"name": "publicMint",
			"outputs": [],
			"stateMutability": "nonpayable",
			"type": "function"
		},
		{
			"inputs": [
				{
					"components": [
						{
							"internalType": "uint256[2]",
							"name": "a",
							"type": "uint256[2]"
						},
						{
							"internalType": "uint256[2][2]",
							"name": "b",
							"type": "uint256[2][2]"
						},
						{
							"internalType": "uint256[2]",
							"name": "c",
							"type": "uint256[2]"
						}
					],
					"internalType": "struct ZKVerifier.Proof",
					"name": "proof",
					"type": "tuple"
				},
				{
					"internalType": "uint256[3]",
					"name": "input",
					"type": "uint256[3]"
				}
			],
			"name": "publishChallenge",
			"outputs": [],
			"stateMutability": "nonpayable",
			"type": "function"
		},
		{
			"inputs": [
				{
					"internalType": "bytes",
					"name": "",
					"type": "bytes"
				}
			],
			"name": "publishers",
			"outputs": [
				{
					"internalType": "uint256",
					"name": "",
					"type": "uint256"
				}
			],
			"stateMutability": "view",
			"type": "function"
		},
		{
			"inputs": [],
			"name": "publishersAmount",
			"outputs": [
				{
					"internalType": "uint256",
					"name": "",
					"type": "uint256"
				}
			],
			"stateMutability": "view",
			"type": "function"
		},
		{
			"inputs": [
				{
					"internalType": "string",
					"name": "tokenType",
					"type": "string"
				}
			],
			"name": "removeType",
			"outputs": [],
			"stateMutability": "nonpayable",
			"type": "function"
		},
		{
			"inputs": [
				{
					"internalType": "bytes32",
					"name": "role",
					"type": "bytes32"
				},
				{
					"internalType": "address",
					"name": "account",
					"type": "address"
				}
			],
			"name": "renounceRole",
			"outputs": [],
			"stateMutability": "nonpayable",
			"type": "function"
		},
		{
			"inputs": [
				{
					"internalType": "bytes32",
					"name": "role",
					"type": "bytes32"
				},
				{
					"internalType": "address",
					"name": "account",
					"type": "address"
				}
			],
			"name": "revokeRole",
			"outputs": [],
			"stateMutability": "nonpayable",
			"type": "function"
		},
		{
			"inputs": [
				{
					"internalType": "address",
					"name": "to",
					"type": "address"
				},
				{
					"internalType": "string",
					"name": "tokenType",
					"type": "string"
				},
				{
					"internalType": "string",
					"name": "payload",
					"type": "string"
				},
				{
					"internalType": "bytes",
					"name": "hash",
					"type": "bytes"
				},
				{
					"internalType": "uint256",
					"name": "mintGrant",
					"type": "uint256"
				}
			],
			"name": "safeMint",
			"outputs": [],
			"stateMutability": "nonpayable",
			"type": "function"
		},
		{
			"inputs": [
				{
					"internalType": "address",
					"name": "from",
					"type": "address"
				},
				{
					"internalType": "address",
					"name": "to",
					"type": "address"
				},
				{
					"internalType": "uint256",
					"name": "tokenId",
					"type": "uint256"
				}
			],
			"name": "safeTransferFrom",
			"outputs": [],
			"stateMutability": "nonpayable",
			"type": "function"
		},
		{
			"inputs": [
				{
					"internalType": "address",
					"name": "from",
					"type": "address"
				},
				{
					"internalType": "address",
					"name": "to",
					"type": "address"
				},
				{
					"internalType": "uint256",
					"name": "tokenId",
					"type": "uint256"
				},
				{
					"internalType": "bytes",
					"name": "data",
					"type": "bytes"
				}
			],
			"name": "safeTransferFrom",
			"outputs": [],
			"stateMutability": "nonpayable",
			"type": "function"
		},
		{
			"inputs": [
				{
					"internalType": "address",
					"name": "operator",
					"type": "address"
				},
				{
					"internalType": "bool",
					"name": "approved",
					"type": "bool"
				}
			],
			"name": "setApprovalForAll",
			"outputs": [],
			"stateMutability": "nonpayable",
			"type": "function"
		},
		{
			"inputs": [
				{
					"internalType": "string",
					"name": "_uri",
					"type": "string"
				}
			],
			"name": "setBaseURI",
			"outputs": [],
			"stateMutability": "nonpayable",
			"type": "function"
		},
		{
			"inputs": [
				{
					"internalType": "address",
					"name": "verifier",
					"type": "address"
				},
				{
					"internalType": "uint256[2]",
					"name": "challenge",
					"type": "uint256[2]"
				},
				{
					"internalType": "uint256",
					"name": "max",
					"type": "uint256"
				},
				{
					"internalType": "string",
					"name": "tokenType",
					"type": "string"
				},
				{
					"internalType": "string",
					"name": "payload",
					"type": "string"
				},
				{
					"internalType": "bytes",
					"name": "hash",
					"type": "bytes"
				}
			],
			"name": "setChallenge",
			"outputs": [],
			"stateMutability": "nonpayable",
			"type": "function"
		},
		{
			"inputs": [
				{
					"internalType": "bytes",
					"name": "hash",
					"type": "bytes"
				}
			],
			"name": "setContributorHash",
			"outputs": [],
			"stateMutability": "nonpayable",
			"type": "function"
		},
		{
			"inputs": [
				{
					"internalType": "bytes4",
					"name": "interfaceId",
					"type": "bytes4"
				}
			],
			"name": "supportsInterface",
			"outputs": [
				{
					"internalType": "bool",
					"name": "",
					"type": "bool"
				}
			],
			"stateMutability": "view",
			"type": "function"
		},
		{
			"inputs": [],
			"name": "symbol",
			"outputs": [
				{
					"internalType": "string",
					"name": "",
					"type": "string"
				}
			],
			"stateMutability": "view",
			"type": "function"
		},
		{
			"inputs": [
				{
					"internalType": "uint256",
					"name": "index",
					"type": "uint256"
				}
			],
			"name": "tokenByIndex",
			"outputs": [
				{
					"internalType": "uint256",
					"name": "",
					"type": "uint256"
				}
			],
			"stateMutability": "view",
			"type": "function"
		},
		{
			"inputs": [
				{
					"internalType": "address",
					"name": "owner",
					"type": "address"
				},
				{
					"internalType": "uint256",
					"name": "index",
					"type": "uint256"
				}
			],
			"name": "tokenOfOwnerByIndex",
			"outputs": [
				{
					"internalType": "uint256",
					"name": "",
					"type": "uint256"
				}
			],
			"stateMutability": "view",
			"type": "function"
		},
		{
			"inputs": [
				{
					"internalType": "uint256",
					"name": "tokenId",
					"type": "uint256"
				}
			],
			"name": "tokenURI",
			"outputs": [
				{
					"internalType": "string",
					"name": "",
					"type": "string"
				}
			],
			"stateMutability": "view",
			"type": "function"
		},
		{
			"inputs": [
				{
					"internalType": "uint256",
					"name": "",
					"type": "uint256"
				}
			],
			"name": "tokensData",
			"outputs": [
				{
					"internalType": "string",
					"name": "payload",
					"type": "string"
				},
				{
					"internalType": "string",
					"name": "tokenType",
					"type": "string"
				},
				{
					"internalType": "bytes",
					"name": "hash",
					"type": "bytes"
				}
			],
			"stateMutability": "view",
			"type": "function"
		},
		{
			"inputs": [],
			"name": "totalSupply",
			"outputs": [
				{
					"internalType": "uint256",
					"name": "",
					"type": "uint256"
				}
			],
			"stateMutability": "view",
			"type": "function"
		},
		{
			"inputs": [
				{
					"internalType": "address",
					"name": "from",
					"type": "address"
				},
				{
					"internalType": "address",
					"name": "to",
					"type": "address"
				},
				{
					"internalType": "uint256",
					"name": "tokenId",
					"type": "uint256"
				}
			],
			"name": "transferFrom",
			"outputs": [],
			"stateMutability": "nonpayable",
			"type": "function"
		},
		{
			"inputs": [
				{
					"internalType": "address",
					"name": "newImplementation",
					"type": "address"
				}
			],
			"name": "upgradeTo",
			"outputs": [],
			"stateMutability": "nonpayable",
			"type": "function"
		},
		{
			"inputs": [
				{
					"internalType": "address",
					"name": "newImplementation",
					"type": "address"
				},
				{
					"internalType": "bytes",
					"name": "data",
					"type": "bytes"
				}
			],
			"name": "upgradeToAndCall",
			"outputs": [],
			"stateMutability": "payable",
			"type": "function"
		},
		{
			"inputs": [],
			"name": "version",
			"outputs": [
				{
					"internalType": "string",
					"name": "",
					"type": "string"
				}
			],
			"stateMutability": "pure",
			"type": "function"
		},
		{
			"inputs": [
				{
					"internalType": "uint256",
					"name": "",
					"type": "uint256"
				}
			],
			"name": "zkChallenge",
			"outputs": [
				{
					"internalType": "uint256",
					"name": "",
					"type": "uint256"
				}
			],
			"stateMutability": "view",
			"type": "function"
		},
		{
			"inputs": [],
			"name": "zkChallengeHash",
			"outputs": [
				{
					"internalType": "bytes",
					"name": "",
					"type": "bytes"
				}
			],
			"stateMutability": "view",
			"type": "function"
		},
		{
			"inputs": [],
			"name": "zkChallengeNonce",
			"outputs": [
				{
					"internalType": "uint256",
					"name": "",
					"type": "uint256"
				}
			],
			"stateMutability": "view",
			"type": "function"
		},
		{
			"inputs": [],
			"name": "zkChallengePayload",
			"outputs": [
				{
					"internalType": "string",
					"name": "",
					"type": "string"
				}
			],
			"stateMutability": "view",
			"type": "function"
		},
		{
			"inputs": [],
			"name": "zkChallengeTokenType",
			"outputs": [
				{
					"internalType": "string",
					"name": "",
					"type": "string"
				}
			],
			"stateMutability": "view",
			"type": "function"
		},
		{
			"inputs": [],
			"name": "zkMax",
			"outputs": [
				{
					"internalType": "uint256",
					"name": "",
					"type": "uint256"
				}
			],
			"stateMutability": "view",
			"type": "function"
		},
		{
			"inputs": [],
			"name": "zkVerifier",
			"outputs": [
				{
					"internalType": "address",
					"name": "",
					"type": "address"
				}
			],
			"stateMutability": "view",
			"type": "function"
		}
	]
}