{
	"data": {
		"bytecode": {
			"linkReferences": {},
			"object": "60a06040523060805234801561001457600080fd5b5060805161439961004c60003960008181610efb01528181610f3b015281816110af015281816110ef015261121101526143996000f3fe6080604052600436106102fe5760003560e01c806355f804b311610190578063a217fddf116100dc578063d547741f11610095578063e15e2fd41161006f578063e15e2fd414610925578063e7f08e6914610945578063e985e9c514610965578063f1fe6911146109ae57600080fd5b8063d547741f146108c4578063d674cc2b146108e4578063d6df096d1461090457600080fd5b8063a217fddf146107f6578063a22cb4651461080b578063b63cb3b91461082b578063b88d4fde14610864578063c0cecb9a14610884578063c87b56dd146108a457600080fd5b806370a0823111610149578063865d79b311610123578063865d79b31461078c57806391d14854146107ac57806395d89b41146107cc5780639cbff422146107e157600080fd5b806370a08231146107405780637909eb73146107605780638129fc1c1461077757600080fd5b806355f804b314610690578063599ed3ff146106b05780635a8afbfc146106df5780636344cd20146106f65780636352211e1461070b5780636c0360eb1461072b57600080fd5b80632f745c591161024f57806342842e0e116102085780634f1ef286116101e25780634f1ef2861461061a5780634f6ccce71461062d57806352d1902d1461064d57806354fd4d501461066257600080fd5b806342842e0e146105c557806342966c68146105e557806343d3cf611461060557600080fd5b80632f745c591461050e57806332a93a3a1461052e57806335b1a7ea1461054e57806336568abe1461056e5780633659cfe61461058e57806342778642146105ae57600080fd5b806318160ddd116102bc57806323b872dd1161029657806323b872dd1461047e578063248a9ca31461049e5780632bd07d5f146104ce5780632f2ff15d146104ee57600080fd5b806318160ddd146104105780631823e26a146104255780631aa2c2f81461045e57600080fd5b80625c154e1461030357806301ffc9a71461034457806306fdde0314610374578063081812fc14610396578063095ea7b3146103ce5780631693d2eb146103f0575b600080fd5b34801561030f57600080fd5b5061033161031e366004613404565b6101946020526000908152604090205481565b6040519081526020015b60405180910390f35b34801561035057600080fd5b5061036461035f366004613435565b6109c3565b604051901515815260200161033b565b34801561038057600080fd5b506103896109d4565b60405161033b91906134a2565b3480156103a257600080fd5b506103b66103b13660046134b5565b610a66565b6040516001600160a01b03909116815260200161033b565b3480156103da57600080fd5b506103ee6103e93660046134ce565b610a8d565b005b3480156103fc57600080fd5b506103ee61040b3660046134f8565b610ba7565b34801561041c57600080fd5b50609954610331565b34801561043157600080fd5b5061033161044036600461365e565b805160208183018101805161019d8252928201919093012091525481565b34801561046a57600080fd5b506103ee6104793660046136da565b610c2d565b34801561048a57600080fd5b506103ee61049936600461371b565b610c4c565b3480156104aa57600080fd5b506103316104b93660046134b5565b600090815260fb602052604090206001015490565b3480156104da57600080fd5b506103ee6104e9366004613757565b610c7e565b3480156104fa57600080fd5b506103ee610509366004613822565b610d19565b34801561051a57600080fd5b506103316105293660046134ce565b610d3e565b34801561053a57600080fd5b506103ee610549366004613404565b610dd4565b34801561055a57600080fd5b506103ee61056936600461384e565b610e53565b34801561057a57600080fd5b506103ee610589366004613822565b610e73565b34801561059a57600080fd5b506103ee6105a9366004613404565b610ef1565b3480156105ba57600080fd5b5061033161019c5481565b3480156105d157600080fd5b506103ee6105e036600461371b565b610fcd565b3480156105f157600080fd5b506103ee6106003660046134b5565b610fe8565b34801561061157600080fd5b50610389611016565b6103ee6106283660046138ee565b6110a5565b34801561063957600080fd5b506103316106483660046134b5565b611171565b34801561065957600080fd5b50610331611204565b34801561066e57600080fd5b506040805180820190915260058152640322e352e360dc1b6020820152610389565b34801561069c57600080fd5b506103ee6106ab3660046136da565b6112b7565b3480156106bc57600080fd5b506106d06106cb3660046134b5565b6112d0565b60405161033b9392919061393b565b3480156106eb57600080fd5b5061033161019b5481565b34801561070257600080fd5b5061038961148b565b34801561071757600080fd5b506103b66107263660046134b5565b611499565b34801561073757600080fd5b506103896114f9565b34801561074c57600080fd5b5061033161075b366004613404565b611507565b34801561076c57600080fd5b5061033161019a5481565b34801561078357600080fd5b506103ee61158d565b34801561079857600080fd5b506103ee6107a73660046139f9565b611700565b3480156107b857600080fd5b506103646107c7366004613822565b611ccc565b3480156107d857600080fd5b50610389611cf7565b3480156107ed57600080fd5b50610389611d06565b34801561080257600080fd5b50610331600081565b34801561081757600080fd5b506103ee610826366004613ac7565b611d14565b34801561083757600080fd5b5061033161084636600461365e565b805160208183018101805161019e8252928201919093012091525481565b34801561087057600080fd5b506103ee61087f366004613afe565b611d1f565b34801561089057600080fd5b506103ee61089f366004613b65565b611d51565b3480156108b057600080fd5b506103896108bf3660046134b5565b611de1565b3480156108d057600080fd5b506103ee6108df366004613822565b611e48565b3480156108f057600080fd5b506103316108ff3660046134b5565b611e6d565b34801561091057600080fd5b50610197546103b6906001600160a01b031681565b34801561093157600080fd5b506103ee6109403660046136da565b611e85565b34801561095157600080fd5b506103ee6109603660046136da565b611ebf565b34801561097157600080fd5b50610364610980366004613bb0565b6001600160a01b039182166000908152606a6020908152604080832093909416825291909152205460ff1690565b3480156109ba57600080fd5b50610389611f04565b60006109ce82611f12565b92915050565b6060606580546109e390613bda565b80601f0160208091040260200160405190810160405280929190818152602001828054610a0f90613bda565b8015610a5c5780601f10610a3157610100808354040283529160200191610a5c565b820191906000526020600020905b815481529060010190602001808311610a3f57829003601f168201915b5050505050905090565b6000610a7182611f37565b506000908152606960205260409020546001600160a01b031690565b6000610a9882611499565b9050806001600160a01b0316836001600160a01b031603610b0a5760405162461bcd60e51b815260206004820152602160248201527f4552433732313a20617070726f76616c20746f2063757272656e74206f776e656044820152603960f91b60648201526084015b60405180910390fd5b336001600160a01b0382161480610b265750610b268133610980565b610b985760405162461bcd60e51b815260206004820152603e60248201527f4552433732313a20617070726f76652063616c6c6572206973206e6f7420746f60448201527f6b656e206f776e6572206e6f7220617070726f76656420666f7220616c6c00006064820152608401610b01565b610ba28383611f96565b505050565b6000610bb281612004565b60005b83811015610c2657826101946000878785818110610bd557610bd5613c14565b9050602002016020810190610bea9190613404565b6001600160a01b03166001600160a01b031681526020019081526020016000206000828254610c199190613c40565b9091555050600101610bb5565b5050505050565b6000610c3881612004565b610195610c46838583613cb0565b50505050565b610c57335b8261200e565b610c735760405162461bcd60e51b8152600401610b0190613d69565b610ba283838361208d565b6000610c8981612004565b610c938787611ebf565b61019780546001600160a01b0319166001600160a01b038c16179055610cbd6101988a6001613395565b5061019f610ccc878983613cb0565b506101a0610cdb858783613cb0565b506101a1610cea838583613cb0565b5061019b889055600061019c81905561019a805491610d0883613db7565b919050555050505050505050505050565b600082815260fb6020526040902060010154610d3481612004565b610ba28383612234565b6000610d4983611507565b8210610dab5760405162461bcd60e51b815260206004820152602b60248201527f455243373231456e756d657261626c653a206f776e657220696e646578206f7560448201526a74206f6620626f756e647360a81b6064820152608401610b01565b506001600160a01b03919091166000908152609760209081526040808320938352929052205490565b3360009081526101946020526040902054610e265760405162461bcd60e51b81526020600482015260126024820152711b9bc81b5a5b9d1a5b99c8185b1b1bddd95960721b6044820152606401610b01565b33600090815261019460205260408120805491610e4283613dd0565b9190505550610e50816122ba565b50565b6000610e5e81612004565b610e6b8686868686612343565b505050505050565b6001600160a01b0381163314610ee35760405162461bcd60e51b815260206004820152602f60248201527f416363657373436f6e74726f6c3a2063616e206f6e6c792072656e6f756e636560448201526e103937b632b9903337b91039b2b63360891b6064820152608401610b01565b610eed828261247b565b5050565b6001600160a01b037f0000000000000000000000000000000000000000000000000000000000000000163003610f395760405162461bcd60e51b8152600401610b0190613de7565b7f00000000000000000000000000000000000000000000000000000000000000006001600160a01b0316610f8260008051602061431d833981519152546001600160a01b031690565b6001600160a01b031614610fa85760405162461bcd60e51b8152600401610b0190613e33565b610fb1816124e2565b60408051600080825260208201909252610e50918391906124ed565b610ba283838360405180602001604052806000815250611d1f565b610ff133610c51565b61100d5760405162461bcd60e51b8152600401610b0190613d69565b610e5081612658565b6101a1805461102490613bda565b80601f016020809104026020016040519081016040528092919081815260200182805461105090613bda565b801561109d5780601f106110725761010080835404028352916020019161109d565b820191906000526020600020905b81548152906001019060200180831161108057829003601f168201915b505050505081565b6001600160a01b037f00000000000000000000000000000000000000000000000000000000000000001630036110ed5760405162461bcd60e51b8152600401610b0190613de7565b7f00000000000000000000000000000000000000000000000000000000000000006001600160a01b031661113660008051602061431d833981519152546001600160a01b031690565b6001600160a01b03161461115c5760405162461bcd60e51b8152600401610b0190613e33565b611165826124e2565b610eed828260016124ed565b600061117c60995490565b82106111df5760405162461bcd60e51b815260206004820152602c60248201527f455243373231456e756d657261626c653a20676c6f62616c20696e646578206f60448201526b7574206f6620626f756e647360a01b6064820152608401610b01565b609982815481106111f2576111f2613c14565b90600052602060002001549050919050565b6000306001600160a01b037f000000000000000000000000000000000000000000000000000000000000000016146112a45760405162461bcd60e51b815260206004820152603860248201527f555550535570677261646561626c653a206d757374206e6f742062652063616c60448201527f6c6564207468726f7567682064656c656761746563616c6c00000000000000006064820152608401610b01565b5060008051602061431d83398151915290565b60006112c281612004565b610196610c46838583613cb0565b610193602052600090815260409020805481906112ec90613bda565b80601f016020809104026020016040519081016040528092919081815260200182805461131890613bda565b80156113655780601f1061133a57610100808354040283529160200191611365565b820191906000526020600020905b81548152906001019060200180831161134857829003601f168201915b50505050509080600101805461137a90613bda565b80601f01602080910402602001604051908101604052809291908181526020018280546113a690613bda565b80156113f35780601f106113c8576101008083540402835291602001916113f3565b820191906000526020600020905b8154815290600101906020018083116113d657829003601f168201915b50505050509080600201805461140890613bda565b80601f016020809104026020016040519081016040528092919081815260200182805461143490613bda565b80156114815780601f1061145657610100808354040283529160200191611481565b820191906000526020600020905b81548152906001019060200180831161146457829003601f168201915b5050505050905083565b610195805461102490613bda565b6000818152606760205260408120546001600160a01b0316806109ce5760405162461bcd60e51b8152602060048201526018602482015277115490cdcc8c4e881a5b9d985b1a59081d1bdad95b88125160421b6044820152606401610b01565b610196805461102490613bda565b60006001600160a01b0382166115715760405162461bcd60e51b815260206004820152602960248201527f4552433732313a2061646472657373207a65726f206973206e6f7420612076616044820152683634b21037bbb732b960b91b6064820152608401610b01565b506001600160a01b031660009081526068602052604090205490565b600054610100900460ff16158080156115ad5750600054600160ff909116105b806115c75750303b1580156115c7575060005460ff166001145b61162a5760405162461bcd60e51b815260206004820152602e60248201527f496e697469616c697a61626c653a20636f6e747261637420697320616c72656160448201526d191e481a5b9a5d1a585b1a5e995960921b6064820152608401610b01565b6000805460ff19166001179055801561164d576000805461ff0019166101001790555b61168d604051806040016040528060058152602001640a4cadad2f60db1b815250604051806040016040528060018152602001602960f91b8152506126ff565b611695612730565b61169d612730565b6116a5612730565b6116ad612730565b6116b8600033612759565b8015610e50576000805461ff0019169055604051600181527f7f26b83ff96e1f2b6a682f133852f6798a09c465da95921460cefb38474024989060200160405180910390a150565b610197546001600160a01b03166117505760405162461bcd60e51b81526020600482015260146024820152731b9bc818da185b1b195b99d9481cdd185c9d195960621b6044820152606401610b01565b61019b5461019c54106117af5760405162461bcd60e51b815260206004820152602160248201527f7075626c6973686572732072656163686564206d6178696d756d20616d6f756e6044820152601d60fa1b6064820152608401610b01565b61019a54604080830151815160208101939093529082015260009060600160408051808303601f1901815282825261019a5460208401523360601b6bffffffffffffffffffffffff19168383015281516034818503018152605490930191829052925061019d90611821908490613e7f565b90815260200160405180910390205460001461187f5760405162461bcd60e51b815260206004820152601760248201527f70726f6f6620616c7265616479207075626c69736865640000000000000000006044820152606401610b01565b61019e816040516118909190613e7f565b9081526020016040518091039020546000146118fe5760405162461bcd60e51b815260206004820152602760248201527f63757272656e74207075626c69736865722068617320616c7265616479207375604482015266189b5a5d1d195960ca1b6064820152608401610b01565b602083015161019854146119545760405162461bcd60e51b815260206004820152601f60248201527f70726f7669646564206368616c6c656e6765206973206e6f742076616c6964006044820152606401610b01565b6101975484516020860151604080880151905160009485946001600160a01b03909116938593611988938b90602401613ebe565b60408051601f198184030181529181526020820180516001600160e01b03166308a3cff560e11b179052516119bd9190613e7f565b60006040518083038185875af1925050503d80600081146119fa576040519150601f19603f3d011682016040523d82523d6000602084013e6119ff565b606091505b509150915081611a515760405162461bcd60e51b815260206004820152601f60248201527f7468652063616c6c20746f20746865207665726966696572206661696c6564006044820152606401610b01565b600081806020019051810190611a679190613f42565b905080611ab65760405162461bcd60e51b815260206004820152601e60248201527f7468652070726f76696465642070726f6f662069736e27742076616c696400006044820152606401610b01565b611c653361019f8054611ac890613bda565b80601f0160208091040260200160405190810160405280929190818152602001828054611af490613bda565b8015611b415780601f10611b1657610100808354040283529160200191611b41565b820191906000526020600020905b815481529060010190602001808311611b2457829003601f168201915b50505050506101a08054611b5490613bda565b80601f0160208091040260200160405190810160405280929190818152602001828054611b8090613bda565b8015611bcd5780601f10611ba257610100808354040283529160200191611bcd565b820191906000526020600020905b815481529060010190602001808311611bb057829003601f168201915b50505050506101a18054611be090613bda565b80601f0160208091040260200160405190810160405280929190818152602001828054611c0c90613bda565b8015611c595780601f10611c2e57610100808354040283529160200191611c59565b820191906000526020600020905b815481529060010190602001808311611c3c57829003601f168201915b50505050506001612343565b61019c8054906000611c7683613db7565b9190505550600161019d86604051611c8e9190613e7f565b908152602001604051809103902081905550600161019e85604051611cb39190613e7f565b9081526040519081900360200190205550505050505050565b600091825260fb602090815260408084206001600160a01b0393909316845291905290205460ff1690565b6060606680546109e390613bda565b61019f805461102490613bda565b610eed338383612763565b611d29338361200e565b611d455760405162461bcd60e51b8152600401610b0190613d69565b610c4684848484612831565b6000611d5c81612004565b611d6584611f37565b6000848152610193602052604090206002018054611d8290613bda565b159050611dc45760405162461bcd60e51b815260206004820152601060248201526f1a185cda08185b1c9958591e481cd95d60821b6044820152606401610b01565b600084815261019360205260409020600201610c26838583613cb0565b6060611dec82611f37565b6000611df6612864565b90506000815111611e165760405180602001604052806000815250611e41565b80611e2084612874565b604051602001611e31929190613f5f565b6040516020818303038152906040525b9392505050565b600082815260fb6020526040902060010154611e6381612004565b610ba2838361247b565b6101988160028110611e7e57600080fd5b0154905081565b6000611e9081612004565b6101928383604051611ea3929190613f8e565b908152604051908190036020019020805460ff19169055505050565b6000611eca81612004565b60016101928484604051611edf929190613f8e565b908152604051908190036020019020805491151560ff19909216919091179055505050565b6101a0805461102490613bda565b60006001600160e01b03198216637965db0b60e01b14806109ce57506109ce82612974565b6000818152606760205260409020546001600160a01b0316610e505760405162461bcd60e51b8152602060048201526018602482015277115490cdcc8c4e881a5b9d985b1a59081d1bdad95b88125160421b6044820152606401610b01565b600081815260696020526040902080546001600160a01b0319166001600160a01b0384169081179091558190611fcb82611499565b6001600160a01b03167f8c5be1e5ebec7d5bd14f71427d1e84f3dd0314c0f7b2291e5b200ac8c7c3b92560405160405180910390a45050565b610e508133612999565b60008061201a83611499565b9050806001600160a01b0316846001600160a01b0316148061206157506001600160a01b038082166000908152606a602090815260408083209388168352929052205460ff165b806120855750836001600160a01b031661207a84610a66565b6001600160a01b0316145b949350505050565b826001600160a01b03166120a082611499565b6001600160a01b0316146121045760405162461bcd60e51b815260206004820152602560248201527f4552433732313a207472616e736665722066726f6d20696e636f72726563742060448201526437bbb732b960d91b6064820152608401610b01565b6001600160a01b0382166121665760405162461bcd60e51b8152602060048201526024808201527f4552433732313a207472616e7366657220746f20746865207a65726f206164646044820152637265737360e01b6064820152608401610b01565b6121718383836129fd565b61217c600082611f96565b6001600160a01b03831660009081526068602052604081208054600192906121a5908490613f9e565b90915550506001600160a01b03821660009081526068602052604081208054600192906121d3908490613c40565b909155505060008181526067602052604080822080546001600160a01b0319166001600160a01b0386811691821790925591518493918716917fddf252ad1be2c89b69c2b068fc378daa952ba7f163c4a11628f55a4df523b3ef91a4505050565b61223e8282611ccc565b610eed57600082815260fb602090815260408083206001600160a01b03851684529091529020805460ff191660011790556122763390565b6001600160a01b0316816001600160a01b0316837f2f8788117e7eff1d82e926ec794901d17c78024a50270940304540a733656f0d60405160405180910390a45050565b60006122c66101915490565b90506122d761019180546001019055565b6122e18282612a58565b604051806040016040528060078152602001662932b6b4bc32b960c91b815250610193600083815260200190815260200160002060010190816123249190613fb1565b50600081815261019360205260409020600201610ba26101958261406a565b610192846040516123549190613e7f565b9081526040519081900360200190205460ff166123b35760405162461bcd60e51b815260206004820152601760248201527f747970652073686f756c64206265206465636c617265640000000000000000006044820152606401610b01565b60006123bf6101915490565b90506123d061019180546001019055565b6123da8682612a58565b6000818152610193602052604090206123f38582613fb1565b506000818152610193602052604090206001016124108682613fb1565b5060008181526101936020526040902060020161242d8482613fb1565b508115610e6b576001600160a01b03861660009081526101946020526040902054612459908390613c40565b6001600160a01b03871660009081526101946020526040902055505050505050565b6124858282611ccc565b15610eed57600082815260fb602090815260408083206001600160a01b0385168085529252808320805460ff1916905551339285917ff6391f5c32d9c69d2a47ea670b442974b53935d1edc7fd64eb21e047a839171b9190a45050565b6000610eed81612004565b7f4910fdfa16fed3260ed0e7147f7cc6da11a60208b5b9406d12a635614ffd91435460ff161561252057610ba283612a72565b826001600160a01b03166352d1902d6040518163ffffffff1660e01b8152600401602060405180830381865afa92505050801561257a575060408051601f3d908101601f1916820190925261257791810190614136565b60015b6125dd5760405162461bcd60e51b815260206004820152602e60248201527f45524331393637557067726164653a206e657720696d706c656d656e7461746960448201526d6f6e206973206e6f74205555505360901b6064820152608401610b01565b60008051602061431d833981519152811461264c5760405162461bcd60e51b815260206004820152602960248201527f45524331393637557067726164653a20756e737570706f727465642070726f786044820152681a58589b195555525160ba1b6064820152608401610b01565b50610ba2838383612b0e565b600061266382611499565b9050612671816000846129fd565b61267c600083611f96565b6001600160a01b03811660009081526068602052604081208054600192906126a5908490613f9e565b909155505060008281526067602052604080822080546001600160a01b0319169055518391906001600160a01b038416907fddf252ad1be2c89b69c2b068fc378daa952ba7f163c4a11628f55a4df523b3ef908390a45050565b600054610100900460ff166127265760405162461bcd60e51b8152600401610b019061414f565b610eed8282612b33565b600054610100900460ff166127575760405162461bcd60e51b8152600401610b019061414f565b565b610eed8282612234565b816001600160a01b0316836001600160a01b0316036127c45760405162461bcd60e51b815260206004820152601960248201527f4552433732313a20617070726f766520746f2063616c6c6572000000000000006044820152606401610b01565b6001600160a01b038381166000818152606a6020908152604080832094871680845294825291829020805460ff191686151590811790915591519182527f17307eab39ab6107e8899845ad3d59bd9653f200f220920489ca2b5937696c31910160405180910390a3505050565b61283c84848461208d565b61284884848484612b73565b610c465760405162461bcd60e51b8152600401610b019061419a565b606061019680546109e390613bda565b60608160000361289b5750506040805180820190915260018152600360fc1b602082015290565b8160005b81156128c557806128af81613db7565b91506128be9050600a83614202565b915061289f565b6000816001600160401b038111156128df576128df613572565b6040519080825280601f01601f191660200182016040528015612909576020820181803683370190505b5090505b84156120855761291e600183613f9e565b915061292b600a86614216565b612936906030613c40565b60f81b81838151811061294b5761294b613c14565b60200101906001600160f81b031916908160001a90535061296d600a86614202565b945061290d565b60006001600160e01b0319821663780e9d6360e01b14806109ce57506109ce82612c74565b6129a38282611ccc565b610eed576129bb816001600160a01b03166014612cc4565b6129c6836020612cc4565b6040516020016129d792919061422a565b60408051601f198184030181529082905262461bcd60e51b8252610b01916004016134a2565b6001600160a01b03831615612a4d5760405162461bcd60e51b8152602060048201526016602482015275746f6b656e206e6f74207472616e7366657261626c6560501b6044820152606401610b01565b610ba2838383612e5f565b610eed828260405180602001604052806000815250612f17565b6001600160a01b0381163b612adf5760405162461bcd60e51b815260206004820152602d60248201527f455243313936373a206e657720696d706c656d656e746174696f6e206973206e60448201526c1bdd08184818dbdb9d1c9858dd609a1b6064820152608401610b01565b60008051602061431d83398151915280546001600160a01b0319166001600160a01b0392909216919091179055565b612b1783612f4a565b600082511180612b245750805b15610ba257610c468383612f8a565b600054610100900460ff16612b5a5760405162461bcd60e51b8152600401610b019061414f565b6065612b668382613fb1565b506066610ba28282613fb1565b60006001600160a01b0384163b15612c6957604051630a85bd0160e11b81526001600160a01b0385169063150b7a0290612bb790339089908890889060040161429f565b6020604051808303816000875af1925050508015612bf2575060408051601f3d908101601f19168201909252612bef918101906142d2565b60015b612c4f573d808015612c20576040519150601f19603f3d011682016040523d82523d6000602084013e612c25565b606091505b508051600003612c475760405162461bcd60e51b8152600401610b019061419a565b805181602001fd5b6001600160e01b031916630a85bd0160e11b149050612085565b506001949350505050565b60006001600160e01b031982166380ac58cd60e01b1480612ca557506001600160e01b03198216635b5e139f60e01b145b806109ce57506301ffc9a760e01b6001600160e01b03198316146109ce565b60606000612cd38360026142ef565b612cde906002613c40565b6001600160401b03811115612cf557612cf5613572565b6040519080825280601f01601f191660200182016040528015612d1f576020820181803683370190505b509050600360fc1b81600081518110612d3a57612d3a613c14565b60200101906001600160f81b031916908160001a905350600f60fb1b81600181518110612d6957612d69613c14565b60200101906001600160f81b031916908160001a9053506000612d8d8460026142ef565b612d98906001613c40565b90505b6001811115612e10576f181899199a1a9b1b9c1cb0b131b232b360811b85600f1660108110612dcc57612dcc613c14565b1a60f81b828281518110612de257612de2613c14565b60200101906001600160f81b031916908160001a90535060049490941c93612e0981613dd0565b9050612d9b565b508315611e415760405162461bcd60e51b815260206004820181905260248201527f537472696e67733a20686578206c656e67746820696e73756666696369656e746044820152606401610b01565b6001600160a01b038316612eba57612eb581609980546000838152609a60205260408120829055600182018355919091527f72a152ddfb8e864297c917af52ea6c1c68aead0fee1a62673fcc7e0c94979d000155565b612edd565b816001600160a01b0316836001600160a01b031614612edd57612edd838261307e565b6001600160a01b038216612ef457610ba28161311b565b826001600160a01b0316826001600160a01b031614610ba257610ba282826131ca565b612f21838361320e565b612f2e6000848484612b73565b610ba25760405162461bcd60e51b8152600401610b019061419a565b612f5381612a72565b6040516001600160a01b038216907fbc7cd75a20ee27fd9adebab32041f755214dbc6bffa90cc0225b39da2e5c2d3b90600090a250565b60606001600160a01b0383163b612ff25760405162461bcd60e51b815260206004820152602660248201527f416464726573733a2064656c65676174652063616c6c20746f206e6f6e2d636f6044820152651b9d1c9858dd60d21b6064820152608401610b01565b600080846001600160a01b03168460405161300d9190613e7f565b600060405180830381855af49150503d8060008114613048576040519150601f19603f3d011682016040523d82523d6000602084013e61304d565b606091505b5091509150613075828260405180606001604052806027815260200161433d6027913961335c565b95945050505050565b6000600161308b84611507565b6130959190613f9e565b6000838152609860205260409020549091508082146130e8576001600160a01b03841660009081526097602090815260408083208584528252808320548484528184208190558352609890915290208190555b5060009182526098602090815260408084208490556001600160a01b039094168352609781528383209183525290812055565b60995460009061312d90600190613f9e565b6000838152609a60205260408120546099805493945090928490811061315557613155613c14565b90600052602060002001549050806099838154811061317657613176613c14565b6000918252602080832090910192909255828152609a909152604080822084905585825281205560998054806131ae576131ae614306565b6001900381819060005260206000200160009055905550505050565b60006131d583611507565b6001600160a01b039093166000908152609760209081526040808320868452825280832085905593825260989052919091209190915550565b6001600160a01b0382166132645760405162461bcd60e51b815260206004820181905260248201527f4552433732313a206d696e7420746f20746865207a65726f20616464726573736044820152606401610b01565b6000818152606760205260409020546001600160a01b0316156132c95760405162461bcd60e51b815260206004820152601c60248201527f4552433732313a20746f6b656e20616c7265616479206d696e746564000000006044820152606401610b01565b6132d5600083836129fd565b6001600160a01b03821660009081526068602052604081208054600192906132fe908490613c40565b909155505060008181526067602052604080822080546001600160a01b0319166001600160a01b03861690811790915590518392907fddf252ad1be2c89b69c2b068fc378daa952ba7f163c4a11628f55a4df523b3ef908290a45050565b6060831561336b575081611e41565b82511561337b5782518084602001fd5b8160405162461bcd60e51b8152600401610b0191906134a2565b82600281019282156133c3579160200282015b828111156133c35782358255916020019190600101906133a8565b506133cf9291506133d3565b5090565b5b808211156133cf57600081556001016133d4565b80356001600160a01b03811681146133ff57600080fd5b919050565b60006020828403121561341657600080fd5b611e41826133e8565b6001600160e01b031981168114610e5057600080fd5b60006020828403121561344757600080fd5b8135611e418161341f565b60005b8381101561346d578181015183820152602001613455565b50506000910152565b6000815180845261348e816020860160208601613452565b601f01601f19169290920160200192915050565b602081526000611e416020830184613476565b6000602082840312156134c757600080fd5b5035919050565b600080604083850312156134e157600080fd5b6134ea836133e8565b946020939093013593505050565b60008060006040848603121561350d57600080fd5b83356001600160401b038082111561352457600080fd5b818601915086601f83011261353857600080fd5b81358181111561354757600080fd5b8760208260051b850101111561355c57600080fd5b6020928301989097509590910135949350505050565b634e487b7160e01b600052604160045260246000fd5b604051606081016001600160401b03811182821017156135aa576135aa613572565b60405290565b604080519081016001600160401b03811182821017156135aa576135aa613572565b600082601f8301126135e357600080fd5b81356001600160401b03808211156135fd576135fd613572565b604051601f8301601f19908116603f0116810190828211818310171561362557613625613572565b8160405283815286602085880101111561363e57600080fd5b836020870160208301376000602085830101528094505050505092915050565b60006020828403121561367057600080fd5b81356001600160401b0381111561368657600080fd5b612085848285016135d2565b60008083601f8401126136a457600080fd5b5081356001600160401b038111156136bb57600080fd5b6020830191508360208285010111156136d357600080fd5b9250929050565b600080602083850312156136ed57600080fd5b82356001600160401b0381111561370357600080fd5b61370f85828601613692565b90969095509350505050565b60008060006060848603121561373057600080fd5b613739846133e8565b9250613747602085016133e8565b9150604084013590509250925092565b600080600080600080600080600060c08a8c03121561377557600080fd5b61377e8a6133e8565b985060408a018b81111561379157600080fd5b60208b01985035965060608a01356001600160401b03808211156137b457600080fd5b6137c08d838e01613692565b909850965060808c01359150808211156137d957600080fd5b6137e58d838e01613692565b909650945060a08c01359150808211156137fe57600080fd5b5061380b8c828d01613692565b915080935050809150509295985092959850929598565b6000806040838503121561383557600080fd5b82359150613845602084016133e8565b90509250929050565b600080600080600060a0868803121561386657600080fd5b61386f866133e8565b945060208601356001600160401b038082111561388b57600080fd5b61389789838a016135d2565b955060408801359150808211156138ad57600080fd5b6138b989838a016135d2565b945060608801359150808211156138cf57600080fd5b506138dc888289016135d2565b95989497509295608001359392505050565b6000806040838503121561390157600080fd5b61390a836133e8565b915060208301356001600160401b0381111561392557600080fd5b613931858286016135d2565b9150509250929050565b60608152600061394e6060830186613476565b82810360208401526139608186613476565b905082810360408401526139748185613476565b9695505050505050565b600082601f83011261398f57600080fd5b6139976135b0565b8060408401858111156139a957600080fd5b845b818110156139c35780358452602093840193016139ab565b509095945050505050565b600082601f8301126139df57600080fd5b6139e7613588565b8060608401858111156139a957600080fd5b600080828403610160811215613a0e57600080fd5b61010080821215613a1e57600080fd5b613a26613588565b9150613a32868661397e565b8252604086605f870112613a4557600080fd5b613a4d6135b0565b8060c0880189811115613a5f57600080fd5b604089015b81811015613a8557613a768b8261397e565b84526020909301928401613a64565b50816020870152613a968a8261397e565b604087015250505050819350613aae868287016139ce565b925050509250929050565b8015158114610e5057600080fd5b60008060408385031215613ada57600080fd5b613ae3836133e8565b91506020830135613af381613ab9565b809150509250929050565b60008060008060808587031215613b1457600080fd5b613b1d856133e8565b9350613b2b602086016133e8565b92506040850135915060608501356001600160401b03811115613b4d57600080fd5b613b59878288016135d2565b91505092959194509250565b600080600060408486031215613b7a57600080fd5b8335925060208401356001600160401b03811115613b9757600080fd5b613ba386828701613692565b9497909650939450505050565b60008060408385031215613bc357600080fd5b613bcc836133e8565b9150613845602084016133e8565b600181811c90821680613bee57607f821691505b602082108103613c0e57634e487b7160e01b600052602260045260246000fd5b50919050565b634e487b7160e01b600052603260045260246000fd5b634e487b7160e01b600052601160045260246000fd5b808201808211156109ce576109ce613c2a565b601f821115610ba2576000816000526020600020601f850160051c81016020861015613c7c5750805b601f850160051c820191505b81811015610e6b57828155600101613c88565b600019600383901b1c191660019190911b1790565b6001600160401b03831115613cc757613cc7613572565b613cdb83613cd58354613bda565b83613c53565b6000601f841160018114613d095760008515613cf75750838201355b613d018682613c9b565b845550610c26565b600083815260209020601f19861690835b82811015613d3a5786850135825560209485019460019092019101613d1a565b5086821015613d575760001960f88860031b161c19848701351681555b505060018560011b0183555050505050565b6020808252602e908201527f4552433732313a2063616c6c6572206973206e6f7420746f6b656e206f776e6560408201526d1c881b9bdc88185c1c1c9bdd995960921b606082015260800190565b600060018201613dc957613dc9613c2a565b5060010190565b600081613ddf57613ddf613c2a565b506000190190565b6020808252602c908201527f46756e6374696f6e206d7573742062652063616c6c6564207468726f7567682060408201526b19195b1959d85d1958d85b1b60a21b606082015260800190565b6020808252602c908201527f46756e6374696f6e206d7573742062652063616c6c6564207468726f7567682060408201526b6163746976652070726f787960a01b606082015260800190565b60008251613e91818460208701613452565b9190910192915050565b8060005b6002811015610c46578151845260209384019390910190600101613e9f565b6101608101613ecd8287613e9b565b60408083018660005b6002811015613efd57613eea838351613e9b565b9183019160209190910190600101613ed6565b50505050613f0e60c0830185613e9b565b61010082018360005b6003811015613f36578151835260209283019290910190600101613f17565b50505095945050505050565b600060208284031215613f5457600080fd5b8151611e4181613ab9565b60008351613f71818460208801613452565b835190830190613f85818360208801613452565b01949350505050565b8183823760009101908152919050565b818103818111156109ce576109ce613c2a565b81516001600160401b03811115613fca57613fca613572565b613fde81613fd88454613bda565b84613c53565b602080601f83116001811461400d5760008415613ffb5750858301515b6140058582613c9b565b865550610e6b565b600085815260208120601f198616915b8281101561403c5788860151825594840194600190910190840161401d565b508582101561405a5787850151600019600388901b60f8161c191681555b5050505050600190811b01905550565b818103614075575050565b61407f8254613bda565b6001600160401b0381111561409657614096613572565b6140a481613fd88454613bda565b6000601f8211600181146140d257600083156140c05750848201545b6140ca8482613c9b565b855550610c26565b600085815260209020601f19841690600086815260209020845b8381101561410c57828601548255600195860195909101906020016140ec565b508583101561405a5793015460001960f8600387901b161c19169092555050600190811b01905550565b60006020828403121561414857600080fd5b5051919050565b6020808252602b908201527f496e697469616c697a61626c653a20636f6e7472616374206973206e6f74206960408201526a6e697469616c697a696e6760a81b606082015260800190565b60208082526032908201527f4552433732313a207472616e7366657220746f206e6f6e20455243373231526560408201527131b2b4bb32b91034b6b83632b6b2b73a32b960711b606082015260800190565b634e487b7160e01b600052601260045260246000fd5b600082614211576142116141ec565b500490565b600082614225576142256141ec565b500690565b7f416363657373436f6e74726f6c3a206163636f756e7420000000000000000000815260008351614262816017850160208801613452565b7001034b99036b4b9b9b4b733903937b6329607d1b6017918401918201528351614293816028840160208801613452565b01602801949350505050565b6001600160a01b038581168252841660208201526040810183905260806060820181905260009061397490830184613476565b6000602082840312156142e457600080fd5b8151611e418161341f565b80820281158282048414176109ce576109ce613c2a565b634e487b7160e01b600052603160045260246000fdfe360894a13ba1a3210667c828492db98dca3e2076cc3735a920a3ca505d382bbc416464726573733a206c6f772d6c6576656c2064656c65676174652063616c6c206661696c6564a2646970667358221220d4d2e29067613a89c3d9543dab608c5a40e601ab983be0a2a7857e4839cdadbf64736f6c63430008160033",
			"opcodes": "PUSH1 0xA0 PUSH1 0x40 MSTORE ADDRESS PUSH1 0x80 MSTORE CALLVALUE DUP1 ISZERO PUSH2 0x14 JUMPI PUSH1 0x0 DUP1 REVERT JUMPDEST POP PUSH1 0x80 MLOAD PUSH2 0x4399 PUSH2 0x4C PUSH1 0x0 CODECOPY PUSH1 0x0 DUP2 DUP2 PUSH2 0xEFB ADD MSTORE DUP2 DUP2 PUSH2 0xF3B ADD MSTORE DUP2 DUP2 PUSH2 0x10AF ADD MSTORE DUP2 DUP2 PUSH2 0x10EF ADD MSTORE PUSH2 0x1211 ADD MSTORE PUSH2 0x4399 PUSH1 0x0 RETURN INVALID PUSH1 0x80 PUSH1 0x40 MSTORE PUSH1 0x4 CALLDATASIZE LT PUSH2 0x2FE JUMPI PUSH1 0x0 CALLDATALOAD PUSH1 0xE0 SHR DUP1 PUSH4 0x55F804B3 GT PUSH2 0x190 JUMPI DUP1 PUSH4 0xA217FDDF GT PUSH2 0xDC JUMPI DUP1 PUSH4 0xD547741F GT PUSH2 0x95 JUMPI DUP1 PUSH4 0xE15E2FD4 GT PUSH2 0x6F JUMPI DUP1 PUSH4 0xE15E2FD4 EQ PUSH2 0x925 JUMPI DUP1 PUSH4 0xE7F08E69 EQ PUSH2 0x945 JUMPI DUP1 PUSH4 0xE985E9C5 EQ PUSH2 0x965 JUMPI DUP1 PUSH4 0xF1FE6911 EQ PUSH2 0x9AE JUMPI PUSH1 0x0 DUP1 REVERT JUMPDEST DUP1 PUSH4 0xD547741F EQ PUSH2 0x8C4 JUMPI DUP1 PUSH4 0xD674CC2B EQ PUSH2 0x8E4 JUMPI DUP1 PUSH4 0xD6DF096D EQ PUSH2 0x904 JUMPI PUSH1 0x0 DUP1 REVERT JUMPDEST DUP1 PUSH4 0xA217FDDF EQ PUSH2 0x7F6 JUMPI DUP1 PUSH4 0xA22CB465 EQ PUSH2 0x80B JUMPI DUP1 PUSH4 0xB63CB3B9 EQ PUSH2 0x82B JUMPI DUP1 PUSH4 0xB88D4FDE EQ PUSH2 0x864 JUMPI DUP1 PUSH4 0xC0CECB9A EQ PUSH2 0x884 JUMPI DUP1 PUSH4 0xC87B56DD EQ PUSH2 0x8A4 JUMPI PUSH1 0x0 DUP1 REVERT JUMPDEST DUP1 PUSH4 0x70A08231 GT PUSH2 0x149 JUMPI DUP1 PUSH4 0x865D79B3 GT PUSH2 0x123 JUMPI DUP1 PUSH4 0x865D79B3 EQ PUSH2 0x78C JUMPI DUP1 PUSH4 0x91D14854 EQ PUSH2 0x7AC JUMPI DUP1 PUSH4 0x95D89B41 EQ PUSH2 0x7CC JUMPI DUP1 PUSH4 0x9CBFF422 EQ PUSH2 0x7E1 JUMPI PUSH1 0x0 DUP1 REVERT JUMPDEST DUP1 PUSH4 0x70A08231 EQ PUSH2 0x740 JUMPI DUP1 PUSH4 0x7909EB73 EQ PUSH2 0x760 JUMPI DUP1 PUSH4 0x8129FC1C EQ PUSH2 0x777 JUMPI PUSH1 0x0 DUP1 REVERT JUMPDEST DUP1 PUSH4 0x55F804B3 EQ PUSH2 0x690 JUMPI DUP1 PUSH4 0x599ED3FF EQ PUSH2 0x6B0 JUMPI DUP1 PUSH4 0x5A8AFBFC EQ PUSH2 0x6DF JUMPI DUP1 PUSH4 0x6344CD20 EQ PUSH2 0x6F6 JUMPI DUP1 PUSH4 0x6352211E EQ PUSH2 0x70B JUMPI DUP1 PUSH4 0x6C0360EB EQ PUSH2 0x72B JUMPI PUSH1 0x0 DUP1 REVERT JUMPDEST DUP1 PUSH4 0x2F745C59 GT PUSH2 0x24F JUMPI DUP1 PUSH4 0x42842E0E GT PUSH2 0x208 JUMPI DUP1 PUSH4 0x4F1EF286 GT PUSH2 0x1E2 JUMPI DUP1 PUSH4 0x4F1EF286 EQ PUSH2 0x61A JUMPI DUP1 PUSH4 0x4F6CCCE7 EQ PUSH2 0x62D JUMPI DUP1 PUSH4 0x52D1902D EQ PUSH2 0x64D JUMPI DUP1 PUSH4 0x54FD4D50 EQ PUSH2 0x662 JUMPI PUSH1 0x0 DUP1 REVERT JUMPDEST DUP1 PUSH4 0x42842E0E EQ PUSH2 0x5C5 JUMPI DUP1 PUSH4 0x42966C68 EQ PUSH2 0x5E5 JUMPI DUP1 PUSH4 0x43D3CF61 EQ PUSH2 0x605 JUMPI PUSH1 0x0 DUP1 REVERT JUMPDEST DUP1 PUSH4 0x2F745C59 EQ PUSH2 0x50E JUMPI DUP1 PUSH4 0x32A93A3A EQ PUSH2 0x52E JUMPI DUP1 PUSH4 0x35B1A7EA EQ PUSH2 0x54E JUMPI DUP1 PUSH4 0x36568ABE EQ PUSH2 0x56E JUMPI DUP1 PUSH4 0x3659CFE6 EQ PUSH2 0x58E JUMPI DUP1 PUSH4 0x42778642 EQ PUSH2 0x5AE JUMPI PUSH1 0x0 DUP1 REVERT JUMPDEST DUP1 PUSH4 0x18160DDD GT PUSH2 0x2BC JUMPI DUP1 PUSH4 0x23B872DD GT PUSH2 0x296 JUMPI DUP1 PUSH4 0x23B872DD EQ PUSH2 0x47E JUMPI DUP1 PUSH4 0x248A9CA3 EQ PUSH2 0x49E JUMPI DUP1 PUSH4 0x2BD07D5F EQ PUSH2 0x4CE JUMPI DUP1 PUSH4 0x2F2FF15D EQ PUSH2 0x4EE JUMPI PUSH1 0x0 DUP1 REVERT JUMPDEST DUP1 PUSH4 0x18160DDD EQ PUSH2 0x410 JUMPI DUP1 PUSH4 0x1823E26A EQ PUSH2 0x425 JUMPI DUP1 PUSH4 0x1AA2C2F8 EQ PUSH2 0x45E JUMPI PUSH1 0x0 DUP1 REVERT JUMPDEST DUP1 PUSH3 0x5C154E EQ PUSH2 0x303 JUMPI DUP1 PUSH4 0x1FFC9A7 EQ PUSH2 0x344 JUMPI DUP1 PUSH4 0x6FDDE03 EQ PUSH2 0x374 JUMPI DUP1 PUSH4 0x81812FC EQ PUSH2 0x396 JUMPI DUP1 PUSH4 0x95EA7B3 EQ PUSH2 0x3CE JUMPI DUP1 PUSH4 0x1693D2EB EQ PUSH2 0x3F0 JUMPI JUMPDEST PUSH1 0x0 DUP1 REVERT JUMPDEST CALLVALUE DUP1 ISZERO PUSH2 0x30F JUMPI PUSH1 0x0 DUP1 REVERT JUMPDEST POP PUSH2 0x331 PUSH2 0x31E CALLDATASIZE PUSH1 0x4 PUSH2 0x3404 JUMP JUMPDEST PUSH2 0x194 PUSH1 0x20 MSTORE PUSH1 0x0 SWAP1 DUP2 MSTORE PUSH1 0x40 SWAP1 KECCAK256 SLOAD DUP2 JUMP JUMPDEST PUSH1 0x40 MLOAD SWAP1 DUP2 MSTORE PUSH1 0x20 ADD JUMPDEST PUSH1 0x40 MLOAD DUP1 SWAP2 SUB SWAP1 RETURN JUMPDEST CALLVALUE DUP1 ISZERO PUSH2 0x350 JUMPI PUSH1 0x0 DUP1 REVERT JUMPDEST POP PUSH2 0x364 PUSH2 0x35F CALLDATASIZE PUSH1 0x4 PUSH2 0x3435 JUMP JUMPDEST PUSH2 0x9C3 JUMP JUMPDEST PUSH1 0x40 MLOAD SWAP1 ISZERO ISZERO DUP2 MSTORE PUSH1 0x20 ADD PUSH2 0x33B JUMP JUMPDEST CALLVALUE DUP1 ISZERO PUSH2 0x380 JUMPI PUSH1 0x0 DUP1 REVERT JUMPDEST POP PUSH2 0x389 PUSH2 0x9D4 JUMP JUMPDEST PUSH1 0x40 MLOAD PUSH2 0x33B SWAP2 SWAP1 PUSH2 0x34A2 JUMP JUMPDEST CALLVALUE DUP1 ISZERO PUSH2 0x3A2 JUMPI PUSH1 0x0 DUP1 REVERT JUMPDEST POP PUSH2 0x3B6 PUSH2 0x3B1 CALLDATASIZE PUSH1 0x4 PUSH2 0x34B5 JUMP JUMPDEST PUSH2 0xA66 JUMP JUMPDEST PUSH1 0x40 MLOAD PUSH1 0x1 PUSH1 0x1 PUSH1 0xA0 SHL SUB SWAP1 SWAP2 AND DUP2 MSTORE PUSH1 0x20 ADD PUSH2 0x33B JUMP JUMPDEST CALLVALUE DUP1 ISZERO PUSH2 0x3DA JUMPI PUSH1 0x0 DUP1 REVERT JUMPDEST POP PUSH2 0x3EE PUSH2 0x3E9 CALLDATASIZE PUSH1 0x4 PUSH2 0x34CE JUMP JUMPDEST PUSH2 0xA8D JUMP JUMPDEST STOP JUMPDEST CALLVALUE DUP1 ISZERO PUSH2 0x3FC JUMPI PUSH1 0x0 DUP1 REVERT JUMPDEST POP PUSH2 0x3EE PUSH2 0x40B CALLDATASIZE PUSH1 0x4 PUSH2 0x34F8 JUMP JUMPDEST PUSH2 0xBA7 JUMP JUMPDEST CALLVALUE DUP1 ISZERO PUSH2 0x41C JUMPI PUSH1 0x0 DUP1 REVERT JUMPDEST POP PUSH1 0x99 SLOAD PUSH2 0x331 JUMP JUMPDEST CALLVALUE DUP1 ISZERO PUSH2 0x431 JUMPI PUSH1 0x0 DUP1 REVERT JUMPDEST POP PUSH2 0x331 PUSH2 0x440 CALLDATASIZE PUSH1 0x4 PUSH2 0x365E JUMP JUMPDEST DUP1 MLOAD PUSH1 0x20 DUP2 DUP4 ADD DUP2 ADD DUP1 MLOAD PUSH2 0x19D DUP3 MSTORE SWAP3 DUP3 ADD SWAP2 SWAP1 SWAP4 ADD KECCAK256 SWAP2 MSTORE SLOAD DUP2 JUMP JUMPDEST CALLVALUE DUP1 ISZERO PUSH2 0x46A JUMPI PUSH1 0x0 DUP1 REVERT JUMPDEST POP PUSH2 0x3EE PUSH2 0x479 CALLDATASIZE PUSH1 0x4 PUSH2 0x36DA JUMP JUMPDEST PUSH2 0xC2D JUMP JUMPDEST CALLVALUE DUP1 ISZERO PUSH2 0x48A JUMPI PUSH1 0x0 DUP1 REVERT JUMPDEST POP PUSH2 0x3EE PUSH2 0x499 CALLDATASIZE PUSH1 0x4 PUSH2 0x371B JUMP JUMPDEST PUSH2 0xC4C JUMP JUMPDEST CALLVALUE DUP1 ISZERO PUSH2 0x4AA JUMPI PUSH1 0x0 DUP1 REVERT JUMPDEST POP PUSH2 0x331 PUSH2 0x4B9 CALLDATASIZE PUSH1 0x4 PUSH2 0x34B5 JUMP JUMPDEST PUSH1 0x0 SWAP1 DUP2 MSTORE PUSH1 0xFB PUSH1 0x20 MSTORE PUSH1 0x40 SWAP1 KECCAK256 PUSH1 0x1 ADD SLOAD SWAP1 JUMP JUMPDEST CALLVALUE DUP1 ISZERO PUSH2 0x4DA JUMPI PUSH1 0x0 DUP1 REVERT JUMPDEST POP PUSH2 0x3EE PUSH2 0x4E9 CALLDATASIZE PUSH1 0x4 PUSH2 0x3757 JUMP JUMPDEST PUSH2 0xC7E JUMP JUMPDEST CALLVALUE DUP1 ISZERO PUSH2 0x4FA JUMPI PUSH1 0x0 DUP1 REVERT JUMPDEST POP PUSH2 0x3EE PUSH2 0x509 CALLDATASIZE PUSH1 0x4 PUSH2 0x3822 JUMP JUMPDEST PUSH2 0xD19 JUMP JUMPDEST CALLVALUE DUP1 ISZERO PUSH2 0x51A JUMPI PUSH1 0x0 DUP1 REVERT JUMPDEST POP PUSH2 0x331 PUSH2 0x529 CALLDATASIZE PUSH1 0x4 PUSH2 0x34CE JUMP JUMPDEST PUSH2 0xD3E JUMP JUMPDEST CALLVALUE DUP1 ISZERO PUSH2 0x53A JUMPI PUSH1 0x0 DUP1 REVERT JUMPDEST POP PUSH2 0x3EE PUSH2 0x549 CALLDATASIZE PUSH1 0x4 PUSH2 0x3404 JUMP JUMPDEST PUSH2 0xDD4 JUMP JUMPDEST CALLVALUE DUP1 ISZERO PUSH2 0x55A JUMPI PUSH1 0x0 DUP1 REVERT JUMPDEST POP PUSH2 0x3EE PUSH2 0x569 CALLDATASIZE PUSH1 0x4 PUSH2 0x384E JUMP JUMPDEST PUSH2 0xE53 JUMP JUMPDEST CALLVALUE DUP1 ISZERO PUSH2 0x57A JUMPI PUSH1 0x0 DUP1 REVERT JUMPDEST POP PUSH2 0x3EE PUSH2 0x589 CALLDATASIZE PUSH1 0x4 PUSH2 0x3822 JUMP JUMPDEST PUSH2 0xE73 JUMP JUMPDEST CALLVALUE DUP1 ISZERO PUSH2 0x59A JUMPI PUSH1 0x0 DUP1 REVERT JUMPDEST POP PUSH2 0x3EE PUSH2 0x5A9 CALLDATASIZE PUSH1 0x4 PUSH2 0x3404 JUMP JUMPDEST PUSH2 0xEF1 JUMP JUMPDEST CALLVALUE DUP1 ISZERO PUSH2 0x5BA JUMPI PUSH1 0x0 DUP1 REVERT JUMPDEST POP PUSH2 0x331 PUSH2 0x19C SLOAD DUP2 JUMP JUMPDEST CALLVALUE DUP1 ISZERO PUSH2 0x5D1 JUMPI PUSH1 0x0 DUP1 REVERT JUMPDEST POP PUSH2 0x3EE PUSH2 0x5E0 CALLDATASIZE PUSH1 0x4 PUSH2 0x371B JUMP JUMPDEST PUSH2 0xFCD JUMP JUMPDEST CALLVALUE DUP1 ISZERO PUSH2 0x5F1 JUMPI PUSH1 0x0 DUP1 REVERT JUMPDEST POP PUSH2 0x3EE PUSH2 0x600 CALLDATASIZE PUSH1 0x4 PUSH2 0x34B5 JUMP JUMPDEST PUSH2 0xFE8 JUMP JUMPDEST CALLVALUE DUP1 ISZERO PUSH2 0x611 JUMPI PUSH1 0x0 DUP1 REVERT JUMPDEST POP PUSH2 0x389 PUSH2 0x1016 JUMP JUMPDEST PUSH2 0x3EE PUSH2 0x628 CALLDATASIZE PUSH1 0x4 PUSH2 0x38EE JUMP JUMPDEST PUSH2 0x10A5 JUMP JUMPDEST CALLVALUE DUP1 ISZERO PUSH2 0x639 JUMPI PUSH1 0x0 DUP1 REVERT JUMPDEST POP PUSH2 0x331 PUSH2 0x648 CALLDATASIZE PUSH1 0x4 PUSH2 0x34B5 JUMP JUMPDEST PUSH2 0x1171 JUMP JUMPDEST CALLVALUE DUP1 ISZERO PUSH2 0x659 JUMPI PUSH1 0x0 DUP1 REVERT JUMPDEST POP PUSH2 0x331 PUSH2 0x1204 JUMP JUMPDEST CALLVALUE DUP1 ISZERO PUSH2 0x66E JUMPI PUSH1 0x0 DUP1 REVERT JUMPDEST POP PUSH1 0x40 DUP1 MLOAD DUP1 DUP3 ADD SWAP1 SWAP2 MSTORE PUSH1 0x5 DUP2 MSTORE PUSH5 0x322E352E3 PUSH1 0xDC SHL PUSH1 0x20 DUP3 ADD MSTORE PUSH2 0x389 JUMP JUMPDEST CALLVALUE DUP1 ISZERO PUSH2 0x69C JUMPI PUSH1 0x0 DUP1 REVERT JUMPDEST POP PUSH2 0x3EE PUSH2 0x6AB CALLDATASIZE PUSH1 0x4 PUSH2 0x36DA JUMP JUMPDEST PUSH2 0x12B7 JUMP JUMPDEST CALLVALUE DUP1 ISZERO PUSH2 0x6BC JUMPI PUSH1 0x0 DUP1 REVERT JUMPDEST POP PUSH2 0x6D0 PUSH2 0x6CB CALLDATASIZE PUSH1 0x4 PUSH2 0x34B5 JUMP JUMPDEST PUSH2 0x12D0 JUMP JUMPDEST PUSH1 0x40 MLOAD PUSH2 0x33B SWAP4 SWAP3 SWAP2 SWAP1 PUSH2 0x393B JUMP JUMPDEST CALLVALUE DUP1 ISZERO PUSH2 0x6EB JUMPI PUSH1 0x0 DUP1 REVERT JUMPDEST POP PUSH2 0x331 PUSH2 0x19B SLOAD DUP2 JUMP JUMPDEST CALLVALUE DUP1 ISZERO PUSH2 0x702 JUMPI PUSH1 0x0 DUP1 REVERT JUMPDEST POP PUSH2 0x389 PUSH2 0x148B JUMP JUMPDEST CALLVALUE DUP1 ISZERO PUSH2 0x717 JUMPI PUSH1 0x0 DUP1 REVERT JUMPDEST POP PUSH2 0x3B6 PUSH2 0x726 CALLDATASIZE PUSH1 0x4 PUSH2 0x34B5 JUMP JUMPDEST PUSH2 0x1499 JUMP JUMPDEST CALLVALUE DUP1 ISZERO PUSH2 0x737 JUMPI PUSH1 0x0 DUP1 REVERT JUMPDEST POP PUSH2 0x389 PUSH2 0x14F9 JUMP JUMPDEST CALLVALUE DUP1 ISZERO PUSH2 0x74C JUMPI PUSH1 0x0 DUP1 REVERT JUMPDEST POP PUSH2 0x331 PUSH2 0x75B CALLDATASIZE PUSH1 0x4 PUSH2 0x3404 JUMP JUMPDEST PUSH2 0x1507 JUMP JUMPDEST CALLVALUE DUP1 ISZERO PUSH2 0x76C JUMPI PUSH1 0x0 DUP1 REVERT JUMPDEST POP PUSH2 0x331 PUSH2 0x19A SLOAD DUP2 JUMP JUMPDEST CALLVALUE DUP1 ISZERO PUSH2 0x783 JUMPI PUSH1 0x0 DUP1 REVERT JUMPDEST POP PUSH2 0x3EE PUSH2 0x158D JUMP JUMPDEST CALLVALUE DUP1 ISZERO PUSH2 0x798 JUMPI PUSH1 0x0 DUP1 REVERT JUMPDEST POP PUSH2 0x3EE PUSH2 0x7A7 CALLDATASIZE PUSH1 0x4 PUSH2 0x39F9 JUMP JUMPDEST PUSH2 0x1700 JUMP JUMPDEST CALLVALUE DUP1 ISZERO PUSH2 0x7B8 JUMPI PUSH1 0x0 DUP1 REVERT JUMPDEST POP PUSH2 0x364 PUSH2 0x7C7 CALLDATASIZE PUSH1 0x4 PUSH2 0x3822 JUMP JUMPDEST PUSH2 0x1CCC JUMP JUMPDEST CALLVALUE DUP1 ISZERO PUSH2 0x7D8 JUMPI PUSH1 0x0 DUP1 REVERT JUMPDEST POP PUSH2 0x389 PUSH2 0x1CF7 JUMP JUMPDEST CALLVALUE DUP1 ISZERO PUSH2 0x7ED JUMPI PUSH1 0x0 DUP1 REVERT JUMPDEST POP PUSH2 0x389 PUSH2 0x1D06 JUMP JUMPDEST CALLVALUE DUP1 ISZERO PUSH2 0x802 JUMPI PUSH1 0x0 DUP1 REVERT JUMPDEST POP PUSH2 0x331 PUSH1 0x0 DUP2 JUMP JUMPDEST CALLVALUE DUP1 ISZERO PUSH2 0x817 JUMPI PUSH1 0x0 DUP1 REVERT JUMPDEST POP PUSH2 0x3EE PUSH2 0x826 CALLDATASIZE PUSH1 0x4 PUSH2 0x3AC7 JUMP JUMPDEST PUSH2 0x1D14 JUMP JUMPDEST CALLVALUE DUP1 ISZERO PUSH2 0x837 JUMPI PUSH1 0x0 DUP1 REVERT JUMPDEST POP PUSH2 0x331 PUSH2 0x846 CALLDATASIZE PUSH1 0x4 PUSH2 0x365E JUMP JUMPDEST DUP1 MLOAD PUSH1 0x20 DUP2 DUP4 ADD DUP2 ADD DUP1 MLOAD PUSH2 0x19E DUP3 MSTORE SWAP3 DUP3 ADD SWAP2 SWAP1 SWAP4 ADD KECCAK256 SWAP2 MSTORE SLOAD DUP2 JUMP JUMPDEST CALLVALUE DUP1 ISZERO PUSH2 0x870 JUMPI PUSH1 0x0 DUP1 REVERT JUMPDEST POP PUSH2 0x3EE PUSH2 0x87F CALLDATASIZE PUSH1 0x4 PUSH2 0x3AFE JUMP JUMPDEST PUSH2 0x1D1F JUMP JUMPDEST CALLVALUE DUP1 ISZERO PUSH2 0x890 JUMPI PUSH1 0x0 DUP1 REVERT JUMPDEST POP PUSH2 0x3EE PUSH2 0x89F CALLDATASIZE PUSH1 0x4 PUSH2 0x3B65 JUMP JUMPDEST PUSH2 0x1D51 JUMP JUMPDEST CALLVALUE DUP1 ISZERO PUSH2 0x8B0 JUMPI PUSH1 0x0 DUP1 REVERT JUMPDEST POP PUSH2 0x389 PUSH2 0x8BF CALLDATASIZE PUSH1 0x4 PUSH2 0x34B5 JUMP JUMPDEST PUSH2 0x1DE1 JUMP JUMPDEST CALLVALUE DUP1 ISZERO PUSH2 0x8D0 JUMPI PUSH1 0x0 DUP1 REVERT JUMPDEST POP PUSH2 0x3EE PUSH2 0x8DF CALLDATASIZE PUSH1 0x4 PUSH2 0x3822 JUMP JUMPDEST PUSH2 0x1E48 JUMP JUMPDEST CALLVALUE DUP1 ISZERO PUSH2 0x8F0 JUMPI PUSH1 0x0 DUP1 REVERT JUMPDEST POP PUSH2 0x331 PUSH2 0x8FF CALLDATASIZE PUSH1 0x4 PUSH2 0x34B5 JUMP JUMPDEST PUSH2 0x1E6D JUMP JUMPDEST CALLVALUE DUP1 ISZERO PUSH2 0x910 JUMPI PUSH1 0x0 DUP1 REVERT JUMPDEST POP PUSH2 0x197 SLOAD PUSH2 0x3B6 SWAP1 PUSH1 0x1 PUSH1 0x1 PUSH1 0xA0 SHL SUB AND DUP2 JUMP JUMPDEST CALLVALUE DUP1 ISZERO PUSH2 0x931 JUMPI PUSH1 0x0 DUP1 REVERT JUMPDEST POP PUSH2 0x3EE PUSH2 0x940 CALLDATASIZE PUSH1 0x4 PUSH2 0x36DA JUMP JUMPDEST PUSH2 0x1E85 JUMP JUMPDEST CALLVALUE DUP1 ISZERO PUSH2 0x951 JUMPI PUSH1 0x0 DUP1 REVERT JUMPDEST POP PUSH2 0x3EE PUSH2 0x960 CALLDATASIZE PUSH1 0x4 PUSH2 0x36DA JUMP JUMPDEST PUSH2 0x1EBF JUMP JUMPDEST CALLVALUE DUP1 ISZERO PUSH2 0x971 JUMPI PUSH1 0x0 DUP1 REVERT JUMPDEST POP PUSH2 0x364 PUSH2 0x980 CALLDATASIZE PUSH1 0x4 PUSH2 0x3BB0 JUMP JUMPDEST PUSH1 0x1 PUSH1 0x1 PUSH1 0xA0 SHL SUB SWAP2 DUP3 AND PUSH1 0x0 SWAP1 DUP2 MSTORE PUSH1 0x6A PUSH1 0x20 SWAP1 DUP2 MSTORE PUSH1 0x40 DUP1 DUP4 KECCAK256 SWAP4 SWAP1 SWAP5 AND DUP3 MSTORE SWAP2 SWAP1 SWAP2 MSTORE KECCAK256 SLOAD PUSH1 0xFF AND SWAP1 JUMP JUMPDEST CALLVALUE DUP1 ISZERO PUSH2 0x9BA JUMPI PUSH1 0x0 DUP1 REVERT JUMPDEST POP PUSH2 0x389 PUSH2 0x1F04 JUMP JUMPDEST PUSH1 0x0 PUSH2 0x9CE DUP3 PUSH2 0x1F12 JUMP JUMPDEST SWAP3 SWAP2 POP POP JUMP JUMPDEST PUSH1 0x60 PUSH1 0x65 DUP1 SLOAD PUSH2 0x9E3 SWAP1 PUSH2 0x3BDA JUMP JUMPDEST DUP1 PUSH1 0x1F ADD PUSH1 0x20 DUP1 SWAP2 DIV MUL PUSH1 0x20 ADD PUSH1 0x40 MLOAD SWAP1 DUP2 ADD PUSH1 0x40 MSTORE DUP1 SWAP3 SWAP2 SWAP1 DUP2 DUP2 MSTORE PUSH1 0x20 ADD DUP3 DUP1 SLOAD PUSH2 0xA0F SWAP1 PUSH2 0x3BDA JUMP JUMPDEST DUP1 ISZERO PUSH2 0xA5C JUMPI DUP1 PUSH1 0x1F LT PUSH2 0xA31 JUMPI PUSH2 0x100 DUP1 DUP4 SLOAD DIV MUL DUP4 MSTORE SWAP2 PUSH1 0x20 ADD SWAP2 PUSH2 0xA5C JUMP JUMPDEST DUP3 ADD SWAP2 SWAP1 PUSH1 0x0 MSTORE PUSH1 0x20 PUSH1 0x0 KECCAK256 SWAP1 JUMPDEST DUP2 SLOAD DUP2 MSTORE SWAP1 PUSH1 0x1 ADD SWAP1 PUSH1 0x20 ADD DUP1 DUP4 GT PUSH2 0xA3F JUMPI DUP3 SWAP1 SUB PUSH1 0x1F AND DUP3 ADD SWAP2 JUMPDEST POP POP POP POP POP SWAP1 POP SWAP1 JUMP JUMPDEST PUSH1 0x0 PUSH2 0xA71 DUP3 PUSH2 0x1F37 JUMP JUMPDEST POP PUSH1 0x0 SWAP1 DUP2 MSTORE PUSH1 0x69 PUSH1 0x20 MSTORE PUSH1 0x40 SWAP1 KECCAK256 SLOAD PUSH1 0x1 PUSH1 0x1 PUSH1 0xA0 SHL SUB AND SWAP1 JUMP JUMPDEST PUSH1 0x0 PUSH2 0xA98 DUP3 PUSH2 0x1499 JUMP JUMPDEST SWAP1 POP DUP1 PUSH1 0x1 PUSH1 0x1 PUSH1 0xA0 SHL SUB AND DUP4 PUSH1 0x1 PUSH1 0x1 PUSH1 0xA0 SHL SUB AND SUB PUSH2 0xB0A JUMPI PUSH1 0x40 MLOAD PUSH3 0x461BCD PUSH1 0xE5 SHL DUP2 MSTORE PUSH1 0x20 PUSH1 0x4 DUP3 ADD MSTORE PUSH1 0x21 PUSH1 0x24 DUP3 ADD MSTORE PUSH32 0x4552433732313A20617070726F76616C20746F2063757272656E74206F776E65 PUSH1 0x44 DUP3 ADD MSTORE PUSH1 0x39 PUSH1 0xF9 SHL PUSH1 0x64 DUP3 ADD MSTORE PUSH1 0x84 ADD JUMPDEST PUSH1 0x40 MLOAD DUP1 SWAP2 SUB SWAP1 REVERT JUMPDEST CALLER PUSH1 0x1 PUSH1 0x1 PUSH1 0xA0 SHL SUB DUP3 AND EQ DUP1 PUSH2 0xB26 JUMPI POP PUSH2 0xB26 DUP2 CALLER PUSH2 0x980 JUMP JUMPDEST PUSH2 0xB98 JUMPI PUSH1 0x40 MLOAD PUSH3 0x461BCD PUSH1 0xE5 SHL DUP2 MSTORE PUSH1 0x20 PUSH1 0x4 DUP3 ADD MSTORE PUSH1 0x3E PUSH1 0x24 DUP3 ADD MSTORE PUSH32 0x4552433732313A20617070726F76652063616C6C6572206973206E6F7420746F PUSH1 0x44 DUP3 ADD MSTORE PUSH32 0x6B656E206F776E6572206E6F7220617070726F76656420666F7220616C6C0000 PUSH1 0x64 DUP3 ADD MSTORE PUSH1 0x84 ADD PUSH2 0xB01 JUMP JUMPDEST PUSH2 0xBA2 DUP4 DUP4 PUSH2 0x1F96 JUMP JUMPDEST POP POP POP JUMP JUMPDEST PUSH1 0x0 PUSH2 0xBB2 DUP2 PUSH2 0x2004 JUMP JUMPDEST PUSH1 0x0 JUMPDEST DUP4 DUP2 LT ISZERO PUSH2 0xC26 JUMPI DUP3 PUSH2 0x194 PUSH1 0x0 DUP8 DUP8 DUP6 DUP2 DUP2 LT PUSH2 0xBD5 JUMPI PUSH2 0xBD5 PUSH2 0x3C14 JUMP JUMPDEST SWAP1 POP PUSH1 0x20 MUL ADD PUSH1 0x20 DUP2 ADD SWAP1 PUSH2 0xBEA SWAP2 SWAP1 PUSH2 0x3404 JUMP JUMPDEST PUSH1 0x1 PUSH1 0x1 PUSH1 0xA0 SHL SUB AND PUSH1 0x1 PUSH1 0x1 PUSH1 0xA0 SHL SUB AND DUP2 MSTORE PUSH1 0x20 ADD SWAP1 DUP2 MSTORE PUSH1 0x20 ADD PUSH1 0x0 KECCAK256 PUSH1 0x0 DUP3 DUP3 SLOAD PUSH2 0xC19 SWAP2 SWAP1 PUSH2 0x3C40 JUMP JUMPDEST SWAP1 SWAP2 SSTORE POP POP PUSH1 0x1 ADD PUSH2 0xBB5 JUMP JUMPDEST POP POP POP POP POP JUMP JUMPDEST PUSH1 0x0 PUSH2 0xC38 DUP2 PUSH2 0x2004 JUMP JUMPDEST PUSH2 0x195 PUSH2 0xC46 DUP4 DUP6 DUP4 PUSH2 0x3CB0 JUMP JUMPDEST POP POP POP POP JUMP JUMPDEST PUSH2 0xC57 CALLER JUMPDEST DUP3 PUSH2 0x200E JUMP JUMPDEST PUSH2 0xC73 JUMPI PUSH1 0x40 MLOAD PUSH3 0x461BCD PUSH1 0xE5 SHL DUP2 MSTORE PUSH1 0x4 ADD PUSH2 0xB01 SWAP1 PUSH2 0x3D69 JUMP JUMPDEST PUSH2 0xBA2 DUP4 DUP4 DUP4 PUSH2 0x208D JUMP JUMPDEST PUSH1 0x0 PUSH2 0xC89 DUP2 PUSH2 0x2004 JUMP JUMPDEST PUSH2 0xC93 DUP8 DUP8 PUSH2 0x1EBF JUMP JUMPDEST PUSH2 0x197 DUP1 SLOAD PUSH1 0x1 PUSH1 0x1 PUSH1 0xA0 SHL SUB NOT AND PUSH1 0x1 PUSH1 0x1 PUSH1 0xA0 SHL SUB DUP13 AND OR SWAP1 SSTORE PUSH2 0xCBD PUSH2 0x198 DUP11 PUSH1 0x1 PUSH2 0x3395 JUMP JUMPDEST POP PUSH2 0x19F PUSH2 0xCCC DUP8 DUP10 DUP4 PUSH2 0x3CB0 JUMP JUMPDEST POP PUSH2 0x1A0 PUSH2 0xCDB DUP6 DUP8 DUP4 PUSH2 0x3CB0 JUMP JUMPDEST POP PUSH2 0x1A1 PUSH2 0xCEA DUP4 DUP6 DUP4 PUSH2 0x3CB0 JUMP JUMPDEST POP PUSH2 0x19B DUP9 SWAP1 SSTORE PUSH1 0x0 PUSH2 0x19C DUP2 SWAP1 SSTORE PUSH2 0x19A DUP1 SLOAD SWAP2 PUSH2 0xD08 DUP4 PUSH2 0x3DB7 JUMP JUMPDEST SWAP2 SWAP1 POP SSTORE POP POP POP POP POP POP POP POP POP POP POP JUMP JUMPDEST PUSH1 0x0 DUP3 DUP2 MSTORE PUSH1 0xFB PUSH1 0x20 MSTORE PUSH1 0x40 SWAP1 KECCAK256 PUSH1 0x1 ADD SLOAD PUSH2 0xD34 DUP2 PUSH2 0x2004 JUMP JUMPDEST PUSH2 0xBA2 DUP4 DUP4 PUSH2 0x2234 JUMP JUMPDEST PUSH1 0x0 PUSH2 0xD49 DUP4 PUSH2 0x1507 JUMP JUMPDEST DUP3 LT PUSH2 0xDAB JUMPI PUSH1 0x40 MLOAD PUSH3 0x461BCD PUSH1 0xE5 SHL DUP2 MSTORE PUSH1 0x20 PUSH1 0x4 DUP3 ADD MSTORE PUSH1 0x2B PUSH1 0x24 DUP3 ADD MSTORE PUSH32 0x455243373231456E756D657261626C653A206F776E657220696E646578206F75 PUSH1 0x44 DUP3 ADD MSTORE PUSH11 0x74206F6620626F756E6473 PUSH1 0xA8 SHL PUSH1 0x64 DUP3 ADD MSTORE PUSH1 0x84 ADD PUSH2 0xB01 JUMP JUMPDEST POP PUSH1 0x1 PUSH1 0x1 PUSH1 0xA0 SHL SUB SWAP2 SWAP1 SWAP2 AND PUSH1 0x0 SWAP1 DUP2 MSTORE PUSH1 0x97 PUSH1 0x20 SWAP1 DUP2 MSTORE PUSH1 0x40 DUP1 DUP4 KECCAK256 SWAP4 DUP4 MSTORE SWAP3 SWAP1 MSTORE KECCAK256 SLOAD SWAP1 JUMP JUMPDEST CALLER PUSH1 0x0 SWAP1 DUP2 MSTORE PUSH2 0x194 PUSH1 0x20 MSTORE PUSH1 0x40 SWAP1 KECCAK256 SLOAD PUSH2 0xE26 JUMPI PUSH1 0x40 MLOAD PUSH3 0x461BCD PUSH1 0xE5 SHL DUP2 MSTORE PUSH1 0x20 PUSH1 0x4 DUP3 ADD MSTORE PUSH1 0x12 PUSH1 0x24 DUP3 ADD MSTORE PUSH18 0x1B9BC81B5A5B9D1A5B99C8185B1B1BDDD959 PUSH1 0x72 SHL PUSH1 0x44 DUP3 ADD MSTORE PUSH1 0x64 ADD PUSH2 0xB01 JUMP JUMPDEST CALLER PUSH1 0x0 SWAP1 DUP2 MSTORE PUSH2 0x194 PUSH1 0x20 MSTORE PUSH1 0x40 DUP2 KECCAK256 DUP1 SLOAD SWAP2 PUSH2 0xE42 DUP4 PUSH2 0x3DD0 JUMP JUMPDEST SWAP2 SWAP1 POP SSTORE POP PUSH2 0xE50 DUP2 PUSH2 0x22BA JUMP JUMPDEST POP JUMP JUMPDEST PUSH1 0x0 PUSH2 0xE5E DUP2 PUSH2 0x2004 JUMP JUMPDEST PUSH2 0xE6B DUP7 DUP7 DUP7 DUP7 DUP7 PUSH2 0x2343 JUMP JUMPDEST POP POP POP POP POP POP JUMP JUMPDEST PUSH1 0x1 PUSH1 0x1 PUSH1 0xA0 SHL SUB DUP2 AND CALLER EQ PUSH2 0xEE3 JUMPI PUSH1 0x40 MLOAD PUSH3 0x461BCD PUSH1 0xE5 SHL DUP2 MSTORE PUSH1 0x20 PUSH1 0x4 DUP3 ADD MSTORE PUSH1 0x2F PUSH1 0x24 DUP3 ADD MSTORE PUSH32 0x416363657373436F6E74726F6C3A2063616E206F6E6C792072656E6F756E6365 PUSH1 0x44 DUP3 ADD MSTORE PUSH15 0x103937B632B9903337B91039B2B633 PUSH1 0x89 SHL PUSH1 0x64 DUP3 ADD MSTORE PUSH1 0x84 ADD PUSH2 0xB01 JUMP JUMPDEST PUSH2 0xEED DUP3 DUP3 PUSH2 0x247B JUMP JUMPDEST POP POP JUMP JUMPDEST PUSH1 0x1 PUSH1 0x1 PUSH1 0xA0 SHL SUB PUSH32 0x0 AND ADDRESS SUB PUSH2 0xF39 JUMPI PUSH1 0x40 MLOAD PUSH3 0x461BCD PUSH1 0xE5 SHL DUP2 MSTORE PUSH1 0x4 ADD PUSH2 0xB01 SWAP1 PUSH2 0x3DE7 JUMP JUMPDEST PUSH32 0x0 PUSH1 0x1 PUSH1 0x1 PUSH1 0xA0 SHL SUB AND PUSH2 0xF82 PUSH1 0x0 DUP1 MLOAD PUSH1 0x20 PUSH2 0x431D DUP4 CODECOPY DUP2 MLOAD SWAP2 MSTORE SLOAD PUSH1 0x1 PUSH1 0x1 PUSH1 0xA0 SHL SUB AND SWAP1 JUMP JUMPDEST PUSH1 0x1 PUSH1 0x1 PUSH1 0xA0 SHL SUB AND EQ PUSH2 0xFA8 JUMPI PUSH1 0x40 MLOAD PUSH3 0x461BCD PUSH1 0xE5 SHL DUP2 MSTORE PUSH1 0x4 ADD PUSH2 0xB01 SWAP1 PUSH2 0x3E33 JUMP JUMPDEST PUSH2 0xFB1 DUP2 PUSH2 0x24E2 JUMP JUMPDEST PUSH1 0x40 DUP1 MLOAD PUSH1 0x0 DUP1 DUP3 MSTORE PUSH1 0x20 DUP3 ADD SWAP1 SWAP3 MSTORE PUSH2 0xE50 SWAP2 DUP4 SWAP2 SWAP1 PUSH2 0x24ED JUMP JUMPDEST PUSH2 0xBA2 DUP4 DUP4 DUP4 PUSH1 0x40 MLOAD DUP1 PUSH1 0x20 ADD PUSH1 0x40 MSTORE DUP1 PUSH1 0x0 DUP2 MSTORE POP PUSH2 0x1D1F JUMP JUMPDEST PUSH2 0xFF1 CALLER PUSH2 0xC51 JUMP JUMPDEST PUSH2 0x100D JUMPI PUSH1 0x40 MLOAD PUSH3 0x461BCD PUSH1 0xE5 SHL DUP2 MSTORE PUSH1 0x4 ADD PUSH2 0xB01 SWAP1 PUSH2 0x3D69 JUMP JUMPDEST PUSH2 0xE50 DUP2 PUSH2 0x2658 JUMP JUMPDEST PUSH2 0x1A1 DUP1 SLOAD PUSH2 0x1024 SWAP1 PUSH2 0x3BDA JUMP JUMPDEST DUP1 PUSH1 0x1F ADD PUSH1 0x20 DUP1 SWAP2 DIV MUL PUSH1 0x20 ADD PUSH1 0x40 MLOAD SWAP1 DUP2 ADD PUSH1 0x40 MSTORE DUP1 SWAP3 SWAP2 SWAP1 DUP2 DUP2 MSTORE PUSH1 0x20 ADD DUP3 DUP1 SLOAD PUSH2 0x1050 SWAP1 PUSH2 0x3BDA JUMP JUMPDEST DUP1 ISZERO PUSH2 0x109D JUMPI DUP1 PUSH1 0x1F LT PUSH2 0x1072 JUMPI PUSH2 0x100 DUP1 DUP4 SLOAD DIV MUL DUP4 MSTORE SWAP2 PUSH1 0x20 ADD SWAP2 PUSH2 0x109D JUMP JUMPDEST DUP3 ADD SWAP2 SWAP1 PUSH1 0x0 MSTORE PUSH1 0x20 PUSH1 0x0 KECCAK256 SWAP1 JUMPDEST DUP2 SLOAD DUP2 MSTORE SWAP1 PUSH1 0x1 ADD SWAP1 PUSH1 0x20 ADD DUP1 DUP4 GT PUSH2 0x1080 JUMPI DUP3 SWAP1 SUB PUSH1 0x1F AND DUP3 ADD SWAP2 JUMPDEST POP POP POP POP POP DUP2 JUMP JUMPDEST PUSH1 0x1 PUSH1 0x1 PUSH1 0xA0 SHL SUB PUSH32 0x0 AND ADDRESS SUB PUSH2 0x10ED JUMPI PUSH1 0x40 MLOAD PUSH3 0x461BCD PUSH1 0xE5 SHL DUP2 MSTORE PUSH1 0x4 ADD PUSH2 0xB01 SWAP1 PUSH2 0x3DE7 JUMP JUMPDEST PUSH32 0x0 PUSH1 0x1 PUSH1 0x1 PUSH1 0xA0 SHL SUB AND PUSH2 0x1136 PUSH1 0x0 DUP1 MLOAD PUSH1 0x20 PUSH2 0x431D DUP4 CODECOPY DUP2 MLOAD SWAP2 MSTORE SLOAD PUSH1 0x1 PUSH1 0x1 PUSH1 0xA0 SHL SUB AND SWAP1 JUMP JUMPDEST PUSH1 0x1 PUSH1 0x1 PUSH1 0xA0 SHL SUB AND EQ PUSH2 0x115C JUMPI PUSH1 0x40 MLOAD PUSH3 0x461BCD PUSH1 0xE5 SHL DUP2 MSTORE PUSH1 0x4 ADD PUSH2 0xB01 SWAP1 PUSH2 0x3E33 JUMP JUMPDEST PUSH2 0x1165 DUP3 PUSH2 0x24E2 JUMP JUMPDEST PUSH2 0xEED DUP3 DUP3 PUSH1 0x1 PUSH2 0x24ED JUMP JUMPDEST PUSH1 0x0 PUSH2 0x117C PUSH1 0x99 SLOAD SWAP1 JUMP JUMPDEST DUP3 LT PUSH2 0x11DF JUMPI PUSH1 0x40 MLOAD PUSH3 0x461BCD PUSH1 0xE5 SHL DUP2 MSTORE PUSH1 0x20 PUSH1 0x4 DUP3 ADD MSTORE PUSH1 0x2C PUSH1 0x24 DUP3 ADD MSTORE PUSH32 0x455243373231456E756D657261626C653A20676C6F62616C20696E646578206F PUSH1 0x44 DUP3 ADD MSTORE PUSH12 0x7574206F6620626F756E6473 PUSH1 0xA0 SHL PUSH1 0x64 DUP3 ADD MSTORE PUSH1 0x84 ADD PUSH2 0xB01 JUMP JUMPDEST PUSH1 0x99 DUP3 DUP2 SLOAD DUP2 LT PUSH2 0x11F2 JUMPI PUSH2 0x11F2 PUSH2 0x3C14 JUMP JUMPDEST SWAP1 PUSH1 0x0 MSTORE PUSH1 0x20 PUSH1 0x0 KECCAK256 ADD SLOAD SWAP1 POP SWAP2 SWAP1 POP JUMP JUMPDEST PUSH1 0x0 ADDRESS PUSH1 0x1 PUSH1 0x1 PUSH1 0xA0 SHL SUB PUSH32 0x0 AND EQ PUSH2 0x12A4 JUMPI PUSH1 0x40 MLOAD PUSH3 0x461BCD PUSH1 0xE5 SHL DUP2 MSTORE PUSH1 0x20 PUSH1 0x4 DUP3 ADD MSTORE PUSH1 0x38 PUSH1 0x24 DUP3 ADD MSTORE PUSH32 0x555550535570677261646561626C653A206D757374206E6F742062652063616C PUSH1 0x44 DUP3 ADD MSTORE PUSH32 0x6C6564207468726F7567682064656C656761746563616C6C0000000000000000 PUSH1 0x64 DUP3 ADD MSTORE PUSH1 0x84 ADD PUSH2 0xB01 JUMP JUMPDEST POP PUSH1 0x0 DUP1 MLOAD PUSH1 0x20 PUSH2 0x431D DUP4 CODECOPY DUP2 MLOAD SWAP2 MSTORE SWAP1 JUMP JUMPDEST PUSH1 0x0 PUSH2 0x12C2 DUP2 PUSH2 0x2004 JUMP JUMPDEST PUSH2 0x196 PUSH2 0xC46 DUP4 DUP6 DUP4 PUSH2 0x3CB0 JUMP JUMPDEST PUSH2 0x193 PUSH1 0x20 MSTORE PUSH1 0x0 SWAP1 DUP2 MSTORE PUSH1 0x40 SWAP1 KECCAK256 DUP1 SLOAD DUP2 SWAP1 PUSH2 0x12EC SWAP1 PUSH2 0x3BDA JUMP JUMPDEST DUP1 PUSH1 0x1F ADD PUSH1 0x20 DUP1 SWAP2 DIV MUL PUSH1 0x20 ADD PUSH1 0x40 MLOAD SWAP1 DUP2 ADD PUSH1 0x40 MSTORE DUP1 SWAP3 SWAP2 SWAP1 DUP2 DUP2 MSTORE PUSH1 0x20 ADD DUP3 DUP1 SLOAD PUSH2 0x1318 SWAP1 PUSH2 0x3BDA JUMP JUMPDEST DUP1 ISZERO PUSH2 0x1365 JUMPI DUP1 PUSH1 0x1F LT PUSH2 0x133A JUMPI PUSH2 0x100 DUP1 DUP4 SLOAD DIV MUL DUP4 MSTORE SWAP2 PUSH1 0x20 ADD SWAP2 PUSH2 0x1365 JUMP JUMPDEST DUP3 ADD SWAP2 SWAP1 PUSH1 0x0 MSTORE PUSH1 0x20 PUSH1 0x0 KECCAK256 SWAP1 JUMPDEST DUP2 SLOAD DUP2 MSTORE SWAP1 PUSH1 0x1 ADD SWAP1 PUSH1 0x20 ADD DUP1 DUP4 GT PUSH2 0x1348 JUMPI DUP3 SWAP1 SUB PUSH1 0x1F AND DUP3 ADD SWAP2 JUMPDEST POP POP POP POP POP SWAP1 DUP1 PUSH1 0x1 ADD DUP1 SLOAD PUSH2 0x137A SWAP1 PUSH2 0x3BDA JUMP JUMPDEST DUP1 PUSH1 0x1F ADD PUSH1 0x20 DUP1 SWAP2 DIV MUL PUSH1 0x20 ADD PUSH1 0x40 MLOAD SWAP1 DUP2 ADD PUSH1 0x40 MSTORE DUP1 SWAP3 SWAP2 SWAP1 DUP2 DUP2 MSTORE PUSH1 0x20 ADD DUP3 DUP1 SLOAD PUSH2 0x13A6 SWAP1 PUSH2 0x3BDA JUMP JUMPDEST DUP1 ISZERO PUSH2 0x13F3 JUMPI DUP1 PUSH1 0x1F LT PUSH2 0x13C8 JUMPI PUSH2 0x100 DUP1 DUP4 SLOAD DIV MUL DUP4 MSTORE SWAP2 PUSH1 0x20 ADD SWAP2 PUSH2 0x13F3 JUMP JUMPDEST DUP3 ADD SWAP2 SWAP1 PUSH1 0x0 MSTORE PUSH1 0x20 PUSH1 0x0 KECCAK256 SWAP1 JUMPDEST DUP2 SLOAD DUP2 MSTORE SWAP1 PUSH1 0x1 ADD SWAP1 PUSH1 0x20 ADD DUP1 DUP4 GT PUSH2 0x13D6 JUMPI DUP3 SWAP1 SUB PUSH1 0x1F AND DUP3 ADD SWAP2 JUMPDEST POP POP POP POP POP SWAP1 DUP1 PUSH1 0x2 ADD DUP1 SLOAD PUSH2 0x1408 SWAP1 PUSH2 0x3BDA JUMP JUMPDEST DUP1 PUSH1 0x1F ADD PUSH1 0x20 DUP1 SWAP2 DIV MUL PUSH1 0x20 ADD PUSH1 0x40 MLOAD SWAP1 DUP2 ADD PUSH1 0x40 MSTORE DUP1 SWAP3 SWAP2 SWAP1 DUP2 DUP2 MSTORE PUSH1 0x20 ADD DUP3 DUP1 SLOAD PUSH2 0x1434 SWAP1 PUSH2 0x3BDA JUMP JUMPDEST DUP1 ISZERO PUSH2 0x1481 JUMPI DUP1 PUSH1 0x1F LT PUSH2 0x1456 JUMPI PUSH2 0x100 DUP1 DUP4 SLOAD DIV MUL DUP4 MSTORE SWAP2 PUSH1 0x20 ADD SWAP2 PUSH2 0x1481 JUMP JUMPDEST DUP3 ADD SWAP2 SWAP1 PUSH1 0x0 MSTORE PUSH1 0x20 PUSH1 0x0 KECCAK256 SWAP1 JUMPDEST DUP2 SLOAD DUP2 MSTORE SWAP1 PUSH1 0x1 ADD SWAP1 PUSH1 0x20 ADD DUP1 DUP4 GT PUSH2 0x1464 JUMPI DUP3 SWAP1 SUB PUSH1 0x1F AND DUP3 ADD SWAP2 JUMPDEST POP POP POP POP POP SWAP1 POP DUP4 JUMP JUMPDEST PUSH2 0x195 DUP1 SLOAD PUSH2 0x1024 SWAP1 PUSH2 0x3BDA JUMP JUMPDEST PUSH1 0x0 DUP2 DUP2 MSTORE PUSH1 0x67 PUSH1 0x20 MSTORE PUSH1 0x40 DUP2 KECCAK256 SLOAD PUSH1 0x1 PUSH1 0x1 PUSH1 0xA0 SHL SUB AND DUP1 PUSH2 0x9CE JUMPI PUSH1 0x40 MLOAD PUSH3 0x461BCD PUSH1 0xE5 SHL DUP2 MSTORE PUSH1 0x20 PUSH1 0x4 DUP3 ADD MSTORE PUSH1 0x18 PUSH1 0x24 DUP3 ADD MSTORE PUSH24 0x115490CDCC8C4E881A5B9D985B1A59081D1BDAD95B881251 PUSH1 0x42 SHL PUSH1 0x44 DUP3 ADD MSTORE PUSH1 0x64 ADD PUSH2 0xB01 JUMP JUMPDEST PUSH2 0x196 DUP1 SLOAD PUSH2 0x1024 SWAP1 PUSH2 0x3BDA JUMP JUMPDEST PUSH1 0x0 PUSH1 0x1 PUSH1 0x1 PUSH1 0xA0 SHL SUB DUP3 AND PUSH2 0x1571 JUMPI PUSH1 0x40 MLOAD PUSH3 0x461BCD PUSH1 0xE5 SHL DUP2 MSTORE PUSH1 0x20 PUSH1 0x4 DUP3 ADD MSTORE PUSH1 0x29 PUSH1 0x24 DUP3 ADD MSTORE PUSH32 0x4552433732313A2061646472657373207A65726F206973206E6F742061207661 PUSH1 0x44 DUP3 ADD MSTORE PUSH9 0x3634B21037BBB732B9 PUSH1 0xB9 SHL PUSH1 0x64 DUP3 ADD MSTORE PUSH1 0x84 ADD PUSH2 0xB01 JUMP JUMPDEST POP PUSH1 0x1 PUSH1 0x1 PUSH1 0xA0 SHL SUB AND PUSH1 0x0 SWAP1 DUP2 MSTORE PUSH1 0x68 PUSH1 0x20 MSTORE PUSH1 0x40 SWAP1 KECCAK256 SLOAD SWAP1 JUMP JUMPDEST PUSH1 0x0 SLOAD PUSH2 0x100 SWAP1 DIV PUSH1 0xFF AND ISZERO DUP1 DUP1 ISZERO PUSH2 0x15AD JUMPI POP PUSH1 0x0 SLOAD PUSH1 0x1 PUSH1 0xFF SWAP1 SWAP2 AND LT JUMPDEST DUP1 PUSH2 0x15C7 JUMPI POP ADDRESS EXTCODESIZE ISZERO DUP1 ISZERO PUSH2 0x15C7 JUMPI POP PUSH1 0x0 SLOAD PUSH1 0xFF AND PUSH1 0x1 EQ JUMPDEST PUSH2 0x162A JUMPI PUSH1 0x40 MLOAD PUSH3 0x461BCD PUSH1 0xE5 SHL DUP2 MSTORE PUSH1 0x20 PUSH1 0x4 DUP3 ADD MSTORE PUSH1 0x2E PUSH1 0x24 DUP3 ADD MSTORE PUSH32 0x496E697469616C697A61626C653A20636F6E747261637420697320616C726561 PUSH1 0x44 DUP3 ADD MSTORE PUSH14 0x191E481A5B9A5D1A585B1A5E9959 PUSH1 0x92 SHL PUSH1 0x64 DUP3 ADD MSTORE PUSH1 0x84 ADD PUSH2 0xB01 JUMP JUMPDEST PUSH1 0x0 DUP1 SLOAD PUSH1 0xFF NOT AND PUSH1 0x1 OR SWAP1 SSTORE DUP1 ISZERO PUSH2 0x164D JUMPI PUSH1 0x0 DUP1 SLOAD PUSH2 0xFF00 NOT AND PUSH2 0x100 OR SWAP1 SSTORE JUMPDEST PUSH2 0x168D PUSH1 0x40 MLOAD DUP1 PUSH1 0x40 ADD PUSH1 0x40 MSTORE DUP1 PUSH1 0x5 DUP2 MSTORE PUSH1 0x20 ADD PUSH5 0xA4CADAD2F PUSH1 0xDB SHL DUP2 MSTORE POP PUSH1 0x40 MLOAD DUP1 PUSH1 0x40 ADD PUSH1 0x40 MSTORE DUP1 PUSH1 0x1 DUP2 MSTORE PUSH1 0x20 ADD PUSH1 0x29 PUSH1 0xF9 SHL DUP2 MSTORE POP PUSH2 0x26FF JUMP JUMPDEST PUSH2 0x1695 PUSH2 0x2730 JUMP JUMPDEST PUSH2 0x169D PUSH2 0x2730 JUMP JUMPDEST PUSH2 0x16A5 PUSH2 0x2730 JUMP JUMPDEST PUSH2 0x16AD PUSH2 0x2730 JUMP JUMPDEST PUSH2 0x16B8 PUSH1 0x0 CALLER PUSH2 0x2759 JUMP JUMPDEST DUP1 ISZERO PUSH2 0xE50 JUMPI PUSH1 0x0 DUP1 SLOAD PUSH2 0xFF00 NOT AND SWAP1 SSTORE PUSH1 0x40 MLOAD PUSH1 0x1 DUP2 MSTORE PUSH32 0x7F26B83FF96E1F2B6A682F133852F6798A09C465DA95921460CEFB3847402498 SWAP1 PUSH1 0x20 ADD PUSH1 0x40 MLOAD DUP1 SWAP2 SUB SWAP1 LOG1 POP JUMP JUMPDEST PUSH2 0x197 SLOAD PUSH1 0x1 PUSH1 0x1 PUSH1 0xA0 SHL SUB AND PUSH2 0x1750 JUMPI PUSH1 0x40 MLOAD PUSH3 0x461BCD PUSH1 0xE5 SHL DUP2 MSTORE PUSH1 0x20 PUSH1 0x4 DUP3 ADD MSTORE PUSH1 0x14 PUSH1 0x24 DUP3 ADD MSTORE PUSH20 0x1B9BC818DA185B1B195B99D9481CDD185C9D1959 PUSH1 0x62 SHL PUSH1 0x44 DUP3 ADD MSTORE PUSH1 0x64 ADD PUSH2 0xB01 JUMP JUMPDEST PUSH2 0x19B SLOAD PUSH2 0x19C SLOAD LT PUSH2 0x17AF JUMPI PUSH1 0x40 MLOAD PUSH3 0x461BCD PUSH1 0xE5 SHL DUP2 MSTORE PUSH1 0x20 PUSH1 0x4 DUP3 ADD MSTORE PUSH1 0x21 PUSH1 0x24 DUP3 ADD MSTORE PUSH32 0x7075626C6973686572732072656163686564206D6178696D756D20616D6F756E PUSH1 0x44 DUP3 ADD MSTORE PUSH1 0x1D PUSH1 0xFA SHL PUSH1 0x64 DUP3 ADD MSTORE PUSH1 0x84 ADD PUSH2 0xB01 JUMP JUMPDEST PUSH2 0x19A SLOAD PUSH1 0x40 DUP1 DUP4 ADD MLOAD DUP2 MLOAD PUSH1 0x20 DUP2 ADD SWAP4 SWAP1 SWAP4 MSTORE SWAP1 DUP3 ADD MSTORE PUSH1 0x0 SWAP1 PUSH1 0x60 ADD PUSH1 0x40 DUP1 MLOAD DUP1 DUP4 SUB PUSH1 0x1F NOT ADD DUP2 MSTORE DUP3 DUP3 MSTORE PUSH2 0x19A SLOAD PUSH1 0x20 DUP5 ADD MSTORE CALLER PUSH1 0x60 SHL PUSH12 0xFFFFFFFFFFFFFFFFFFFFFFFF NOT AND DUP4 DUP4 ADD MSTORE DUP2 MLOAD PUSH1 0x34 DUP2 DUP6 SUB ADD DUP2 MSTORE PUSH1 0x54 SWAP1 SWAP4 ADD SWAP2 DUP3 SWAP1 MSTORE SWAP3 POP PUSH2 0x19D SWAP1 PUSH2 0x1821 SWAP1 DUP5 SWAP1 PUSH2 0x3E7F JUMP JUMPDEST SWAP1 DUP2 MSTORE PUSH1 0x20 ADD PUSH1 0x40 MLOAD DUP1 SWAP2 SUB SWAP1 KECCAK256 SLOAD PUSH1 0x0 EQ PUSH2 0x187F JUMPI PUSH1 0x40 MLOAD PUSH3 0x461BCD PUSH1 0xE5 SHL DUP2 MSTORE PUSH1 0x20 PUSH1 0x4 DUP3 ADD MSTORE PUSH1 0x17 PUSH1 0x24 DUP3 ADD MSTORE PUSH32 0x70726F6F6620616C7265616479207075626C6973686564000000000000000000 PUSH1 0x44 DUP3 ADD MSTORE PUSH1 0x64 ADD PUSH2 0xB01 JUMP JUMPDEST PUSH2 0x19E DUP2 PUSH1 0x40 MLOAD PUSH2 0x1890 SWAP2 SWAP1 PUSH2 0x3E7F JUMP JUMPDEST SWAP1 DUP2 MSTORE PUSH1 0x20 ADD PUSH1 0x40 MLOAD DUP1 SWAP2 SUB SWAP1 KECCAK256 SLOAD PUSH1 0x0 EQ PUSH2 0x18FE JUMPI PUSH1 0x40 MLOAD PUSH3 0x461BCD PUSH1 0xE5 SHL DUP2 MSTORE PUSH1 0x20 PUSH1 0x4 DUP3 ADD MSTORE PUSH1 0x27 PUSH1 0x24 DUP3 ADD MSTORE PUSH32 0x63757272656E74207075626C69736865722068617320616C7265616479207375 PUSH1 0x44 DUP3 ADD MSTORE PUSH7 0x189B5A5D1D1959 PUSH1 0xCA SHL PUSH1 0x64 DUP3 ADD MSTORE PUSH1 0x84 ADD PUSH2 0xB01 JUMP JUMPDEST PUSH1 0x20 DUP4 ADD MLOAD PUSH2 0x198 SLOAD EQ PUSH2 0x1954 JUMPI PUSH1 0x40 MLOAD PUSH3 0x461BCD PUSH1 0xE5 SHL DUP2 MSTORE PUSH1 0x20 PUSH1 0x4 DUP3 ADD MSTORE PUSH1 0x1F PUSH1 0x24 DUP3 ADD MSTORE PUSH32 0x70726F7669646564206368616C6C656E6765206973206E6F742076616C696400 PUSH1 0x44 DUP3 ADD MSTORE PUSH1 0x64 ADD PUSH2 0xB01 JUMP JUMPDEST PUSH2 0x197 SLOAD DUP5 MLOAD PUSH1 0x20 DUP7 ADD MLOAD PUSH1 0x40 DUP1 DUP9 ADD MLOAD SWAP1 MLOAD PUSH1 0x0 SWAP5 DUP6 SWAP5 PUSH1 0x1 PUSH1 0x1 PUSH1 0xA0 SHL SUB SWAP1 SWAP2 AND SWAP4 DUP6 SWAP4 PUSH2 0x1988 SWAP4 DUP12 SWAP1 PUSH1 0x24 ADD PUSH2 0x3EBE JUMP JUMPDEST PUSH1 0x40 DUP1 MLOAD PUSH1 0x1F NOT DUP2 DUP5 SUB ADD DUP2 MSTORE SWAP2 DUP2 MSTORE PUSH1 0x20 DUP3 ADD DUP1 MLOAD PUSH1 0x1 PUSH1 0x1 PUSH1 0xE0 SHL SUB AND PUSH4 0x8A3CFF5 PUSH1 0xE1 SHL OR SWAP1 MSTORE MLOAD PUSH2 0x19BD SWAP2 SWAP1 PUSH2 0x3E7F JUMP JUMPDEST PUSH1 0x0 PUSH1 0x40 MLOAD DUP1 DUP4 SUB DUP2 DUP6 DUP8 GAS CALL SWAP3 POP POP POP RETURNDATASIZE DUP1 PUSH1 0x0 DUP2 EQ PUSH2 0x19FA JUMPI PUSH1 0x40 MLOAD SWAP2 POP PUSH1 0x1F NOT PUSH1 0x3F RETURNDATASIZE ADD AND DUP3 ADD PUSH1 0x40 MSTORE RETURNDATASIZE DUP3 MSTORE RETURNDATASIZE PUSH1 0x0 PUSH1 0x20 DUP5 ADD RETURNDATACOPY PUSH2 0x19FF JUMP JUMPDEST PUSH1 0x60 SWAP2 POP JUMPDEST POP SWAP2 POP SWAP2 POP DUP2 PUSH2 0x1A51 JUMPI PUSH1 0x40 MLOAD PUSH3 0x461BCD PUSH1 0xE5 SHL DUP2 MSTORE PUSH1 0x20 PUSH1 0x4 DUP3 ADD MSTORE PUSH1 0x1F PUSH1 0x24 DUP3 ADD MSTORE PUSH32 0x7468652063616C6C20746F20746865207665726966696572206661696C656400 PUSH1 0x44 DUP3 ADD MSTORE PUSH1 0x64 ADD PUSH2 0xB01 JUMP JUMPDEST PUSH1 0x0 DUP2 DUP1 PUSH1 0x20 ADD SWAP1 MLOAD DUP2 ADD SWAP1 PUSH2 0x1A67 SWAP2 SWAP1 PUSH2 0x3F42 JUMP JUMPDEST SWAP1 POP DUP1 PUSH2 0x1AB6 JUMPI PUSH1 0x40 MLOAD PUSH3 0x461BCD PUSH1 0xE5 SHL DUP2 MSTORE PUSH1 0x20 PUSH1 0x4 DUP3 ADD MSTORE PUSH1 0x1E PUSH1 0x24 DUP3 ADD MSTORE PUSH32 0x7468652070726F76696465642070726F6F662069736E27742076616C69640000 PUSH1 0x44 DUP3 ADD MSTORE PUSH1 0x64 ADD PUSH2 0xB01 JUMP JUMPDEST PUSH2 0x1C65 CALLER PUSH2 0x19F DUP1 SLOAD PUSH2 0x1AC8 SWAP1 PUSH2 0x3BDA JUMP JUMPDEST DUP1 PUSH1 0x1F ADD PUSH1 0x20 DUP1 SWAP2 DIV MUL PUSH1 0x20 ADD PUSH1 0x40 MLOAD SWAP1 DUP2 ADD PUSH1 0x40 MSTORE DUP1 SWAP3 SWAP2 SWAP1 DUP2 DUP2 MSTORE PUSH1 0x20 ADD DUP3 DUP1 SLOAD PUSH2 0x1AF4 SWAP1 PUSH2 0x3BDA JUMP JUMPDEST DUP1 ISZERO PUSH2 0x1B41 JUMPI DUP1 PUSH1 0x1F LT PUSH2 0x1B16 JUMPI PUSH2 0x100 DUP1 DUP4 SLOAD DIV MUL DUP4 MSTORE SWAP2 PUSH1 0x20 ADD SWAP2 PUSH2 0x1B41 JUMP JUMPDEST DUP3 ADD SWAP2 SWAP1 PUSH1 0x0 MSTORE PUSH1 0x20 PUSH1 0x0 KECCAK256 SWAP1 JUMPDEST DUP2 SLOAD DUP2 MSTORE SWAP1 PUSH1 0x1 ADD SWAP1 PUSH1 0x20 ADD DUP1 DUP4 GT PUSH2 0x1B24 JUMPI DUP3 SWAP1 SUB PUSH1 0x1F AND DUP3 ADD SWAP2 JUMPDEST POP POP POP POP POP PUSH2 0x1A0 DUP1 SLOAD PUSH2 0x1B54 SWAP1 PUSH2 0x3BDA JUMP JUMPDEST DUP1 PUSH1 0x1F ADD PUSH1 0x20 DUP1 SWAP2 DIV MUL PUSH1 0x20 ADD PUSH1 0x40 MLOAD SWAP1 DUP2 ADD PUSH1 0x40 MSTORE DUP1 SWAP3 SWAP2 SWAP1 DUP2 DUP2 MSTORE PUSH1 0x20 ADD DUP3 DUP1 SLOAD PUSH2 0x1B80 SWAP1 PUSH2 0x3BDA JUMP JUMPDEST DUP1 ISZERO PUSH2 0x1BCD JUMPI DUP1 PUSH1 0x1F LT PUSH2 0x1BA2 JUMPI PUSH2 0x100 DUP1 DUP4 SLOAD DIV MUL DUP4 MSTORE SWAP2 PUSH1 0x20 ADD SWAP2 PUSH2 0x1BCD JUMP JUMPDEST DUP3 ADD SWAP2 SWAP1 PUSH1 0x0 MSTORE PUSH1 0x20 PUSH1 0x0 KECCAK256 SWAP1 JUMPDEST DUP2 SLOAD DUP2 MSTORE SWAP1 PUSH1 0x1 ADD SWAP1 PUSH1 0x20 ADD DUP1 DUP4 GT PUSH2 0x1BB0 JUMPI DUP3 SWAP1 SUB PUSH1 0x1F AND DUP3 ADD SWAP2 JUMPDEST POP POP POP POP POP PUSH2 0x1A1 DUP1 SLOAD PUSH2 0x1BE0 SWAP1 PUSH2 0x3BDA JUMP JUMPDEST DUP1 PUSH1 0x1F ADD PUSH1 0x20 DUP1 SWAP2 DIV MUL PUSH1 0x20 ADD PUSH1 0x40 MLOAD SWAP1 DUP2 ADD PUSH1 0x40 MSTORE DUP1 SWAP3 SWAP2 SWAP1 DUP2 DUP2 MSTORE PUSH1 0x20 ADD DUP3 DUP1 SLOAD PUSH2 0x1C0C SWAP1 PUSH2 0x3BDA JUMP JUMPDEST DUP1 ISZERO PUSH2 0x1C59 JUMPI DUP1 PUSH1 0x1F LT PUSH2 0x1C2E JUMPI PUSH2 0x100 DUP1 DUP4 SLOAD DIV MUL DUP4 MSTORE SWAP2 PUSH1 0x20 ADD SWAP2 PUSH2 0x1C59 JUMP JUMPDEST DUP3 ADD SWAP2 SWAP1 PUSH1 0x0 MSTORE PUSH1 0x20 PUSH1 0x0 KECCAK256 SWAP1 JUMPDEST DUP2 SLOAD DUP2 MSTORE SWAP1 PUSH1 0x1 ADD SWAP1 PUSH1 0x20 ADD DUP1 DUP4 GT PUSH2 0x1C3C JUMPI DUP3 SWAP1 SUB PUSH1 0x1F AND DUP3 ADD SWAP2 JUMPDEST POP POP POP POP POP PUSH1 0x1 PUSH2 0x2343 JUMP JUMPDEST PUSH2 0x19C DUP1 SLOAD SWAP1 PUSH1 0x0 PUSH2 0x1C76 DUP4 PUSH2 0x3DB7 JUMP JUMPDEST SWAP2 SWAP1 POP SSTORE POP PUSH1 0x1 PUSH2 0x19D DUP7 PUSH1 0x40 MLOAD PUSH2 0x1C8E SWAP2 SWAP1 PUSH2 0x3E7F JUMP JUMPDEST SWAP1 DUP2 MSTORE PUSH1 0x20 ADD PUSH1 0x40 MLOAD DUP1 SWAP2 SUB SWAP1 KECCAK256 DUP2 SWAP1 SSTORE POP PUSH1 0x1 PUSH2 0x19E DUP6 PUSH1 0x40 MLOAD PUSH2 0x1CB3 SWAP2 SWAP1 PUSH2 0x3E7F JUMP JUMPDEST SWAP1 DUP2 MSTORE PUSH1 0x40 MLOAD SWAP1 DUP2 SWAP1 SUB PUSH1 0x20 ADD SWAP1 KECCAK256 SSTORE POP POP POP POP POP POP POP JUMP JUMPDEST PUSH1 0x0 SWAP2 DUP3 MSTORE PUSH1 0xFB PUSH1 0x20 SWAP1 DUP2 MSTORE PUSH1 0x40 DUP1 DUP5 KECCAK256 PUSH1 0x1 PUSH1 0x1 PUSH1 0xA0 SHL SUB SWAP4 SWAP1 SWAP4 AND DUP5 MSTORE SWAP2 SWAP1 MSTORE SWAP1 KECCAK256 SLOAD PUSH1 0xFF AND SWAP1 JUMP JUMPDEST PUSH1 0x60 PUSH1 0x66 DUP1 SLOAD PUSH2 0x9E3 SWAP1 PUSH2 0x3BDA JUMP JUMPDEST PUSH2 0x19F DUP1 SLOAD PUSH2 0x1024 SWAP1 PUSH2 0x3BDA JUMP JUMPDEST PUSH2 0xEED CALLER DUP4 DUP4 PUSH2 0x2763 JUMP JUMPDEST PUSH2 0x1D29 CALLER DUP4 PUSH2 0x200E JUMP JUMPDEST PUSH2 0x1D45 JUMPI PUSH1 0x40 MLOAD PUSH3 0x461BCD PUSH1 0xE5 SHL DUP2 MSTORE PUSH1 0x4 ADD PUSH2 0xB01 SWAP1 PUSH2 0x3D69 JUMP JUMPDEST PUSH2 0xC46 DUP5 DUP5 DUP5 DUP5 PUSH2 0x2831 JUMP JUMPDEST PUSH1 0x0 PUSH2 0x1D5C DUP2 PUSH2 0x2004 JUMP JUMPDEST PUSH2 0x1D65 DUP5 PUSH2 0x1F37 JUMP JUMPDEST PUSH1 0x0 DUP5 DUP2 MSTORE PUSH2 0x193 PUSH1 0x20 MSTORE PUSH1 0x40 SWAP1 KECCAK256 PUSH1 0x2 ADD DUP1 SLOAD PUSH2 0x1D82 SWAP1 PUSH2 0x3BDA JUMP JUMPDEST ISZERO SWAP1 POP PUSH2 0x1DC4 JUMPI PUSH1 0x40 MLOAD PUSH3 0x461BCD PUSH1 0xE5 SHL DUP2 MSTORE PUSH1 0x20 PUSH1 0x4 DUP3 ADD MSTORE PUSH1 0x10 PUSH1 0x24 DUP3 ADD MSTORE PUSH16 0x1A185CDA08185B1C9958591E481CD95D PUSH1 0x82 SHL PUSH1 0x44 DUP3 ADD MSTORE PUSH1 0x64 ADD PUSH2 0xB01 JUMP JUMPDEST PUSH1 0x0 DUP5 DUP2 MSTORE PUSH2 0x193 PUSH1 0x20 MSTORE PUSH1 0x40 SWAP1 KECCAK256 PUSH1 0x2 ADD PUSH2 0xC26 DUP4 DUP6 DUP4 PUSH2 0x3CB0 JUMP JUMPDEST PUSH1 0x60 PUSH2 0x1DEC DUP3 PUSH2 0x1F37 JUMP JUMPDEST PUSH1 0x0 PUSH2 0x1DF6 PUSH2 0x2864 JUMP JUMPDEST SWAP1 POP PUSH1 0x0 DUP2 MLOAD GT PUSH2 0x1E16 JUMPI PUSH1 0x40 MLOAD DUP1 PUSH1 0x20 ADD PUSH1 0x40 MSTORE DUP1 PUSH1 0x0 DUP2 MSTORE POP PUSH2 0x1E41 JUMP JUMPDEST DUP1 PUSH2 0x1E20 DUP5 PUSH2 0x2874 JUMP JUMPDEST PUSH1 0x40 MLOAD PUSH1 0x20 ADD PUSH2 0x1E31 SWAP3 SWAP2 SWAP1 PUSH2 0x3F5F JUMP JUMPDEST PUSH1 0x40 MLOAD PUSH1 0x20 DUP2 DUP4 SUB SUB DUP2 MSTORE SWAP1 PUSH1 0x40 MSTORE JUMPDEST SWAP4 SWAP3 POP POP POP JUMP JUMPDEST PUSH1 0x0 DUP3 DUP2 MSTORE PUSH1 0xFB PUSH1 0x20 MSTORE PUSH1 0x40 SWAP1 KECCAK256 PUSH1 0x1 ADD SLOAD PUSH2 0x1E63 DUP2 PUSH2 0x2004 JUMP JUMPDEST PUSH2 0xBA2 DUP4 DUP4 PUSH2 0x247B JUMP JUMPDEST PUSH2 0x198 DUP2 PUSH1 0x2 DUP2 LT PUSH2 0x1E7E JUMPI PUSH1 0x0 DUP1 REVERT JUMPDEST ADD SLOAD SWAP1 POP DUP2 JUMP JUMPDEST PUSH1 0x0 PUSH2 0x1E90 DUP2 PUSH2 0x2004 JUMP JUMPDEST PUSH2 0x192 DUP4 DUP4 PUSH1 0x40 MLOAD PUSH2 0x1EA3 SWAP3 SWAP2 SWAP1 PUSH2 0x3F8E JUMP JUMPDEST SWAP1 DUP2 MSTORE PUSH1 0x40 MLOAD SWAP1 DUP2 SWAP1 SUB PUSH1 0x20 ADD SWAP1 KECCAK256 DUP1 SLOAD PUSH1 0xFF NOT AND SWAP1 SSTORE POP POP POP JUMP JUMPDEST PUSH1 0x0 PUSH2 0x1ECA DUP2 PUSH2 0x2004 JUMP JUMPDEST PUSH1 0x1 PUSH2 0x192 DUP5 DUP5 PUSH1 0x40 MLOAD PUSH2 0x1EDF SWAP3 SWAP2 SWAP1 PUSH2 0x3F8E JUMP JUMPDEST SWAP1 DUP2 MSTORE PUSH1 0x40 MLOAD SWAP1 DUP2 SWAP1 SUB PUSH1 0x20 ADD SWAP1 KECCAK256 DUP1 SLOAD SWAP2 ISZERO ISZERO PUSH1 0xFF NOT SWAP1 SWAP3 AND SWAP2 SWAP1 SWAP2 OR SWAP1 SSTORE POP POP POP JUMP JUMPDEST PUSH2 0x1A0 DUP1 SLOAD PUSH2 0x1024 SWAP1 PUSH2 0x3BDA JUMP JUMPDEST PUSH1 0x0 PUSH1 0x1 PUSH1 0x1 PUSH1 0xE0 SHL SUB NOT DUP3 AND PUSH4 0x7965DB0B PUSH1 0xE0 SHL EQ DUP1 PUSH2 0x9CE JUMPI POP PUSH2 0x9CE DUP3 PUSH2 0x2974 JUMP JUMPDEST PUSH1 0x0 DUP2 DUP2 MSTORE PUSH1 0x67 PUSH1 0x20 MSTORE PUSH1 0x40 SWAP1 KECCAK256 SLOAD PUSH1 0x1 PUSH1 0x1 PUSH1 0xA0 SHL SUB AND PUSH2 0xE50 JUMPI PUSH1 0x40 MLOAD PUSH3 0x461BCD PUSH1 0xE5 SHL DUP2 MSTORE PUSH1 0x20 PUSH1 0x4 DUP3 ADD MSTORE PUSH1 0x18 PUSH1 0x24 DUP3 ADD MSTORE PUSH24 0x115490CDCC8C4E881A5B9D985B1A59081D1BDAD95B881251 PUSH1 0x42 SHL PUSH1 0x44 DUP3 ADD MSTORE PUSH1 0x64 ADD PUSH2 0xB01 JUMP JUMPDEST PUSH1 0x0 DUP2 DUP2 MSTORE PUSH1 0x69 PUSH1 0x20 MSTORE PUSH1 0x40 SWAP1 KECCAK256 DUP1 SLOAD PUSH1 0x1 PUSH1 0x1 PUSH1 0xA0 SHL SUB NOT AND PUSH1 0x1 PUSH1 0x1 PUSH1 0xA0 SHL SUB DUP5 AND SWAP1 DUP2 OR SWAP1 SWAP2 SSTORE DUP2 SWAP1 PUSH2 0x1FCB DUP3 PUSH2 0x1499 JUMP JUMPDEST PUSH1 0x1 PUSH1 0x1 PUSH1 0xA0 SHL SUB AND PUSH32 0x8C5BE1E5EBEC7D5BD14F71427D1E84F3DD0314C0F7B2291E5B200AC8C7C3B925 PUSH1 0x40 MLOAD PUSH1 0x40 MLOAD DUP1 SWAP2 SUB SWAP1 LOG4 POP POP JUMP JUMPDEST PUSH2 0xE50 DUP2 CALLER PUSH2 0x2999 JUMP JUMPDEST PUSH1 0x0 DUP1 PUSH2 0x201A DUP4 PUSH2 0x1499 JUMP JUMPDEST SWAP1 POP DUP1 PUSH1 0x1 PUSH1 0x1 PUSH1 0xA0 SHL SUB AND DUP5 PUSH1 0x1 PUSH1 0x1 PUSH1 0xA0 SHL SUB AND EQ DUP1 PUSH2 0x2061 JUMPI POP PUSH1 0x1 PUSH1 0x1 PUSH1 0xA0 SHL SUB DUP1 DUP3 AND PUSH1 0x0 SWAP1 DUP2 MSTORE PUSH1 0x6A PUSH1 0x20 SWAP1 DUP2 MSTORE PUSH1 0x40 DUP1 DUP4 KECCAK256 SWAP4 DUP9 AND DUP4 MSTORE SWAP3 SWAP1 MSTORE KECCAK256 SLOAD PUSH1 0xFF AND JUMPDEST DUP1 PUSH2 0x2085 JUMPI POP DUP4 PUSH1 0x1 PUSH1 0x1 PUSH1 0xA0 SHL SUB AND PUSH2 0x207A DUP5 PUSH2 0xA66 JUMP JUMPDEST PUSH1 0x1 PUSH1 0x1 PUSH1 0xA0 SHL SUB AND EQ JUMPDEST SWAP5 SWAP4 POP POP POP POP JUMP JUMPDEST DUP3 PUSH1 0x1 PUSH1 0x1 PUSH1 0xA0 SHL SUB AND PUSH2 0x20A0 DUP3 PUSH2 0x1499 JUMP JUMPDEST PUSH1 0x1 PUSH1 0x1 PUSH1 0xA0 SHL SUB AND EQ PUSH2 0x2104 JUMPI PUSH1 0x40 MLOAD PUSH3 0x461BCD PUSH1 0xE5 SHL DUP2 MSTORE PUSH1 0x20 PUSH1 0x4 DUP3 ADD MSTORE PUSH1 0x25 PUSH1 0x24 DUP3 ADD MSTORE PUSH32 0x4552433732313A207472616E736665722066726F6D20696E636F727265637420 PUSH1 0x44 DUP3 ADD MSTORE PUSH5 0x37BBB732B9 PUSH1 0xD9 SHL PUSH1 0x64 DUP3 ADD MSTORE PUSH1 0x84 ADD PUSH2 0xB01 JUMP JUMPDEST PUSH1 0x1 PUSH1 0x1 PUSH1 0xA0 SHL SUB DUP3 AND PUSH2 0x2166 JUMPI PUSH1 0x40 MLOAD PUSH3 0x461BCD PUSH1 0xE5 SHL DUP2 MSTORE PUSH1 0x20 PUSH1 0x4 DUP3 ADD MSTORE PUSH1 0x24 DUP1 DUP3 ADD MSTORE PUSH32 0x4552433732313A207472616E7366657220746F20746865207A65726F20616464 PUSH1 0x44 DUP3 ADD MSTORE PUSH4 0x72657373 PUSH1 0xE0 SHL PUSH1 0x64 DUP3 ADD MSTORE PUSH1 0x84 ADD PUSH2 0xB01 JUMP JUMPDEST PUSH2 0x2171 DUP4 DUP4 DUP4 PUSH2 0x29FD JUMP JUMPDEST PUSH2 0x217C PUSH1 0x0 DUP3 PUSH2 0x1F96 JUMP JUMPDEST PUSH1 0x1 PUSH1 0x1 PUSH1 0xA0 SHL SUB DUP4 AND PUSH1 0x0 SWAP1 DUP2 MSTORE PUSH1 0x68 PUSH1 0x20 MSTORE PUSH1 0x40 DUP2 KECCAK256 DUP1 SLOAD PUSH1 0x1 SWAP3 SWAP1 PUSH2 0x21A5 SWAP1 DUP5 SWAP1 PUSH2 0x3F9E JUMP JUMPDEST SWAP1 SWAP2 SSTORE POP POP PUSH1 0x1 PUSH1 0x1 PUSH1 0xA0 SHL SUB DUP3 AND PUSH1 0x0 SWAP1 DUP2 MSTORE PUSH1 0x68 PUSH1 0x20 MSTORE PUSH1 0x40 DUP2 KECCAK256 DUP1 SLOAD PUSH1 0x1 SWAP3 SWAP1 PUSH2 0x21D3 SWAP1 DUP5 SWAP1 PUSH2 0x3C40 JUMP JUMPDEST SWAP1 SWAP2 SSTORE POP POP PUSH1 0x0 DUP2 DUP2 MSTORE PUSH1 0x67 PUSH1 0x20 MSTORE PUSH1 0x40 DUP1 DUP3 KECCAK256 DUP1 SLOAD PUSH1 0x1 PUSH1 0x1 PUSH1 0xA0 SHL SUB NOT AND PUSH1 0x1 PUSH1 0x1 PUSH1 0xA0 SHL SUB DUP7 DUP2 AND SWAP2 DUP3 OR SWAP1 SWAP3 SSTORE SWAP2 MLOAD DUP5 SWAP4 SWAP2 DUP8 AND SWAP2 PUSH32 0xDDF252AD1BE2C89B69C2B068FC378DAA952BA7F163C4A11628F55A4DF523B3EF SWAP2 LOG4 POP POP POP JUMP JUMPDEST PUSH2 0x223E DUP3 DUP3 PUSH2 0x1CCC JUMP JUMPDEST PUSH2 0xEED JUMPI PUSH1 0x0 DUP3 DUP2 MSTORE PUSH1 0xFB PUSH1 0x20 SWAP1 DUP2 MSTORE PUSH1 0x40 DUP1 DUP4 KECCAK256 PUSH1 0x1 PUSH1 0x1 PUSH1 0xA0 SHL SUB DUP6 AND DUP5 MSTORE SWAP1 SWAP2 MSTORE SWAP1 KECCAK256 DUP1 SLOAD PUSH1 0xFF NOT AND PUSH1 0x1 OR SWAP1 SSTORE PUSH2 0x2276 CALLER SWAP1 JUMP JUMPDEST PUSH1 0x1 PUSH1 0x1 PUSH1 0xA0 SHL SUB AND DUP2 PUSH1 0x1 PUSH1 0x1 PUSH1 0xA0 SHL SUB AND DUP4 PUSH32 0x2F8788117E7EFF1D82E926EC794901D17C78024A50270940304540A733656F0D PUSH1 0x40 MLOAD PUSH1 0x40 MLOAD DUP1 SWAP2 SUB SWAP1 LOG4 POP POP JUMP JUMPDEST PUSH1 0x0 PUSH2 0x22C6 PUSH2 0x191 SLOAD SWAP1 JUMP JUMPDEST SWAP1 POP PUSH2 0x22D7 PUSH2 0x191 DUP1 SLOAD PUSH1 0x1 ADD SWAP1 SSTORE JUMP JUMPDEST PUSH2 0x22E1 DUP3 DUP3 PUSH2 0x2A58 JUMP JUMPDEST PUSH1 0x40 MLOAD DUP1 PUSH1 0x40 ADD PUSH1 0x40 MSTORE DUP1 PUSH1 0x7 DUP2 MSTORE PUSH1 0x20 ADD PUSH7 0x2932B6B4BC32B9 PUSH1 0xC9 SHL DUP2 MSTORE POP PUSH2 0x193 PUSH1 0x0 DUP4 DUP2 MSTORE PUSH1 0x20 ADD SWAP1 DUP2 MSTORE PUSH1 0x20 ADD PUSH1 0x0 KECCAK256 PUSH1 0x1 ADD SWAP1 DUP2 PUSH2 0x2324 SWAP2 SWAP1 PUSH2 0x3FB1 JUMP JUMPDEST POP PUSH1 0x0 DUP2 DUP2 MSTORE PUSH2 0x193 PUSH1 0x20 MSTORE PUSH1 0x40 SWAP1 KECCAK256 PUSH1 0x2 ADD PUSH2 0xBA2 PUSH2 0x195 DUP3 PUSH2 0x406A JUMP JUMPDEST PUSH2 0x192 DUP5 PUSH1 0x40 MLOAD PUSH2 0x2354 SWAP2 SWAP1 PUSH2 0x3E7F JUMP JUMPDEST SWAP1 DUP2 MSTORE PUSH1 0x40 MLOAD SWAP1 DUP2 SWAP1 SUB PUSH1 0x20 ADD SWAP1 KECCAK256 SLOAD PUSH1 0xFF AND PUSH2 0x23B3 JUMPI PUSH1 0x40 MLOAD PUSH3 0x461BCD PUSH1 0xE5 SHL DUP2 MSTORE PUSH1 0x20 PUSH1 0x4 DUP3 ADD MSTORE PUSH1 0x17 PUSH1 0x24 DUP3 ADD MSTORE PUSH32 0x747970652073686F756C64206265206465636C61726564000000000000000000 PUSH1 0x44 DUP3 ADD MSTORE PUSH1 0x64 ADD PUSH2 0xB01 JUMP JUMPDEST PUSH1 0x0 PUSH2 0x23BF PUSH2 0x191 SLOAD SWAP1 JUMP JUMPDEST SWAP1 POP PUSH2 0x23D0 PUSH2 0x191 DUP1 SLOAD PUSH1 0x1 ADD SWAP1 SSTORE JUMP JUMPDEST PUSH2 0x23DA DUP7 DUP3 PUSH2 0x2A58 JUMP JUMPDEST PUSH1 0x0 DUP2 DUP2 MSTORE PUSH2 0x193 PUSH1 0x20 MSTORE PUSH1 0x40 SWAP1 KECCAK256 PUSH2 0x23F3 DUP6 DUP3 PUSH2 0x3FB1 JUMP JUMPDEST POP PUSH1 0x0 DUP2 DUP2 MSTORE PUSH2 0x193 PUSH1 0x20 MSTORE PUSH1 0x40 SWAP1 KECCAK256 PUSH1 0x1 ADD PUSH2 0x2410 DUP7 DUP3 PUSH2 0x3FB1 JUMP JUMPDEST POP PUSH1 0x0 DUP2 DUP2 MSTORE PUSH2 0x193 PUSH1 0x20 MSTORE PUSH1 0x40 SWAP1 KECCAK256 PUSH1 0x2 ADD PUSH2 0x242D DUP5 DUP3 PUSH2 0x3FB1 JUMP JUMPDEST POP DUP2 ISZERO PUSH2 0xE6B JUMPI PUSH1 0x1 PUSH1 0x1 PUSH1 0xA0 SHL SUB DUP7 AND PUSH1 0x0 SWAP1 DUP2 MSTORE PUSH2 0x194 PUSH1 0x20 MSTORE PUSH1 0x40 SWAP1 KECCAK256 SLOAD PUSH2 0x2459 SWAP1 DUP4 SWAP1 PUSH2 0x3C40 JUMP JUMPDEST PUSH1 0x1 PUSH1 0x1 PUSH1 0xA0 SHL SUB DUP8 AND PUSH1 0x0 SWAP1 DUP2 MSTORE PUSH2 0x194 PUSH1 0x20 MSTORE PUSH1 0x40 SWAP1 KECCAK256 SSTORE POP POP POP POP POP POP JUMP JUMPDEST PUSH2 0x2485 DUP3 DUP3 PUSH2 0x1CCC JUMP JUMPDEST ISZERO PUSH2 0xEED JUMPI PUSH1 0x0 DUP3 DUP2 MSTORE PUSH1 0xFB PUSH1 0x20 SWAP1 DUP2 MSTORE PUSH1 0x40 DUP1 DUP4 KECCAK256 PUSH1 0x1 PUSH1 0x1 PUSH1 0xA0 SHL SUB DUP6 AND DUP1 DUP6 MSTORE SWAP3 MSTORE DUP1 DUP4 KECCAK256 DUP1 SLOAD PUSH1 0xFF NOT AND SWAP1 SSTORE MLOAD CALLER SWAP3 DUP6 SWAP2 PUSH32 0xF6391F5C32D9C69D2A47EA670B442974B53935D1EDC7FD64EB21E047A839171B SWAP2 SWAP1 LOG4 POP POP JUMP JUMPDEST PUSH1 0x0 PUSH2 0xEED DUP2 PUSH2 0x2004 JUMP JUMPDEST PUSH32 0x4910FDFA16FED3260ED0E7147F7CC6DA11A60208B5B9406D12A635614FFD9143 SLOAD PUSH1 0xFF AND ISZERO PUSH2 0x2520 JUMPI PUSH2 0xBA2 DUP4 PUSH2 0x2A72 JUMP JUMPDEST DUP3 PUSH1 0x1 PUSH1 0x1 PUSH1 0xA0 SHL SUB AND PUSH4 0x52D1902D PUSH1 0x40 MLOAD DUP2 PUSH4 0xFFFFFFFF AND PUSH1 0xE0 SHL DUP2 MSTORE PUSH1 0x4 ADD PUSH1 0x20 PUSH1 0x40 MLOAD DUP1 DUP4 SUB DUP2 DUP7 GAS STATICCALL SWAP3 POP POP POP DUP1 ISZERO PUSH2 0x257A JUMPI POP PUSH1 0x40 DUP1 MLOAD PUSH1 0x1F RETURNDATASIZE SWAP1 DUP2 ADD PUSH1 0x1F NOT AND DUP3 ADD SWAP1 SWAP3 MSTORE PUSH2 0x2577 SWAP2 DUP2 ADD SWAP1 PUSH2 0x4136 JUMP JUMPDEST PUSH1 0x1 JUMPDEST PUSH2 0x25DD JUMPI PUSH1 0x40 MLOAD PUSH3 0x461BCD PUSH1 0xE5 SHL DUP2 MSTORE PUSH1 0x20 PUSH1 0x4 DUP3 ADD MSTORE PUSH1 0x2E PUSH1 0x24 DUP3 ADD MSTORE PUSH32 0x45524331393637557067726164653A206E657720696D706C656D656E74617469 PUSH1 0x44 DUP3 ADD MSTORE PUSH14 0x6F6E206973206E6F742055555053 PUSH1 0x90 SHL PUSH1 0x64 DUP3 ADD MSTORE PUSH1 0x84 ADD PUSH2 0xB01 JUMP JUMPDEST PUSH1 0x0 DUP1 MLOAD PUSH1 0x20 PUSH2 0x431D DUP4 CODECOPY DUP2 MLOAD SWAP2 MSTORE DUP2 EQ PUSH2 0x264C JUMPI PUSH1 0x40 MLOAD PUSH3 0x461BCD PUSH1 0xE5 SHL DUP2 MSTORE PUSH1 0x20 PUSH1 0x4 DUP3 ADD MSTORE PUSH1 0x29 PUSH1 0x24 DUP3 ADD MSTORE PUSH32 0x45524331393637557067726164653A20756E737570706F727465642070726F78 PUSH1 0x44 DUP3 ADD MSTORE PUSH9 0x1A58589B1955555251 PUSH1 0xBA SHL PUSH1 0x64 DUP3 ADD MSTORE PUSH1 0x84 ADD PUSH2 0xB01 JUMP JUMPDEST POP PUSH2 0xBA2 DUP4 DUP4 DUP4 PUSH2 0x2B0E JUMP JUMPDEST PUSH1 0x0 PUSH2 0x2663 DUP3 PUSH2 0x1499 JUMP JUMPDEST SWAP1 POP PUSH2 0x2671 DUP2 PUSH1 0x0 DUP5 PUSH2 0x29FD JUMP JUMPDEST PUSH2 0x267C PUSH1 0x0 DUP4 PUSH2 0x1F96 JUMP JUMPDEST PUSH1 0x1 PUSH1 0x1 PUSH1 0xA0 SHL SUB DUP2 AND PUSH1 0x0 SWAP1 DUP2 MSTORE PUSH1 0x68 PUSH1 0x20 MSTORE PUSH1 0x40 DUP2 KECCAK256 DUP1 SLOAD PUSH1 0x1 SWAP3 SWAP1 PUSH2 0x26A5 SWAP1 DUP5 SWAP1 PUSH2 0x3F9E JUMP JUMPDEST SWAP1 SWAP2 SSTORE POP POP PUSH1 0x0 DUP3 DUP2 MSTORE PUSH1 0x67 PUSH1 0x20 MSTORE PUSH1 0x40 DUP1 DUP3 KECCAK256 DUP1 SLOAD PUSH1 0x1 PUSH1 0x1 PUSH1 0xA0 SHL SUB NOT AND SWAP1 SSTORE MLOAD DUP4 SWAP2 SWAP1 PUSH1 0x1 PUSH1 0x1 PUSH1 0xA0 SHL SUB DUP5 AND SWAP1 PUSH32 0xDDF252AD1BE2C89B69C2B068FC378DAA952BA7F163C4A11628F55A4DF523B3EF SWAP1 DUP4 SWAP1 LOG4 POP POP JUMP JUMPDEST PUSH1 0x0 SLOAD PUSH2 0x100 SWAP1 DIV PUSH1 0xFF AND PUSH2 0x2726 JUMPI PUSH1 0x40 MLOAD PUSH3 0x461BCD PUSH1 0xE5 SHL DUP2 MSTORE PUSH1 0x4 ADD PUSH2 0xB01 SWAP1 PUSH2 0x414F JUMP JUMPDEST PUSH2 0xEED DUP3 DUP3 PUSH2 0x2B33 JUMP JUMPDEST PUSH1 0x0 SLOAD PUSH2 0x100 SWAP1 DIV PUSH1 0xFF AND PUSH2 0x2757 JUMPI PUSH1 0x40 MLOAD PUSH3 0x461BCD PUSH1 0xE5 SHL DUP2 MSTORE PUSH1 0x4 ADD PUSH2 0xB01 SWAP1 PUSH2 0x414F JUMP JUMPDEST JUMP JUMPDEST PUSH2 0xEED DUP3 DUP3 PUSH2 0x2234 JUMP JUMPDEST DUP2 PUSH1 0x1 PUSH1 0x1 PUSH1 0xA0 SHL SUB AND DUP4 PUSH1 0x1 PUSH1 0x1 PUSH1 0xA0 SHL SUB AND SUB PUSH2 0x27C4 JUMPI PUSH1 0x40 MLOAD PUSH3 0x461BCD PUSH1 0xE5 SHL DUP2 MSTORE PUSH1 0x20 PUSH1 0x4 DUP3 ADD MSTORE PUSH1 0x19 PUSH1 0x24 DUP3 ADD MSTORE PUSH32 0x4552433732313A20617070726F766520746F2063616C6C657200000000000000 PUSH1 0x44 DUP3 ADD MSTORE PUSH1 0x64 ADD PUSH2 0xB01 JUMP JUMPDEST PUSH1 0x1 PUSH1 0x1 PUSH1 0xA0 SHL SUB DUP4 DUP2 AND PUSH1 0x0 DUP2 DUP2 MSTORE PUSH1 0x6A PUSH1 0x20 SWAP1 DUP2 MSTORE PUSH1 0x40 DUP1 DUP4 KECCAK256 SWAP5 DUP8 AND DUP1 DUP5 MSTORE SWAP5 DUP3 MSTORE SWAP2 DUP3 SWAP1 KECCAK256 DUP1 SLOAD PUSH1 0xFF NOT AND DUP7 ISZERO ISZERO SWAP1 DUP2 OR SWAP1 SWAP2 SSTORE SWAP2 MLOAD SWAP2 DUP3 MSTORE PUSH32 0x17307EAB39AB6107E8899845AD3D59BD9653F200F220920489CA2B5937696C31 SWAP2 ADD PUSH1 0x40 MLOAD DUP1 SWAP2 SUB SWAP1 LOG3 POP POP POP JUMP JUMPDEST PUSH2 0x283C DUP5 DUP5 DUP5 PUSH2 0x208D JUMP JUMPDEST PUSH2 0x2848 DUP5 DUP5 DUP5 DUP5 PUSH2 0x2B73 JUMP JUMPDEST PUSH2 0xC46 JUMPI PUSH1 0x40 MLOAD PUSH3 0x461BCD PUSH1 0xE5 SHL DUP2 MSTORE PUSH1 0x4 ADD PUSH2 0xB01 SWAP1 PUSH2 0x419A JUMP JUMPDEST PUSH1 0x60 PUSH2 0x196 DUP1 SLOAD PUSH2 0x9E3 SWAP1 PUSH2 0x3BDA JUMP JUMPDEST PUSH1 0x60 DUP2 PUSH1 0x0 SUB PUSH2 0x289B JUMPI POP POP PUSH1 0x40 DUP1 MLOAD DUP1 DUP3 ADD SWAP1 SWAP2 MSTORE PUSH1 0x1 DUP2 MSTORE PUSH1 0x3 PUSH1 0xFC SHL PUSH1 0x20 DUP3 ADD MSTORE SWAP1 JUMP JUMPDEST DUP2 PUSH1 0x0 JUMPDEST DUP2 ISZERO PUSH2 0x28C5 JUMPI DUP1 PUSH2 0x28AF DUP2 PUSH2 0x3DB7 JUMP JUMPDEST SWAP2 POP PUSH2 0x28BE SWAP1 POP PUSH1 0xA DUP4 PUSH2 0x4202 JUMP JUMPDEST SWAP2 POP PUSH2 0x289F JUMP JUMPDEST PUSH1 0x0 DUP2 PUSH1 0x1 PUSH1 0x1 PUSH1 0x40 SHL SUB DUP2 GT ISZERO PUSH2 0x28DF JUMPI PUSH2 0x28DF PUSH2 0x3572 JUMP JUMPDEST PUSH1 0x40 MLOAD SWAP1 DUP1 DUP3 MSTORE DUP1 PUSH1 0x1F ADD PUSH1 0x1F NOT AND PUSH1 0x20 ADD DUP3 ADD PUSH1 0x40 MSTORE DUP1 ISZERO PUSH2 0x2909 JUMPI PUSH1 0x20 DUP3 ADD DUP2 DUP1 CALLDATASIZE DUP4 CALLDATACOPY ADD SWAP1 POP JUMPDEST POP SWAP1 POP JUMPDEST DUP5 ISZERO PUSH2 0x2085 JUMPI PUSH2 0x291E PUSH1 0x1 DUP4 PUSH2 0x3F9E JUMP JUMPDEST SWAP2 POP PUSH2 0x292B PUSH1 0xA DUP7 PUSH2 0x4216 JUMP JUMPDEST PUSH2 0x2936 SWAP1 PUSH1 0x30 PUSH2 0x3C40 JUMP JUMPDEST PUSH1 0xF8 SHL DUP2 DUP4 DUP2 MLOAD DUP2 LT PUSH2 0x294B JUMPI PUSH2 0x294B PUSH2 0x3C14 JUMP JUMPDEST PUSH1 0x20 ADD ADD SWAP1 PUSH1 0x1 PUSH1 0x1 PUSH1 0xF8 SHL SUB NOT AND SWAP1 DUP2 PUSH1 0x0 BYTE SWAP1 MSTORE8 POP PUSH2 0x296D PUSH1 0xA DUP7 PUSH2 0x4202 JUMP JUMPDEST SWAP5 POP PUSH2 0x290D JUMP JUMPDEST PUSH1 0x0 PUSH1 0x1 PUSH1 0x1 PUSH1 0xE0 SHL SUB NOT DUP3 AND PUSH4 0x780E9D63 PUSH1 0xE0 SHL EQ DUP1 PUSH2 0x9CE JUMPI POP PUSH2 0x9CE DUP3 PUSH2 0x2C74 JUMP JUMPDEST PUSH2 0x29A3 DUP3 DUP3 PUSH2 0x1CCC JUMP JUMPDEST PUSH2 0xEED JUMPI PUSH2 0x29BB DUP2 PUSH1 0x1 PUSH1 0x1 PUSH1 0xA0 SHL SUB AND PUSH1 0x14 PUSH2 0x2CC4 JUMP JUMPDEST PUSH2 0x29C6 DUP4 PUSH1 0x20 PUSH2 0x2CC4 JUMP JUMPDEST PUSH1 0x40 MLOAD PUSH1 0x20 ADD PUSH2 0x29D7 SWAP3 SWAP2 SWAP1 PUSH2 0x422A JUMP JUMPDEST PUSH1 0x40 DUP1 MLOAD PUSH1 0x1F NOT DUP2 DUP5 SUB ADD DUP2 MSTORE SWAP1 DUP3 SWAP1 MSTORE PUSH3 0x461BCD PUSH1 0xE5 SHL DUP3 MSTORE PUSH2 0xB01 SWAP2 PUSH1 0x4 ADD PUSH2 0x34A2 JUMP JUMPDEST PUSH1 0x1 PUSH1 0x1 PUSH1 0xA0 SHL SUB DUP4 AND ISZERO PUSH2 0x2A4D JUMPI PUSH1 0x40 MLOAD PUSH3 0x461BCD PUSH1 0xE5 SHL DUP2 MSTORE PUSH1 0x20 PUSH1 0x4 DUP3 ADD MSTORE PUSH1 0x16 PUSH1 0x24 DUP3 ADD MSTORE PUSH22 0x746F6B656E206E6F74207472616E7366657261626C65 PUSH1 0x50 SHL PUSH1 0x44 DUP3 ADD MSTORE PUSH1 0x64 ADD PUSH2 0xB01 JUMP JUMPDEST PUSH2 0xBA2 DUP4 DUP4 DUP4 PUSH2 0x2E5F JUMP JUMPDEST PUSH2 0xEED DUP3 DUP3 PUSH1 0x40 MLOAD DUP1 PUSH1 0x20 ADD PUSH1 0x40 MSTORE DUP1 PUSH1 0x0 DUP2 MSTORE POP PUSH2 0x2F17 JUMP JUMPDEST PUSH1 0x1 PUSH1 0x1 PUSH1 0xA0 SHL SUB DUP2 AND EXTCODESIZE PUSH2 0x2ADF JUMPI PUSH1 0x40 MLOAD PUSH3 0x461BCD PUSH1 0xE5 SHL DUP2 MSTORE PUSH1 0x20 PUSH1 0x4 DUP3 ADD MSTORE PUSH1 0x2D PUSH1 0x24 DUP3 ADD MSTORE PUSH32 0x455243313936373A206E657720696D706C656D656E746174696F6E206973206E PUSH1 0x44 DUP3 ADD MSTORE PUSH13 0x1BDD08184818DBDB9D1C9858DD PUSH1 0x9A SHL PUSH1 0x64 DUP3 ADD MSTORE PUSH1 0x84 ADD PUSH2 0xB01 JUMP JUMPDEST PUSH1 0x0 DUP1 MLOAD PUSH1 0x20 PUSH2 0x431D DUP4 CODECOPY DUP2 MLOAD SWAP2 MSTORE DUP1 SLOAD PUSH1 0x1 PUSH1 0x1 PUSH1 0xA0 SHL SUB NOT AND PUSH1 0x1 PUSH1 0x1 PUSH1 0xA0 SHL SUB SWAP3 SWAP1 SWAP3 AND SWAP2 SWAP1 SWAP2 OR SWAP1 SSTORE JUMP JUMPDEST PUSH2 0x2B17 DUP4 PUSH2 0x2F4A JUMP JUMPDEST PUSH1 0x0 DUP3 MLOAD GT DUP1 PUSH2 0x2B24 JUMPI POP DUP1 JUMPDEST ISZERO PUSH2 0xBA2 JUMPI PUSH2 0xC46 DUP4 DUP4 PUSH2 0x2F8A JUMP JUMPDEST PUSH1 0x0 SLOAD PUSH2 0x100 SWAP1 DIV PUSH1 0xFF AND PUSH2 0x2B5A JUMPI PUSH1 0x40 MLOAD PUSH3 0x461BCD PUSH1 0xE5 SHL DUP2 MSTORE PUSH1 0x4 ADD PUSH2 0xB01 SWAP1 PUSH2 0x414F JUMP JUMPDEST PUSH1 0x65 PUSH2 0x2B66 DUP4 DUP3 PUSH2 0x3FB1 JUMP JUMPDEST POP PUSH1 0x66 PUSH2 0xBA2 DUP3 DUP3 PUSH2 0x3FB1 JUMP JUMPDEST PUSH1 0x0 PUSH1 0x1 PUSH1 0x1 PUSH1 0xA0 SHL SUB DUP5 AND EXTCODESIZE ISZERO PUSH2 0x2C69 JUMPI PUSH1 0x40 MLOAD PUSH4 0xA85BD01 PUSH1 0xE1 SHL DUP2 MSTORE PUSH1 0x1 PUSH1 0x1 PUSH1 0xA0 SHL SUB DUP6 AND SWAP1 PUSH4 0x150B7A02 SWAP1 PUSH2 0x2BB7 SWAP1 CALLER SWAP1 DUP10 SWAP1 DUP9 SWAP1 DUP9 SWAP1 PUSH1 0x4 ADD PUSH2 0x429F JUMP JUMPDEST PUSH1 0x20 PUSH1 0x40 MLOAD DUP1 DUP4 SUB DUP2 PUSH1 0x0 DUP8 GAS CALL SWAP3 POP POP POP DUP1 ISZERO PUSH2 0x2BF2 JUMPI POP PUSH1 0x40 DUP1 MLOAD PUSH1 0x1F RETURNDATASIZE SWAP1 DUP2 ADD PUSH1 0x1F NOT AND DUP3 ADD SWAP1 SWAP3 MSTORE PUSH2 0x2BEF SWAP2 DUP2 ADD SWAP1 PUSH2 0x42D2 JUMP JUMPDEST PUSH1 0x1 JUMPDEST PUSH2 0x2C4F JUMPI RETURNDATASIZE DUP1 DUP1 ISZERO PUSH2 0x2C20 JUMPI PUSH1 0x40 MLOAD SWAP2 POP PUSH1 0x1F NOT PUSH1 0x3F RETURNDATASIZE ADD AND DUP3 ADD PUSH1 0x40 MSTORE RETURNDATASIZE DUP3 MSTORE RETURNDATASIZE PUSH1 0x0 PUSH1 0x20 DUP5 ADD RETURNDATACOPY PUSH2 0x2C25 JUMP JUMPDEST PUSH1 0x60 SWAP2 POP JUMPDEST POP DUP1 MLOAD PUSH1 0x0 SUB PUSH2 0x2C47 JUMPI PUSH1 0x40 MLOAD PUSH3 0x461BCD PUSH1 0xE5 SHL DUP2 MSTORE PUSH1 0x4 ADD PUSH2 0xB01 SWAP1 PUSH2 0x419A JUMP JUMPDEST DUP1 MLOAD DUP2 PUSH1 0x20 ADD REVERT JUMPDEST PUSH1 0x1 PUSH1 0x1 PUSH1 0xE0 SHL SUB NOT AND PUSH4 0xA85BD01 PUSH1 0xE1 SHL EQ SWAP1 POP PUSH2 0x2085 JUMP JUMPDEST POP PUSH1 0x1 SWAP5 SWAP4 POP POP POP POP JUMP JUMPDEST PUSH1 0x0 PUSH1 0x1 PUSH1 0x1 PUSH1 0xE0 SHL SUB NOT DUP3 AND PUSH4 0x80AC58CD PUSH1 0xE0 SHL EQ DUP1 PUSH2 0x2CA5 JUMPI POP PUSH1 0x1 PUSH1 0x1 PUSH1 0xE0 SHL SUB NOT DUP3 AND PUSH4 0x5B5E139F PUSH1 0xE0 SHL EQ JUMPDEST DUP1 PUSH2 0x9CE JUMPI POP PUSH4 0x1FFC9A7 PUSH1 0xE0 SHL PUSH1 0x1 PUSH1 0x1 PUSH1 0xE0 SHL SUB NOT DUP4 AND EQ PUSH2 0x9CE JUMP JUMPDEST PUSH1 0x60 PUSH1 0x0 PUSH2 0x2CD3 DUP4 PUSH1 0x2 PUSH2 0x42EF JUMP JUMPDEST PUSH2 0x2CDE SWAP1 PUSH1 0x2 PUSH2 0x3C40 JUMP JUMPDEST PUSH1 0x1 PUSH1 0x1 PUSH1 0x40 SHL SUB DUP2 GT ISZERO PUSH2 0x2CF5 JUMPI PUSH2 0x2CF5 PUSH2 0x3572 JUMP JUMPDEST PUSH1 0x40 MLOAD SWAP1 DUP1 DUP3 MSTORE DUP1 PUSH1 0x1F ADD PUSH1 0x1F NOT AND PUSH1 0x20 ADD DUP3 ADD PUSH1 0x40 MSTORE DUP1 ISZERO PUSH2 0x2D1F JUMPI PUSH1 0x20 DUP3 ADD DUP2 DUP1 CALLDATASIZE DUP4 CALLDATACOPY ADD SWAP1 POP JUMPDEST POP SWAP1 POP PUSH1 0x3 PUSH1 0xFC SHL DUP2 PUSH1 0x0 DUP2 MLOAD DUP2 LT PUSH2 0x2D3A JUMPI PUSH2 0x2D3A PUSH2 0x3C14 JUMP JUMPDEST PUSH1 0x20 ADD ADD SWAP1 PUSH1 0x1 PUSH1 0x1 PUSH1 0xF8 SHL SUB NOT AND SWAP1 DUP2 PUSH1 0x0 BYTE SWAP1 MSTORE8 POP PUSH1 0xF PUSH1 0xFB SHL DUP2 PUSH1 0x1 DUP2 MLOAD DUP2 LT PUSH2 0x2D69 JUMPI PUSH2 0x2D69 PUSH2 0x3C14 JUMP JUMPDEST PUSH1 0x20 ADD ADD SWAP1 PUSH1 0x1 PUSH1 0x1 PUSH1 0xF8 SHL SUB NOT AND SWAP1 DUP2 PUSH1 0x0 BYTE SWAP1 MSTORE8 POP PUSH1 0x0 PUSH2 0x2D8D DUP5 PUSH1 0x2 PUSH2 0x42EF JUMP JUMPDEST PUSH2 0x2D98 SWAP1 PUSH1 0x1 PUSH2 0x3C40 JUMP JUMPDEST SWAP1 POP JUMPDEST PUSH1 0x1 DUP2 GT ISZERO PUSH2 0x2E10 JUMPI PUSH16 0x181899199A1A9B1B9C1CB0B131B232B3 PUSH1 0x81 SHL DUP6 PUSH1 0xF AND PUSH1 0x10 DUP2 LT PUSH2 0x2DCC JUMPI PUSH2 0x2DCC PUSH2 0x3C14 JUMP JUMPDEST BYTE PUSH1 0xF8 SHL DUP3 DUP3 DUP2 MLOAD DUP2 LT PUSH2 0x2DE2 JUMPI PUSH2 0x2DE2 PUSH2 0x3C14 JUMP JUMPDEST PUSH1 0x20 ADD ADD SWAP1 PUSH1 0x1 PUSH1 0x1 PUSH1 0xF8 SHL SUB NOT AND SWAP1 DUP2 PUSH1 0x0 BYTE SWAP1 MSTORE8 POP PUSH1 0x4 SWAP5 SWAP1 SWAP5 SHR SWAP4 PUSH2 0x2E09 DUP2 PUSH2 0x3DD0 JUMP JUMPDEST SWAP1 POP PUSH2 0x2D9B JUMP JUMPDEST POP DUP4 ISZERO PUSH2 0x1E41 JUMPI PUSH1 0x40 MLOAD PUSH3 0x461BCD PUSH1 0xE5 SHL DUP2 MSTORE PUSH1 0x20 PUSH1 0x4 DUP3 ADD DUP2 SWAP1 MSTORE PUSH1 0x24 DUP3 ADD MSTORE PUSH32 0x537472696E67733A20686578206C656E67746820696E73756666696369656E74 PUSH1 0x44 DUP3 ADD MSTORE PUSH1 0x64 ADD PUSH2 0xB01 JUMP JUMPDEST PUSH1 0x1 PUSH1 0x1 PUSH1 0xA0 SHL SUB DUP4 AND PUSH2 0x2EBA JUMPI PUSH2 0x2EB5 DUP2 PUSH1 0x99 DUP1 SLOAD PUSH1 0x0 DUP4 DUP2 MSTORE PUSH1 0x9A PUSH1 0x20 MSTORE PUSH1 0x40 DUP2 KECCAK256 DUP3 SWAP1 SSTORE PUSH1 0x1 DUP3 ADD DUP4 SSTORE SWAP2 SWAP1 SWAP2 MSTORE PUSH32 0x72A152DDFB8E864297C917AF52EA6C1C68AEAD0FEE1A62673FCC7E0C94979D00 ADD SSTORE JUMP JUMPDEST PUSH2 0x2EDD JUMP JUMPDEST DUP2 PUSH1 0x1 PUSH1 0x1 PUSH1 0xA0 SHL SUB AND DUP4 PUSH1 0x1 PUSH1 0x1 PUSH1 0xA0 SHL SUB AND EQ PUSH2 0x2EDD JUMPI PUSH2 0x2EDD DUP4 DUP3 PUSH2 0x307E JUMP JUMPDEST PUSH1 0x1 PUSH1 0x1 PUSH1 0xA0 SHL SUB DUP3 AND PUSH2 0x2EF4 JUMPI PUSH2 0xBA2 DUP2 PUSH2 0x311B JUMP JUMPDEST DUP3 PUSH1 0x1 PUSH1 0x1 PUSH1 0xA0 SHL SUB AND DUP3 PUSH1 0x1 PUSH1 0x1 PUSH1 0xA0 SHL SUB AND EQ PUSH2 0xBA2 JUMPI PUSH2 0xBA2 DUP3 DUP3 PUSH2 0x31CA JUMP JUMPDEST PUSH2 0x2F21 DUP4 DUP4 PUSH2 0x320E JUMP JUMPDEST PUSH2 0x2F2E PUSH1 0x0 DUP5 DUP5 DUP5 PUSH2 0x2B73 JUMP JUMPDEST PUSH2 0xBA2 JUMPI PUSH1 0x40 MLOAD PUSH3 0x461BCD PUSH1 0xE5 SHL DUP2 MSTORE PUSH1 0x4 ADD PUSH2 0xB01 SWAP1 PUSH2 0x419A JUMP JUMPDEST PUSH2 0x2F53 DUP2 PUSH2 0x2A72 JUMP JUMPDEST PUSH1 0x40 MLOAD PUSH1 0x1 PUSH1 0x1 PUSH1 0xA0 SHL SUB DUP3 AND SWAP1 PUSH32 0xBC7CD75A20EE27FD9ADEBAB32041F755214DBC6BFFA90CC0225B39DA2E5C2D3B SWAP1 PUSH1 0x0 SWAP1 LOG2 POP JUMP JUMPDEST PUSH1 0x60 PUSH1 0x1 PUSH1 0x1 PUSH1 0xA0 SHL SUB DUP4 AND EXTCODESIZE PUSH2 0x2FF2 JUMPI PUSH1 0x40 MLOAD PUSH3 0x461BCD PUSH1 0xE5 SHL DUP2 MSTORE PUSH1 0x20 PUSH1 0x4 DUP3 ADD MSTORE PUSH1 0x26 PUSH1 0x24 DUP3 ADD MSTORE PUSH32 0x416464726573733A2064656C65676174652063616C6C20746F206E6F6E2D636F PUSH1 0x44 DUP3 ADD MSTORE PUSH6 0x1B9D1C9858DD PUSH1 0xD2 SHL PUSH1 0x64 DUP3 ADD MSTORE PUSH1 0x84 ADD PUSH2 0xB01 JUMP JUMPDEST PUSH1 0x0 DUP1 DUP5 PUSH1 0x1 PUSH1 0x1 PUSH1 0xA0 SHL SUB AND DUP5 PUSH1 0x40 MLOAD PUSH2 0x300D SWAP2 SWAP1 PUSH2 0x3E7F JUMP JUMPDEST PUSH1 0x0 PUSH1 0x40 MLOAD DUP1 DUP4 SUB DUP2 DUP6 GAS DELEGATECALL SWAP2 POP POP RETURNDATASIZE DUP1 PUSH1 0x0 DUP2 EQ PUSH2 0x3048 JUMPI PUSH1 0x40 MLOAD SWAP2 POP PUSH1 0x1F NOT PUSH1 0x3F RETURNDATASIZE ADD AND DUP3 ADD PUSH1 0x40 MSTORE RETURNDATASIZE DUP3 MSTORE RETURNDATASIZE PUSH1 0x0 PUSH1 0x20 DUP5 ADD RETURNDATACOPY PUSH2 0x304D JUMP JUMPDEST PUSH1 0x60 SWAP2 POP JUMPDEST POP SWAP2 POP SWAP2 POP PUSH2 0x3075 DUP3 DUP3 PUSH1 0x40 MLOAD DUP1 PUSH1 0x60 ADD PUSH1 0x40 MSTORE DUP1 PUSH1 0x27 DUP2 MSTORE PUSH1 0x20 ADD PUSH2 0x433D PUSH1 0x27 SWAP2 CODECOPY PUSH2 0x335C JUMP JUMPDEST SWAP6 SWAP5 POP POP POP POP POP JUMP JUMPDEST PUSH1 0x0 PUSH1 0x1 PUSH2 0x308B DUP5 PUSH2 0x1507 JUMP JUMPDEST PUSH2 0x3095 SWAP2 SWAP1 PUSH2 0x3F9E JUMP JUMPDEST PUSH1 0x0 DUP4 DUP2 MSTORE PUSH1 0x98 PUSH1 0x20 MSTORE PUSH1 0x40 SWAP1 KECCAK256 SLOAD SWAP1 SWAP2 POP DUP1 DUP3 EQ PUSH2 0x30E8 JUMPI PUSH1 0x1 PUSH1 0x1 PUSH1 0xA0 SHL SUB DUP5 AND PUSH1 0x0 SWAP1 DUP2 MSTORE PUSH1 0x97 PUSH1 0x20 SWAP1 DUP2 MSTORE PUSH1 0x40 DUP1 DUP4 KECCAK256 DUP6 DUP5 MSTORE DUP3 MSTORE DUP1 DUP4 KECCAK256 SLOAD DUP5 DUP5 MSTORE DUP2 DUP5 KECCAK256 DUP2 SWAP1 SSTORE DUP4 MSTORE PUSH1 0x98 SWAP1 SWAP2 MSTORE SWAP1 KECCAK256 DUP2 SWAP1 SSTORE JUMPDEST POP PUSH1 0x0 SWAP2 DUP3 MSTORE PUSH1 0x98 PUSH1 0x20 SWAP1 DUP2 MSTORE PUSH1 0x40 DUP1 DUP5 KECCAK256 DUP5 SWAP1 SSTORE PUSH1 0x1 PUSH1 0x1 PUSH1 0xA0 SHL SUB SWAP1 SWAP5 AND DUP4 MSTORE PUSH1 0x97 DUP2 MSTORE DUP4 DUP4 KECCAK256 SWAP2 DUP4 MSTORE MSTORE SWAP1 DUP2 KECCAK256 SSTORE JUMP JUMPDEST PUSH1 0x99 SLOAD PUSH1 0x0 SWAP1 PUSH2 0x312D SWAP1 PUSH1 0x1 SWAP1 PUSH2 0x3F9E JUMP JUMPDEST PUSH1 0x0 DUP4 DUP2 MSTORE PUSH1 0x9A PUSH1 0x20 MSTORE PUSH1 0x40 DUP2 KECCAK256 SLOAD PUSH1 0x99 DUP1 SLOAD SWAP4 SWAP5 POP SWAP1 SWAP3 DUP5 SWAP1 DUP2 LT PUSH2 0x3155 JUMPI PUSH2 0x3155 PUSH2 0x3C14 JUMP JUMPDEST SWAP1 PUSH1 0x0 MSTORE PUSH1 0x20 PUSH1 0x0 KECCAK256 ADD SLOAD SWAP1 POP DUP1 PUSH1 0x99 DUP4 DUP2 SLOAD DUP2 LT PUSH2 0x3176 JUMPI PUSH2 0x3176 PUSH2 0x3C14 JUMP JUMPDEST PUSH1 0x0 SWAP2 DUP3 MSTORE PUSH1 0x20 DUP1 DUP4 KECCAK256 SWAP1 SWAP2 ADD SWAP3 SWAP1 SWAP3 SSTORE DUP3 DUP2 MSTORE PUSH1 0x9A SWAP1 SWAP2 MSTORE PUSH1 0x40 DUP1 DUP3 KECCAK256 DUP5 SWAP1 SSTORE DUP6 DUP3 MSTORE DUP2 KECCAK256 SSTORE PUSH1 0x99 DUP1 SLOAD DUP1 PUSH2 0x31AE JUMPI PUSH2 0x31AE PUSH2 0x4306 JUMP JUMPDEST PUSH1 0x1 SWAP1 SUB DUP2 DUP2 SWAP1 PUSH1 0x0 MSTORE PUSH1 0x20 PUSH1 0x0 KECCAK256 ADD PUSH1 0x0 SWAP1 SSTORE SWAP1 SSTORE POP POP POP POP JUMP JUMPDEST PUSH1 0x0 PUSH2 0x31D5 DUP4 PUSH2 0x1507 JUMP JUMPDEST PUSH1 0x1 PUSH1 0x1 PUSH1 0xA0 SHL SUB SWAP1 SWAP4 AND PUSH1 0x0 SWAP1 DUP2 MSTORE PUSH1 0x97 PUSH1 0x20 SWAP1 DUP2 MSTORE PUSH1 0x40 DUP1 DUP4 KECCAK256 DUP7 DUP5 MSTORE DUP3 MSTORE DUP1 DUP4 KECCAK256 DUP6 SWAP1 SSTORE SWAP4 DUP3 MSTORE PUSH1 0x98 SWAP1 MSTORE SWAP2 SWAP1 SWAP2 KECCAK256 SWAP2 SWAP1 SWAP2 SSTORE POP JUMP JUMPDEST PUSH1 0x1 PUSH1 0x1 PUSH1 0xA0 SHL SUB DUP3 AND PUSH2 0x3264 JUMPI PUSH1 0x40 MLOAD PUSH3 0x461BCD PUSH1 0xE5 SHL DUP2 MSTORE PUSH1 0x20 PUSH1 0x4 DUP3 ADD DUP2 SWAP1 MSTORE PUSH1 0x24 DUP3 ADD MSTORE PUSH32 0x4552433732313A206D696E7420746F20746865207A65726F2061646472657373 PUSH1 0x44 DUP3 ADD MSTORE PUSH1 0x64 ADD PUSH2 0xB01 JUMP JUMPDEST PUSH1 0x0 DUP2 DUP2 MSTORE PUSH1 0x67 PUSH1 0x20 MSTORE PUSH1 0x40 SWAP1 KECCAK256 SLOAD PUSH1 0x1 PUSH1 0x1 PUSH1 0xA0 SHL SUB AND ISZERO PUSH2 0x32C9 JUMPI PUSH1 0x40 MLOAD PUSH3 0x461BCD PUSH1 0xE5 SHL DUP2 MSTORE PUSH1 0x20 PUSH1 0x4 DUP3 ADD MSTORE PUSH1 0x1C PUSH1 0x24 DUP3 ADD MSTORE PUSH32 0x4552433732313A20746F6B656E20616C7265616479206D696E74656400000000 PUSH1 0x44 DUP3 ADD MSTORE PUSH1 0x64 ADD PUSH2 0xB01 JUMP JUMPDEST PUSH2 0x32D5 PUSH1 0x0 DUP4 DUP4 PUSH2 0x29FD JUMP JUMPDEST PUSH1 0x1 PUSH1 0x1 PUSH1 0xA0 SHL SUB DUP3 AND PUSH1 0x0 SWAP1 DUP2 MSTORE PUSH1 0x68 PUSH1 0x20 MSTORE PUSH1 0x40 DUP2 KECCAK256 DUP1 SLOAD PUSH1 0x1 SWAP3 SWAP1 PUSH2 0x32FE SWAP1 DUP5 SWAP1 PUSH2 0x3C40 JUMP JUMPDEST SWAP1 SWAP2 SSTORE POP POP PUSH1 0x0 DUP2 DUP2 MSTORE PUSH1 0x67 PUSH1 0x20 MSTORE PUSH1 0x40 DUP1 DUP3 KECCAK256 DUP1 SLOAD PUSH1 0x1 PUSH1 0x1 PUSH1 0xA0 SHL SUB NOT AND PUSH1 0x1 PUSH1 0x1 PUSH1 0xA0 SHL SUB DUP7 AND SWAP1 DUP2 OR SWAP1 SWAP2 SSTORE SWAP1 MLOAD DUP4 SWAP3 SWAP1 PUSH32 0xDDF252AD1BE2C89B69C2B068FC378DAA952BA7F163C4A11628F55A4DF523B3EF SWAP1 DUP3 SWAP1 LOG4 POP POP JUMP JUMPDEST PUSH1 0x60 DUP4 ISZERO PUSH2 0x336B JUMPI POP DUP2 PUSH2 0x1E41 JUMP JUMPDEST DUP3 MLOAD ISZERO PUSH2 0x337B JUMPI DUP3 MLOAD DUP1 DUP5 PUSH1 0x20 ADD REVERT JUMPDEST DUP2 PUSH1 0x40 MLOAD PUSH3 0x461BCD PUSH1 0xE5 SHL DUP2 MSTORE PUSH1 0x4 ADD PUSH2 0xB01 SWAP2 SWAP1 PUSH2 0x34A2 JUMP JUMPDEST DUP3 PUSH1 0x2 DUP2 ADD SWAP3 DUP3 ISZERO PUSH2 0x33C3 JUMPI SWAP2 PUSH1 0x20 MUL DUP3 ADD JUMPDEST DUP3 DUP2 GT ISZERO PUSH2 0x33C3 JUMPI DUP3 CALLDATALOAD DUP3 SSTORE SWAP2 PUSH1 0x20 ADD SWAP2 SWAP1 PUSH1 0x1 ADD SWAP1 PUSH2 0x33A8 JUMP JUMPDEST POP PUSH2 0x33CF SWAP3 SWAP2 POP PUSH2 0x33D3 JUMP JUMPDEST POP SWAP1 JUMP JUMPDEST JUMPDEST DUP1 DUP3 GT ISZERO PUSH2 0x33CF JUMPI PUSH1 0x0 DUP2 SSTORE PUSH1 0x1 ADD PUSH2 0x33D4 JUMP JUMPDEST DUP1 CALLDATALOAD PUSH1 0x1 PUSH1 0x1 PUSH1 0xA0 SHL SUB DUP2 AND DUP2 EQ PUSH2 0x33FF JUMPI PUSH1 0x0 DUP1 REVERT JUMPDEST SWAP2 SWAP1 POP JUMP JUMPDEST PUSH1 0x0 PUSH1 0x20 DUP3 DUP5 SUB SLT ISZERO PUSH2 0x3416 JUMPI PUSH1 0x0 DUP1 REVERT JUMPDEST PUSH2 0x1E41 DUP3 PUSH2 0x33E8 JUMP JUMPDEST PUSH1 0x1 PUSH1 0x1 PUSH1 0xE0 SHL SUB NOT DUP2 AND DUP2 EQ PUSH2 0xE50 JUMPI PUSH1 0x0 DUP1 REVERT JUMPDEST PUSH1 0x0 PUSH1 0x20 DUP3 DUP5 SUB SLT ISZERO PUSH2 0x3447 JUMPI PUSH1 0x0 DUP1 REVERT JUMPDEST DUP2 CALLDATALOAD PUSH2 0x1E41 DUP2 PUSH2 0x341F JUMP JUMPDEST PUSH1 0x0 JUMPDEST DUP4 DUP2 LT ISZERO PUSH2 0x346D JUMPI DUP2 DUP2 ADD MLOAD DUP4 DUP3 ADD MSTORE PUSH1 0x20 ADD PUSH2 0x3455 JUMP JUMPDEST POP POP PUSH1 0x0 SWAP2 ADD MSTORE JUMP JUMPDEST PUSH1 0x0 DUP2 MLOAD DUP1 DUP5 MSTORE PUSH2 0x348E DUP2 PUSH1 0x20 DUP7 ADD PUSH1 0x20 DUP7 ADD PUSH2 0x3452 JUMP JUMPDEST PUSH1 0x1F ADD PUSH1 0x1F NOT AND SWAP3 SWAP1 SWAP3 ADD PUSH1 0x20 ADD SWAP3 SWAP2 POP POP JUMP JUMPDEST PUSH1 0x20 DUP2 MSTORE PUSH1 0x0 PUSH2 0x1E41 PUSH1 0x20 DUP4 ADD DUP5 PUSH2 0x3476 JUMP JUMPDEST PUSH1 0x0 PUSH1 0x20 DUP3 DUP5 SUB SLT ISZERO PUSH2 0x34C7 JUMPI PUSH1 0x0 DUP1 REVERT JUMPDEST POP CALLDATALOAD SWAP2 SWAP1 POP JUMP JUMPDEST PUSH1 0x0 DUP1 PUSH1 0x40 DUP4 DUP6 SUB SLT ISZERO PUSH2 0x34E1 JUMPI PUSH1 0x0 DUP1 REVERT JUMPDEST PUSH2 0x34EA DUP4 PUSH2 0x33E8 JUMP JUMPDEST SWAP5 PUSH1 0x20 SWAP4 SWAP1 SWAP4 ADD CALLDATALOAD SWAP4 POP POP POP JUMP JUMPDEST PUSH1 0x0 DUP1 PUSH1 0x0 PUSH1 0x40 DUP5 DUP7 SUB SLT ISZERO PUSH2 0x350D JUMPI PUSH1 0x0 DUP1 REVERT JUMPDEST DUP4 CALLDATALOAD PUSH1 0x1 PUSH1 0x1 PUSH1 0x40 SHL SUB DUP1 DUP3 GT ISZERO PUSH2 0x3524 JUMPI PUSH1 0x0 DUP1 REVERT JUMPDEST DUP2 DUP7 ADD SWAP2 POP DUP7 PUSH1 0x1F DUP4 ADD SLT PUSH2 0x3538 JUMPI PUSH1 0x0 DUP1 REVERT JUMPDEST DUP2 CALLDATALOAD DUP2 DUP2 GT ISZERO PUSH2 0x3547 JUMPI PUSH1 0x0 DUP1 REVERT JUMPDEST DUP8 PUSH1 0x20 DUP3 PUSH1 0x5 SHL DUP6 ADD ADD GT ISZERO PUSH2 0x355C JUMPI PUSH1 0x0 DUP1 REVERT JUMPDEST PUSH1 0x20 SWAP3 DUP4 ADD SWAP9 SWAP1 SWAP8 POP SWAP6 SWAP1 SWAP2 ADD CALLDATALOAD SWAP5 SWAP4 POP POP POP POP JUMP JUMPDEST PUSH4 0x4E487B71 PUSH1 0xE0 SHL PUSH1 0x0 MSTORE PUSH1 0x41 PUSH1 0x4 MSTORE PUSH1 0x24 PUSH1 0x0 REVERT JUMPDEST PUSH1 0x40 MLOAD PUSH1 0x60 DUP2 ADD PUSH1 0x1 PUSH1 0x1 PUSH1 0x40 SHL SUB DUP2 GT DUP3 DUP3 LT OR ISZERO PUSH2 0x35AA JUMPI PUSH2 0x35AA PUSH2 0x3572 JUMP JUMPDEST PUSH1 0x40 MSTORE SWAP1 JUMP JUMPDEST PUSH1 0x40 DUP1 MLOAD SWAP1 DUP2 ADD PUSH1 0x1 PUSH1 0x1 PUSH1 0x40 SHL SUB DUP2 GT DUP3 DUP3 LT OR ISZERO PUSH2 0x35AA JUMPI PUSH2 0x35AA PUSH2 0x3572 JUMP JUMPDEST PUSH1 0x0 DUP3 PUSH1 0x1F DUP4 ADD SLT PUSH2 0x35E3 JUMPI PUSH1 0x0 DUP1 REVERT JUMPDEST DUP2 CALLDATALOAD PUSH1 0x1 PUSH1 0x1 PUSH1 0x40 SHL SUB DUP1 DUP3 GT ISZERO PUSH2 0x35FD JUMPI PUSH2 0x35FD PUSH2 0x3572 JUMP JUMPDEST PUSH1 0x40 MLOAD PUSH1 0x1F DUP4 ADD PUSH1 0x1F NOT SWAP1 DUP2 AND PUSH1 0x3F ADD AND DUP2 ADD SWAP1 DUP3 DUP3 GT DUP2 DUP4 LT OR ISZERO PUSH2 0x3625 JUMPI PUSH2 0x3625 PUSH2 0x3572 JUMP JUMPDEST DUP2 PUSH1 0x40 MSTORE DUP4 DUP2 MSTORE DUP7 PUSH1 0x20 DUP6 DUP9 ADD ADD GT ISZERO PUSH2 0x363E JUMPI PUSH1 0x0 DUP1 REVERT JUMPDEST DUP4 PUSH1 0x20 DUP8 ADD PUSH1 0x20 DUP4 ADD CALLDATACOPY PUSH1 0x0 PUSH1 0x20 DUP6 DUP4 ADD ADD MSTORE DUP1 SWAP5 POP POP POP POP POP SWAP3 SWAP2 POP POP JUMP JUMPDEST PUSH1 0x0 PUSH1 0x20 DUP3 DUP5 SUB SLT ISZERO PUSH2 0x3670 JUMPI PUSH1 0x0 DUP1 REVERT JUMPDEST DUP2 CALLDATALOAD PUSH1 0x1 PUSH1 0x1 PUSH1 0x40 SHL SUB DUP2 GT ISZERO PUSH2 0x3686 JUMPI PUSH1 0x0 DUP1 REVERT JUMPDEST PUSH2 0x2085 DUP5 DUP3 DUP6 ADD PUSH2 0x35D2 JUMP JUMPDEST PUSH1 0x0 DUP1 DUP4 PUSH1 0x1F DUP5 ADD SLT PUSH2 0x36A4 JUMPI PUSH1 0x0 DUP1 REVERT JUMPDEST POP DUP2 CALLDATALOAD PUSH1 0x1 PUSH1 0x1 PUSH1 0x40 SHL SUB DUP2 GT ISZERO PUSH2 0x36BB JUMPI PUSH1 0x0 DUP1 REVERT JUMPDEST PUSH1 0x20 DUP4 ADD SWAP2 POP DUP4 PUSH1 0x20 DUP3 DUP6 ADD ADD GT ISZERO PUSH2 0x36D3 JUMPI PUSH1 0x0 DUP1 REVERT JUMPDEST SWAP3 POP SWAP3 SWAP1 POP JUMP JUMPDEST PUSH1 0x0 DUP1 PUSH1 0x20 DUP4 DUP6 SUB SLT ISZERO PUSH2 0x36ED JUMPI PUSH1 0x0 DUP1 REVERT JUMPDEST DUP3 CALLDATALOAD PUSH1 0x1 PUSH1 0x1 PUSH1 0x40 SHL SUB DUP2 GT ISZERO PUSH2 0x3703 JUMPI PUSH1 0x0 DUP1 REVERT JUMPDEST PUSH2 0x370F DUP6 DUP3 DUP7 ADD PUSH2 0x3692 JUMP JUMPDEST SWAP1 SWAP7 SWAP1 SWAP6 POP SWAP4 POP POP POP POP JUMP JUMPDEST PUSH1 0x0 DUP1 PUSH1 0x0 PUSH1 0x60 DUP5 DUP7 SUB SLT ISZERO PUSH2 0x3730 JUMPI PUSH1 0x0 DUP1 REVERT JUMPDEST PUSH2 0x3739 DUP5 PUSH2 0x33E8 JUMP JUMPDEST SWAP3 POP PUSH2 0x3747 PUSH1 0x20 DUP6 ADD PUSH2 0x33E8 JUMP JUMPDEST SWAP2 POP PUSH1 0x40 DUP5 ADD CALLDATALOAD SWAP1 POP SWAP3 POP SWAP3 POP SWAP3 JUMP JUMPDEST PUSH1 0x0 DUP1 PUSH1 0x0 DUP1 PUSH1 0x0 DUP1 PUSH1 0x0 DUP1 PUSH1 0x0 PUSH1 0xC0 DUP11 DUP13 SUB SLT ISZERO PUSH2 0x3775 JUMPI PUSH1 0x0 DUP1 REVERT JUMPDEST PUSH2 0x377E DUP11 PUSH2 0x33E8 JUMP JUMPDEST SWAP9 POP PUSH1 0x40 DUP11 ADD DUP12 DUP2 GT ISZERO PUSH2 0x3791 JUMPI PUSH1 0x0 DUP1 REVERT JUMPDEST PUSH1 0x20 DUP12 ADD SWAP9 POP CALLDATALOAD SWAP7 POP PUSH1 0x60 DUP11 ADD CALLDATALOAD PUSH1 0x1 PUSH1 0x1 PUSH1 0x40 SHL SUB DUP1 DUP3 GT ISZERO PUSH2 0x37B4 JUMPI PUSH1 0x0 DUP1 REVERT JUMPDEST PUSH2 0x37C0 DUP14 DUP4 DUP15 ADD PUSH2 0x3692 JUMP JUMPDEST SWAP1 SWAP9 POP SWAP7 POP PUSH1 0x80 DUP13 ADD CALLDATALOAD SWAP2 POP DUP1 DUP3 GT ISZERO PUSH2 0x37D9 JUMPI PUSH1 0x0 DUP1 REVERT JUMPDEST PUSH2 0x37E5 DUP14 DUP4 DUP15 ADD PUSH2 0x3692 JUMP JUMPDEST SWAP1 SWAP7 POP SWAP5 POP PUSH1 0xA0 DUP13 ADD CALLDATALOAD SWAP2 POP DUP1 DUP3 GT ISZERO PUSH2 0x37FE JUMPI PUSH1 0x0 DUP1 REVERT JUMPDEST POP PUSH2 0x380B DUP13 DUP3 DUP14 ADD PUSH2 0x3692 JUMP JUMPDEST SWAP2 POP DUP1 SWAP4 POP POP DUP1 SWAP2 POP POP SWAP3 SWAP6 SWAP9 POP SWAP3 SWAP6 SWAP9 POP SWAP3 SWAP6 SWAP9 JUMP JUMPDEST PUSH1 0x0 DUP1 PUSH1 0x40 DUP4 DUP6 SUB SLT ISZERO PUSH2 0x3835 JUMPI PUSH1 0x0 DUP1 REVERT JUMPDEST DUP3 CALLDATALOAD SWAP2 POP PUSH2 0x3845 PUSH1 0x20 DUP5 ADD PUSH2 0x33E8 JUMP JUMPDEST SWAP1 POP SWAP3 POP SWAP3 SWAP1 POP JUMP JUMPDEST PUSH1 0x0 DUP1 PUSH1 0x0 DUP1 PUSH1 0x0 PUSH1 0xA0 DUP7 DUP9 SUB SLT ISZERO PUSH2 0x3866 JUMPI PUSH1 0x0 DUP1 REVERT JUMPDEST PUSH2 0x386F DUP7 PUSH2 0x33E8 JUMP JUMPDEST SWAP5 POP PUSH1 0x20 DUP7 ADD CALLDATALOAD PUSH1 0x1 PUSH1 0x1 PUSH1 0x40 SHL SUB DUP1 DUP3 GT ISZERO PUSH2 0x388B JUMPI PUSH1 0x0 DUP1 REVERT JUMPDEST PUSH2 0x3897 DUP10 DUP4 DUP11 ADD PUSH2 0x35D2 JUMP JUMPDEST SWAP6 POP PUSH1 0x40 DUP9 ADD CALLDATALOAD SWAP2 POP DUP1 DUP3 GT ISZERO PUSH2 0x38AD JUMPI PUSH1 0x0 DUP1 REVERT JUMPDEST PUSH2 0x38B9 DUP10 DUP4 DUP11 ADD PUSH2 0x35D2 JUMP JUMPDEST SWAP5 POP PUSH1 0x60 DUP9 ADD CALLDATALOAD SWAP2 POP DUP1 DUP3 GT ISZERO PUSH2 0x38CF JUMPI PUSH1 0x0 DUP1 REVERT JUMPDEST POP PUSH2 0x38DC DUP9 DUP3 DUP10 ADD PUSH2 0x35D2 JUMP JUMPDEST SWAP6 SWAP9 SWAP5 SWAP8 POP SWAP3 SWAP6 PUSH1 0x80 ADD CALLDATALOAD SWAP4 SWAP3 POP POP POP JUMP JUMPDEST PUSH1 0x0 DUP1 PUSH1 0x40 DUP4 DUP6 SUB SLT ISZERO PUSH2 0x3901 JUMPI PUSH1 0x0 DUP1 REVERT JUMPDEST PUSH2 0x390A DUP4 PUSH2 0x33E8 JUMP JUMPDEST SWAP2 POP PUSH1 0x20 DUP4 ADD CALLDATALOAD PUSH1 0x1 PUSH1 0x1 PUSH1 0x40 SHL SUB DUP2 GT ISZERO PUSH2 0x3925 JUMPI PUSH1 0x0 DUP1 REVERT JUMPDEST PUSH2 0x3931 DUP6 DUP3 DUP7 ADD PUSH2 0x35D2 JUMP JUMPDEST SWAP2 POP POP SWAP3 POP SWAP3 SWAP1 POP JUMP JUMPDEST PUSH1 0x60 DUP2 MSTORE PUSH1 0x0 PUSH2 0x394E PUSH1 0x60 DUP4 ADD DUP7 PUSH2 0x3476 JUMP JUMPDEST DUP3 DUP2 SUB PUSH1 0x20 DUP5 ADD MSTORE PUSH2 0x3960 DUP2 DUP7 PUSH2 0x3476 JUMP JUMPDEST SWAP1 POP DUP3 DUP2 SUB PUSH1 0x40 DUP5 ADD MSTORE PUSH2 0x3974 DUP2 DUP6 PUSH2 0x3476 JUMP JUMPDEST SWAP7 SWAP6 POP POP POP POP POP POP JUMP JUMPDEST PUSH1 0x0 DUP3 PUSH1 0x1F DUP4 ADD SLT PUSH2 0x398F JUMPI PUSH1 0x0 DUP1 REVERT JUMPDEST PUSH2 0x3997 PUSH2 0x35B0 JUMP JUMPDEST DUP1 PUSH1 0x40 DUP5 ADD DUP6 DUP2 GT ISZERO PUSH2 0x39A9 JUMPI PUSH1 0x0 DUP1 REVERT JUMPDEST DUP5 JUMPDEST DUP2 DUP2 LT ISZERO PUSH2 0x39C3 JUMPI DUP1 CALLDATALOAD DUP5 MSTORE PUSH1 0x20 SWAP4 DUP5 ADD SWAP4 ADD PUSH2 0x39AB JUMP JUMPDEST POP SWAP1 SWAP6 SWAP5 POP POP POP POP POP JUMP JUMPDEST PUSH1 0x0 DUP3 PUSH1 0x1F DUP4 ADD SLT PUSH2 0x39DF JUMPI PUSH1 0x0 DUP1 REVERT JUMPDEST PUSH2 0x39E7 PUSH2 0x3588 JUMP JUMPDEST DUP1 PUSH1 0x60 DUP5 ADD DUP6 DUP2 GT ISZERO PUSH2 0x39A9 JUMPI PUSH1 0x0 DUP1 REVERT JUMPDEST PUSH1 0x0 DUP1 DUP3 DUP5 SUB PUSH2 0x160 DUP2 SLT ISZERO PUSH2 0x3A0E JUMPI PUSH1 0x0 DUP1 REVERT JUMPDEST PUSH2 0x100 DUP1 DUP3 SLT ISZERO PUSH2 0x3A1E JUMPI PUSH1 0x0 DUP1 REVERT JUMPDEST PUSH2 0x3A26 PUSH2 0x3588 JUMP JUMPDEST SWAP2 POP PUSH2 0x3A32 DUP7 DUP7 PUSH2 0x397E JUMP JUMPDEST DUP3 MSTORE PUSH1 0x40 DUP7 PUSH1 0x5F DUP8 ADD SLT PUSH2 0x3A45 JUMPI PUSH1 0x0 DUP1 REVERT JUMPDEST PUSH2 0x3A4D PUSH2 0x35B0 JUMP JUMPDEST DUP1 PUSH1 0xC0 DUP9 ADD DUP10 DUP2 GT ISZERO PUSH2 0x3A5F JUMPI PUSH1 0x0 DUP1 REVERT JUMPDEST PUSH1 0x40 DUP10 ADD JUMPDEST DUP2 DUP2 LT ISZERO PUSH2 0x3A85 JUMPI PUSH2 0x3A76 DUP12 DUP3 PUSH2 0x397E JUMP JUMPDEST DUP5 MSTORE PUSH1 0x20 SWAP1 SWAP4 ADD SWAP3 DUP5 ADD PUSH2 0x3A64 JUMP JUMPDEST POP DUP2 PUSH1 0x20 DUP8 ADD MSTORE PUSH2 0x3A96 DUP11 DUP3 PUSH2 0x397E JUMP JUMPDEST PUSH1 0x40 DUP8 ADD MSTORE POP POP POP POP DUP2 SWAP4 POP PUSH2 0x3AAE DUP7 DUP3 DUP8 ADD PUSH2 0x39CE JUMP JUMPDEST SWAP3 POP POP POP SWAP3 POP SWAP3 SWAP1 POP JUMP JUMPDEST DUP1 ISZERO ISZERO DUP2 EQ PUSH2 0xE50 JUMPI PUSH1 0x0 DUP1 REVERT JUMPDEST PUSH1 0x0 DUP1 PUSH1 0x40 DUP4 DUP6 SUB SLT ISZERO PUSH2 0x3ADA JUMPI PUSH1 0x0 DUP1 REVERT JUMPDEST PUSH2 0x3AE3 DUP4 PUSH2 0x33E8 JUMP JUMPDEST SWAP2 POP PUSH1 0x20 DUP4 ADD CALLDATALOAD PUSH2 0x3AF3 DUP2 PUSH2 0x3AB9 JUMP JUMPDEST DUP1 SWAP2 POP POP SWAP3 POP SWAP3 SWAP1 POP JUMP JUMPDEST PUSH1 0x0 DUP1 PUSH1 0x0 DUP1 PUSH1 0x80 DUP6 DUP8 SUB SLT ISZERO PUSH2 0x3B14 JUMPI PUSH1 0x0 DUP1 REVERT JUMPDEST PUSH2 0x3B1D DUP6 PUSH2 0x33E8 JUMP JUMPDEST SWAP4 POP PUSH2 0x3B2B PUSH1 0x20 DUP7 ADD PUSH2 0x33E8 JUMP JUMPDEST SWAP3 POP PUSH1 0x40 DUP6 ADD CALLDATALOAD SWAP2 POP PUSH1 0x60 DUP6 ADD CALLDATALOAD PUSH1 0x1 PUSH1 0x1 PUSH1 0x40 SHL SUB DUP2 GT ISZERO PUSH2 0x3B4D JUMPI PUSH1 0x0 DUP1 REVERT JUMPDEST PUSH2 0x3B59 DUP8 DUP3 DUP9 ADD PUSH2 0x35D2 JUMP JUMPDEST SWAP2 POP POP SWAP3 SWAP6 SWAP2 SWAP5 POP SWAP3 POP JUMP JUMPDEST PUSH1 0x0 DUP1 PUSH1 0x0 PUSH1 0x40 DUP5 DUP7 SUB SLT ISZERO PUSH2 0x3B7A JUMPI PUSH1 0x0 DUP1 REVERT JUMPDEST DUP4 CALLDATALOAD SWAP3 POP PUSH1 0x20 DUP5 ADD CALLDATALOAD PUSH1 0x1 PUSH1 0x1 PUSH1 0x40 SHL SUB DUP2 GT ISZERO PUSH2 0x3B97 JUMPI PUSH1 0x0 DUP1 REVERT JUMPDEST PUSH2 0x3BA3 DUP7 DUP3 DUP8 ADD PUSH2 0x3692 JUMP JUMPDEST SWAP5 SWAP8 SWAP1 SWAP7 POP SWAP4 SWAP5 POP POP POP POP JUMP JUMPDEST PUSH1 0x0 DUP1 PUSH1 0x40 DUP4 DUP6 SUB SLT ISZERO PUSH2 0x3BC3 JUMPI PUSH1 0x0 DUP1 REVERT JUMPDEST PUSH2 0x3BCC DUP4 PUSH2 0x33E8 JUMP JUMPDEST SWAP2 POP PUSH2 0x3845 PUSH1 0x20 DUP5 ADD PUSH2 0x33E8 JUMP JUMPDEST PUSH1 0x1 DUP2 DUP2 SHR SWAP1 DUP3 AND DUP1 PUSH2 0x3BEE JUMPI PUSH1 0x7F DUP3 AND SWAP2 POP JUMPDEST PUSH1 0x20 DUP3 LT DUP2 SUB PUSH2 0x3C0E JUMPI PUSH4 0x4E487B71 PUSH1 0xE0 SHL PUSH1 0x0 MSTORE PUSH1 0x22 PUSH1 0x4 MSTORE PUSH1 0x24 PUSH1 0x0 REVERT JUMPDEST POP SWAP2 SWAP1 POP JUMP JUMPDEST PUSH4 0x4E487B71 PUSH1 0xE0 SHL PUSH1 0x0 MSTORE PUSH1 0x32 PUSH1 0x4 MSTORE PUSH1 0x24 PUSH1 0x0 REVERT JUMPDEST PUSH4 0x4E487B71 PUSH1 0xE0 SHL PUSH1 0x0 MSTORE PUSH1 0x11 PUSH1 0x4 MSTORE PUSH1 0x24 PUSH1 0x0 REVERT JUMPDEST DUP1 DUP3 ADD DUP1 DUP3 GT ISZERO PUSH2 0x9CE JUMPI PUSH2 0x9CE PUSH2 0x3C2A JUMP JUMPDEST PUSH1 0x1F DUP3 GT ISZERO PUSH2 0xBA2 JUMPI PUSH1 0x0 DUP2 PUSH1 0x0 MSTORE PUSH1 0x20 PUSH1 0x0 KECCAK256 PUSH1 0x1F DUP6 ADD PUSH1 0x5 SHR DUP2 ADD PUSH1 0x20 DUP7 LT ISZERO PUSH2 0x3C7C JUMPI POP DUP1 JUMPDEST PUSH1 0x1F DUP6 ADD PUSH1 0x5 SHR DUP3 ADD SWAP2 POP JUMPDEST DUP2 DUP2 LT ISZERO PUSH2 0xE6B JUMPI DUP3 DUP2 SSTORE PUSH1 0x1 ADD PUSH2 0x3C88 JUMP JUMPDEST PUSH1 0x0 NOT PUSH1 0x3 DUP4 SWAP1 SHL SHR NOT AND PUSH1 0x1 SWAP2 SWAP1 SWAP2 SHL OR SWAP1 JUMP JUMPDEST PUSH1 0x1 PUSH1 0x1 PUSH1 0x40 SHL SUB DUP4 GT ISZERO PUSH2 0x3CC7 JUMPI PUSH2 0x3CC7 PUSH2 0x3572 JUMP JUMPDEST PUSH2 0x3CDB DUP4 PUSH2 0x3CD5 DUP4 SLOAD PUSH2 0x3BDA JUMP JUMPDEST DUP4 PUSH2 0x3C53 JUMP JUMPDEST PUSH1 0x0 PUSH1 0x1F DUP5 GT PUSH1 0x1 DUP2 EQ PUSH2 0x3D09 JUMPI PUSH1 0x0 DUP6 ISZERO PUSH2 0x3CF7 JUMPI POP DUP4 DUP3 ADD CALLDATALOAD JUMPDEST PUSH2 0x3D01 DUP7 DUP3 PUSH2 0x3C9B JUMP JUMPDEST DUP5 SSTORE POP PUSH2 0xC26 JUMP JUMPDEST PUSH1 0x0 DUP4 DUP2 MSTORE PUSH1 0x20 SWAP1 KECCAK256 PUSH1 0x1F NOT DUP7 AND SWAP1 DUP4 JUMPDEST DUP3 DUP2 LT ISZERO PUSH2 0x3D3A JUMPI DUP7 DUP6 ADD CALLDATALOAD DUP3 SSTORE PUSH1 0x20 SWAP5 DUP6 ADD SWAP5 PUSH1 0x1 SWAP1 SWAP3 ADD SWAP2 ADD PUSH2 0x3D1A JUMP JUMPDEST POP DUP7 DUP3 LT ISZERO PUSH2 0x3D57 JUMPI PUSH1 0x0 NOT PUSH1 0xF8 DUP9 PUSH1 0x3 SHL AND SHR NOT DUP5 DUP8 ADD CALLDATALOAD AND DUP2 SSTORE JUMPDEST POP POP PUSH1 0x1 DUP6 PUSH1 0x1 SHL ADD DUP4 SSTORE POP POP POP POP POP JUMP JUMPDEST PUSH1 0x20 DUP1 DUP3 MSTORE PUSH1 0x2E SWAP1 DUP3 ADD MSTORE PUSH32 0x4552433732313A2063616C6C6572206973206E6F7420746F6B656E206F776E65 PUSH1 0x40 DUP3 ADD MSTORE PUSH14 0x1C881B9BDC88185C1C1C9BDD9959 PUSH1 0x92 SHL PUSH1 0x60 DUP3 ADD MSTORE PUSH1 0x80 ADD SWAP1 JUMP JUMPDEST PUSH1 0x0 PUSH1 0x1 DUP3 ADD PUSH2 0x3DC9 JUMPI PUSH2 0x3DC9 PUSH2 0x3C2A JUMP JUMPDEST POP PUSH1 0x1 ADD SWAP1 JUMP JUMPDEST PUSH1 0x0 DUP2 PUSH2 0x3DDF JUMPI PUSH2 0x3DDF PUSH2 0x3C2A JUMP JUMPDEST POP PUSH1 0x0 NOT ADD SWAP1 JUMP JUMPDEST PUSH1 0x20 DUP1 DUP3 MSTORE PUSH1 0x2C SWAP1 DUP3 ADD MSTORE PUSH32 0x46756E6374696F6E206D7573742062652063616C6C6564207468726F75676820 PUSH1 0x40 DUP3 ADD MSTORE PUSH12 0x19195B1959D85D1958D85B1B PUSH1 0xA2 SHL PUSH1 0x60 DUP3 ADD MSTORE PUSH1 0x80 ADD SWAP1 JUMP JUMPDEST PUSH1 0x20 DUP1 DUP3 MSTORE PUSH1 0x2C SWAP1 DUP3 ADD MSTORE PUSH32 0x46756E6374696F6E206D7573742062652063616C6C6564207468726F75676820 PUSH1 0x40 DUP3 ADD MSTORE PUSH12 0x6163746976652070726F7879 PUSH1 0xA0 SHL PUSH1 0x60 DUP3 ADD MSTORE PUSH1 0x80 ADD SWAP1 JUMP JUMPDEST PUSH1 0x0 DUP3 MLOAD PUSH2 0x3E91 DUP2 DUP5 PUSH1 0x20 DUP8 ADD PUSH2 0x3452 JUMP JUMPDEST SWAP2 SWAP1 SWAP2 ADD SWAP3 SWAP2 POP POP JUMP JUMPDEST DUP1 PUSH1 0x0 JUMPDEST PUSH1 0x2 DUP2 LT ISZERO PUSH2 0xC46 JUMPI DUP2 MLOAD DUP5 MSTORE PUSH1 0x20 SWAP4 DUP5 ADD SWAP4 SWAP1 SWAP2 ADD SWAP1 PUSH1 0x1 ADD PUSH2 0x3E9F JUMP JUMPDEST PUSH2 0x160 DUP2 ADD PUSH2 0x3ECD DUP3 DUP8 PUSH2 0x3E9B JUMP JUMPDEST PUSH1 0x40 DUP1 DUP4 ADD DUP7 PUSH1 0x0 JUMPDEST PUSH1 0x2 DUP2 LT ISZERO PUSH2 0x3EFD JUMPI PUSH2 0x3EEA DUP4 DUP4 MLOAD PUSH2 0x3E9B JUMP JUMPDEST SWAP2 DUP4 ADD SWAP2 PUSH1 0x20 SWAP2 SWAP1 SWAP2 ADD SWAP1 PUSH1 0x1 ADD PUSH2 0x3ED6 JUMP JUMPDEST POP POP POP POP PUSH2 0x3F0E PUSH1 0xC0 DUP4 ADD DUP6 PUSH2 0x3E9B JUMP JUMPDEST PUSH2 0x100 DUP3 ADD DUP4 PUSH1 0x0 JUMPDEST PUSH1 0x3 DUP2 LT ISZERO PUSH2 0x3F36 JUMPI DUP2 MLOAD DUP4 MSTORE PUSH1 0x20 SWAP3 DUP4 ADD SWAP3 SWAP1 SWAP2 ADD SWAP1 PUSH1 0x1 ADD PUSH2 0x3F17 JUMP JUMPDEST POP POP POP SWAP6 SWAP5 POP POP POP POP POP JUMP JUMPDEST PUSH1 0x0 PUSH1 0x20 DUP3 DUP5 SUB SLT ISZERO PUSH2 0x3F54 JUMPI PUSH1 0x0 DUP1 REVERT JUMPDEST DUP2 MLOAD PUSH2 0x1E41 DUP2 PUSH2 0x3AB9 JUMP JUMPDEST PUSH1 0x0 DUP4 MLOAD PUSH2 0x3F71 DUP2 DUP5 PUSH1 0x20 DUP9 ADD PUSH2 0x3452 JUMP JUMPDEST DUP4 MLOAD SWAP1 DUP4 ADD SWAP1 PUSH2 0x3F85 DUP2 DUP4 PUSH1 0x20 DUP9 ADD PUSH2 0x3452 JUMP JUMPDEST ADD SWAP5 SWAP4 POP POP POP POP JUMP JUMPDEST DUP2 DUP4 DUP3 CALLDATACOPY PUSH1 0x0 SWAP2 ADD SWAP1 DUP2 MSTORE SWAP2 SWAP1 POP JUMP JUMPDEST DUP2 DUP2 SUB DUP2 DUP2 GT ISZERO PUSH2 0x9CE JUMPI PUSH2 0x9CE PUSH2 0x3C2A JUMP JUMPDEST DUP2 MLOAD PUSH1 0x1 PUSH1 0x1 PUSH1 0x40 SHL SUB DUP2 GT ISZERO PUSH2 0x3FCA JUMPI PUSH2 0x3FCA PUSH2 0x3572 JUMP JUMPDEST PUSH2 0x3FDE DUP2 PUSH2 0x3FD8 DUP5 SLOAD PUSH2 0x3BDA JUMP JUMPDEST DUP5 PUSH2 0x3C53 JUMP JUMPDEST PUSH1 0x20 DUP1 PUSH1 0x1F DUP4 GT PUSH1 0x1 DUP2 EQ PUSH2 0x400D JUMPI PUSH1 0x0 DUP5 ISZERO PUSH2 0x3FFB JUMPI POP DUP6 DUP4 ADD MLOAD JUMPDEST PUSH2 0x4005 DUP6 DUP3 PUSH2 0x3C9B JUMP JUMPDEST DUP7 SSTORE POP PUSH2 0xE6B JUMP JUMPDEST PUSH1 0x0 DUP6 DUP2 MSTORE PUSH1 0x20 DUP2 KECCAK256 PUSH1 0x1F NOT DUP7 AND SWAP2 JUMPDEST DUP3 DUP2 LT ISZERO PUSH2 0x403C JUMPI DUP9 DUP7 ADD MLOAD DUP3 SSTORE SWAP5 DUP5 ADD SWAP5 PUSH1 0x1 SWAP1 SWAP2 ADD SWAP1 DUP5 ADD PUSH2 0x401D JUMP JUMPDEST POP DUP6 DUP3 LT ISZERO PUSH2 0x405A JUMPI DUP8 DUP6 ADD MLOAD PUSH1 0x0 NOT PUSH1 0x3 DUP9 SWAP1 SHL PUSH1 0xF8 AND SHR NOT AND DUP2 SSTORE JUMPDEST POP POP POP POP POP PUSH1 0x1 SWAP1 DUP2 SHL ADD SWAP1 SSTORE POP JUMP JUMPDEST DUP2 DUP2 SUB PUSH2 0x4075 JUMPI POP POP JUMP JUMPDEST PUSH2 0x407F DUP3 SLOAD PUSH2 0x3BDA JUMP JUMPDEST PUSH1 0x1 PUSH1 0x1 PUSH1 0x40 SHL SUB DUP2 GT ISZERO PUSH2 0x4096 JUMPI PUSH2 0x4096 PUSH2 0x3572 JUMP JUMPDEST PUSH2 0x40A4 DUP2 PUSH2 0x3FD8 DUP5 SLOAD PUSH2 0x3BDA JUMP JUMPDEST PUSH1 0x0 PUSH1 0x1F DUP3 GT PUSH1 0x1 DUP2 EQ PUSH2 0x40D2 JUMPI PUSH1 0x0 DUP4 ISZERO PUSH2 0x40C0 JUMPI POP DUP5 DUP3 ADD SLOAD JUMPDEST PUSH2 0x40CA DUP5 DUP3 PUSH2 0x3C9B JUMP JUMPDEST DUP6 SSTORE POP PUSH2 0xC26 JUMP JUMPDEST PUSH1 0x0 DUP6 DUP2 MSTORE PUSH1 0x20 SWAP1 KECCAK256 PUSH1 0x1F NOT DUP5 AND SWAP1 PUSH1 0x0 DUP7 DUP2 MSTORE PUSH1 0x20 SWAP1 KECCAK256 DUP5 JUMPDEST DUP4 DUP2 LT ISZERO PUSH2 0x410C JUMPI DUP3 DUP7 ADD SLOAD DUP3 SSTORE PUSH1 0x1 SWAP6 DUP7 ADD SWAP6 SWAP1 SWAP2 ADD SWAP1 PUSH1 0x20 ADD PUSH2 0x40EC JUMP JUMPDEST POP DUP6 DUP4 LT ISZERO PUSH2 0x405A JUMPI SWAP4 ADD SLOAD PUSH1 0x0 NOT PUSH1 0xF8 PUSH1 0x3 DUP8 SWAP1 SHL AND SHR NOT AND SWAP1 SWAP3 SSTORE POP POP PUSH1 0x1 SWAP1 DUP2 SHL ADD SWAP1 SSTORE POP JUMP JUMPDEST PUSH1 0x0 PUSH1 0x20 DUP3 DUP5 SUB SLT ISZERO PUSH2 0x4148 JUMPI PUSH1 0x0 DUP1 REVERT JUMPDEST POP MLOAD SWAP2 SWAP1 POP JUMP JUMPDEST PUSH1 0x20 DUP1 DUP3 MSTORE PUSH1 0x2B SWAP1 DUP3 ADD MSTORE PUSH32 0x496E697469616C697A61626C653A20636F6E7472616374206973206E6F742069 PUSH1 0x40 DUP3 ADD MSTORE PUSH11 0x6E697469616C697A696E67 PUSH1 0xA8 SHL PUSH1 0x60 DUP3 ADD MSTORE PUSH1 0x80 ADD SWAP1 JUMP JUMPDEST PUSH1 0x20 DUP1 DUP3 MSTORE PUSH1 0x32 SWAP1 DUP3 ADD MSTORE PUSH32 0x4552433732313A207472616E7366657220746F206E6F6E204552433732315265 PUSH1 0x40 DUP3 ADD MSTORE PUSH18 0x31B2B4BB32B91034B6B83632B6B2B73A32B9 PUSH1 0x71 SHL PUSH1 0x60 DUP3 ADD MSTORE PUSH1 0x80 ADD SWAP1 JUMP JUMPDEST PUSH4 0x4E487B71 PUSH1 0xE0 SHL PUSH1 0x0 MSTORE PUSH1 0x12 PUSH1 0x4 MSTORE PUSH1 0x24 PUSH1 0x0 REVERT JUMPDEST PUSH1 0x0 DUP3 PUSH2 0x4211 JUMPI PUSH2 0x4211 PUSH2 0x41EC JUMP JUMPDEST POP DIV SWAP1 JUMP JUMPDEST PUSH1 0x0 DUP3 PUSH2 0x4225 JUMPI PUSH2 0x4225 PUSH2 0x41EC JUMP JUMPDEST POP MOD SWAP1 JUMP JUMPDEST PUSH32 0x416363657373436F6E74726F6C3A206163636F756E7420000000000000000000 DUP2 MSTORE PUSH1 0x0 DUP4 MLOAD PUSH2 0x4262 DUP2 PUSH1 0x17 DUP6 ADD PUSH1 0x20 DUP9 ADD PUSH2 0x3452 JUMP JUMPDEST PUSH17 0x1034B99036B4B9B9B4B733903937B6329 PUSH1 0x7D SHL PUSH1 0x17 SWAP2 DUP5 ADD SWAP2 DUP3 ADD MSTORE DUP4 MLOAD PUSH2 0x4293 DUP2 PUSH1 0x28 DUP5 ADD PUSH1 0x20 DUP9 ADD PUSH2 0x3452 JUMP JUMPDEST ADD PUSH1 0x28 ADD SWAP5 SWAP4 POP POP POP POP JUMP JUMPDEST PUSH1 0x1 PUSH1 0x1 PUSH1 0xA0 SHL SUB DUP6 DUP2 AND DUP3 MSTORE DUP5 AND PUSH1 0x20 DUP3 ADD MSTORE PUSH1 0x40 DUP2 ADD DUP4 SWAP1 MSTORE PUSH1 0x80 PUSH1 0x60 DUP3 ADD DUP2 SWAP1 MSTORE PUSH1 0x0 SWAP1 PUSH2 0x3974 SWAP1 DUP4 ADD DUP5 PUSH2 0x3476 JUMP JUMPDEST PUSH1 0x0 PUSH1 0x20 DUP3 DUP5 SUB SLT ISZERO PUSH2 0x42E4 JUMPI PUSH1 0x0 DUP1 REVERT JUMPDEST DUP2 MLOAD PUSH2 0x1E41 DUP2 PUSH2 0x341F JUMP JUMPDEST DUP1 DUP3 MUL DUP2 ISZERO DUP3 DUP3 DIV DUP5 EQ OR PUSH2 0x9CE JUMPI PUSH2 0x9CE PUSH2 0x3C2A JUMP JUMPDEST PUSH4 0x4E487B71 PUSH1 0xE0 SHL PUSH1 0x0 MSTORE PUSH1 0x31 PUSH1 0x4 MSTORE PUSH1 0x24 PUSH1 0x0 REVERT INVALID CALLDATASIZE ADDMOD SWAP5 LOG1 EXTCODESIZE LOG1 LOG3 0x21 MOD PUSH8 0xC828492DB98DCA3E KECCAK256 PUSH23 0xCC3735A920A3CA505D382BBC416464726573733A206C6F PUSH24 0x2D6C6576656C2064656C65676174652063616C6C20666169 PUSH13 0x6564A2646970667358221220D4 0xD2 0xE2 SWAP1 PUSH8 0x613A89C3D9543DAB PUSH1 0x8C GAS BLOCKHASH 0xE6 ADD 0xAB SWAP9 EXTCODESIZE 0xE0 LOG2 0xA7 DUP6 PUSH31 0x4839CDADBF64736F6C63430008160033000000000000000000000000000000 "
		},
		"gasEstimates": {
			"creation": {
				"codeDepositCost": "3461000",
				"executionCost": "infinite",
				"totalCost": "infinite"
			},
			"external": {
				"DEFAULT_ADMIN_ROLE()": "229",
				"addType(string)": "infinite",
				"allowedMinting(address)": "2555",
				"approve(address,uint256)": "infinite",
				"assignHash(uint256,bytes)": "infinite",
				"balanceOf(address)": "2646",
				"baseURI()": "infinite",
				"burn(uint256)": "infinite",
				"contributorHash()": "infinite",
				"getApproved(uint256)": "4837",
				"getRoleAdmin(bytes32)": "2523",
				"grantRemixersMinting(address[],uint256)": "infinite",
				"grantRole(bytes32,address)": "infinite",
				"hasRole(bytes32,address)": "2754",
				"initialize()": "infinite",
				"isApprovedForAll(address,address)": "infinite",
				"name()": "infinite",
				"nullifiers(bytes)": "infinite",
				"ownerOf(uint256)": "2672",
				"proxiableUUID()": "infinite",
				"publicMint(address)": "infinite",
				"publishChallenge((uint256[2],uint256[2][2],uint256[2]),uint256[3])": "infinite",
				"publishers(bytes)": "infinite",
				"publishersAmount()": "2440",
				"removeType(string)": "infinite",
				"renounceRole(bytes32,address)": "29113",
				"revokeRole(bytes32,address)": "infinite",
				"safeMint(address,string,string,bytes,uint256)": "infinite",
				"safeTransferFrom(address,address,uint256)": "infinite",
				"safeTransferFrom(address,address,uint256,bytes)": "infinite",
				"setApprovalForAll(address,bool)": "26779",
				"setBaseURI(string)": "infinite",
				"setChallenge(address,uint256[1],uint256,string,string,bytes)": "infinite",
				"setContributorHash(bytes)": "infinite",
				"supportsInterface(bytes4)": "infinite",
				"symbol()": "infinite",
				"tokenByIndex(uint256)": "6793",
				"tokenOfOwnerByIndex(address,uint256)": "4965",
				"tokenURI(uint256)": "infinite",
				"tokensData(uint256)": "infinite",
				"totalSupply()": "2350",
				"transferFrom(address,address,uint256)": "infinite",
				"upgradeTo(address)": "infinite",
				"upgradeToAndCall(address,bytes)": "infinite",
				"version()": "infinite",
				"zkChallenge(uint256)": "2496",
				"zkChallengeHash()": "infinite",
				"zkChallengeNonce()": "2374",
				"zkChallengePayload()": "infinite",
				"zkChallengeTokenType()": "infinite",
				"zkMax()": "2374",
				"zkVerifier()": "2448"
			},
			"internal": {
				"_authorizeUpgrade(address)": "infinite",
				"_baseURI()": "infinite",
				"_beforeTokenTransfer(address,address,uint256)": "infinite",
				"mintBadge(address,string memory,string memory,bytes memory,uint256)": "infinite",
				"mintRemixer(address)": "infinite"
			}
		},
		"methodIdentifiers": {
			"DEFAULT_ADMIN_ROLE()": "a217fddf",
			"addType(string)": "e7f08e69",
			"allowedMinting(address)": "005c154e",
			"approve(address,uint256)": "095ea7b3",
			"assignHash(uint256,bytes)": "c0cecb9a",
			"balanceOf(address)": "70a08231",
			"baseURI()": "6c0360eb",
			"burn(uint256)": "42966c68",
			"contributorHash()": "6344cd20",
			"getApproved(uint256)": "081812fc",
			"getRoleAdmin(bytes32)": "248a9ca3",
			"grantRemixersMinting(address[],uint256)": "1693d2eb",
			"grantRole(bytes32,address)": "2f2ff15d",
			"hasRole(bytes32,address)": "91d14854",
			"initialize()": "8129fc1c",
			"isApprovedForAll(address,address)": "e985e9c5",
			"name()": "06fdde03",
			"nullifiers(bytes)": "1823e26a",
			"ownerOf(uint256)": "6352211e",
			"proxiableUUID()": "52d1902d",
			"publicMint(address)": "32a93a3a",
			"publishChallenge((uint256[2],uint256[2][2],uint256[2]),uint256[3])": "865d79b3",
			"publishers(bytes)": "b63cb3b9",
			"publishersAmount()": "42778642",
			"removeType(string)": "e15e2fd4",
			"renounceRole(bytes32,address)": "36568abe",
			"revokeRole(bytes32,address)": "d547741f",
			"safeMint(address,string,string,bytes,uint256)": "35b1a7ea",
			"safeTransferFrom(address,address,uint256)": "42842e0e",
			"safeTransferFrom(address,address,uint256,bytes)": "b88d4fde",
			"setApprovalForAll(address,bool)": "a22cb465",
			"setBaseURI(string)": "55f804b3",
			"setChallenge(address,uint256[1],uint256,string,string,bytes)": "2bd07d5f",
			"setContributorHash(bytes)": "1aa2c2f8",
			"supportsInterface(bytes4)": "01ffc9a7",
			"symbol()": "95d89b41",
			"tokenByIndex(uint256)": "4f6ccce7",
			"tokenOfOwnerByIndex(address,uint256)": "2f745c59",
			"tokenURI(uint256)": "c87b56dd",
			"tokensData(uint256)": "599ed3ff",
			"totalSupply()": "18160ddd",
			"transferFrom(address,address,uint256)": "23b872dd",
			"upgradeTo(address)": "3659cfe6",
			"upgradeToAndCall(address,bytes)": "4f1ef286",
			"version()": "54fd4d50",
			"zkChallenge(uint256)": "d674cc2b",
			"zkChallengeHash()": "43d3cf61",
			"zkChallengeNonce()": "7909eb73",
			"zkChallengePayload()": "f1fe6911",
			"zkChallengeTokenType()": "9cbff422",
			"zkMax()": "5a8afbfc",
			"zkVerifier()": "d6df096d"
		}
	},
	"abi": [
		{
			"inputs": [],
			"stateMutability": "nonpayable",
			"type": "constructor"
		},
		{
			"anonymous": false,
			"inputs": [
				{
					"indexed": false,
					"internalType": "address",
					"name": "previousAdmin",
					"type": "address"
				},
				{
					"indexed": false,
					"internalType": "address",
					"name": "newAdmin",
					"type": "address"
				}
			],
			"name": "AdminChanged",
			"type": "event"
		},
		{
			"anonymous": false,
			"inputs": [
				{
					"indexed": true,
					"internalType": "address",
					"name": "owner",
					"type": "address"
				},
				{
					"indexed": true,
					"internalType": "address",
					"name": "approved",
					"type": "address"
				},
				{
					"indexed": true,
					"internalType": "uint256",
					"name": "tokenId",
					"type": "uint256"
				}
			],
			"name": "Approval",
			"type": "event"
		},
		{
			"anonymous": false,
			"inputs": [
				{
					"indexed": true,
					"internalType": "address",
					"name": "owner",
					"type": "address"
				},
				{
					"indexed": true,
					"internalType": "address",
					"name": "operator",
					"type": "address"
				},
				{
					"indexed": false,
					"internalType": "bool",
					"name": "approved",
					"type": "bool"
				}
			],
			"name": "ApprovalForAll",
			"type": "event"
		},
		{
			"anonymous": false,
			"inputs": [
				{
					"indexed": true,
					"internalType": "address",
					"name": "beacon",
					"type": "address"
				}
			],
			"name": "BeaconUpgraded",
			"type": "event"
		},
		{
			"anonymous": false,
			"inputs": [
				{
					"indexed": false,
					"internalType": "uint8",
					"name": "version",
					"type": "uint8"
				}
			],
			"name": "Initialized",
			"type": "event"
		},
		{
			"anonymous": false,
			"inputs": [
				{
					"indexed": true,
					"internalType": "bytes32",
					"name": "role",
					"type": "bytes32"
				},
				{
					"indexed": true,
					"internalType": "bytes32",
					"name": "previousAdminRole",
					"type": "bytes32"
				},
				{
					"indexed": true,
					"internalType": "bytes32",
					"name": "newAdminRole",
					"type": "bytes32"
				}
			],
			"name": "RoleAdminChanged",
			"type": "event"
		},
		{
			"anonymous": false,
			"inputs": [
				{
					"indexed": true,
					"internalType": "bytes32",
					"name": "role",
					"type": "bytes32"
				},
				{
					"indexed": true,
					"internalType": "address",
					"name": "account",
					"type": "address"
				},
				{
					"indexed": true,
					"internalType": "address",
					"name": "sender",
					"type": "address"
				}
			],
			"name": "RoleGranted",
			"type": "event"
		},
		{
			"anonymous": false,
			"inputs": [
				{
					"indexed": true,
					"internalType": "bytes32",
					"name": "role",
					"type": "bytes32"
				},
				{
					"indexed": true,
					"internalType": "address",
					"name": "account",
					"type": "address"
				},
				{
					"indexed": true,
					"internalType": "address",
					"name": "sender",
					"type": "address"
				}
			],
			"name": "RoleRevoked",
			"type": "event"
		},
		{
			"anonymous": false,
			"inputs": [
				{
					"indexed": true,
					"internalType": "address",
					"name": "from",
					"type": "address"
				},
				{
					"indexed": true,
					"internalType": "address",
					"name": "to",
					"type": "address"
				},
				{
					"indexed": true,
					"internalType": "uint256",
					"name": "tokenId",
					"type": "uint256"
				}
			],
			"name": "Transfer",
			"type": "event"
		},
		{
			"anonymous": false,
			"inputs": [
				{
					"indexed": true,
					"internalType": "address",
					"name": "implementation",
					"type": "address"
				}
			],
			"name": "Upgraded",
			"type": "event"
		},
		{
			"inputs": [],
			"name": "DEFAULT_ADMIN_ROLE",
			"outputs": [
				{
					"internalType": "bytes32",
					"name": "",
					"type": "bytes32"
				}
			],
			"stateMutability": "view",
			"type": "function"
		},
		{
			"inputs": [
				{
					"internalType": "string",
					"name": "tokenType",
					"type": "string"
				}
			],
			"name": "addType",
			"outputs": [],
			"stateMutability": "nonpayable",
			"type": "function"
		},
		{
			"inputs": [
				{
					"internalType": "address",
					"name": "",
					"type": "address"
				}
			],
			"name": "allowedMinting",
			"outputs": [
				{
					"internalType": "uint256",
					"name": "",
					"type": "uint256"
				}
			],
			"stateMutability": "view",
			"type": "function"
		},
		{
			"inputs": [
				{
					"internalType": "address",
					"name": "to",
					"type": "address"
				},
				{
					"internalType": "uint256",
					"name": "tokenId",
					"type": "uint256"
				}
			],
			"name": "approve",
			"outputs": [],
			"stateMutability": "nonpayable",
			"type": "function"
		},
		{
			"inputs": [
				{
					"internalType": "uint256",
					"name": "tokenId",
					"type": "uint256"
				},
				{
					"internalType": "bytes",
					"name": "hash",
					"type": "bytes"
				}
			],
			"name": "assignHash",
			"outputs": [],
			"stateMutability": "nonpayable",
			"type": "function"
		},
		{
			"inputs": [
				{
					"internalType": "address",
					"name": "owner",
					"type": "address"
				}
			],
			"name": "balanceOf",
			"outputs": [
				{
					"internalType": "uint256",
					"name": "",
					"type": "uint256"
				}
			],
			"stateMutability": "view",
			"type": "function"
		},
		{
			"inputs": [],
			"name": "baseURI",
			"outputs": [
				{
					"internalType": "string",
					"name": "",
					"type": "string"
				}
			],
			"stateMutability": "view",
			"type": "function"
		},
		{
			"inputs": [
				{
					"internalType": "uint256",
					"name": "tokenId",
					"type": "uint256"
				}
			],
			"name": "burn",
			"outputs": [],
			"stateMutability": "nonpayable",
			"type": "function"
		},
		{
			"inputs": [],
			"name": "contributorHash",
			"outputs": [
				{
					"internalType": "bytes",
					"name": "",
					"type": "bytes"
				}
			],
			"stateMutability": "view",
			"type": "function"
		},
		{
			"inputs": [
				{
					"internalType": "uint256",
					"name": "tokenId",
					"type": "uint256"
				}
			],
			"name": "getApproved",
			"outputs": [
				{
					"internalType": "address",
					"name": "",
					"type": "address"
				}
			],
			"stateMutability": "view",
			"type": "function"
		},
		{
			"inputs": [
				{
					"internalType": "bytes32",
					"name": "role",
					"type": "bytes32"
				}
			],
			"name": "getRoleAdmin",
			"outputs": [
				{
					"internalType": "bytes32",
					"name": "",
					"type": "bytes32"
				}
			],
			"stateMutability": "view",
			"type": "function"
		},
		{
			"inputs": [
				{
					"internalType": "address[]",
					"name": "remixers",
					"type": "address[]"
				},
				{
					"internalType": "uint256",
					"name": "amount",
					"type": "uint256"
				}
			],
			"name": "grantRemixersMinting",
			"outputs": [],
			"stateMutability": "nonpayable",
			"type": "function"
		},
		{
			"inputs": [
				{
					"internalType": "bytes32",
					"name": "role",
					"type": "bytes32"
				},
				{
					"internalType": "address",
					"name": "account",
					"type": "address"
				}
			],
			"name": "grantRole",
			"outputs": [],
			"stateMutability": "nonpayable",
			"type": "function"
		},
		{
			"inputs": [
				{
					"internalType": "bytes32",
					"name": "role",
					"type": "bytes32"
				},
				{
					"internalType": "address",
					"name": "account",
					"type": "address"
				}
			],
			"name": "hasRole",
			"outputs": [
				{
					"internalType": "bool",
					"name": "",
					"type": "bool"
				}
			],
			"stateMutability": "view",
			"type": "function"
		},
		{
			"inputs": [],
			"name": "initialize",
			"outputs": [],
			"stateMutability": "nonpayable",
			"type": "function"
		},
		{
			"inputs": [
				{
					"internalType": "address",
					"name": "owner",
					"type": "address"
				},
				{
					"internalType": "address",
					"name": "operator",
					"type": "address"
				}
			],
			"name": "isApprovedForAll",
			"outputs": [
				{
					"internalType": "bool",
					"name": "",
					"type": "bool"
				}
			],
			"stateMutability": "view",
			"type": "function"
		},
		{
			"inputs": [],
			"name": "name",
			"outputs": [
				{
					"internalType": "string",
					"name": "",
					"type": "string"
				}
			],
			"stateMutability": "view",
			"type": "function"
		},
		{
			"inputs": [
				{
					"internalType": "bytes",
					"name": "",
					"type": "bytes"
				}
			],
			"name": "nullifiers",
			"outputs": [
				{
					"internalType": "uint256",
					"name": "",
					"type": "uint256"
				}
			],
			"stateMutability": "view",
			"type": "function"
		},
		{
			"inputs": [
				{
					"internalType": "uint256",
					"name": "tokenId",
					"type": "uint256"
				}
			],
			"name": "ownerOf",
			"outputs": [
				{
					"internalType": "address",
					"name": "",
					"type": "address"
				}
			],
			"stateMutability": "view",
			"type": "function"
		},
		{
			"inputs": [],
			"name": "proxiableUUID",
			"outputs": [
				{
					"internalType": "bytes32",
					"name": "",
					"type": "bytes32"
				}
			],
			"stateMutability": "view",
			"type": "function"
		},
		{
			"inputs": [
				{
					"internalType": "address",
					"name": "to",
					"type": "address"
				}
			],
			"name": "publicMint",
			"outputs": [],
			"stateMutability": "nonpayable",
			"type": "function"
		},
		{
			"inputs": [
				{
					"components": [
						{
							"internalType": "uint256[2]",
							"name": "a",
							"type": "uint256[2]"
						},
						{
							"internalType": "uint256[2][2]",
							"name": "b",
							"type": "uint256[2][2]"
						},
						{
							"internalType": "uint256[2]",
							"name": "c",
							"type": "uint256[2]"
						}
					],
					"internalType": "struct ZKVerifier.Proof",
					"name": "proof",
					"type": "tuple"
				},
				{
					"internalType": "uint256[3]",
					"name": "input",
					"type": "uint256[3]"
				}
			],
			"name": "publishChallenge",
			"outputs": [],
			"stateMutability": "nonpayable",
			"type": "function"
		},
		{
			"inputs": [
				{
					"internalType": "bytes",
					"name": "",
					"type": "bytes"
				}
			],
			"name": "publishers",
			"outputs": [
				{
					"internalType": "uint256",
					"name": "",
					"type": "uint256"
				}
			],
			"stateMutability": "view",
			"type": "function"
		},
		{
			"inputs": [],
			"name": "publishersAmount",
			"outputs": [
				{
					"internalType": "uint256",
					"name": "",
					"type": "uint256"
				}
			],
			"stateMutability": "view",
			"type": "function"
		},
		{
			"inputs": [
				{
					"internalType": "string",
					"name": "tokenType",
					"type": "string"
				}
			],
			"name": "removeType",
			"outputs": [],
			"stateMutability": "nonpayable",
			"type": "function"
		},
		{
			"inputs": [
				{
					"internalType": "bytes32",
					"name": "role",
					"type": "bytes32"
				},
				{
					"internalType": "address",
					"name": "account",
					"type": "address"
				}
			],
			"name": "renounceRole",
			"outputs": [],
			"stateMutability": "nonpayable",
			"type": "function"
		},
		{
			"inputs": [
				{
					"internalType": "bytes32",
					"name": "role",
					"type": "bytes32"
				},
				{
					"internalType": "address",
					"name": "account",
					"type": "address"
				}
			],
			"name": "revokeRole",
			"outputs": [],
			"stateMutability": "nonpayable",
			"type": "function"
		},
		{
			"inputs": [
				{
					"internalType": "address",
					"name": "to",
					"type": "address"
				},
				{
					"internalType": "string",
					"name": "tokenType",
					"type": "string"
				},
				{
					"internalType": "string",
					"name": "payload",
					"type": "string"
				},
				{
					"internalType": "bytes",
					"name": "hash",
					"type": "bytes"
				},
				{
					"internalType": "uint256",
					"name": "mintGrant",
					"type": "uint256"
				}
			],
			"name": "safeMint",
			"outputs": [],
			"stateMutability": "nonpayable",
			"type": "function"
		},
		{
			"inputs": [
				{
					"internalType": "address",
					"name": "from",
					"type": "address"
				},
				{
					"internalType": "address",
					"name": "to",
					"type": "address"
				},
				{
					"internalType": "uint256",
					"name": "tokenId",
					"type": "uint256"
				}
			],
			"name": "safeTransferFrom",
			"outputs": [],
			"stateMutability": "nonpayable",
			"type": "function"
		},
		{
			"inputs": [
				{
					"internalType": "address",
					"name": "from",
					"type": "address"
				},
				{
					"internalType": "address",
					"name": "to",
					"type": "address"
				},
				{
					"internalType": "uint256",
					"name": "tokenId",
					"type": "uint256"
				},
				{
					"internalType": "bytes",
					"name": "data",
					"type": "bytes"
				}
			],
			"name": "safeTransferFrom",
			"outputs": [],
			"stateMutability": "nonpayable",
			"type": "function"
		},
		{
			"inputs": [
				{
					"internalType": "address",
					"name": "operator",
					"type": "address"
				},
				{
					"internalType": "bool",
					"name": "approved",
					"type": "bool"
				}
			],
			"name": "setApprovalForAll",
			"outputs": [],
			"stateMutability": "nonpayable",
			"type": "function"
		},
		{
			"inputs": [
				{
					"internalType": "string",
					"name": "_uri",
					"type": "string"
				}
			],
			"name": "setBaseURI",
			"outputs": [],
			"stateMutability": "nonpayable",
			"type": "function"
		},
		{
			"inputs": [
				{
					"internalType": "address",
					"name": "verifier",
					"type": "address"
				},
				{
					"internalType": "uint256[1]",
					"name": "challenge",
					"type": "uint256[1]"
				},
				{
					"internalType": "uint256",
					"name": "max",
					"type": "uint256"
				},
				{
					"internalType": "string",
					"name": "tokenType",
					"type": "string"
				},
				{
					"internalType": "string",
					"name": "payload",
					"type": "string"
				},
				{
					"internalType": "bytes",
					"name": "hash",
					"type": "bytes"
				}
			],
			"name": "setChallenge",
			"outputs": [],
			"stateMutability": "nonpayable",
			"type": "function"
		},
		{
			"inputs": [
				{
					"internalType": "bytes",
					"name": "hash",
					"type": "bytes"
				}
			],
			"name": "setContributorHash",
			"outputs": [],
			"stateMutability": "nonpayable",
			"type": "function"
		},
		{
			"inputs": [
				{
					"internalType": "bytes4",
					"name": "interfaceId",
					"type": "bytes4"
				}
			],
			"name": "supportsInterface",
			"outputs": [
				{
					"internalType": "bool",
					"name": "",
					"type": "bool"
				}
			],
			"stateMutability": "view",
			"type": "function"
		},
		{
			"inputs": [],
			"name": "symbol",
			"outputs": [
				{
					"internalType": "string",
					"name": "",
					"type": "string"
				}
			],
			"stateMutability": "view",
			"type": "function"
		},
		{
			"inputs": [
				{
					"internalType": "uint256",
					"name": "index",
					"type": "uint256"
				}
			],
			"name": "tokenByIndex",
			"outputs": [
				{
					"internalType": "uint256",
					"name": "",
					"type": "uint256"
				}
			],
			"stateMutability": "view",
			"type": "function"
		},
		{
			"inputs": [
				{
					"internalType": "address",
					"name": "owner",
					"type": "address"
				},
				{
					"internalType": "uint256",
					"name": "index",
					"type": "uint256"
				}
			],
			"name": "tokenOfOwnerByIndex",
			"outputs": [
				{
					"internalType": "uint256",
					"name": "",
					"type": "uint256"
				}
			],
			"stateMutability": "view",
			"type": "function"
		},
		{
			"inputs": [
				{
					"internalType": "uint256",
					"name": "tokenId",
					"type": "uint256"
				}
			],
			"name": "tokenURI",
			"outputs": [
				{
					"internalType": "string",
					"name": "",
					"type": "string"
				}
			],
			"stateMutability": "view",
			"type": "function"
		},
		{
			"inputs": [
				{
					"internalType": "uint256",
					"name": "",
					"type": "uint256"
				}
			],
			"name": "tokensData",
			"outputs": [
				{
					"internalType": "string",
					"name": "payload",
					"type": "string"
				},
				{
					"internalType": "string",
					"name": "tokenType",
					"type": "string"
				},
				{
					"internalType": "bytes",
					"name": "hash",
					"type": "bytes"
				}
			],
			"stateMutability": "view",
			"type": "function"
		},
		{
			"inputs": [],
			"name": "totalSupply",
			"outputs": [
				{
					"internalType": "uint256",
					"name": "",
					"type": "uint256"
				}
			],
			"stateMutability": "view",
			"type": "function"
		},
		{
			"inputs": [
				{
					"internalType": "address",
					"name": "from",
					"type": "address"
				},
				{
					"internalType": "address",
					"name": "to",
					"type": "address"
				},
				{
					"internalType": "uint256",
					"name": "tokenId",
					"type": "uint256"
				}
			],
			"name": "transferFrom",
			"outputs": [],
			"stateMutability": "nonpayable",
			"type": "function"
		},
		{
			"inputs": [
				{
					"internalType": "address",
					"name": "newImplementation",
					"type": "address"
				}
			],
			"name": "upgradeTo",
			"outputs": [],
			"stateMutability": "nonpayable",
			"type": "function"
		},
		{
			"inputs": [
				{
					"internalType": "address",
					"name": "newImplementation",
					"type": "address"
				},
				{
					"internalType": "bytes",
					"name": "data",
					"type": "bytes"
				}
			],
			"name": "upgradeToAndCall",
			"outputs": [],
			"stateMutability": "payable",
			"type": "function"
		},
		{
			"inputs": [],
			"name": "version",
			"outputs": [
				{
					"internalType": "string",
					"name": "",
					"type": "string"
				}
			],
			"stateMutability": "pure",
			"type": "function"
		},
		{
			"inputs": [
				{
					"internalType": "uint256",
					"name": "",
					"type": "uint256"
				}
			],
			"name": "zkChallenge",
			"outputs": [
				{
					"internalType": "uint256",
					"name": "",
					"type": "uint256"
				}
			],
			"stateMutability": "view",
			"type": "function"
		},
		{
			"inputs": [],
			"name": "zkChallengeHash",
			"outputs": [
				{
					"internalType": "bytes",
					"name": "",
					"type": "bytes"
				}
			],
			"stateMutability": "view",
			"type": "function"
		},
		{
			"inputs": [],
			"name": "zkChallengeNonce",
			"outputs": [
				{
					"internalType": "uint256",
					"name": "",
					"type": "uint256"
				}
			],
			"stateMutability": "view",
			"type": "function"
		},
		{
			"inputs": [],
			"name": "zkChallengePayload",
			"outputs": [
				{
					"internalType": "string",
					"name": "",
					"type": "string"
				}
			],
			"stateMutability": "view",
			"type": "function"
		},
		{
			"inputs": [],
			"name": "zkChallengeTokenType",
			"outputs": [
				{
					"internalType": "string",
					"name": "",
					"type": "string"
				}
			],
			"stateMutability": "view",
			"type": "function"
		},
		{
			"inputs": [],
			"name": "zkMax",
			"outputs": [
				{
					"internalType": "uint256",
					"name": "",
					"type": "uint256"
				}
			],
			"stateMutability": "view",
			"type": "function"
		},
		{
			"inputs": [],
			"name": "zkVerifier",
			"outputs": [
				{
					"internalType": "address",
					"name": "",
					"type": "address"
				}
			],
			"stateMutability": "view",
			"type": "function"
		}
	]
}