{
	"data": {
		"bytecode": {
			"linkReferences": {},
			"object": "60a060405230608052348015610013575f80fd5b506080516141fd6100485f395f8181610eae01528181610eee0152818161105d0152818161109d01526111ba01526141fd5ff3fe6080604052600436106102f2575f3560e01c806355f804b311610189578063a217fddf116100d8578063d547741f11610092578063e15e2fd41161006d578063e15e2fd4146108e6578063e7f08e6914610905578063e985e9c514610924578063f1fe69111461096b575f80fd5b8063d547741f14610888578063d674cc2b146108a7578063d6df096d146108c6575f80fd5b8063a217fddf146107c1578063a22cb465146107d4578063b63cb3b9146107f3578063b88d4fde1461082b578063c0cecb9a1461084a578063c87b56dd14610869575f80fd5b80636c0360eb116101435780638129fc1c1161011e5780638129fc1c1461076657806391d148541461077a57806395d89b41146107995780639cbff422146107ad575f80fd5b80636c0360eb1461071d57806370a08231146107315780637909eb7314610750575f80fd5b806355f804b314610668578063599ed3ff146106875780635a8afbfc146106b55780636344cd20146106cb5780636352211e146106df578063677a9c30146106fe575f80fd5b80632f745c591161024557806342842e0e116101ff5780634f1ef286116101da5780634f1ef286146105f55780634f6ccce71461060857806352d1902d1461062757806354fd4d501461063b575f80fd5b806342842e0e146105a357806342966c68146105c257806343d3cf61146105e1575f80fd5b80632f745c59146104f257806332a93a3a1461051157806335b1a7ea1461053057806336568abe1461054f5780633659cfe61461056e578063427786421461058d575f80fd5b806318160ddd116102b057806323b872dd1161028b57806323b872dd14610467578063248a9ca3146104865780632bd07d5f146104b45780632f2ff15d146104d3575f80fd5b806318160ddd146103fc5780631823e26a146104105780631aa2c2f814610448575f80fd5b80625c154e146102f657806301ffc9a71461033557806306fdde0314610364578063081812fc14610385578063095ea7b3146103bc5780631693d2eb146103dd575b5f80fd5b348015610301575f80fd5b5061032261031036600461333a565b6101946020525f908152604090205481565b6040519081526020015b60405180910390f35b348015610340575f80fd5b5061035461034f366004613368565b61097f565b604051901515815260200161032c565b34801561036f575f80fd5b5061037861098f565b60405161032c91906133d0565b348015610390575f80fd5b506103a461039f3660046133e2565b610a1f565b6040516001600160a01b03909116815260200161032c565b3480156103c7575f80fd5b506103db6103d63660046133f9565b610a44565b005b3480156103e8575f80fd5b506103db6103f7366004613421565b610b5d565b348015610407575f80fd5b50609954610322565b34801561041b575f80fd5b5061032261042a36600461357a565b805160208183018101805161019d8252928201919093012091525481565b348015610453575f80fd5b506103db6104623660046135ef565b610be9565b348015610472575f80fd5b506103db61048136600461362d565b610c07565b348015610491575f80fd5b506103226104a03660046133e2565b5f90815260fb602052604090206001015490565b3480156104bf575f80fd5b506103db6104ce366004613666565b610c39565b3480156104de575f80fd5b506103db6104ed366004613727565b610cd2565b3480156104fd575f80fd5b5061032261050c3660046133f9565b610cf6565b34801561051c575f80fd5b506103db61052b36600461333a565b610d8a565b34801561053b575f80fd5b506103db61054a366004613751565b610e07565b34801561055a575f80fd5b506103db610569366004613727565b610e26565b348015610579575f80fd5b506103db61058836600461333a565b610ea4565b348015610598575f80fd5b5061032261019c5481565b3480156105ae575f80fd5b506103db6105bd36600461362d565b610f7e565b3480156105cd575f80fd5b506103db6105dc3660046133e2565b610f98565b3480156105ec575f80fd5b50610378610fc6565b6103db6106033660046137ea565b611053565b348015610613575f80fd5b506103226106223660046133e2565b61111e565b348015610632575f80fd5b506103226111ae565b348015610646575f80fd5b506040805180820190915260058152640322e342e360dc1b6020820152610378565b348015610673575f80fd5b506103db6106823660046135ef565b61125f565b348015610692575f80fd5b506106a66106a13660046133e2565b611277565b60405161032c93929190613834565b3480156106c0575f80fd5b5061032261019b5481565b3480156106d6575f80fd5b5061037861142b565b3480156106ea575f80fd5b506103a46106f93660046133e2565b611439565b348015610709575f80fd5b506103db6107183660046138c3565b611498565b348015610728575f80fd5b50610378611a5d565b34801561073c575f80fd5b5061032261074b36600461333a565b611a6b565b34801561075b575f80fd5b5061032261019a5481565b348015610771575f80fd5b506103db611aef565b348015610785575f80fd5b50610354610794366004613727565b611c5b565b3480156107a4575f80fd5b50610378611c85565b3480156107b8575f80fd5b50610378611c94565b3480156107cc575f80fd5b506103225f81565b3480156107df575f80fd5b506103db6107ee366004613989565b611ca2565b3480156107fe575f80fd5b5061032261080d36600461357a565b805160208183018101805161019e8252928201919093012091525481565b348015610836575f80fd5b506103db6108453660046139be565b611cad565b348015610855575f80fd5b506103db610864366004613a21565b611cdf565b348015610874575f80fd5b506103786108833660046133e2565b611d6c565b348015610893575f80fd5b506103db6108a2366004613727565b611dd0565b3480156108b2575f80fd5b506103226108c13660046133e2565b611df4565b3480156108d1575f80fd5b50610197546103a4906001600160a01b031681565b3480156108f1575f80fd5b506103db6109003660046135ef565b611e0b565b348015610910575f80fd5b506103db61091f3660046135ef565b611e44565b34801561092f575f80fd5b5061035461093e366004613a68565b6001600160a01b039182165f908152606a6020908152604080832093909416825291909152205460ff1690565b348015610976575f80fd5b50610378611e88565b5f61098982611e96565b92915050565b60606065805461099e90613a90565b80601f01602080910402602001604051908101604052809291908181526020018280546109ca90613a90565b8015610a155780601f106109ec57610100808354040283529160200191610a15565b820191905f5260205f20905b8154815290600101906020018083116109f857829003601f168201915b5050505050905090565b5f610a2982611eba565b505f908152606960205260409020546001600160a01b031690565b5f610a4e82611439565b9050806001600160a01b0316836001600160a01b031603610ac05760405162461bcd60e51b815260206004820152602160248201527f4552433732313a20617070726f76616c20746f2063757272656e74206f776e656044820152603960f91b60648201526084015b60405180910390fd5b336001600160a01b0382161480610adc5750610adc813361093e565b610b4e5760405162461bcd60e51b815260206004820152603e60248201527f4552433732313a20617070726f76652063616c6c6572206973206e6f7420746f60448201527f6b656e206f776e6572206e6f7220617070726f76656420666f7220616c6c00006064820152608401610ab7565b610b588383611f18565b505050565b5f610b6781611f85565b5f5b83811015610be257826101945f878785818110610b8857610b88613ac8565b9050602002016020810190610b9d919061333a565b6001600160a01b03166001600160a01b031681526020019081526020015f205f828254610bca9190613af0565b90915550819050610bda81613b03565b915050610b69565b5050505050565b5f610bf381611f85565b610195610c01838583613b74565b50505050565b610c12335b82611f8f565b610c2e5760405162461bcd60e51b8152600401610ab790613c29565b610b5883838361200c565b5f610c4381611f85565b610c4d8787611e44565b61019780546001600160a01b0319166001600160a01b038c16179055610c776101988a60016132cd565b5061019f610c86878983613b74565b506101a0610c95858783613b74565b506101a1610ca4838583613b74565b5061019b8890555f61019c81905561019a805491610cc183613b03565b919050555050505050505050505050565b5f82815260fb6020526040902060010154610cec81611f85565b610b5883836121af565b5f610d0083611a6b565b8210610d625760405162461bcd60e51b815260206004820152602b60248201527f455243373231456e756d657261626c653a206f776e657220696e646578206f7560448201526a74206f6620626f756e647360a81b6064820152608401610ab7565b506001600160a01b03919091165f908152609760209081526040808320938352929052205490565b335f9081526101946020526040902054610ddb5760405162461bcd60e51b81526020600482015260126024820152711b9bc81b5a5b9d1a5b99c8185b1b1bddd95960721b6044820152606401610ab7565b335f90815261019460205260408120805491610df683613c77565b9190505550610e0481612234565b50565b5f610e1181611f85565b610e1e86868686866122b9565b505050505050565b6001600160a01b0381163314610e965760405162461bcd60e51b815260206004820152602f60248201527f416363657373436f6e74726f6c3a2063616e206f6e6c792072656e6f756e636560448201526e103937b632b9903337b91039b2b63360891b6064820152608401610ab7565b610ea082826123eb565b5050565b6001600160a01b037f0000000000000000000000000000000000000000000000000000000000000000163003610eec5760405162461bcd60e51b8152600401610ab790613c8c565b7f00000000000000000000000000000000000000000000000000000000000000006001600160a01b0316610f345f80516020614181833981519152546001600160a01b031690565b6001600160a01b031614610f5a5760405162461bcd60e51b8152600401610ab790613cd8565b610f6381612451565b604080515f80825260208201909252610e049183919061245b565b610b5883838360405180602001604052805f815250611cad565b610fa133610c0c565b610fbd5760405162461bcd60e51b8152600401610ab790613c29565b610e04816125c5565b6101a18054610fd490613a90565b80601f016020809104026020016040519081016040528092919081815260200182805461100090613a90565b801561104b5780601f106110225761010080835404028352916020019161104b565b820191905f5260205f20905b81548152906001019060200180831161102e57829003601f168201915b505050505081565b6001600160a01b037f000000000000000000000000000000000000000000000000000000000000000016300361109b5760405162461bcd60e51b8152600401610ab790613c8c565b7f00000000000000000000000000000000000000000000000000000000000000006001600160a01b03166110e35f80516020614181833981519152546001600160a01b031690565b6001600160a01b0316146111095760405162461bcd60e51b8152600401610ab790613cd8565b61111282612451565b610ea08282600161245b565b5f61112860995490565b821061118b5760405162461bcd60e51b815260206004820152602c60248201527f455243373231456e756d657261626c653a20676c6f62616c20696e646578206f60448201526b7574206f6620626f756e647360a01b6064820152608401610ab7565b6099828154811061119e5761119e613ac8565b905f5260205f2001549050919050565b5f306001600160a01b037f0000000000000000000000000000000000000000000000000000000000000000161461124d5760405162461bcd60e51b815260206004820152603860248201527f555550535570677261646561626c653a206d757374206e6f742062652063616c60448201527f6c6564207468726f7567682064656c656761746563616c6c00000000000000006064820152608401610ab7565b505f8051602061418183398151915290565b5f61126981611f85565b610196610c01838583613b74565b6101936020525f908152604090208054819061129290613a90565b80601f01602080910402602001604051908101604052809291908181526020018280546112be90613a90565b80156113095780601f106112e057610100808354040283529160200191611309565b820191905f5260205f20905b8154815290600101906020018083116112ec57829003601f168201915b50505050509080600101805461131e90613a90565b80601f016020809104026020016040519081016040528092919081815260200182805461134a90613a90565b80156113955780601f1061136c57610100808354040283529160200191611395565b820191905f5260205f20905b81548152906001019060200180831161137857829003601f168201915b5050505050908060020180546113aa90613a90565b80601f01602080910402602001604051908101604052809291908181526020018280546113d690613a90565b80156114215780601f106113f857610100808354040283529160200191611421565b820191905f5260205f20905b81548152906001019060200180831161140457829003601f168201915b5050505050905083565b6101958054610fd490613a90565b5f818152606760205260408120546001600160a01b0316806109895760405162461bcd60e51b8152602060048201526018602482015277115490cdcc8c4e881a5b9d985b1a59081d1bdad95b88125160421b6044820152606401610ab7565b610197546001600160a01b03166114e85760405162461bcd60e51b81526020600482015260146024820152731b9bc818da185b1b195b99d9481cdd185c9d195960621b6044820152606401610ab7565b61019b5461019c54106115475760405162461bcd60e51b815260206004820152602160248201527f7075626c6973686572732072656163686564206d6178696d756d20616d6f756e6044820152601d60fa1b6064820152608401610ab7565b61019a545f90826001602002015160405160200161156f929190918252602082015260400190565b60408051808303601f1901815282825261019a5460208401523360601b6bffffffffffffffffffffffff19168383015281516034818503018152605490930191829052925061019d906115c3908490613d24565b9081526020016040518091039020545f146116205760405162461bcd60e51b815260206004820152601760248201527f70726f6f6620616c7265616479207075626c69736865640000000000000000006044820152606401610ab7565b61019e816040516116319190613d24565b9081526020016040518091039020545f1461169e5760405162461bcd60e51b815260206004820152602760248201527f63757272656e74207075626c69736865722068617320616c7265616479207375604482015266189b5a5d1d195960ca1b6064820152608401610ab7565b825161019854146116f15760405162461bcd60e51b815260206004820152601f60248201527f70726f7669646564206368616c6c656e6765206973206e6f742076616c6964006044820152606401610ab7565b610197548451602086015160408088015190515f9485946001600160a01b03909116938593611724938b90602401613d61565b60408051601f198184030181529181526020820180516001600160e01b0316637ae4eb4f60e11b179052516117599190613d24565b5f6040518083038185875af1925050503d805f8114611793576040519150601f19603f3d011682016040523d82523d5f602084013e611798565b606091505b5091509150816117ea5760405162461bcd60e51b815260206004820152601f60248201527f7468652063616c6c20746f20746865207665726966696572206661696c6564006044820152606401610ab7565b5f818060200190518101906117ff9190613dbe565b90508061184e5760405162461bcd60e51b815260206004820152601e60248201527f7468652070726f76696465642070726f6f662069736e27742076616c696400006044820152606401610ab7565b6119f73361019f805461186090613a90565b80601f016020809104026020016040519081016040528092919081815260200182805461188c90613a90565b80156118d75780601f106118ae576101008083540402835291602001916118d7565b820191905f5260205f20905b8154815290600101906020018083116118ba57829003601f168201915b50505050506101a080546118ea90613a90565b80601f016020809104026020016040519081016040528092919081815260200182805461191690613a90565b80156119615780601f1061193857610100808354040283529160200191611961565b820191905f5260205f20905b81548152906001019060200180831161194457829003601f168201915b50505050506101a1805461197490613a90565b80601f01602080910402602001604051908101604052809291908181526020018280546119a090613a90565b80156119eb5780601f106119c2576101008083540402835291602001916119eb565b820191905f5260205f20905b8154815290600101906020018083116119ce57829003601f168201915b505050505060016122b9565b61019c8054905f611a0783613b03565b9190505550600161019d86604051611a1f9190613d24565b908152602001604051809103902081905550600161019e85604051611a449190613d24565b9081526040519081900360200190205550505050505050565b6101968054610fd490613a90565b5f6001600160a01b038216611ad45760405162461bcd60e51b815260206004820152602960248201527f4552433732313a2061646472657373207a65726f206973206e6f7420612076616044820152683634b21037bbb732b960b91b6064820152608401610ab7565b506001600160a01b03165f9081526068602052604090205490565b5f54610100900460ff1615808015611b0d57505f54600160ff909116105b80611b265750303b158015611b2657505f5460ff166001145b611b895760405162461bcd60e51b815260206004820152602e60248201527f496e697469616c697a61626c653a20636f6e747261637420697320616c72656160448201526d191e481a5b9a5d1a585b1a5e995960921b6064820152608401610ab7565b5f805460ff191660011790558015611baa575f805461ff0019166101001790555b611bea604051806040016040528060058152602001640a4cadad2f60db1b815250604051806040016040528060018152602001602960f91b815250612667565b611bf2612697565b611bfa612697565b611c02612697565b611c0a612697565b611c145f336126bf565b8015610e04575f805461ff0019169055604051600181527f7f26b83ff96e1f2b6a682f133852f6798a09c465da95921460cefb38474024989060200160405180910390a150565b5f91825260fb602090815260408084206001600160a01b0393909316845291905290205460ff1690565b60606066805461099e90613a90565b61019f8054610fd490613a90565b610ea03383836126c9565b611cb73383611f8f565b611cd35760405162461bcd60e51b8152600401610ab790613c29565b610c0184848484612796565b5f611ce981611f85565b611cf284611eba565b5f848152610193602052604090206002018054611d0e90613a90565b159050611d505760405162461bcd60e51b815260206004820152601060248201526f1a185cda08185b1c9958591e481cd95d60821b6044820152606401610ab7565b5f84815261019360205260409020600201610be2838583613b74565b6060611d7782611eba565b5f611d806127c9565b90505f815111611d9e5760405180602001604052805f815250611dc9565b80611da8846127d9565b604051602001611db9929190613dd9565b6040516020818303038152906040525b9392505050565b5f82815260fb6020526040902060010154611dea81611f85565b610b5883836123eb565b6101988160028110611e04575f80fd5b0154905081565b5f611e1581611f85565b6101928383604051611e28929190613e07565b908152604051908190036020019020805460ff19169055505050565b5f611e4e81611f85565b60016101928484604051611e63929190613e07565b908152604051908190036020019020805491151560ff19909216919091179055505050565b6101a08054610fd490613a90565b5f6001600160e01b03198216637965db0b60e01b14806109895750610989826128d5565b5f818152606760205260409020546001600160a01b0316610e045760405162461bcd60e51b8152602060048201526018602482015277115490cdcc8c4e881a5b9d985b1a59081d1bdad95b88125160421b6044820152606401610ab7565b5f81815260696020526040902080546001600160a01b0319166001600160a01b0384169081179091558190611f4c82611439565b6001600160a01b03167f8c5be1e5ebec7d5bd14f71427d1e84f3dd0314c0f7b2291e5b200ac8c7c3b92560405160405180910390a45050565b610e0481336128f9565b5f80611f9a83611439565b9050806001600160a01b0316846001600160a01b03161480611fe057506001600160a01b038082165f908152606a602090815260408083209388168352929052205460ff165b806120045750836001600160a01b0316611ff984610a1f565b6001600160a01b0316145b949350505050565b826001600160a01b031661201f82611439565b6001600160a01b0316146120835760405162461bcd60e51b815260206004820152602560248201527f4552433732313a207472616e736665722066726f6d20696e636f72726563742060448201526437bbb732b960d91b6064820152608401610ab7565b6001600160a01b0382166120e55760405162461bcd60e51b8152602060048201526024808201527f4552433732313a207472616e7366657220746f20746865207a65726f206164646044820152637265737360e01b6064820152608401610ab7565b6120f083838361295d565b6120fa5f82611f18565b6001600160a01b0383165f908152606860205260408120805460019290612122908490613e16565b90915550506001600160a01b0382165f90815260686020526040812080546001929061214f908490613af0565b90915550505f8181526067602052604080822080546001600160a01b0319166001600160a01b0386811691821790925591518493918716917fddf252ad1be2c89b69c2b068fc378daa952ba7f163c4a11628f55a4df523b3ef91a4505050565b6121b98282611c5b565b610ea0575f82815260fb602090815260408083206001600160a01b03851684529091529020805460ff191660011790556121f03390565b6001600160a01b0316816001600160a01b0316837f2f8788117e7eff1d82e926ec794901d17c78024a50270940304540a733656f0d60405160405180910390a45050565b5f61223f6101915490565b905061225061019180546001019055565b61225a82826129b8565b604051806040016040528060078152602001662932b6b4bc32b960c91b8152506101935f8381526020019081526020015f20600101908161229b9190613e29565b505f81815261019360205260409020600201610b5861019582613edf565b610192846040516122ca9190613d24565b9081526040519081900360200190205460ff166123295760405162461bcd60e51b815260206004820152601760248201527f747970652073686f756c64206265206465636c617265640000000000000000006044820152606401610ab7565b5f6123346101915490565b905061234561019180546001019055565b61234f86826129b8565b5f818152610193602052604090206123678582613e29565b505f818152610193602052604090206001016123838682613e29565b505f8181526101936020526040902060020161239f8482613e29565b508115610e1e576001600160a01b0386165f90815261019460205260409020546123ca908390613af0565b6001600160a01b0387165f9081526101946020526040902055505050505050565b6123f58282611c5b565b15610ea0575f82815260fb602090815260408083206001600160a01b0385168085529252808320805460ff1916905551339285917ff6391f5c32d9c69d2a47ea670b442974b53935d1edc7fd64eb21e047a839171b9190a45050565b5f610ea081611f85565b7f4910fdfa16fed3260ed0e7147f7cc6da11a60208b5b9406d12a635614ffd91435460ff161561248e57610b58836129d1565b826001600160a01b03166352d1902d6040518163ffffffff1660e01b8152600401602060405180830381865afa9250505080156124e8575060408051601f3d908101601f191682019092526124e591810190613fa6565b60015b61254b5760405162461bcd60e51b815260206004820152602e60248201527f45524331393637557067726164653a206e657720696d706c656d656e7461746960448201526d6f6e206973206e6f74205555505360901b6064820152608401610ab7565b5f8051602061418183398151915281146125b95760405162461bcd60e51b815260206004820152602960248201527f45524331393637557067726164653a20756e737570706f727465642070726f786044820152681a58589b195555525160ba1b6064820152608401610ab7565b50610b58838383612a6c565b5f6125cf82611439565b90506125dc815f8461295d565b6125e65f83611f18565b6001600160a01b0381165f90815260686020526040812080546001929061260e908490613e16565b90915550505f8281526067602052604080822080546001600160a01b0319169055518391906001600160a01b038416907fddf252ad1be2c89b69c2b068fc378daa952ba7f163c4a11628f55a4df523b3ef908390a45050565b5f54610100900460ff1661268d5760405162461bcd60e51b8152600401610ab790613fbd565b610ea08282612a90565b5f54610100900460ff166126bd5760405162461bcd60e51b8152600401610ab790613fbd565b565b610ea082826121af565b816001600160a01b0316836001600160a01b03160361272a5760405162461bcd60e51b815260206004820152601960248201527f4552433732313a20617070726f766520746f2063616c6c6572000000000000006044820152606401610ab7565b6001600160a01b038381165f818152606a6020908152604080832094871680845294825291829020805460ff191686151590811790915591519182527f17307eab39ab6107e8899845ad3d59bd9653f200f220920489ca2b5937696c31910160405180910390a3505050565b6127a184848461200c565b6127ad84848484612acf565b610c015760405162461bcd60e51b8152600401610ab790614008565b6060610196805461099e90613a90565b6060815f036127ff5750506040805180820190915260018152600360fc1b602082015290565b815f5b8115612828578061281281613b03565b91506128219050600a8361406e565b9150612802565b5f816001600160401b0381111561284157612841613494565b6040519080825280601f01601f19166020018201604052801561286b576020820181803683370190505b5090505b841561200457612880600183613e16565b915061288d600a86614081565b612898906030613af0565b60f81b8183815181106128ad576128ad613ac8565b60200101906001600160f81b03191690815f1a9053506128ce600a8661406e565b945061286f565b5f6001600160e01b0319821663780e9d6360e01b1480610989575061098982612bcc565b6129038282611c5b565b610ea05761291b816001600160a01b03166014612c1b565b612926836020612c1b565b604051602001612937929190614094565b60408051601f198184030181529082905262461bcd60e51b8252610ab7916004016133d0565b6001600160a01b038316156129ad5760405162461bcd60e51b8152602060048201526016602482015275746f6b656e206e6f74207472616e7366657261626c6560501b6044820152606401610ab7565b610b58838383612db0565b610ea0828260405180602001604052805f815250612e67565b6001600160a01b0381163b612a3e5760405162461bcd60e51b815260206004820152602d60248201527f455243313936373a206e657720696d706c656d656e746174696f6e206973206e60448201526c1bdd08184818dbdb9d1c9858dd609a1b6064820152608401610ab7565b5f8051602061418183398151915280546001600160a01b0319166001600160a01b0392909216919091179055565b612a7583612e99565b5f82511180612a815750805b15610b5857610c018383612ed8565b5f54610100900460ff16612ab65760405162461bcd60e51b8152600401610ab790613fbd565b6065612ac28382613e29565b506066610b588282613e29565b5f6001600160a01b0384163b15612bc157604051630a85bd0160e11b81526001600160a01b0385169063150b7a0290612b12903390899088908890600401614108565b6020604051808303815f875af1925050508015612b4c575060408051601f3d908101601f19168201909252612b499181019061413a565b60015b612ba7573d808015612b79576040519150601f19603f3d011682016040523d82523d5f602084013e612b7e565b606091505b5080515f03612b9f5760405162461bcd60e51b8152600401610ab790614008565b805181602001fd5b6001600160e01b031916630a85bd0160e11b149050612004565b506001949350505050565b5f6001600160e01b031982166380ac58cd60e01b1480612bfc57506001600160e01b03198216635b5e139f60e01b145b8061098957506301ffc9a760e01b6001600160e01b0319831614610989565b60605f612c29836002614155565b612c34906002613af0565b6001600160401b03811115612c4b57612c4b613494565b6040519080825280601f01601f191660200182016040528015612c75576020820181803683370190505b509050600360fc1b815f81518110612c8f57612c8f613ac8565b60200101906001600160f81b03191690815f1a905350600f60fb1b81600181518110612cbd57612cbd613ac8565b60200101906001600160f81b03191690815f1a9053505f612cdf846002614155565b612cea906001613af0565b90505b6001811115612d61576f181899199a1a9b1b9c1cb0b131b232b360811b85600f1660108110612d1e57612d1e613ac8565b1a60f81b828281518110612d3457612d34613ac8565b60200101906001600160f81b03191690815f1a90535060049490941c93612d5a81613c77565b9050612ced565b508315611dc95760405162461bcd60e51b815260206004820181905260248201527f537472696e67733a20686578206c656e67746820696e73756666696369656e746044820152606401610ab7565b6001600160a01b038316612e0a57612e0581609980545f838152609a60205260408120829055600182018355919091527f72a152ddfb8e864297c917af52ea6c1c68aead0fee1a62673fcc7e0c94979d000155565b612e2d565b816001600160a01b0316836001600160a01b031614612e2d57612e2d8382612fc8565b6001600160a01b038216612e4457610b5881613061565b826001600160a01b0316826001600160a01b031614610b5857610b588282613108565b612e71838361314a565b612e7d5f848484612acf565b610b585760405162461bcd60e51b8152600401610ab790614008565b612ea2816129d1565b6040516001600160a01b038216907fbc7cd75a20ee27fd9adebab32041f755214dbc6bffa90cc0225b39da2e5c2d3b905f90a250565b60606001600160a01b0383163b612f405760405162461bcd60e51b815260206004820152602660248201527f416464726573733a2064656c65676174652063616c6c20746f206e6f6e2d636f6044820152651b9d1c9858dd60d21b6064820152608401610ab7565b5f80846001600160a01b031684604051612f5a9190613d24565b5f60405180830381855af49150503d805f8114612f92576040519150601f19603f3d011682016040523d82523d5f602084013e612f97565b606091505b5091509150612fbf82826040518060600160405280602781526020016141a160279139613294565b95945050505050565b5f6001612fd484611a6b565b612fde9190613e16565b5f8381526098602052604090205490915080821461302f576001600160a01b0384165f9081526097602090815260408083208584528252808320548484528184208190558352609890915290208190555b505f9182526098602090815260408084208490556001600160a01b039094168352609781528383209183525290812055565b6099545f9061307290600190613e16565b5f838152609a60205260408120546099805493945090928490811061309957613099613ac8565b905f5260205f200154905080609983815481106130b8576130b8613ac8565b5f918252602080832090910192909255828152609a909152604080822084905585825281205560998054806130ef576130ef61416c565b600190038181905f5260205f20015f9055905550505050565b5f61311283611a6b565b6001600160a01b039093165f908152609760209081526040808320868452825280832085905593825260989052919091209190915550565b6001600160a01b0382166131a05760405162461bcd60e51b815260206004820181905260248201527f4552433732313a206d696e7420746f20746865207a65726f20616464726573736044820152606401610ab7565b5f818152606760205260409020546001600160a01b0316156132045760405162461bcd60e51b815260206004820152601c60248201527f4552433732313a20746f6b656e20616c7265616479206d696e746564000000006044820152606401610ab7565b61320f5f838361295d565b6001600160a01b0382165f908152606860205260408120805460019290613237908490613af0565b90915550505f8181526067602052604080822080546001600160a01b0319166001600160a01b03861690811790915590518392907fddf252ad1be2c89b69c2b068fc378daa952ba7f163c4a11628f55a4df523b3ef908290a45050565b606083156132a3575081611dc9565b8251156132b35782518084602001fd5b8160405162461bcd60e51b8152600401610ab791906133d0565b82600281019282156132fb579160200282015b828111156132fb5782358255916020019190600101906132e0565b5061330792915061330b565b5090565b5b80821115613307575f815560010161330c565b80356001600160a01b0381168114613335575f80fd5b919050565b5f6020828403121561334a575f80fd5b611dc98261331f565b6001600160e01b031981168114610e04575f80fd5b5f60208284031215613378575f80fd5b8135611dc981613353565b5f5b8381101561339d578181015183820152602001613385565b50505f910152565b5f81518084526133bc816020860160208601613383565b601f01601f19169290920160200192915050565b602081525f611dc960208301846133a5565b5f602082840312156133f2575f80fd5b5035919050565b5f806040838503121561340a575f80fd5b6134138361331f565b946020939093013593505050565b5f805f60408486031215613433575f80fd5b83356001600160401b0380821115613449575f80fd5b818601915086601f83011261345c575f80fd5b81358181111561346a575f80fd5b8760208260051b850101111561347e575f80fd5b6020928301989097509590910135949350505050565b634e487b7160e01b5f52604160045260245ffd5b604051606081016001600160401b03811182821017156134ca576134ca613494565b60405290565b604080519081016001600160401b03811182821017156134ca576134ca613494565b5f82601f830112613501575f80fd5b81356001600160401b038082111561351b5761351b613494565b604051601f8301601f19908116603f0116810190828211818310171561354357613543613494565b8160405283815286602085880101111561355b575f80fd5b836020870160208301375f602085830101528094505050505092915050565b5f6020828403121561358a575f80fd5b81356001600160401b0381111561359f575f80fd5b612004848285016134f2565b5f8083601f8401126135bb575f80fd5b5081356001600160401b038111156135d1575f80fd5b6020830191508360208285010111156135e8575f80fd5b9250929050565b5f8060208385031215613600575f80fd5b82356001600160401b03811115613615575f80fd5b613621858286016135ab565b90969095509350505050565b5f805f6060848603121561363f575f80fd5b6136488461331f565b92506136566020850161331f565b9150604084013590509250925092565b5f805f805f805f805f60c08a8c03121561367e575f80fd5b6136878a61331f565b985060408a018b811115613699575f80fd5b60208b01985035965060608a01356001600160401b03808211156136bb575f80fd5b6136c78d838e016135ab565b909850965060808c01359150808211156136df575f80fd5b6136eb8d838e016135ab565b909650945060a08c0135915080821115613703575f80fd5b506137108c828d016135ab565b915080935050809150509295985092959850929598565b5f8060408385031215613738575f80fd5b823591506137486020840161331f565b90509250929050565b5f805f805f60a08688031215613765575f80fd5b61376e8661331f565b945060208601356001600160401b0380821115613789575f80fd5b61379589838a016134f2565b955060408801359150808211156137aa575f80fd5b6137b689838a016134f2565b945060608801359150808211156137cb575f80fd5b506137d8888289016134f2565b95989497509295608001359392505050565b5f80604083850312156137fb575f80fd5b6138048361331f565b915060208301356001600160401b0381111561381e575f80fd5b61382a858286016134f2565b9150509250929050565b606081525f61384660608301866133a5565b828103602084015261385881866133a5565b9050828103604084015261386c81856133a5565b9695505050505050565b5f82601f830112613885575f80fd5b61388d6134d0565b80604084018581111561389e575f80fd5b845b818110156138b85780358452602093840193016138a0565b509095945050505050565b5f808284036101408112156138d6575f80fd5b610100808212156138e5575f80fd5b6138ed6134a8565b91506138f98686613876565b8252604086605f87011261390b575f80fd5b6139136134d0565b8060c0880189811115613924575f80fd5b8389015b818110156139495761393a8b82613876565b84526020909301928401613928565b5081602087015261395a8a82613876565b848701525050505081935061397186828701613876565b925050509250929050565b8015158114610e04575f80fd5b5f806040838503121561399a575f80fd5b6139a38361331f565b915060208301356139b38161397c565b809150509250929050565b5f805f80608085870312156139d1575f80fd5b6139da8561331f565b93506139e86020860161331f565b92506040850135915060608501356001600160401b03811115613a09575f80fd5b613a15878288016134f2565b91505092959194509250565b5f805f60408486031215613a33575f80fd5b8335925060208401356001600160401b03811115613a4f575f80fd5b613a5b868287016135ab565b9497909650939450505050565b5f8060408385031215613a79575f80fd5b613a828361331f565b91506137486020840161331f565b600181811c90821680613aa457607f821691505b602082108103613ac257634e487b7160e01b5f52602260045260245ffd5b50919050565b634e487b7160e01b5f52603260045260245ffd5b634e487b7160e01b5f52601160045260245ffd5b8082018082111561098957610989613adc565b5f60018201613b1457613b14613adc565b5060010190565b601f821115610b58575f81815260208120601f850160051c81016020861015613b415750805b601f850160051c820191505b81811015610e1e57828155600101613b4d565b5f19600383901b1c191660019190911b1790565b6001600160401b03831115613b8b57613b8b613494565b613b9f83613b998354613a90565b83613b1b565b5f601f841160018114613bcb575f8515613bb95750838201355b613bc38682613b60565b845550610be2565b5f83815260209020601f19861690835b82811015613bfb5786850135825560209485019460019092019101613bdb565b5086821015613c17575f1960f88860031b161c19848701351681555b505060018560011b0183555050505050565b6020808252602e908201527f4552433732313a2063616c6c6572206973206e6f7420746f6b656e206f776e6560408201526d1c881b9bdc88185c1c1c9bdd995960921b606082015260800190565b5f81613c8557613c85613adc565b505f190190565b6020808252602c908201527f46756e6374696f6e206d7573742062652063616c6c6564207468726f7567682060408201526b19195b1959d85d1958d85b1b60a21b606082015260800190565b6020808252602c908201527f46756e6374696f6e206d7573742062652063616c6c6564207468726f7567682060408201526b6163746976652070726f787960a01b606082015260800190565b5f8251613d35818460208701613383565b9190910192915050565b805f5b6002811015610c01578151845260209384019390910190600101613d42565b6101408101613d708287613d3f565b6040808301865f5b6002811015613d9f57613d8c838351613d3f565b9183019160209190910190600101613d78565b50505050613db060c0830185613d3f565b612fbf610100830184613d3f565b5f60208284031215613dce575f80fd5b8151611dc98161397c565b5f8351613dea818460208801613383565b835190830190613dfe818360208801613383565b01949350505050565b818382375f9101908152919050565b8181038181111561098957610989613adc565b81516001600160401b03811115613e4257613e42613494565b613e5681613e508454613a90565b84613b1b565b602080601f831160018114613e84575f8415613e725750858301515b613e7c8582613b60565b865550610e1e565b5f85815260208120601f198616915b82811015613eb257888601518255948401946001909101908401613e93565b5085821015613ecf57878501515f19600388901b60f8161c191681555b5050505050600190811b01905550565b818103613eea575050565b613ef48254613a90565b6001600160401b03811115613f0b57613f0b613494565b613f1981613e508454613a90565b5f601f821160018114613f45575f8315613f335750848201545b613f3d8482613b60565b855550610be2565b5f85815260209020601f198416905f86815260209020845b83811015613f7d5782860154825560019586019590910190602001613f5d565b5085831015613ecf579301545f1960f8600387901b161c19169092555050600190811b01905550565b5f60208284031215613fb6575f80fd5b5051919050565b6020808252602b908201527f496e697469616c697a61626c653a20636f6e7472616374206973206e6f74206960408201526a6e697469616c697a696e6760a81b606082015260800190565b60208082526032908201527f4552433732313a207472616e7366657220746f206e6f6e20455243373231526560408201527131b2b4bb32b91034b6b83632b6b2b73a32b960711b606082015260800190565b634e487b7160e01b5f52601260045260245ffd5b5f8261407c5761407c61405a565b500490565b5f8261408f5761408f61405a565b500690565b7f416363657373436f6e74726f6c3a206163636f756e742000000000000000000081525f83516140cb816017850160208801613383565b7001034b99036b4b9b9b4b733903937b6329607d1b60179184019182015283516140fc816028840160208801613383565b01602801949350505050565b6001600160a01b03858116825284166020820152604081018390526080606082018190525f9061386c908301846133a5565b5f6020828403121561414a575f80fd5b8151611dc981613353565b808202811582820484141761098957610989613adc565b634e487b7160e01b5f52603160045260245ffdfe360894a13ba1a3210667c828492db98dca3e2076cc3735a920a3ca505d382bbc416464726573733a206c6f772d6c6576656c2064656c65676174652063616c6c206661696c6564a2646970667358221220bd39072c7b900c562e203e245db1882a2df0dd31ff699f3e889c1f37d4094af564736f6c63430008150033",
			"opcodes": "PUSH1 0xA0 PUSH1 0x40 MSTORE ADDRESS PUSH1 0x80 MSTORE CALLVALUE DUP1 ISZERO PUSH2 0x13 JUMPI PUSH0 DUP1 REVERT JUMPDEST POP PUSH1 0x80 MLOAD PUSH2 0x41FD PUSH2 0x48 PUSH0 CODECOPY PUSH0 DUP2 DUP2 PUSH2 0xEAE ADD MSTORE DUP2 DUP2 PUSH2 0xEEE ADD MSTORE DUP2 DUP2 PUSH2 0x105D ADD MSTORE DUP2 DUP2 PUSH2 0x109D ADD MSTORE PUSH2 0x11BA ADD MSTORE PUSH2 0x41FD PUSH0 RETURN INVALID PUSH1 0x80 PUSH1 0x40 MSTORE PUSH1 0x4 CALLDATASIZE LT PUSH2 0x2F2 JUMPI PUSH0 CALLDATALOAD PUSH1 0xE0 SHR DUP1 PUSH4 0x55F804B3 GT PUSH2 0x189 JUMPI DUP1 PUSH4 0xA217FDDF GT PUSH2 0xD8 JUMPI DUP1 PUSH4 0xD547741F GT PUSH2 0x92 JUMPI DUP1 PUSH4 0xE15E2FD4 GT PUSH2 0x6D JUMPI DUP1 PUSH4 0xE15E2FD4 EQ PUSH2 0x8E6 JUMPI DUP1 PUSH4 0xE7F08E69 EQ PUSH2 0x905 JUMPI DUP1 PUSH4 0xE985E9C5 EQ PUSH2 0x924 JUMPI DUP1 PUSH4 0xF1FE6911 EQ PUSH2 0x96B JUMPI PUSH0 DUP1 REVERT JUMPDEST DUP1 PUSH4 0xD547741F EQ PUSH2 0x888 JUMPI DUP1 PUSH4 0xD674CC2B EQ PUSH2 0x8A7 JUMPI DUP1 PUSH4 0xD6DF096D EQ PUSH2 0x8C6 JUMPI PUSH0 DUP1 REVERT JUMPDEST DUP1 PUSH4 0xA217FDDF EQ PUSH2 0x7C1 JUMPI DUP1 PUSH4 0xA22CB465 EQ PUSH2 0x7D4 JUMPI DUP1 PUSH4 0xB63CB3B9 EQ PUSH2 0x7F3 JUMPI DUP1 PUSH4 0xB88D4FDE EQ PUSH2 0x82B JUMPI DUP1 PUSH4 0xC0CECB9A EQ PUSH2 0x84A JUMPI DUP1 PUSH4 0xC87B56DD EQ PUSH2 0x869 JUMPI PUSH0 DUP1 REVERT JUMPDEST DUP1 PUSH4 0x6C0360EB GT PUSH2 0x143 JUMPI DUP1 PUSH4 0x8129FC1C GT PUSH2 0x11E JUMPI DUP1 PUSH4 0x8129FC1C EQ PUSH2 0x766 JUMPI DUP1 PUSH4 0x91D14854 EQ PUSH2 0x77A JUMPI DUP1 PUSH4 0x95D89B41 EQ PUSH2 0x799 JUMPI DUP1 PUSH4 0x9CBFF422 EQ PUSH2 0x7AD JUMPI PUSH0 DUP1 REVERT JUMPDEST DUP1 PUSH4 0x6C0360EB EQ PUSH2 0x71D JUMPI DUP1 PUSH4 0x70A08231 EQ PUSH2 0x731 JUMPI DUP1 PUSH4 0x7909EB73 EQ PUSH2 0x750 JUMPI PUSH0 DUP1 REVERT JUMPDEST DUP1 PUSH4 0x55F804B3 EQ PUSH2 0x668 JUMPI DUP1 PUSH4 0x599ED3FF EQ PUSH2 0x687 JUMPI DUP1 PUSH4 0x5A8AFBFC EQ PUSH2 0x6B5 JUMPI DUP1 PUSH4 0x6344CD20 EQ PUSH2 0x6CB JUMPI DUP1 PUSH4 0x6352211E EQ PUSH2 0x6DF JUMPI DUP1 PUSH4 0x677A9C30 EQ PUSH2 0x6FE JUMPI PUSH0 DUP1 REVERT JUMPDEST DUP1 PUSH4 0x2F745C59 GT PUSH2 0x245 JUMPI DUP1 PUSH4 0x42842E0E GT PUSH2 0x1FF JUMPI DUP1 PUSH4 0x4F1EF286 GT PUSH2 0x1DA JUMPI DUP1 PUSH4 0x4F1EF286 EQ PUSH2 0x5F5 JUMPI DUP1 PUSH4 0x4F6CCCE7 EQ PUSH2 0x608 JUMPI DUP1 PUSH4 0x52D1902D EQ PUSH2 0x627 JUMPI DUP1 PUSH4 0x54FD4D50 EQ PUSH2 0x63B JUMPI PUSH0 DUP1 REVERT JUMPDEST DUP1 PUSH4 0x42842E0E EQ PUSH2 0x5A3 JUMPI DUP1 PUSH4 0x42966C68 EQ PUSH2 0x5C2 JUMPI DUP1 PUSH4 0x43D3CF61 EQ PUSH2 0x5E1 JUMPI PUSH0 DUP1 REVERT JUMPDEST DUP1 PUSH4 0x2F745C59 EQ PUSH2 0x4F2 JUMPI DUP1 PUSH4 0x32A93A3A EQ PUSH2 0x511 JUMPI DUP1 PUSH4 0x35B1A7EA EQ PUSH2 0x530 JUMPI DUP1 PUSH4 0x36568ABE EQ PUSH2 0x54F JUMPI DUP1 PUSH4 0x3659CFE6 EQ PUSH2 0x56E JUMPI DUP1 PUSH4 0x42778642 EQ PUSH2 0x58D JUMPI PUSH0 DUP1 REVERT JUMPDEST DUP1 PUSH4 0x18160DDD GT PUSH2 0x2B0 JUMPI DUP1 PUSH4 0x23B872DD GT PUSH2 0x28B JUMPI DUP1 PUSH4 0x23B872DD EQ PUSH2 0x467 JUMPI DUP1 PUSH4 0x248A9CA3 EQ PUSH2 0x486 JUMPI DUP1 PUSH4 0x2BD07D5F EQ PUSH2 0x4B4 JUMPI DUP1 PUSH4 0x2F2FF15D EQ PUSH2 0x4D3 JUMPI PUSH0 DUP1 REVERT JUMPDEST DUP1 PUSH4 0x18160DDD EQ PUSH2 0x3FC JUMPI DUP1 PUSH4 0x1823E26A EQ PUSH2 0x410 JUMPI DUP1 PUSH4 0x1AA2C2F8 EQ PUSH2 0x448 JUMPI PUSH0 DUP1 REVERT JUMPDEST DUP1 PUSH3 0x5C154E EQ PUSH2 0x2F6 JUMPI DUP1 PUSH4 0x1FFC9A7 EQ PUSH2 0x335 JUMPI DUP1 PUSH4 0x6FDDE03 EQ PUSH2 0x364 JUMPI DUP1 PUSH4 0x81812FC EQ PUSH2 0x385 JUMPI DUP1 PUSH4 0x95EA7B3 EQ PUSH2 0x3BC JUMPI DUP1 PUSH4 0x1693D2EB EQ PUSH2 0x3DD JUMPI JUMPDEST PUSH0 DUP1 REVERT JUMPDEST CALLVALUE DUP1 ISZERO PUSH2 0x301 JUMPI PUSH0 DUP1 REVERT JUMPDEST POP PUSH2 0x322 PUSH2 0x310 CALLDATASIZE PUSH1 0x4 PUSH2 0x333A JUMP JUMPDEST PUSH2 0x194 PUSH1 0x20 MSTORE PUSH0 SWAP1 DUP2 MSTORE PUSH1 0x40 SWAP1 KECCAK256 SLOAD DUP2 JUMP JUMPDEST PUSH1 0x40 MLOAD SWAP1 DUP2 MSTORE PUSH1 0x20 ADD JUMPDEST PUSH1 0x40 MLOAD DUP1 SWAP2 SUB SWAP1 RETURN JUMPDEST CALLVALUE DUP1 ISZERO PUSH2 0x340 JUMPI PUSH0 DUP1 REVERT JUMPDEST POP PUSH2 0x354 PUSH2 0x34F CALLDATASIZE PUSH1 0x4 PUSH2 0x3368 JUMP JUMPDEST PUSH2 0x97F JUMP JUMPDEST PUSH1 0x40 MLOAD SWAP1 ISZERO ISZERO DUP2 MSTORE PUSH1 0x20 ADD PUSH2 0x32C JUMP JUMPDEST CALLVALUE DUP1 ISZERO PUSH2 0x36F JUMPI PUSH0 DUP1 REVERT JUMPDEST POP PUSH2 0x378 PUSH2 0x98F JUMP JUMPDEST PUSH1 0x40 MLOAD PUSH2 0x32C SWAP2 SWAP1 PUSH2 0x33D0 JUMP JUMPDEST CALLVALUE DUP1 ISZERO PUSH2 0x390 JUMPI PUSH0 DUP1 REVERT JUMPDEST POP PUSH2 0x3A4 PUSH2 0x39F CALLDATASIZE PUSH1 0x4 PUSH2 0x33E2 JUMP JUMPDEST PUSH2 0xA1F JUMP JUMPDEST PUSH1 0x40 MLOAD PUSH1 0x1 PUSH1 0x1 PUSH1 0xA0 SHL SUB SWAP1 SWAP2 AND DUP2 MSTORE PUSH1 0x20 ADD PUSH2 0x32C JUMP JUMPDEST CALLVALUE DUP1 ISZERO PUSH2 0x3C7 JUMPI PUSH0 DUP1 REVERT JUMPDEST POP PUSH2 0x3DB PUSH2 0x3D6 CALLDATASIZE PUSH1 0x4 PUSH2 0x33F9 JUMP JUMPDEST PUSH2 0xA44 JUMP JUMPDEST STOP JUMPDEST CALLVALUE DUP1 ISZERO PUSH2 0x3E8 JUMPI PUSH0 DUP1 REVERT JUMPDEST POP PUSH2 0x3DB PUSH2 0x3F7 CALLDATASIZE PUSH1 0x4 PUSH2 0x3421 JUMP JUMPDEST PUSH2 0xB5D JUMP JUMPDEST CALLVALUE DUP1 ISZERO PUSH2 0x407 JUMPI PUSH0 DUP1 REVERT JUMPDEST POP PUSH1 0x99 SLOAD PUSH2 0x322 JUMP JUMPDEST CALLVALUE DUP1 ISZERO PUSH2 0x41B JUMPI PUSH0 DUP1 REVERT JUMPDEST POP PUSH2 0x322 PUSH2 0x42A CALLDATASIZE PUSH1 0x4 PUSH2 0x357A JUMP JUMPDEST DUP1 MLOAD PUSH1 0x20 DUP2 DUP4 ADD DUP2 ADD DUP1 MLOAD PUSH2 0x19D DUP3 MSTORE SWAP3 DUP3 ADD SWAP2 SWAP1 SWAP4 ADD KECCAK256 SWAP2 MSTORE SLOAD DUP2 JUMP JUMPDEST CALLVALUE DUP1 ISZERO PUSH2 0x453 JUMPI PUSH0 DUP1 REVERT JUMPDEST POP PUSH2 0x3DB PUSH2 0x462 CALLDATASIZE PUSH1 0x4 PUSH2 0x35EF JUMP JUMPDEST PUSH2 0xBE9 JUMP JUMPDEST CALLVALUE DUP1 ISZERO PUSH2 0x472 JUMPI PUSH0 DUP1 REVERT JUMPDEST POP PUSH2 0x3DB PUSH2 0x481 CALLDATASIZE PUSH1 0x4 PUSH2 0x362D JUMP JUMPDEST PUSH2 0xC07 JUMP JUMPDEST CALLVALUE DUP1 ISZERO PUSH2 0x491 JUMPI PUSH0 DUP1 REVERT JUMPDEST POP PUSH2 0x322 PUSH2 0x4A0 CALLDATASIZE PUSH1 0x4 PUSH2 0x33E2 JUMP JUMPDEST PUSH0 SWAP1 DUP2 MSTORE PUSH1 0xFB PUSH1 0x20 MSTORE PUSH1 0x40 SWAP1 KECCAK256 PUSH1 0x1 ADD SLOAD SWAP1 JUMP JUMPDEST CALLVALUE DUP1 ISZERO PUSH2 0x4BF JUMPI PUSH0 DUP1 REVERT JUMPDEST POP PUSH2 0x3DB PUSH2 0x4CE CALLDATASIZE PUSH1 0x4 PUSH2 0x3666 JUMP JUMPDEST PUSH2 0xC39 JUMP JUMPDEST CALLVALUE DUP1 ISZERO PUSH2 0x4DE JUMPI PUSH0 DUP1 REVERT JUMPDEST POP PUSH2 0x3DB PUSH2 0x4ED CALLDATASIZE PUSH1 0x4 PUSH2 0x3727 JUMP JUMPDEST PUSH2 0xCD2 JUMP JUMPDEST CALLVALUE DUP1 ISZERO PUSH2 0x4FD JUMPI PUSH0 DUP1 REVERT JUMPDEST POP PUSH2 0x322 PUSH2 0x50C CALLDATASIZE PUSH1 0x4 PUSH2 0x33F9 JUMP JUMPDEST PUSH2 0xCF6 JUMP JUMPDEST CALLVALUE DUP1 ISZERO PUSH2 0x51C JUMPI PUSH0 DUP1 REVERT JUMPDEST POP PUSH2 0x3DB PUSH2 0x52B CALLDATASIZE PUSH1 0x4 PUSH2 0x333A JUMP JUMPDEST PUSH2 0xD8A JUMP JUMPDEST CALLVALUE DUP1 ISZERO PUSH2 0x53B JUMPI PUSH0 DUP1 REVERT JUMPDEST POP PUSH2 0x3DB PUSH2 0x54A CALLDATASIZE PUSH1 0x4 PUSH2 0x3751 JUMP JUMPDEST PUSH2 0xE07 JUMP JUMPDEST CALLVALUE DUP1 ISZERO PUSH2 0x55A JUMPI PUSH0 DUP1 REVERT JUMPDEST POP PUSH2 0x3DB PUSH2 0x569 CALLDATASIZE PUSH1 0x4 PUSH2 0x3727 JUMP JUMPDEST PUSH2 0xE26 JUMP JUMPDEST CALLVALUE DUP1 ISZERO PUSH2 0x579 JUMPI PUSH0 DUP1 REVERT JUMPDEST POP PUSH2 0x3DB PUSH2 0x588 CALLDATASIZE PUSH1 0x4 PUSH2 0x333A JUMP JUMPDEST PUSH2 0xEA4 JUMP JUMPDEST CALLVALUE DUP1 ISZERO PUSH2 0x598 JUMPI PUSH0 DUP1 REVERT JUMPDEST POP PUSH2 0x322 PUSH2 0x19C SLOAD DUP2 JUMP JUMPDEST CALLVALUE DUP1 ISZERO PUSH2 0x5AE JUMPI PUSH0 DUP1 REVERT JUMPDEST POP PUSH2 0x3DB PUSH2 0x5BD CALLDATASIZE PUSH1 0x4 PUSH2 0x362D JUMP JUMPDEST PUSH2 0xF7E JUMP JUMPDEST CALLVALUE DUP1 ISZERO PUSH2 0x5CD JUMPI PUSH0 DUP1 REVERT JUMPDEST POP PUSH2 0x3DB PUSH2 0x5DC CALLDATASIZE PUSH1 0x4 PUSH2 0x33E2 JUMP JUMPDEST PUSH2 0xF98 JUMP JUMPDEST CALLVALUE DUP1 ISZERO PUSH2 0x5EC JUMPI PUSH0 DUP1 REVERT JUMPDEST POP PUSH2 0x378 PUSH2 0xFC6 JUMP JUMPDEST PUSH2 0x3DB PUSH2 0x603 CALLDATASIZE PUSH1 0x4 PUSH2 0x37EA JUMP JUMPDEST PUSH2 0x1053 JUMP JUMPDEST CALLVALUE DUP1 ISZERO PUSH2 0x613 JUMPI PUSH0 DUP1 REVERT JUMPDEST POP PUSH2 0x322 PUSH2 0x622 CALLDATASIZE PUSH1 0x4 PUSH2 0x33E2 JUMP JUMPDEST PUSH2 0x111E JUMP JUMPDEST CALLVALUE DUP1 ISZERO PUSH2 0x632 JUMPI PUSH0 DUP1 REVERT JUMPDEST POP PUSH2 0x322 PUSH2 0x11AE JUMP JUMPDEST CALLVALUE DUP1 ISZERO PUSH2 0x646 JUMPI PUSH0 DUP1 REVERT JUMPDEST POP PUSH1 0x40 DUP1 MLOAD DUP1 DUP3 ADD SWAP1 SWAP2 MSTORE PUSH1 0x5 DUP2 MSTORE PUSH5 0x322E342E3 PUSH1 0xDC SHL PUSH1 0x20 DUP3 ADD MSTORE PUSH2 0x378 JUMP JUMPDEST CALLVALUE DUP1 ISZERO PUSH2 0x673 JUMPI PUSH0 DUP1 REVERT JUMPDEST POP PUSH2 0x3DB PUSH2 0x682 CALLDATASIZE PUSH1 0x4 PUSH2 0x35EF JUMP JUMPDEST PUSH2 0x125F JUMP JUMPDEST CALLVALUE DUP1 ISZERO PUSH2 0x692 JUMPI PUSH0 DUP1 REVERT JUMPDEST POP PUSH2 0x6A6 PUSH2 0x6A1 CALLDATASIZE PUSH1 0x4 PUSH2 0x33E2 JUMP JUMPDEST PUSH2 0x1277 JUMP JUMPDEST PUSH1 0x40 MLOAD PUSH2 0x32C SWAP4 SWAP3 SWAP2 SWAP1 PUSH2 0x3834 JUMP JUMPDEST CALLVALUE DUP1 ISZERO PUSH2 0x6C0 JUMPI PUSH0 DUP1 REVERT JUMPDEST POP PUSH2 0x322 PUSH2 0x19B SLOAD DUP2 JUMP JUMPDEST CALLVALUE DUP1 ISZERO PUSH2 0x6D6 JUMPI PUSH0 DUP1 REVERT JUMPDEST POP PUSH2 0x378 PUSH2 0x142B JUMP JUMPDEST CALLVALUE DUP1 ISZERO PUSH2 0x6EA JUMPI PUSH0 DUP1 REVERT JUMPDEST POP PUSH2 0x3A4 PUSH2 0x6F9 CALLDATASIZE PUSH1 0x4 PUSH2 0x33E2 JUMP JUMPDEST PUSH2 0x1439 JUMP JUMPDEST CALLVALUE DUP1 ISZERO PUSH2 0x709 JUMPI PUSH0 DUP1 REVERT JUMPDEST POP PUSH2 0x3DB PUSH2 0x718 CALLDATASIZE PUSH1 0x4 PUSH2 0x38C3 JUMP JUMPDEST PUSH2 0x1498 JUMP JUMPDEST CALLVALUE DUP1 ISZERO PUSH2 0x728 JUMPI PUSH0 DUP1 REVERT JUMPDEST POP PUSH2 0x378 PUSH2 0x1A5D JUMP JUMPDEST CALLVALUE DUP1 ISZERO PUSH2 0x73C JUMPI PUSH0 DUP1 REVERT JUMPDEST POP PUSH2 0x322 PUSH2 0x74B CALLDATASIZE PUSH1 0x4 PUSH2 0x333A JUMP JUMPDEST PUSH2 0x1A6B JUMP JUMPDEST CALLVALUE DUP1 ISZERO PUSH2 0x75B JUMPI PUSH0 DUP1 REVERT JUMPDEST POP PUSH2 0x322 PUSH2 0x19A SLOAD DUP2 JUMP JUMPDEST CALLVALUE DUP1 ISZERO PUSH2 0x771 JUMPI PUSH0 DUP1 REVERT JUMPDEST POP PUSH2 0x3DB PUSH2 0x1AEF JUMP JUMPDEST CALLVALUE DUP1 ISZERO PUSH2 0x785 JUMPI PUSH0 DUP1 REVERT JUMPDEST POP PUSH2 0x354 PUSH2 0x794 CALLDATASIZE PUSH1 0x4 PUSH2 0x3727 JUMP JUMPDEST PUSH2 0x1C5B JUMP JUMPDEST CALLVALUE DUP1 ISZERO PUSH2 0x7A4 JUMPI PUSH0 DUP1 REVERT JUMPDEST POP PUSH2 0x378 PUSH2 0x1C85 JUMP JUMPDEST CALLVALUE DUP1 ISZERO PUSH2 0x7B8 JUMPI PUSH0 DUP1 REVERT JUMPDEST POP PUSH2 0x378 PUSH2 0x1C94 JUMP JUMPDEST CALLVALUE DUP1 ISZERO PUSH2 0x7CC JUMPI PUSH0 DUP1 REVERT JUMPDEST POP PUSH2 0x322 PUSH0 DUP2 JUMP JUMPDEST CALLVALUE DUP1 ISZERO PUSH2 0x7DF JUMPI PUSH0 DUP1 REVERT JUMPDEST POP PUSH2 0x3DB PUSH2 0x7EE CALLDATASIZE PUSH1 0x4 PUSH2 0x3989 JUMP JUMPDEST PUSH2 0x1CA2 JUMP JUMPDEST CALLVALUE DUP1 ISZERO PUSH2 0x7FE JUMPI PUSH0 DUP1 REVERT JUMPDEST POP PUSH2 0x322 PUSH2 0x80D CALLDATASIZE PUSH1 0x4 PUSH2 0x357A JUMP JUMPDEST DUP1 MLOAD PUSH1 0x20 DUP2 DUP4 ADD DUP2 ADD DUP1 MLOAD PUSH2 0x19E DUP3 MSTORE SWAP3 DUP3 ADD SWAP2 SWAP1 SWAP4 ADD KECCAK256 SWAP2 MSTORE SLOAD DUP2 JUMP JUMPDEST CALLVALUE DUP1 ISZERO PUSH2 0x836 JUMPI PUSH0 DUP1 REVERT JUMPDEST POP PUSH2 0x3DB PUSH2 0x845 CALLDATASIZE PUSH1 0x4 PUSH2 0x39BE JUMP JUMPDEST PUSH2 0x1CAD JUMP JUMPDEST CALLVALUE DUP1 ISZERO PUSH2 0x855 JUMPI PUSH0 DUP1 REVERT JUMPDEST POP PUSH2 0x3DB PUSH2 0x864 CALLDATASIZE PUSH1 0x4 PUSH2 0x3A21 JUMP JUMPDEST PUSH2 0x1CDF JUMP JUMPDEST CALLVALUE DUP1 ISZERO PUSH2 0x874 JUMPI PUSH0 DUP1 REVERT JUMPDEST POP PUSH2 0x378 PUSH2 0x883 CALLDATASIZE PUSH1 0x4 PUSH2 0x33E2 JUMP JUMPDEST PUSH2 0x1D6C JUMP JUMPDEST CALLVALUE DUP1 ISZERO PUSH2 0x893 JUMPI PUSH0 DUP1 REVERT JUMPDEST POP PUSH2 0x3DB PUSH2 0x8A2 CALLDATASIZE PUSH1 0x4 PUSH2 0x3727 JUMP JUMPDEST PUSH2 0x1DD0 JUMP JUMPDEST CALLVALUE DUP1 ISZERO PUSH2 0x8B2 JUMPI PUSH0 DUP1 REVERT JUMPDEST POP PUSH2 0x322 PUSH2 0x8C1 CALLDATASIZE PUSH1 0x4 PUSH2 0x33E2 JUMP JUMPDEST PUSH2 0x1DF4 JUMP JUMPDEST CALLVALUE DUP1 ISZERO PUSH2 0x8D1 JUMPI PUSH0 DUP1 REVERT JUMPDEST POP PUSH2 0x197 SLOAD PUSH2 0x3A4 SWAP1 PUSH1 0x1 PUSH1 0x1 PUSH1 0xA0 SHL SUB AND DUP2 JUMP JUMPDEST CALLVALUE DUP1 ISZERO PUSH2 0x8F1 JUMPI PUSH0 DUP1 REVERT JUMPDEST POP PUSH2 0x3DB PUSH2 0x900 CALLDATASIZE PUSH1 0x4 PUSH2 0x35EF JUMP JUMPDEST PUSH2 0x1E0B JUMP JUMPDEST CALLVALUE DUP1 ISZERO PUSH2 0x910 JUMPI PUSH0 DUP1 REVERT JUMPDEST POP PUSH2 0x3DB PUSH2 0x91F CALLDATASIZE PUSH1 0x4 PUSH2 0x35EF JUMP JUMPDEST PUSH2 0x1E44 JUMP JUMPDEST CALLVALUE DUP1 ISZERO PUSH2 0x92F JUMPI PUSH0 DUP1 REVERT JUMPDEST POP PUSH2 0x354 PUSH2 0x93E CALLDATASIZE PUSH1 0x4 PUSH2 0x3A68 JUMP JUMPDEST PUSH1 0x1 PUSH1 0x1 PUSH1 0xA0 SHL SUB SWAP2 DUP3 AND PUSH0 SWAP1 DUP2 MSTORE PUSH1 0x6A PUSH1 0x20 SWAP1 DUP2 MSTORE PUSH1 0x40 DUP1 DUP4 KECCAK256 SWAP4 SWAP1 SWAP5 AND DUP3 MSTORE SWAP2 SWAP1 SWAP2 MSTORE KECCAK256 SLOAD PUSH1 0xFF AND SWAP1 JUMP JUMPDEST CALLVALUE DUP1 ISZERO PUSH2 0x976 JUMPI PUSH0 DUP1 REVERT JUMPDEST POP PUSH2 0x378 PUSH2 0x1E88 JUMP JUMPDEST PUSH0 PUSH2 0x989 DUP3 PUSH2 0x1E96 JUMP JUMPDEST SWAP3 SWAP2 POP POP JUMP JUMPDEST PUSH1 0x60 PUSH1 0x65 DUP1 SLOAD PUSH2 0x99E SWAP1 PUSH2 0x3A90 JUMP JUMPDEST DUP1 PUSH1 0x1F ADD PUSH1 0x20 DUP1 SWAP2 DIV MUL PUSH1 0x20 ADD PUSH1 0x40 MLOAD SWAP1 DUP2 ADD PUSH1 0x40 MSTORE DUP1 SWAP3 SWAP2 SWAP1 DUP2 DUP2 MSTORE PUSH1 0x20 ADD DUP3 DUP1 SLOAD PUSH2 0x9CA SWAP1 PUSH2 0x3A90 JUMP JUMPDEST DUP1 ISZERO PUSH2 0xA15 JUMPI DUP1 PUSH1 0x1F LT PUSH2 0x9EC JUMPI PUSH2 0x100 DUP1 DUP4 SLOAD DIV MUL DUP4 MSTORE SWAP2 PUSH1 0x20 ADD SWAP2 PUSH2 0xA15 JUMP JUMPDEST DUP3 ADD SWAP2 SWAP1 PUSH0 MSTORE PUSH1 0x20 PUSH0 KECCAK256 SWAP1 JUMPDEST DUP2 SLOAD DUP2 MSTORE SWAP1 PUSH1 0x1 ADD SWAP1 PUSH1 0x20 ADD DUP1 DUP4 GT PUSH2 0x9F8 JUMPI DUP3 SWAP1 SUB PUSH1 0x1F AND DUP3 ADD SWAP2 JUMPDEST POP POP POP POP POP SWAP1 POP SWAP1 JUMP JUMPDEST PUSH0 PUSH2 0xA29 DUP3 PUSH2 0x1EBA JUMP JUMPDEST POP PUSH0 SWAP1 DUP2 MSTORE PUSH1 0x69 PUSH1 0x20 MSTORE PUSH1 0x40 SWAP1 KECCAK256 SLOAD PUSH1 0x1 PUSH1 0x1 PUSH1 0xA0 SHL SUB AND SWAP1 JUMP JUMPDEST PUSH0 PUSH2 0xA4E DUP3 PUSH2 0x1439 JUMP JUMPDEST SWAP1 POP DUP1 PUSH1 0x1 PUSH1 0x1 PUSH1 0xA0 SHL SUB AND DUP4 PUSH1 0x1 PUSH1 0x1 PUSH1 0xA0 SHL SUB AND SUB PUSH2 0xAC0 JUMPI PUSH1 0x40 MLOAD PUSH3 0x461BCD PUSH1 0xE5 SHL DUP2 MSTORE PUSH1 0x20 PUSH1 0x4 DUP3 ADD MSTORE PUSH1 0x21 PUSH1 0x24 DUP3 ADD MSTORE PUSH32 0x4552433732313A20617070726F76616C20746F2063757272656E74206F776E65 PUSH1 0x44 DUP3 ADD MSTORE PUSH1 0x39 PUSH1 0xF9 SHL PUSH1 0x64 DUP3 ADD MSTORE PUSH1 0x84 ADD JUMPDEST PUSH1 0x40 MLOAD DUP1 SWAP2 SUB SWAP1 REVERT JUMPDEST CALLER PUSH1 0x1 PUSH1 0x1 PUSH1 0xA0 SHL SUB DUP3 AND EQ DUP1 PUSH2 0xADC JUMPI POP PUSH2 0xADC DUP2 CALLER PUSH2 0x93E JUMP JUMPDEST PUSH2 0xB4E JUMPI PUSH1 0x40 MLOAD PUSH3 0x461BCD PUSH1 0xE5 SHL DUP2 MSTORE PUSH1 0x20 PUSH1 0x4 DUP3 ADD MSTORE PUSH1 0x3E PUSH1 0x24 DUP3 ADD MSTORE PUSH32 0x4552433732313A20617070726F76652063616C6C6572206973206E6F7420746F PUSH1 0x44 DUP3 ADD MSTORE PUSH32 0x6B656E206F776E6572206E6F7220617070726F76656420666F7220616C6C0000 PUSH1 0x64 DUP3 ADD MSTORE PUSH1 0x84 ADD PUSH2 0xAB7 JUMP JUMPDEST PUSH2 0xB58 DUP4 DUP4 PUSH2 0x1F18 JUMP JUMPDEST POP POP POP JUMP JUMPDEST PUSH0 PUSH2 0xB67 DUP2 PUSH2 0x1F85 JUMP JUMPDEST PUSH0 JUMPDEST DUP4 DUP2 LT ISZERO PUSH2 0xBE2 JUMPI DUP3 PUSH2 0x194 PUSH0 DUP8 DUP8 DUP6 DUP2 DUP2 LT PUSH2 0xB88 JUMPI PUSH2 0xB88 PUSH2 0x3AC8 JUMP JUMPDEST SWAP1 POP PUSH1 0x20 MUL ADD PUSH1 0x20 DUP2 ADD SWAP1 PUSH2 0xB9D SWAP2 SWAP1 PUSH2 0x333A JUMP JUMPDEST PUSH1 0x1 PUSH1 0x1 PUSH1 0xA0 SHL SUB AND PUSH1 0x1 PUSH1 0x1 PUSH1 0xA0 SHL SUB AND DUP2 MSTORE PUSH1 0x20 ADD SWAP1 DUP2 MSTORE PUSH1 0x20 ADD PUSH0 KECCAK256 PUSH0 DUP3 DUP3 SLOAD PUSH2 0xBCA SWAP2 SWAP1 PUSH2 0x3AF0 JUMP JUMPDEST SWAP1 SWAP2 SSTORE POP DUP2 SWAP1 POP PUSH2 0xBDA DUP2 PUSH2 0x3B03 JUMP JUMPDEST SWAP2 POP POP PUSH2 0xB69 JUMP JUMPDEST POP POP POP POP POP JUMP JUMPDEST PUSH0 PUSH2 0xBF3 DUP2 PUSH2 0x1F85 JUMP JUMPDEST PUSH2 0x195 PUSH2 0xC01 DUP4 DUP6 DUP4 PUSH2 0x3B74 JUMP JUMPDEST POP POP POP POP JUMP JUMPDEST PUSH2 0xC12 CALLER JUMPDEST DUP3 PUSH2 0x1F8F JUMP JUMPDEST PUSH2 0xC2E JUMPI PUSH1 0x40 MLOAD PUSH3 0x461BCD PUSH1 0xE5 SHL DUP2 MSTORE PUSH1 0x4 ADD PUSH2 0xAB7 SWAP1 PUSH2 0x3C29 JUMP JUMPDEST PUSH2 0xB58 DUP4 DUP4 DUP4 PUSH2 0x200C JUMP JUMPDEST PUSH0 PUSH2 0xC43 DUP2 PUSH2 0x1F85 JUMP JUMPDEST PUSH2 0xC4D DUP8 DUP8 PUSH2 0x1E44 JUMP JUMPDEST PUSH2 0x197 DUP1 SLOAD PUSH1 0x1 PUSH1 0x1 PUSH1 0xA0 SHL SUB NOT AND PUSH1 0x1 PUSH1 0x1 PUSH1 0xA0 SHL SUB DUP13 AND OR SWAP1 SSTORE PUSH2 0xC77 PUSH2 0x198 DUP11 PUSH1 0x1 PUSH2 0x32CD JUMP JUMPDEST POP PUSH2 0x19F PUSH2 0xC86 DUP8 DUP10 DUP4 PUSH2 0x3B74 JUMP JUMPDEST POP PUSH2 0x1A0 PUSH2 0xC95 DUP6 DUP8 DUP4 PUSH2 0x3B74 JUMP JUMPDEST POP PUSH2 0x1A1 PUSH2 0xCA4 DUP4 DUP6 DUP4 PUSH2 0x3B74 JUMP JUMPDEST POP PUSH2 0x19B DUP9 SWAP1 SSTORE PUSH0 PUSH2 0x19C DUP2 SWAP1 SSTORE PUSH2 0x19A DUP1 SLOAD SWAP2 PUSH2 0xCC1 DUP4 PUSH2 0x3B03 JUMP JUMPDEST SWAP2 SWAP1 POP SSTORE POP POP POP POP POP POP POP POP POP POP POP JUMP JUMPDEST PUSH0 DUP3 DUP2 MSTORE PUSH1 0xFB PUSH1 0x20 MSTORE PUSH1 0x40 SWAP1 KECCAK256 PUSH1 0x1 ADD SLOAD PUSH2 0xCEC DUP2 PUSH2 0x1F85 JUMP JUMPDEST PUSH2 0xB58 DUP4 DUP4 PUSH2 0x21AF JUMP JUMPDEST PUSH0 PUSH2 0xD00 DUP4 PUSH2 0x1A6B JUMP JUMPDEST DUP3 LT PUSH2 0xD62 JUMPI PUSH1 0x40 MLOAD PUSH3 0x461BCD PUSH1 0xE5 SHL DUP2 MSTORE PUSH1 0x20 PUSH1 0x4 DUP3 ADD MSTORE PUSH1 0x2B PUSH1 0x24 DUP3 ADD MSTORE PUSH32 0x455243373231456E756D657261626C653A206F776E657220696E646578206F75 PUSH1 0x44 DUP3 ADD MSTORE PUSH11 0x74206F6620626F756E6473 PUSH1 0xA8 SHL PUSH1 0x64 DUP3 ADD MSTORE PUSH1 0x84 ADD PUSH2 0xAB7 JUMP JUMPDEST POP PUSH1 0x1 PUSH1 0x1 PUSH1 0xA0 SHL SUB SWAP2 SWAP1 SWAP2 AND PUSH0 SWAP1 DUP2 MSTORE PUSH1 0x97 PUSH1 0x20 SWAP1 DUP2 MSTORE PUSH1 0x40 DUP1 DUP4 KECCAK256 SWAP4 DUP4 MSTORE SWAP3 SWAP1 MSTORE KECCAK256 SLOAD SWAP1 JUMP JUMPDEST CALLER PUSH0 SWAP1 DUP2 MSTORE PUSH2 0x194 PUSH1 0x20 MSTORE PUSH1 0x40 SWAP1 KECCAK256 SLOAD PUSH2 0xDDB JUMPI PUSH1 0x40 MLOAD PUSH3 0x461BCD PUSH1 0xE5 SHL DUP2 MSTORE PUSH1 0x20 PUSH1 0x4 DUP3 ADD MSTORE PUSH1 0x12 PUSH1 0x24 DUP3 ADD MSTORE PUSH18 0x1B9BC81B5A5B9D1A5B99C8185B1B1BDDD959 PUSH1 0x72 SHL PUSH1 0x44 DUP3 ADD MSTORE PUSH1 0x64 ADD PUSH2 0xAB7 JUMP JUMPDEST CALLER PUSH0 SWAP1 DUP2 MSTORE PUSH2 0x194 PUSH1 0x20 MSTORE PUSH1 0x40 DUP2 KECCAK256 DUP1 SLOAD SWAP2 PUSH2 0xDF6 DUP4 PUSH2 0x3C77 JUMP JUMPDEST SWAP2 SWAP1 POP SSTORE POP PUSH2 0xE04 DUP2 PUSH2 0x2234 JUMP JUMPDEST POP JUMP JUMPDEST PUSH0 PUSH2 0xE11 DUP2 PUSH2 0x1F85 JUMP JUMPDEST PUSH2 0xE1E DUP7 DUP7 DUP7 DUP7 DUP7 PUSH2 0x22B9 JUMP JUMPDEST POP POP POP POP POP POP JUMP JUMPDEST PUSH1 0x1 PUSH1 0x1 PUSH1 0xA0 SHL SUB DUP2 AND CALLER EQ PUSH2 0xE96 JUMPI PUSH1 0x40 MLOAD PUSH3 0x461BCD PUSH1 0xE5 SHL DUP2 MSTORE PUSH1 0x20 PUSH1 0x4 DUP3 ADD MSTORE PUSH1 0x2F PUSH1 0x24 DUP3 ADD MSTORE PUSH32 0x416363657373436F6E74726F6C3A2063616E206F6E6C792072656E6F756E6365 PUSH1 0x44 DUP3 ADD MSTORE PUSH15 0x103937B632B9903337B91039B2B633 PUSH1 0x89 SHL PUSH1 0x64 DUP3 ADD MSTORE PUSH1 0x84 ADD PUSH2 0xAB7 JUMP JUMPDEST PUSH2 0xEA0 DUP3 DUP3 PUSH2 0x23EB JUMP JUMPDEST POP POP JUMP JUMPDEST PUSH1 0x1 PUSH1 0x1 PUSH1 0xA0 SHL SUB PUSH32 0x0 AND ADDRESS SUB PUSH2 0xEEC JUMPI PUSH1 0x40 MLOAD PUSH3 0x461BCD PUSH1 0xE5 SHL DUP2 MSTORE PUSH1 0x4 ADD PUSH2 0xAB7 SWAP1 PUSH2 0x3C8C JUMP JUMPDEST PUSH32 0x0 PUSH1 0x1 PUSH1 0x1 PUSH1 0xA0 SHL SUB AND PUSH2 0xF34 PUSH0 DUP1 MLOAD PUSH1 0x20 PUSH2 0x4181 DUP4 CODECOPY DUP2 MLOAD SWAP2 MSTORE SLOAD PUSH1 0x1 PUSH1 0x1 PUSH1 0xA0 SHL SUB AND SWAP1 JUMP JUMPDEST PUSH1 0x1 PUSH1 0x1 PUSH1 0xA0 SHL SUB AND EQ PUSH2 0xF5A JUMPI PUSH1 0x40 MLOAD PUSH3 0x461BCD PUSH1 0xE5 SHL DUP2 MSTORE PUSH1 0x4 ADD PUSH2 0xAB7 SWAP1 PUSH2 0x3CD8 JUMP JUMPDEST PUSH2 0xF63 DUP2 PUSH2 0x2451 JUMP JUMPDEST PUSH1 0x40 DUP1 MLOAD PUSH0 DUP1 DUP3 MSTORE PUSH1 0x20 DUP3 ADD SWAP1 SWAP3 MSTORE PUSH2 0xE04 SWAP2 DUP4 SWAP2 SWAP1 PUSH2 0x245B JUMP JUMPDEST PUSH2 0xB58 DUP4 DUP4 DUP4 PUSH1 0x40 MLOAD DUP1 PUSH1 0x20 ADD PUSH1 0x40 MSTORE DUP1 PUSH0 DUP2 MSTORE POP PUSH2 0x1CAD JUMP JUMPDEST PUSH2 0xFA1 CALLER PUSH2 0xC0C JUMP JUMPDEST PUSH2 0xFBD JUMPI PUSH1 0x40 MLOAD PUSH3 0x461BCD PUSH1 0xE5 SHL DUP2 MSTORE PUSH1 0x4 ADD PUSH2 0xAB7 SWAP1 PUSH2 0x3C29 JUMP JUMPDEST PUSH2 0xE04 DUP2 PUSH2 0x25C5 JUMP JUMPDEST PUSH2 0x1A1 DUP1 SLOAD PUSH2 0xFD4 SWAP1 PUSH2 0x3A90 JUMP JUMPDEST DUP1 PUSH1 0x1F ADD PUSH1 0x20 DUP1 SWAP2 DIV MUL PUSH1 0x20 ADD PUSH1 0x40 MLOAD SWAP1 DUP2 ADD PUSH1 0x40 MSTORE DUP1 SWAP3 SWAP2 SWAP1 DUP2 DUP2 MSTORE PUSH1 0x20 ADD DUP3 DUP1 SLOAD PUSH2 0x1000 SWAP1 PUSH2 0x3A90 JUMP JUMPDEST DUP1 ISZERO PUSH2 0x104B JUMPI DUP1 PUSH1 0x1F LT PUSH2 0x1022 JUMPI PUSH2 0x100 DUP1 DUP4 SLOAD DIV MUL DUP4 MSTORE SWAP2 PUSH1 0x20 ADD SWAP2 PUSH2 0x104B JUMP JUMPDEST DUP3 ADD SWAP2 SWAP1 PUSH0 MSTORE PUSH1 0x20 PUSH0 KECCAK256 SWAP1 JUMPDEST DUP2 SLOAD DUP2 MSTORE SWAP1 PUSH1 0x1 ADD SWAP1 PUSH1 0x20 ADD DUP1 DUP4 GT PUSH2 0x102E JUMPI DUP3 SWAP1 SUB PUSH1 0x1F AND DUP3 ADD SWAP2 JUMPDEST POP POP POP POP POP DUP2 JUMP JUMPDEST PUSH1 0x1 PUSH1 0x1 PUSH1 0xA0 SHL SUB PUSH32 0x0 AND ADDRESS SUB PUSH2 0x109B JUMPI PUSH1 0x40 MLOAD PUSH3 0x461BCD PUSH1 0xE5 SHL DUP2 MSTORE PUSH1 0x4 ADD PUSH2 0xAB7 SWAP1 PUSH2 0x3C8C JUMP JUMPDEST PUSH32 0x0 PUSH1 0x1 PUSH1 0x1 PUSH1 0xA0 SHL SUB AND PUSH2 0x10E3 PUSH0 DUP1 MLOAD PUSH1 0x20 PUSH2 0x4181 DUP4 CODECOPY DUP2 MLOAD SWAP2 MSTORE SLOAD PUSH1 0x1 PUSH1 0x1 PUSH1 0xA0 SHL SUB AND SWAP1 JUMP JUMPDEST PUSH1 0x1 PUSH1 0x1 PUSH1 0xA0 SHL SUB AND EQ PUSH2 0x1109 JUMPI PUSH1 0x40 MLOAD PUSH3 0x461BCD PUSH1 0xE5 SHL DUP2 MSTORE PUSH1 0x4 ADD PUSH2 0xAB7 SWAP1 PUSH2 0x3CD8 JUMP JUMPDEST PUSH2 0x1112 DUP3 PUSH2 0x2451 JUMP JUMPDEST PUSH2 0xEA0 DUP3 DUP3 PUSH1 0x1 PUSH2 0x245B JUMP JUMPDEST PUSH0 PUSH2 0x1128 PUSH1 0x99 SLOAD SWAP1 JUMP JUMPDEST DUP3 LT PUSH2 0x118B JUMPI PUSH1 0x40 MLOAD PUSH3 0x461BCD PUSH1 0xE5 SHL DUP2 MSTORE PUSH1 0x20 PUSH1 0x4 DUP3 ADD MSTORE PUSH1 0x2C PUSH1 0x24 DUP3 ADD MSTORE PUSH32 0x455243373231456E756D657261626C653A20676C6F62616C20696E646578206F PUSH1 0x44 DUP3 ADD MSTORE PUSH12 0x7574206F6620626F756E6473 PUSH1 0xA0 SHL PUSH1 0x64 DUP3 ADD MSTORE PUSH1 0x84 ADD PUSH2 0xAB7 JUMP JUMPDEST PUSH1 0x99 DUP3 DUP2 SLOAD DUP2 LT PUSH2 0x119E JUMPI PUSH2 0x119E PUSH2 0x3AC8 JUMP JUMPDEST SWAP1 PUSH0 MSTORE PUSH1 0x20 PUSH0 KECCAK256 ADD SLOAD SWAP1 POP SWAP2 SWAP1 POP JUMP JUMPDEST PUSH0 ADDRESS PUSH1 0x1 PUSH1 0x1 PUSH1 0xA0 SHL SUB PUSH32 0x0 AND EQ PUSH2 0x124D JUMPI PUSH1 0x40 MLOAD PUSH3 0x461BCD PUSH1 0xE5 SHL DUP2 MSTORE PUSH1 0x20 PUSH1 0x4 DUP3 ADD MSTORE PUSH1 0x38 PUSH1 0x24 DUP3 ADD MSTORE PUSH32 0x555550535570677261646561626C653A206D757374206E6F742062652063616C PUSH1 0x44 DUP3 ADD MSTORE PUSH32 0x6C6564207468726F7567682064656C656761746563616C6C0000000000000000 PUSH1 0x64 DUP3 ADD MSTORE PUSH1 0x84 ADD PUSH2 0xAB7 JUMP JUMPDEST POP PUSH0 DUP1 MLOAD PUSH1 0x20 PUSH2 0x4181 DUP4 CODECOPY DUP2 MLOAD SWAP2 MSTORE SWAP1 JUMP JUMPDEST PUSH0 PUSH2 0x1269 DUP2 PUSH2 0x1F85 JUMP JUMPDEST PUSH2 0x196 PUSH2 0xC01 DUP4 DUP6 DUP4 PUSH2 0x3B74 JUMP JUMPDEST PUSH2 0x193 PUSH1 0x20 MSTORE PUSH0 SWAP1 DUP2 MSTORE PUSH1 0x40 SWAP1 KECCAK256 DUP1 SLOAD DUP2 SWAP1 PUSH2 0x1292 SWAP1 PUSH2 0x3A90 JUMP JUMPDEST DUP1 PUSH1 0x1F ADD PUSH1 0x20 DUP1 SWAP2 DIV MUL PUSH1 0x20 ADD PUSH1 0x40 MLOAD SWAP1 DUP2 ADD PUSH1 0x40 MSTORE DUP1 SWAP3 SWAP2 SWAP1 DUP2 DUP2 MSTORE PUSH1 0x20 ADD DUP3 DUP1 SLOAD PUSH2 0x12BE SWAP1 PUSH2 0x3A90 JUMP JUMPDEST DUP1 ISZERO PUSH2 0x1309 JUMPI DUP1 PUSH1 0x1F LT PUSH2 0x12E0 JUMPI PUSH2 0x100 DUP1 DUP4 SLOAD DIV MUL DUP4 MSTORE SWAP2 PUSH1 0x20 ADD SWAP2 PUSH2 0x1309 JUMP JUMPDEST DUP3 ADD SWAP2 SWAP1 PUSH0 MSTORE PUSH1 0x20 PUSH0 KECCAK256 SWAP1 JUMPDEST DUP2 SLOAD DUP2 MSTORE SWAP1 PUSH1 0x1 ADD SWAP1 PUSH1 0x20 ADD DUP1 DUP4 GT PUSH2 0x12EC JUMPI DUP3 SWAP1 SUB PUSH1 0x1F AND DUP3 ADD SWAP2 JUMPDEST POP POP POP POP POP SWAP1 DUP1 PUSH1 0x1 ADD DUP1 SLOAD PUSH2 0x131E SWAP1 PUSH2 0x3A90 JUMP JUMPDEST DUP1 PUSH1 0x1F ADD PUSH1 0x20 DUP1 SWAP2 DIV MUL PUSH1 0x20 ADD PUSH1 0x40 MLOAD SWAP1 DUP2 ADD PUSH1 0x40 MSTORE DUP1 SWAP3 SWAP2 SWAP1 DUP2 DUP2 MSTORE PUSH1 0x20 ADD DUP3 DUP1 SLOAD PUSH2 0x134A SWAP1 PUSH2 0x3A90 JUMP JUMPDEST DUP1 ISZERO PUSH2 0x1395 JUMPI DUP1 PUSH1 0x1F LT PUSH2 0x136C JUMPI PUSH2 0x100 DUP1 DUP4 SLOAD DIV MUL DUP4 MSTORE SWAP2 PUSH1 0x20 ADD SWAP2 PUSH2 0x1395 JUMP JUMPDEST DUP3 ADD SWAP2 SWAP1 PUSH0 MSTORE PUSH1 0x20 PUSH0 KECCAK256 SWAP1 JUMPDEST DUP2 SLOAD DUP2 MSTORE SWAP1 PUSH1 0x1 ADD SWAP1 PUSH1 0x20 ADD DUP1 DUP4 GT PUSH2 0x1378 JUMPI DUP3 SWAP1 SUB PUSH1 0x1F AND DUP3 ADD SWAP2 JUMPDEST POP POP POP POP POP SWAP1 DUP1 PUSH1 0x2 ADD DUP1 SLOAD PUSH2 0x13AA SWAP1 PUSH2 0x3A90 JUMP JUMPDEST DUP1 PUSH1 0x1F ADD PUSH1 0x20 DUP1 SWAP2 DIV MUL PUSH1 0x20 ADD PUSH1 0x40 MLOAD SWAP1 DUP2 ADD PUSH1 0x40 MSTORE DUP1 SWAP3 SWAP2 SWAP1 DUP2 DUP2 MSTORE PUSH1 0x20 ADD DUP3 DUP1 SLOAD PUSH2 0x13D6 SWAP1 PUSH2 0x3A90 JUMP JUMPDEST DUP1 ISZERO PUSH2 0x1421 JUMPI DUP1 PUSH1 0x1F LT PUSH2 0x13F8 JUMPI PUSH2 0x100 DUP1 DUP4 SLOAD DIV MUL DUP4 MSTORE SWAP2 PUSH1 0x20 ADD SWAP2 PUSH2 0x1421 JUMP JUMPDEST DUP3 ADD SWAP2 SWAP1 PUSH0 MSTORE PUSH1 0x20 PUSH0 KECCAK256 SWAP1 JUMPDEST DUP2 SLOAD DUP2 MSTORE SWAP1 PUSH1 0x1 ADD SWAP1 PUSH1 0x20 ADD DUP1 DUP4 GT PUSH2 0x1404 JUMPI DUP3 SWAP1 SUB PUSH1 0x1F AND DUP3 ADD SWAP2 JUMPDEST POP POP POP POP POP SWAP1 POP DUP4 JUMP JUMPDEST PUSH2 0x195 DUP1 SLOAD PUSH2 0xFD4 SWAP1 PUSH2 0x3A90 JUMP JUMPDEST PUSH0 DUP2 DUP2 MSTORE PUSH1 0x67 PUSH1 0x20 MSTORE PUSH1 0x40 DUP2 KECCAK256 SLOAD PUSH1 0x1 PUSH1 0x1 PUSH1 0xA0 SHL SUB AND DUP1 PUSH2 0x989 JUMPI PUSH1 0x40 MLOAD PUSH3 0x461BCD PUSH1 0xE5 SHL DUP2 MSTORE PUSH1 0x20 PUSH1 0x4 DUP3 ADD MSTORE PUSH1 0x18 PUSH1 0x24 DUP3 ADD MSTORE PUSH24 0x115490CDCC8C4E881A5B9D985B1A59081D1BDAD95B881251 PUSH1 0x42 SHL PUSH1 0x44 DUP3 ADD MSTORE PUSH1 0x64 ADD PUSH2 0xAB7 JUMP JUMPDEST PUSH2 0x197 SLOAD PUSH1 0x1 PUSH1 0x1 PUSH1 0xA0 SHL SUB AND PUSH2 0x14E8 JUMPI PUSH1 0x40 MLOAD PUSH3 0x461BCD PUSH1 0xE5 SHL DUP2 MSTORE PUSH1 0x20 PUSH1 0x4 DUP3 ADD MSTORE PUSH1 0x14 PUSH1 0x24 DUP3 ADD MSTORE PUSH20 0x1B9BC818DA185B1B195B99D9481CDD185C9D1959 PUSH1 0x62 SHL PUSH1 0x44 DUP3 ADD MSTORE PUSH1 0x64 ADD PUSH2 0xAB7 JUMP JUMPDEST PUSH2 0x19B SLOAD PUSH2 0x19C SLOAD LT PUSH2 0x1547 JUMPI PUSH1 0x40 MLOAD PUSH3 0x461BCD PUSH1 0xE5 SHL DUP2 MSTORE PUSH1 0x20 PUSH1 0x4 DUP3 ADD MSTORE PUSH1 0x21 PUSH1 0x24 DUP3 ADD MSTORE PUSH32 0x7075626C6973686572732072656163686564206D6178696D756D20616D6F756E PUSH1 0x44 DUP3 ADD MSTORE PUSH1 0x1D PUSH1 0xFA SHL PUSH1 0x64 DUP3 ADD MSTORE PUSH1 0x84 ADD PUSH2 0xAB7 JUMP JUMPDEST PUSH2 0x19A SLOAD PUSH0 SWAP1 DUP3 PUSH1 0x1 PUSH1 0x20 MUL ADD MLOAD PUSH1 0x40 MLOAD PUSH1 0x20 ADD PUSH2 0x156F SWAP3 SWAP2 SWAP1 SWAP2 DUP3 MSTORE PUSH1 0x20 DUP3 ADD MSTORE PUSH1 0x40 ADD SWAP1 JUMP JUMPDEST PUSH1 0x40 DUP1 MLOAD DUP1 DUP4 SUB PUSH1 0x1F NOT ADD DUP2 MSTORE DUP3 DUP3 MSTORE PUSH2 0x19A SLOAD PUSH1 0x20 DUP5 ADD MSTORE CALLER PUSH1 0x60 SHL PUSH12 0xFFFFFFFFFFFFFFFFFFFFFFFF NOT AND DUP4 DUP4 ADD MSTORE DUP2 MLOAD PUSH1 0x34 DUP2 DUP6 SUB ADD DUP2 MSTORE PUSH1 0x54 SWAP1 SWAP4 ADD SWAP2 DUP3 SWAP1 MSTORE SWAP3 POP PUSH2 0x19D SWAP1 PUSH2 0x15C3 SWAP1 DUP5 SWAP1 PUSH2 0x3D24 JUMP JUMPDEST SWAP1 DUP2 MSTORE PUSH1 0x20 ADD PUSH1 0x40 MLOAD DUP1 SWAP2 SUB SWAP1 KECCAK256 SLOAD PUSH0 EQ PUSH2 0x1620 JUMPI PUSH1 0x40 MLOAD PUSH3 0x461BCD PUSH1 0xE5 SHL DUP2 MSTORE PUSH1 0x20 PUSH1 0x4 DUP3 ADD MSTORE PUSH1 0x17 PUSH1 0x24 DUP3 ADD MSTORE PUSH32 0x70726F6F6620616C7265616479207075626C6973686564000000000000000000 PUSH1 0x44 DUP3 ADD MSTORE PUSH1 0x64 ADD PUSH2 0xAB7 JUMP JUMPDEST PUSH2 0x19E DUP2 PUSH1 0x40 MLOAD PUSH2 0x1631 SWAP2 SWAP1 PUSH2 0x3D24 JUMP JUMPDEST SWAP1 DUP2 MSTORE PUSH1 0x20 ADD PUSH1 0x40 MLOAD DUP1 SWAP2 SUB SWAP1 KECCAK256 SLOAD PUSH0 EQ PUSH2 0x169E JUMPI PUSH1 0x40 MLOAD PUSH3 0x461BCD PUSH1 0xE5 SHL DUP2 MSTORE PUSH1 0x20 PUSH1 0x4 DUP3 ADD MSTORE PUSH1 0x27 PUSH1 0x24 DUP3 ADD MSTORE PUSH32 0x63757272656E74207075626C69736865722068617320616C7265616479207375 PUSH1 0x44 DUP3 ADD MSTORE PUSH7 0x189B5A5D1D1959 PUSH1 0xCA SHL PUSH1 0x64 DUP3 ADD MSTORE PUSH1 0x84 ADD PUSH2 0xAB7 JUMP JUMPDEST DUP3 MLOAD PUSH2 0x198 SLOAD EQ PUSH2 0x16F1 JUMPI PUSH1 0x40 MLOAD PUSH3 0x461BCD PUSH1 0xE5 SHL DUP2 MSTORE PUSH1 0x20 PUSH1 0x4 DUP3 ADD MSTORE PUSH1 0x1F PUSH1 0x24 DUP3 ADD MSTORE PUSH32 0x70726F7669646564206368616C6C656E6765206973206E6F742076616C696400 PUSH1 0x44 DUP3 ADD MSTORE PUSH1 0x64 ADD PUSH2 0xAB7 JUMP JUMPDEST PUSH2 0x197 SLOAD DUP5 MLOAD PUSH1 0x20 DUP7 ADD MLOAD PUSH1 0x40 DUP1 DUP9 ADD MLOAD SWAP1 MLOAD PUSH0 SWAP5 DUP6 SWAP5 PUSH1 0x1 PUSH1 0x1 PUSH1 0xA0 SHL SUB SWAP1 SWAP2 AND SWAP4 DUP6 SWAP4 PUSH2 0x1724 SWAP4 DUP12 SWAP1 PUSH1 0x24 ADD PUSH2 0x3D61 JUMP JUMPDEST PUSH1 0x40 DUP1 MLOAD PUSH1 0x1F NOT DUP2 DUP5 SUB ADD DUP2 MSTORE SWAP2 DUP2 MSTORE PUSH1 0x20 DUP3 ADD DUP1 MLOAD PUSH1 0x1 PUSH1 0x1 PUSH1 0xE0 SHL SUB AND PUSH4 0x7AE4EB4F PUSH1 0xE1 SHL OR SWAP1 MSTORE MLOAD PUSH2 0x1759 SWAP2 SWAP1 PUSH2 0x3D24 JUMP JUMPDEST PUSH0 PUSH1 0x40 MLOAD DUP1 DUP4 SUB DUP2 DUP6 DUP8 GAS CALL SWAP3 POP POP POP RETURNDATASIZE DUP1 PUSH0 DUP2 EQ PUSH2 0x1793 JUMPI PUSH1 0x40 MLOAD SWAP2 POP PUSH1 0x1F NOT PUSH1 0x3F RETURNDATASIZE ADD AND DUP3 ADD PUSH1 0x40 MSTORE RETURNDATASIZE DUP3 MSTORE RETURNDATASIZE PUSH0 PUSH1 0x20 DUP5 ADD RETURNDATACOPY PUSH2 0x1798 JUMP JUMPDEST PUSH1 0x60 SWAP2 POP JUMPDEST POP SWAP2 POP SWAP2 POP DUP2 PUSH2 0x17EA JUMPI PUSH1 0x40 MLOAD PUSH3 0x461BCD PUSH1 0xE5 SHL DUP2 MSTORE PUSH1 0x20 PUSH1 0x4 DUP3 ADD MSTORE PUSH1 0x1F PUSH1 0x24 DUP3 ADD MSTORE PUSH32 0x7468652063616C6C20746F20746865207665726966696572206661696C656400 PUSH1 0x44 DUP3 ADD MSTORE PUSH1 0x64 ADD PUSH2 0xAB7 JUMP JUMPDEST PUSH0 DUP2 DUP1 PUSH1 0x20 ADD SWAP1 MLOAD DUP2 ADD SWAP1 PUSH2 0x17FF SWAP2 SWAP1 PUSH2 0x3DBE JUMP JUMPDEST SWAP1 POP DUP1 PUSH2 0x184E JUMPI PUSH1 0x40 MLOAD PUSH3 0x461BCD PUSH1 0xE5 SHL DUP2 MSTORE PUSH1 0x20 PUSH1 0x4 DUP3 ADD MSTORE PUSH1 0x1E PUSH1 0x24 DUP3 ADD MSTORE PUSH32 0x7468652070726F76696465642070726F6F662069736E27742076616C69640000 PUSH1 0x44 DUP3 ADD MSTORE PUSH1 0x64 ADD PUSH2 0xAB7 JUMP JUMPDEST PUSH2 0x19F7 CALLER PUSH2 0x19F DUP1 SLOAD PUSH2 0x1860 SWAP1 PUSH2 0x3A90 JUMP JUMPDEST DUP1 PUSH1 0x1F ADD PUSH1 0x20 DUP1 SWAP2 DIV MUL PUSH1 0x20 ADD PUSH1 0x40 MLOAD SWAP1 DUP2 ADD PUSH1 0x40 MSTORE DUP1 SWAP3 SWAP2 SWAP1 DUP2 DUP2 MSTORE PUSH1 0x20 ADD DUP3 DUP1 SLOAD PUSH2 0x188C SWAP1 PUSH2 0x3A90 JUMP JUMPDEST DUP1 ISZERO PUSH2 0x18D7 JUMPI DUP1 PUSH1 0x1F LT PUSH2 0x18AE JUMPI PUSH2 0x100 DUP1 DUP4 SLOAD DIV MUL DUP4 MSTORE SWAP2 PUSH1 0x20 ADD SWAP2 PUSH2 0x18D7 JUMP JUMPDEST DUP3 ADD SWAP2 SWAP1 PUSH0 MSTORE PUSH1 0x20 PUSH0 KECCAK256 SWAP1 JUMPDEST DUP2 SLOAD DUP2 MSTORE SWAP1 PUSH1 0x1 ADD SWAP1 PUSH1 0x20 ADD DUP1 DUP4 GT PUSH2 0x18BA JUMPI DUP3 SWAP1 SUB PUSH1 0x1F AND DUP3 ADD SWAP2 JUMPDEST POP POP POP POP POP PUSH2 0x1A0 DUP1 SLOAD PUSH2 0x18EA SWAP1 PUSH2 0x3A90 JUMP JUMPDEST DUP1 PUSH1 0x1F ADD PUSH1 0x20 DUP1 SWAP2 DIV MUL PUSH1 0x20 ADD PUSH1 0x40 MLOAD SWAP1 DUP2 ADD PUSH1 0x40 MSTORE DUP1 SWAP3 SWAP2 SWAP1 DUP2 DUP2 MSTORE PUSH1 0x20 ADD DUP3 DUP1 SLOAD PUSH2 0x1916 SWAP1 PUSH2 0x3A90 JUMP JUMPDEST DUP1 ISZERO PUSH2 0x1961 JUMPI DUP1 PUSH1 0x1F LT PUSH2 0x1938 JUMPI PUSH2 0x100 DUP1 DUP4 SLOAD DIV MUL DUP4 MSTORE SWAP2 PUSH1 0x20 ADD SWAP2 PUSH2 0x1961 JUMP JUMPDEST DUP3 ADD SWAP2 SWAP1 PUSH0 MSTORE PUSH1 0x20 PUSH0 KECCAK256 SWAP1 JUMPDEST DUP2 SLOAD DUP2 MSTORE SWAP1 PUSH1 0x1 ADD SWAP1 PUSH1 0x20 ADD DUP1 DUP4 GT PUSH2 0x1944 JUMPI DUP3 SWAP1 SUB PUSH1 0x1F AND DUP3 ADD SWAP2 JUMPDEST POP POP POP POP POP PUSH2 0x1A1 DUP1 SLOAD PUSH2 0x1974 SWAP1 PUSH2 0x3A90 JUMP JUMPDEST DUP1 PUSH1 0x1F ADD PUSH1 0x20 DUP1 SWAP2 DIV MUL PUSH1 0x20 ADD PUSH1 0x40 MLOAD SWAP1 DUP2 ADD PUSH1 0x40 MSTORE DUP1 SWAP3 SWAP2 SWAP1 DUP2 DUP2 MSTORE PUSH1 0x20 ADD DUP3 DUP1 SLOAD PUSH2 0x19A0 SWAP1 PUSH2 0x3A90 JUMP JUMPDEST DUP1 ISZERO PUSH2 0x19EB JUMPI DUP1 PUSH1 0x1F LT PUSH2 0x19C2 JUMPI PUSH2 0x100 DUP1 DUP4 SLOAD DIV MUL DUP4 MSTORE SWAP2 PUSH1 0x20 ADD SWAP2 PUSH2 0x19EB JUMP JUMPDEST DUP3 ADD SWAP2 SWAP1 PUSH0 MSTORE PUSH1 0x20 PUSH0 KECCAK256 SWAP1 JUMPDEST DUP2 SLOAD DUP2 MSTORE SWAP1 PUSH1 0x1 ADD SWAP1 PUSH1 0x20 ADD DUP1 DUP4 GT PUSH2 0x19CE JUMPI DUP3 SWAP1 SUB PUSH1 0x1F AND DUP3 ADD SWAP2 JUMPDEST POP POP POP POP POP PUSH1 0x1 PUSH2 0x22B9 JUMP JUMPDEST PUSH2 0x19C DUP1 SLOAD SWAP1 PUSH0 PUSH2 0x1A07 DUP4 PUSH2 0x3B03 JUMP JUMPDEST SWAP2 SWAP1 POP SSTORE POP PUSH1 0x1 PUSH2 0x19D DUP7 PUSH1 0x40 MLOAD PUSH2 0x1A1F SWAP2 SWAP1 PUSH2 0x3D24 JUMP JUMPDEST SWAP1 DUP2 MSTORE PUSH1 0x20 ADD PUSH1 0x40 MLOAD DUP1 SWAP2 SUB SWAP1 KECCAK256 DUP2 SWAP1 SSTORE POP PUSH1 0x1 PUSH2 0x19E DUP6 PUSH1 0x40 MLOAD PUSH2 0x1A44 SWAP2 SWAP1 PUSH2 0x3D24 JUMP JUMPDEST SWAP1 DUP2 MSTORE PUSH1 0x40 MLOAD SWAP1 DUP2 SWAP1 SUB PUSH1 0x20 ADD SWAP1 KECCAK256 SSTORE POP POP POP POP POP POP POP JUMP JUMPDEST PUSH2 0x196 DUP1 SLOAD PUSH2 0xFD4 SWAP1 PUSH2 0x3A90 JUMP JUMPDEST PUSH0 PUSH1 0x1 PUSH1 0x1 PUSH1 0xA0 SHL SUB DUP3 AND PUSH2 0x1AD4 JUMPI PUSH1 0x40 MLOAD PUSH3 0x461BCD PUSH1 0xE5 SHL DUP2 MSTORE PUSH1 0x20 PUSH1 0x4 DUP3 ADD MSTORE PUSH1 0x29 PUSH1 0x24 DUP3 ADD MSTORE PUSH32 0x4552433732313A2061646472657373207A65726F206973206E6F742061207661 PUSH1 0x44 DUP3 ADD MSTORE PUSH9 0x3634B21037BBB732B9 PUSH1 0xB9 SHL PUSH1 0x64 DUP3 ADD MSTORE PUSH1 0x84 ADD PUSH2 0xAB7 JUMP JUMPDEST POP PUSH1 0x1 PUSH1 0x1 PUSH1 0xA0 SHL SUB AND PUSH0 SWAP1 DUP2 MSTORE PUSH1 0x68 PUSH1 0x20 MSTORE PUSH1 0x40 SWAP1 KECCAK256 SLOAD SWAP1 JUMP JUMPDEST PUSH0 SLOAD PUSH2 0x100 SWAP1 DIV PUSH1 0xFF AND ISZERO DUP1 DUP1 ISZERO PUSH2 0x1B0D JUMPI POP PUSH0 SLOAD PUSH1 0x1 PUSH1 0xFF SWAP1 SWAP2 AND LT JUMPDEST DUP1 PUSH2 0x1B26 JUMPI POP ADDRESS EXTCODESIZE ISZERO DUP1 ISZERO PUSH2 0x1B26 JUMPI POP PUSH0 SLOAD PUSH1 0xFF AND PUSH1 0x1 EQ JUMPDEST PUSH2 0x1B89 JUMPI PUSH1 0x40 MLOAD PUSH3 0x461BCD PUSH1 0xE5 SHL DUP2 MSTORE PUSH1 0x20 PUSH1 0x4 DUP3 ADD MSTORE PUSH1 0x2E PUSH1 0x24 DUP3 ADD MSTORE PUSH32 0x496E697469616C697A61626C653A20636F6E747261637420697320616C726561 PUSH1 0x44 DUP3 ADD MSTORE PUSH14 0x191E481A5B9A5D1A585B1A5E9959 PUSH1 0x92 SHL PUSH1 0x64 DUP3 ADD MSTORE PUSH1 0x84 ADD PUSH2 0xAB7 JUMP JUMPDEST PUSH0 DUP1 SLOAD PUSH1 0xFF NOT AND PUSH1 0x1 OR SWAP1 SSTORE DUP1 ISZERO PUSH2 0x1BAA JUMPI PUSH0 DUP1 SLOAD PUSH2 0xFF00 NOT AND PUSH2 0x100 OR SWAP1 SSTORE JUMPDEST PUSH2 0x1BEA PUSH1 0x40 MLOAD DUP1 PUSH1 0x40 ADD PUSH1 0x40 MSTORE DUP1 PUSH1 0x5 DUP2 MSTORE PUSH1 0x20 ADD PUSH5 0xA4CADAD2F PUSH1 0xDB SHL DUP2 MSTORE POP PUSH1 0x40 MLOAD DUP1 PUSH1 0x40 ADD PUSH1 0x40 MSTORE DUP1 PUSH1 0x1 DUP2 MSTORE PUSH1 0x20 ADD PUSH1 0x29 PUSH1 0xF9 SHL DUP2 MSTORE POP PUSH2 0x2667 JUMP JUMPDEST PUSH2 0x1BF2 PUSH2 0x2697 JUMP JUMPDEST PUSH2 0x1BFA PUSH2 0x2697 JUMP JUMPDEST PUSH2 0x1C02 PUSH2 0x2697 JUMP JUMPDEST PUSH2 0x1C0A PUSH2 0x2697 JUMP JUMPDEST PUSH2 0x1C14 PUSH0 CALLER PUSH2 0x26BF JUMP JUMPDEST DUP1 ISZERO PUSH2 0xE04 JUMPI PUSH0 DUP1 SLOAD PUSH2 0xFF00 NOT AND SWAP1 SSTORE PUSH1 0x40 MLOAD PUSH1 0x1 DUP2 MSTORE PUSH32 0x7F26B83FF96E1F2B6A682F133852F6798A09C465DA95921460CEFB3847402498 SWAP1 PUSH1 0x20 ADD PUSH1 0x40 MLOAD DUP1 SWAP2 SUB SWAP1 LOG1 POP JUMP JUMPDEST PUSH0 SWAP2 DUP3 MSTORE PUSH1 0xFB PUSH1 0x20 SWAP1 DUP2 MSTORE PUSH1 0x40 DUP1 DUP5 KECCAK256 PUSH1 0x1 PUSH1 0x1 PUSH1 0xA0 SHL SUB SWAP4 SWAP1 SWAP4 AND DUP5 MSTORE SWAP2 SWAP1 MSTORE SWAP1 KECCAK256 SLOAD PUSH1 0xFF AND SWAP1 JUMP JUMPDEST PUSH1 0x60 PUSH1 0x66 DUP1 SLOAD PUSH2 0x99E SWAP1 PUSH2 0x3A90 JUMP JUMPDEST PUSH2 0x19F DUP1 SLOAD PUSH2 0xFD4 SWAP1 PUSH2 0x3A90 JUMP JUMPDEST PUSH2 0xEA0 CALLER DUP4 DUP4 PUSH2 0x26C9 JUMP JUMPDEST PUSH2 0x1CB7 CALLER DUP4 PUSH2 0x1F8F JUMP JUMPDEST PUSH2 0x1CD3 JUMPI PUSH1 0x40 MLOAD PUSH3 0x461BCD PUSH1 0xE5 SHL DUP2 MSTORE PUSH1 0x4 ADD PUSH2 0xAB7 SWAP1 PUSH2 0x3C29 JUMP JUMPDEST PUSH2 0xC01 DUP5 DUP5 DUP5 DUP5 PUSH2 0x2796 JUMP JUMPDEST PUSH0 PUSH2 0x1CE9 DUP2 PUSH2 0x1F85 JUMP JUMPDEST PUSH2 0x1CF2 DUP5 PUSH2 0x1EBA JUMP JUMPDEST PUSH0 DUP5 DUP2 MSTORE PUSH2 0x193 PUSH1 0x20 MSTORE PUSH1 0x40 SWAP1 KECCAK256 PUSH1 0x2 ADD DUP1 SLOAD PUSH2 0x1D0E SWAP1 PUSH2 0x3A90 JUMP JUMPDEST ISZERO SWAP1 POP PUSH2 0x1D50 JUMPI PUSH1 0x40 MLOAD PUSH3 0x461BCD PUSH1 0xE5 SHL DUP2 MSTORE PUSH1 0x20 PUSH1 0x4 DUP3 ADD MSTORE PUSH1 0x10 PUSH1 0x24 DUP3 ADD MSTORE PUSH16 0x1A185CDA08185B1C9958591E481CD95D PUSH1 0x82 SHL PUSH1 0x44 DUP3 ADD MSTORE PUSH1 0x64 ADD PUSH2 0xAB7 JUMP JUMPDEST PUSH0 DUP5 DUP2 MSTORE PUSH2 0x193 PUSH1 0x20 MSTORE PUSH1 0x40 SWAP1 KECCAK256 PUSH1 0x2 ADD PUSH2 0xBE2 DUP4 DUP6 DUP4 PUSH2 0x3B74 JUMP JUMPDEST PUSH1 0x60 PUSH2 0x1D77 DUP3 PUSH2 0x1EBA JUMP JUMPDEST PUSH0 PUSH2 0x1D80 PUSH2 0x27C9 JUMP JUMPDEST SWAP1 POP PUSH0 DUP2 MLOAD GT PUSH2 0x1D9E JUMPI PUSH1 0x40 MLOAD DUP1 PUSH1 0x20 ADD PUSH1 0x40 MSTORE DUP1 PUSH0 DUP2 MSTORE POP PUSH2 0x1DC9 JUMP JUMPDEST DUP1 PUSH2 0x1DA8 DUP5 PUSH2 0x27D9 JUMP JUMPDEST PUSH1 0x40 MLOAD PUSH1 0x20 ADD PUSH2 0x1DB9 SWAP3 SWAP2 SWAP1 PUSH2 0x3DD9 JUMP JUMPDEST PUSH1 0x40 MLOAD PUSH1 0x20 DUP2 DUP4 SUB SUB DUP2 MSTORE SWAP1 PUSH1 0x40 MSTORE JUMPDEST SWAP4 SWAP3 POP POP POP JUMP JUMPDEST PUSH0 DUP3 DUP2 MSTORE PUSH1 0xFB PUSH1 0x20 MSTORE PUSH1 0x40 SWAP1 KECCAK256 PUSH1 0x1 ADD SLOAD PUSH2 0x1DEA DUP2 PUSH2 0x1F85 JUMP JUMPDEST PUSH2 0xB58 DUP4 DUP4 PUSH2 0x23EB JUMP JUMPDEST PUSH2 0x198 DUP2 PUSH1 0x2 DUP2 LT PUSH2 0x1E04 JUMPI PUSH0 DUP1 REVERT JUMPDEST ADD SLOAD SWAP1 POP DUP2 JUMP JUMPDEST PUSH0 PUSH2 0x1E15 DUP2 PUSH2 0x1F85 JUMP JUMPDEST PUSH2 0x192 DUP4 DUP4 PUSH1 0x40 MLOAD PUSH2 0x1E28 SWAP3 SWAP2 SWAP1 PUSH2 0x3E07 JUMP JUMPDEST SWAP1 DUP2 MSTORE PUSH1 0x40 MLOAD SWAP1 DUP2 SWAP1 SUB PUSH1 0x20 ADD SWAP1 KECCAK256 DUP1 SLOAD PUSH1 0xFF NOT AND SWAP1 SSTORE POP POP POP JUMP JUMPDEST PUSH0 PUSH2 0x1E4E DUP2 PUSH2 0x1F85 JUMP JUMPDEST PUSH1 0x1 PUSH2 0x192 DUP5 DUP5 PUSH1 0x40 MLOAD PUSH2 0x1E63 SWAP3 SWAP2 SWAP1 PUSH2 0x3E07 JUMP JUMPDEST SWAP1 DUP2 MSTORE PUSH1 0x40 MLOAD SWAP1 DUP2 SWAP1 SUB PUSH1 0x20 ADD SWAP1 KECCAK256 DUP1 SLOAD SWAP2 ISZERO ISZERO PUSH1 0xFF NOT SWAP1 SWAP3 AND SWAP2 SWAP1 SWAP2 OR SWAP1 SSTORE POP POP POP JUMP JUMPDEST PUSH2 0x1A0 DUP1 SLOAD PUSH2 0xFD4 SWAP1 PUSH2 0x3A90 JUMP JUMPDEST PUSH0 PUSH1 0x1 PUSH1 0x1 PUSH1 0xE0 SHL SUB NOT DUP3 AND PUSH4 0x7965DB0B PUSH1 0xE0 SHL EQ DUP1 PUSH2 0x989 JUMPI POP PUSH2 0x989 DUP3 PUSH2 0x28D5 JUMP JUMPDEST PUSH0 DUP2 DUP2 MSTORE PUSH1 0x67 PUSH1 0x20 MSTORE PUSH1 0x40 SWAP1 KECCAK256 SLOAD PUSH1 0x1 PUSH1 0x1 PUSH1 0xA0 SHL SUB AND PUSH2 0xE04 JUMPI PUSH1 0x40 MLOAD PUSH3 0x461BCD PUSH1 0xE5 SHL DUP2 MSTORE PUSH1 0x20 PUSH1 0x4 DUP3 ADD MSTORE PUSH1 0x18 PUSH1 0x24 DUP3 ADD MSTORE PUSH24 0x115490CDCC8C4E881A5B9D985B1A59081D1BDAD95B881251 PUSH1 0x42 SHL PUSH1 0x44 DUP3 ADD MSTORE PUSH1 0x64 ADD PUSH2 0xAB7 JUMP JUMPDEST PUSH0 DUP2 DUP2 MSTORE PUSH1 0x69 PUSH1 0x20 MSTORE PUSH1 0x40 SWAP1 KECCAK256 DUP1 SLOAD PUSH1 0x1 PUSH1 0x1 PUSH1 0xA0 SHL SUB NOT AND PUSH1 0x1 PUSH1 0x1 PUSH1 0xA0 SHL SUB DUP5 AND SWAP1 DUP2 OR SWAP1 SWAP2 SSTORE DUP2 SWAP1 PUSH2 0x1F4C DUP3 PUSH2 0x1439 JUMP JUMPDEST PUSH1 0x1 PUSH1 0x1 PUSH1 0xA0 SHL SUB AND PUSH32 0x8C5BE1E5EBEC7D5BD14F71427D1E84F3DD0314C0F7B2291E5B200AC8C7C3B925 PUSH1 0x40 MLOAD PUSH1 0x40 MLOAD DUP1 SWAP2 SUB SWAP1 LOG4 POP POP JUMP JUMPDEST PUSH2 0xE04 DUP2 CALLER PUSH2 0x28F9 JUMP JUMPDEST PUSH0 DUP1 PUSH2 0x1F9A DUP4 PUSH2 0x1439 JUMP JUMPDEST SWAP1 POP DUP1 PUSH1 0x1 PUSH1 0x1 PUSH1 0xA0 SHL SUB AND DUP5 PUSH1 0x1 PUSH1 0x1 PUSH1 0xA0 SHL SUB AND EQ DUP1 PUSH2 0x1FE0 JUMPI POP PUSH1 0x1 PUSH1 0x1 PUSH1 0xA0 SHL SUB DUP1 DUP3 AND PUSH0 SWAP1 DUP2 MSTORE PUSH1 0x6A PUSH1 0x20 SWAP1 DUP2 MSTORE PUSH1 0x40 DUP1 DUP4 KECCAK256 SWAP4 DUP9 AND DUP4 MSTORE SWAP3 SWAP1 MSTORE KECCAK256 SLOAD PUSH1 0xFF AND JUMPDEST DUP1 PUSH2 0x2004 JUMPI POP DUP4 PUSH1 0x1 PUSH1 0x1 PUSH1 0xA0 SHL SUB AND PUSH2 0x1FF9 DUP5 PUSH2 0xA1F JUMP JUMPDEST PUSH1 0x1 PUSH1 0x1 PUSH1 0xA0 SHL SUB AND EQ JUMPDEST SWAP5 SWAP4 POP POP POP POP JUMP JUMPDEST DUP3 PUSH1 0x1 PUSH1 0x1 PUSH1 0xA0 SHL SUB AND PUSH2 0x201F DUP3 PUSH2 0x1439 JUMP JUMPDEST PUSH1 0x1 PUSH1 0x1 PUSH1 0xA0 SHL SUB AND EQ PUSH2 0x2083 JUMPI PUSH1 0x40 MLOAD PUSH3 0x461BCD PUSH1 0xE5 SHL DUP2 MSTORE PUSH1 0x20 PUSH1 0x4 DUP3 ADD MSTORE PUSH1 0x25 PUSH1 0x24 DUP3 ADD MSTORE PUSH32 0x4552433732313A207472616E736665722066726F6D20696E636F727265637420 PUSH1 0x44 DUP3 ADD MSTORE PUSH5 0x37BBB732B9 PUSH1 0xD9 SHL PUSH1 0x64 DUP3 ADD MSTORE PUSH1 0x84 ADD PUSH2 0xAB7 JUMP JUMPDEST PUSH1 0x1 PUSH1 0x1 PUSH1 0xA0 SHL SUB DUP3 AND PUSH2 0x20E5 JUMPI PUSH1 0x40 MLOAD PUSH3 0x461BCD PUSH1 0xE5 SHL DUP2 MSTORE PUSH1 0x20 PUSH1 0x4 DUP3 ADD MSTORE PUSH1 0x24 DUP1 DUP3 ADD MSTORE PUSH32 0x4552433732313A207472616E7366657220746F20746865207A65726F20616464 PUSH1 0x44 DUP3 ADD MSTORE PUSH4 0x72657373 PUSH1 0xE0 SHL PUSH1 0x64 DUP3 ADD MSTORE PUSH1 0x84 ADD PUSH2 0xAB7 JUMP JUMPDEST PUSH2 0x20F0 DUP4 DUP4 DUP4 PUSH2 0x295D JUMP JUMPDEST PUSH2 0x20FA PUSH0 DUP3 PUSH2 0x1F18 JUMP JUMPDEST PUSH1 0x1 PUSH1 0x1 PUSH1 0xA0 SHL SUB DUP4 AND PUSH0 SWAP1 DUP2 MSTORE PUSH1 0x68 PUSH1 0x20 MSTORE PUSH1 0x40 DUP2 KECCAK256 DUP1 SLOAD PUSH1 0x1 SWAP3 SWAP1 PUSH2 0x2122 SWAP1 DUP5 SWAP1 PUSH2 0x3E16 JUMP JUMPDEST SWAP1 SWAP2 SSTORE POP POP PUSH1 0x1 PUSH1 0x1 PUSH1 0xA0 SHL SUB DUP3 AND PUSH0 SWAP1 DUP2 MSTORE PUSH1 0x68 PUSH1 0x20 MSTORE PUSH1 0x40 DUP2 KECCAK256 DUP1 SLOAD PUSH1 0x1 SWAP3 SWAP1 PUSH2 0x214F SWAP1 DUP5 SWAP1 PUSH2 0x3AF0 JUMP JUMPDEST SWAP1 SWAP2 SSTORE POP POP PUSH0 DUP2 DUP2 MSTORE PUSH1 0x67 PUSH1 0x20 MSTORE PUSH1 0x40 DUP1 DUP3 KECCAK256 DUP1 SLOAD PUSH1 0x1 PUSH1 0x1 PUSH1 0xA0 SHL SUB NOT AND PUSH1 0x1 PUSH1 0x1 PUSH1 0xA0 SHL SUB DUP7 DUP2 AND SWAP2 DUP3 OR SWAP1 SWAP3 SSTORE SWAP2 MLOAD DUP5 SWAP4 SWAP2 DUP8 AND SWAP2 PUSH32 0xDDF252AD1BE2C89B69C2B068FC378DAA952BA7F163C4A11628F55A4DF523B3EF SWAP2 LOG4 POP POP POP JUMP JUMPDEST PUSH2 0x21B9 DUP3 DUP3 PUSH2 0x1C5B JUMP JUMPDEST PUSH2 0xEA0 JUMPI PUSH0 DUP3 DUP2 MSTORE PUSH1 0xFB PUSH1 0x20 SWAP1 DUP2 MSTORE PUSH1 0x40 DUP1 DUP4 KECCAK256 PUSH1 0x1 PUSH1 0x1 PUSH1 0xA0 SHL SUB DUP6 AND DUP5 MSTORE SWAP1 SWAP2 MSTORE SWAP1 KECCAK256 DUP1 SLOAD PUSH1 0xFF NOT AND PUSH1 0x1 OR SWAP1 SSTORE PUSH2 0x21F0 CALLER SWAP1 JUMP JUMPDEST PUSH1 0x1 PUSH1 0x1 PUSH1 0xA0 SHL SUB AND DUP2 PUSH1 0x1 PUSH1 0x1 PUSH1 0xA0 SHL SUB AND DUP4 PUSH32 0x2F8788117E7EFF1D82E926EC794901D17C78024A50270940304540A733656F0D PUSH1 0x40 MLOAD PUSH1 0x40 MLOAD DUP1 SWAP2 SUB SWAP1 LOG4 POP POP JUMP JUMPDEST PUSH0 PUSH2 0x223F PUSH2 0x191 SLOAD SWAP1 JUMP JUMPDEST SWAP1 POP PUSH2 0x2250 PUSH2 0x191 DUP1 SLOAD PUSH1 0x1 ADD SWAP1 SSTORE JUMP JUMPDEST PUSH2 0x225A DUP3 DUP3 PUSH2 0x29B8 JUMP JUMPDEST PUSH1 0x40 MLOAD DUP1 PUSH1 0x40 ADD PUSH1 0x40 MSTORE DUP1 PUSH1 0x7 DUP2 MSTORE PUSH1 0x20 ADD PUSH7 0x2932B6B4BC32B9 PUSH1 0xC9 SHL DUP2 MSTORE POP PUSH2 0x193 PUSH0 DUP4 DUP2 MSTORE PUSH1 0x20 ADD SWAP1 DUP2 MSTORE PUSH1 0x20 ADD PUSH0 KECCAK256 PUSH1 0x1 ADD SWAP1 DUP2 PUSH2 0x229B SWAP2 SWAP1 PUSH2 0x3E29 JUMP JUMPDEST POP PUSH0 DUP2 DUP2 MSTORE PUSH2 0x193 PUSH1 0x20 MSTORE PUSH1 0x40 SWAP1 KECCAK256 PUSH1 0x2 ADD PUSH2 0xB58 PUSH2 0x195 DUP3 PUSH2 0x3EDF JUMP JUMPDEST PUSH2 0x192 DUP5 PUSH1 0x40 MLOAD PUSH2 0x22CA SWAP2 SWAP1 PUSH2 0x3D24 JUMP JUMPDEST SWAP1 DUP2 MSTORE PUSH1 0x40 MLOAD SWAP1 DUP2 SWAP1 SUB PUSH1 0x20 ADD SWAP1 KECCAK256 SLOAD PUSH1 0xFF AND PUSH2 0x2329 JUMPI PUSH1 0x40 MLOAD PUSH3 0x461BCD PUSH1 0xE5 SHL DUP2 MSTORE PUSH1 0x20 PUSH1 0x4 DUP3 ADD MSTORE PUSH1 0x17 PUSH1 0x24 DUP3 ADD MSTORE PUSH32 0x747970652073686F756C64206265206465636C61726564000000000000000000 PUSH1 0x44 DUP3 ADD MSTORE PUSH1 0x64 ADD PUSH2 0xAB7 JUMP JUMPDEST PUSH0 PUSH2 0x2334 PUSH2 0x191 SLOAD SWAP1 JUMP JUMPDEST SWAP1 POP PUSH2 0x2345 PUSH2 0x191 DUP1 SLOAD PUSH1 0x1 ADD SWAP1 SSTORE JUMP JUMPDEST PUSH2 0x234F DUP7 DUP3 PUSH2 0x29B8 JUMP JUMPDEST PUSH0 DUP2 DUP2 MSTORE PUSH2 0x193 PUSH1 0x20 MSTORE PUSH1 0x40 SWAP1 KECCAK256 PUSH2 0x2367 DUP6 DUP3 PUSH2 0x3E29 JUMP JUMPDEST POP PUSH0 DUP2 DUP2 MSTORE PUSH2 0x193 PUSH1 0x20 MSTORE PUSH1 0x40 SWAP1 KECCAK256 PUSH1 0x1 ADD PUSH2 0x2383 DUP7 DUP3 PUSH2 0x3E29 JUMP JUMPDEST POP PUSH0 DUP2 DUP2 MSTORE PUSH2 0x193 PUSH1 0x20 MSTORE PUSH1 0x40 SWAP1 KECCAK256 PUSH1 0x2 ADD PUSH2 0x239F DUP5 DUP3 PUSH2 0x3E29 JUMP JUMPDEST POP DUP2 ISZERO PUSH2 0xE1E JUMPI PUSH1 0x1 PUSH1 0x1 PUSH1 0xA0 SHL SUB DUP7 AND PUSH0 SWAP1 DUP2 MSTORE PUSH2 0x194 PUSH1 0x20 MSTORE PUSH1 0x40 SWAP1 KECCAK256 SLOAD PUSH2 0x23CA SWAP1 DUP4 SWAP1 PUSH2 0x3AF0 JUMP JUMPDEST PUSH1 0x1 PUSH1 0x1 PUSH1 0xA0 SHL SUB DUP8 AND PUSH0 SWAP1 DUP2 MSTORE PUSH2 0x194 PUSH1 0x20 MSTORE PUSH1 0x40 SWAP1 KECCAK256 SSTORE POP POP POP POP POP POP JUMP JUMPDEST PUSH2 0x23F5 DUP3 DUP3 PUSH2 0x1C5B JUMP JUMPDEST ISZERO PUSH2 0xEA0 JUMPI PUSH0 DUP3 DUP2 MSTORE PUSH1 0xFB PUSH1 0x20 SWAP1 DUP2 MSTORE PUSH1 0x40 DUP1 DUP4 KECCAK256 PUSH1 0x1 PUSH1 0x1 PUSH1 0xA0 SHL SUB DUP6 AND DUP1 DUP6 MSTORE SWAP3 MSTORE DUP1 DUP4 KECCAK256 DUP1 SLOAD PUSH1 0xFF NOT AND SWAP1 SSTORE MLOAD CALLER SWAP3 DUP6 SWAP2 PUSH32 0xF6391F5C32D9C69D2A47EA670B442974B53935D1EDC7FD64EB21E047A839171B SWAP2 SWAP1 LOG4 POP POP JUMP JUMPDEST PUSH0 PUSH2 0xEA0 DUP2 PUSH2 0x1F85 JUMP JUMPDEST PUSH32 0x4910FDFA16FED3260ED0E7147F7CC6DA11A60208B5B9406D12A635614FFD9143 SLOAD PUSH1 0xFF AND ISZERO PUSH2 0x248E JUMPI PUSH2 0xB58 DUP4 PUSH2 0x29D1 JUMP JUMPDEST DUP3 PUSH1 0x1 PUSH1 0x1 PUSH1 0xA0 SHL SUB AND PUSH4 0x52D1902D PUSH1 0x40 MLOAD DUP2 PUSH4 0xFFFFFFFF AND PUSH1 0xE0 SHL DUP2 MSTORE PUSH1 0x4 ADD PUSH1 0x20 PUSH1 0x40 MLOAD DUP1 DUP4 SUB DUP2 DUP7 GAS STATICCALL SWAP3 POP POP POP DUP1 ISZERO PUSH2 0x24E8 JUMPI POP PUSH1 0x40 DUP1 MLOAD PUSH1 0x1F RETURNDATASIZE SWAP1 DUP2 ADD PUSH1 0x1F NOT AND DUP3 ADD SWAP1 SWAP3 MSTORE PUSH2 0x24E5 SWAP2 DUP2 ADD SWAP1 PUSH2 0x3FA6 JUMP JUMPDEST PUSH1 0x1 JUMPDEST PUSH2 0x254B JUMPI PUSH1 0x40 MLOAD PUSH3 0x461BCD PUSH1 0xE5 SHL DUP2 MSTORE PUSH1 0x20 PUSH1 0x4 DUP3 ADD MSTORE PUSH1 0x2E PUSH1 0x24 DUP3 ADD MSTORE PUSH32 0x45524331393637557067726164653A206E657720696D706C656D656E74617469 PUSH1 0x44 DUP3 ADD MSTORE PUSH14 0x6F6E206973206E6F742055555053 PUSH1 0x90 SHL PUSH1 0x64 DUP3 ADD MSTORE PUSH1 0x84 ADD PUSH2 0xAB7 JUMP JUMPDEST PUSH0 DUP1 MLOAD PUSH1 0x20 PUSH2 0x4181 DUP4 CODECOPY DUP2 MLOAD SWAP2 MSTORE DUP2 EQ PUSH2 0x25B9 JUMPI PUSH1 0x40 MLOAD PUSH3 0x461BCD PUSH1 0xE5 SHL DUP2 MSTORE PUSH1 0x20 PUSH1 0x4 DUP3 ADD MSTORE PUSH1 0x29 PUSH1 0x24 DUP3 ADD MSTORE PUSH32 0x45524331393637557067726164653A20756E737570706F727465642070726F78 PUSH1 0x44 DUP3 ADD MSTORE PUSH9 0x1A58589B1955555251 PUSH1 0xBA SHL PUSH1 0x64 DUP3 ADD MSTORE PUSH1 0x84 ADD PUSH2 0xAB7 JUMP JUMPDEST POP PUSH2 0xB58 DUP4 DUP4 DUP4 PUSH2 0x2A6C JUMP JUMPDEST PUSH0 PUSH2 0x25CF DUP3 PUSH2 0x1439 JUMP JUMPDEST SWAP1 POP PUSH2 0x25DC DUP2 PUSH0 DUP5 PUSH2 0x295D JUMP JUMPDEST PUSH2 0x25E6 PUSH0 DUP4 PUSH2 0x1F18 JUMP JUMPDEST PUSH1 0x1 PUSH1 0x1 PUSH1 0xA0 SHL SUB DUP2 AND PUSH0 SWAP1 DUP2 MSTORE PUSH1 0x68 PUSH1 0x20 MSTORE PUSH1 0x40 DUP2 KECCAK256 DUP1 SLOAD PUSH1 0x1 SWAP3 SWAP1 PUSH2 0x260E SWAP1 DUP5 SWAP1 PUSH2 0x3E16 JUMP JUMPDEST SWAP1 SWAP2 SSTORE POP POP PUSH0 DUP3 DUP2 MSTORE PUSH1 0x67 PUSH1 0x20 MSTORE PUSH1 0x40 DUP1 DUP3 KECCAK256 DUP1 SLOAD PUSH1 0x1 PUSH1 0x1 PUSH1 0xA0 SHL SUB NOT AND SWAP1 SSTORE MLOAD DUP4 SWAP2 SWAP1 PUSH1 0x1 PUSH1 0x1 PUSH1 0xA0 SHL SUB DUP5 AND SWAP1 PUSH32 0xDDF252AD1BE2C89B69C2B068FC378DAA952BA7F163C4A11628F55A4DF523B3EF SWAP1 DUP4 SWAP1 LOG4 POP POP JUMP JUMPDEST PUSH0 SLOAD PUSH2 0x100 SWAP1 DIV PUSH1 0xFF AND PUSH2 0x268D JUMPI PUSH1 0x40 MLOAD PUSH3 0x461BCD PUSH1 0xE5 SHL DUP2 MSTORE PUSH1 0x4 ADD PUSH2 0xAB7 SWAP1 PUSH2 0x3FBD JUMP JUMPDEST PUSH2 0xEA0 DUP3 DUP3 PUSH2 0x2A90 JUMP JUMPDEST PUSH0 SLOAD PUSH2 0x100 SWAP1 DIV PUSH1 0xFF AND PUSH2 0x26BD JUMPI PUSH1 0x40 MLOAD PUSH3 0x461BCD PUSH1 0xE5 SHL DUP2 MSTORE PUSH1 0x4 ADD PUSH2 0xAB7 SWAP1 PUSH2 0x3FBD JUMP JUMPDEST JUMP JUMPDEST PUSH2 0xEA0 DUP3 DUP3 PUSH2 0x21AF JUMP JUMPDEST DUP2 PUSH1 0x1 PUSH1 0x1 PUSH1 0xA0 SHL SUB AND DUP4 PUSH1 0x1 PUSH1 0x1 PUSH1 0xA0 SHL SUB AND SUB PUSH2 0x272A JUMPI PUSH1 0x40 MLOAD PUSH3 0x461BCD PUSH1 0xE5 SHL DUP2 MSTORE PUSH1 0x20 PUSH1 0x4 DUP3 ADD MSTORE PUSH1 0x19 PUSH1 0x24 DUP3 ADD MSTORE PUSH32 0x4552433732313A20617070726F766520746F2063616C6C657200000000000000 PUSH1 0x44 DUP3 ADD MSTORE PUSH1 0x64 ADD PUSH2 0xAB7 JUMP JUMPDEST PUSH1 0x1 PUSH1 0x1 PUSH1 0xA0 SHL SUB DUP4 DUP2 AND PUSH0 DUP2 DUP2 MSTORE PUSH1 0x6A PUSH1 0x20 SWAP1 DUP2 MSTORE PUSH1 0x40 DUP1 DUP4 KECCAK256 SWAP5 DUP8 AND DUP1 DUP5 MSTORE SWAP5 DUP3 MSTORE SWAP2 DUP3 SWAP1 KECCAK256 DUP1 SLOAD PUSH1 0xFF NOT AND DUP7 ISZERO ISZERO SWAP1 DUP2 OR SWAP1 SWAP2 SSTORE SWAP2 MLOAD SWAP2 DUP3 MSTORE PUSH32 0x17307EAB39AB6107E8899845AD3D59BD9653F200F220920489CA2B5937696C31 SWAP2 ADD PUSH1 0x40 MLOAD DUP1 SWAP2 SUB SWAP1 LOG3 POP POP POP JUMP JUMPDEST PUSH2 0x27A1 DUP5 DUP5 DUP5 PUSH2 0x200C JUMP JUMPDEST PUSH2 0x27AD DUP5 DUP5 DUP5 DUP5 PUSH2 0x2ACF JUMP JUMPDEST PUSH2 0xC01 JUMPI PUSH1 0x40 MLOAD PUSH3 0x461BCD PUSH1 0xE5 SHL DUP2 MSTORE PUSH1 0x4 ADD PUSH2 0xAB7 SWAP1 PUSH2 0x4008 JUMP JUMPDEST PUSH1 0x60 PUSH2 0x196 DUP1 SLOAD PUSH2 0x99E SWAP1 PUSH2 0x3A90 JUMP JUMPDEST PUSH1 0x60 DUP2 PUSH0 SUB PUSH2 0x27FF JUMPI POP POP PUSH1 0x40 DUP1 MLOAD DUP1 DUP3 ADD SWAP1 SWAP2 MSTORE PUSH1 0x1 DUP2 MSTORE PUSH1 0x3 PUSH1 0xFC SHL PUSH1 0x20 DUP3 ADD MSTORE SWAP1 JUMP JUMPDEST DUP2 PUSH0 JUMPDEST DUP2 ISZERO PUSH2 0x2828 JUMPI DUP1 PUSH2 0x2812 DUP2 PUSH2 0x3B03 JUMP JUMPDEST SWAP2 POP PUSH2 0x2821 SWAP1 POP PUSH1 0xA DUP4 PUSH2 0x406E JUMP JUMPDEST SWAP2 POP PUSH2 0x2802 JUMP JUMPDEST PUSH0 DUP2 PUSH1 0x1 PUSH1 0x1 PUSH1 0x40 SHL SUB DUP2 GT ISZERO PUSH2 0x2841 JUMPI PUSH2 0x2841 PUSH2 0x3494 JUMP JUMPDEST PUSH1 0x40 MLOAD SWAP1 DUP1 DUP3 MSTORE DUP1 PUSH1 0x1F ADD PUSH1 0x1F NOT AND PUSH1 0x20 ADD DUP3 ADD PUSH1 0x40 MSTORE DUP1 ISZERO PUSH2 0x286B JUMPI PUSH1 0x20 DUP3 ADD DUP2 DUP1 CALLDATASIZE DUP4 CALLDATACOPY ADD SWAP1 POP JUMPDEST POP SWAP1 POP JUMPDEST DUP5 ISZERO PUSH2 0x2004 JUMPI PUSH2 0x2880 PUSH1 0x1 DUP4 PUSH2 0x3E16 JUMP JUMPDEST SWAP2 POP PUSH2 0x288D PUSH1 0xA DUP7 PUSH2 0x4081 JUMP JUMPDEST PUSH2 0x2898 SWAP1 PUSH1 0x30 PUSH2 0x3AF0 JUMP JUMPDEST PUSH1 0xF8 SHL DUP2 DUP4 DUP2 MLOAD DUP2 LT PUSH2 0x28AD JUMPI PUSH2 0x28AD PUSH2 0x3AC8 JUMP JUMPDEST PUSH1 0x20 ADD ADD SWAP1 PUSH1 0x1 PUSH1 0x1 PUSH1 0xF8 SHL SUB NOT AND SWAP1 DUP2 PUSH0 BYTE SWAP1 MSTORE8 POP PUSH2 0x28CE PUSH1 0xA DUP7 PUSH2 0x406E JUMP JUMPDEST SWAP5 POP PUSH2 0x286F JUMP JUMPDEST PUSH0 PUSH1 0x1 PUSH1 0x1 PUSH1 0xE0 SHL SUB NOT DUP3 AND PUSH4 0x780E9D63 PUSH1 0xE0 SHL EQ DUP1 PUSH2 0x989 JUMPI POP PUSH2 0x989 DUP3 PUSH2 0x2BCC JUMP JUMPDEST PUSH2 0x2903 DUP3 DUP3 PUSH2 0x1C5B JUMP JUMPDEST PUSH2 0xEA0 JUMPI PUSH2 0x291B DUP2 PUSH1 0x1 PUSH1 0x1 PUSH1 0xA0 SHL SUB AND PUSH1 0x14 PUSH2 0x2C1B JUMP JUMPDEST PUSH2 0x2926 DUP4 PUSH1 0x20 PUSH2 0x2C1B JUMP JUMPDEST PUSH1 0x40 MLOAD PUSH1 0x20 ADD PUSH2 0x2937 SWAP3 SWAP2 SWAP1 PUSH2 0x4094 JUMP JUMPDEST PUSH1 0x40 DUP1 MLOAD PUSH1 0x1F NOT DUP2 DUP5 SUB ADD DUP2 MSTORE SWAP1 DUP3 SWAP1 MSTORE PUSH3 0x461BCD PUSH1 0xE5 SHL DUP3 MSTORE PUSH2 0xAB7 SWAP2 PUSH1 0x4 ADD PUSH2 0x33D0 JUMP JUMPDEST PUSH1 0x1 PUSH1 0x1 PUSH1 0xA0 SHL SUB DUP4 AND ISZERO PUSH2 0x29AD JUMPI PUSH1 0x40 MLOAD PUSH3 0x461BCD PUSH1 0xE5 SHL DUP2 MSTORE PUSH1 0x20 PUSH1 0x4 DUP3 ADD MSTORE PUSH1 0x16 PUSH1 0x24 DUP3 ADD MSTORE PUSH22 0x746F6B656E206E6F74207472616E7366657261626C65 PUSH1 0x50 SHL PUSH1 0x44 DUP3 ADD MSTORE PUSH1 0x64 ADD PUSH2 0xAB7 JUMP JUMPDEST PUSH2 0xB58 DUP4 DUP4 DUP4 PUSH2 0x2DB0 JUMP JUMPDEST PUSH2 0xEA0 DUP3 DUP3 PUSH1 0x40 MLOAD DUP1 PUSH1 0x20 ADD PUSH1 0x40 MSTORE DUP1 PUSH0 DUP2 MSTORE POP PUSH2 0x2E67 JUMP JUMPDEST PUSH1 0x1 PUSH1 0x1 PUSH1 0xA0 SHL SUB DUP2 AND EXTCODESIZE PUSH2 0x2A3E JUMPI PUSH1 0x40 MLOAD PUSH3 0x461BCD PUSH1 0xE5 SHL DUP2 MSTORE PUSH1 0x20 PUSH1 0x4 DUP3 ADD MSTORE PUSH1 0x2D PUSH1 0x24 DUP3 ADD MSTORE PUSH32 0x455243313936373A206E657720696D706C656D656E746174696F6E206973206E PUSH1 0x44 DUP3 ADD MSTORE PUSH13 0x1BDD08184818DBDB9D1C9858DD PUSH1 0x9A SHL PUSH1 0x64 DUP3 ADD MSTORE PUSH1 0x84 ADD PUSH2 0xAB7 JUMP JUMPDEST PUSH0 DUP1 MLOAD PUSH1 0x20 PUSH2 0x4181 DUP4 CODECOPY DUP2 MLOAD SWAP2 MSTORE DUP1 SLOAD PUSH1 0x1 PUSH1 0x1 PUSH1 0xA0 SHL SUB NOT AND PUSH1 0x1 PUSH1 0x1 PUSH1 0xA0 SHL SUB SWAP3 SWAP1 SWAP3 AND SWAP2 SWAP1 SWAP2 OR SWAP1 SSTORE JUMP JUMPDEST PUSH2 0x2A75 DUP4 PUSH2 0x2E99 JUMP JUMPDEST PUSH0 DUP3 MLOAD GT DUP1 PUSH2 0x2A81 JUMPI POP DUP1 JUMPDEST ISZERO PUSH2 0xB58 JUMPI PUSH2 0xC01 DUP4 DUP4 PUSH2 0x2ED8 JUMP JUMPDEST PUSH0 SLOAD PUSH2 0x100 SWAP1 DIV PUSH1 0xFF AND PUSH2 0x2AB6 JUMPI PUSH1 0x40 MLOAD PUSH3 0x461BCD PUSH1 0xE5 SHL DUP2 MSTORE PUSH1 0x4 ADD PUSH2 0xAB7 SWAP1 PUSH2 0x3FBD JUMP JUMPDEST PUSH1 0x65 PUSH2 0x2AC2 DUP4 DUP3 PUSH2 0x3E29 JUMP JUMPDEST POP PUSH1 0x66 PUSH2 0xB58 DUP3 DUP3 PUSH2 0x3E29 JUMP JUMPDEST PUSH0 PUSH1 0x1 PUSH1 0x1 PUSH1 0xA0 SHL SUB DUP5 AND EXTCODESIZE ISZERO PUSH2 0x2BC1 JUMPI PUSH1 0x40 MLOAD PUSH4 0xA85BD01 PUSH1 0xE1 SHL DUP2 MSTORE PUSH1 0x1 PUSH1 0x1 PUSH1 0xA0 SHL SUB DUP6 AND SWAP1 PUSH4 0x150B7A02 SWAP1 PUSH2 0x2B12 SWAP1 CALLER SWAP1 DUP10 SWAP1 DUP9 SWAP1 DUP9 SWAP1 PUSH1 0x4 ADD PUSH2 0x4108 JUMP JUMPDEST PUSH1 0x20 PUSH1 0x40 MLOAD DUP1 DUP4 SUB DUP2 PUSH0 DUP8 GAS CALL SWAP3 POP POP POP DUP1 ISZERO PUSH2 0x2B4C JUMPI POP PUSH1 0x40 DUP1 MLOAD PUSH1 0x1F RETURNDATASIZE SWAP1 DUP2 ADD PUSH1 0x1F NOT AND DUP3 ADD SWAP1 SWAP3 MSTORE PUSH2 0x2B49 SWAP2 DUP2 ADD SWAP1 PUSH2 0x413A JUMP JUMPDEST PUSH1 0x1 JUMPDEST PUSH2 0x2BA7 JUMPI RETURNDATASIZE DUP1 DUP1 ISZERO PUSH2 0x2B79 JUMPI PUSH1 0x40 MLOAD SWAP2 POP PUSH1 0x1F NOT PUSH1 0x3F RETURNDATASIZE ADD AND DUP3 ADD PUSH1 0x40 MSTORE RETURNDATASIZE DUP3 MSTORE RETURNDATASIZE PUSH0 PUSH1 0x20 DUP5 ADD RETURNDATACOPY PUSH2 0x2B7E JUMP JUMPDEST PUSH1 0x60 SWAP2 POP JUMPDEST POP DUP1 MLOAD PUSH0 SUB PUSH2 0x2B9F JUMPI PUSH1 0x40 MLOAD PUSH3 0x461BCD PUSH1 0xE5 SHL DUP2 MSTORE PUSH1 0x4 ADD PUSH2 0xAB7 SWAP1 PUSH2 0x4008 JUMP JUMPDEST DUP1 MLOAD DUP2 PUSH1 0x20 ADD REVERT JUMPDEST PUSH1 0x1 PUSH1 0x1 PUSH1 0xE0 SHL SUB NOT AND PUSH4 0xA85BD01 PUSH1 0xE1 SHL EQ SWAP1 POP PUSH2 0x2004 JUMP JUMPDEST POP PUSH1 0x1 SWAP5 SWAP4 POP POP POP POP JUMP JUMPDEST PUSH0 PUSH1 0x1 PUSH1 0x1 PUSH1 0xE0 SHL SUB NOT DUP3 AND PUSH4 0x80AC58CD PUSH1 0xE0 SHL EQ DUP1 PUSH2 0x2BFC JUMPI POP PUSH1 0x1 PUSH1 0x1 PUSH1 0xE0 SHL SUB NOT DUP3 AND PUSH4 0x5B5E139F PUSH1 0xE0 SHL EQ JUMPDEST DUP1 PUSH2 0x989 JUMPI POP PUSH4 0x1FFC9A7 PUSH1 0xE0 SHL PUSH1 0x1 PUSH1 0x1 PUSH1 0xE0 SHL SUB NOT DUP4 AND EQ PUSH2 0x989 JUMP JUMPDEST PUSH1 0x60 PUSH0 PUSH2 0x2C29 DUP4 PUSH1 0x2 PUSH2 0x4155 JUMP JUMPDEST PUSH2 0x2C34 SWAP1 PUSH1 0x2 PUSH2 0x3AF0 JUMP JUMPDEST PUSH1 0x1 PUSH1 0x1 PUSH1 0x40 SHL SUB DUP2 GT ISZERO PUSH2 0x2C4B JUMPI PUSH2 0x2C4B PUSH2 0x3494 JUMP JUMPDEST PUSH1 0x40 MLOAD SWAP1 DUP1 DUP3 MSTORE DUP1 PUSH1 0x1F ADD PUSH1 0x1F NOT AND PUSH1 0x20 ADD DUP3 ADD PUSH1 0x40 MSTORE DUP1 ISZERO PUSH2 0x2C75 JUMPI PUSH1 0x20 DUP3 ADD DUP2 DUP1 CALLDATASIZE DUP4 CALLDATACOPY ADD SWAP1 POP JUMPDEST POP SWAP1 POP PUSH1 0x3 PUSH1 0xFC SHL DUP2 PUSH0 DUP2 MLOAD DUP2 LT PUSH2 0x2C8F JUMPI PUSH2 0x2C8F PUSH2 0x3AC8 JUMP JUMPDEST PUSH1 0x20 ADD ADD SWAP1 PUSH1 0x1 PUSH1 0x1 PUSH1 0xF8 SHL SUB NOT AND SWAP1 DUP2 PUSH0 BYTE SWAP1 MSTORE8 POP PUSH1 0xF PUSH1 0xFB SHL DUP2 PUSH1 0x1 DUP2 MLOAD DUP2 LT PUSH2 0x2CBD JUMPI PUSH2 0x2CBD PUSH2 0x3AC8 JUMP JUMPDEST PUSH1 0x20 ADD ADD SWAP1 PUSH1 0x1 PUSH1 0x1 PUSH1 0xF8 SHL SUB NOT AND SWAP1 DUP2 PUSH0 BYTE SWAP1 MSTORE8 POP PUSH0 PUSH2 0x2CDF DUP5 PUSH1 0x2 PUSH2 0x4155 JUMP JUMPDEST PUSH2 0x2CEA SWAP1 PUSH1 0x1 PUSH2 0x3AF0 JUMP JUMPDEST SWAP1 POP JUMPDEST PUSH1 0x1 DUP2 GT ISZERO PUSH2 0x2D61 JUMPI PUSH16 0x181899199A1A9B1B9C1CB0B131B232B3 PUSH1 0x81 SHL DUP6 PUSH1 0xF AND PUSH1 0x10 DUP2 LT PUSH2 0x2D1E JUMPI PUSH2 0x2D1E PUSH2 0x3AC8 JUMP JUMPDEST BYTE PUSH1 0xF8 SHL DUP3 DUP3 DUP2 MLOAD DUP2 LT PUSH2 0x2D34 JUMPI PUSH2 0x2D34 PUSH2 0x3AC8 JUMP JUMPDEST PUSH1 0x20 ADD ADD SWAP1 PUSH1 0x1 PUSH1 0x1 PUSH1 0xF8 SHL SUB NOT AND SWAP1 DUP2 PUSH0 BYTE SWAP1 MSTORE8 POP PUSH1 0x4 SWAP5 SWAP1 SWAP5 SHR SWAP4 PUSH2 0x2D5A DUP2 PUSH2 0x3C77 JUMP JUMPDEST SWAP1 POP PUSH2 0x2CED JUMP JUMPDEST POP DUP4 ISZERO PUSH2 0x1DC9 JUMPI PUSH1 0x40 MLOAD PUSH3 0x461BCD PUSH1 0xE5 SHL DUP2 MSTORE PUSH1 0x20 PUSH1 0x4 DUP3 ADD DUP2 SWAP1 MSTORE PUSH1 0x24 DUP3 ADD MSTORE PUSH32 0x537472696E67733A20686578206C656E67746820696E73756666696369656E74 PUSH1 0x44 DUP3 ADD MSTORE PUSH1 0x64 ADD PUSH2 0xAB7 JUMP JUMPDEST PUSH1 0x1 PUSH1 0x1 PUSH1 0xA0 SHL SUB DUP4 AND PUSH2 0x2E0A JUMPI PUSH2 0x2E05 DUP2 PUSH1 0x99 DUP1 SLOAD PUSH0 DUP4 DUP2 MSTORE PUSH1 0x9A PUSH1 0x20 MSTORE PUSH1 0x40 DUP2 KECCAK256 DUP3 SWAP1 SSTORE PUSH1 0x1 DUP3 ADD DUP4 SSTORE SWAP2 SWAP1 SWAP2 MSTORE PUSH32 0x72A152DDFB8E864297C917AF52EA6C1C68AEAD0FEE1A62673FCC7E0C94979D00 ADD SSTORE JUMP JUMPDEST PUSH2 0x2E2D JUMP JUMPDEST DUP2 PUSH1 0x1 PUSH1 0x1 PUSH1 0xA0 SHL SUB AND DUP4 PUSH1 0x1 PUSH1 0x1 PUSH1 0xA0 SHL SUB AND EQ PUSH2 0x2E2D JUMPI PUSH2 0x2E2D DUP4 DUP3 PUSH2 0x2FC8 JUMP JUMPDEST PUSH1 0x1 PUSH1 0x1 PUSH1 0xA0 SHL SUB DUP3 AND PUSH2 0x2E44 JUMPI PUSH2 0xB58 DUP2 PUSH2 0x3061 JUMP JUMPDEST DUP3 PUSH1 0x1 PUSH1 0x1 PUSH1 0xA0 SHL SUB AND DUP3 PUSH1 0x1 PUSH1 0x1 PUSH1 0xA0 SHL SUB AND EQ PUSH2 0xB58 JUMPI PUSH2 0xB58 DUP3 DUP3 PUSH2 0x3108 JUMP JUMPDEST PUSH2 0x2E71 DUP4 DUP4 PUSH2 0x314A JUMP JUMPDEST PUSH2 0x2E7D PUSH0 DUP5 DUP5 DUP5 PUSH2 0x2ACF JUMP JUMPDEST PUSH2 0xB58 JUMPI PUSH1 0x40 MLOAD PUSH3 0x461BCD PUSH1 0xE5 SHL DUP2 MSTORE PUSH1 0x4 ADD PUSH2 0xAB7 SWAP1 PUSH2 0x4008 JUMP JUMPDEST PUSH2 0x2EA2 DUP2 PUSH2 0x29D1 JUMP JUMPDEST PUSH1 0x40 MLOAD PUSH1 0x1 PUSH1 0x1 PUSH1 0xA0 SHL SUB DUP3 AND SWAP1 PUSH32 0xBC7CD75A20EE27FD9ADEBAB32041F755214DBC6BFFA90CC0225B39DA2E5C2D3B SWAP1 PUSH0 SWAP1 LOG2 POP JUMP JUMPDEST PUSH1 0x60 PUSH1 0x1 PUSH1 0x1 PUSH1 0xA0 SHL SUB DUP4 AND EXTCODESIZE PUSH2 0x2F40 JUMPI PUSH1 0x40 MLOAD PUSH3 0x461BCD PUSH1 0xE5 SHL DUP2 MSTORE PUSH1 0x20 PUSH1 0x4 DUP3 ADD MSTORE PUSH1 0x26 PUSH1 0x24 DUP3 ADD MSTORE PUSH32 0x416464726573733A2064656C65676174652063616C6C20746F206E6F6E2D636F PUSH1 0x44 DUP3 ADD MSTORE PUSH6 0x1B9D1C9858DD PUSH1 0xD2 SHL PUSH1 0x64 DUP3 ADD MSTORE PUSH1 0x84 ADD PUSH2 0xAB7 JUMP JUMPDEST PUSH0 DUP1 DUP5 PUSH1 0x1 PUSH1 0x1 PUSH1 0xA0 SHL SUB AND DUP5 PUSH1 0x40 MLOAD PUSH2 0x2F5A SWAP2 SWAP1 PUSH2 0x3D24 JUMP JUMPDEST PUSH0 PUSH1 0x40 MLOAD DUP1 DUP4 SUB DUP2 DUP6 GAS DELEGATECALL SWAP2 POP POP RETURNDATASIZE DUP1 PUSH0 DUP2 EQ PUSH2 0x2F92 JUMPI PUSH1 0x40 MLOAD SWAP2 POP PUSH1 0x1F NOT PUSH1 0x3F RETURNDATASIZE ADD AND DUP3 ADD PUSH1 0x40 MSTORE RETURNDATASIZE DUP3 MSTORE RETURNDATASIZE PUSH0 PUSH1 0x20 DUP5 ADD RETURNDATACOPY PUSH2 0x2F97 JUMP JUMPDEST PUSH1 0x60 SWAP2 POP JUMPDEST POP SWAP2 POP SWAP2 POP PUSH2 0x2FBF DUP3 DUP3 PUSH1 0x40 MLOAD DUP1 PUSH1 0x60 ADD PUSH1 0x40 MSTORE DUP1 PUSH1 0x27 DUP2 MSTORE PUSH1 0x20 ADD PUSH2 0x41A1 PUSH1 0x27 SWAP2 CODECOPY PUSH2 0x3294 JUMP JUMPDEST SWAP6 SWAP5 POP POP POP POP POP JUMP JUMPDEST PUSH0 PUSH1 0x1 PUSH2 0x2FD4 DUP5 PUSH2 0x1A6B JUMP JUMPDEST PUSH2 0x2FDE SWAP2 SWAP1 PUSH2 0x3E16 JUMP JUMPDEST PUSH0 DUP4 DUP2 MSTORE PUSH1 0x98 PUSH1 0x20 MSTORE PUSH1 0x40 SWAP1 KECCAK256 SLOAD SWAP1 SWAP2 POP DUP1 DUP3 EQ PUSH2 0x302F JUMPI PUSH1 0x1 PUSH1 0x1 PUSH1 0xA0 SHL SUB DUP5 AND PUSH0 SWAP1 DUP2 MSTORE PUSH1 0x97 PUSH1 0x20 SWAP1 DUP2 MSTORE PUSH1 0x40 DUP1 DUP4 KECCAK256 DUP6 DUP5 MSTORE DUP3 MSTORE DUP1 DUP4 KECCAK256 SLOAD DUP5 DUP5 MSTORE DUP2 DUP5 KECCAK256 DUP2 SWAP1 SSTORE DUP4 MSTORE PUSH1 0x98 SWAP1 SWAP2 MSTORE SWAP1 KECCAK256 DUP2 SWAP1 SSTORE JUMPDEST POP PUSH0 SWAP2 DUP3 MSTORE PUSH1 0x98 PUSH1 0x20 SWAP1 DUP2 MSTORE PUSH1 0x40 DUP1 DUP5 KECCAK256 DUP5 SWAP1 SSTORE PUSH1 0x1 PUSH1 0x1 PUSH1 0xA0 SHL SUB SWAP1 SWAP5 AND DUP4 MSTORE PUSH1 0x97 DUP2 MSTORE DUP4 DUP4 KECCAK256 SWAP2 DUP4 MSTORE MSTORE SWAP1 DUP2 KECCAK256 SSTORE JUMP JUMPDEST PUSH1 0x99 SLOAD PUSH0 SWAP1 PUSH2 0x3072 SWAP1 PUSH1 0x1 SWAP1 PUSH2 0x3E16 JUMP JUMPDEST PUSH0 DUP4 DUP2 MSTORE PUSH1 0x9A PUSH1 0x20 MSTORE PUSH1 0x40 DUP2 KECCAK256 SLOAD PUSH1 0x99 DUP1 SLOAD SWAP4 SWAP5 POP SWAP1 SWAP3 DUP5 SWAP1 DUP2 LT PUSH2 0x3099 JUMPI PUSH2 0x3099 PUSH2 0x3AC8 JUMP JUMPDEST SWAP1 PUSH0 MSTORE PUSH1 0x20 PUSH0 KECCAK256 ADD SLOAD SWAP1 POP DUP1 PUSH1 0x99 DUP4 DUP2 SLOAD DUP2 LT PUSH2 0x30B8 JUMPI PUSH2 0x30B8 PUSH2 0x3AC8 JUMP JUMPDEST PUSH0 SWAP2 DUP3 MSTORE PUSH1 0x20 DUP1 DUP4 KECCAK256 SWAP1 SWAP2 ADD SWAP3 SWAP1 SWAP3 SSTORE DUP3 DUP2 MSTORE PUSH1 0x9A SWAP1 SWAP2 MSTORE PUSH1 0x40 DUP1 DUP3 KECCAK256 DUP5 SWAP1 SSTORE DUP6 DUP3 MSTORE DUP2 KECCAK256 SSTORE PUSH1 0x99 DUP1 SLOAD DUP1 PUSH2 0x30EF JUMPI PUSH2 0x30EF PUSH2 0x416C JUMP JUMPDEST PUSH1 0x1 SWAP1 SUB DUP2 DUP2 SWAP1 PUSH0 MSTORE PUSH1 0x20 PUSH0 KECCAK256 ADD PUSH0 SWAP1 SSTORE SWAP1 SSTORE POP POP POP POP JUMP JUMPDEST PUSH0 PUSH2 0x3112 DUP4 PUSH2 0x1A6B JUMP JUMPDEST PUSH1 0x1 PUSH1 0x1 PUSH1 0xA0 SHL SUB SWAP1 SWAP4 AND PUSH0 SWAP1 DUP2 MSTORE PUSH1 0x97 PUSH1 0x20 SWAP1 DUP2 MSTORE PUSH1 0x40 DUP1 DUP4 KECCAK256 DUP7 DUP5 MSTORE DUP3 MSTORE DUP1 DUP4 KECCAK256 DUP6 SWAP1 SSTORE SWAP4 DUP3 MSTORE PUSH1 0x98 SWAP1 MSTORE SWAP2 SWAP1 SWAP2 KECCAK256 SWAP2 SWAP1 SWAP2 SSTORE POP JUMP JUMPDEST PUSH1 0x1 PUSH1 0x1 PUSH1 0xA0 SHL SUB DUP3 AND PUSH2 0x31A0 JUMPI PUSH1 0x40 MLOAD PUSH3 0x461BCD PUSH1 0xE5 SHL DUP2 MSTORE PUSH1 0x20 PUSH1 0x4 DUP3 ADD DUP2 SWAP1 MSTORE PUSH1 0x24 DUP3 ADD MSTORE PUSH32 0x4552433732313A206D696E7420746F20746865207A65726F2061646472657373 PUSH1 0x44 DUP3 ADD MSTORE PUSH1 0x64 ADD PUSH2 0xAB7 JUMP JUMPDEST PUSH0 DUP2 DUP2 MSTORE PUSH1 0x67 PUSH1 0x20 MSTORE PUSH1 0x40 SWAP1 KECCAK256 SLOAD PUSH1 0x1 PUSH1 0x1 PUSH1 0xA0 SHL SUB AND ISZERO PUSH2 0x3204 JUMPI PUSH1 0x40 MLOAD PUSH3 0x461BCD PUSH1 0xE5 SHL DUP2 MSTORE PUSH1 0x20 PUSH1 0x4 DUP3 ADD MSTORE PUSH1 0x1C PUSH1 0x24 DUP3 ADD MSTORE PUSH32 0x4552433732313A20746F6B656E20616C7265616479206D696E74656400000000 PUSH1 0x44 DUP3 ADD MSTORE PUSH1 0x64 ADD PUSH2 0xAB7 JUMP JUMPDEST PUSH2 0x320F PUSH0 DUP4 DUP4 PUSH2 0x295D JUMP JUMPDEST PUSH1 0x1 PUSH1 0x1 PUSH1 0xA0 SHL SUB DUP3 AND PUSH0 SWAP1 DUP2 MSTORE PUSH1 0x68 PUSH1 0x20 MSTORE PUSH1 0x40 DUP2 KECCAK256 DUP1 SLOAD PUSH1 0x1 SWAP3 SWAP1 PUSH2 0x3237 SWAP1 DUP5 SWAP1 PUSH2 0x3AF0 JUMP JUMPDEST SWAP1 SWAP2 SSTORE POP POP PUSH0 DUP2 DUP2 MSTORE PUSH1 0x67 PUSH1 0x20 MSTORE PUSH1 0x40 DUP1 DUP3 KECCAK256 DUP1 SLOAD PUSH1 0x1 PUSH1 0x1 PUSH1 0xA0 SHL SUB NOT AND PUSH1 0x1 PUSH1 0x1 PUSH1 0xA0 SHL SUB DUP7 AND SWAP1 DUP2 OR SWAP1 SWAP2 SSTORE SWAP1 MLOAD DUP4 SWAP3 SWAP1 PUSH32 0xDDF252AD1BE2C89B69C2B068FC378DAA952BA7F163C4A11628F55A4DF523B3EF SWAP1 DUP3 SWAP1 LOG4 POP POP JUMP JUMPDEST PUSH1 0x60 DUP4 ISZERO PUSH2 0x32A3 JUMPI POP DUP2 PUSH2 0x1DC9 JUMP JUMPDEST DUP3 MLOAD ISZERO PUSH2 0x32B3 JUMPI DUP3 MLOAD DUP1 DUP5 PUSH1 0x20 ADD REVERT JUMPDEST DUP2 PUSH1 0x40 MLOAD PUSH3 0x461BCD PUSH1 0xE5 SHL DUP2 MSTORE PUSH1 0x4 ADD PUSH2 0xAB7 SWAP2 SWAP1 PUSH2 0x33D0 JUMP JUMPDEST DUP3 PUSH1 0x2 DUP2 ADD SWAP3 DUP3 ISZERO PUSH2 0x32FB JUMPI SWAP2 PUSH1 0x20 MUL DUP3 ADD JUMPDEST DUP3 DUP2 GT ISZERO PUSH2 0x32FB JUMPI DUP3 CALLDATALOAD DUP3 SSTORE SWAP2 PUSH1 0x20 ADD SWAP2 SWAP1 PUSH1 0x1 ADD SWAP1 PUSH2 0x32E0 JUMP JUMPDEST POP PUSH2 0x3307 SWAP3 SWAP2 POP PUSH2 0x330B JUMP JUMPDEST POP SWAP1 JUMP JUMPDEST JUMPDEST DUP1 DUP3 GT ISZERO PUSH2 0x3307 JUMPI PUSH0 DUP2 SSTORE PUSH1 0x1 ADD PUSH2 0x330C JUMP JUMPDEST DUP1 CALLDATALOAD PUSH1 0x1 PUSH1 0x1 PUSH1 0xA0 SHL SUB DUP2 AND DUP2 EQ PUSH2 0x3335 JUMPI PUSH0 DUP1 REVERT JUMPDEST SWAP2 SWAP1 POP JUMP JUMPDEST PUSH0 PUSH1 0x20 DUP3 DUP5 SUB SLT ISZERO PUSH2 0x334A JUMPI PUSH0 DUP1 REVERT JUMPDEST PUSH2 0x1DC9 DUP3 PUSH2 0x331F JUMP JUMPDEST PUSH1 0x1 PUSH1 0x1 PUSH1 0xE0 SHL SUB NOT DUP2 AND DUP2 EQ PUSH2 0xE04 JUMPI PUSH0 DUP1 REVERT JUMPDEST PUSH0 PUSH1 0x20 DUP3 DUP5 SUB SLT ISZERO PUSH2 0x3378 JUMPI PUSH0 DUP1 REVERT JUMPDEST DUP2 CALLDATALOAD PUSH2 0x1DC9 DUP2 PUSH2 0x3353 JUMP JUMPDEST PUSH0 JUMPDEST DUP4 DUP2 LT ISZERO PUSH2 0x339D JUMPI DUP2 DUP2 ADD MLOAD DUP4 DUP3 ADD MSTORE PUSH1 0x20 ADD PUSH2 0x3385 JUMP JUMPDEST POP POP PUSH0 SWAP2 ADD MSTORE JUMP JUMPDEST PUSH0 DUP2 MLOAD DUP1 DUP5 MSTORE PUSH2 0x33BC DUP2 PUSH1 0x20 DUP7 ADD PUSH1 0x20 DUP7 ADD PUSH2 0x3383 JUMP JUMPDEST PUSH1 0x1F ADD PUSH1 0x1F NOT AND SWAP3 SWAP1 SWAP3 ADD PUSH1 0x20 ADD SWAP3 SWAP2 POP POP JUMP JUMPDEST PUSH1 0x20 DUP2 MSTORE PUSH0 PUSH2 0x1DC9 PUSH1 0x20 DUP4 ADD DUP5 PUSH2 0x33A5 JUMP JUMPDEST PUSH0 PUSH1 0x20 DUP3 DUP5 SUB SLT ISZERO PUSH2 0x33F2 JUMPI PUSH0 DUP1 REVERT JUMPDEST POP CALLDATALOAD SWAP2 SWAP1 POP JUMP JUMPDEST PUSH0 DUP1 PUSH1 0x40 DUP4 DUP6 SUB SLT ISZERO PUSH2 0x340A JUMPI PUSH0 DUP1 REVERT JUMPDEST PUSH2 0x3413 DUP4 PUSH2 0x331F JUMP JUMPDEST SWAP5 PUSH1 0x20 SWAP4 SWAP1 SWAP4 ADD CALLDATALOAD SWAP4 POP POP POP JUMP JUMPDEST PUSH0 DUP1 PUSH0 PUSH1 0x40 DUP5 DUP7 SUB SLT ISZERO PUSH2 0x3433 JUMPI PUSH0 DUP1 REVERT JUMPDEST DUP4 CALLDATALOAD PUSH1 0x1 PUSH1 0x1 PUSH1 0x40 SHL SUB DUP1 DUP3 GT ISZERO PUSH2 0x3449 JUMPI PUSH0 DUP1 REVERT JUMPDEST DUP2 DUP7 ADD SWAP2 POP DUP7 PUSH1 0x1F DUP4 ADD SLT PUSH2 0x345C JUMPI PUSH0 DUP1 REVERT JUMPDEST DUP2 CALLDATALOAD DUP2 DUP2 GT ISZERO PUSH2 0x346A JUMPI PUSH0 DUP1 REVERT JUMPDEST DUP8 PUSH1 0x20 DUP3 PUSH1 0x5 SHL DUP6 ADD ADD GT ISZERO PUSH2 0x347E JUMPI PUSH0 DUP1 REVERT JUMPDEST PUSH1 0x20 SWAP3 DUP4 ADD SWAP9 SWAP1 SWAP8 POP SWAP6 SWAP1 SWAP2 ADD CALLDATALOAD SWAP5 SWAP4 POP POP POP POP JUMP JUMPDEST PUSH4 0x4E487B71 PUSH1 0xE0 SHL PUSH0 MSTORE PUSH1 0x41 PUSH1 0x4 MSTORE PUSH1 0x24 PUSH0 REVERT JUMPDEST PUSH1 0x40 MLOAD PUSH1 0x60 DUP2 ADD PUSH1 0x1 PUSH1 0x1 PUSH1 0x40 SHL SUB DUP2 GT DUP3 DUP3 LT OR ISZERO PUSH2 0x34CA JUMPI PUSH2 0x34CA PUSH2 0x3494 JUMP JUMPDEST PUSH1 0x40 MSTORE SWAP1 JUMP JUMPDEST PUSH1 0x40 DUP1 MLOAD SWAP1 DUP2 ADD PUSH1 0x1 PUSH1 0x1 PUSH1 0x40 SHL SUB DUP2 GT DUP3 DUP3 LT OR ISZERO PUSH2 0x34CA JUMPI PUSH2 0x34CA PUSH2 0x3494 JUMP JUMPDEST PUSH0 DUP3 PUSH1 0x1F DUP4 ADD SLT PUSH2 0x3501 JUMPI PUSH0 DUP1 REVERT JUMPDEST DUP2 CALLDATALOAD PUSH1 0x1 PUSH1 0x1 PUSH1 0x40 SHL SUB DUP1 DUP3 GT ISZERO PUSH2 0x351B JUMPI PUSH2 0x351B PUSH2 0x3494 JUMP JUMPDEST PUSH1 0x40 MLOAD PUSH1 0x1F DUP4 ADD PUSH1 0x1F NOT SWAP1 DUP2 AND PUSH1 0x3F ADD AND DUP2 ADD SWAP1 DUP3 DUP3 GT DUP2 DUP4 LT OR ISZERO PUSH2 0x3543 JUMPI PUSH2 0x3543 PUSH2 0x3494 JUMP JUMPDEST DUP2 PUSH1 0x40 MSTORE DUP4 DUP2 MSTORE DUP7 PUSH1 0x20 DUP6 DUP9 ADD ADD GT ISZERO PUSH2 0x355B JUMPI PUSH0 DUP1 REVERT JUMPDEST DUP4 PUSH1 0x20 DUP8 ADD PUSH1 0x20 DUP4 ADD CALLDATACOPY PUSH0 PUSH1 0x20 DUP6 DUP4 ADD ADD MSTORE DUP1 SWAP5 POP POP POP POP POP SWAP3 SWAP2 POP POP JUMP JUMPDEST PUSH0 PUSH1 0x20 DUP3 DUP5 SUB SLT ISZERO PUSH2 0x358A JUMPI PUSH0 DUP1 REVERT JUMPDEST DUP2 CALLDATALOAD PUSH1 0x1 PUSH1 0x1 PUSH1 0x40 SHL SUB DUP2 GT ISZERO PUSH2 0x359F JUMPI PUSH0 DUP1 REVERT JUMPDEST PUSH2 0x2004 DUP5 DUP3 DUP6 ADD PUSH2 0x34F2 JUMP JUMPDEST PUSH0 DUP1 DUP4 PUSH1 0x1F DUP5 ADD SLT PUSH2 0x35BB JUMPI PUSH0 DUP1 REVERT JUMPDEST POP DUP2 CALLDATALOAD PUSH1 0x1 PUSH1 0x1 PUSH1 0x40 SHL SUB DUP2 GT ISZERO PUSH2 0x35D1 JUMPI PUSH0 DUP1 REVERT JUMPDEST PUSH1 0x20 DUP4 ADD SWAP2 POP DUP4 PUSH1 0x20 DUP3 DUP6 ADD ADD GT ISZERO PUSH2 0x35E8 JUMPI PUSH0 DUP1 REVERT JUMPDEST SWAP3 POP SWAP3 SWAP1 POP JUMP JUMPDEST PUSH0 DUP1 PUSH1 0x20 DUP4 DUP6 SUB SLT ISZERO PUSH2 0x3600 JUMPI PUSH0 DUP1 REVERT JUMPDEST DUP3 CALLDATALOAD PUSH1 0x1 PUSH1 0x1 PUSH1 0x40 SHL SUB DUP2 GT ISZERO PUSH2 0x3615 JUMPI PUSH0 DUP1 REVERT JUMPDEST PUSH2 0x3621 DUP6 DUP3 DUP7 ADD PUSH2 0x35AB JUMP JUMPDEST SWAP1 SWAP7 SWAP1 SWAP6 POP SWAP4 POP POP POP POP JUMP JUMPDEST PUSH0 DUP1 PUSH0 PUSH1 0x60 DUP5 DUP7 SUB SLT ISZERO PUSH2 0x363F JUMPI PUSH0 DUP1 REVERT JUMPDEST PUSH2 0x3648 DUP5 PUSH2 0x331F JUMP JUMPDEST SWAP3 POP PUSH2 0x3656 PUSH1 0x20 DUP6 ADD PUSH2 0x331F JUMP JUMPDEST SWAP2 POP PUSH1 0x40 DUP5 ADD CALLDATALOAD SWAP1 POP SWAP3 POP SWAP3 POP SWAP3 JUMP JUMPDEST PUSH0 DUP1 PUSH0 DUP1 PUSH0 DUP1 PUSH0 DUP1 PUSH0 PUSH1 0xC0 DUP11 DUP13 SUB SLT ISZERO PUSH2 0x367E JUMPI PUSH0 DUP1 REVERT JUMPDEST PUSH2 0x3687 DUP11 PUSH2 0x331F JUMP JUMPDEST SWAP9 POP PUSH1 0x40 DUP11 ADD DUP12 DUP2 GT ISZERO PUSH2 0x3699 JUMPI PUSH0 DUP1 REVERT JUMPDEST PUSH1 0x20 DUP12 ADD SWAP9 POP CALLDATALOAD SWAP7 POP PUSH1 0x60 DUP11 ADD CALLDATALOAD PUSH1 0x1 PUSH1 0x1 PUSH1 0x40 SHL SUB DUP1 DUP3 GT ISZERO PUSH2 0x36BB JUMPI PUSH0 DUP1 REVERT JUMPDEST PUSH2 0x36C7 DUP14 DUP4 DUP15 ADD PUSH2 0x35AB JUMP JUMPDEST SWAP1 SWAP9 POP SWAP7 POP PUSH1 0x80 DUP13 ADD CALLDATALOAD SWAP2 POP DUP1 DUP3 GT ISZERO PUSH2 0x36DF JUMPI PUSH0 DUP1 REVERT JUMPDEST PUSH2 0x36EB DUP14 DUP4 DUP15 ADD PUSH2 0x35AB JUMP JUMPDEST SWAP1 SWAP7 POP SWAP5 POP PUSH1 0xA0 DUP13 ADD CALLDATALOAD SWAP2 POP DUP1 DUP3 GT ISZERO PUSH2 0x3703 JUMPI PUSH0 DUP1 REVERT JUMPDEST POP PUSH2 0x3710 DUP13 DUP3 DUP14 ADD PUSH2 0x35AB JUMP JUMPDEST SWAP2 POP DUP1 SWAP4 POP POP DUP1 SWAP2 POP POP SWAP3 SWAP6 SWAP9 POP SWAP3 SWAP6 SWAP9 POP SWAP3 SWAP6 SWAP9 JUMP JUMPDEST PUSH0 DUP1 PUSH1 0x40 DUP4 DUP6 SUB SLT ISZERO PUSH2 0x3738 JUMPI PUSH0 DUP1 REVERT JUMPDEST DUP3 CALLDATALOAD SWAP2 POP PUSH2 0x3748 PUSH1 0x20 DUP5 ADD PUSH2 0x331F JUMP JUMPDEST SWAP1 POP SWAP3 POP SWAP3 SWAP1 POP JUMP JUMPDEST PUSH0 DUP1 PUSH0 DUP1 PUSH0 PUSH1 0xA0 DUP7 DUP9 SUB SLT ISZERO PUSH2 0x3765 JUMPI PUSH0 DUP1 REVERT JUMPDEST PUSH2 0x376E DUP7 PUSH2 0x331F JUMP JUMPDEST SWAP5 POP PUSH1 0x20 DUP7 ADD CALLDATALOAD PUSH1 0x1 PUSH1 0x1 PUSH1 0x40 SHL SUB DUP1 DUP3 GT ISZERO PUSH2 0x3789 JUMPI PUSH0 DUP1 REVERT JUMPDEST PUSH2 0x3795 DUP10 DUP4 DUP11 ADD PUSH2 0x34F2 JUMP JUMPDEST SWAP6 POP PUSH1 0x40 DUP9 ADD CALLDATALOAD SWAP2 POP DUP1 DUP3 GT ISZERO PUSH2 0x37AA JUMPI PUSH0 DUP1 REVERT JUMPDEST PUSH2 0x37B6 DUP10 DUP4 DUP11 ADD PUSH2 0x34F2 JUMP JUMPDEST SWAP5 POP PUSH1 0x60 DUP9 ADD CALLDATALOAD SWAP2 POP DUP1 DUP3 GT ISZERO PUSH2 0x37CB JUMPI PUSH0 DUP1 REVERT JUMPDEST POP PUSH2 0x37D8 DUP9 DUP3 DUP10 ADD PUSH2 0x34F2 JUMP JUMPDEST SWAP6 SWAP9 SWAP5 SWAP8 POP SWAP3 SWAP6 PUSH1 0x80 ADD CALLDATALOAD SWAP4 SWAP3 POP POP POP JUMP JUMPDEST PUSH0 DUP1 PUSH1 0x40 DUP4 DUP6 SUB SLT ISZERO PUSH2 0x37FB JUMPI PUSH0 DUP1 REVERT JUMPDEST PUSH2 0x3804 DUP4 PUSH2 0x331F JUMP JUMPDEST SWAP2 POP PUSH1 0x20 DUP4 ADD CALLDATALOAD PUSH1 0x1 PUSH1 0x1 PUSH1 0x40 SHL SUB DUP2 GT ISZERO PUSH2 0x381E JUMPI PUSH0 DUP1 REVERT JUMPDEST PUSH2 0x382A DUP6 DUP3 DUP7 ADD PUSH2 0x34F2 JUMP JUMPDEST SWAP2 POP POP SWAP3 POP SWAP3 SWAP1 POP JUMP JUMPDEST PUSH1 0x60 DUP2 MSTORE PUSH0 PUSH2 0x3846 PUSH1 0x60 DUP4 ADD DUP7 PUSH2 0x33A5 JUMP JUMPDEST DUP3 DUP2 SUB PUSH1 0x20 DUP5 ADD MSTORE PUSH2 0x3858 DUP2 DUP7 PUSH2 0x33A5 JUMP JUMPDEST SWAP1 POP DUP3 DUP2 SUB PUSH1 0x40 DUP5 ADD MSTORE PUSH2 0x386C DUP2 DUP6 PUSH2 0x33A5 JUMP JUMPDEST SWAP7 SWAP6 POP POP POP POP POP POP JUMP JUMPDEST PUSH0 DUP3 PUSH1 0x1F DUP4 ADD SLT PUSH2 0x3885 JUMPI PUSH0 DUP1 REVERT JUMPDEST PUSH2 0x388D PUSH2 0x34D0 JUMP JUMPDEST DUP1 PUSH1 0x40 DUP5 ADD DUP6 DUP2 GT ISZERO PUSH2 0x389E JUMPI PUSH0 DUP1 REVERT JUMPDEST DUP5 JUMPDEST DUP2 DUP2 LT ISZERO PUSH2 0x38B8 JUMPI DUP1 CALLDATALOAD DUP5 MSTORE PUSH1 0x20 SWAP4 DUP5 ADD SWAP4 ADD PUSH2 0x38A0 JUMP JUMPDEST POP SWAP1 SWAP6 SWAP5 POP POP POP POP POP JUMP JUMPDEST PUSH0 DUP1 DUP3 DUP5 SUB PUSH2 0x140 DUP2 SLT ISZERO PUSH2 0x38D6 JUMPI PUSH0 DUP1 REVERT JUMPDEST PUSH2 0x100 DUP1 DUP3 SLT ISZERO PUSH2 0x38E5 JUMPI PUSH0 DUP1 REVERT JUMPDEST PUSH2 0x38ED PUSH2 0x34A8 JUMP JUMPDEST SWAP2 POP PUSH2 0x38F9 DUP7 DUP7 PUSH2 0x3876 JUMP JUMPDEST DUP3 MSTORE PUSH1 0x40 DUP7 PUSH1 0x5F DUP8 ADD SLT PUSH2 0x390B JUMPI PUSH0 DUP1 REVERT JUMPDEST PUSH2 0x3913 PUSH2 0x34D0 JUMP JUMPDEST DUP1 PUSH1 0xC0 DUP9 ADD DUP10 DUP2 GT ISZERO PUSH2 0x3924 JUMPI PUSH0 DUP1 REVERT JUMPDEST DUP4 DUP10 ADD JUMPDEST DUP2 DUP2 LT ISZERO PUSH2 0x3949 JUMPI PUSH2 0x393A DUP12 DUP3 PUSH2 0x3876 JUMP JUMPDEST DUP5 MSTORE PUSH1 0x20 SWAP1 SWAP4 ADD SWAP3 DUP5 ADD PUSH2 0x3928 JUMP JUMPDEST POP DUP2 PUSH1 0x20 DUP8 ADD MSTORE PUSH2 0x395A DUP11 DUP3 PUSH2 0x3876 JUMP JUMPDEST DUP5 DUP8 ADD MSTORE POP POP POP POP DUP2 SWAP4 POP PUSH2 0x3971 DUP7 DUP3 DUP8 ADD PUSH2 0x3876 JUMP JUMPDEST SWAP3 POP POP POP SWAP3 POP SWAP3 SWAP1 POP JUMP JUMPDEST DUP1 ISZERO ISZERO DUP2 EQ PUSH2 0xE04 JUMPI PUSH0 DUP1 REVERT JUMPDEST PUSH0 DUP1 PUSH1 0x40 DUP4 DUP6 SUB SLT ISZERO PUSH2 0x399A JUMPI PUSH0 DUP1 REVERT JUMPDEST PUSH2 0x39A3 DUP4 PUSH2 0x331F JUMP JUMPDEST SWAP2 POP PUSH1 0x20 DUP4 ADD CALLDATALOAD PUSH2 0x39B3 DUP2 PUSH2 0x397C JUMP JUMPDEST DUP1 SWAP2 POP POP SWAP3 POP SWAP3 SWAP1 POP JUMP JUMPDEST PUSH0 DUP1 PUSH0 DUP1 PUSH1 0x80 DUP6 DUP8 SUB SLT ISZERO PUSH2 0x39D1 JUMPI PUSH0 DUP1 REVERT JUMPDEST PUSH2 0x39DA DUP6 PUSH2 0x331F JUMP JUMPDEST SWAP4 POP PUSH2 0x39E8 PUSH1 0x20 DUP7 ADD PUSH2 0x331F JUMP JUMPDEST SWAP3 POP PUSH1 0x40 DUP6 ADD CALLDATALOAD SWAP2 POP PUSH1 0x60 DUP6 ADD CALLDATALOAD PUSH1 0x1 PUSH1 0x1 PUSH1 0x40 SHL SUB DUP2 GT ISZERO PUSH2 0x3A09 JUMPI PUSH0 DUP1 REVERT JUMPDEST PUSH2 0x3A15 DUP8 DUP3 DUP9 ADD PUSH2 0x34F2 JUMP JUMPDEST SWAP2 POP POP SWAP3 SWAP6 SWAP2 SWAP5 POP SWAP3 POP JUMP JUMPDEST PUSH0 DUP1 PUSH0 PUSH1 0x40 DUP5 DUP7 SUB SLT ISZERO PUSH2 0x3A33 JUMPI PUSH0 DUP1 REVERT JUMPDEST DUP4 CALLDATALOAD SWAP3 POP PUSH1 0x20 DUP5 ADD CALLDATALOAD PUSH1 0x1 PUSH1 0x1 PUSH1 0x40 SHL SUB DUP2 GT ISZERO PUSH2 0x3A4F JUMPI PUSH0 DUP1 REVERT JUMPDEST PUSH2 0x3A5B DUP7 DUP3 DUP8 ADD PUSH2 0x35AB JUMP JUMPDEST SWAP5 SWAP8 SWAP1 SWAP7 POP SWAP4 SWAP5 POP POP POP POP JUMP JUMPDEST PUSH0 DUP1 PUSH1 0x40 DUP4 DUP6 SUB SLT ISZERO PUSH2 0x3A79 JUMPI PUSH0 DUP1 REVERT JUMPDEST PUSH2 0x3A82 DUP4 PUSH2 0x331F JUMP JUMPDEST SWAP2 POP PUSH2 0x3748 PUSH1 0x20 DUP5 ADD PUSH2 0x331F JUMP JUMPDEST PUSH1 0x1 DUP2 DUP2 SHR SWAP1 DUP3 AND DUP1 PUSH2 0x3AA4 JUMPI PUSH1 0x7F DUP3 AND SWAP2 POP JUMPDEST PUSH1 0x20 DUP3 LT DUP2 SUB PUSH2 0x3AC2 JUMPI PUSH4 0x4E487B71 PUSH1 0xE0 SHL PUSH0 MSTORE PUSH1 0x22 PUSH1 0x4 MSTORE PUSH1 0x24 PUSH0 REVERT JUMPDEST POP SWAP2 SWAP1 POP JUMP JUMPDEST PUSH4 0x4E487B71 PUSH1 0xE0 SHL PUSH0 MSTORE PUSH1 0x32 PUSH1 0x4 MSTORE PUSH1 0x24 PUSH0 REVERT JUMPDEST PUSH4 0x4E487B71 PUSH1 0xE0 SHL PUSH0 MSTORE PUSH1 0x11 PUSH1 0x4 MSTORE PUSH1 0x24 PUSH0 REVERT JUMPDEST DUP1 DUP3 ADD DUP1 DUP3 GT ISZERO PUSH2 0x989 JUMPI PUSH2 0x989 PUSH2 0x3ADC JUMP JUMPDEST PUSH0 PUSH1 0x1 DUP3 ADD PUSH2 0x3B14 JUMPI PUSH2 0x3B14 PUSH2 0x3ADC JUMP JUMPDEST POP PUSH1 0x1 ADD SWAP1 JUMP JUMPDEST PUSH1 0x1F DUP3 GT ISZERO PUSH2 0xB58 JUMPI PUSH0 DUP2 DUP2 MSTORE PUSH1 0x20 DUP2 KECCAK256 PUSH1 0x1F DUP6 ADD PUSH1 0x5 SHR DUP2 ADD PUSH1 0x20 DUP7 LT ISZERO PUSH2 0x3B41 JUMPI POP DUP1 JUMPDEST PUSH1 0x1F DUP6 ADD PUSH1 0x5 SHR DUP3 ADD SWAP2 POP JUMPDEST DUP2 DUP2 LT ISZERO PUSH2 0xE1E JUMPI DUP3 DUP2 SSTORE PUSH1 0x1 ADD PUSH2 0x3B4D JUMP JUMPDEST PUSH0 NOT PUSH1 0x3 DUP4 SWAP1 SHL SHR NOT AND PUSH1 0x1 SWAP2 SWAP1 SWAP2 SHL OR SWAP1 JUMP JUMPDEST PUSH1 0x1 PUSH1 0x1 PUSH1 0x40 SHL SUB DUP4 GT ISZERO PUSH2 0x3B8B JUMPI PUSH2 0x3B8B PUSH2 0x3494 JUMP JUMPDEST PUSH2 0x3B9F DUP4 PUSH2 0x3B99 DUP4 SLOAD PUSH2 0x3A90 JUMP JUMPDEST DUP4 PUSH2 0x3B1B JUMP JUMPDEST PUSH0 PUSH1 0x1F DUP5 GT PUSH1 0x1 DUP2 EQ PUSH2 0x3BCB JUMPI PUSH0 DUP6 ISZERO PUSH2 0x3BB9 JUMPI POP DUP4 DUP3 ADD CALLDATALOAD JUMPDEST PUSH2 0x3BC3 DUP7 DUP3 PUSH2 0x3B60 JUMP JUMPDEST DUP5 SSTORE POP PUSH2 0xBE2 JUMP JUMPDEST PUSH0 DUP4 DUP2 MSTORE PUSH1 0x20 SWAP1 KECCAK256 PUSH1 0x1F NOT DUP7 AND SWAP1 DUP4 JUMPDEST DUP3 DUP2 LT ISZERO PUSH2 0x3BFB JUMPI DUP7 DUP6 ADD CALLDATALOAD DUP3 SSTORE PUSH1 0x20 SWAP5 DUP6 ADD SWAP5 PUSH1 0x1 SWAP1 SWAP3 ADD SWAP2 ADD PUSH2 0x3BDB JUMP JUMPDEST POP DUP7 DUP3 LT ISZERO PUSH2 0x3C17 JUMPI PUSH0 NOT PUSH1 0xF8 DUP9 PUSH1 0x3 SHL AND SHR NOT DUP5 DUP8 ADD CALLDATALOAD AND DUP2 SSTORE JUMPDEST POP POP PUSH1 0x1 DUP6 PUSH1 0x1 SHL ADD DUP4 SSTORE POP POP POP POP POP JUMP JUMPDEST PUSH1 0x20 DUP1 DUP3 MSTORE PUSH1 0x2E SWAP1 DUP3 ADD MSTORE PUSH32 0x4552433732313A2063616C6C6572206973206E6F7420746F6B656E206F776E65 PUSH1 0x40 DUP3 ADD MSTORE PUSH14 0x1C881B9BDC88185C1C1C9BDD9959 PUSH1 0x92 SHL PUSH1 0x60 DUP3 ADD MSTORE PUSH1 0x80 ADD SWAP1 JUMP JUMPDEST PUSH0 DUP2 PUSH2 0x3C85 JUMPI PUSH2 0x3C85 PUSH2 0x3ADC JUMP JUMPDEST POP PUSH0 NOT ADD SWAP1 JUMP JUMPDEST PUSH1 0x20 DUP1 DUP3 MSTORE PUSH1 0x2C SWAP1 DUP3 ADD MSTORE PUSH32 0x46756E6374696F6E206D7573742062652063616C6C6564207468726F75676820 PUSH1 0x40 DUP3 ADD MSTORE PUSH12 0x19195B1959D85D1958D85B1B PUSH1 0xA2 SHL PUSH1 0x60 DUP3 ADD MSTORE PUSH1 0x80 ADD SWAP1 JUMP JUMPDEST PUSH1 0x20 DUP1 DUP3 MSTORE PUSH1 0x2C SWAP1 DUP3 ADD MSTORE PUSH32 0x46756E6374696F6E206D7573742062652063616C6C6564207468726F75676820 PUSH1 0x40 DUP3 ADD MSTORE PUSH12 0x6163746976652070726F7879 PUSH1 0xA0 SHL PUSH1 0x60 DUP3 ADD MSTORE PUSH1 0x80 ADD SWAP1 JUMP JUMPDEST PUSH0 DUP3 MLOAD PUSH2 0x3D35 DUP2 DUP5 PUSH1 0x20 DUP8 ADD PUSH2 0x3383 JUMP JUMPDEST SWAP2 SWAP1 SWAP2 ADD SWAP3 SWAP2 POP POP JUMP JUMPDEST DUP1 PUSH0 JUMPDEST PUSH1 0x2 DUP2 LT ISZERO PUSH2 0xC01 JUMPI DUP2 MLOAD DUP5 MSTORE PUSH1 0x20 SWAP4 DUP5 ADD SWAP4 SWAP1 SWAP2 ADD SWAP1 PUSH1 0x1 ADD PUSH2 0x3D42 JUMP JUMPDEST PUSH2 0x140 DUP2 ADD PUSH2 0x3D70 DUP3 DUP8 PUSH2 0x3D3F JUMP JUMPDEST PUSH1 0x40 DUP1 DUP4 ADD DUP7 PUSH0 JUMPDEST PUSH1 0x2 DUP2 LT ISZERO PUSH2 0x3D9F JUMPI PUSH2 0x3D8C DUP4 DUP4 MLOAD PUSH2 0x3D3F JUMP JUMPDEST SWAP2 DUP4 ADD SWAP2 PUSH1 0x20 SWAP2 SWAP1 SWAP2 ADD SWAP1 PUSH1 0x1 ADD PUSH2 0x3D78 JUMP JUMPDEST POP POP POP POP PUSH2 0x3DB0 PUSH1 0xC0 DUP4 ADD DUP6 PUSH2 0x3D3F JUMP JUMPDEST PUSH2 0x2FBF PUSH2 0x100 DUP4 ADD DUP5 PUSH2 0x3D3F JUMP JUMPDEST PUSH0 PUSH1 0x20 DUP3 DUP5 SUB SLT ISZERO PUSH2 0x3DCE JUMPI PUSH0 DUP1 REVERT JUMPDEST DUP2 MLOAD PUSH2 0x1DC9 DUP2 PUSH2 0x397C JUMP JUMPDEST PUSH0 DUP4 MLOAD PUSH2 0x3DEA DUP2 DUP5 PUSH1 0x20 DUP9 ADD PUSH2 0x3383 JUMP JUMPDEST DUP4 MLOAD SWAP1 DUP4 ADD SWAP1 PUSH2 0x3DFE DUP2 DUP4 PUSH1 0x20 DUP9 ADD PUSH2 0x3383 JUMP JUMPDEST ADD SWAP5 SWAP4 POP POP POP POP JUMP JUMPDEST DUP2 DUP4 DUP3 CALLDATACOPY PUSH0 SWAP2 ADD SWAP1 DUP2 MSTORE SWAP2 SWAP1 POP JUMP JUMPDEST DUP2 DUP2 SUB DUP2 DUP2 GT ISZERO PUSH2 0x989 JUMPI PUSH2 0x989 PUSH2 0x3ADC JUMP JUMPDEST DUP2 MLOAD PUSH1 0x1 PUSH1 0x1 PUSH1 0x40 SHL SUB DUP2 GT ISZERO PUSH2 0x3E42 JUMPI PUSH2 0x3E42 PUSH2 0x3494 JUMP JUMPDEST PUSH2 0x3E56 DUP2 PUSH2 0x3E50 DUP5 SLOAD PUSH2 0x3A90 JUMP JUMPDEST DUP5 PUSH2 0x3B1B JUMP JUMPDEST PUSH1 0x20 DUP1 PUSH1 0x1F DUP4 GT PUSH1 0x1 DUP2 EQ PUSH2 0x3E84 JUMPI PUSH0 DUP5 ISZERO PUSH2 0x3E72 JUMPI POP DUP6 DUP4 ADD MLOAD JUMPDEST PUSH2 0x3E7C DUP6 DUP3 PUSH2 0x3B60 JUMP JUMPDEST DUP7 SSTORE POP PUSH2 0xE1E JUMP JUMPDEST PUSH0 DUP6 DUP2 MSTORE PUSH1 0x20 DUP2 KECCAK256 PUSH1 0x1F NOT DUP7 AND SWAP2 JUMPDEST DUP3 DUP2 LT ISZERO PUSH2 0x3EB2 JUMPI DUP9 DUP7 ADD MLOAD DUP3 SSTORE SWAP5 DUP5 ADD SWAP5 PUSH1 0x1 SWAP1 SWAP2 ADD SWAP1 DUP5 ADD PUSH2 0x3E93 JUMP JUMPDEST POP DUP6 DUP3 LT ISZERO PUSH2 0x3ECF JUMPI DUP8 DUP6 ADD MLOAD PUSH0 NOT PUSH1 0x3 DUP9 SWAP1 SHL PUSH1 0xF8 AND SHR NOT AND DUP2 SSTORE JUMPDEST POP POP POP POP POP PUSH1 0x1 SWAP1 DUP2 SHL ADD SWAP1 SSTORE POP JUMP JUMPDEST DUP2 DUP2 SUB PUSH2 0x3EEA JUMPI POP POP JUMP JUMPDEST PUSH2 0x3EF4 DUP3 SLOAD PUSH2 0x3A90 JUMP JUMPDEST PUSH1 0x1 PUSH1 0x1 PUSH1 0x40 SHL SUB DUP2 GT ISZERO PUSH2 0x3F0B JUMPI PUSH2 0x3F0B PUSH2 0x3494 JUMP JUMPDEST PUSH2 0x3F19 DUP2 PUSH2 0x3E50 DUP5 SLOAD PUSH2 0x3A90 JUMP JUMPDEST PUSH0 PUSH1 0x1F DUP3 GT PUSH1 0x1 DUP2 EQ PUSH2 0x3F45 JUMPI PUSH0 DUP4 ISZERO PUSH2 0x3F33 JUMPI POP DUP5 DUP3 ADD SLOAD JUMPDEST PUSH2 0x3F3D DUP5 DUP3 PUSH2 0x3B60 JUMP JUMPDEST DUP6 SSTORE POP PUSH2 0xBE2 JUMP JUMPDEST PUSH0 DUP6 DUP2 MSTORE PUSH1 0x20 SWAP1 KECCAK256 PUSH1 0x1F NOT DUP5 AND SWAP1 PUSH0 DUP7 DUP2 MSTORE PUSH1 0x20 SWAP1 KECCAK256 DUP5 JUMPDEST DUP4 DUP2 LT ISZERO PUSH2 0x3F7D JUMPI DUP3 DUP7 ADD SLOAD DUP3 SSTORE PUSH1 0x1 SWAP6 DUP7 ADD SWAP6 SWAP1 SWAP2 ADD SWAP1 PUSH1 0x20 ADD PUSH2 0x3F5D JUMP JUMPDEST POP DUP6 DUP4 LT ISZERO PUSH2 0x3ECF JUMPI SWAP4 ADD SLOAD PUSH0 NOT PUSH1 0xF8 PUSH1 0x3 DUP8 SWAP1 SHL AND SHR NOT AND SWAP1 SWAP3 SSTORE POP POP PUSH1 0x1 SWAP1 DUP2 SHL ADD SWAP1 SSTORE POP JUMP JUMPDEST PUSH0 PUSH1 0x20 DUP3 DUP5 SUB SLT ISZERO PUSH2 0x3FB6 JUMPI PUSH0 DUP1 REVERT JUMPDEST POP MLOAD SWAP2 SWAP1 POP JUMP JUMPDEST PUSH1 0x20 DUP1 DUP3 MSTORE PUSH1 0x2B SWAP1 DUP3 ADD MSTORE PUSH32 0x496E697469616C697A61626C653A20636F6E7472616374206973206E6F742069 PUSH1 0x40 DUP3 ADD MSTORE PUSH11 0x6E697469616C697A696E67 PUSH1 0xA8 SHL PUSH1 0x60 DUP3 ADD MSTORE PUSH1 0x80 ADD SWAP1 JUMP JUMPDEST PUSH1 0x20 DUP1 DUP3 MSTORE PUSH1 0x32 SWAP1 DUP3 ADD MSTORE PUSH32 0x4552433732313A207472616E7366657220746F206E6F6E204552433732315265 PUSH1 0x40 DUP3 ADD MSTORE PUSH18 0x31B2B4BB32B91034B6B83632B6B2B73A32B9 PUSH1 0x71 SHL PUSH1 0x60 DUP3 ADD MSTORE PUSH1 0x80 ADD SWAP1 JUMP JUMPDEST PUSH4 0x4E487B71 PUSH1 0xE0 SHL PUSH0 MSTORE PUSH1 0x12 PUSH1 0x4 MSTORE PUSH1 0x24 PUSH0 REVERT JUMPDEST PUSH0 DUP3 PUSH2 0x407C JUMPI PUSH2 0x407C PUSH2 0x405A JUMP JUMPDEST POP DIV SWAP1 JUMP JUMPDEST PUSH0 DUP3 PUSH2 0x408F JUMPI PUSH2 0x408F PUSH2 0x405A JUMP JUMPDEST POP MOD SWAP1 JUMP JUMPDEST PUSH32 0x416363657373436F6E74726F6C3A206163636F756E7420000000000000000000 DUP2 MSTORE PUSH0 DUP4 MLOAD PUSH2 0x40CB DUP2 PUSH1 0x17 DUP6 ADD PUSH1 0x20 DUP9 ADD PUSH2 0x3383 JUMP JUMPDEST PUSH17 0x1034B99036B4B9B9B4B733903937B6329 PUSH1 0x7D SHL PUSH1 0x17 SWAP2 DUP5 ADD SWAP2 DUP3 ADD MSTORE DUP4 MLOAD PUSH2 0x40FC DUP2 PUSH1 0x28 DUP5 ADD PUSH1 0x20 DUP9 ADD PUSH2 0x3383 JUMP JUMPDEST ADD PUSH1 0x28 ADD SWAP5 SWAP4 POP POP POP POP JUMP JUMPDEST PUSH1 0x1 PUSH1 0x1 PUSH1 0xA0 SHL SUB DUP6 DUP2 AND DUP3 MSTORE DUP5 AND PUSH1 0x20 DUP3 ADD MSTORE PUSH1 0x40 DUP2 ADD DUP4 SWAP1 MSTORE PUSH1 0x80 PUSH1 0x60 DUP3 ADD DUP2 SWAP1 MSTORE PUSH0 SWAP1 PUSH2 0x386C SWAP1 DUP4 ADD DUP5 PUSH2 0x33A5 JUMP JUMPDEST PUSH0 PUSH1 0x20 DUP3 DUP5 SUB SLT ISZERO PUSH2 0x414A JUMPI PUSH0 DUP1 REVERT JUMPDEST DUP2 MLOAD PUSH2 0x1DC9 DUP2 PUSH2 0x3353 JUMP JUMPDEST DUP1 DUP3 MUL DUP2 ISZERO DUP3 DUP3 DIV DUP5 EQ OR PUSH2 0x989 JUMPI PUSH2 0x989 PUSH2 0x3ADC JUMP JUMPDEST PUSH4 0x4E487B71 PUSH1 0xE0 SHL PUSH0 MSTORE PUSH1 0x31 PUSH1 0x4 MSTORE PUSH1 0x24 PUSH0 REVERT INVALID CALLDATASIZE ADDMOD SWAP5 LOG1 EXTCODESIZE LOG1 LOG3 0x21 MOD PUSH8 0xC828492DB98DCA3E KECCAK256 PUSH23 0xCC3735A920A3CA505D382BBC416464726573733A206C6F PUSH24 0x2D6C6576656C2064656C65676174652063616C6C20666169 PUSH13 0x6564A2646970667358221220BD CODECOPY SMOD 0x2C PUSH28 0x900C562E203E245DB1882A2DF0DD31FF699F3E889C1F37D4094AF564 PUSH20 0x6F6C634300081500330000000000000000000000 "
		},
		"gasEstimates": {
			"creation": {
				"codeDepositCost": "3378600",
				"executionCost": "infinite",
				"totalCost": "infinite"
			},
			"external": {
				"DEFAULT_ADMIN_ROLE()": "227",
				"addType(string)": "infinite",
				"allowedMinting(address)": "2552",
				"approve(address,uint256)": "infinite",
				"assignHash(uint256,bytes)": "infinite",
				"balanceOf(address)": "2664",
				"baseURI()": "infinite",
				"burn(uint256)": "infinite",
				"contributorHash()": "infinite",
				"getApproved(uint256)": "4832",
				"getRoleAdmin(bytes32)": "2520",
				"grantRemixersMinting(address[],uint256)": "infinite",
				"grantRole(bytes32,address)": "infinite",
				"hasRole(bytes32,address)": "2751",
				"initialize()": "infinite",
				"isApprovedForAll(address,address)": "infinite",
				"name()": "infinite",
				"nullifiers(bytes)": "infinite",
				"ownerOf(uint256)": "2669",
				"proxiableUUID()": "infinite",
				"publicMint(address)": "infinite",
				"publishChallenge((uint256[2],uint256[2][2],uint256[2]),uint256[2])": "infinite",
				"publishers(bytes)": "infinite",
				"publishersAmount()": "2439",
				"removeType(string)": "infinite",
				"renounceRole(bytes32,address)": "29109",
				"revokeRole(bytes32,address)": "infinite",
				"safeMint(address,string,string,bytes,uint256)": "infinite",
				"safeTransferFrom(address,address,uint256)": "infinite",
				"safeTransferFrom(address,address,uint256,bytes)": "infinite",
				"setApprovalForAll(address,bool)": "26776",
				"setBaseURI(string)": "infinite",
				"setChallenge(address,uint256[1],uint256,string,string,bytes)": "infinite",
				"setContributorHash(bytes)": "infinite",
				"supportsInterface(bytes4)": "infinite",
				"symbol()": "infinite",
				"tokenByIndex(uint256)": "6788",
				"tokenOfOwnerByIndex(address,uint256)": "4959",
				"tokenURI(uint256)": "infinite",
				"tokensData(uint256)": "infinite",
				"totalSupply()": "2349",
				"transferFrom(address,address,uint256)": "infinite",
				"upgradeTo(address)": "infinite",
				"upgradeToAndCall(address,bytes)": "infinite",
				"version()": "infinite",
				"zkChallenge(uint256)": "2494",
				"zkChallengeHash()": "infinite",
				"zkChallengeNonce()": "2395",
				"zkChallengePayload()": "infinite",
				"zkChallengeTokenType()": "infinite",
				"zkMax()": "2373",
				"zkVerifier()": "2447"
			},
			"internal": {
				"_authorizeUpgrade(address)": "infinite",
				"_baseURI()": "infinite",
				"_beforeTokenTransfer(address,address,uint256)": "infinite",
				"mintBadge(address,string memory,string memory,bytes memory,uint256)": "infinite",
				"mintRemixer(address)": "infinite"
			}
		},
		"methodIdentifiers": {
			"DEFAULT_ADMIN_ROLE()": "a217fddf",
			"addType(string)": "e7f08e69",
			"allowedMinting(address)": "005c154e",
			"approve(address,uint256)": "095ea7b3",
			"assignHash(uint256,bytes)": "c0cecb9a",
			"balanceOf(address)": "70a08231",
			"baseURI()": "6c0360eb",
			"burn(uint256)": "42966c68",
			"contributorHash()": "6344cd20",
			"getApproved(uint256)": "081812fc",
			"getRoleAdmin(bytes32)": "248a9ca3",
			"grantRemixersMinting(address[],uint256)": "1693d2eb",
			"grantRole(bytes32,address)": "2f2ff15d",
			"hasRole(bytes32,address)": "91d14854",
			"initialize()": "8129fc1c",
			"isApprovedForAll(address,address)": "e985e9c5",
			"name()": "06fdde03",
			"nullifiers(bytes)": "1823e26a",
			"ownerOf(uint256)": "6352211e",
			"proxiableUUID()": "52d1902d",
			"publicMint(address)": "32a93a3a",
			"publishChallenge((uint256[2],uint256[2][2],uint256[2]),uint256[2])": "677a9c30",
			"publishers(bytes)": "b63cb3b9",
			"publishersAmount()": "42778642",
			"removeType(string)": "e15e2fd4",
			"renounceRole(bytes32,address)": "36568abe",
			"revokeRole(bytes32,address)": "d547741f",
			"safeMint(address,string,string,bytes,uint256)": "35b1a7ea",
			"safeTransferFrom(address,address,uint256)": "42842e0e",
			"safeTransferFrom(address,address,uint256,bytes)": "b88d4fde",
			"setApprovalForAll(address,bool)": "a22cb465",
			"setBaseURI(string)": "55f804b3",
			"setChallenge(address,uint256[1],uint256,string,string,bytes)": "2bd07d5f",
			"setContributorHash(bytes)": "1aa2c2f8",
			"supportsInterface(bytes4)": "01ffc9a7",
			"symbol()": "95d89b41",
			"tokenByIndex(uint256)": "4f6ccce7",
			"tokenOfOwnerByIndex(address,uint256)": "2f745c59",
			"tokenURI(uint256)": "c87b56dd",
			"tokensData(uint256)": "599ed3ff",
			"totalSupply()": "18160ddd",
			"transferFrom(address,address,uint256)": "23b872dd",
			"upgradeTo(address)": "3659cfe6",
			"upgradeToAndCall(address,bytes)": "4f1ef286",
			"version()": "54fd4d50",
			"zkChallenge(uint256)": "d674cc2b",
			"zkChallengeHash()": "43d3cf61",
			"zkChallengeNonce()": "7909eb73",
			"zkChallengePayload()": "f1fe6911",
			"zkChallengeTokenType()": "9cbff422",
			"zkMax()": "5a8afbfc",
			"zkVerifier()": "d6df096d"
		}
	},
	"abi": [
		{
			"inputs": [],
			"stateMutability": "nonpayable",
			"type": "constructor"
		},
		{
			"anonymous": false,
			"inputs": [
				{
					"indexed": false,
					"internalType": "address",
					"name": "previousAdmin",
					"type": "address"
				},
				{
					"indexed": false,
					"internalType": "address",
					"name": "newAdmin",
					"type": "address"
				}
			],
			"name": "AdminChanged",
			"type": "event"
		},
		{
			"anonymous": false,
			"inputs": [
				{
					"indexed": true,
					"internalType": "address",
					"name": "owner",
					"type": "address"
				},
				{
					"indexed": true,
					"internalType": "address",
					"name": "approved",
					"type": "address"
				},
				{
					"indexed": true,
					"internalType": "uint256",
					"name": "tokenId",
					"type": "uint256"
				}
			],
			"name": "Approval",
			"type": "event"
		},
		{
			"anonymous": false,
			"inputs": [
				{
					"indexed": true,
					"internalType": "address",
					"name": "owner",
					"type": "address"
				},
				{
					"indexed": true,
					"internalType": "address",
					"name": "operator",
					"type": "address"
				},
				{
					"indexed": false,
					"internalType": "bool",
					"name": "approved",
					"type": "bool"
				}
			],
			"name": "ApprovalForAll",
			"type": "event"
		},
		{
			"anonymous": false,
			"inputs": [
				{
					"indexed": true,
					"internalType": "address",
					"name": "beacon",
					"type": "address"
				}
			],
			"name": "BeaconUpgraded",
			"type": "event"
		},
		{
			"anonymous": false,
			"inputs": [
				{
					"indexed": false,
					"internalType": "uint8",
					"name": "version",
					"type": "uint8"
				}
			],
			"name": "Initialized",
			"type": "event"
		},
		{
			"anonymous": false,
			"inputs": [
				{
					"indexed": true,
					"internalType": "bytes32",
					"name": "role",
					"type": "bytes32"
				},
				{
					"indexed": true,
					"internalType": "bytes32",
					"name": "previousAdminRole",
					"type": "bytes32"
				},
				{
					"indexed": true,
					"internalType": "bytes32",
					"name": "newAdminRole",
					"type": "bytes32"
				}
			],
			"name": "RoleAdminChanged",
			"type": "event"
		},
		{
			"anonymous": false,
			"inputs": [
				{
					"indexed": true,
					"internalType": "bytes32",
					"name": "role",
					"type": "bytes32"
				},
				{
					"indexed": true,
					"internalType": "address",
					"name": "account",
					"type": "address"
				},
				{
					"indexed": true,
					"internalType": "address",
					"name": "sender",
					"type": "address"
				}
			],
			"name": "RoleGranted",
			"type": "event"
		},
		{
			"anonymous": false,
			"inputs": [
				{
					"indexed": true,
					"internalType": "bytes32",
					"name": "role",
					"type": "bytes32"
				},
				{
					"indexed": true,
					"internalType": "address",
					"name": "account",
					"type": "address"
				},
				{
					"indexed": true,
					"internalType": "address",
					"name": "sender",
					"type": "address"
				}
			],
			"name": "RoleRevoked",
			"type": "event"
		},
		{
			"anonymous": false,
			"inputs": [
				{
					"indexed": true,
					"internalType": "address",
					"name": "from",
					"type": "address"
				},
				{
					"indexed": true,
					"internalType": "address",
					"name": "to",
					"type": "address"
				},
				{
					"indexed": true,
					"internalType": "uint256",
					"name": "tokenId",
					"type": "uint256"
				}
			],
			"name": "Transfer",
			"type": "event"
		},
		{
			"anonymous": false,
			"inputs": [
				{
					"indexed": true,
					"internalType": "address",
					"name": "implementation",
					"type": "address"
				}
			],
			"name": "Upgraded",
			"type": "event"
		},
		{
			"inputs": [],
			"name": "DEFAULT_ADMIN_ROLE",
			"outputs": [
				{
					"internalType": "bytes32",
					"name": "",
					"type": "bytes32"
				}
			],
			"stateMutability": "view",
			"type": "function"
		},
		{
			"inputs": [
				{
					"internalType": "string",
					"name": "tokenType",
					"type": "string"
				}
			],
			"name": "addType",
			"outputs": [],
			"stateMutability": "nonpayable",
			"type": "function"
		},
		{
			"inputs": [
				{
					"internalType": "address",
					"name": "",
					"type": "address"
				}
			],
			"name": "allowedMinting",
			"outputs": [
				{
					"internalType": "uint256",
					"name": "",
					"type": "uint256"
				}
			],
			"stateMutability": "view",
			"type": "function"
		},
		{
			"inputs": [
				{
					"internalType": "address",
					"name": "to",
					"type": "address"
				},
				{
					"internalType": "uint256",
					"name": "tokenId",
					"type": "uint256"
				}
			],
			"name": "approve",
			"outputs": [],
			"stateMutability": "nonpayable",
			"type": "function"
		},
		{
			"inputs": [
				{
					"internalType": "uint256",
					"name": "tokenId",
					"type": "uint256"
				},
				{
					"internalType": "bytes",
					"name": "hash",
					"type": "bytes"
				}
			],
			"name": "assignHash",
			"outputs": [],
			"stateMutability": "nonpayable",
			"type": "function"
		},
		{
			"inputs": [
				{
					"internalType": "address",
					"name": "owner",
					"type": "address"
				}
			],
			"name": "balanceOf",
			"outputs": [
				{
					"internalType": "uint256",
					"name": "",
					"type": "uint256"
				}
			],
			"stateMutability": "view",
			"type": "function"
		},
		{
			"inputs": [],
			"name": "baseURI",
			"outputs": [
				{
					"internalType": "string",
					"name": "",
					"type": "string"
				}
			],
			"stateMutability": "view",
			"type": "function"
		},
		{
			"inputs": [
				{
					"internalType": "uint256",
					"name": "tokenId",
					"type": "uint256"
				}
			],
			"name": "burn",
			"outputs": [],
			"stateMutability": "nonpayable",
			"type": "function"
		},
		{
			"inputs": [],
			"name": "contributorHash",
			"outputs": [
				{
					"internalType": "bytes",
					"name": "",
					"type": "bytes"
				}
			],
			"stateMutability": "view",
			"type": "function"
		},
		{
			"inputs": [
				{
					"internalType": "uint256",
					"name": "tokenId",
					"type": "uint256"
				}
			],
			"name": "getApproved",
			"outputs": [
				{
					"internalType": "address",
					"name": "",
					"type": "address"
				}
			],
			"stateMutability": "view",
			"type": "function"
		},
		{
			"inputs": [
				{
					"internalType": "bytes32",
					"name": "role",
					"type": "bytes32"
				}
			],
			"name": "getRoleAdmin",
			"outputs": [
				{
					"internalType": "bytes32",
					"name": "",
					"type": "bytes32"
				}
			],
			"stateMutability": "view",
			"type": "function"
		},
		{
			"inputs": [
				{
					"internalType": "address[]",
					"name": "remixers",
					"type": "address[]"
				},
				{
					"internalType": "uint256",
					"name": "amount",
					"type": "uint256"
				}
			],
			"name": "grantRemixersMinting",
			"outputs": [],
			"stateMutability": "nonpayable",
			"type": "function"
		},
		{
			"inputs": [
				{
					"internalType": "bytes32",
					"name": "role",
					"type": "bytes32"
				},
				{
					"internalType": "address",
					"name": "account",
					"type": "address"
				}
			],
			"name": "grantRole",
			"outputs": [],
			"stateMutability": "nonpayable",
			"type": "function"
		},
		{
			"inputs": [
				{
					"internalType": "bytes32",
					"name": "role",
					"type": "bytes32"
				},
				{
					"internalType": "address",
					"name": "account",
					"type": "address"
				}
			],
			"name": "hasRole",
			"outputs": [
				{
					"internalType": "bool",
					"name": "",
					"type": "bool"
				}
			],
			"stateMutability": "view",
			"type": "function"
		},
		{
			"inputs": [],
			"name": "initialize",
			"outputs": [],
			"stateMutability": "nonpayable",
			"type": "function"
		},
		{
			"inputs": [
				{
					"internalType": "address",
					"name": "owner",
					"type": "address"
				},
				{
					"internalType": "address",
					"name": "operator",
					"type": "address"
				}
			],
			"name": "isApprovedForAll",
			"outputs": [
				{
					"internalType": "bool",
					"name": "",
					"type": "bool"
				}
			],
			"stateMutability": "view",
			"type": "function"
		},
		{
			"inputs": [],
			"name": "name",
			"outputs": [
				{
					"internalType": "string",
					"name": "",
					"type": "string"
				}
			],
			"stateMutability": "view",
			"type": "function"
		},
		{
			"inputs": [
				{
					"internalType": "bytes",
					"name": "",
					"type": "bytes"
				}
			],
			"name": "nullifiers",
			"outputs": [
				{
					"internalType": "uint256",
					"name": "",
					"type": "uint256"
				}
			],
			"stateMutability": "view",
			"type": "function"
		},
		{
			"inputs": [
				{
					"internalType": "uint256",
					"name": "tokenId",
					"type": "uint256"
				}
			],
			"name": "ownerOf",
			"outputs": [
				{
					"internalType": "address",
					"name": "",
					"type": "address"
				}
			],
			"stateMutability": "view",
			"type": "function"
		},
		{
			"inputs": [],
			"name": "proxiableUUID",
			"outputs": [
				{
					"internalType": "bytes32",
					"name": "",
					"type": "bytes32"
				}
			],
			"stateMutability": "view",
			"type": "function"
		},
		{
			"inputs": [
				{
					"internalType": "address",
					"name": "to",
					"type": "address"
				}
			],
			"name": "publicMint",
			"outputs": [],
			"stateMutability": "nonpayable",
			"type": "function"
		},
		{
			"inputs": [
				{
					"components": [
						{
							"internalType": "uint256[2]",
							"name": "a",
							"type": "uint256[2]"
						},
						{
							"internalType": "uint256[2][2]",
							"name": "b",
							"type": "uint256[2][2]"
						},
						{
							"internalType": "uint256[2]",
							"name": "c",
							"type": "uint256[2]"
						}
					],
					"internalType": "struct ZKVerifier.Proof",
					"name": "proof",
					"type": "tuple"
				},
				{
					"internalType": "uint256[2]",
					"name": "input",
					"type": "uint256[2]"
				}
			],
			"name": "publishChallenge",
			"outputs": [],
			"stateMutability": "nonpayable",
			"type": "function"
		},
		{
			"inputs": [
				{
					"internalType": "bytes",
					"name": "",
					"type": "bytes"
				}
			],
			"name": "publishers",
			"outputs": [
				{
					"internalType": "uint256",
					"name": "",
					"type": "uint256"
				}
			],
			"stateMutability": "view",
			"type": "function"
		},
		{
			"inputs": [],
			"name": "publishersAmount",
			"outputs": [
				{
					"internalType": "uint256",
					"name": "",
					"type": "uint256"
				}
			],
			"stateMutability": "view",
			"type": "function"
		},
		{
			"inputs": [
				{
					"internalType": "string",
					"name": "tokenType",
					"type": "string"
				}
			],
			"name": "removeType",
			"outputs": [],
			"stateMutability": "nonpayable",
			"type": "function"
		},
		{
			"inputs": [
				{
					"internalType": "bytes32",
					"name": "role",
					"type": "bytes32"
				},
				{
					"internalType": "address",
					"name": "account",
					"type": "address"
				}
			],
			"name": "renounceRole",
			"outputs": [],
			"stateMutability": "nonpayable",
			"type": "function"
		},
		{
			"inputs": [
				{
					"internalType": "bytes32",
					"name": "role",
					"type": "bytes32"
				},
				{
					"internalType": "address",
					"name": "account",
					"type": "address"
				}
			],
			"name": "revokeRole",
			"outputs": [],
			"stateMutability": "nonpayable",
			"type": "function"
		},
		{
			"inputs": [
				{
					"internalType": "address",
					"name": "to",
					"type": "address"
				},
				{
					"internalType": "string",
					"name": "tokenType",
					"type": "string"
				},
				{
					"internalType": "string",
					"name": "payload",
					"type": "string"
				},
				{
					"internalType": "bytes",
					"name": "hash",
					"type": "bytes"
				},
				{
					"internalType": "uint256",
					"name": "mintGrant",
					"type": "uint256"
				}
			],
			"name": "safeMint",
			"outputs": [],
			"stateMutability": "nonpayable",
			"type": "function"
		},
		{
			"inputs": [
				{
					"internalType": "address",
					"name": "from",
					"type": "address"
				},
				{
					"internalType": "address",
					"name": "to",
					"type": "address"
				},
				{
					"internalType": "uint256",
					"name": "tokenId",
					"type": "uint256"
				}
			],
			"name": "safeTransferFrom",
			"outputs": [],
			"stateMutability": "nonpayable",
			"type": "function"
		},
		{
			"inputs": [
				{
					"internalType": "address",
					"name": "from",
					"type": "address"
				},
				{
					"internalType": "address",
					"name": "to",
					"type": "address"
				},
				{
					"internalType": "uint256",
					"name": "tokenId",
					"type": "uint256"
				},
				{
					"internalType": "bytes",
					"name": "data",
					"type": "bytes"
				}
			],
			"name": "safeTransferFrom",
			"outputs": [],
			"stateMutability": "nonpayable",
			"type": "function"
		},
		{
			"inputs": [
				{
					"internalType": "address",
					"name": "operator",
					"type": "address"
				},
				{
					"internalType": "bool",
					"name": "approved",
					"type": "bool"
				}
			],
			"name": "setApprovalForAll",
			"outputs": [],
			"stateMutability": "nonpayable",
			"type": "function"
		},
		{
			"inputs": [
				{
					"internalType": "string",
					"name": "_uri",
					"type": "string"
				}
			],
			"name": "setBaseURI",
			"outputs": [],
			"stateMutability": "nonpayable",
			"type": "function"
		},
		{
			"inputs": [
				{
					"internalType": "address",
					"name": "verifier",
					"type": "address"
				},
				{
					"internalType": "uint256[1]",
					"name": "challenge",
					"type": "uint256[1]"
				},
				{
					"internalType": "uint256",
					"name": "max",
					"type": "uint256"
				},
				{
					"internalType": "string",
					"name": "tokenType",
					"type": "string"
				},
				{
					"internalType": "string",
					"name": "payload",
					"type": "string"
				},
				{
					"internalType": "bytes",
					"name": "hash",
					"type": "bytes"
				}
			],
			"name": "setChallenge",
			"outputs": [],
			"stateMutability": "nonpayable",
			"type": "function"
		},
		{
			"inputs": [
				{
					"internalType": "bytes",
					"name": "hash",
					"type": "bytes"
				}
			],
			"name": "setContributorHash",
			"outputs": [],
			"stateMutability": "nonpayable",
			"type": "function"
		},
		{
			"inputs": [
				{
					"internalType": "bytes4",
					"name": "interfaceId",
					"type": "bytes4"
				}
			],
			"name": "supportsInterface",
			"outputs": [
				{
					"internalType": "bool",
					"name": "",
					"type": "bool"
				}
			],
			"stateMutability": "view",
			"type": "function"
		},
		{
			"inputs": [],
			"name": "symbol",
			"outputs": [
				{
					"internalType": "string",
					"name": "",
					"type": "string"
				}
			],
			"stateMutability": "view",
			"type": "function"
		},
		{
			"inputs": [
				{
					"internalType": "uint256",
					"name": "index",
					"type": "uint256"
				}
			],
			"name": "tokenByIndex",
			"outputs": [
				{
					"internalType": "uint256",
					"name": "",
					"type": "uint256"
				}
			],
			"stateMutability": "view",
			"type": "function"
		},
		{
			"inputs": [
				{
					"internalType": "address",
					"name": "owner",
					"type": "address"
				},
				{
					"internalType": "uint256",
					"name": "index",
					"type": "uint256"
				}
			],
			"name": "tokenOfOwnerByIndex",
			"outputs": [
				{
					"internalType": "uint256",
					"name": "",
					"type": "uint256"
				}
			],
			"stateMutability": "view",
			"type": "function"
		},
		{
			"inputs": [
				{
					"internalType": "uint256",
					"name": "tokenId",
					"type": "uint256"
				}
			],
			"name": "tokenURI",
			"outputs": [
				{
					"internalType": "string",
					"name": "",
					"type": "string"
				}
			],
			"stateMutability": "view",
			"type": "function"
		},
		{
			"inputs": [
				{
					"internalType": "uint256",
					"name": "",
					"type": "uint256"
				}
			],
			"name": "tokensData",
			"outputs": [
				{
					"internalType": "string",
					"name": "payload",
					"type": "string"
				},
				{
					"internalType": "string",
					"name": "tokenType",
					"type": "string"
				},
				{
					"internalType": "bytes",
					"name": "hash",
					"type": "bytes"
				}
			],
			"stateMutability": "view",
			"type": "function"
		},
		{
			"inputs": [],
			"name": "totalSupply",
			"outputs": [
				{
					"internalType": "uint256",
					"name": "",
					"type": "uint256"
				}
			],
			"stateMutability": "view",
			"type": "function"
		},
		{
			"inputs": [
				{
					"internalType": "address",
					"name": "from",
					"type": "address"
				},
				{
					"internalType": "address",
					"name": "to",
					"type": "address"
				},
				{
					"internalType": "uint256",
					"name": "tokenId",
					"type": "uint256"
				}
			],
			"name": "transferFrom",
			"outputs": [],
			"stateMutability": "nonpayable",
			"type": "function"
		},
		{
			"inputs": [
				{
					"internalType": "address",
					"name": "newImplementation",
					"type": "address"
				}
			],
			"name": "upgradeTo",
			"outputs": [],
			"stateMutability": "nonpayable",
			"type": "function"
		},
		{
			"inputs": [
				{
					"internalType": "address",
					"name": "newImplementation",
					"type": "address"
				},
				{
					"internalType": "bytes",
					"name": "data",
					"type": "bytes"
				}
			],
			"name": "upgradeToAndCall",
			"outputs": [],
			"stateMutability": "payable",
			"type": "function"
		},
		{
			"inputs": [],
			"name": "version",
			"outputs": [
				{
					"internalType": "string",
					"name": "",
					"type": "string"
				}
			],
			"stateMutability": "pure",
			"type": "function"
		},
		{
			"inputs": [
				{
					"internalType": "uint256",
					"name": "",
					"type": "uint256"
				}
			],
			"name": "zkChallenge",
			"outputs": [
				{
					"internalType": "uint256",
					"name": "",
					"type": "uint256"
				}
			],
			"stateMutability": "view",
			"type": "function"
		},
		{
			"inputs": [],
			"name": "zkChallengeHash",
			"outputs": [
				{
					"internalType": "bytes",
					"name": "",
					"type": "bytes"
				}
			],
			"stateMutability": "view",
			"type": "function"
		},
		{
			"inputs": [],
			"name": "zkChallengeNonce",
			"outputs": [
				{
					"internalType": "uint256",
					"name": "",
					"type": "uint256"
				}
			],
			"stateMutability": "view",
			"type": "function"
		},
		{
			"inputs": [],
			"name": "zkChallengePayload",
			"outputs": [
				{
					"internalType": "string",
					"name": "",
					"type": "string"
				}
			],
			"stateMutability": "view",
			"type": "function"
		},
		{
			"inputs": [],
			"name": "zkChallengeTokenType",
			"outputs": [
				{
					"internalType": "string",
					"name": "",
					"type": "string"
				}
			],
			"stateMutability": "view",
			"type": "function"
		},
		{
			"inputs": [],
			"name": "zkMax",
			"outputs": [
				{
					"internalType": "uint256",
					"name": "",
					"type": "uint256"
				}
			],
			"stateMutability": "view",
			"type": "function"
		},
		{
			"inputs": [],
			"name": "zkVerifier",
			"outputs": [
				{
					"internalType": "address",
					"name": "",
					"type": "address"
				}
			],
			"stateMutability": "view",
			"type": "function"
		}
	]
}