{
	"data": {
		"bytecode": {
			"linkReferences": {},
			"object": "60a06040523073ffffffffffffffffffffffffffffffffffffffff1660809073ffffffffffffffffffffffffffffffffffffffff16815250348015610042575f80fd5b50608051617db6620000785f395f8181611465015281816114f3015281816116fa0152818161178801526118f90152617db65ff3fe60806040526004361061034e575f3560e01c806354fd4d50116101c55780639cbff422116100f6578063d547741f11610094578063e15e2fd41161006e578063e15e2fd414610c76578063e7f08e6914610c9e578063e985e9c514610cc6578063f1fe691114610d025761034e565b8063d547741f14610be8578063d674cc2b14610c10578063d6df096d14610c4c5761034e565b8063b63cb3b9116100d0578063b63cb3b914610b20578063b88d4fde14610b5c578063c0cecb9a14610b84578063c87b56dd14610bac5761034e565b80639cbff42214610aa4578063a217fddf14610ace578063a22cb46514610af85761034e565b806370a0823111610163578063865d79b31161013d578063865d79b3146109ee5780638a14577714610a1657806391d1485414610a3e57806395d89b4114610a7a5761034e565b806370a08231146109725780637909eb73146109ae5780638129fc1c146109d85761034e565b80635a8afbfc1161019f5780635a8afbfc146108b85780636344cd20146108e25780636352211e1461090c5780636c0360eb146109485761034e565b806354fd4d501461082857806355f804b314610852578063599ed3ff1461087a5761034e565b80632f2ff15d1161029f57806342842e0e1161023d5780634f1ef286116102175780634f1ef2861461077e5780634f6ccce71461079a5780635117a840146107d657806352d1902d146107fe5761034e565b806342842e0e1461070457806342966c681461072c57806343d3cf61146107545761034e565b806335b1a7ea1161027957806335b1a7ea1461066257806336568abe1461068a5780633659cfe6146106b257806342778642146106da5761034e565b80632f2ff15d146105d65780632f745c59146105fe57806332a93a3a1461063a5761034e565b806318160ddd1161030c57806323b872dd116102e657806323b872dd1461050e578063248a9ca3146105365780632bd07d5f146105725780632cd92f971461059a5761034e565b806318160ddd146104805780631823e26a146104aa5780631aa2c2f8146104e65761034e565b80625c154e1461035257806301ffc9a71461038e57806306fdde03146103ca578063081812fc146103f4578063095ea7b3146104305780631693d2eb14610458575b5f80fd5b34801561035d575f80fd5b5061037860048036038101906103739190614dcc565b610d2c565b6040516103859190614e0f565b60405180910390f35b348015610399575f80fd5b506103b460048036038101906103af9190614e7d565b610d42565b6040516103c19190614ec2565b60405180910390f35b3480156103d5575f80fd5b506103de610d53565b6040516103eb9190614f65565b60405180910390f35b3480156103ff575f80fd5b5061041a60048036038101906104159190614faf565b610de3565b6040516104279190614fe9565b60405180910390f35b34801561043b575f80fd5b5061045660048036038101906104519190615002565b610e25565b005b348015610463575f80fd5b5061047e600480360381019061047991906150a1565b610f3b565b005b34801561048b575f80fd5b50610494611057565b6040516104a19190614e0f565b60405180910390f35b3480156104b5575f80fd5b506104d060048036038101906104cb9190615226565b611063565b6040516104dd9190614e0f565b60405180910390f35b3480156104f1575f80fd5b5061050c600480360381019061050791906152c2565b611091565b005b348015610519575f80fd5b50610534600480360381019061052f919061530d565b6110b5565b005b348015610541575f80fd5b5061055c60048036038101906105579190615390565b611115565b60405161056991906153ca565b60405180910390f35b34801561057d575f80fd5b5061059860048036038101906105939190615459565b611132565b005b3480156105a5575f80fd5b506105c060048036038101906105bb9190614dcc565b611209565b6040516105cd9190614e0f565b60405180910390f35b3480156105e1575f80fd5b506105fc60048036038101906105f79190615542565b61121f565b005b348015610609575f80fd5b50610624600480360381019061061f9190615002565b611240565b6040516106319190614e0f565b60405180910390f35b348015610645575f80fd5b50610660600480360381019061065b9190614dcc565b6112e0565b005b34801561066d575f80fd5b506106886004803603810190610683919061561e565b6113bf565b005b348015610695575f80fd5b506106b060048036038101906106ab9190615542565b6113e0565b005b3480156106bd575f80fd5b506106d860048036038101906106d39190614dcc565b611463565b005b3480156106e5575f80fd5b506106ee6115e9565b6040516106fb9190614e0f565b60405180910390f35b34801561070f575f80fd5b5061072a6004803603810190610725919061530d565b6115f0565b005b348015610737575f80fd5b50610752600480360381019061074d9190614faf565b61160f565b005b34801561075f575f80fd5b5061076861166b565b604051610775919061573b565b60405180910390f35b6107986004803603810190610793919061575b565b6116f8565b005b3480156107a5575f80fd5b506107c060048036038101906107bb9190614faf565b611834565b6040516107cd9190614e0f565b60405180910390f35b3480156107e1575f80fd5b506107fc60048036038101906107f79190614dcc565b6118a2565b005b348015610809575f80fd5b506108126118f6565b60405161081f91906153ca565b60405180910390f35b348015610833575f80fd5b5061083c6119ad565b6040516108499190614f65565b60405180910390f35b34801561085d575f80fd5b50610878600480360381019061087391906157b5565b6119ea565b005b348015610885575f80fd5b506108a0600480360381019061089b9190614faf565b611a0e565b6040516108af93929190615800565b60405180910390f35b3480156108c3575f80fd5b506108cc611bc7565b6040516108d99190614e0f565b60405180910390f35b3480156108ed575f80fd5b506108f6611bce565b604051610903919061573b565b60405180910390f35b348015610917575f80fd5b50610932600480360381019061092d9190614faf565b611c5b565b60405161093f9190614fe9565b60405180910390f35b348015610953575f80fd5b5061095c611d07565b6040516109699190614f65565b60405180910390f35b34801561097d575f80fd5b5061099860048036038101906109939190614dcc565b611d94565b6040516109a59190614e0f565b60405180910390f35b3480156109b9575f80fd5b506109c2611e48565b6040516109cf9190614e0f565b60405180910390f35b3480156109e3575f80fd5b506109ec611e4f565b005b3480156109f9575f80fd5b50610a146004803603810190610a0f9190615aba565b61201f565b005b348015610a21575f80fd5b50610a3c6004803603810190610a379190614dcc565b612668565b005b348015610a49575f80fd5b50610a646004803603810190610a5f9190615542565b6126b9565b604051610a719190614ec2565b60405180910390f35b348015610a85575f80fd5b50610a8e61271d565b604051610a9b9190614f65565b60405180910390f35b348015610aaf575f80fd5b50610ab86127ad565b604051610ac59190614f65565b60405180910390f35b348015610ad9575f80fd5b50610ae261283a565b604051610aef91906153ca565b60405180910390f35b348015610b03575f80fd5b50610b1e6004803603810190610b199190615b24565b612840565b005b348015610b2b575f80fd5b50610b466004803603810190610b419190615226565b612856565b604051610b539190614e0f565b60405180910390f35b348015610b67575f80fd5b50610b826004803603810190610b7d9190615b62565b612884565b005b348015610b8f575f80fd5b50610baa6004803603810190610ba59190615be2565b6128e6565b005b348015610bb7575f80fd5b50610bd26004803603810190610bcd9190614faf565b612989565b604051610bdf9190614f65565b60405180910390f35b348015610bf3575f80fd5b50610c0e6004803603810190610c099190615542565b6129ee565b005b348015610c1b575f80fd5b50610c366004803603810190610c319190614faf565b612a0f565b604051610c439190614e0f565b60405180910390f35b348015610c57575f80fd5b50610c60612a29565b604051610c6d9190614fe9565b60405180910390f35b348015610c81575f80fd5b50610c9c6004803603810190610c9791906157b5565b612a4f565b005b348015610ca9575f80fd5b50610cc46004803603810190610cbf91906157b5565b612a90565b005b348015610cd1575f80fd5b50610cec6004803603810190610ce79190615c3f565b612ada565b604051610cf99190614ec2565b60405180910390f35b348015610d0d575f80fd5b50610d16612b68565b604051610d239190614f65565b60405180910390f35b610194602052805f5260405f205f915090505481565b5f610d4c82612bf5565b9050919050565b606060658054610d6290615caa565b80601f0160208091040260200160405190810160405280929190818152602001828054610d8e90615caa565b8015610dd95780601f10610db057610100808354040283529160200191610dd9565b820191905f5260205f20905b815481529060010190602001808311610dbc57829003601f168201915b5050505050905090565b5f610ded82612c6e565b60695f8381526020019081526020015f205f9054906101000a900473ffffffffffffffffffffffffffffffffffffffff169050919050565b5f610e2f82611c5b565b90508073ffffffffffffffffffffffffffffffffffffffff168373ffffffffffffffffffffffffffffffffffffffff1603610e9f576040517f08c379a0000000000000000000000000000000000000000000000000000000008152600401610e9690615d4a565b60405180910390fd5b8073ffffffffffffffffffffffffffffffffffffffff16610ebe612cb9565b73ffffffffffffffffffffffffffffffffffffffff161480610eed5750610eec81610ee7612cb9565b612ada565b5b610f2c576040517f08c379a0000000000000000000000000000000000000000000000000000000008152600401610f2390615dd8565b60405180910390fd5b610f368383612cc0565b505050565b60016101a25f3373ffffffffffffffffffffffffffffffffffffffff1673ffffffffffffffffffffffffffffffffffffffff1681526020019081526020015f205414610fbc576040517f08c379a0000000000000000000000000000000000000000000000000000000008152600401610fb390615e40565b60405180910390fd5b5f5b8383905081101561105157816101945f868685818110610fe157610fe0615e5e565b5b9050602002016020810190610ff69190614dcc565b73ffffffffffffffffffffffffffffffffffffffff1673ffffffffffffffffffffffffffffffffffffffff1681526020019081526020015f205f82825461103d9190615eb8565b925050819055508080600101915050610fbe565b50505050565b5f609980549050905090565b61019d818051602081018201805184825260208301602085012081835280955050505050505f915090505481565b5f801b61109d81612d76565b828261019591826110af929190616092565b50505050565b6110c66110c0612cb9565b82612d8a565b611105576040517f08c379a00000000000000000000000000000000000000000000000000000000081526004016110fc906161cf565b60405180910390fd5b611110838383612e1e565b505050565b5f60fb5f8381526020019081526020015f20600101549050919050565b5f801b61113e81612d76565b6111488787612a90565b896101975f6101000a81548173ffffffffffffffffffffffffffffffffffffffff021916908373ffffffffffffffffffffffffffffffffffffffff1602179055508861019890600161119b929190614d06565b50868661019f91826111ae92919061624f565b5084846101a091826111c192919061624f565b5082826101a191826111d4929190616092565b508761019b819055505f61019c8190555061019a5f8154809291906111f89061631c565b919050555050505050505050505050565b6101a2602052805f5260405f205f915090505481565b61122882611115565b61123181612d76565b61123b8383613079565b505050565b5f61124a83611d94565b821061128b576040517f08c379a0000000000000000000000000000000000000000000000000000000008152600401611282906163d3565b60405180910390fd5b60975f8473ffffffffffffffffffffffffffffffffffffffff1673ffffffffffffffffffffffffffffffffffffffff1681526020019081526020015f205f8381526020019081526020015f2054905092915050565b5f6101945f3373ffffffffffffffffffffffffffffffffffffffff1673ffffffffffffffffffffffffffffffffffffffff1681526020019081526020015f205411611360576040517f08c379a00000000000000000000000000000000000000000000000000000000081526004016113579061643b565b60405180910390fd5b6101945f3373ffffffffffffffffffffffffffffffffffffffff1673ffffffffffffffffffffffffffffffffffffffff1681526020019081526020015f205f8154809291906113ae90616459565b91905055506113bc81613154565b50565b5f801b6113cb81612d76565b6113d886868686866131f8565b505050505050565b6113e8612cb9565b73ffffffffffffffffffffffffffffffffffffffff168173ffffffffffffffffffffffffffffffffffffffff1614611455576040517f08c379a000000000000000000000000000000000000000000000000000000000815260040161144c906164f0565b60405180910390fd5b61145f828261338b565b5050565b7f000000000000000000000000000000000000000000000000000000000000000073ffffffffffffffffffffffffffffffffffffffff163073ffffffffffffffffffffffffffffffffffffffff16036114f1576040517f08c379a00000000000000000000000000000000000000000000000000000000081526004016114e89061657e565b60405180910390fd5b7f000000000000000000000000000000000000000000000000000000000000000073ffffffffffffffffffffffffffffffffffffffff16611530613466565b73ffffffffffffffffffffffffffffffffffffffff1614611586576040517f08c379a000000000000000000000000000000000000000000000000000000000815260040161157d9061660c565b60405180910390fd5b61158f816134b9565b6115e6815f67ffffffffffffffff8111156115ad576115ac615102565b5b6040519080825280601f01601f1916602001820160405280156115df5781602001600182028036833780820191505090505b505f6134c9565b50565b61019c5481565b61160a83838360405180602001604052805f815250612884565b505050565b61162061161a612cb9565b82612d8a565b61165f576040517f08c379a0000000000000000000000000000000000000000000000000000000008152600401611656906161cf565b60405180910390fd5b61166881613633565b50565b6101a1805461167990615caa565b80601f01602080910402602001604051908101604052809291908181526020018280546116a590615caa565b80156116f05780601f106116c7576101008083540402835291602001916116f0565b820191905f5260205f20905b8154815290600101906020018083116116d357829003601f168201915b505050505081565b7f000000000000000000000000000000000000000000000000000000000000000073ffffffffffffffffffffffffffffffffffffffff163073ffffffffffffffffffffffffffffffffffffffff1603611786576040517f08c379a000000000000000000000000000000000000000000000000000000000815260040161177d9061657e565b60405180910390fd5b7f000000000000000000000000000000000000000000000000000000000000000073ffffffffffffffffffffffffffffffffffffffff166117c5613466565b73ffffffffffffffffffffffffffffffffffffffff161461181b576040517f08c379a00000000000000000000000000000000000000000000000000000000081526004016118129061660c565b60405180910390fd5b611824826134b9565b611830828260016134c9565b5050565b5f61183d611057565b821061187e576040517f08c379a00000000000000000000000000000000000000000000000000000000081526004016118759061669a565b60405180910390fd5b6099828154811061189257611891615e5e565b5b905f5260205f2001549050919050565b5f801b6118ae81612d76565b60016101a25f8473ffffffffffffffffffffffffffffffffffffffff1673ffffffffffffffffffffffffffffffffffffffff1681526020019081526020015f20819055505050565b5f7f000000000000000000000000000000000000000000000000000000000000000073ffffffffffffffffffffffffffffffffffffffff163073ffffffffffffffffffffffffffffffffffffffff1614611985576040517f08c379a000000000000000000000000000000000000000000000000000000000815260040161197c90616728565b60405180910390fd5b7f360894a13ba1a3210667c828492db98dca3e2076cc3735a920a3ca505d382bbc5f1b905090565b60606040518060400160405280600581526020017f322e362e30000000000000000000000000000000000000000000000000000000815250905090565b5f801b6119f681612d76565b82826101969182611a0892919061624f565b50505050565b610193602052805f5260405f205f91509050805f018054611a2e90615caa565b80601f0160208091040260200160405190810160405280929190818152602001828054611a5a90615caa565b8015611aa55780601f10611a7c57610100808354040283529160200191611aa5565b820191905f5260205f20905b815481529060010190602001808311611a8857829003601f168201915b505050505090806001018054611aba90615caa565b80601f0160208091040260200160405190810160405280929190818152602001828054611ae690615caa565b8015611b315780601f10611b0857610100808354040283529160200191611b31565b820191905f5260205f20905b815481529060010190602001808311611b1457829003601f168201915b505050505090806002018054611b4690615caa565b80601f0160208091040260200160405190810160405280929190818152602001828054611b7290615caa565b8015611bbd5780601f10611b9457610100808354040283529160200191611bbd565b820191905f5260205f20905b815481529060010190602001808311611ba057829003601f168201915b5050505050905083565b61019b5481565b6101958054611bdc90615caa565b80601f0160208091040260200160405190810160405280929190818152602001828054611c0890615caa565b8015611c535780601f10611c2a57610100808354040283529160200191611c53565b820191905f5260205f20905b815481529060010190602001808311611c3657829003601f168201915b505050505081565b5f8060675f8481526020019081526020015f205f9054906101000a900473ffffffffffffffffffffffffffffffffffffffff1690505f73ffffffffffffffffffffffffffffffffffffffff168173ffffffffffffffffffffffffffffffffffffffff1603611cfe576040517f08c379a0000000000000000000000000000000000000000000000000000000008152600401611cf590616790565b60405180910390fd5b80915050919050565b6101968054611d1590615caa565b80601f0160208091040260200160405190810160405280929190818152602001828054611d4190615caa565b8015611d8c5780601f10611d6357610100808354040283529160200191611d8c565b820191905f5260205f20905b815481529060010190602001808311611d6f57829003601f168201915b505050505081565b5f8073ffffffffffffffffffffffffffffffffffffffff168273ffffffffffffffffffffffffffffffffffffffff1603611e03576040517f08c379a0000000000000000000000000000000000000000000000000000000008152600401611dfa9061681e565b60405180910390fd5b60685f8373ffffffffffffffffffffffffffffffffffffffff1673ffffffffffffffffffffffffffffffffffffffff1681526020019081526020015f20549050919050565b61019a5481565b5f8060019054906101000a900460ff16159050808015611e7e575060015f8054906101000a900460ff1660ff16105b80611eaa5750611e8d30613745565b158015611ea9575060015f8054906101000a900460ff1660ff16145b5b611ee9576040517f08c379a0000000000000000000000000000000000000000000000000000000008152600401611ee0906168ac565b60405180910390fd5b60015f806101000a81548160ff021916908360ff1602179055508015611f245760015f60016101000a81548160ff0219169083151502179055505b611f986040518060400160405280600581526020017f52656d69780000000000000000000000000000000000000000000000000000008152506040518060400160405280600181526020017f5200000000000000000000000000000000000000000000000000000000000000815250613767565b611fa06137c3565b611fa8613813565b611fb0613863565b611fb86138b3565b611fc45f801b33613903565b801561201c575f8060016101000a81548160ff0219169083151502179055507f7f26b83ff96e1f2b6a682f133852f6798a09c465da95921460cefb38474024986001604051612013919061690f565b60405180910390a15b50565b5f73ffffffffffffffffffffffffffffffffffffffff166101975f9054906101000a900473ffffffffffffffffffffffffffffffffffffffff1673ffffffffffffffffffffffffffffffffffffffff16036120af576040517f08c379a00000000000000000000000000000000000000000000000000000000081526004016120a690616972565b60405180910390fd5b61019b5461019c54106120f7576040517f08c379a00000000000000000000000000000000000000000000000000000000081526004016120ee90616a00565b60405180910390fd5b5f61019a54826002600381106121105761210f615e5e565b5b6020020151604051602001612126929190616a3e565b60405160208183030381529060405290505f61019a543360405160200161214e929190616aae565b60405160208183030381529060405290505f61019d836040516121719190616b13565b908152602001604051809103902054146121c0576040517f08c379a00000000000000000000000000000000000000000000000000000000081526004016121b790616b73565b60405180910390fd5b5f61019e826040516121d29190616b13565b90815260200160405180910390205414612221576040517f08c379a000000000000000000000000000000000000000000000000000000000815260040161221890616c01565b60405180910390fd5b8260016003811061223557612234615e5e565b5b60200201516101985f6002811061224f5761224e615e5e565b5b015414612291576040517f08c379a000000000000000000000000000000000000000000000000000000000815260040161228890616c69565b60405180910390fd5b5f806101975f9054906101000a900473ffffffffffffffffffffffffffffffffffffffff1673ffffffffffffffffffffffffffffffffffffffff165f875f015188602001518960400151896040516024016122ef9493929190616ea1565b6040516020818303038152906040527f11479fea000000000000000000000000000000000000000000000000000000007bffffffffffffffffffffffffffffffffffffffffffffffffffffffff19166020820180517bffffffffffffffffffffffffffffffffffffffffffffffffffffffff83818316178352505050506040516123799190616b13565b5f6040518083038185875af1925050503d805f81146123b3576040519150601f19603f3d011682016040523d82523d5f602084013e6123b8565b606091505b5091509150816123fd576040517f08c379a00000000000000000000000000000000000000000000000000000000081526004016123f490616f30565b60405180910390fd5b5f818060200190518101906124129190616f62565b905080612454576040517f08c379a000000000000000000000000000000000000000000000000000000000815260040161244b90616fd7565b60405180910390fd5b6125fd3361019f805461246690615caa565b80601f016020809104026020016040519081016040528092919081815260200182805461249290615caa565b80156124dd5780601f106124b4576101008083540402835291602001916124dd565b820191905f5260205f20905b8154815290600101906020018083116124c057829003601f168201915b50505050506101a080546124f090615caa565b80601f016020809104026020016040519081016040528092919081815260200182805461251c90615caa565b80156125675780601f1061253e57610100808354040283529160200191612567565b820191905f5260205f20905b81548152906001019060200180831161254a57829003601f168201915b50505050506101a1805461257a90615caa565b80601f01602080910402602001604051908101604052809291908181526020018280546125a690615caa565b80156125f15780601f106125c8576101008083540402835291602001916125f1565b820191905f5260205f20905b8154815290600101906020018083116125d457829003601f168201915b505050505060016131f8565b61019c5f8154809291906126109061631c565b9190505550600161019d866040516126289190616b13565b908152602001604051809103902081905550600161019e8560405161264d9190616b13565b90815260200160405180910390208190555050505050505050565b5f801b61267481612d76565b6101a25f8373ffffffffffffffffffffffffffffffffffffffff1673ffffffffffffffffffffffffffffffffffffffff1681526020019081526020015f205f90555050565b5f60fb5f8481526020019081526020015f205f015f8373ffffffffffffffffffffffffffffffffffffffff1673ffffffffffffffffffffffffffffffffffffffff1681526020019081526020015f205f9054906101000a900460ff16905092915050565b60606066805461272c90615caa565b80601f016020809104026020016040519081016040528092919081815260200182805461275890615caa565b80156127a35780601f1061277a576101008083540402835291602001916127a3565b820191905f5260205f20905b81548152906001019060200180831161278657829003601f168201915b5050505050905090565b61019f80546127bb90615caa565b80601f01602080910402602001604051908101604052809291908181526020018280546127e790615caa565b80156128325780601f1061280957610100808354040283529160200191612832565b820191905f5260205f20905b81548152906001019060200180831161281557829003601f168201915b505050505081565b5f801b81565b61285261284b612cb9565b8383613911565b5050565b61019e818051602081018201805184825260208301602085012081835280955050505050505f915090505481565b61289561288f612cb9565b83612d8a565b6128d4576040517f08c379a00000000000000000000000000000000000000000000000000000000081526004016128cb906161cf565b60405180910390fd5b6128e084848484613a78565b50505050565b5f801b6128f281612d76565b6128fb84612c6e565b5f6101935f8681526020019081526020015f20600201805461291c90615caa565b90501461295e576040517f08c379a00000000000000000000000000000000000000000000000000000000081526004016129559061703f565b60405180910390fd5b82826101935f8781526020019081526020015f206002019182612982929190616092565b5050505050565b606061299482612c6e565b5f61299d613ad4565b90505f8151116129bb5760405180602001604052805f8152506129e6565b806129c584613b65565b6040516020016129d6929190617097565b6040516020818303038152906040525b915050919050565b6129f782611115565b612a0081612d76565b612a0a838361338b565b505050565b6101988160028110612a1f575f80fd5b015f915090505481565b6101975f9054906101000a900473ffffffffffffffffffffffffffffffffffffffff1681565b5f801b612a5b81612d76565b6101928383604051612a6e9291906170de565b90815260200160405180910390205f6101000a81549060ff0219169055505050565b5f801b612a9c81612d76565b60016101928484604051612ab19291906170de565b90815260200160405180910390205f6101000a81548160ff021916908315150217905550505050565b5f606a5f8473ffffffffffffffffffffffffffffffffffffffff1673ffffffffffffffffffffffffffffffffffffffff1681526020019081526020015f205f8373ffffffffffffffffffffffffffffffffffffffff1673ffffffffffffffffffffffffffffffffffffffff1681526020019081526020015f205f9054906101000a900460ff16905092915050565b6101a08054612b7690615caa565b80601f0160208091040260200160405190810160405280929190818152602001828054612ba290615caa565b8015612bed5780601f10612bc457610100808354040283529160200191612bed565b820191905f5260205f20905b815481529060010190602001808311612bd057829003601f168201915b505050505081565b5f7f7965db0b000000000000000000000000000000000000000000000000000000007bffffffffffffffffffffffffffffffffffffffffffffffffffffffff1916827bffffffffffffffffffffffffffffffffffffffffffffffffffffffff19161480612c675750612c6682613cbe565b5b9050919050565b612c7781613d37565b612cb6576040517f08c379a0000000000000000000000000000000000000000000000000000000008152600401612cad90616790565b60405180910390fd5b50565b5f33905090565b8160695f8381526020019081526020015f205f6101000a81548173ffffffffffffffffffffffffffffffffffffffff021916908373ffffffffffffffffffffffffffffffffffffffff160217905550808273ffffffffffffffffffffffffffffffffffffffff16612d3083611c5b565b73ffffffffffffffffffffffffffffffffffffffff167f8c5be1e5ebec7d5bd14f71427d1e84f3dd0314c0f7b2291e5b200ac8c7c3b92560405160405180910390a45050565b612d8781612d82612cb9565b613d9f565b50565b5f80612d9583611c5b565b90508073ffffffffffffffffffffffffffffffffffffffff168473ffffffffffffffffffffffffffffffffffffffff161480612dd75750612dd68185612ada565b5b80612e1557508373ffffffffffffffffffffffffffffffffffffffff16612dfd84610de3565b73ffffffffffffffffffffffffffffffffffffffff16145b91505092915050565b8273ffffffffffffffffffffffffffffffffffffffff16612e3e82611c5b565b73ffffffffffffffffffffffffffffffffffffffff1614612e94576040517f08c379a0000000000000000000000000000000000000000000000000000000008152600401612e8b90617166565b60405180910390fd5b5f73ffffffffffffffffffffffffffffffffffffffff168273ffffffffffffffffffffffffffffffffffffffff1603612f02576040517f08c379a0000000000000000000000000000000000000000000000000000000008152600401612ef9906171f4565b60405180910390fd5b612f0d838383613e3b565b612f175f82612cc0565b600160685f8573ffffffffffffffffffffffffffffffffffffffff1673ffffffffffffffffffffffffffffffffffffffff1681526020019081526020015f205f828254612f649190617212565b92505081905550600160685f8473ffffffffffffffffffffffffffffffffffffffff1673ffffffffffffffffffffffffffffffffffffffff1681526020019081526020015f205f828254612fb89190615eb8565b925050819055508160675f8381526020019081526020015f205f6101000a81548173ffffffffffffffffffffffffffffffffffffffff021916908373ffffffffffffffffffffffffffffffffffffffff160217905550808273ffffffffffffffffffffffffffffffffffffffff168473ffffffffffffffffffffffffffffffffffffffff167fddf252ad1be2c89b69c2b068fc378daa952ba7f163c4a11628f55a4df523b3ef60405160405180910390a4613074838383613eb9565b505050565b61308382826126b9565b61315057600160fb5f8481526020019081526020015f205f015f8373ffffffffffffffffffffffffffffffffffffffff1673ffffffffffffffffffffffffffffffffffffffff1681526020019081526020015f205f6101000a81548160ff0219169083151502179055506130f5612cb9565b73ffffffffffffffffffffffffffffffffffffffff168173ffffffffffffffffffffffffffffffffffffffff16837f2f8788117e7eff1d82e926ec794901d17c78024a50270940304540a733656f0d60405160405180910390a45b5050565b5f613160610191613ebe565b905061316d610191613eca565b6131778282613ede565b6040518060400160405280600781526020017f52656d69786572000000000000000000000000000000000000000000000000008152506101935f8381526020019081526020015f2060010190816131ce9190617245565b506101956101935f8381526020019081526020015f2060020190816131f3919061733b565b505050565b610192846040516132099190617420565b90815260200160405180910390205f9054906101000a900460ff16613263576040517f08c379a000000000000000000000000000000000000000000000000000000000815260040161325a90617480565b60405180910390fd5b5f61326f610191613ebe565b905061327c610191613eca565b6132868682613ede565b836101935f8381526020019081526020015f205f0190816132a79190617245565b50846101935f8381526020019081526020015f2060010190816132ca9190617245565b50826101935f8381526020019081526020015f2060020190816132ed919061749e565b505f82111561338357816101945f8873ffffffffffffffffffffffffffffffffffffffff1673ffffffffffffffffffffffffffffffffffffffff1681526020019081526020015f20546133409190615eb8565b6101945f8873ffffffffffffffffffffffffffffffffffffffff1673ffffffffffffffffffffffffffffffffffffffff1681526020019081526020015f20819055505b505050505050565b61339582826126b9565b15613462575f60fb5f8481526020019081526020015f205f015f8373ffffffffffffffffffffffffffffffffffffffff1673ffffffffffffffffffffffffffffffffffffffff1681526020019081526020015f205f6101000a81548160ff021916908315150217905550613407612cb9565b73ffffffffffffffffffffffffffffffffffffffff168173ffffffffffffffffffffffffffffffffffffffff16837ff6391f5c32d9c69d2a47ea670b442974b53935d1edc7fd64eb21e047a839171b60405160405180910390a45b5050565b5f6134927f360894a13ba1a3210667c828492db98dca3e2076cc3735a920a3ca505d382bbc5f1b613efb565b5f015f9054906101000a900473ffffffffffffffffffffffffffffffffffffffff16905090565b5f801b6134c581612d76565b5050565b6134f47f4910fdfa16fed3260ed0e7147f7cc6da11a60208b5b9406d12a635614ffd91435f1b613f04565b5f015f9054906101000a900460ff16156135165761351183613f0d565b61362e565b8273ffffffffffffffffffffffffffffffffffffffff166352d1902d6040518163ffffffff1660e01b8152600401602060405180830381865afa92505050801561357e57506040513d601f19601f8201168201806040525081019061357b9190617581565b60015b6135bd576040517f08c379a00000000000000000000000000000000000000000000000000000000081526004016135b49061761c565b60405180910390fd5b7f360894a13ba1a3210667c828492db98dca3e2076cc3735a920a3ca505d382bbc5f1b8114613621576040517f08c379a0000000000000000000000000000000000000000000000000000000008152600401613618906176aa565b60405180910390fd5b5061362d838383613fc3565b5b505050565b5f61363d82611c5b565b905061364a815f84613e3b565b6136545f83612cc0565b600160685f8373ffffffffffffffffffffffffffffffffffffffff1673ffffffffffffffffffffffffffffffffffffffff1681526020019081526020015f205f8282546136a19190617212565b9250508190555060675f8381526020019081526020015f205f6101000a81549073ffffffffffffffffffffffffffffffffffffffff0219169055815f73ffffffffffffffffffffffffffffffffffffffff168273ffffffffffffffffffffffffffffffffffffffff167fddf252ad1be2c89b69c2b068fc378daa952ba7f163c4a11628f55a4df523b3ef60405160405180910390a4613741815f84613eb9565b5050565b5f808273ffffffffffffffffffffffffffffffffffffffff163b119050919050565b5f60019054906101000a900460ff166137b5576040517f08c379a00000000000000000000000000000000000000000000000000000000081526004016137ac90617738565b60405180910390fd5b6137bf8282613fee565b5050565b5f60019054906101000a900460ff16613811576040517f08c379a000000000000000000000000000000000000000000000000000000000815260040161380890617738565b60405180910390fd5b565b5f60019054906101000a900460ff16613861576040517f08c379a000000000000000000000000000000000000000000000000000000000815260040161385890617738565b60405180910390fd5b565b5f60019054906101000a900460ff166138b1576040517f08c379a00000000000000000000000000000000000000000000000000000000081526004016138a890617738565b60405180910390fd5b565b5f60019054906101000a900460ff16613901576040517f08c379a00000000000000000000000000000000000000000000000000000000081526004016138f890617738565b60405180910390fd5b565b61390d8282613079565b5050565b8173ffffffffffffffffffffffffffffffffffffffff168373ffffffffffffffffffffffffffffffffffffffff160361397f576040517f08c379a0000000000000000000000000000000000000000000000000000000008152600401613976906177a0565b60405180910390fd5b80606a5f8573ffffffffffffffffffffffffffffffffffffffff1673ffffffffffffffffffffffffffffffffffffffff1681526020019081526020015f205f8473ffffffffffffffffffffffffffffffffffffffff1673ffffffffffffffffffffffffffffffffffffffff1681526020019081526020015f205f6101000a81548160ff0219169083151502179055508173ffffffffffffffffffffffffffffffffffffffff168373ffffffffffffffffffffffffffffffffffffffff167f17307eab39ab6107e8899845ad3d59bd9653f200f220920489ca2b5937696c3183604051613a6b9190614ec2565b60405180910390a3505050565b613a83848484612e1e565b613a8f84848484614060565b613ace576040517f08c379a0000000000000000000000000000000000000000000000000000000008152600401613ac59061782e565b60405180910390fd5b50505050565b60606101968054613ae490615caa565b80601f0160208091040260200160405190810160405280929190818152602001828054613b1090615caa565b8015613b5b5780601f10613b3257610100808354040283529160200191613b5b565b820191905f5260205f20905b815481529060010190602001808311613b3e57829003601f168201915b5050505050905090565b60605f8203613bab576040518060400160405280600181526020017f30000000000000000000000000000000000000000000000000000000000000008152509050613cb9565b5f8290505f5b5f8214613bda578080613bc39061631c565b915050600a82613bd39190617879565b9150613bb1565b5f8167ffffffffffffffff811115613bf557613bf4615102565b5b6040519080825280601f01601f191660200182016040528015613c275781602001600182028036833780820191505090505b5090505b5f8514613cb257600182613c3f9190617212565b9150600a85613c4e91906178a9565b6030613c5a9190615eb8565b60f81b818381518110613c7057613c6f615e5e565b5b60200101907effffffffffffffffffffffffffffffffffffffffffffffffffffffffffffff191690815f1a905350600a85613cab9190617879565b9450613c2b565b8093505050505b919050565b5f7f780e9d63000000000000000000000000000000000000000000000000000000007bffffffffffffffffffffffffffffffffffffffffffffffffffffffff1916827bffffffffffffffffffffffffffffffffffffffffffffffffffffffff19161480613d305750613d2f826141e2565b5b9050919050565b5f8073ffffffffffffffffffffffffffffffffffffffff1660675f8481526020019081526020015f205f9054906101000a900473ffffffffffffffffffffffffffffffffffffffff1673ffffffffffffffffffffffffffffffffffffffff1614159050919050565b613da982826126b9565b613e3757613dce8173ffffffffffffffffffffffffffffffffffffffff1660146142c3565b613ddb835f1c60206142c3565b604051602001613dec92919061796d565b6040516020818303038152906040526040517f08c379a0000000000000000000000000000000000000000000000000000000008152600401613e2e9190614f65565b60405180910390fd5b5050565b5f73ffffffffffffffffffffffffffffffffffffffff168373ffffffffffffffffffffffffffffffffffffffff1614613ea9576040517f08c379a0000000000000000000000000000000000000000000000000000000008152600401613ea0906179f0565b60405180910390fd5b613eb48383836144f8565b505050565b505050565b5f815f01549050919050565b6001815f015f828254019250508190555050565b613ef7828260405180602001604052805f815250614608565b5050565b5f819050919050565b5f819050919050565b613f1681613745565b613f55576040517f08c379a0000000000000000000000000000000000000000000000000000000008152600401613f4c90617a7e565b60405180910390fd5b80613f817f360894a13ba1a3210667c828492db98dca3e2076cc3735a920a3ca505d382bbc5f1b613efb565b5f015f6101000a81548173ffffffffffffffffffffffffffffffffffffffff021916908373ffffffffffffffffffffffffffffffffffffffff16021790555050565b613fcc83614662565b5f82511180613fd85750805b15613fe957613fe783836146b1565b505b505050565b5f60019054906101000a900460ff1661403c576040517f08c379a000000000000000000000000000000000000000000000000000000000815260040161403390617738565b60405180910390fd5b816065908161404b9190617245565b50806066908161405b9190617245565b505050565b5f6140808473ffffffffffffffffffffffffffffffffffffffff16613745565b156141d5578373ffffffffffffffffffffffffffffffffffffffff1663150b7a026140a9612cb9565b8786866040518563ffffffff1660e01b81526004016140cb9493929190617a9c565b6020604051808303815f875af192505050801561410657506040513d601f19601f820116820180604052508101906141039190617afa565b60015b614185573d805f8114614134576040519150601f19603f3d011682016040523d82523d5f602084013e614139565b606091505b505f81510361417d576040517f08c379a00000000000000000000000000000000000000000000000000000000081526004016141749061782e565b60405180910390fd5b805181602001fd5b63150b7a0260e01b7bffffffffffffffffffffffffffffffffffffffffffffffffffffffff1916817bffffffffffffffffffffffffffffffffffffffffffffffffffffffff1916149150506141da565b600190505b949350505050565b5f7f80ac58cd000000000000000000000000000000000000000000000000000000007bffffffffffffffffffffffffffffffffffffffffffffffffffffffff1916827bffffffffffffffffffffffffffffffffffffffffffffffffffffffff191614806142ac57507f5b5e139f000000000000000000000000000000000000000000000000000000007bffffffffffffffffffffffffffffffffffffffffffffffffffffffff1916827bffffffffffffffffffffffffffffffffffffffffffffffffffffffff1916145b806142bc57506142bb82614791565b5b9050919050565b60605f60028360026142d59190617b25565b6142df9190615eb8565b67ffffffffffffffff8111156142f8576142f7615102565b5b6040519080825280601f01601f19166020018201604052801561432a5781602001600182028036833780820191505090505b5090507f3000000000000000000000000000000000000000000000000000000000000000815f8151811061436157614360615e5e565b5b60200101907effffffffffffffffffffffffffffffffffffffffffffffffffffffffffffff191690815f1a9053507f7800000000000000000000000000000000000000000000000000000000000000816001815181106143c4576143c3615e5e565b5b60200101907effffffffffffffffffffffffffffffffffffffffffffffffffffffffffffff191690815f1a9053505f60018460026144029190617b25565b61440c9190615eb8565b90505b60018111156144ab577f3031323334353637383961626364656600000000000000000000000000000000600f86166010811061444e5761444d615e5e565b5b1a60f81b82828151811061446557614464615e5e565b5b60200101907effffffffffffffffffffffffffffffffffffffffffffffffffffffffffffff191690815f1a905350600485901c9450806144a490616459565b905061440f565b505f84146144ee576040517f08c379a00000000000000000000000000000000000000000000000000000000081526004016144e590617bb0565b60405180910390fd5b8091505092915050565b6145038383836147fa565b5f73ffffffffffffffffffffffffffffffffffffffff168373ffffffffffffffffffffffffffffffffffffffff16036145445761453f816147ff565b614583565b8173ffffffffffffffffffffffffffffffffffffffff168373ffffffffffffffffffffffffffffffffffffffff1614614582576145818382614843565b5b5b5f73ffffffffffffffffffffffffffffffffffffffff168273ffffffffffffffffffffffffffffffffffffffff16036145c4576145bf81614999565b614603565b8273ffffffffffffffffffffffffffffffffffffffff168273ffffffffffffffffffffffffffffffffffffffff1614614602576146018282614a59565b5b5b505050565b6146128383614ad1565b61461e5f848484614060565b61465d576040517f08c379a00000000000000000000000000000000000000000000000000000000081526004016146549061782e565b60405180910390fd5b505050565b61466b81613f0d565b8073ffffffffffffffffffffffffffffffffffffffff167fbc7cd75a20ee27fd9adebab32041f755214dbc6bffa90cc0225b39da2e5c2d3b60405160405180910390a250565b60606146bc83613745565b6146fb576040517f08c379a00000000000000000000000000000000000000000000000000000000081526004016146f290617c3e565b60405180910390fd5b5f808473ffffffffffffffffffffffffffffffffffffffff16846040516147229190616b13565b5f60405180830381855af49150503d805f811461475a576040519150601f19603f3d011682016040523d82523d5f602084013e61475f565b606091505b50915091506147878282604051806060016040528060278152602001617d5a60279139614ca0565b9250505092915050565b5f7f01ffc9a7000000000000000000000000000000000000000000000000000000007bffffffffffffffffffffffffffffffffffffffffffffffffffffffff1916827bffffffffffffffffffffffffffffffffffffffffffffffffffffffff1916149050919050565b505050565b609980549050609a5f8381526020019081526020015f2081905550609981908060018154018082558091505060019003905f5260205f20015f909190919091505550565b5f600161484f84611d94565b6148599190617212565b90505f60985f8481526020019081526020015f20549050818114614930575f60975f8673ffffffffffffffffffffffffffffffffffffffff1673ffffffffffffffffffffffffffffffffffffffff1681526020019081526020015f205f8481526020019081526020015f205490508060975f8773ffffffffffffffffffffffffffffffffffffffff1673ffffffffffffffffffffffffffffffffffffffff1681526020019081526020015f205f8481526020019081526020015f20819055508160985f8381526020019081526020015f2081905550505b60985f8481526020019081526020015f205f905560975f8573ffffffffffffffffffffffffffffffffffffffff1673ffffffffffffffffffffffffffffffffffffffff1681526020019081526020015f205f8381526020019081526020015f205f905550505050565b5f60016099805490506149ac9190617212565b90505f609a5f8481526020019081526020015f205490505f609983815481106149d8576149d7615e5e565b5b905f5260205f200154905080609983815481106149f8576149f7615e5e565b5b905f5260205f20018190555081609a5f8381526020019081526020015f2081905550609a5f8581526020019081526020015f205f90556099805480614a4057614a3f617c5c565b5b600190038181905f5260205f20015f9055905550505050565b5f614a6383611d94565b90508160975f8573ffffffffffffffffffffffffffffffffffffffff1673ffffffffffffffffffffffffffffffffffffffff1681526020019081526020015f205f8381526020019081526020015f20819055508060985f8481526020019081526020015f2081905550505050565b5f73ffffffffffffffffffffffffffffffffffffffff168273ffffffffffffffffffffffffffffffffffffffff1603614b3f576040517f08c379a0000000000000000000000000000000000000000000000000000000008152600401614b3690617cd3565b60405180910390fd5b614b4881613d37565b15614b88576040517f08c379a0000000000000000000000000000000000000000000000000000000008152600401614b7f90617d3b565b60405180910390fd5b614b935f8383613e3b565b600160685f8473ffffffffffffffffffffffffffffffffffffffff1673ffffffffffffffffffffffffffffffffffffffff1681526020019081526020015f205f828254614be09190615eb8565b925050819055508160675f8381526020019081526020015f205f6101000a81548173ffffffffffffffffffffffffffffffffffffffff021916908373ffffffffffffffffffffffffffffffffffffffff160217905550808273ffffffffffffffffffffffffffffffffffffffff165f73ffffffffffffffffffffffffffffffffffffffff167fddf252ad1be2c89b69c2b068fc378daa952ba7f163c4a11628f55a4df523b3ef60405160405180910390a4614c9c5f8383613eb9565b5050565b60608315614cb057829050614cff565b5f83511115614cc25782518084602001fd5b816040517f08c379a0000000000000000000000000000000000000000000000000000000008152600401614cf69190614f65565b60405180910390fd5b9392505050565b8260028101928215614d35579160200282015b82811115614d34578235825591602001919060010190614d19565b5b509050614d429190614d46565b5090565b5b80821115614d5d575f815f905550600101614d47565b5090565b5f604051905090565b5f80fd5b5f80fd5b5f73ffffffffffffffffffffffffffffffffffffffff82169050919050565b5f614d9b82614d72565b9050919050565b614dab81614d91565b8114614db5575f80fd5b50565b5f81359050614dc681614da2565b92915050565b5f60208284031215614de157614de0614d6a565b5b5f614dee84828501614db8565b91505092915050565b5f819050919050565b614e0981614df7565b82525050565b5f602082019050614e225f830184614e00565b92915050565b5f7fffffffff0000000000000000000000000000000000000000000000000000000082169050919050565b614e5c81614e28565b8114614e66575f80fd5b50565b5f81359050614e7781614e53565b92915050565b5f60208284031215614e9257614e91614d6a565b5b5f614e9f84828501614e69565b91505092915050565b5f8115159050919050565b614ebc81614ea8565b82525050565b5f602082019050614ed55f830184614eb3565b92915050565b5f81519050919050565b5f82825260208201905092915050565b5f5b83811015614f12578082015181840152602081019050614ef7565b5f8484015250505050565b5f601f19601f8301169050919050565b5f614f3782614edb565b614f418185614ee5565b9350614f51818560208601614ef5565b614f5a81614f1d565b840191505092915050565b5f6020820190508181035f830152614f7d8184614f2d565b905092915050565b614f8e81614df7565b8114614f98575f80fd5b50565b5f81359050614fa981614f85565b92915050565b5f60208284031215614fc457614fc3614d6a565b5b5f614fd184828501614f9b565b91505092915050565b614fe381614d91565b82525050565b5f602082019050614ffc5f830184614fda565b92915050565b5f806040838503121561501857615017614d6a565b5b5f61502585828601614db8565b925050602061503685828601614f9b565b9150509250929050565b5f80fd5b5f80fd5b5f80fd5b5f8083601f84011261506157615060615040565b5b8235905067ffffffffffffffff81111561507e5761507d615044565b5b60208301915083602082028301111561509a57615099615048565b5b9250929050565b5f805f604084860312156150b8576150b7614d6a565b5b5f84013567ffffffffffffffff8111156150d5576150d4614d6e565b5b6150e18682870161504c565b935093505060206150f486828701614f9b565b9150509250925092565b5f80fd5b7f4e487b71000000000000000000000000000000000000000000000000000000005f52604160045260245ffd5b61513882614f1d565b810181811067ffffffffffffffff8211171561515757615156615102565b5b80604052505050565b5f615169614d61565b9050615175828261512f565b919050565b5f67ffffffffffffffff82111561519457615193615102565b5b61519d82614f1d565b9050602081019050919050565b828183375f83830152505050565b5f6151ca6151c58461517a565b615160565b9050828152602081018484840111156151e6576151e56150fe565b5b6151f18482856151aa565b509392505050565b5f82601f83011261520d5761520c615040565b5b813561521d8482602086016151b8565b91505092915050565b5f6020828403121561523b5761523a614d6a565b5b5f82013567ffffffffffffffff81111561525857615257614d6e565b5b615264848285016151f9565b91505092915050565b5f8083601f84011261528257615281615040565b5b8235905067ffffffffffffffff81111561529f5761529e615044565b5b6020830191508360018202830111156152bb576152ba615048565b5b9250929050565b5f80602083850312156152d8576152d7614d6a565b5b5f83013567ffffffffffffffff8111156152f5576152f4614d6e565b5b6153018582860161526d565b92509250509250929050565b5f805f6060848603121561532457615323614d6a565b5b5f61533186828701614db8565b935050602061534286828701614db8565b925050604061535386828701614f9b565b9150509250925092565b5f819050919050565b61536f8161535d565b8114615379575f80fd5b50565b5f8135905061538a81615366565b92915050565b5f602082840312156153a5576153a4614d6a565b5b5f6153b28482850161537c565b91505092915050565b6153c48161535d565b82525050565b5f6020820190506153dd5f8301846153bb565b92915050565b5f819050826020600102820111156153fe576153fd615048565b5b92915050565b5f8083601f84011261541957615418615040565b5b8235905067ffffffffffffffff81111561543657615435615044565b5b60208301915083600182028301111561545257615451615048565b5b9250929050565b5f805f805f805f805f60c08a8c03121561547657615475614d6a565b5b5f6154838c828d01614db8565b99505060206154948c828d016153e3565b98505060406154a58c828d01614f9b565b97505060608a013567ffffffffffffffff8111156154c6576154c5614d6e565b5b6154d28c828d01615404565b965096505060808a013567ffffffffffffffff8111156154f5576154f4614d6e565b5b6155018c828d01615404565b945094505060a08a013567ffffffffffffffff81111561552457615523614d6e565b5b6155308c828d0161526d565b92509250509295985092959850929598565b5f806040838503121561555857615557614d6a565b5b5f6155658582860161537c565b925050602061557685828601614db8565b9150509250929050565b5f67ffffffffffffffff82111561559a57615599615102565b5b6155a382614f1d565b9050602081019050919050565b5f6155c26155bd84615580565b615160565b9050828152602081018484840111156155de576155dd6150fe565b5b6155e98482856151aa565b509392505050565b5f82601f83011261560557615604615040565b5b81356156158482602086016155b0565b91505092915050565b5f805f805f60a0868803121561563757615636614d6a565b5b5f61564488828901614db8565b955050602086013567ffffffffffffffff81111561566557615664614d6e565b5b615671888289016155f1565b945050604086013567ffffffffffffffff81111561569257615691614d6e565b5b61569e888289016155f1565b935050606086013567ffffffffffffffff8111156156bf576156be614d6e565b5b6156cb888289016151f9565b92505060806156dc88828901614f9b565b9150509295509295909350565b5f81519050919050565b5f82825260208201905092915050565b5f61570d826156e9565b61571781856156f3565b9350615727818560208601614ef5565b61573081614f1d565b840191505092915050565b5f6020820190508181035f8301526157538184615703565b905092915050565b5f806040838503121561577157615770614d6a565b5b5f61577e85828601614db8565b925050602083013567ffffffffffffffff81111561579f5761579e614d6e565b5b6157ab858286016151f9565b9150509250929050565b5f80602083850312156157cb576157ca614d6a565b5b5f83013567ffffffffffffffff8111156157e8576157e7614d6e565b5b6157f485828601615404565b92509250509250929050565b5f6060820190508181035f8301526158188186614f2d565b9050818103602083015261582c8185614f2d565b905081810360408301526158408184615703565b9050949350505050565b5f80fd5b5f67ffffffffffffffff82111561586857615867615102565b5b602082029050919050565b5f6158856158808461584e565b615160565b9050806020840283018581111561589f5761589e615048565b5b835b818110156158c857806158b48882614f9b565b8452602084019350506020810190506158a1565b5050509392505050565b5f82601f8301126158e6576158e5615040565b5b60026158f3848285615873565b91505092915050565b5f67ffffffffffffffff82111561591657615915615102565b5b602082029050919050565b5f61593361592e846158fc565b615160565b9050806040840283018581111561594d5761594c615048565b5b835b81811015615976578061596288826158d2565b84526020840193505060408101905061594f565b5050509392505050565b5f82601f83011261599457615993615040565b5b60026159a1848285615921565b91505092915050565b5f61010082840312156159c0576159bf61584a565b5b6159ca6060615160565b90505f6159d9848285016158d2565b5f8301525060406159ec84828501615980565b60208301525060c0615a00848285016158d2565b60408301525092915050565b5f67ffffffffffffffff821115615a2657615a25615102565b5b602082029050919050565b5f615a43615a3e84615a0c565b615160565b90508060208402830185811115615a5d57615a5c615048565b5b835b81811015615a865780615a728882614f9b565b845260208401935050602081019050615a5f565b5050509392505050565b5f82601f830112615aa457615aa3615040565b5b6003615ab1848285615a31565b91505092915050565b5f806101608385031215615ad157615ad0614d6a565b5b5f615ade858286016159aa565b925050610100615af085828601615a90565b9150509250929050565b615b0381614ea8565b8114615b0d575f80fd5b50565b5f81359050615b1e81615afa565b92915050565b5f8060408385031215615b3a57615b39614d6a565b5b5f615b4785828601614db8565b9250506020615b5885828601615b10565b9150509250929050565b5f805f8060808587031215615b7a57615b79614d6a565b5b5f615b8787828801614db8565b9450506020615b9887828801614db8565b9350506040615ba987828801614f9b565b925050606085013567ffffffffffffffff811115615bca57615bc9614d6e565b5b615bd6878288016151f9565b91505092959194509250565b5f805f60408486031215615bf957615bf8614d6a565b5b5f615c0686828701614f9b565b935050602084013567ffffffffffffffff811115615c2757615c26614d6e565b5b615c338682870161526d565b92509250509250925092565b5f8060408385031215615c5557615c54614d6a565b5b5f615c6285828601614db8565b9250506020615c7385828601614db8565b9150509250929050565b7f4e487b71000000000000000000000000000000000000000000000000000000005f52602260045260245ffd5b5f6002820490506001821680615cc157607f821691505b602082108103615cd457615cd3615c7d565b5b50919050565b7f4552433732313a20617070726f76616c20746f2063757272656e74206f776e655f8201527f7200000000000000000000000000000000000000000000000000000000000000602082015250565b5f615d34602183614ee5565b9150615d3f82615cda565b604082019050919050565b5f6020820190508181035f830152615d6181615d28565b9050919050565b7f4552433732313a20617070726f76652063616c6c6572206973206e6f7420746f5f8201527f6b656e206f776e6572206e6f7220617070726f76656420666f7220616c6c0000602082015250565b5f615dc2603e83614ee5565b9150615dcd82615d68565b604082019050919050565b5f6020820190508181035f830152615def81615db6565b9050919050565b7f43616c6c6572206973206e6f74206120747261696e65720000000000000000005f82015250565b5f615e2a601783614ee5565b9150615e3582615df6565b602082019050919050565b5f6020820190508181035f830152615e5781615e1e565b9050919050565b7f4e487b71000000000000000000000000000000000000000000000000000000005f52603260045260245ffd5b7f4e487b71000000000000000000000000000000000000000000000000000000005f52601160045260245ffd5b5f615ec282614df7565b9150615ecd83614df7565b9250828201905080821115615ee557615ee4615e8b565b5b92915050565b5f82905092915050565b5f819050815f5260205f209050919050565b5f6020601f8301049050919050565b5f82821b905092915050565b5f60088302615f517fffffffffffffffffffffffffffffffffffffffffffffffffffffffffffffffff82615f16565b615f5b8683615f16565b95508019841693508086168417925050509392505050565b5f819050919050565b5f615f96615f91615f8c84614df7565b615f73565b614df7565b9050919050565b5f819050919050565b615faf83615f7c565b615fc3615fbb82615f9d565b848454615f22565b825550505050565b5f90565b615fd7615fcb565b615fe2818484615fa6565b505050565b5b8181101561600557615ffa5f82615fcf565b600181019050615fe8565b5050565b601f82111561604a5761601b81615ef5565b61602484615f07565b81016020851015616033578190505b61604761603f85615f07565b830182615fe7565b50505b505050565b5f82821c905092915050565b5f61606a5f198460080261604f565b1980831691505092915050565b5f616082838361605b565b9150826002028217905092915050565b61609c8383615eeb565b67ffffffffffffffff8111156160b5576160b4615102565b5b6160bf8254615caa565b6160ca828285616009565b5f601f8311600181146160f7575f84156160e5578287013590505b6160ef8582616077565b865550616156565b601f19841661610586615ef5565b5f5b8281101561612c57848901358255600182019150602085019450602081019050616107565b868310156161495784890135616145601f89168261605b565b8355505b6001600288020188555050505b50505050505050565b7f4552433732313a2063616c6c6572206973206e6f7420746f6b656e206f776e655f8201527f72206e6f7220617070726f766564000000000000000000000000000000000000602082015250565b5f6161b9602e83614ee5565b91506161c48261615f565b604082019050919050565b5f6020820190508181035f8301526161e6816161ad565b9050919050565b5f82905092915050565b5f819050815f5260205f209050919050565b601f82111561624a5761621b816161f7565b61622484615f07565b81016020851015616233578190505b61624761623f85615f07565b830182615fe7565b50505b505050565b61625983836161ed565b67ffffffffffffffff81111561627257616271615102565b5b61627c8254615caa565b616287828285616209565b5f601f8311600181146162b4575f84156162a2578287013590505b6162ac8582616077565b865550616313565b601f1984166162c2866161f7565b5f5b828110156162e9578489013582556001820191506020850194506020810190506162c4565b868310156163065784890135616302601f89168261605b565b8355505b6001600288020188555050505b50505050505050565b5f61632682614df7565b91507fffffffffffffffffffffffffffffffffffffffffffffffffffffffffffffffff820361635857616357615e8b565b5b600182019050919050565b7f455243373231456e756d657261626c653a206f776e657220696e646578206f755f8201527f74206f6620626f756e6473000000000000000000000000000000000000000000602082015250565b5f6163bd602b83614ee5565b91506163c882616363565b604082019050919050565b5f6020820190508181035f8301526163ea816163b1565b9050919050565b7f6e6f206d696e74696e6720616c6c6f77656400000000000000000000000000005f82015250565b5f616425601283614ee5565b9150616430826163f1565b602082019050919050565b5f6020820190508181035f83015261645281616419565b9050919050565b5f61646382614df7565b91505f820361647557616474615e8b565b5b600182039050919050565b7f416363657373436f6e74726f6c3a2063616e206f6e6c792072656e6f756e63655f8201527f20726f6c657320666f722073656c660000000000000000000000000000000000602082015250565b5f6164da602f83614ee5565b91506164e582616480565b604082019050919050565b5f6020820190508181035f830152616507816164ce565b9050919050565b7f46756e6374696f6e206d7573742062652063616c6c6564207468726f756768205f8201527f64656c656761746563616c6c0000000000000000000000000000000000000000602082015250565b5f616568602c83614ee5565b91506165738261650e565b604082019050919050565b5f6020820190508181035f8301526165958161655c565b9050919050565b7f46756e6374696f6e206d7573742062652063616c6c6564207468726f756768205f8201527f6163746976652070726f78790000000000000000000000000000000000000000602082015250565b5f6165f6602c83614ee5565b91506166018261659c565b604082019050919050565b5f6020820190508181035f830152616623816165ea565b9050919050565b7f455243373231456e756d657261626c653a20676c6f62616c20696e646578206f5f8201527f7574206f6620626f756e64730000000000000000000000000000000000000000602082015250565b5f616684602c83614ee5565b915061668f8261662a565b604082019050919050565b5f6020820190508181035f8301526166b181616678565b9050919050565b7f555550535570677261646561626c653a206d757374206e6f742062652063616c5f8201527f6c6564207468726f7567682064656c656761746563616c6c0000000000000000602082015250565b5f616712603883614ee5565b915061671d826166b8565b604082019050919050565b5f6020820190508181035f83015261673f81616706565b9050919050565b7f4552433732313a20696e76616c696420746f6b656e20494400000000000000005f82015250565b5f61677a601883614ee5565b915061678582616746565b602082019050919050565b5f6020820190508181035f8301526167a78161676e565b9050919050565b7f4552433732313a2061646472657373207a65726f206973206e6f7420612076615f8201527f6c6964206f776e65720000000000000000000000000000000000000000000000602082015250565b5f616808602983614ee5565b9150616813826167ae565b604082019050919050565b5f6020820190508181035f830152616835816167fc565b9050919050565b7f496e697469616c697a61626c653a20636f6e747261637420697320616c7265615f8201527f647920696e697469616c697a6564000000000000000000000000000000000000602082015250565b5f616896602e83614ee5565b91506168a18261683c565b604082019050919050565b5f6020820190508181035f8301526168c38161688a565b9050919050565b5f819050919050565b5f60ff82169050919050565b5f6168f96168f46168ef846168ca565b615f73565b6168d3565b9050919050565b616909816168df565b82525050565b5f6020820190506169225f830184616900565b92915050565b7f6e6f206368616c6c656e676520737461727465640000000000000000000000005f82015250565b5f61695c601483614ee5565b915061696782616928565b602082019050919050565b5f6020820190508181035f83015261698981616950565b9050919050565b7f7075626c6973686572732072656163686564206d6178696d756d20616d6f756e5f8201527f7400000000000000000000000000000000000000000000000000000000000000602082015250565b5f6169ea602183614ee5565b91506169f582616990565b604082019050919050565b5f6020820190508181035f830152616a17816169de565b9050919050565b5f819050919050565b616a38616a3382614df7565b616a1e565b82525050565b5f616a498285616a27565b602082019150616a598284616a27565b6020820191508190509392505050565b5f8160601b9050919050565b5f616a7f82616a69565b9050919050565b5f616a9082616a75565b9050919050565b616aa8616aa382614d91565b616a86565b82525050565b5f616ab98285616a27565b602082019150616ac98284616a97565b6014820191508190509392505050565b5f81905092915050565b5f616aed826156e9565b616af78185616ad9565b9350616b07818560208601614ef5565b80840191505092915050565b5f616b1e8284616ae3565b915081905092915050565b7f70726f6f6620616c7265616479207075626c69736865640000000000000000005f82015250565b5f616b5d601783614ee5565b9150616b6882616b29565b602082019050919050565b5f6020820190508181035f830152616b8a81616b51565b9050919050565b7f63757272656e74207075626c69736865722068617320616c72656164792073755f8201527f626d697474656400000000000000000000000000000000000000000000000000602082015250565b5f616beb602783614ee5565b9150616bf682616b91565b604082019050919050565b5f6020820190508181035f830152616c1881616bdf565b9050919050565b7f70726f7669646564206368616c6c656e6765206973206e6f742076616c6964005f82015250565b5f616c53601f83614ee5565b9150616c5e82616c1f565b602082019050919050565b5f6020820190508181035f830152616c8081616c47565b9050919050565b5f60029050919050565b5f81905092915050565b5f819050919050565b616cad81614df7565b82525050565b5f616cbe8383616ca4565b60208301905092915050565b5f602082019050919050565b616cdf81616c87565b616ce98184616c91565b9250616cf482616c9b565b805f5b83811015616d24578151616d0b8782616cb3565b9650616d1683616cca565b925050600181019050616cf7565b505050505050565b5f60029050919050565b5f81905092915050565b5f819050919050565b5f81905092915050565b616d5c81616c87565b616d668184616d49565b9250616d7182616c9b565b805f5b83811015616da1578151616d888782616cb3565b9650616d9383616cca565b925050600181019050616d74565b505050505050565b5f616db48383616d53565b60408301905092915050565b5f602082019050919050565b616dd581616d2c565b616ddf8184616d36565b9250616dea82616d40565b805f5b83811015616e1a578151616e018782616da9565b9650616e0c83616dc0565b925050600181019050616ded565b505050505050565b5f60039050919050565b5f81905092915050565b5f819050919050565b5f602082019050919050565b616e5481616e22565b616e5e8184616e2c565b9250616e6982616e36565b805f5b83811015616e99578151616e808782616cb3565b9650616e8b83616e3f565b925050600181019050616e6c565b505050505050565b5f61016082019050616eb55f830187616cd6565b616ec26040830186616dcc565b616ecf60c0830185616cd6565b616edd610100830184616e4b565b95945050505050565b7f7468652063616c6c20746f20746865207665726966696572206661696c6564005f82015250565b5f616f1a601f83614ee5565b9150616f2582616ee6565b602082019050919050565b5f6020820190508181035f830152616f4781616f0e565b9050919050565b5f81519050616f5c81615afa565b92915050565b5f60208284031215616f7757616f76614d6a565b5b5f616f8484828501616f4e565b91505092915050565b7f7468652070726f76696465642070726f6f662069736e27742076616c696400005f82015250565b5f616fc1601e83614ee5565b9150616fcc82616f8d565b602082019050919050565b5f6020820190508181035f830152616fee81616fb5565b9050919050565b7f6861736820616c726561647920736574000000000000000000000000000000005f82015250565b5f617029601083614ee5565b915061703482616ff5565b602082019050919050565b5f6020820190508181035f8301526170568161701d565b9050919050565b5f81905092915050565b5f61707182614edb565b61707b818561705d565b935061708b818560208601614ef5565b80840191505092915050565b5f6170a28285617067565b91506170ae8284617067565b91508190509392505050565b5f6170c5838561705d565b93506170d28385846151aa565b82840190509392505050565b5f6170ea8284866170ba565b91508190509392505050565b7f4552433732313a207472616e736665722066726f6d20696e636f7272656374205f8201527f6f776e6572000000000000000000000000000000000000000000000000000000602082015250565b5f617150602583614ee5565b915061715b826170f6565b604082019050919050565b5f6020820190508181035f83015261717d81617144565b9050919050565b7f4552433732313a207472616e7366657220746f20746865207a65726f206164645f8201527f7265737300000000000000000000000000000000000000000000000000000000602082015250565b5f6171de602483614ee5565b91506171e982617184565b604082019050919050565b5f6020820190508181035f83015261720b816171d2565b9050919050565b5f61721c82614df7565b915061722783614df7565b925082820390508181111561723f5761723e615e8b565b5b92915050565b61724e82614edb565b67ffffffffffffffff81111561726757617266615102565b5b6172718254615caa565b61727c828285616209565b5f60209050601f8311600181146172ad575f841561729b578287015190505b6172a58582616077565b86555061730c565b601f1984166172bb866161f7565b5f5b828110156172e2578489015182556001820191506020850194506020810190506172bd565b868310156172ff57848901516172fb601f89168261605b565b8355505b6001600288020188555050505b505050505050565b5f8154905061732281615caa565b9050919050565b5f819050815f5260205f209050919050565b81810361734957505061741e565b61735282617314565b67ffffffffffffffff81111561736b5761736a615102565b5b6173758254615caa565b617380828285616009565b5f601f8311600181146173ad575f841561739b578287015490505b6173a58582616077565b865550617417565b601f1984166173bb87617329565b96506173c686615ef5565b5f5b828110156173ed578489015482556001820191506001850194506020810190506173c8565b8683101561740a5784890154617406601f89168261605b565b8355505b6001600288020188555050505b5050505050505b565b5f61742b8284617067565b915081905092915050565b7f747970652073686f756c64206265206465636c617265640000000000000000005f82015250565b5f61746a601783614ee5565b915061747582617436565b602082019050919050565b5f6020820190508181035f8301526174978161745e565b9050919050565b6174a7826156e9565b67ffffffffffffffff8111156174c0576174bf615102565b5b6174ca8254615caa565b6174d5828285616009565b5f60209050601f831160018114617506575f84156174f4578287015190505b6174fe8582616077565b865550617565565b601f19841661751486615ef5565b5f5b8281101561753b57848901518255600182019150602085019450602081019050617516565b868310156175585784890151617554601f89168261605b565b8355505b6001600288020188555050505b505050505050565b5f8151905061757b81615366565b92915050565b5f6020828403121561759657617595614d6a565b5b5f6175a38482850161756d565b91505092915050565b7f45524331393637557067726164653a206e657720696d706c656d656e746174695f8201527f6f6e206973206e6f742055555053000000000000000000000000000000000000602082015250565b5f617606602e83614ee5565b9150617611826175ac565b604082019050919050565b5f6020820190508181035f830152617633816175fa565b9050919050565b7f45524331393637557067726164653a20756e737570706f727465642070726f785f8201527f6961626c65555549440000000000000000000000000000000000000000000000602082015250565b5f617694602983614ee5565b915061769f8261763a565b604082019050919050565b5f6020820190508181035f8301526176c181617688565b9050919050565b7f496e697469616c697a61626c653a20636f6e7472616374206973206e6f7420695f8201527f6e697469616c697a696e67000000000000000000000000000000000000000000602082015250565b5f617722602b83614ee5565b915061772d826176c8565b604082019050919050565b5f6020820190508181035f83015261774f81617716565b9050919050565b7f4552433732313a20617070726f766520746f2063616c6c6572000000000000005f82015250565b5f61778a601983614ee5565b915061779582617756565b602082019050919050565b5f6020820190508181035f8301526177b78161777e565b9050919050565b7f4552433732313a207472616e7366657220746f206e6f6e2045524337323152655f8201527f63656976657220696d706c656d656e7465720000000000000000000000000000602082015250565b5f617818603283614ee5565b9150617823826177be565b604082019050919050565b5f6020820190508181035f8301526178458161780c565b9050919050565b7f4e487b71000000000000000000000000000000000000000000000000000000005f52601260045260245ffd5b5f61788382614df7565b915061788e83614df7565b92508261789e5761789d61784c565b5b828204905092915050565b5f6178b382614df7565b91506178be83614df7565b9250826178ce576178cd61784c565b5b828206905092915050565b7f416363657373436f6e74726f6c3a206163636f756e74200000000000000000005f82015250565b5f61790d60178361705d565b9150617918826178d9565b601782019050919050565b7f206973206d697373696e6720726f6c65200000000000000000000000000000005f82015250565b5f61795760118361705d565b915061796282617923565b601182019050919050565b5f61797782617901565b91506179838285617067565b915061798e8261794b565b915061799a8284617067565b91508190509392505050565b7f746f6b656e206e6f74207472616e7366657261626c65000000000000000000005f82015250565b5f6179da601683614ee5565b91506179e5826179a6565b602082019050919050565b5f6020820190508181035f830152617a07816179ce565b9050919050565b7f455243313936373a206e657720696d706c656d656e746174696f6e206973206e5f8201527f6f74206120636f6e747261637400000000000000000000000000000000000000602082015250565b5f617a68602d83614ee5565b9150617a7382617a0e565b604082019050919050565b5f6020820190508181035f830152617a9581617a5c565b9050919050565b5f608082019050617aaf5f830187614fda565b617abc6020830186614fda565b617ac96040830185614e00565b8181036060830152617adb8184615703565b905095945050505050565b5f81519050617af481614e53565b92915050565b5f60208284031215617b0f57617b0e614d6a565b5b5f617b1c84828501617ae6565b91505092915050565b5f617b2f82614df7565b9150617b3a83614df7565b9250828202617b4881614df7565b91508282048414831517617b5f57617b5e615e8b565b5b5092915050565b7f537472696e67733a20686578206c656e67746820696e73756666696369656e745f82015250565b5f617b9a602083614ee5565b9150617ba582617b66565b602082019050919050565b5f6020820190508181035f830152617bc781617b8e565b9050919050565b7f416464726573733a2064656c65676174652063616c6c20746f206e6f6e2d636f5f8201527f6e74726163740000000000000000000000000000000000000000000000000000602082015250565b5f617c28602683614ee5565b9150617c3382617bce565b604082019050919050565b5f6020820190508181035f830152617c5581617c1c565b9050919050565b7f4e487b71000000000000000000000000000000000000000000000000000000005f52603160045260245ffd5b7f4552433732313a206d696e7420746f20746865207a65726f20616464726573735f82015250565b5f617cbd602083614ee5565b9150617cc882617c89565b602082019050919050565b5f6020820190508181035f830152617cea81617cb1565b9050919050565b7f4552433732313a20746f6b656e20616c7265616479206d696e746564000000005f82015250565b5f617d25601c83614ee5565b9150617d3082617cf1565b602082019050919050565b5f6020820190508181035f830152617d5281617d19565b905091905056fe416464726573733a206c6f772d6c6576656c2064656c65676174652063616c6c206661696c6564a2646970667358221220fd4fa96932b5456bbda0788ceadeefe6df0b0be6b230347fd930c6b5ea8da1ab64736f6c63430008180033",
			"opcodes": "PUSH1 0xA0 PUSH1 0x40 MSTORE ADDRESS PUSH20 0xFFFFFFFFFFFFFFFFFFFFFFFFFFFFFFFFFFFFFFFF AND PUSH1 0x80 SWAP1 PUSH20 0xFFFFFFFFFFFFFFFFFFFFFFFFFFFFFFFFFFFFFFFF AND DUP2 MSTORE POP CALLVALUE DUP1 ISZERO PUSH2 0x42 JUMPI PUSH0 DUP1 REVERT JUMPDEST POP PUSH1 0x80 MLOAD PUSH2 0x7DB6 PUSH3 0x78 PUSH0 CODECOPY PUSH0 DUP2 DUP2 PUSH2 0x1465 ADD MSTORE DUP2 DUP2 PUSH2 0x14F3 ADD MSTORE DUP2 DUP2 PUSH2 0x16FA ADD MSTORE DUP2 DUP2 PUSH2 0x1788 ADD MSTORE PUSH2 0x18F9 ADD MSTORE PUSH2 0x7DB6 PUSH0 RETURN INVALID PUSH1 0x80 PUSH1 0x40 MSTORE PUSH1 0x4 CALLDATASIZE LT PUSH2 0x34E JUMPI PUSH0 CALLDATALOAD PUSH1 0xE0 SHR DUP1 PUSH4 0x54FD4D50 GT PUSH2 0x1C5 JUMPI DUP1 PUSH4 0x9CBFF422 GT PUSH2 0xF6 JUMPI DUP1 PUSH4 0xD547741F GT PUSH2 0x94 JUMPI DUP1 PUSH4 0xE15E2FD4 GT PUSH2 0x6E JUMPI DUP1 PUSH4 0xE15E2FD4 EQ PUSH2 0xC76 JUMPI DUP1 PUSH4 0xE7F08E69 EQ PUSH2 0xC9E JUMPI DUP1 PUSH4 0xE985E9C5 EQ PUSH2 0xCC6 JUMPI DUP1 PUSH4 0xF1FE6911 EQ PUSH2 0xD02 JUMPI PUSH2 0x34E JUMP JUMPDEST DUP1 PUSH4 0xD547741F EQ PUSH2 0xBE8 JUMPI DUP1 PUSH4 0xD674CC2B EQ PUSH2 0xC10 JUMPI DUP1 PUSH4 0xD6DF096D EQ PUSH2 0xC4C JUMPI PUSH2 0x34E JUMP JUMPDEST DUP1 PUSH4 0xB63CB3B9 GT PUSH2 0xD0 JUMPI DUP1 PUSH4 0xB63CB3B9 EQ PUSH2 0xB20 JUMPI DUP1 PUSH4 0xB88D4FDE EQ PUSH2 0xB5C JUMPI DUP1 PUSH4 0xC0CECB9A EQ PUSH2 0xB84 JUMPI DUP1 PUSH4 0xC87B56DD EQ PUSH2 0xBAC JUMPI PUSH2 0x34E JUMP JUMPDEST DUP1 PUSH4 0x9CBFF422 EQ PUSH2 0xAA4 JUMPI DUP1 PUSH4 0xA217FDDF EQ PUSH2 0xACE JUMPI DUP1 PUSH4 0xA22CB465 EQ PUSH2 0xAF8 JUMPI PUSH2 0x34E JUMP JUMPDEST DUP1 PUSH4 0x70A08231 GT PUSH2 0x163 JUMPI DUP1 PUSH4 0x865D79B3 GT PUSH2 0x13D JUMPI DUP1 PUSH4 0x865D79B3 EQ PUSH2 0x9EE JUMPI DUP1 PUSH4 0x8A145777 EQ PUSH2 0xA16 JUMPI DUP1 PUSH4 0x91D14854 EQ PUSH2 0xA3E JUMPI DUP1 PUSH4 0x95D89B41 EQ PUSH2 0xA7A JUMPI PUSH2 0x34E JUMP JUMPDEST DUP1 PUSH4 0x70A08231 EQ PUSH2 0x972 JUMPI DUP1 PUSH4 0x7909EB73 EQ PUSH2 0x9AE JUMPI DUP1 PUSH4 0x8129FC1C EQ PUSH2 0x9D8 JUMPI PUSH2 0x34E JUMP JUMPDEST DUP1 PUSH4 0x5A8AFBFC GT PUSH2 0x19F JUMPI DUP1 PUSH4 0x5A8AFBFC EQ PUSH2 0x8B8 JUMPI DUP1 PUSH4 0x6344CD20 EQ PUSH2 0x8E2 JUMPI DUP1 PUSH4 0x6352211E EQ PUSH2 0x90C JUMPI DUP1 PUSH4 0x6C0360EB EQ PUSH2 0x948 JUMPI PUSH2 0x34E JUMP JUMPDEST DUP1 PUSH4 0x54FD4D50 EQ PUSH2 0x828 JUMPI DUP1 PUSH4 0x55F804B3 EQ PUSH2 0x852 JUMPI DUP1 PUSH4 0x599ED3FF EQ PUSH2 0x87A JUMPI PUSH2 0x34E JUMP JUMPDEST DUP1 PUSH4 0x2F2FF15D GT PUSH2 0x29F JUMPI DUP1 PUSH4 0x42842E0E GT PUSH2 0x23D JUMPI DUP1 PUSH4 0x4F1EF286 GT PUSH2 0x217 JUMPI DUP1 PUSH4 0x4F1EF286 EQ PUSH2 0x77E JUMPI DUP1 PUSH4 0x4F6CCCE7 EQ PUSH2 0x79A JUMPI DUP1 PUSH4 0x5117A840 EQ PUSH2 0x7D6 JUMPI DUP1 PUSH4 0x52D1902D EQ PUSH2 0x7FE JUMPI PUSH2 0x34E JUMP JUMPDEST DUP1 PUSH4 0x42842E0E EQ PUSH2 0x704 JUMPI DUP1 PUSH4 0x42966C68 EQ PUSH2 0x72C JUMPI DUP1 PUSH4 0x43D3CF61 EQ PUSH2 0x754 JUMPI PUSH2 0x34E JUMP JUMPDEST DUP1 PUSH4 0x35B1A7EA GT PUSH2 0x279 JUMPI DUP1 PUSH4 0x35B1A7EA EQ PUSH2 0x662 JUMPI DUP1 PUSH4 0x36568ABE EQ PUSH2 0x68A JUMPI DUP1 PUSH4 0x3659CFE6 EQ PUSH2 0x6B2 JUMPI DUP1 PUSH4 0x42778642 EQ PUSH2 0x6DA JUMPI PUSH2 0x34E JUMP JUMPDEST DUP1 PUSH4 0x2F2FF15D EQ PUSH2 0x5D6 JUMPI DUP1 PUSH4 0x2F745C59 EQ PUSH2 0x5FE JUMPI DUP1 PUSH4 0x32A93A3A EQ PUSH2 0x63A JUMPI PUSH2 0x34E JUMP JUMPDEST DUP1 PUSH4 0x18160DDD GT PUSH2 0x30C JUMPI DUP1 PUSH4 0x23B872DD GT PUSH2 0x2E6 JUMPI DUP1 PUSH4 0x23B872DD EQ PUSH2 0x50E JUMPI DUP1 PUSH4 0x248A9CA3 EQ PUSH2 0x536 JUMPI DUP1 PUSH4 0x2BD07D5F EQ PUSH2 0x572 JUMPI DUP1 PUSH4 0x2CD92F97 EQ PUSH2 0x59A JUMPI PUSH2 0x34E JUMP JUMPDEST DUP1 PUSH4 0x18160DDD EQ PUSH2 0x480 JUMPI DUP1 PUSH4 0x1823E26A EQ PUSH2 0x4AA JUMPI DUP1 PUSH4 0x1AA2C2F8 EQ PUSH2 0x4E6 JUMPI PUSH2 0x34E JUMP JUMPDEST DUP1 PUSH3 0x5C154E EQ PUSH2 0x352 JUMPI DUP1 PUSH4 0x1FFC9A7 EQ PUSH2 0x38E JUMPI DUP1 PUSH4 0x6FDDE03 EQ PUSH2 0x3CA JUMPI DUP1 PUSH4 0x81812FC EQ PUSH2 0x3F4 JUMPI DUP1 PUSH4 0x95EA7B3 EQ PUSH2 0x430 JUMPI DUP1 PUSH4 0x1693D2EB EQ PUSH2 0x458 JUMPI JUMPDEST PUSH0 DUP1 REVERT JUMPDEST CALLVALUE DUP1 ISZERO PUSH2 0x35D JUMPI PUSH0 DUP1 REVERT JUMPDEST POP PUSH2 0x378 PUSH1 0x4 DUP1 CALLDATASIZE SUB DUP2 ADD SWAP1 PUSH2 0x373 SWAP2 SWAP1 PUSH2 0x4DCC JUMP JUMPDEST PUSH2 0xD2C JUMP JUMPDEST PUSH1 0x40 MLOAD PUSH2 0x385 SWAP2 SWAP1 PUSH2 0x4E0F JUMP JUMPDEST PUSH1 0x40 MLOAD DUP1 SWAP2 SUB SWAP1 RETURN JUMPDEST CALLVALUE DUP1 ISZERO PUSH2 0x399 JUMPI PUSH0 DUP1 REVERT JUMPDEST POP PUSH2 0x3B4 PUSH1 0x4 DUP1 CALLDATASIZE SUB DUP2 ADD SWAP1 PUSH2 0x3AF SWAP2 SWAP1 PUSH2 0x4E7D JUMP JUMPDEST PUSH2 0xD42 JUMP JUMPDEST PUSH1 0x40 MLOAD PUSH2 0x3C1 SWAP2 SWAP1 PUSH2 0x4EC2 JUMP JUMPDEST PUSH1 0x40 MLOAD DUP1 SWAP2 SUB SWAP1 RETURN JUMPDEST CALLVALUE DUP1 ISZERO PUSH2 0x3D5 JUMPI PUSH0 DUP1 REVERT JUMPDEST POP PUSH2 0x3DE PUSH2 0xD53 JUMP JUMPDEST PUSH1 0x40 MLOAD PUSH2 0x3EB SWAP2 SWAP1 PUSH2 0x4F65 JUMP JUMPDEST PUSH1 0x40 MLOAD DUP1 SWAP2 SUB SWAP1 RETURN JUMPDEST CALLVALUE DUP1 ISZERO PUSH2 0x3FF JUMPI PUSH0 DUP1 REVERT JUMPDEST POP PUSH2 0x41A PUSH1 0x4 DUP1 CALLDATASIZE SUB DUP2 ADD SWAP1 PUSH2 0x415 SWAP2 SWAP1 PUSH2 0x4FAF JUMP JUMPDEST PUSH2 0xDE3 JUMP JUMPDEST PUSH1 0x40 MLOAD PUSH2 0x427 SWAP2 SWAP1 PUSH2 0x4FE9 JUMP JUMPDEST PUSH1 0x40 MLOAD DUP1 SWAP2 SUB SWAP1 RETURN JUMPDEST CALLVALUE DUP1 ISZERO PUSH2 0x43B JUMPI PUSH0 DUP1 REVERT JUMPDEST POP PUSH2 0x456 PUSH1 0x4 DUP1 CALLDATASIZE SUB DUP2 ADD SWAP1 PUSH2 0x451 SWAP2 SWAP1 PUSH2 0x5002 JUMP JUMPDEST PUSH2 0xE25 JUMP JUMPDEST STOP JUMPDEST CALLVALUE DUP1 ISZERO PUSH2 0x463 JUMPI PUSH0 DUP1 REVERT JUMPDEST POP PUSH2 0x47E PUSH1 0x4 DUP1 CALLDATASIZE SUB DUP2 ADD SWAP1 PUSH2 0x479 SWAP2 SWAP1 PUSH2 0x50A1 JUMP JUMPDEST PUSH2 0xF3B JUMP JUMPDEST STOP JUMPDEST CALLVALUE DUP1 ISZERO PUSH2 0x48B JUMPI PUSH0 DUP1 REVERT JUMPDEST POP PUSH2 0x494 PUSH2 0x1057 JUMP JUMPDEST PUSH1 0x40 MLOAD PUSH2 0x4A1 SWAP2 SWAP1 PUSH2 0x4E0F JUMP JUMPDEST PUSH1 0x40 MLOAD DUP1 SWAP2 SUB SWAP1 RETURN JUMPDEST CALLVALUE DUP1 ISZERO PUSH2 0x4B5 JUMPI PUSH0 DUP1 REVERT JUMPDEST POP PUSH2 0x4D0 PUSH1 0x4 DUP1 CALLDATASIZE SUB DUP2 ADD SWAP1 PUSH2 0x4CB SWAP2 SWAP1 PUSH2 0x5226 JUMP JUMPDEST PUSH2 0x1063 JUMP JUMPDEST PUSH1 0x40 MLOAD PUSH2 0x4DD SWAP2 SWAP1 PUSH2 0x4E0F JUMP JUMPDEST PUSH1 0x40 MLOAD DUP1 SWAP2 SUB SWAP1 RETURN JUMPDEST CALLVALUE DUP1 ISZERO PUSH2 0x4F1 JUMPI PUSH0 DUP1 REVERT JUMPDEST POP PUSH2 0x50C PUSH1 0x4 DUP1 CALLDATASIZE SUB DUP2 ADD SWAP1 PUSH2 0x507 SWAP2 SWAP1 PUSH2 0x52C2 JUMP JUMPDEST PUSH2 0x1091 JUMP JUMPDEST STOP JUMPDEST CALLVALUE DUP1 ISZERO PUSH2 0x519 JUMPI PUSH0 DUP1 REVERT JUMPDEST POP PUSH2 0x534 PUSH1 0x4 DUP1 CALLDATASIZE SUB DUP2 ADD SWAP1 PUSH2 0x52F SWAP2 SWAP1 PUSH2 0x530D JUMP JUMPDEST PUSH2 0x10B5 JUMP JUMPDEST STOP JUMPDEST CALLVALUE DUP1 ISZERO PUSH2 0x541 JUMPI PUSH0 DUP1 REVERT JUMPDEST POP PUSH2 0x55C PUSH1 0x4 DUP1 CALLDATASIZE SUB DUP2 ADD SWAP1 PUSH2 0x557 SWAP2 SWAP1 PUSH2 0x5390 JUMP JUMPDEST PUSH2 0x1115 JUMP JUMPDEST PUSH1 0x40 MLOAD PUSH2 0x569 SWAP2 SWAP1 PUSH2 0x53CA JUMP JUMPDEST PUSH1 0x40 MLOAD DUP1 SWAP2 SUB SWAP1 RETURN JUMPDEST CALLVALUE DUP1 ISZERO PUSH2 0x57D JUMPI PUSH0 DUP1 REVERT JUMPDEST POP PUSH2 0x598 PUSH1 0x4 DUP1 CALLDATASIZE SUB DUP2 ADD SWAP1 PUSH2 0x593 SWAP2 SWAP1 PUSH2 0x5459 JUMP JUMPDEST PUSH2 0x1132 JUMP JUMPDEST STOP JUMPDEST CALLVALUE DUP1 ISZERO PUSH2 0x5A5 JUMPI PUSH0 DUP1 REVERT JUMPDEST POP PUSH2 0x5C0 PUSH1 0x4 DUP1 CALLDATASIZE SUB DUP2 ADD SWAP1 PUSH2 0x5BB SWAP2 SWAP1 PUSH2 0x4DCC JUMP JUMPDEST PUSH2 0x1209 JUMP JUMPDEST PUSH1 0x40 MLOAD PUSH2 0x5CD SWAP2 SWAP1 PUSH2 0x4E0F JUMP JUMPDEST PUSH1 0x40 MLOAD DUP1 SWAP2 SUB SWAP1 RETURN JUMPDEST CALLVALUE DUP1 ISZERO PUSH2 0x5E1 JUMPI PUSH0 DUP1 REVERT JUMPDEST POP PUSH2 0x5FC PUSH1 0x4 DUP1 CALLDATASIZE SUB DUP2 ADD SWAP1 PUSH2 0x5F7 SWAP2 SWAP1 PUSH2 0x5542 JUMP JUMPDEST PUSH2 0x121F JUMP JUMPDEST STOP JUMPDEST CALLVALUE DUP1 ISZERO PUSH2 0x609 JUMPI PUSH0 DUP1 REVERT JUMPDEST POP PUSH2 0x624 PUSH1 0x4 DUP1 CALLDATASIZE SUB DUP2 ADD SWAP1 PUSH2 0x61F SWAP2 SWAP1 PUSH2 0x5002 JUMP JUMPDEST PUSH2 0x1240 JUMP JUMPDEST PUSH1 0x40 MLOAD PUSH2 0x631 SWAP2 SWAP1 PUSH2 0x4E0F JUMP JUMPDEST PUSH1 0x40 MLOAD DUP1 SWAP2 SUB SWAP1 RETURN JUMPDEST CALLVALUE DUP1 ISZERO PUSH2 0x645 JUMPI PUSH0 DUP1 REVERT JUMPDEST POP PUSH2 0x660 PUSH1 0x4 DUP1 CALLDATASIZE SUB DUP2 ADD SWAP1 PUSH2 0x65B SWAP2 SWAP1 PUSH2 0x4DCC JUMP JUMPDEST PUSH2 0x12E0 JUMP JUMPDEST STOP JUMPDEST CALLVALUE DUP1 ISZERO PUSH2 0x66D JUMPI PUSH0 DUP1 REVERT JUMPDEST POP PUSH2 0x688 PUSH1 0x4 DUP1 CALLDATASIZE SUB DUP2 ADD SWAP1 PUSH2 0x683 SWAP2 SWAP1 PUSH2 0x561E JUMP JUMPDEST PUSH2 0x13BF JUMP JUMPDEST STOP JUMPDEST CALLVALUE DUP1 ISZERO PUSH2 0x695 JUMPI PUSH0 DUP1 REVERT JUMPDEST POP PUSH2 0x6B0 PUSH1 0x4 DUP1 CALLDATASIZE SUB DUP2 ADD SWAP1 PUSH2 0x6AB SWAP2 SWAP1 PUSH2 0x5542 JUMP JUMPDEST PUSH2 0x13E0 JUMP JUMPDEST STOP JUMPDEST CALLVALUE DUP1 ISZERO PUSH2 0x6BD JUMPI PUSH0 DUP1 REVERT JUMPDEST POP PUSH2 0x6D8 PUSH1 0x4 DUP1 CALLDATASIZE SUB DUP2 ADD SWAP1 PUSH2 0x6D3 SWAP2 SWAP1 PUSH2 0x4DCC JUMP JUMPDEST PUSH2 0x1463 JUMP JUMPDEST STOP JUMPDEST CALLVALUE DUP1 ISZERO PUSH2 0x6E5 JUMPI PUSH0 DUP1 REVERT JUMPDEST POP PUSH2 0x6EE PUSH2 0x15E9 JUMP JUMPDEST PUSH1 0x40 MLOAD PUSH2 0x6FB SWAP2 SWAP1 PUSH2 0x4E0F JUMP JUMPDEST PUSH1 0x40 MLOAD DUP1 SWAP2 SUB SWAP1 RETURN JUMPDEST CALLVALUE DUP1 ISZERO PUSH2 0x70F JUMPI PUSH0 DUP1 REVERT JUMPDEST POP PUSH2 0x72A PUSH1 0x4 DUP1 CALLDATASIZE SUB DUP2 ADD SWAP1 PUSH2 0x725 SWAP2 SWAP1 PUSH2 0x530D JUMP JUMPDEST PUSH2 0x15F0 JUMP JUMPDEST STOP JUMPDEST CALLVALUE DUP1 ISZERO PUSH2 0x737 JUMPI PUSH0 DUP1 REVERT JUMPDEST POP PUSH2 0x752 PUSH1 0x4 DUP1 CALLDATASIZE SUB DUP2 ADD SWAP1 PUSH2 0x74D SWAP2 SWAP1 PUSH2 0x4FAF JUMP JUMPDEST PUSH2 0x160F JUMP JUMPDEST STOP JUMPDEST CALLVALUE DUP1 ISZERO PUSH2 0x75F JUMPI PUSH0 DUP1 REVERT JUMPDEST POP PUSH2 0x768 PUSH2 0x166B JUMP JUMPDEST PUSH1 0x40 MLOAD PUSH2 0x775 SWAP2 SWAP1 PUSH2 0x573B JUMP JUMPDEST PUSH1 0x40 MLOAD DUP1 SWAP2 SUB SWAP1 RETURN JUMPDEST PUSH2 0x798 PUSH1 0x4 DUP1 CALLDATASIZE SUB DUP2 ADD SWAP1 PUSH2 0x793 SWAP2 SWAP1 PUSH2 0x575B JUMP JUMPDEST PUSH2 0x16F8 JUMP JUMPDEST STOP JUMPDEST CALLVALUE DUP1 ISZERO PUSH2 0x7A5 JUMPI PUSH0 DUP1 REVERT JUMPDEST POP PUSH2 0x7C0 PUSH1 0x4 DUP1 CALLDATASIZE SUB DUP2 ADD SWAP1 PUSH2 0x7BB SWAP2 SWAP1 PUSH2 0x4FAF JUMP JUMPDEST PUSH2 0x1834 JUMP JUMPDEST PUSH1 0x40 MLOAD PUSH2 0x7CD SWAP2 SWAP1 PUSH2 0x4E0F JUMP JUMPDEST PUSH1 0x40 MLOAD DUP1 SWAP2 SUB SWAP1 RETURN JUMPDEST CALLVALUE DUP1 ISZERO PUSH2 0x7E1 JUMPI PUSH0 DUP1 REVERT JUMPDEST POP PUSH2 0x7FC PUSH1 0x4 DUP1 CALLDATASIZE SUB DUP2 ADD SWAP1 PUSH2 0x7F7 SWAP2 SWAP1 PUSH2 0x4DCC JUMP JUMPDEST PUSH2 0x18A2 JUMP JUMPDEST STOP JUMPDEST CALLVALUE DUP1 ISZERO PUSH2 0x809 JUMPI PUSH0 DUP1 REVERT JUMPDEST POP PUSH2 0x812 PUSH2 0x18F6 JUMP JUMPDEST PUSH1 0x40 MLOAD PUSH2 0x81F SWAP2 SWAP1 PUSH2 0x53CA JUMP JUMPDEST PUSH1 0x40 MLOAD DUP1 SWAP2 SUB SWAP1 RETURN JUMPDEST CALLVALUE DUP1 ISZERO PUSH2 0x833 JUMPI PUSH0 DUP1 REVERT JUMPDEST POP PUSH2 0x83C PUSH2 0x19AD JUMP JUMPDEST PUSH1 0x40 MLOAD PUSH2 0x849 SWAP2 SWAP1 PUSH2 0x4F65 JUMP JUMPDEST PUSH1 0x40 MLOAD DUP1 SWAP2 SUB SWAP1 RETURN JUMPDEST CALLVALUE DUP1 ISZERO PUSH2 0x85D JUMPI PUSH0 DUP1 REVERT JUMPDEST POP PUSH2 0x878 PUSH1 0x4 DUP1 CALLDATASIZE SUB DUP2 ADD SWAP1 PUSH2 0x873 SWAP2 SWAP1 PUSH2 0x57B5 JUMP JUMPDEST PUSH2 0x19EA JUMP JUMPDEST STOP JUMPDEST CALLVALUE DUP1 ISZERO PUSH2 0x885 JUMPI PUSH0 DUP1 REVERT JUMPDEST POP PUSH2 0x8A0 PUSH1 0x4 DUP1 CALLDATASIZE SUB DUP2 ADD SWAP1 PUSH2 0x89B SWAP2 SWAP1 PUSH2 0x4FAF JUMP JUMPDEST PUSH2 0x1A0E JUMP JUMPDEST PUSH1 0x40 MLOAD PUSH2 0x8AF SWAP4 SWAP3 SWAP2 SWAP1 PUSH2 0x5800 JUMP JUMPDEST PUSH1 0x40 MLOAD DUP1 SWAP2 SUB SWAP1 RETURN JUMPDEST CALLVALUE DUP1 ISZERO PUSH2 0x8C3 JUMPI PUSH0 DUP1 REVERT JUMPDEST POP PUSH2 0x8CC PUSH2 0x1BC7 JUMP JUMPDEST PUSH1 0x40 MLOAD PUSH2 0x8D9 SWAP2 SWAP1 PUSH2 0x4E0F JUMP JUMPDEST PUSH1 0x40 MLOAD DUP1 SWAP2 SUB SWAP1 RETURN JUMPDEST CALLVALUE DUP1 ISZERO PUSH2 0x8ED JUMPI PUSH0 DUP1 REVERT JUMPDEST POP PUSH2 0x8F6 PUSH2 0x1BCE JUMP JUMPDEST PUSH1 0x40 MLOAD PUSH2 0x903 SWAP2 SWAP1 PUSH2 0x573B JUMP JUMPDEST PUSH1 0x40 MLOAD DUP1 SWAP2 SUB SWAP1 RETURN JUMPDEST CALLVALUE DUP1 ISZERO PUSH2 0x917 JUMPI PUSH0 DUP1 REVERT JUMPDEST POP PUSH2 0x932 PUSH1 0x4 DUP1 CALLDATASIZE SUB DUP2 ADD SWAP1 PUSH2 0x92D SWAP2 SWAP1 PUSH2 0x4FAF JUMP JUMPDEST PUSH2 0x1C5B JUMP JUMPDEST PUSH1 0x40 MLOAD PUSH2 0x93F SWAP2 SWAP1 PUSH2 0x4FE9 JUMP JUMPDEST PUSH1 0x40 MLOAD DUP1 SWAP2 SUB SWAP1 RETURN JUMPDEST CALLVALUE DUP1 ISZERO PUSH2 0x953 JUMPI PUSH0 DUP1 REVERT JUMPDEST POP PUSH2 0x95C PUSH2 0x1D07 JUMP JUMPDEST PUSH1 0x40 MLOAD PUSH2 0x969 SWAP2 SWAP1 PUSH2 0x4F65 JUMP JUMPDEST PUSH1 0x40 MLOAD DUP1 SWAP2 SUB SWAP1 RETURN JUMPDEST CALLVALUE DUP1 ISZERO PUSH2 0x97D JUMPI PUSH0 DUP1 REVERT JUMPDEST POP PUSH2 0x998 PUSH1 0x4 DUP1 CALLDATASIZE SUB DUP2 ADD SWAP1 PUSH2 0x993 SWAP2 SWAP1 PUSH2 0x4DCC JUMP JUMPDEST PUSH2 0x1D94 JUMP JUMPDEST PUSH1 0x40 MLOAD PUSH2 0x9A5 SWAP2 SWAP1 PUSH2 0x4E0F JUMP JUMPDEST PUSH1 0x40 MLOAD DUP1 SWAP2 SUB SWAP1 RETURN JUMPDEST CALLVALUE DUP1 ISZERO PUSH2 0x9B9 JUMPI PUSH0 DUP1 REVERT JUMPDEST POP PUSH2 0x9C2 PUSH2 0x1E48 JUMP JUMPDEST PUSH1 0x40 MLOAD PUSH2 0x9CF SWAP2 SWAP1 PUSH2 0x4E0F JUMP JUMPDEST PUSH1 0x40 MLOAD DUP1 SWAP2 SUB SWAP1 RETURN JUMPDEST CALLVALUE DUP1 ISZERO PUSH2 0x9E3 JUMPI PUSH0 DUP1 REVERT JUMPDEST POP PUSH2 0x9EC PUSH2 0x1E4F JUMP JUMPDEST STOP JUMPDEST CALLVALUE DUP1 ISZERO PUSH2 0x9F9 JUMPI PUSH0 DUP1 REVERT JUMPDEST POP PUSH2 0xA14 PUSH1 0x4 DUP1 CALLDATASIZE SUB DUP2 ADD SWAP1 PUSH2 0xA0F SWAP2 SWAP1 PUSH2 0x5ABA JUMP JUMPDEST PUSH2 0x201F JUMP JUMPDEST STOP JUMPDEST CALLVALUE DUP1 ISZERO PUSH2 0xA21 JUMPI PUSH0 DUP1 REVERT JUMPDEST POP PUSH2 0xA3C PUSH1 0x4 DUP1 CALLDATASIZE SUB DUP2 ADD SWAP1 PUSH2 0xA37 SWAP2 SWAP1 PUSH2 0x4DCC JUMP JUMPDEST PUSH2 0x2668 JUMP JUMPDEST STOP JUMPDEST CALLVALUE DUP1 ISZERO PUSH2 0xA49 JUMPI PUSH0 DUP1 REVERT JUMPDEST POP PUSH2 0xA64 PUSH1 0x4 DUP1 CALLDATASIZE SUB DUP2 ADD SWAP1 PUSH2 0xA5F SWAP2 SWAP1 PUSH2 0x5542 JUMP JUMPDEST PUSH2 0x26B9 JUMP JUMPDEST PUSH1 0x40 MLOAD PUSH2 0xA71 SWAP2 SWAP1 PUSH2 0x4EC2 JUMP JUMPDEST PUSH1 0x40 MLOAD DUP1 SWAP2 SUB SWAP1 RETURN JUMPDEST CALLVALUE DUP1 ISZERO PUSH2 0xA85 JUMPI PUSH0 DUP1 REVERT JUMPDEST POP PUSH2 0xA8E PUSH2 0x271D JUMP JUMPDEST PUSH1 0x40 MLOAD PUSH2 0xA9B SWAP2 SWAP1 PUSH2 0x4F65 JUMP JUMPDEST PUSH1 0x40 MLOAD DUP1 SWAP2 SUB SWAP1 RETURN JUMPDEST CALLVALUE DUP1 ISZERO PUSH2 0xAAF JUMPI PUSH0 DUP1 REVERT JUMPDEST POP PUSH2 0xAB8 PUSH2 0x27AD JUMP JUMPDEST PUSH1 0x40 MLOAD PUSH2 0xAC5 SWAP2 SWAP1 PUSH2 0x4F65 JUMP JUMPDEST PUSH1 0x40 MLOAD DUP1 SWAP2 SUB SWAP1 RETURN JUMPDEST CALLVALUE DUP1 ISZERO PUSH2 0xAD9 JUMPI PUSH0 DUP1 REVERT JUMPDEST POP PUSH2 0xAE2 PUSH2 0x283A JUMP JUMPDEST PUSH1 0x40 MLOAD PUSH2 0xAEF SWAP2 SWAP1 PUSH2 0x53CA JUMP JUMPDEST PUSH1 0x40 MLOAD DUP1 SWAP2 SUB SWAP1 RETURN JUMPDEST CALLVALUE DUP1 ISZERO PUSH2 0xB03 JUMPI PUSH0 DUP1 REVERT JUMPDEST POP PUSH2 0xB1E PUSH1 0x4 DUP1 CALLDATASIZE SUB DUP2 ADD SWAP1 PUSH2 0xB19 SWAP2 SWAP1 PUSH2 0x5B24 JUMP JUMPDEST PUSH2 0x2840 JUMP JUMPDEST STOP JUMPDEST CALLVALUE DUP1 ISZERO PUSH2 0xB2B JUMPI PUSH0 DUP1 REVERT JUMPDEST POP PUSH2 0xB46 PUSH1 0x4 DUP1 CALLDATASIZE SUB DUP2 ADD SWAP1 PUSH2 0xB41 SWAP2 SWAP1 PUSH2 0x5226 JUMP JUMPDEST PUSH2 0x2856 JUMP JUMPDEST PUSH1 0x40 MLOAD PUSH2 0xB53 SWAP2 SWAP1 PUSH2 0x4E0F JUMP JUMPDEST PUSH1 0x40 MLOAD DUP1 SWAP2 SUB SWAP1 RETURN JUMPDEST CALLVALUE DUP1 ISZERO PUSH2 0xB67 JUMPI PUSH0 DUP1 REVERT JUMPDEST POP PUSH2 0xB82 PUSH1 0x4 DUP1 CALLDATASIZE SUB DUP2 ADD SWAP1 PUSH2 0xB7D SWAP2 SWAP1 PUSH2 0x5B62 JUMP JUMPDEST PUSH2 0x2884 JUMP JUMPDEST STOP JUMPDEST CALLVALUE DUP1 ISZERO PUSH2 0xB8F JUMPI PUSH0 DUP1 REVERT JUMPDEST POP PUSH2 0xBAA PUSH1 0x4 DUP1 CALLDATASIZE SUB DUP2 ADD SWAP1 PUSH2 0xBA5 SWAP2 SWAP1 PUSH2 0x5BE2 JUMP JUMPDEST PUSH2 0x28E6 JUMP JUMPDEST STOP JUMPDEST CALLVALUE DUP1 ISZERO PUSH2 0xBB7 JUMPI PUSH0 DUP1 REVERT JUMPDEST POP PUSH2 0xBD2 PUSH1 0x4 DUP1 CALLDATASIZE SUB DUP2 ADD SWAP1 PUSH2 0xBCD SWAP2 SWAP1 PUSH2 0x4FAF JUMP JUMPDEST PUSH2 0x2989 JUMP JUMPDEST PUSH1 0x40 MLOAD PUSH2 0xBDF SWAP2 SWAP1 PUSH2 0x4F65 JUMP JUMPDEST PUSH1 0x40 MLOAD DUP1 SWAP2 SUB SWAP1 RETURN JUMPDEST CALLVALUE DUP1 ISZERO PUSH2 0xBF3 JUMPI PUSH0 DUP1 REVERT JUMPDEST POP PUSH2 0xC0E PUSH1 0x4 DUP1 CALLDATASIZE SUB DUP2 ADD SWAP1 PUSH2 0xC09 SWAP2 SWAP1 PUSH2 0x5542 JUMP JUMPDEST PUSH2 0x29EE JUMP JUMPDEST STOP JUMPDEST CALLVALUE DUP1 ISZERO PUSH2 0xC1B JUMPI PUSH0 DUP1 REVERT JUMPDEST POP PUSH2 0xC36 PUSH1 0x4 DUP1 CALLDATASIZE SUB DUP2 ADD SWAP1 PUSH2 0xC31 SWAP2 SWAP1 PUSH2 0x4FAF JUMP JUMPDEST PUSH2 0x2A0F JUMP JUMPDEST PUSH1 0x40 MLOAD PUSH2 0xC43 SWAP2 SWAP1 PUSH2 0x4E0F JUMP JUMPDEST PUSH1 0x40 MLOAD DUP1 SWAP2 SUB SWAP1 RETURN JUMPDEST CALLVALUE DUP1 ISZERO PUSH2 0xC57 JUMPI PUSH0 DUP1 REVERT JUMPDEST POP PUSH2 0xC60 PUSH2 0x2A29 JUMP JUMPDEST PUSH1 0x40 MLOAD PUSH2 0xC6D SWAP2 SWAP1 PUSH2 0x4FE9 JUMP JUMPDEST PUSH1 0x40 MLOAD DUP1 SWAP2 SUB SWAP1 RETURN JUMPDEST CALLVALUE DUP1 ISZERO PUSH2 0xC81 JUMPI PUSH0 DUP1 REVERT JUMPDEST POP PUSH2 0xC9C PUSH1 0x4 DUP1 CALLDATASIZE SUB DUP2 ADD SWAP1 PUSH2 0xC97 SWAP2 SWAP1 PUSH2 0x57B5 JUMP JUMPDEST PUSH2 0x2A4F JUMP JUMPDEST STOP JUMPDEST CALLVALUE DUP1 ISZERO PUSH2 0xCA9 JUMPI PUSH0 DUP1 REVERT JUMPDEST POP PUSH2 0xCC4 PUSH1 0x4 DUP1 CALLDATASIZE SUB DUP2 ADD SWAP1 PUSH2 0xCBF SWAP2 SWAP1 PUSH2 0x57B5 JUMP JUMPDEST PUSH2 0x2A90 JUMP JUMPDEST STOP JUMPDEST CALLVALUE DUP1 ISZERO PUSH2 0xCD1 JUMPI PUSH0 DUP1 REVERT JUMPDEST POP PUSH2 0xCEC PUSH1 0x4 DUP1 CALLDATASIZE SUB DUP2 ADD SWAP1 PUSH2 0xCE7 SWAP2 SWAP1 PUSH2 0x5C3F JUMP JUMPDEST PUSH2 0x2ADA JUMP JUMPDEST PUSH1 0x40 MLOAD PUSH2 0xCF9 SWAP2 SWAP1 PUSH2 0x4EC2 JUMP JUMPDEST PUSH1 0x40 MLOAD DUP1 SWAP2 SUB SWAP1 RETURN JUMPDEST CALLVALUE DUP1 ISZERO PUSH2 0xD0D JUMPI PUSH0 DUP1 REVERT JUMPDEST POP PUSH2 0xD16 PUSH2 0x2B68 JUMP JUMPDEST PUSH1 0x40 MLOAD PUSH2 0xD23 SWAP2 SWAP1 PUSH2 0x4F65 JUMP JUMPDEST PUSH1 0x40 MLOAD DUP1 SWAP2 SUB SWAP1 RETURN JUMPDEST PUSH2 0x194 PUSH1 0x20 MSTORE DUP1 PUSH0 MSTORE PUSH1 0x40 PUSH0 KECCAK256 PUSH0 SWAP2 POP SWAP1 POP SLOAD DUP2 JUMP JUMPDEST PUSH0 PUSH2 0xD4C DUP3 PUSH2 0x2BF5 JUMP JUMPDEST SWAP1 POP SWAP2 SWAP1 POP JUMP JUMPDEST PUSH1 0x60 PUSH1 0x65 DUP1 SLOAD PUSH2 0xD62 SWAP1 PUSH2 0x5CAA JUMP JUMPDEST DUP1 PUSH1 0x1F ADD PUSH1 0x20 DUP1 SWAP2 DIV MUL PUSH1 0x20 ADD PUSH1 0x40 MLOAD SWAP1 DUP2 ADD PUSH1 0x40 MSTORE DUP1 SWAP3 SWAP2 SWAP1 DUP2 DUP2 MSTORE PUSH1 0x20 ADD DUP3 DUP1 SLOAD PUSH2 0xD8E SWAP1 PUSH2 0x5CAA JUMP JUMPDEST DUP1 ISZERO PUSH2 0xDD9 JUMPI DUP1 PUSH1 0x1F LT PUSH2 0xDB0 JUMPI PUSH2 0x100 DUP1 DUP4 SLOAD DIV MUL DUP4 MSTORE SWAP2 PUSH1 0x20 ADD SWAP2 PUSH2 0xDD9 JUMP JUMPDEST DUP3 ADD SWAP2 SWAP1 PUSH0 MSTORE PUSH1 0x20 PUSH0 KECCAK256 SWAP1 JUMPDEST DUP2 SLOAD DUP2 MSTORE SWAP1 PUSH1 0x1 ADD SWAP1 PUSH1 0x20 ADD DUP1 DUP4 GT PUSH2 0xDBC JUMPI DUP3 SWAP1 SUB PUSH1 0x1F AND DUP3 ADD SWAP2 JUMPDEST POP POP POP POP POP SWAP1 POP SWAP1 JUMP JUMPDEST PUSH0 PUSH2 0xDED DUP3 PUSH2 0x2C6E JUMP JUMPDEST PUSH1 0x69 PUSH0 DUP4 DUP2 MSTORE PUSH1 0x20 ADD SWAP1 DUP2 MSTORE PUSH1 0x20 ADD PUSH0 KECCAK256 PUSH0 SWAP1 SLOAD SWAP1 PUSH2 0x100 EXP SWAP1 DIV PUSH20 0xFFFFFFFFFFFFFFFFFFFFFFFFFFFFFFFFFFFFFFFF AND SWAP1 POP SWAP2 SWAP1 POP JUMP JUMPDEST PUSH0 PUSH2 0xE2F DUP3 PUSH2 0x1C5B JUMP JUMPDEST SWAP1 POP DUP1 PUSH20 0xFFFFFFFFFFFFFFFFFFFFFFFFFFFFFFFFFFFFFFFF AND DUP4 PUSH20 0xFFFFFFFFFFFFFFFFFFFFFFFFFFFFFFFFFFFFFFFF AND SUB PUSH2 0xE9F JUMPI PUSH1 0x40 MLOAD PUSH32 0x8C379A000000000000000000000000000000000000000000000000000000000 DUP2 MSTORE PUSH1 0x4 ADD PUSH2 0xE96 SWAP1 PUSH2 0x5D4A JUMP JUMPDEST PUSH1 0x40 MLOAD DUP1 SWAP2 SUB SWAP1 REVERT JUMPDEST DUP1 PUSH20 0xFFFFFFFFFFFFFFFFFFFFFFFFFFFFFFFFFFFFFFFF AND PUSH2 0xEBE PUSH2 0x2CB9 JUMP JUMPDEST PUSH20 0xFFFFFFFFFFFFFFFFFFFFFFFFFFFFFFFFFFFFFFFF AND EQ DUP1 PUSH2 0xEED JUMPI POP PUSH2 0xEEC DUP2 PUSH2 0xEE7 PUSH2 0x2CB9 JUMP JUMPDEST PUSH2 0x2ADA JUMP JUMPDEST JUMPDEST PUSH2 0xF2C JUMPI PUSH1 0x40 MLOAD PUSH32 0x8C379A000000000000000000000000000000000000000000000000000000000 DUP2 MSTORE PUSH1 0x4 ADD PUSH2 0xF23 SWAP1 PUSH2 0x5DD8 JUMP JUMPDEST PUSH1 0x40 MLOAD DUP1 SWAP2 SUB SWAP1 REVERT JUMPDEST PUSH2 0xF36 DUP4 DUP4 PUSH2 0x2CC0 JUMP JUMPDEST POP POP POP JUMP JUMPDEST PUSH1 0x1 PUSH2 0x1A2 PUSH0 CALLER PUSH20 0xFFFFFFFFFFFFFFFFFFFFFFFFFFFFFFFFFFFFFFFF AND PUSH20 0xFFFFFFFFFFFFFFFFFFFFFFFFFFFFFFFFFFFFFFFF AND DUP2 MSTORE PUSH1 0x20 ADD SWAP1 DUP2 MSTORE PUSH1 0x20 ADD PUSH0 KECCAK256 SLOAD EQ PUSH2 0xFBC JUMPI PUSH1 0x40 MLOAD PUSH32 0x8C379A000000000000000000000000000000000000000000000000000000000 DUP2 MSTORE PUSH1 0x4 ADD PUSH2 0xFB3 SWAP1 PUSH2 0x5E40 JUMP JUMPDEST PUSH1 0x40 MLOAD DUP1 SWAP2 SUB SWAP1 REVERT JUMPDEST PUSH0 JUMPDEST DUP4 DUP4 SWAP1 POP DUP2 LT ISZERO PUSH2 0x1051 JUMPI DUP2 PUSH2 0x194 PUSH0 DUP7 DUP7 DUP6 DUP2 DUP2 LT PUSH2 0xFE1 JUMPI PUSH2 0xFE0 PUSH2 0x5E5E JUMP JUMPDEST JUMPDEST SWAP1 POP PUSH1 0x20 MUL ADD PUSH1 0x20 DUP2 ADD SWAP1 PUSH2 0xFF6 SWAP2 SWAP1 PUSH2 0x4DCC JUMP JUMPDEST PUSH20 0xFFFFFFFFFFFFFFFFFFFFFFFFFFFFFFFFFFFFFFFF AND PUSH20 0xFFFFFFFFFFFFFFFFFFFFFFFFFFFFFFFFFFFFFFFF AND DUP2 MSTORE PUSH1 0x20 ADD SWAP1 DUP2 MSTORE PUSH1 0x20 ADD PUSH0 KECCAK256 PUSH0 DUP3 DUP3 SLOAD PUSH2 0x103D SWAP2 SWAP1 PUSH2 0x5EB8 JUMP JUMPDEST SWAP3 POP POP DUP2 SWAP1 SSTORE POP DUP1 DUP1 PUSH1 0x1 ADD SWAP2 POP POP PUSH2 0xFBE JUMP JUMPDEST POP POP POP POP JUMP JUMPDEST PUSH0 PUSH1 0x99 DUP1 SLOAD SWAP1 POP SWAP1 POP SWAP1 JUMP JUMPDEST PUSH2 0x19D DUP2 DUP1 MLOAD PUSH1 0x20 DUP2 ADD DUP3 ADD DUP1 MLOAD DUP5 DUP3 MSTORE PUSH1 0x20 DUP4 ADD PUSH1 0x20 DUP6 ADD KECCAK256 DUP2 DUP4 MSTORE DUP1 SWAP6 POP POP POP POP POP POP PUSH0 SWAP2 POP SWAP1 POP SLOAD DUP2 JUMP JUMPDEST PUSH0 DUP1 SHL PUSH2 0x109D DUP2 PUSH2 0x2D76 JUMP JUMPDEST DUP3 DUP3 PUSH2 0x195 SWAP2 DUP3 PUSH2 0x10AF SWAP3 SWAP2 SWAP1 PUSH2 0x6092 JUMP JUMPDEST POP POP POP POP JUMP JUMPDEST PUSH2 0x10C6 PUSH2 0x10C0 PUSH2 0x2CB9 JUMP JUMPDEST DUP3 PUSH2 0x2D8A JUMP JUMPDEST PUSH2 0x1105 JUMPI PUSH1 0x40 MLOAD PUSH32 0x8C379A000000000000000000000000000000000000000000000000000000000 DUP2 MSTORE PUSH1 0x4 ADD PUSH2 0x10FC SWAP1 PUSH2 0x61CF JUMP JUMPDEST PUSH1 0x40 MLOAD DUP1 SWAP2 SUB SWAP1 REVERT JUMPDEST PUSH2 0x1110 DUP4 DUP4 DUP4 PUSH2 0x2E1E JUMP JUMPDEST POP POP POP JUMP JUMPDEST PUSH0 PUSH1 0xFB PUSH0 DUP4 DUP2 MSTORE PUSH1 0x20 ADD SWAP1 DUP2 MSTORE PUSH1 0x20 ADD PUSH0 KECCAK256 PUSH1 0x1 ADD SLOAD SWAP1 POP SWAP2 SWAP1 POP JUMP JUMPDEST PUSH0 DUP1 SHL PUSH2 0x113E DUP2 PUSH2 0x2D76 JUMP JUMPDEST PUSH2 0x1148 DUP8 DUP8 PUSH2 0x2A90 JUMP JUMPDEST DUP10 PUSH2 0x197 PUSH0 PUSH2 0x100 EXP DUP2 SLOAD DUP2 PUSH20 0xFFFFFFFFFFFFFFFFFFFFFFFFFFFFFFFFFFFFFFFF MUL NOT AND SWAP1 DUP4 PUSH20 0xFFFFFFFFFFFFFFFFFFFFFFFFFFFFFFFFFFFFFFFF AND MUL OR SWAP1 SSTORE POP DUP9 PUSH2 0x198 SWAP1 PUSH1 0x1 PUSH2 0x119B SWAP3 SWAP2 SWAP1 PUSH2 0x4D06 JUMP JUMPDEST POP DUP7 DUP7 PUSH2 0x19F SWAP2 DUP3 PUSH2 0x11AE SWAP3 SWAP2 SWAP1 PUSH2 0x624F JUMP JUMPDEST POP DUP5 DUP5 PUSH2 0x1A0 SWAP2 DUP3 PUSH2 0x11C1 SWAP3 SWAP2 SWAP1 PUSH2 0x624F JUMP JUMPDEST POP DUP3 DUP3 PUSH2 0x1A1 SWAP2 DUP3 PUSH2 0x11D4 SWAP3 SWAP2 SWAP1 PUSH2 0x6092 JUMP JUMPDEST POP DUP8 PUSH2 0x19B DUP2 SWAP1 SSTORE POP PUSH0 PUSH2 0x19C DUP2 SWAP1 SSTORE POP PUSH2 0x19A PUSH0 DUP2 SLOAD DUP1 SWAP3 SWAP2 SWAP1 PUSH2 0x11F8 SWAP1 PUSH2 0x631C JUMP JUMPDEST SWAP2 SWAP1 POP SSTORE POP POP POP POP POP POP POP POP POP POP POP JUMP JUMPDEST PUSH2 0x1A2 PUSH1 0x20 MSTORE DUP1 PUSH0 MSTORE PUSH1 0x40 PUSH0 KECCAK256 PUSH0 SWAP2 POP SWAP1 POP SLOAD DUP2 JUMP JUMPDEST PUSH2 0x1228 DUP3 PUSH2 0x1115 JUMP JUMPDEST PUSH2 0x1231 DUP2 PUSH2 0x2D76 JUMP JUMPDEST PUSH2 0x123B DUP4 DUP4 PUSH2 0x3079 JUMP JUMPDEST POP POP POP JUMP JUMPDEST PUSH0 PUSH2 0x124A DUP4 PUSH2 0x1D94 JUMP JUMPDEST DUP3 LT PUSH2 0x128B JUMPI PUSH1 0x40 MLOAD PUSH32 0x8C379A000000000000000000000000000000000000000000000000000000000 DUP2 MSTORE PUSH1 0x4 ADD PUSH2 0x1282 SWAP1 PUSH2 0x63D3 JUMP JUMPDEST PUSH1 0x40 MLOAD DUP1 SWAP2 SUB SWAP1 REVERT JUMPDEST PUSH1 0x97 PUSH0 DUP5 PUSH20 0xFFFFFFFFFFFFFFFFFFFFFFFFFFFFFFFFFFFFFFFF AND PUSH20 0xFFFFFFFFFFFFFFFFFFFFFFFFFFFFFFFFFFFFFFFF AND DUP2 MSTORE PUSH1 0x20 ADD SWAP1 DUP2 MSTORE PUSH1 0x20 ADD PUSH0 KECCAK256 PUSH0 DUP4 DUP2 MSTORE PUSH1 0x20 ADD SWAP1 DUP2 MSTORE PUSH1 0x20 ADD PUSH0 KECCAK256 SLOAD SWAP1 POP SWAP3 SWAP2 POP POP JUMP JUMPDEST PUSH0 PUSH2 0x194 PUSH0 CALLER PUSH20 0xFFFFFFFFFFFFFFFFFFFFFFFFFFFFFFFFFFFFFFFF AND PUSH20 0xFFFFFFFFFFFFFFFFFFFFFFFFFFFFFFFFFFFFFFFF AND DUP2 MSTORE PUSH1 0x20 ADD SWAP1 DUP2 MSTORE PUSH1 0x20 ADD PUSH0 KECCAK256 SLOAD GT PUSH2 0x1360 JUMPI PUSH1 0x40 MLOAD PUSH32 0x8C379A000000000000000000000000000000000000000000000000000000000 DUP2 MSTORE PUSH1 0x4 ADD PUSH2 0x1357 SWAP1 PUSH2 0x643B JUMP JUMPDEST PUSH1 0x40 MLOAD DUP1 SWAP2 SUB SWAP1 REVERT JUMPDEST PUSH2 0x194 PUSH0 CALLER PUSH20 0xFFFFFFFFFFFFFFFFFFFFFFFFFFFFFFFFFFFFFFFF AND PUSH20 0xFFFFFFFFFFFFFFFFFFFFFFFFFFFFFFFFFFFFFFFF AND DUP2 MSTORE PUSH1 0x20 ADD SWAP1 DUP2 MSTORE PUSH1 0x20 ADD PUSH0 KECCAK256 PUSH0 DUP2 SLOAD DUP1 SWAP3 SWAP2 SWAP1 PUSH2 0x13AE SWAP1 PUSH2 0x6459 JUMP JUMPDEST SWAP2 SWAP1 POP SSTORE POP PUSH2 0x13BC DUP2 PUSH2 0x3154 JUMP JUMPDEST POP JUMP JUMPDEST PUSH0 DUP1 SHL PUSH2 0x13CB DUP2 PUSH2 0x2D76 JUMP JUMPDEST PUSH2 0x13D8 DUP7 DUP7 DUP7 DUP7 DUP7 PUSH2 0x31F8 JUMP JUMPDEST POP POP POP POP POP POP JUMP JUMPDEST PUSH2 0x13E8 PUSH2 0x2CB9 JUMP JUMPDEST PUSH20 0xFFFFFFFFFFFFFFFFFFFFFFFFFFFFFFFFFFFFFFFF AND DUP2 PUSH20 0xFFFFFFFFFFFFFFFFFFFFFFFFFFFFFFFFFFFFFFFF AND EQ PUSH2 0x1455 JUMPI PUSH1 0x40 MLOAD PUSH32 0x8C379A000000000000000000000000000000000000000000000000000000000 DUP2 MSTORE PUSH1 0x4 ADD PUSH2 0x144C SWAP1 PUSH2 0x64F0 JUMP JUMPDEST PUSH1 0x40 MLOAD DUP1 SWAP2 SUB SWAP1 REVERT JUMPDEST PUSH2 0x145F DUP3 DUP3 PUSH2 0x338B JUMP JUMPDEST POP POP JUMP JUMPDEST PUSH32 0x0 PUSH20 0xFFFFFFFFFFFFFFFFFFFFFFFFFFFFFFFFFFFFFFFF AND ADDRESS PUSH20 0xFFFFFFFFFFFFFFFFFFFFFFFFFFFFFFFFFFFFFFFF AND SUB PUSH2 0x14F1 JUMPI PUSH1 0x40 MLOAD PUSH32 0x8C379A000000000000000000000000000000000000000000000000000000000 DUP2 MSTORE PUSH1 0x4 ADD PUSH2 0x14E8 SWAP1 PUSH2 0x657E JUMP JUMPDEST PUSH1 0x40 MLOAD DUP1 SWAP2 SUB SWAP1 REVERT JUMPDEST PUSH32 0x0 PUSH20 0xFFFFFFFFFFFFFFFFFFFFFFFFFFFFFFFFFFFFFFFF AND PUSH2 0x1530 PUSH2 0x3466 JUMP JUMPDEST PUSH20 0xFFFFFFFFFFFFFFFFFFFFFFFFFFFFFFFFFFFFFFFF AND EQ PUSH2 0x1586 JUMPI PUSH1 0x40 MLOAD PUSH32 0x8C379A000000000000000000000000000000000000000000000000000000000 DUP2 MSTORE PUSH1 0x4 ADD PUSH2 0x157D SWAP1 PUSH2 0x660C JUMP JUMPDEST PUSH1 0x40 MLOAD DUP1 SWAP2 SUB SWAP1 REVERT JUMPDEST PUSH2 0x158F DUP2 PUSH2 0x34B9 JUMP JUMPDEST PUSH2 0x15E6 DUP2 PUSH0 PUSH8 0xFFFFFFFFFFFFFFFF DUP2 GT ISZERO PUSH2 0x15AD JUMPI PUSH2 0x15AC PUSH2 0x5102 JUMP JUMPDEST JUMPDEST PUSH1 0x40 MLOAD SWAP1 DUP1 DUP3 MSTORE DUP1 PUSH1 0x1F ADD PUSH1 0x1F NOT AND PUSH1 0x20 ADD DUP3 ADD PUSH1 0x40 MSTORE DUP1 ISZERO PUSH2 0x15DF JUMPI DUP2 PUSH1 0x20 ADD PUSH1 0x1 DUP3 MUL DUP1 CALLDATASIZE DUP4 CALLDATACOPY DUP1 DUP3 ADD SWAP2 POP POP SWAP1 POP JUMPDEST POP PUSH0 PUSH2 0x34C9 JUMP JUMPDEST POP JUMP JUMPDEST PUSH2 0x19C SLOAD DUP2 JUMP JUMPDEST PUSH2 0x160A DUP4 DUP4 DUP4 PUSH1 0x40 MLOAD DUP1 PUSH1 0x20 ADD PUSH1 0x40 MSTORE DUP1 PUSH0 DUP2 MSTORE POP PUSH2 0x2884 JUMP JUMPDEST POP POP POP JUMP JUMPDEST PUSH2 0x1620 PUSH2 0x161A PUSH2 0x2CB9 JUMP JUMPDEST DUP3 PUSH2 0x2D8A JUMP JUMPDEST PUSH2 0x165F JUMPI PUSH1 0x40 MLOAD PUSH32 0x8C379A000000000000000000000000000000000000000000000000000000000 DUP2 MSTORE PUSH1 0x4 ADD PUSH2 0x1656 SWAP1 PUSH2 0x61CF JUMP JUMPDEST PUSH1 0x40 MLOAD DUP1 SWAP2 SUB SWAP1 REVERT JUMPDEST PUSH2 0x1668 DUP2 PUSH2 0x3633 JUMP JUMPDEST POP JUMP JUMPDEST PUSH2 0x1A1 DUP1 SLOAD PUSH2 0x1679 SWAP1 PUSH2 0x5CAA JUMP JUMPDEST DUP1 PUSH1 0x1F ADD PUSH1 0x20 DUP1 SWAP2 DIV MUL PUSH1 0x20 ADD PUSH1 0x40 MLOAD SWAP1 DUP2 ADD PUSH1 0x40 MSTORE DUP1 SWAP3 SWAP2 SWAP1 DUP2 DUP2 MSTORE PUSH1 0x20 ADD DUP3 DUP1 SLOAD PUSH2 0x16A5 SWAP1 PUSH2 0x5CAA JUMP JUMPDEST DUP1 ISZERO PUSH2 0x16F0 JUMPI DUP1 PUSH1 0x1F LT PUSH2 0x16C7 JUMPI PUSH2 0x100 DUP1 DUP4 SLOAD DIV MUL DUP4 MSTORE SWAP2 PUSH1 0x20 ADD SWAP2 PUSH2 0x16F0 JUMP JUMPDEST DUP3 ADD SWAP2 SWAP1 PUSH0 MSTORE PUSH1 0x20 PUSH0 KECCAK256 SWAP1 JUMPDEST DUP2 SLOAD DUP2 MSTORE SWAP1 PUSH1 0x1 ADD SWAP1 PUSH1 0x20 ADD DUP1 DUP4 GT PUSH2 0x16D3 JUMPI DUP3 SWAP1 SUB PUSH1 0x1F AND DUP3 ADD SWAP2 JUMPDEST POP POP POP POP POP DUP2 JUMP JUMPDEST PUSH32 0x0 PUSH20 0xFFFFFFFFFFFFFFFFFFFFFFFFFFFFFFFFFFFFFFFF AND ADDRESS PUSH20 0xFFFFFFFFFFFFFFFFFFFFFFFFFFFFFFFFFFFFFFFF AND SUB PUSH2 0x1786 JUMPI PUSH1 0x40 MLOAD PUSH32 0x8C379A000000000000000000000000000000000000000000000000000000000 DUP2 MSTORE PUSH1 0x4 ADD PUSH2 0x177D SWAP1 PUSH2 0x657E JUMP JUMPDEST PUSH1 0x40 MLOAD DUP1 SWAP2 SUB SWAP1 REVERT JUMPDEST PUSH32 0x0 PUSH20 0xFFFFFFFFFFFFFFFFFFFFFFFFFFFFFFFFFFFFFFFF AND PUSH2 0x17C5 PUSH2 0x3466 JUMP JUMPDEST PUSH20 0xFFFFFFFFFFFFFFFFFFFFFFFFFFFFFFFFFFFFFFFF AND EQ PUSH2 0x181B JUMPI PUSH1 0x40 MLOAD PUSH32 0x8C379A000000000000000000000000000000000000000000000000000000000 DUP2 MSTORE PUSH1 0x4 ADD PUSH2 0x1812 SWAP1 PUSH2 0x660C JUMP JUMPDEST PUSH1 0x40 MLOAD DUP1 SWAP2 SUB SWAP1 REVERT JUMPDEST PUSH2 0x1824 DUP3 PUSH2 0x34B9 JUMP JUMPDEST PUSH2 0x1830 DUP3 DUP3 PUSH1 0x1 PUSH2 0x34C9 JUMP JUMPDEST POP POP JUMP JUMPDEST PUSH0 PUSH2 0x183D PUSH2 0x1057 JUMP JUMPDEST DUP3 LT PUSH2 0x187E JUMPI PUSH1 0x40 MLOAD PUSH32 0x8C379A000000000000000000000000000000000000000000000000000000000 DUP2 MSTORE PUSH1 0x4 ADD PUSH2 0x1875 SWAP1 PUSH2 0x669A JUMP JUMPDEST PUSH1 0x40 MLOAD DUP1 SWAP2 SUB SWAP1 REVERT JUMPDEST PUSH1 0x99 DUP3 DUP2 SLOAD DUP2 LT PUSH2 0x1892 JUMPI PUSH2 0x1891 PUSH2 0x5E5E JUMP JUMPDEST JUMPDEST SWAP1 PUSH0 MSTORE PUSH1 0x20 PUSH0 KECCAK256 ADD SLOAD SWAP1 POP SWAP2 SWAP1 POP JUMP JUMPDEST PUSH0 DUP1 SHL PUSH2 0x18AE DUP2 PUSH2 0x2D76 JUMP JUMPDEST PUSH1 0x1 PUSH2 0x1A2 PUSH0 DUP5 PUSH20 0xFFFFFFFFFFFFFFFFFFFFFFFFFFFFFFFFFFFFFFFF AND PUSH20 0xFFFFFFFFFFFFFFFFFFFFFFFFFFFFFFFFFFFFFFFF AND DUP2 MSTORE PUSH1 0x20 ADD SWAP1 DUP2 MSTORE PUSH1 0x20 ADD PUSH0 KECCAK256 DUP2 SWAP1 SSTORE POP POP POP JUMP JUMPDEST PUSH0 PUSH32 0x0 PUSH20 0xFFFFFFFFFFFFFFFFFFFFFFFFFFFFFFFFFFFFFFFF AND ADDRESS PUSH20 0xFFFFFFFFFFFFFFFFFFFFFFFFFFFFFFFFFFFFFFFF AND EQ PUSH2 0x1985 JUMPI PUSH1 0x40 MLOAD PUSH32 0x8C379A000000000000000000000000000000000000000000000000000000000 DUP2 MSTORE PUSH1 0x4 ADD PUSH2 0x197C SWAP1 PUSH2 0x6728 JUMP JUMPDEST PUSH1 0x40 MLOAD DUP1 SWAP2 SUB SWAP1 REVERT JUMPDEST PUSH32 0x360894A13BA1A3210667C828492DB98DCA3E2076CC3735A920A3CA505D382BBC PUSH0 SHL SWAP1 POP SWAP1 JUMP JUMPDEST PUSH1 0x60 PUSH1 0x40 MLOAD DUP1 PUSH1 0x40 ADD PUSH1 0x40 MSTORE DUP1 PUSH1 0x5 DUP2 MSTORE PUSH1 0x20 ADD PUSH32 0x322E362E30000000000000000000000000000000000000000000000000000000 DUP2 MSTORE POP SWAP1 POP SWAP1 JUMP JUMPDEST PUSH0 DUP1 SHL PUSH2 0x19F6 DUP2 PUSH2 0x2D76 JUMP JUMPDEST DUP3 DUP3 PUSH2 0x196 SWAP2 DUP3 PUSH2 0x1A08 SWAP3 SWAP2 SWAP1 PUSH2 0x624F JUMP JUMPDEST POP POP POP POP JUMP JUMPDEST PUSH2 0x193 PUSH1 0x20 MSTORE DUP1 PUSH0 MSTORE PUSH1 0x40 PUSH0 KECCAK256 PUSH0 SWAP2 POP SWAP1 POP DUP1 PUSH0 ADD DUP1 SLOAD PUSH2 0x1A2E SWAP1 PUSH2 0x5CAA JUMP JUMPDEST DUP1 PUSH1 0x1F ADD PUSH1 0x20 DUP1 SWAP2 DIV MUL PUSH1 0x20 ADD PUSH1 0x40 MLOAD SWAP1 DUP2 ADD PUSH1 0x40 MSTORE DUP1 SWAP3 SWAP2 SWAP1 DUP2 DUP2 MSTORE PUSH1 0x20 ADD DUP3 DUP1 SLOAD PUSH2 0x1A5A SWAP1 PUSH2 0x5CAA JUMP JUMPDEST DUP1 ISZERO PUSH2 0x1AA5 JUMPI DUP1 PUSH1 0x1F LT PUSH2 0x1A7C JUMPI PUSH2 0x100 DUP1 DUP4 SLOAD DIV MUL DUP4 MSTORE SWAP2 PUSH1 0x20 ADD SWAP2 PUSH2 0x1AA5 JUMP JUMPDEST DUP3 ADD SWAP2 SWAP1 PUSH0 MSTORE PUSH1 0x20 PUSH0 KECCAK256 SWAP1 JUMPDEST DUP2 SLOAD DUP2 MSTORE SWAP1 PUSH1 0x1 ADD SWAP1 PUSH1 0x20 ADD DUP1 DUP4 GT PUSH2 0x1A88 JUMPI DUP3 SWAP1 SUB PUSH1 0x1F AND DUP3 ADD SWAP2 JUMPDEST POP POP POP POP POP SWAP1 DUP1 PUSH1 0x1 ADD DUP1 SLOAD PUSH2 0x1ABA SWAP1 PUSH2 0x5CAA JUMP JUMPDEST DUP1 PUSH1 0x1F ADD PUSH1 0x20 DUP1 SWAP2 DIV MUL PUSH1 0x20 ADD PUSH1 0x40 MLOAD SWAP1 DUP2 ADD PUSH1 0x40 MSTORE DUP1 SWAP3 SWAP2 SWAP1 DUP2 DUP2 MSTORE PUSH1 0x20 ADD DUP3 DUP1 SLOAD PUSH2 0x1AE6 SWAP1 PUSH2 0x5CAA JUMP JUMPDEST DUP1 ISZERO PUSH2 0x1B31 JUMPI DUP1 PUSH1 0x1F LT PUSH2 0x1B08 JUMPI PUSH2 0x100 DUP1 DUP4 SLOAD DIV MUL DUP4 MSTORE SWAP2 PUSH1 0x20 ADD SWAP2 PUSH2 0x1B31 JUMP JUMPDEST DUP3 ADD SWAP2 SWAP1 PUSH0 MSTORE PUSH1 0x20 PUSH0 KECCAK256 SWAP1 JUMPDEST DUP2 SLOAD DUP2 MSTORE SWAP1 PUSH1 0x1 ADD SWAP1 PUSH1 0x20 ADD DUP1 DUP4 GT PUSH2 0x1B14 JUMPI DUP3 SWAP1 SUB PUSH1 0x1F AND DUP3 ADD SWAP2 JUMPDEST POP POP POP POP POP SWAP1 DUP1 PUSH1 0x2 ADD DUP1 SLOAD PUSH2 0x1B46 SWAP1 PUSH2 0x5CAA JUMP JUMPDEST DUP1 PUSH1 0x1F ADD PUSH1 0x20 DUP1 SWAP2 DIV MUL PUSH1 0x20 ADD PUSH1 0x40 MLOAD SWAP1 DUP2 ADD PUSH1 0x40 MSTORE DUP1 SWAP3 SWAP2 SWAP1 DUP2 DUP2 MSTORE PUSH1 0x20 ADD DUP3 DUP1 SLOAD PUSH2 0x1B72 SWAP1 PUSH2 0x5CAA JUMP JUMPDEST DUP1 ISZERO PUSH2 0x1BBD JUMPI DUP1 PUSH1 0x1F LT PUSH2 0x1B94 JUMPI PUSH2 0x100 DUP1 DUP4 SLOAD DIV MUL DUP4 MSTORE SWAP2 PUSH1 0x20 ADD SWAP2 PUSH2 0x1BBD JUMP JUMPDEST DUP3 ADD SWAP2 SWAP1 PUSH0 MSTORE PUSH1 0x20 PUSH0 KECCAK256 SWAP1 JUMPDEST DUP2 SLOAD DUP2 MSTORE SWAP1 PUSH1 0x1 ADD SWAP1 PUSH1 0x20 ADD DUP1 DUP4 GT PUSH2 0x1BA0 JUMPI DUP3 SWAP1 SUB PUSH1 0x1F AND DUP3 ADD SWAP2 JUMPDEST POP POP POP POP POP SWAP1 POP DUP4 JUMP JUMPDEST PUSH2 0x19B SLOAD DUP2 JUMP JUMPDEST PUSH2 0x195 DUP1 SLOAD PUSH2 0x1BDC SWAP1 PUSH2 0x5CAA JUMP JUMPDEST DUP1 PUSH1 0x1F ADD PUSH1 0x20 DUP1 SWAP2 DIV MUL PUSH1 0x20 ADD PUSH1 0x40 MLOAD SWAP1 DUP2 ADD PUSH1 0x40 MSTORE DUP1 SWAP3 SWAP2 SWAP1 DUP2 DUP2 MSTORE PUSH1 0x20 ADD DUP3 DUP1 SLOAD PUSH2 0x1C08 SWAP1 PUSH2 0x5CAA JUMP JUMPDEST DUP1 ISZERO PUSH2 0x1C53 JUMPI DUP1 PUSH1 0x1F LT PUSH2 0x1C2A JUMPI PUSH2 0x100 DUP1 DUP4 SLOAD DIV MUL DUP4 MSTORE SWAP2 PUSH1 0x20 ADD SWAP2 PUSH2 0x1C53 JUMP JUMPDEST DUP3 ADD SWAP2 SWAP1 PUSH0 MSTORE PUSH1 0x20 PUSH0 KECCAK256 SWAP1 JUMPDEST DUP2 SLOAD DUP2 MSTORE SWAP1 PUSH1 0x1 ADD SWAP1 PUSH1 0x20 ADD DUP1 DUP4 GT PUSH2 0x1C36 JUMPI DUP3 SWAP1 SUB PUSH1 0x1F AND DUP3 ADD SWAP2 JUMPDEST POP POP POP POP POP DUP2 JUMP JUMPDEST PUSH0 DUP1 PUSH1 0x67 PUSH0 DUP5 DUP2 MSTORE PUSH1 0x20 ADD SWAP1 DUP2 MSTORE PUSH1 0x20 ADD PUSH0 KECCAK256 PUSH0 SWAP1 SLOAD SWAP1 PUSH2 0x100 EXP SWAP1 DIV PUSH20 0xFFFFFFFFFFFFFFFFFFFFFFFFFFFFFFFFFFFFFFFF AND SWAP1 POP PUSH0 PUSH20 0xFFFFFFFFFFFFFFFFFFFFFFFFFFFFFFFFFFFFFFFF AND DUP2 PUSH20 0xFFFFFFFFFFFFFFFFFFFFFFFFFFFFFFFFFFFFFFFF AND SUB PUSH2 0x1CFE JUMPI PUSH1 0x40 MLOAD PUSH32 0x8C379A000000000000000000000000000000000000000000000000000000000 DUP2 MSTORE PUSH1 0x4 ADD PUSH2 0x1CF5 SWAP1 PUSH2 0x6790 JUMP JUMPDEST PUSH1 0x40 MLOAD DUP1 SWAP2 SUB SWAP1 REVERT JUMPDEST DUP1 SWAP2 POP POP SWAP2 SWAP1 POP JUMP JUMPDEST PUSH2 0x196 DUP1 SLOAD PUSH2 0x1D15 SWAP1 PUSH2 0x5CAA JUMP JUMPDEST DUP1 PUSH1 0x1F ADD PUSH1 0x20 DUP1 SWAP2 DIV MUL PUSH1 0x20 ADD PUSH1 0x40 MLOAD SWAP1 DUP2 ADD PUSH1 0x40 MSTORE DUP1 SWAP3 SWAP2 SWAP1 DUP2 DUP2 MSTORE PUSH1 0x20 ADD DUP3 DUP1 SLOAD PUSH2 0x1D41 SWAP1 PUSH2 0x5CAA JUMP JUMPDEST DUP1 ISZERO PUSH2 0x1D8C JUMPI DUP1 PUSH1 0x1F LT PUSH2 0x1D63 JUMPI PUSH2 0x100 DUP1 DUP4 SLOAD DIV MUL DUP4 MSTORE SWAP2 PUSH1 0x20 ADD SWAP2 PUSH2 0x1D8C JUMP JUMPDEST DUP3 ADD SWAP2 SWAP1 PUSH0 MSTORE PUSH1 0x20 PUSH0 KECCAK256 SWAP1 JUMPDEST DUP2 SLOAD DUP2 MSTORE SWAP1 PUSH1 0x1 ADD SWAP1 PUSH1 0x20 ADD DUP1 DUP4 GT PUSH2 0x1D6F JUMPI DUP3 SWAP1 SUB PUSH1 0x1F AND DUP3 ADD SWAP2 JUMPDEST POP POP POP POP POP DUP2 JUMP JUMPDEST PUSH0 DUP1 PUSH20 0xFFFFFFFFFFFFFFFFFFFFFFFFFFFFFFFFFFFFFFFF AND DUP3 PUSH20 0xFFFFFFFFFFFFFFFFFFFFFFFFFFFFFFFFFFFFFFFF AND SUB PUSH2 0x1E03 JUMPI PUSH1 0x40 MLOAD PUSH32 0x8C379A000000000000000000000000000000000000000000000000000000000 DUP2 MSTORE PUSH1 0x4 ADD PUSH2 0x1DFA SWAP1 PUSH2 0x681E JUMP JUMPDEST PUSH1 0x40 MLOAD DUP1 SWAP2 SUB SWAP1 REVERT JUMPDEST PUSH1 0x68 PUSH0 DUP4 PUSH20 0xFFFFFFFFFFFFFFFFFFFFFFFFFFFFFFFFFFFFFFFF AND PUSH20 0xFFFFFFFFFFFFFFFFFFFFFFFFFFFFFFFFFFFFFFFF AND DUP2 MSTORE PUSH1 0x20 ADD SWAP1 DUP2 MSTORE PUSH1 0x20 ADD PUSH0 KECCAK256 SLOAD SWAP1 POP SWAP2 SWAP1 POP JUMP JUMPDEST PUSH2 0x19A SLOAD DUP2 JUMP JUMPDEST PUSH0 DUP1 PUSH1 0x1 SWAP1 SLOAD SWAP1 PUSH2 0x100 EXP SWAP1 DIV PUSH1 0xFF AND ISZERO SWAP1 POP DUP1 DUP1 ISZERO PUSH2 0x1E7E JUMPI POP PUSH1 0x1 PUSH0 DUP1 SLOAD SWAP1 PUSH2 0x100 EXP SWAP1 DIV PUSH1 0xFF AND PUSH1 0xFF AND LT JUMPDEST DUP1 PUSH2 0x1EAA JUMPI POP PUSH2 0x1E8D ADDRESS PUSH2 0x3745 JUMP JUMPDEST ISZERO DUP1 ISZERO PUSH2 0x1EA9 JUMPI POP PUSH1 0x1 PUSH0 DUP1 SLOAD SWAP1 PUSH2 0x100 EXP SWAP1 DIV PUSH1 0xFF AND PUSH1 0xFF AND EQ JUMPDEST JUMPDEST PUSH2 0x1EE9 JUMPI PUSH1 0x40 MLOAD PUSH32 0x8C379A000000000000000000000000000000000000000000000000000000000 DUP2 MSTORE PUSH1 0x4 ADD PUSH2 0x1EE0 SWAP1 PUSH2 0x68AC JUMP JUMPDEST PUSH1 0x40 MLOAD DUP1 SWAP2 SUB SWAP1 REVERT JUMPDEST PUSH1 0x1 PUSH0 DUP1 PUSH2 0x100 EXP DUP2 SLOAD DUP2 PUSH1 0xFF MUL NOT AND SWAP1 DUP4 PUSH1 0xFF AND MUL OR SWAP1 SSTORE POP DUP1 ISZERO PUSH2 0x1F24 JUMPI PUSH1 0x1 PUSH0 PUSH1 0x1 PUSH2 0x100 EXP DUP2 SLOAD DUP2 PUSH1 0xFF MUL NOT AND SWAP1 DUP4 ISZERO ISZERO MUL OR SWAP1 SSTORE POP JUMPDEST PUSH2 0x1F98 PUSH1 0x40 MLOAD DUP1 PUSH1 0x40 ADD PUSH1 0x40 MSTORE DUP1 PUSH1 0x5 DUP2 MSTORE PUSH1 0x20 ADD PUSH32 0x52656D6978000000000000000000000000000000000000000000000000000000 DUP2 MSTORE POP PUSH1 0x40 MLOAD DUP1 PUSH1 0x40 ADD PUSH1 0x40 MSTORE DUP1 PUSH1 0x1 DUP2 MSTORE PUSH1 0x20 ADD PUSH32 0x5200000000000000000000000000000000000000000000000000000000000000 DUP2 MSTORE POP PUSH2 0x3767 JUMP JUMPDEST PUSH2 0x1FA0 PUSH2 0x37C3 JUMP JUMPDEST PUSH2 0x1FA8 PUSH2 0x3813 JUMP JUMPDEST PUSH2 0x1FB0 PUSH2 0x3863 JUMP JUMPDEST PUSH2 0x1FB8 PUSH2 0x38B3 JUMP JUMPDEST PUSH2 0x1FC4 PUSH0 DUP1 SHL CALLER PUSH2 0x3903 JUMP JUMPDEST DUP1 ISZERO PUSH2 0x201C JUMPI PUSH0 DUP1 PUSH1 0x1 PUSH2 0x100 EXP DUP2 SLOAD DUP2 PUSH1 0xFF MUL NOT AND SWAP1 DUP4 ISZERO ISZERO MUL OR SWAP1 SSTORE POP PUSH32 0x7F26B83FF96E1F2B6A682F133852F6798A09C465DA95921460CEFB3847402498 PUSH1 0x1 PUSH1 0x40 MLOAD PUSH2 0x2013 SWAP2 SWAP1 PUSH2 0x690F JUMP JUMPDEST PUSH1 0x40 MLOAD DUP1 SWAP2 SUB SWAP1 LOG1 JUMPDEST POP JUMP JUMPDEST PUSH0 PUSH20 0xFFFFFFFFFFFFFFFFFFFFFFFFFFFFFFFFFFFFFFFF AND PUSH2 0x197 PUSH0 SWAP1 SLOAD SWAP1 PUSH2 0x100 EXP SWAP1 DIV PUSH20 0xFFFFFFFFFFFFFFFFFFFFFFFFFFFFFFFFFFFFFFFF AND PUSH20 0xFFFFFFFFFFFFFFFFFFFFFFFFFFFFFFFFFFFFFFFF AND SUB PUSH2 0x20AF JUMPI PUSH1 0x40 MLOAD PUSH32 0x8C379A000000000000000000000000000000000000000000000000000000000 DUP2 MSTORE PUSH1 0x4 ADD PUSH2 0x20A6 SWAP1 PUSH2 0x6972 JUMP JUMPDEST PUSH1 0x40 MLOAD DUP1 SWAP2 SUB SWAP1 REVERT JUMPDEST PUSH2 0x19B SLOAD PUSH2 0x19C SLOAD LT PUSH2 0x20F7 JUMPI PUSH1 0x40 MLOAD PUSH32 0x8C379A000000000000000000000000000000000000000000000000000000000 DUP2 MSTORE PUSH1 0x4 ADD PUSH2 0x20EE SWAP1 PUSH2 0x6A00 JUMP JUMPDEST PUSH1 0x40 MLOAD DUP1 SWAP2 SUB SWAP1 REVERT JUMPDEST PUSH0 PUSH2 0x19A SLOAD DUP3 PUSH1 0x2 PUSH1 0x3 DUP2 LT PUSH2 0x2110 JUMPI PUSH2 0x210F PUSH2 0x5E5E JUMP JUMPDEST JUMPDEST PUSH1 0x20 MUL ADD MLOAD PUSH1 0x40 MLOAD PUSH1 0x20 ADD PUSH2 0x2126 SWAP3 SWAP2 SWAP1 PUSH2 0x6A3E JUMP JUMPDEST PUSH1 0x40 MLOAD PUSH1 0x20 DUP2 DUP4 SUB SUB DUP2 MSTORE SWAP1 PUSH1 0x40 MSTORE SWAP1 POP PUSH0 PUSH2 0x19A SLOAD CALLER PUSH1 0x40 MLOAD PUSH1 0x20 ADD PUSH2 0x214E SWAP3 SWAP2 SWAP1 PUSH2 0x6AAE JUMP JUMPDEST PUSH1 0x40 MLOAD PUSH1 0x20 DUP2 DUP4 SUB SUB DUP2 MSTORE SWAP1 PUSH1 0x40 MSTORE SWAP1 POP PUSH0 PUSH2 0x19D DUP4 PUSH1 0x40 MLOAD PUSH2 0x2171 SWAP2 SWAP1 PUSH2 0x6B13 JUMP JUMPDEST SWAP1 DUP2 MSTORE PUSH1 0x20 ADD PUSH1 0x40 MLOAD DUP1 SWAP2 SUB SWAP1 KECCAK256 SLOAD EQ PUSH2 0x21C0 JUMPI PUSH1 0x40 MLOAD PUSH32 0x8C379A000000000000000000000000000000000000000000000000000000000 DUP2 MSTORE PUSH1 0x4 ADD PUSH2 0x21B7 SWAP1 PUSH2 0x6B73 JUMP JUMPDEST PUSH1 0x40 MLOAD DUP1 SWAP2 SUB SWAP1 REVERT JUMPDEST PUSH0 PUSH2 0x19E DUP3 PUSH1 0x40 MLOAD PUSH2 0x21D2 SWAP2 SWAP1 PUSH2 0x6B13 JUMP JUMPDEST SWAP1 DUP2 MSTORE PUSH1 0x20 ADD PUSH1 0x40 MLOAD DUP1 SWAP2 SUB SWAP1 KECCAK256 SLOAD EQ PUSH2 0x2221 JUMPI PUSH1 0x40 MLOAD PUSH32 0x8C379A000000000000000000000000000000000000000000000000000000000 DUP2 MSTORE PUSH1 0x4 ADD PUSH2 0x2218 SWAP1 PUSH2 0x6C01 JUMP JUMPDEST PUSH1 0x40 MLOAD DUP1 SWAP2 SUB SWAP1 REVERT JUMPDEST DUP3 PUSH1 0x1 PUSH1 0x3 DUP2 LT PUSH2 0x2235 JUMPI PUSH2 0x2234 PUSH2 0x5E5E JUMP JUMPDEST JUMPDEST PUSH1 0x20 MUL ADD MLOAD PUSH2 0x198 PUSH0 PUSH1 0x2 DUP2 LT PUSH2 0x224F JUMPI PUSH2 0x224E PUSH2 0x5E5E JUMP JUMPDEST JUMPDEST ADD SLOAD EQ PUSH2 0x2291 JUMPI PUSH1 0x40 MLOAD PUSH32 0x8C379A000000000000000000000000000000000000000000000000000000000 DUP2 MSTORE PUSH1 0x4 ADD PUSH2 0x2288 SWAP1 PUSH2 0x6C69 JUMP JUMPDEST PUSH1 0x40 MLOAD DUP1 SWAP2 SUB SWAP1 REVERT JUMPDEST PUSH0 DUP1 PUSH2 0x197 PUSH0 SWAP1 SLOAD SWAP1 PUSH2 0x100 EXP SWAP1 DIV PUSH20 0xFFFFFFFFFFFFFFFFFFFFFFFFFFFFFFFFFFFFFFFF AND PUSH20 0xFFFFFFFFFFFFFFFFFFFFFFFFFFFFFFFFFFFFFFFF AND PUSH0 DUP8 PUSH0 ADD MLOAD DUP9 PUSH1 0x20 ADD MLOAD DUP10 PUSH1 0x40 ADD MLOAD DUP10 PUSH1 0x40 MLOAD PUSH1 0x24 ADD PUSH2 0x22EF SWAP5 SWAP4 SWAP3 SWAP2 SWAP1 PUSH2 0x6EA1 JUMP JUMPDEST PUSH1 0x40 MLOAD PUSH1 0x20 DUP2 DUP4 SUB SUB DUP2 MSTORE SWAP1 PUSH1 0x40 MSTORE PUSH32 0x11479FEA00000000000000000000000000000000000000000000000000000000 PUSH28 0xFFFFFFFFFFFFFFFFFFFFFFFFFFFFFFFFFFFFFFFFFFFFFFFFFFFFFFFF NOT AND PUSH1 0x20 DUP3 ADD DUP1 MLOAD PUSH28 0xFFFFFFFFFFFFFFFFFFFFFFFFFFFFFFFFFFFFFFFFFFFFFFFFFFFFFFFF DUP4 DUP2 DUP4 AND OR DUP4 MSTORE POP POP POP POP PUSH1 0x40 MLOAD PUSH2 0x2379 SWAP2 SWAP1 PUSH2 0x6B13 JUMP JUMPDEST PUSH0 PUSH1 0x40 MLOAD DUP1 DUP4 SUB DUP2 DUP6 DUP8 GAS CALL SWAP3 POP POP POP RETURNDATASIZE DUP1 PUSH0 DUP2 EQ PUSH2 0x23B3 JUMPI PUSH1 0x40 MLOAD SWAP2 POP PUSH1 0x1F NOT PUSH1 0x3F RETURNDATASIZE ADD AND DUP3 ADD PUSH1 0x40 MSTORE RETURNDATASIZE DUP3 MSTORE RETURNDATASIZE PUSH0 PUSH1 0x20 DUP5 ADD RETURNDATACOPY PUSH2 0x23B8 JUMP JUMPDEST PUSH1 0x60 SWAP2 POP JUMPDEST POP SWAP2 POP SWAP2 POP DUP2 PUSH2 0x23FD JUMPI PUSH1 0x40 MLOAD PUSH32 0x8C379A000000000000000000000000000000000000000000000000000000000 DUP2 MSTORE PUSH1 0x4 ADD PUSH2 0x23F4 SWAP1 PUSH2 0x6F30 JUMP JUMPDEST PUSH1 0x40 MLOAD DUP1 SWAP2 SUB SWAP1 REVERT JUMPDEST PUSH0 DUP2 DUP1 PUSH1 0x20 ADD SWAP1 MLOAD DUP2 ADD SWAP1 PUSH2 0x2412 SWAP2 SWAP1 PUSH2 0x6F62 JUMP JUMPDEST SWAP1 POP DUP1 PUSH2 0x2454 JUMPI PUSH1 0x40 MLOAD PUSH32 0x8C379A000000000000000000000000000000000000000000000000000000000 DUP2 MSTORE PUSH1 0x4 ADD PUSH2 0x244B SWAP1 PUSH2 0x6FD7 JUMP JUMPDEST PUSH1 0x40 MLOAD DUP1 SWAP2 SUB SWAP1 REVERT JUMPDEST PUSH2 0x25FD CALLER PUSH2 0x19F DUP1 SLOAD PUSH2 0x2466 SWAP1 PUSH2 0x5CAA JUMP JUMPDEST DUP1 PUSH1 0x1F ADD PUSH1 0x20 DUP1 SWAP2 DIV MUL PUSH1 0x20 ADD PUSH1 0x40 MLOAD SWAP1 DUP2 ADD PUSH1 0x40 MSTORE DUP1 SWAP3 SWAP2 SWAP1 DUP2 DUP2 MSTORE PUSH1 0x20 ADD DUP3 DUP1 SLOAD PUSH2 0x2492 SWAP1 PUSH2 0x5CAA JUMP JUMPDEST DUP1 ISZERO PUSH2 0x24DD JUMPI DUP1 PUSH1 0x1F LT PUSH2 0x24B4 JUMPI PUSH2 0x100 DUP1 DUP4 SLOAD DIV MUL DUP4 MSTORE SWAP2 PUSH1 0x20 ADD SWAP2 PUSH2 0x24DD JUMP JUMPDEST DUP3 ADD SWAP2 SWAP1 PUSH0 MSTORE PUSH1 0x20 PUSH0 KECCAK256 SWAP1 JUMPDEST DUP2 SLOAD DUP2 MSTORE SWAP1 PUSH1 0x1 ADD SWAP1 PUSH1 0x20 ADD DUP1 DUP4 GT PUSH2 0x24C0 JUMPI DUP3 SWAP1 SUB PUSH1 0x1F AND DUP3 ADD SWAP2 JUMPDEST POP POP POP POP POP PUSH2 0x1A0 DUP1 SLOAD PUSH2 0x24F0 SWAP1 PUSH2 0x5CAA JUMP JUMPDEST DUP1 PUSH1 0x1F ADD PUSH1 0x20 DUP1 SWAP2 DIV MUL PUSH1 0x20 ADD PUSH1 0x40 MLOAD SWAP1 DUP2 ADD PUSH1 0x40 MSTORE DUP1 SWAP3 SWAP2 SWAP1 DUP2 DUP2 MSTORE PUSH1 0x20 ADD DUP3 DUP1 SLOAD PUSH2 0x251C SWAP1 PUSH2 0x5CAA JUMP JUMPDEST DUP1 ISZERO PUSH2 0x2567 JUMPI DUP1 PUSH1 0x1F LT PUSH2 0x253E JUMPI PUSH2 0x100 DUP1 DUP4 SLOAD DIV MUL DUP4 MSTORE SWAP2 PUSH1 0x20 ADD SWAP2 PUSH2 0x2567 JUMP JUMPDEST DUP3 ADD SWAP2 SWAP1 PUSH0 MSTORE PUSH1 0x20 PUSH0 KECCAK256 SWAP1 JUMPDEST DUP2 SLOAD DUP2 MSTORE SWAP1 PUSH1 0x1 ADD SWAP1 PUSH1 0x20 ADD DUP1 DUP4 GT PUSH2 0x254A JUMPI DUP3 SWAP1 SUB PUSH1 0x1F AND DUP3 ADD SWAP2 JUMPDEST POP POP POP POP POP PUSH2 0x1A1 DUP1 SLOAD PUSH2 0x257A SWAP1 PUSH2 0x5CAA JUMP JUMPDEST DUP1 PUSH1 0x1F ADD PUSH1 0x20 DUP1 SWAP2 DIV MUL PUSH1 0x20 ADD PUSH1 0x40 MLOAD SWAP1 DUP2 ADD PUSH1 0x40 MSTORE DUP1 SWAP3 SWAP2 SWAP1 DUP2 DUP2 MSTORE PUSH1 0x20 ADD DUP3 DUP1 SLOAD PUSH2 0x25A6 SWAP1 PUSH2 0x5CAA JUMP JUMPDEST DUP1 ISZERO PUSH2 0x25F1 JUMPI DUP1 PUSH1 0x1F LT PUSH2 0x25C8 JUMPI PUSH2 0x100 DUP1 DUP4 SLOAD DIV MUL DUP4 MSTORE SWAP2 PUSH1 0x20 ADD SWAP2 PUSH2 0x25F1 JUMP JUMPDEST DUP3 ADD SWAP2 SWAP1 PUSH0 MSTORE PUSH1 0x20 PUSH0 KECCAK256 SWAP1 JUMPDEST DUP2 SLOAD DUP2 MSTORE SWAP1 PUSH1 0x1 ADD SWAP1 PUSH1 0x20 ADD DUP1 DUP4 GT PUSH2 0x25D4 JUMPI DUP3 SWAP1 SUB PUSH1 0x1F AND DUP3 ADD SWAP2 JUMPDEST POP POP POP POP POP PUSH1 0x1 PUSH2 0x31F8 JUMP JUMPDEST PUSH2 0x19C PUSH0 DUP2 SLOAD DUP1 SWAP3 SWAP2 SWAP1 PUSH2 0x2610 SWAP1 PUSH2 0x631C JUMP JUMPDEST SWAP2 SWAP1 POP SSTORE POP PUSH1 0x1 PUSH2 0x19D DUP7 PUSH1 0x40 MLOAD PUSH2 0x2628 SWAP2 SWAP1 PUSH2 0x6B13 JUMP JUMPDEST SWAP1 DUP2 MSTORE PUSH1 0x20 ADD PUSH1 0x40 MLOAD DUP1 SWAP2 SUB SWAP1 KECCAK256 DUP2 SWAP1 SSTORE POP PUSH1 0x1 PUSH2 0x19E DUP6 PUSH1 0x40 MLOAD PUSH2 0x264D SWAP2 SWAP1 PUSH2 0x6B13 JUMP JUMPDEST SWAP1 DUP2 MSTORE PUSH1 0x20 ADD PUSH1 0x40 MLOAD DUP1 SWAP2 SUB SWAP1 KECCAK256 DUP2 SWAP1 SSTORE POP POP POP POP POP POP POP POP JUMP JUMPDEST PUSH0 DUP1 SHL PUSH2 0x2674 DUP2 PUSH2 0x2D76 JUMP JUMPDEST PUSH2 0x1A2 PUSH0 DUP4 PUSH20 0xFFFFFFFFFFFFFFFFFFFFFFFFFFFFFFFFFFFFFFFF AND PUSH20 0xFFFFFFFFFFFFFFFFFFFFFFFFFFFFFFFFFFFFFFFF AND DUP2 MSTORE PUSH1 0x20 ADD SWAP1 DUP2 MSTORE PUSH1 0x20 ADD PUSH0 KECCAK256 PUSH0 SWAP1 SSTORE POP POP JUMP JUMPDEST PUSH0 PUSH1 0xFB PUSH0 DUP5 DUP2 MSTORE PUSH1 0x20 ADD SWAP1 DUP2 MSTORE PUSH1 0x20 ADD PUSH0 KECCAK256 PUSH0 ADD PUSH0 DUP4 PUSH20 0xFFFFFFFFFFFFFFFFFFFFFFFFFFFFFFFFFFFFFFFF AND PUSH20 0xFFFFFFFFFFFFFFFFFFFFFFFFFFFFFFFFFFFFFFFF AND DUP2 MSTORE PUSH1 0x20 ADD SWAP1 DUP2 MSTORE PUSH1 0x20 ADD PUSH0 KECCAK256 PUSH0 SWAP1 SLOAD SWAP1 PUSH2 0x100 EXP SWAP1 DIV PUSH1 0xFF AND SWAP1 POP SWAP3 SWAP2 POP POP JUMP JUMPDEST PUSH1 0x60 PUSH1 0x66 DUP1 SLOAD PUSH2 0x272C SWAP1 PUSH2 0x5CAA JUMP JUMPDEST DUP1 PUSH1 0x1F ADD PUSH1 0x20 DUP1 SWAP2 DIV MUL PUSH1 0x20 ADD PUSH1 0x40 MLOAD SWAP1 DUP2 ADD PUSH1 0x40 MSTORE DUP1 SWAP3 SWAP2 SWAP1 DUP2 DUP2 MSTORE PUSH1 0x20 ADD DUP3 DUP1 SLOAD PUSH2 0x2758 SWAP1 PUSH2 0x5CAA JUMP JUMPDEST DUP1 ISZERO PUSH2 0x27A3 JUMPI DUP1 PUSH1 0x1F LT PUSH2 0x277A JUMPI PUSH2 0x100 DUP1 DUP4 SLOAD DIV MUL DUP4 MSTORE SWAP2 PUSH1 0x20 ADD SWAP2 PUSH2 0x27A3 JUMP JUMPDEST DUP3 ADD SWAP2 SWAP1 PUSH0 MSTORE PUSH1 0x20 PUSH0 KECCAK256 SWAP1 JUMPDEST DUP2 SLOAD DUP2 MSTORE SWAP1 PUSH1 0x1 ADD SWAP1 PUSH1 0x20 ADD DUP1 DUP4 GT PUSH2 0x2786 JUMPI DUP3 SWAP1 SUB PUSH1 0x1F AND DUP3 ADD SWAP2 JUMPDEST POP POP POP POP POP SWAP1 POP SWAP1 JUMP JUMPDEST PUSH2 0x19F DUP1 SLOAD PUSH2 0x27BB SWAP1 PUSH2 0x5CAA JUMP JUMPDEST DUP1 PUSH1 0x1F ADD PUSH1 0x20 DUP1 SWAP2 DIV MUL PUSH1 0x20 ADD PUSH1 0x40 MLOAD SWAP1 DUP2 ADD PUSH1 0x40 MSTORE DUP1 SWAP3 SWAP2 SWAP1 DUP2 DUP2 MSTORE PUSH1 0x20 ADD DUP3 DUP1 SLOAD PUSH2 0x27E7 SWAP1 PUSH2 0x5CAA JUMP JUMPDEST DUP1 ISZERO PUSH2 0x2832 JUMPI DUP1 PUSH1 0x1F LT PUSH2 0x2809 JUMPI PUSH2 0x100 DUP1 DUP4 SLOAD DIV MUL DUP4 MSTORE SWAP2 PUSH1 0x20 ADD SWAP2 PUSH2 0x2832 JUMP JUMPDEST DUP3 ADD SWAP2 SWAP1 PUSH0 MSTORE PUSH1 0x20 PUSH0 KECCAK256 SWAP1 JUMPDEST DUP2 SLOAD DUP2 MSTORE SWAP1 PUSH1 0x1 ADD SWAP1 PUSH1 0x20 ADD DUP1 DUP4 GT PUSH2 0x2815 JUMPI DUP3 SWAP1 SUB PUSH1 0x1F AND DUP3 ADD SWAP2 JUMPDEST POP POP POP POP POP DUP2 JUMP JUMPDEST PUSH0 DUP1 SHL DUP2 JUMP JUMPDEST PUSH2 0x2852 PUSH2 0x284B PUSH2 0x2CB9 JUMP JUMPDEST DUP4 DUP4 PUSH2 0x3911 JUMP JUMPDEST POP POP JUMP JUMPDEST PUSH2 0x19E DUP2 DUP1 MLOAD PUSH1 0x20 DUP2 ADD DUP3 ADD DUP1 MLOAD DUP5 DUP3 MSTORE PUSH1 0x20 DUP4 ADD PUSH1 0x20 DUP6 ADD KECCAK256 DUP2 DUP4 MSTORE DUP1 SWAP6 POP POP POP POP POP POP PUSH0 SWAP2 POP SWAP1 POP SLOAD DUP2 JUMP JUMPDEST PUSH2 0x2895 PUSH2 0x288F PUSH2 0x2CB9 JUMP JUMPDEST DUP4 PUSH2 0x2D8A JUMP JUMPDEST PUSH2 0x28D4 JUMPI PUSH1 0x40 MLOAD PUSH32 0x8C379A000000000000000000000000000000000000000000000000000000000 DUP2 MSTORE PUSH1 0x4 ADD PUSH2 0x28CB SWAP1 PUSH2 0x61CF JUMP JUMPDEST PUSH1 0x40 MLOAD DUP1 SWAP2 SUB SWAP1 REVERT JUMPDEST PUSH2 0x28E0 DUP5 DUP5 DUP5 DUP5 PUSH2 0x3A78 JUMP JUMPDEST POP POP POP POP JUMP JUMPDEST PUSH0 DUP1 SHL PUSH2 0x28F2 DUP2 PUSH2 0x2D76 JUMP JUMPDEST PUSH2 0x28FB DUP5 PUSH2 0x2C6E JUMP JUMPDEST PUSH0 PUSH2 0x193 PUSH0 DUP7 DUP2 MSTORE PUSH1 0x20 ADD SWAP1 DUP2 MSTORE PUSH1 0x20 ADD PUSH0 KECCAK256 PUSH1 0x2 ADD DUP1 SLOAD PUSH2 0x291C SWAP1 PUSH2 0x5CAA JUMP JUMPDEST SWAP1 POP EQ PUSH2 0x295E JUMPI PUSH1 0x40 MLOAD PUSH32 0x8C379A000000000000000000000000000000000000000000000000000000000 DUP2 MSTORE PUSH1 0x4 ADD PUSH2 0x2955 SWAP1 PUSH2 0x703F JUMP JUMPDEST PUSH1 0x40 MLOAD DUP1 SWAP2 SUB SWAP1 REVERT JUMPDEST DUP3 DUP3 PUSH2 0x193 PUSH0 DUP8 DUP2 MSTORE PUSH1 0x20 ADD SWAP1 DUP2 MSTORE PUSH1 0x20 ADD PUSH0 KECCAK256 PUSH1 0x2 ADD SWAP2 DUP3 PUSH2 0x2982 SWAP3 SWAP2 SWAP1 PUSH2 0x6092 JUMP JUMPDEST POP POP POP POP POP JUMP JUMPDEST PUSH1 0x60 PUSH2 0x2994 DUP3 PUSH2 0x2C6E JUMP JUMPDEST PUSH0 PUSH2 0x299D PUSH2 0x3AD4 JUMP JUMPDEST SWAP1 POP PUSH0 DUP2 MLOAD GT PUSH2 0x29BB JUMPI PUSH1 0x40 MLOAD DUP1 PUSH1 0x20 ADD PUSH1 0x40 MSTORE DUP1 PUSH0 DUP2 MSTORE POP PUSH2 0x29E6 JUMP JUMPDEST DUP1 PUSH2 0x29C5 DUP5 PUSH2 0x3B65 JUMP JUMPDEST PUSH1 0x40 MLOAD PUSH1 0x20 ADD PUSH2 0x29D6 SWAP3 SWAP2 SWAP1 PUSH2 0x7097 JUMP JUMPDEST PUSH1 0x40 MLOAD PUSH1 0x20 DUP2 DUP4 SUB SUB DUP2 MSTORE SWAP1 PUSH1 0x40 MSTORE JUMPDEST SWAP2 POP POP SWAP2 SWAP1 POP JUMP JUMPDEST PUSH2 0x29F7 DUP3 PUSH2 0x1115 JUMP JUMPDEST PUSH2 0x2A00 DUP2 PUSH2 0x2D76 JUMP JUMPDEST PUSH2 0x2A0A DUP4 DUP4 PUSH2 0x338B JUMP JUMPDEST POP POP POP JUMP JUMPDEST PUSH2 0x198 DUP2 PUSH1 0x2 DUP2 LT PUSH2 0x2A1F JUMPI PUSH0 DUP1 REVERT JUMPDEST ADD PUSH0 SWAP2 POP SWAP1 POP SLOAD DUP2 JUMP JUMPDEST PUSH2 0x197 PUSH0 SWAP1 SLOAD SWAP1 PUSH2 0x100 EXP SWAP1 DIV PUSH20 0xFFFFFFFFFFFFFFFFFFFFFFFFFFFFFFFFFFFFFFFF AND DUP2 JUMP JUMPDEST PUSH0 DUP1 SHL PUSH2 0x2A5B DUP2 PUSH2 0x2D76 JUMP JUMPDEST PUSH2 0x192 DUP4 DUP4 PUSH1 0x40 MLOAD PUSH2 0x2A6E SWAP3 SWAP2 SWAP1 PUSH2 0x70DE JUMP JUMPDEST SWAP1 DUP2 MSTORE PUSH1 0x20 ADD PUSH1 0x40 MLOAD DUP1 SWAP2 SUB SWAP1 KECCAK256 PUSH0 PUSH2 0x100 EXP DUP2 SLOAD SWAP1 PUSH1 0xFF MUL NOT AND SWAP1 SSTORE POP POP POP JUMP JUMPDEST PUSH0 DUP1 SHL PUSH2 0x2A9C DUP2 PUSH2 0x2D76 JUMP JUMPDEST PUSH1 0x1 PUSH2 0x192 DUP5 DUP5 PUSH1 0x40 MLOAD PUSH2 0x2AB1 SWAP3 SWAP2 SWAP1 PUSH2 0x70DE JUMP JUMPDEST SWAP1 DUP2 MSTORE PUSH1 0x20 ADD PUSH1 0x40 MLOAD DUP1 SWAP2 SUB SWAP1 KECCAK256 PUSH0 PUSH2 0x100 EXP DUP2 SLOAD DUP2 PUSH1 0xFF MUL NOT AND SWAP1 DUP4 ISZERO ISZERO MUL OR SWAP1 SSTORE POP POP POP POP JUMP JUMPDEST PUSH0 PUSH1 0x6A PUSH0 DUP5 PUSH20 0xFFFFFFFFFFFFFFFFFFFFFFFFFFFFFFFFFFFFFFFF AND PUSH20 0xFFFFFFFFFFFFFFFFFFFFFFFFFFFFFFFFFFFFFFFF AND DUP2 MSTORE PUSH1 0x20 ADD SWAP1 DUP2 MSTORE PUSH1 0x20 ADD PUSH0 KECCAK256 PUSH0 DUP4 PUSH20 0xFFFFFFFFFFFFFFFFFFFFFFFFFFFFFFFFFFFFFFFF AND PUSH20 0xFFFFFFFFFFFFFFFFFFFFFFFFFFFFFFFFFFFFFFFF AND DUP2 MSTORE PUSH1 0x20 ADD SWAP1 DUP2 MSTORE PUSH1 0x20 ADD PUSH0 KECCAK256 PUSH0 SWAP1 SLOAD SWAP1 PUSH2 0x100 EXP SWAP1 DIV PUSH1 0xFF AND SWAP1 POP SWAP3 SWAP2 POP POP JUMP JUMPDEST PUSH2 0x1A0 DUP1 SLOAD PUSH2 0x2B76 SWAP1 PUSH2 0x5CAA JUMP JUMPDEST DUP1 PUSH1 0x1F ADD PUSH1 0x20 DUP1 SWAP2 DIV MUL PUSH1 0x20 ADD PUSH1 0x40 MLOAD SWAP1 DUP2 ADD PUSH1 0x40 MSTORE DUP1 SWAP3 SWAP2 SWAP1 DUP2 DUP2 MSTORE PUSH1 0x20 ADD DUP3 DUP1 SLOAD PUSH2 0x2BA2 SWAP1 PUSH2 0x5CAA JUMP JUMPDEST DUP1 ISZERO PUSH2 0x2BED JUMPI DUP1 PUSH1 0x1F LT PUSH2 0x2BC4 JUMPI PUSH2 0x100 DUP1 DUP4 SLOAD DIV MUL DUP4 MSTORE SWAP2 PUSH1 0x20 ADD SWAP2 PUSH2 0x2BED JUMP JUMPDEST DUP3 ADD SWAP2 SWAP1 PUSH0 MSTORE PUSH1 0x20 PUSH0 KECCAK256 SWAP1 JUMPDEST DUP2 SLOAD DUP2 MSTORE SWAP1 PUSH1 0x1 ADD SWAP1 PUSH1 0x20 ADD DUP1 DUP4 GT PUSH2 0x2BD0 JUMPI DUP3 SWAP1 SUB PUSH1 0x1F AND DUP3 ADD SWAP2 JUMPDEST POP POP POP POP POP DUP2 JUMP JUMPDEST PUSH0 PUSH32 0x7965DB0B00000000000000000000000000000000000000000000000000000000 PUSH28 0xFFFFFFFFFFFFFFFFFFFFFFFFFFFFFFFFFFFFFFFFFFFFFFFFFFFFFFFF NOT AND DUP3 PUSH28 0xFFFFFFFFFFFFFFFFFFFFFFFFFFFFFFFFFFFFFFFFFFFFFFFFFFFFFFFF NOT AND EQ DUP1 PUSH2 0x2C67 JUMPI POP PUSH2 0x2C66 DUP3 PUSH2 0x3CBE JUMP JUMPDEST JUMPDEST SWAP1 POP SWAP2 SWAP1 POP JUMP JUMPDEST PUSH2 0x2C77 DUP2 PUSH2 0x3D37 JUMP JUMPDEST PUSH2 0x2CB6 JUMPI PUSH1 0x40 MLOAD PUSH32 0x8C379A000000000000000000000000000000000000000000000000000000000 DUP2 MSTORE PUSH1 0x4 ADD PUSH2 0x2CAD SWAP1 PUSH2 0x6790 JUMP JUMPDEST PUSH1 0x40 MLOAD DUP1 SWAP2 SUB SWAP1 REVERT JUMPDEST POP JUMP JUMPDEST PUSH0 CALLER SWAP1 POP SWAP1 JUMP JUMPDEST DUP2 PUSH1 0x69 PUSH0 DUP4 DUP2 MSTORE PUSH1 0x20 ADD SWAP1 DUP2 MSTORE PUSH1 0x20 ADD PUSH0 KECCAK256 PUSH0 PUSH2 0x100 EXP DUP2 SLOAD DUP2 PUSH20 0xFFFFFFFFFFFFFFFFFFFFFFFFFFFFFFFFFFFFFFFF MUL NOT AND SWAP1 DUP4 PUSH20 0xFFFFFFFFFFFFFFFFFFFFFFFFFFFFFFFFFFFFFFFF AND MUL OR SWAP1 SSTORE POP DUP1 DUP3 PUSH20 0xFFFFFFFFFFFFFFFFFFFFFFFFFFFFFFFFFFFFFFFF AND PUSH2 0x2D30 DUP4 PUSH2 0x1C5B JUMP JUMPDEST PUSH20 0xFFFFFFFFFFFFFFFFFFFFFFFFFFFFFFFFFFFFFFFF AND PUSH32 0x8C5BE1E5EBEC7D5BD14F71427D1E84F3DD0314C0F7B2291E5B200AC8C7C3B925 PUSH1 0x40 MLOAD PUSH1 0x40 MLOAD DUP1 SWAP2 SUB SWAP1 LOG4 POP POP JUMP JUMPDEST PUSH2 0x2D87 DUP2 PUSH2 0x2D82 PUSH2 0x2CB9 JUMP JUMPDEST PUSH2 0x3D9F JUMP JUMPDEST POP JUMP JUMPDEST PUSH0 DUP1 PUSH2 0x2D95 DUP4 PUSH2 0x1C5B JUMP JUMPDEST SWAP1 POP DUP1 PUSH20 0xFFFFFFFFFFFFFFFFFFFFFFFFFFFFFFFFFFFFFFFF AND DUP5 PUSH20 0xFFFFFFFFFFFFFFFFFFFFFFFFFFFFFFFFFFFFFFFF AND EQ DUP1 PUSH2 0x2DD7 JUMPI POP PUSH2 0x2DD6 DUP2 DUP6 PUSH2 0x2ADA JUMP JUMPDEST JUMPDEST DUP1 PUSH2 0x2E15 JUMPI POP DUP4 PUSH20 0xFFFFFFFFFFFFFFFFFFFFFFFFFFFFFFFFFFFFFFFF AND PUSH2 0x2DFD DUP5 PUSH2 0xDE3 JUMP JUMPDEST PUSH20 0xFFFFFFFFFFFFFFFFFFFFFFFFFFFFFFFFFFFFFFFF AND EQ JUMPDEST SWAP2 POP POP SWAP3 SWAP2 POP POP JUMP JUMPDEST DUP3 PUSH20 0xFFFFFFFFFFFFFFFFFFFFFFFFFFFFFFFFFFFFFFFF AND PUSH2 0x2E3E DUP3 PUSH2 0x1C5B JUMP JUMPDEST PUSH20 0xFFFFFFFFFFFFFFFFFFFFFFFFFFFFFFFFFFFFFFFF AND EQ PUSH2 0x2E94 JUMPI PUSH1 0x40 MLOAD PUSH32 0x8C379A000000000000000000000000000000000000000000000000000000000 DUP2 MSTORE PUSH1 0x4 ADD PUSH2 0x2E8B SWAP1 PUSH2 0x7166 JUMP JUMPDEST PUSH1 0x40 MLOAD DUP1 SWAP2 SUB SWAP1 REVERT JUMPDEST PUSH0 PUSH20 0xFFFFFFFFFFFFFFFFFFFFFFFFFFFFFFFFFFFFFFFF AND DUP3 PUSH20 0xFFFFFFFFFFFFFFFFFFFFFFFFFFFFFFFFFFFFFFFF AND SUB PUSH2 0x2F02 JUMPI PUSH1 0x40 MLOAD PUSH32 0x8C379A000000000000000000000000000000000000000000000000000000000 DUP2 MSTORE PUSH1 0x4 ADD PUSH2 0x2EF9 SWAP1 PUSH2 0x71F4 JUMP JUMPDEST PUSH1 0x40 MLOAD DUP1 SWAP2 SUB SWAP1 REVERT JUMPDEST PUSH2 0x2F0D DUP4 DUP4 DUP4 PUSH2 0x3E3B JUMP JUMPDEST PUSH2 0x2F17 PUSH0 DUP3 PUSH2 0x2CC0 JUMP JUMPDEST PUSH1 0x1 PUSH1 0x68 PUSH0 DUP6 PUSH20 0xFFFFFFFFFFFFFFFFFFFFFFFFFFFFFFFFFFFFFFFF AND PUSH20 0xFFFFFFFFFFFFFFFFFFFFFFFFFFFFFFFFFFFFFFFF AND DUP2 MSTORE PUSH1 0x20 ADD SWAP1 DUP2 MSTORE PUSH1 0x20 ADD PUSH0 KECCAK256 PUSH0 DUP3 DUP3 SLOAD PUSH2 0x2F64 SWAP2 SWAP1 PUSH2 0x7212 JUMP JUMPDEST SWAP3 POP POP DUP2 SWAP1 SSTORE POP PUSH1 0x1 PUSH1 0x68 PUSH0 DUP5 PUSH20 0xFFFFFFFFFFFFFFFFFFFFFFFFFFFFFFFFFFFFFFFF AND PUSH20 0xFFFFFFFFFFFFFFFFFFFFFFFFFFFFFFFFFFFFFFFF AND DUP2 MSTORE PUSH1 0x20 ADD SWAP1 DUP2 MSTORE PUSH1 0x20 ADD PUSH0 KECCAK256 PUSH0 DUP3 DUP3 SLOAD PUSH2 0x2FB8 SWAP2 SWAP1 PUSH2 0x5EB8 JUMP JUMPDEST SWAP3 POP POP DUP2 SWAP1 SSTORE POP DUP2 PUSH1 0x67 PUSH0 DUP4 DUP2 MSTORE PUSH1 0x20 ADD SWAP1 DUP2 MSTORE PUSH1 0x20 ADD PUSH0 KECCAK256 PUSH0 PUSH2 0x100 EXP DUP2 SLOAD DUP2 PUSH20 0xFFFFFFFFFFFFFFFFFFFFFFFFFFFFFFFFFFFFFFFF MUL NOT AND SWAP1 DUP4 PUSH20 0xFFFFFFFFFFFFFFFFFFFFFFFFFFFFFFFFFFFFFFFF AND MUL OR SWAP1 SSTORE POP DUP1 DUP3 PUSH20 0xFFFFFFFFFFFFFFFFFFFFFFFFFFFFFFFFFFFFFFFF AND DUP5 PUSH20 0xFFFFFFFFFFFFFFFFFFFFFFFFFFFFFFFFFFFFFFFF AND PUSH32 0xDDF252AD1BE2C89B69C2B068FC378DAA952BA7F163C4A11628F55A4DF523B3EF PUSH1 0x40 MLOAD PUSH1 0x40 MLOAD DUP1 SWAP2 SUB SWAP1 LOG4 PUSH2 0x3074 DUP4 DUP4 DUP4 PUSH2 0x3EB9 JUMP JUMPDEST POP POP POP JUMP JUMPDEST PUSH2 0x3083 DUP3 DUP3 PUSH2 0x26B9 JUMP JUMPDEST PUSH2 0x3150 JUMPI PUSH1 0x1 PUSH1 0xFB PUSH0 DUP5 DUP2 MSTORE PUSH1 0x20 ADD SWAP1 DUP2 MSTORE PUSH1 0x20 ADD PUSH0 KECCAK256 PUSH0 ADD PUSH0 DUP4 PUSH20 0xFFFFFFFFFFFFFFFFFFFFFFFFFFFFFFFFFFFFFFFF AND PUSH20 0xFFFFFFFFFFFFFFFFFFFFFFFFFFFFFFFFFFFFFFFF AND DUP2 MSTORE PUSH1 0x20 ADD SWAP1 DUP2 MSTORE PUSH1 0x20 ADD PUSH0 KECCAK256 PUSH0 PUSH2 0x100 EXP DUP2 SLOAD DUP2 PUSH1 0xFF MUL NOT AND SWAP1 DUP4 ISZERO ISZERO MUL OR SWAP1 SSTORE POP PUSH2 0x30F5 PUSH2 0x2CB9 JUMP JUMPDEST PUSH20 0xFFFFFFFFFFFFFFFFFFFFFFFFFFFFFFFFFFFFFFFF AND DUP2 PUSH20 0xFFFFFFFFFFFFFFFFFFFFFFFFFFFFFFFFFFFFFFFF AND DUP4 PUSH32 0x2F8788117E7EFF1D82E926EC794901D17C78024A50270940304540A733656F0D PUSH1 0x40 MLOAD PUSH1 0x40 MLOAD DUP1 SWAP2 SUB SWAP1 LOG4 JUMPDEST POP POP JUMP JUMPDEST PUSH0 PUSH2 0x3160 PUSH2 0x191 PUSH2 0x3EBE JUMP JUMPDEST SWAP1 POP PUSH2 0x316D PUSH2 0x191 PUSH2 0x3ECA JUMP JUMPDEST PUSH2 0x3177 DUP3 DUP3 PUSH2 0x3EDE JUMP JUMPDEST PUSH1 0x40 MLOAD DUP1 PUSH1 0x40 ADD PUSH1 0x40 MSTORE DUP1 PUSH1 0x7 DUP2 MSTORE PUSH1 0x20 ADD PUSH32 0x52656D6978657200000000000000000000000000000000000000000000000000 DUP2 MSTORE POP PUSH2 0x193 PUSH0 DUP4 DUP2 MSTORE PUSH1 0x20 ADD SWAP1 DUP2 MSTORE PUSH1 0x20 ADD PUSH0 KECCAK256 PUSH1 0x1 ADD SWAP1 DUP2 PUSH2 0x31CE SWAP2 SWAP1 PUSH2 0x7245 JUMP JUMPDEST POP PUSH2 0x195 PUSH2 0x193 PUSH0 DUP4 DUP2 MSTORE PUSH1 0x20 ADD SWAP1 DUP2 MSTORE PUSH1 0x20 ADD PUSH0 KECCAK256 PUSH1 0x2 ADD SWAP1 DUP2 PUSH2 0x31F3 SWAP2 SWAP1 PUSH2 0x733B JUMP JUMPDEST POP POP POP JUMP JUMPDEST PUSH2 0x192 DUP5 PUSH1 0x40 MLOAD PUSH2 0x3209 SWAP2 SWAP1 PUSH2 0x7420 JUMP JUMPDEST SWAP1 DUP2 MSTORE PUSH1 0x20 ADD PUSH1 0x40 MLOAD DUP1 SWAP2 SUB SWAP1 KECCAK256 PUSH0 SWAP1 SLOAD SWAP1 PUSH2 0x100 EXP SWAP1 DIV PUSH1 0xFF AND PUSH2 0x3263 JUMPI PUSH1 0x40 MLOAD PUSH32 0x8C379A000000000000000000000000000000000000000000000000000000000 DUP2 MSTORE PUSH1 0x4 ADD PUSH2 0x325A SWAP1 PUSH2 0x7480 JUMP JUMPDEST PUSH1 0x40 MLOAD DUP1 SWAP2 SUB SWAP1 REVERT JUMPDEST PUSH0 PUSH2 0x326F PUSH2 0x191 PUSH2 0x3EBE JUMP JUMPDEST SWAP1 POP PUSH2 0x327C PUSH2 0x191 PUSH2 0x3ECA JUMP JUMPDEST PUSH2 0x3286 DUP7 DUP3 PUSH2 0x3EDE JUMP JUMPDEST DUP4 PUSH2 0x193 PUSH0 DUP4 DUP2 MSTORE PUSH1 0x20 ADD SWAP1 DUP2 MSTORE PUSH1 0x20 ADD PUSH0 KECCAK256 PUSH0 ADD SWAP1 DUP2 PUSH2 0x32A7 SWAP2 SWAP1 PUSH2 0x7245 JUMP JUMPDEST POP DUP5 PUSH2 0x193 PUSH0 DUP4 DUP2 MSTORE PUSH1 0x20 ADD SWAP1 DUP2 MSTORE PUSH1 0x20 ADD PUSH0 KECCAK256 PUSH1 0x1 ADD SWAP1 DUP2 PUSH2 0x32CA SWAP2 SWAP1 PUSH2 0x7245 JUMP JUMPDEST POP DUP3 PUSH2 0x193 PUSH0 DUP4 DUP2 MSTORE PUSH1 0x20 ADD SWAP1 DUP2 MSTORE PUSH1 0x20 ADD PUSH0 KECCAK256 PUSH1 0x2 ADD SWAP1 DUP2 PUSH2 0x32ED SWAP2 SWAP1 PUSH2 0x749E JUMP JUMPDEST POP PUSH0 DUP3 GT ISZERO PUSH2 0x3383 JUMPI DUP2 PUSH2 0x194 PUSH0 DUP9 PUSH20 0xFFFFFFFFFFFFFFFFFFFFFFFFFFFFFFFFFFFFFFFF AND PUSH20 0xFFFFFFFFFFFFFFFFFFFFFFFFFFFFFFFFFFFFFFFF AND DUP2 MSTORE PUSH1 0x20 ADD SWAP1 DUP2 MSTORE PUSH1 0x20 ADD PUSH0 KECCAK256 SLOAD PUSH2 0x3340 SWAP2 SWAP1 PUSH2 0x5EB8 JUMP JUMPDEST PUSH2 0x194 PUSH0 DUP9 PUSH20 0xFFFFFFFFFFFFFFFFFFFFFFFFFFFFFFFFFFFFFFFF AND PUSH20 0xFFFFFFFFFFFFFFFFFFFFFFFFFFFFFFFFFFFFFFFF AND DUP2 MSTORE PUSH1 0x20 ADD SWAP1 DUP2 MSTORE PUSH1 0x20 ADD PUSH0 KECCAK256 DUP2 SWAP1 SSTORE POP JUMPDEST POP POP POP POP POP POP JUMP JUMPDEST PUSH2 0x3395 DUP3 DUP3 PUSH2 0x26B9 JUMP JUMPDEST ISZERO PUSH2 0x3462 JUMPI PUSH0 PUSH1 0xFB PUSH0 DUP5 DUP2 MSTORE PUSH1 0x20 ADD SWAP1 DUP2 MSTORE PUSH1 0x20 ADD PUSH0 KECCAK256 PUSH0 ADD PUSH0 DUP4 PUSH20 0xFFFFFFFFFFFFFFFFFFFFFFFFFFFFFFFFFFFFFFFF AND PUSH20 0xFFFFFFFFFFFFFFFFFFFFFFFFFFFFFFFFFFFFFFFF AND DUP2 MSTORE PUSH1 0x20 ADD SWAP1 DUP2 MSTORE PUSH1 0x20 ADD PUSH0 KECCAK256 PUSH0 PUSH2 0x100 EXP DUP2 SLOAD DUP2 PUSH1 0xFF MUL NOT AND SWAP1 DUP4 ISZERO ISZERO MUL OR SWAP1 SSTORE POP PUSH2 0x3407 PUSH2 0x2CB9 JUMP JUMPDEST PUSH20 0xFFFFFFFFFFFFFFFFFFFFFFFFFFFFFFFFFFFFFFFF AND DUP2 PUSH20 0xFFFFFFFFFFFFFFFFFFFFFFFFFFFFFFFFFFFFFFFF AND DUP4 PUSH32 0xF6391F5C32D9C69D2A47EA670B442974B53935D1EDC7FD64EB21E047A839171B PUSH1 0x40 MLOAD PUSH1 0x40 MLOAD DUP1 SWAP2 SUB SWAP1 LOG4 JUMPDEST POP POP JUMP JUMPDEST PUSH0 PUSH2 0x3492 PUSH32 0x360894A13BA1A3210667C828492DB98DCA3E2076CC3735A920A3CA505D382BBC PUSH0 SHL PUSH2 0x3EFB JUMP JUMPDEST PUSH0 ADD PUSH0 SWAP1 SLOAD SWAP1 PUSH2 0x100 EXP SWAP1 DIV PUSH20 0xFFFFFFFFFFFFFFFFFFFFFFFFFFFFFFFFFFFFFFFF AND SWAP1 POP SWAP1 JUMP JUMPDEST PUSH0 DUP1 SHL PUSH2 0x34C5 DUP2 PUSH2 0x2D76 JUMP JUMPDEST POP POP JUMP JUMPDEST PUSH2 0x34F4 PUSH32 0x4910FDFA16FED3260ED0E7147F7CC6DA11A60208B5B9406D12A635614FFD9143 PUSH0 SHL PUSH2 0x3F04 JUMP JUMPDEST PUSH0 ADD PUSH0 SWAP1 SLOAD SWAP1 PUSH2 0x100 EXP SWAP1 DIV PUSH1 0xFF AND ISZERO PUSH2 0x3516 JUMPI PUSH2 0x3511 DUP4 PUSH2 0x3F0D JUMP JUMPDEST PUSH2 0x362E JUMP JUMPDEST DUP3 PUSH20 0xFFFFFFFFFFFFFFFFFFFFFFFFFFFFFFFFFFFFFFFF AND PUSH4 0x52D1902D PUSH1 0x40 MLOAD DUP2 PUSH4 0xFFFFFFFF AND PUSH1 0xE0 SHL DUP2 MSTORE PUSH1 0x4 ADD PUSH1 0x20 PUSH1 0x40 MLOAD DUP1 DUP4 SUB DUP2 DUP7 GAS STATICCALL SWAP3 POP POP POP DUP1 ISZERO PUSH2 0x357E JUMPI POP PUSH1 0x40 MLOAD RETURNDATASIZE PUSH1 0x1F NOT PUSH1 0x1F DUP3 ADD AND DUP3 ADD DUP1 PUSH1 0x40 MSTORE POP DUP2 ADD SWAP1 PUSH2 0x357B SWAP2 SWAP1 PUSH2 0x7581 JUMP JUMPDEST PUSH1 0x1 JUMPDEST PUSH2 0x35BD JUMPI PUSH1 0x40 MLOAD PUSH32 0x8C379A000000000000000000000000000000000000000000000000000000000 DUP2 MSTORE PUSH1 0x4 ADD PUSH2 0x35B4 SWAP1 PUSH2 0x761C JUMP JUMPDEST PUSH1 0x40 MLOAD DUP1 SWAP2 SUB SWAP1 REVERT JUMPDEST PUSH32 0x360894A13BA1A3210667C828492DB98DCA3E2076CC3735A920A3CA505D382BBC PUSH0 SHL DUP2 EQ PUSH2 0x3621 JUMPI PUSH1 0x40 MLOAD PUSH32 0x8C379A000000000000000000000000000000000000000000000000000000000 DUP2 MSTORE PUSH1 0x4 ADD PUSH2 0x3618 SWAP1 PUSH2 0x76AA JUMP JUMPDEST PUSH1 0x40 MLOAD DUP1 SWAP2 SUB SWAP1 REVERT JUMPDEST POP PUSH2 0x362D DUP4 DUP4 DUP4 PUSH2 0x3FC3 JUMP JUMPDEST JUMPDEST POP POP POP JUMP JUMPDEST PUSH0 PUSH2 0x363D DUP3 PUSH2 0x1C5B JUMP JUMPDEST SWAP1 POP PUSH2 0x364A DUP2 PUSH0 DUP5 PUSH2 0x3E3B JUMP JUMPDEST PUSH2 0x3654 PUSH0 DUP4 PUSH2 0x2CC0 JUMP JUMPDEST PUSH1 0x1 PUSH1 0x68 PUSH0 DUP4 PUSH20 0xFFFFFFFFFFFFFFFFFFFFFFFFFFFFFFFFFFFFFFFF AND PUSH20 0xFFFFFFFFFFFFFFFFFFFFFFFFFFFFFFFFFFFFFFFF AND DUP2 MSTORE PUSH1 0x20 ADD SWAP1 DUP2 MSTORE PUSH1 0x20 ADD PUSH0 KECCAK256 PUSH0 DUP3 DUP3 SLOAD PUSH2 0x36A1 SWAP2 SWAP1 PUSH2 0x7212 JUMP JUMPDEST SWAP3 POP POP DUP2 SWAP1 SSTORE POP PUSH1 0x67 PUSH0 DUP4 DUP2 MSTORE PUSH1 0x20 ADD SWAP1 DUP2 MSTORE PUSH1 0x20 ADD PUSH0 KECCAK256 PUSH0 PUSH2 0x100 EXP DUP2 SLOAD SWAP1 PUSH20 0xFFFFFFFFFFFFFFFFFFFFFFFFFFFFFFFFFFFFFFFF MUL NOT AND SWAP1 SSTORE DUP2 PUSH0 PUSH20 0xFFFFFFFFFFFFFFFFFFFFFFFFFFFFFFFFFFFFFFFF AND DUP3 PUSH20 0xFFFFFFFFFFFFFFFFFFFFFFFFFFFFFFFFFFFFFFFF AND PUSH32 0xDDF252AD1BE2C89B69C2B068FC378DAA952BA7F163C4A11628F55A4DF523B3EF PUSH1 0x40 MLOAD PUSH1 0x40 MLOAD DUP1 SWAP2 SUB SWAP1 LOG4 PUSH2 0x3741 DUP2 PUSH0 DUP5 PUSH2 0x3EB9 JUMP JUMPDEST POP POP JUMP JUMPDEST PUSH0 DUP1 DUP3 PUSH20 0xFFFFFFFFFFFFFFFFFFFFFFFFFFFFFFFFFFFFFFFF AND EXTCODESIZE GT SWAP1 POP SWAP2 SWAP1 POP JUMP JUMPDEST PUSH0 PUSH1 0x1 SWAP1 SLOAD SWAP1 PUSH2 0x100 EXP SWAP1 DIV PUSH1 0xFF AND PUSH2 0x37B5 JUMPI PUSH1 0x40 MLOAD PUSH32 0x8C379A000000000000000000000000000000000000000000000000000000000 DUP2 MSTORE PUSH1 0x4 ADD PUSH2 0x37AC SWAP1 PUSH2 0x7738 JUMP JUMPDEST PUSH1 0x40 MLOAD DUP1 SWAP2 SUB SWAP1 REVERT JUMPDEST PUSH2 0x37BF DUP3 DUP3 PUSH2 0x3FEE JUMP JUMPDEST POP POP JUMP JUMPDEST PUSH0 PUSH1 0x1 SWAP1 SLOAD SWAP1 PUSH2 0x100 EXP SWAP1 DIV PUSH1 0xFF AND PUSH2 0x3811 JUMPI PUSH1 0x40 MLOAD PUSH32 0x8C379A000000000000000000000000000000000000000000000000000000000 DUP2 MSTORE PUSH1 0x4 ADD PUSH2 0x3808 SWAP1 PUSH2 0x7738 JUMP JUMPDEST PUSH1 0x40 MLOAD DUP1 SWAP2 SUB SWAP1 REVERT JUMPDEST JUMP JUMPDEST PUSH0 PUSH1 0x1 SWAP1 SLOAD SWAP1 PUSH2 0x100 EXP SWAP1 DIV PUSH1 0xFF AND PUSH2 0x3861 JUMPI PUSH1 0x40 MLOAD PUSH32 0x8C379A000000000000000000000000000000000000000000000000000000000 DUP2 MSTORE PUSH1 0x4 ADD PUSH2 0x3858 SWAP1 PUSH2 0x7738 JUMP JUMPDEST PUSH1 0x40 MLOAD DUP1 SWAP2 SUB SWAP1 REVERT JUMPDEST JUMP JUMPDEST PUSH0 PUSH1 0x1 SWAP1 SLOAD SWAP1 PUSH2 0x100 EXP SWAP1 DIV PUSH1 0xFF AND PUSH2 0x38B1 JUMPI PUSH1 0x40 MLOAD PUSH32 0x8C379A000000000000000000000000000000000000000000000000000000000 DUP2 MSTORE PUSH1 0x4 ADD PUSH2 0x38A8 SWAP1 PUSH2 0x7738 JUMP JUMPDEST PUSH1 0x40 MLOAD DUP1 SWAP2 SUB SWAP1 REVERT JUMPDEST JUMP JUMPDEST PUSH0 PUSH1 0x1 SWAP1 SLOAD SWAP1 PUSH2 0x100 EXP SWAP1 DIV PUSH1 0xFF AND PUSH2 0x3901 JUMPI PUSH1 0x40 MLOAD PUSH32 0x8C379A000000000000000000000000000000000000000000000000000000000 DUP2 MSTORE PUSH1 0x4 ADD PUSH2 0x38F8 SWAP1 PUSH2 0x7738 JUMP JUMPDEST PUSH1 0x40 MLOAD DUP1 SWAP2 SUB SWAP1 REVERT JUMPDEST JUMP JUMPDEST PUSH2 0x390D DUP3 DUP3 PUSH2 0x3079 JUMP JUMPDEST POP POP JUMP JUMPDEST DUP2 PUSH20 0xFFFFFFFFFFFFFFFFFFFFFFFFFFFFFFFFFFFFFFFF AND DUP4 PUSH20 0xFFFFFFFFFFFFFFFFFFFFFFFFFFFFFFFFFFFFFFFF AND SUB PUSH2 0x397F JUMPI PUSH1 0x40 MLOAD PUSH32 0x8C379A000000000000000000000000000000000000000000000000000000000 DUP2 MSTORE PUSH1 0x4 ADD PUSH2 0x3976 SWAP1 PUSH2 0x77A0 JUMP JUMPDEST PUSH1 0x40 MLOAD DUP1 SWAP2 SUB SWAP1 REVERT JUMPDEST DUP1 PUSH1 0x6A PUSH0 DUP6 PUSH20 0xFFFFFFFFFFFFFFFFFFFFFFFFFFFFFFFFFFFFFFFF AND PUSH20 0xFFFFFFFFFFFFFFFFFFFFFFFFFFFFFFFFFFFFFFFF AND DUP2 MSTORE PUSH1 0x20 ADD SWAP1 DUP2 MSTORE PUSH1 0x20 ADD PUSH0 KECCAK256 PUSH0 DUP5 PUSH20 0xFFFFFFFFFFFFFFFFFFFFFFFFFFFFFFFFFFFFFFFF AND PUSH20 0xFFFFFFFFFFFFFFFFFFFFFFFFFFFFFFFFFFFFFFFF AND DUP2 MSTORE PUSH1 0x20 ADD SWAP1 DUP2 MSTORE PUSH1 0x20 ADD PUSH0 KECCAK256 PUSH0 PUSH2 0x100 EXP DUP2 SLOAD DUP2 PUSH1 0xFF MUL NOT AND SWAP1 DUP4 ISZERO ISZERO MUL OR SWAP1 SSTORE POP DUP2 PUSH20 0xFFFFFFFFFFFFFFFFFFFFFFFFFFFFFFFFFFFFFFFF AND DUP4 PUSH20 0xFFFFFFFFFFFFFFFFFFFFFFFFFFFFFFFFFFFFFFFF AND PUSH32 0x17307EAB39AB6107E8899845AD3D59BD9653F200F220920489CA2B5937696C31 DUP4 PUSH1 0x40 MLOAD PUSH2 0x3A6B SWAP2 SWAP1 PUSH2 0x4EC2 JUMP JUMPDEST PUSH1 0x40 MLOAD DUP1 SWAP2 SUB SWAP1 LOG3 POP POP POP JUMP JUMPDEST PUSH2 0x3A83 DUP5 DUP5 DUP5 PUSH2 0x2E1E JUMP JUMPDEST PUSH2 0x3A8F DUP5 DUP5 DUP5 DUP5 PUSH2 0x4060 JUMP JUMPDEST PUSH2 0x3ACE JUMPI PUSH1 0x40 MLOAD PUSH32 0x8C379A000000000000000000000000000000000000000000000000000000000 DUP2 MSTORE PUSH1 0x4 ADD PUSH2 0x3AC5 SWAP1 PUSH2 0x782E JUMP JUMPDEST PUSH1 0x40 MLOAD DUP1 SWAP2 SUB SWAP1 REVERT JUMPDEST POP POP POP POP JUMP JUMPDEST PUSH1 0x60 PUSH2 0x196 DUP1 SLOAD PUSH2 0x3AE4 SWAP1 PUSH2 0x5CAA JUMP JUMPDEST DUP1 PUSH1 0x1F ADD PUSH1 0x20 DUP1 SWAP2 DIV MUL PUSH1 0x20 ADD PUSH1 0x40 MLOAD SWAP1 DUP2 ADD PUSH1 0x40 MSTORE DUP1 SWAP3 SWAP2 SWAP1 DUP2 DUP2 MSTORE PUSH1 0x20 ADD DUP3 DUP1 SLOAD PUSH2 0x3B10 SWAP1 PUSH2 0x5CAA JUMP JUMPDEST DUP1 ISZERO PUSH2 0x3B5B JUMPI DUP1 PUSH1 0x1F LT PUSH2 0x3B32 JUMPI PUSH2 0x100 DUP1 DUP4 SLOAD DIV MUL DUP4 MSTORE SWAP2 PUSH1 0x20 ADD SWAP2 PUSH2 0x3B5B JUMP JUMPDEST DUP3 ADD SWAP2 SWAP1 PUSH0 MSTORE PUSH1 0x20 PUSH0 KECCAK256 SWAP1 JUMPDEST DUP2 SLOAD DUP2 MSTORE SWAP1 PUSH1 0x1 ADD SWAP1 PUSH1 0x20 ADD DUP1 DUP4 GT PUSH2 0x3B3E JUMPI DUP3 SWAP1 SUB PUSH1 0x1F AND DUP3 ADD SWAP2 JUMPDEST POP POP POP POP POP SWAP1 POP SWAP1 JUMP JUMPDEST PUSH1 0x60 PUSH0 DUP3 SUB PUSH2 0x3BAB JUMPI PUSH1 0x40 MLOAD DUP1 PUSH1 0x40 ADD PUSH1 0x40 MSTORE DUP1 PUSH1 0x1 DUP2 MSTORE PUSH1 0x20 ADD PUSH32 0x3000000000000000000000000000000000000000000000000000000000000000 DUP2 MSTORE POP SWAP1 POP PUSH2 0x3CB9 JUMP JUMPDEST PUSH0 DUP3 SWAP1 POP PUSH0 JUMPDEST PUSH0 DUP3 EQ PUSH2 0x3BDA JUMPI DUP1 DUP1 PUSH2 0x3BC3 SWAP1 PUSH2 0x631C JUMP JUMPDEST SWAP2 POP POP PUSH1 0xA DUP3 PUSH2 0x3BD3 SWAP2 SWAP1 PUSH2 0x7879 JUMP JUMPDEST SWAP2 POP PUSH2 0x3BB1 JUMP JUMPDEST PUSH0 DUP2 PUSH8 0xFFFFFFFFFFFFFFFF DUP2 GT ISZERO PUSH2 0x3BF5 JUMPI PUSH2 0x3BF4 PUSH2 0x5102 JUMP JUMPDEST JUMPDEST PUSH1 0x40 MLOAD SWAP1 DUP1 DUP3 MSTORE DUP1 PUSH1 0x1F ADD PUSH1 0x1F NOT AND PUSH1 0x20 ADD DUP3 ADD PUSH1 0x40 MSTORE DUP1 ISZERO PUSH2 0x3C27 JUMPI DUP2 PUSH1 0x20 ADD PUSH1 0x1 DUP3 MUL DUP1 CALLDATASIZE DUP4 CALLDATACOPY DUP1 DUP3 ADD SWAP2 POP POP SWAP1 POP JUMPDEST POP SWAP1 POP JUMPDEST PUSH0 DUP6 EQ PUSH2 0x3CB2 JUMPI PUSH1 0x1 DUP3 PUSH2 0x3C3F SWAP2 SWAP1 PUSH2 0x7212 JUMP JUMPDEST SWAP2 POP PUSH1 0xA DUP6 PUSH2 0x3C4E SWAP2 SWAP1 PUSH2 0x78A9 JUMP JUMPDEST PUSH1 0x30 PUSH2 0x3C5A SWAP2 SWAP1 PUSH2 0x5EB8 JUMP JUMPDEST PUSH1 0xF8 SHL DUP2 DUP4 DUP2 MLOAD DUP2 LT PUSH2 0x3C70 JUMPI PUSH2 0x3C6F PUSH2 0x5E5E JUMP JUMPDEST JUMPDEST PUSH1 0x20 ADD ADD SWAP1 PUSH31 0xFFFFFFFFFFFFFFFFFFFFFFFFFFFFFFFFFFFFFFFFFFFFFFFFFFFFFFFFFFFFFF NOT AND SWAP1 DUP2 PUSH0 BYTE SWAP1 MSTORE8 POP PUSH1 0xA DUP6 PUSH2 0x3CAB SWAP2 SWAP1 PUSH2 0x7879 JUMP JUMPDEST SWAP5 POP PUSH2 0x3C2B JUMP JUMPDEST DUP1 SWAP4 POP POP POP POP JUMPDEST SWAP2 SWAP1 POP JUMP JUMPDEST PUSH0 PUSH32 0x780E9D6300000000000000000000000000000000000000000000000000000000 PUSH28 0xFFFFFFFFFFFFFFFFFFFFFFFFFFFFFFFFFFFFFFFFFFFFFFFFFFFFFFFF NOT AND DUP3 PUSH28 0xFFFFFFFFFFFFFFFFFFFFFFFFFFFFFFFFFFFFFFFFFFFFFFFFFFFFFFFF NOT AND EQ DUP1 PUSH2 0x3D30 JUMPI POP PUSH2 0x3D2F DUP3 PUSH2 0x41E2 JUMP JUMPDEST JUMPDEST SWAP1 POP SWAP2 SWAP1 POP JUMP JUMPDEST PUSH0 DUP1 PUSH20 0xFFFFFFFFFFFFFFFFFFFFFFFFFFFFFFFFFFFFFFFF AND PUSH1 0x67 PUSH0 DUP5 DUP2 MSTORE PUSH1 0x20 ADD SWAP1 DUP2 MSTORE PUSH1 0x20 ADD PUSH0 KECCAK256 PUSH0 SWAP1 SLOAD SWAP1 PUSH2 0x100 EXP SWAP1 DIV PUSH20 0xFFFFFFFFFFFFFFFFFFFFFFFFFFFFFFFFFFFFFFFF AND PUSH20 0xFFFFFFFFFFFFFFFFFFFFFFFFFFFFFFFFFFFFFFFF AND EQ ISZERO SWAP1 POP SWAP2 SWAP1 POP JUMP JUMPDEST PUSH2 0x3DA9 DUP3 DUP3 PUSH2 0x26B9 JUMP JUMPDEST PUSH2 0x3E37 JUMPI PUSH2 0x3DCE DUP2 PUSH20 0xFFFFFFFFFFFFFFFFFFFFFFFFFFFFFFFFFFFFFFFF AND PUSH1 0x14 PUSH2 0x42C3 JUMP JUMPDEST PUSH2 0x3DDB DUP4 PUSH0 SHR PUSH1 0x20 PUSH2 0x42C3 JUMP JUMPDEST PUSH1 0x40 MLOAD PUSH1 0x20 ADD PUSH2 0x3DEC SWAP3 SWAP2 SWAP1 PUSH2 0x796D JUMP JUMPDEST PUSH1 0x40 MLOAD PUSH1 0x20 DUP2 DUP4 SUB SUB DUP2 MSTORE SWAP1 PUSH1 0x40 MSTORE PUSH1 0x40 MLOAD PUSH32 0x8C379A000000000000000000000000000000000000000000000000000000000 DUP2 MSTORE PUSH1 0x4 ADD PUSH2 0x3E2E SWAP2 SWAP1 PUSH2 0x4F65 JUMP JUMPDEST PUSH1 0x40 MLOAD DUP1 SWAP2 SUB SWAP1 REVERT JUMPDEST POP POP JUMP JUMPDEST PUSH0 PUSH20 0xFFFFFFFFFFFFFFFFFFFFFFFFFFFFFFFFFFFFFFFF AND DUP4 PUSH20 0xFFFFFFFFFFFFFFFFFFFFFFFFFFFFFFFFFFFFFFFF AND EQ PUSH2 0x3EA9 JUMPI PUSH1 0x40 MLOAD PUSH32 0x8C379A000000000000000000000000000000000000000000000000000000000 DUP2 MSTORE PUSH1 0x4 ADD PUSH2 0x3EA0 SWAP1 PUSH2 0x79F0 JUMP JUMPDEST PUSH1 0x40 MLOAD DUP1 SWAP2 SUB SWAP1 REVERT JUMPDEST PUSH2 0x3EB4 DUP4 DUP4 DUP4 PUSH2 0x44F8 JUMP JUMPDEST POP POP POP JUMP JUMPDEST POP POP POP JUMP JUMPDEST PUSH0 DUP2 PUSH0 ADD SLOAD SWAP1 POP SWAP2 SWAP1 POP JUMP JUMPDEST PUSH1 0x1 DUP2 PUSH0 ADD PUSH0 DUP3 DUP3 SLOAD ADD SWAP3 POP POP DUP2 SWAP1 SSTORE POP POP JUMP JUMPDEST PUSH2 0x3EF7 DUP3 DUP3 PUSH1 0x40 MLOAD DUP1 PUSH1 0x20 ADD PUSH1 0x40 MSTORE DUP1 PUSH0 DUP2 MSTORE POP PUSH2 0x4608 JUMP JUMPDEST POP POP JUMP JUMPDEST PUSH0 DUP2 SWAP1 POP SWAP2 SWAP1 POP JUMP JUMPDEST PUSH0 DUP2 SWAP1 POP SWAP2 SWAP1 POP JUMP JUMPDEST PUSH2 0x3F16 DUP2 PUSH2 0x3745 JUMP JUMPDEST PUSH2 0x3F55 JUMPI PUSH1 0x40 MLOAD PUSH32 0x8C379A000000000000000000000000000000000000000000000000000000000 DUP2 MSTORE PUSH1 0x4 ADD PUSH2 0x3F4C SWAP1 PUSH2 0x7A7E JUMP JUMPDEST PUSH1 0x40 MLOAD DUP1 SWAP2 SUB SWAP1 REVERT JUMPDEST DUP1 PUSH2 0x3F81 PUSH32 0x360894A13BA1A3210667C828492DB98DCA3E2076CC3735A920A3CA505D382BBC PUSH0 SHL PUSH2 0x3EFB JUMP JUMPDEST PUSH0 ADD PUSH0 PUSH2 0x100 EXP DUP2 SLOAD DUP2 PUSH20 0xFFFFFFFFFFFFFFFFFFFFFFFFFFFFFFFFFFFFFFFF MUL NOT AND SWAP1 DUP4 PUSH20 0xFFFFFFFFFFFFFFFFFFFFFFFFFFFFFFFFFFFFFFFF AND MUL OR SWAP1 SSTORE POP POP JUMP JUMPDEST PUSH2 0x3FCC DUP4 PUSH2 0x4662 JUMP JUMPDEST PUSH0 DUP3 MLOAD GT DUP1 PUSH2 0x3FD8 JUMPI POP DUP1 JUMPDEST ISZERO PUSH2 0x3FE9 JUMPI PUSH2 0x3FE7 DUP4 DUP4 PUSH2 0x46B1 JUMP JUMPDEST POP JUMPDEST POP POP POP JUMP JUMPDEST PUSH0 PUSH1 0x1 SWAP1 SLOAD SWAP1 PUSH2 0x100 EXP SWAP1 DIV PUSH1 0xFF AND PUSH2 0x403C JUMPI PUSH1 0x40 MLOAD PUSH32 0x8C379A000000000000000000000000000000000000000000000000000000000 DUP2 MSTORE PUSH1 0x4 ADD PUSH2 0x4033 SWAP1 PUSH2 0x7738 JUMP JUMPDEST PUSH1 0x40 MLOAD DUP1 SWAP2 SUB SWAP1 REVERT JUMPDEST DUP2 PUSH1 0x65 SWAP1 DUP2 PUSH2 0x404B SWAP2 SWAP1 PUSH2 0x7245 JUMP JUMPDEST POP DUP1 PUSH1 0x66 SWAP1 DUP2 PUSH2 0x405B SWAP2 SWAP1 PUSH2 0x7245 JUMP JUMPDEST POP POP POP JUMP JUMPDEST PUSH0 PUSH2 0x4080 DUP5 PUSH20 0xFFFFFFFFFFFFFFFFFFFFFFFFFFFFFFFFFFFFFFFF AND PUSH2 0x3745 JUMP JUMPDEST ISZERO PUSH2 0x41D5 JUMPI DUP4 PUSH20 0xFFFFFFFFFFFFFFFFFFFFFFFFFFFFFFFFFFFFFFFF AND PUSH4 0x150B7A02 PUSH2 0x40A9 PUSH2 0x2CB9 JUMP JUMPDEST DUP8 DUP7 DUP7 PUSH1 0x40 MLOAD DUP6 PUSH4 0xFFFFFFFF AND PUSH1 0xE0 SHL DUP2 MSTORE PUSH1 0x4 ADD PUSH2 0x40CB SWAP5 SWAP4 SWAP3 SWAP2 SWAP1 PUSH2 0x7A9C JUMP JUMPDEST PUSH1 0x20 PUSH1 0x40 MLOAD DUP1 DUP4 SUB DUP2 PUSH0 DUP8 GAS CALL SWAP3 POP POP POP DUP1 ISZERO PUSH2 0x4106 JUMPI POP PUSH1 0x40 MLOAD RETURNDATASIZE PUSH1 0x1F NOT PUSH1 0x1F DUP3 ADD AND DUP3 ADD DUP1 PUSH1 0x40 MSTORE POP DUP2 ADD SWAP1 PUSH2 0x4103 SWAP2 SWAP1 PUSH2 0x7AFA JUMP JUMPDEST PUSH1 0x1 JUMPDEST PUSH2 0x4185 JUMPI RETURNDATASIZE DUP1 PUSH0 DUP2 EQ PUSH2 0x4134 JUMPI PUSH1 0x40 MLOAD SWAP2 POP PUSH1 0x1F NOT PUSH1 0x3F RETURNDATASIZE ADD AND DUP3 ADD PUSH1 0x40 MSTORE RETURNDATASIZE DUP3 MSTORE RETURNDATASIZE PUSH0 PUSH1 0x20 DUP5 ADD RETURNDATACOPY PUSH2 0x4139 JUMP JUMPDEST PUSH1 0x60 SWAP2 POP JUMPDEST POP PUSH0 DUP2 MLOAD SUB PUSH2 0x417D JUMPI PUSH1 0x40 MLOAD PUSH32 0x8C379A000000000000000000000000000000000000000000000000000000000 DUP2 MSTORE PUSH1 0x4 ADD PUSH2 0x4174 SWAP1 PUSH2 0x782E JUMP JUMPDEST PUSH1 0x40 MLOAD DUP1 SWAP2 SUB SWAP1 REVERT JUMPDEST DUP1 MLOAD DUP2 PUSH1 0x20 ADD REVERT JUMPDEST PUSH4 0x150B7A02 PUSH1 0xE0 SHL PUSH28 0xFFFFFFFFFFFFFFFFFFFFFFFFFFFFFFFFFFFFFFFFFFFFFFFFFFFFFFFF NOT AND DUP2 PUSH28 0xFFFFFFFFFFFFFFFFFFFFFFFFFFFFFFFFFFFFFFFFFFFFFFFFFFFFFFFF NOT AND EQ SWAP2 POP POP PUSH2 0x41DA JUMP JUMPDEST PUSH1 0x1 SWAP1 POP JUMPDEST SWAP5 SWAP4 POP POP POP POP JUMP JUMPDEST PUSH0 PUSH32 0x80AC58CD00000000000000000000000000000000000000000000000000000000 PUSH28 0xFFFFFFFFFFFFFFFFFFFFFFFFFFFFFFFFFFFFFFFFFFFFFFFFFFFFFFFF NOT AND DUP3 PUSH28 0xFFFFFFFFFFFFFFFFFFFFFFFFFFFFFFFFFFFFFFFFFFFFFFFFFFFFFFFF NOT AND EQ DUP1 PUSH2 0x42AC JUMPI POP PUSH32 0x5B5E139F00000000000000000000000000000000000000000000000000000000 PUSH28 0xFFFFFFFFFFFFFFFFFFFFFFFFFFFFFFFFFFFFFFFFFFFFFFFFFFFFFFFF NOT AND DUP3 PUSH28 0xFFFFFFFFFFFFFFFFFFFFFFFFFFFFFFFFFFFFFFFFFFFFFFFFFFFFFFFF NOT AND EQ JUMPDEST DUP1 PUSH2 0x42BC JUMPI POP PUSH2 0x42BB DUP3 PUSH2 0x4791 JUMP JUMPDEST JUMPDEST SWAP1 POP SWAP2 SWAP1 POP JUMP JUMPDEST PUSH1 0x60 PUSH0 PUSH1 0x2 DUP4 PUSH1 0x2 PUSH2 0x42D5 SWAP2 SWAP1 PUSH2 0x7B25 JUMP JUMPDEST PUSH2 0x42DF SWAP2 SWAP1 PUSH2 0x5EB8 JUMP JUMPDEST PUSH8 0xFFFFFFFFFFFFFFFF DUP2 GT ISZERO PUSH2 0x42F8 JUMPI PUSH2 0x42F7 PUSH2 0x5102 JUMP JUMPDEST JUMPDEST PUSH1 0x40 MLOAD SWAP1 DUP1 DUP3 MSTORE DUP1 PUSH1 0x1F ADD PUSH1 0x1F NOT AND PUSH1 0x20 ADD DUP3 ADD PUSH1 0x40 MSTORE DUP1 ISZERO PUSH2 0x432A JUMPI DUP2 PUSH1 0x20 ADD PUSH1 0x1 DUP3 MUL DUP1 CALLDATASIZE DUP4 CALLDATACOPY DUP1 DUP3 ADD SWAP2 POP POP SWAP1 POP JUMPDEST POP SWAP1 POP PUSH32 0x3000000000000000000000000000000000000000000000000000000000000000 DUP2 PUSH0 DUP2 MLOAD DUP2 LT PUSH2 0x4361 JUMPI PUSH2 0x4360 PUSH2 0x5E5E JUMP JUMPDEST JUMPDEST PUSH1 0x20 ADD ADD SWAP1 PUSH31 0xFFFFFFFFFFFFFFFFFFFFFFFFFFFFFFFFFFFFFFFFFFFFFFFFFFFFFFFFFFFFFF NOT AND SWAP1 DUP2 PUSH0 BYTE SWAP1 MSTORE8 POP PUSH32 0x7800000000000000000000000000000000000000000000000000000000000000 DUP2 PUSH1 0x1 DUP2 MLOAD DUP2 LT PUSH2 0x43C4 JUMPI PUSH2 0x43C3 PUSH2 0x5E5E JUMP JUMPDEST JUMPDEST PUSH1 0x20 ADD ADD SWAP1 PUSH31 0xFFFFFFFFFFFFFFFFFFFFFFFFFFFFFFFFFFFFFFFFFFFFFFFFFFFFFFFFFFFFFF NOT AND SWAP1 DUP2 PUSH0 BYTE SWAP1 MSTORE8 POP PUSH0 PUSH1 0x1 DUP5 PUSH1 0x2 PUSH2 0x4402 SWAP2 SWAP1 PUSH2 0x7B25 JUMP JUMPDEST PUSH2 0x440C SWAP2 SWAP1 PUSH2 0x5EB8 JUMP JUMPDEST SWAP1 POP JUMPDEST PUSH1 0x1 DUP2 GT ISZERO PUSH2 0x44AB JUMPI PUSH32 0x3031323334353637383961626364656600000000000000000000000000000000 PUSH1 0xF DUP7 AND PUSH1 0x10 DUP2 LT PUSH2 0x444E JUMPI PUSH2 0x444D PUSH2 0x5E5E JUMP JUMPDEST JUMPDEST BYTE PUSH1 0xF8 SHL DUP3 DUP3 DUP2 MLOAD DUP2 LT PUSH2 0x4465 JUMPI PUSH2 0x4464 PUSH2 0x5E5E JUMP JUMPDEST JUMPDEST PUSH1 0x20 ADD ADD SWAP1 PUSH31 0xFFFFFFFFFFFFFFFFFFFFFFFFFFFFFFFFFFFFFFFFFFFFFFFFFFFFFFFFFFFFFF NOT AND SWAP1 DUP2 PUSH0 BYTE SWAP1 MSTORE8 POP PUSH1 0x4 DUP6 SWAP1 SHR SWAP5 POP DUP1 PUSH2 0x44A4 SWAP1 PUSH2 0x6459 JUMP JUMPDEST SWAP1 POP PUSH2 0x440F JUMP JUMPDEST POP PUSH0 DUP5 EQ PUSH2 0x44EE JUMPI PUSH1 0x40 MLOAD PUSH32 0x8C379A000000000000000000000000000000000000000000000000000000000 DUP2 MSTORE PUSH1 0x4 ADD PUSH2 0x44E5 SWAP1 PUSH2 0x7BB0 JUMP JUMPDEST PUSH1 0x40 MLOAD DUP1 SWAP2 SUB SWAP1 REVERT JUMPDEST DUP1 SWAP2 POP POP SWAP3 SWAP2 POP POP JUMP JUMPDEST PUSH2 0x4503 DUP4 DUP4 DUP4 PUSH2 0x47FA JUMP JUMPDEST PUSH0 PUSH20 0xFFFFFFFFFFFFFFFFFFFFFFFFFFFFFFFFFFFFFFFF AND DUP4 PUSH20 0xFFFFFFFFFFFFFFFFFFFFFFFFFFFFFFFFFFFFFFFF AND SUB PUSH2 0x4544 JUMPI PUSH2 0x453F DUP2 PUSH2 0x47FF JUMP JUMPDEST PUSH2 0x4583 JUMP JUMPDEST DUP2 PUSH20 0xFFFFFFFFFFFFFFFFFFFFFFFFFFFFFFFFFFFFFFFF AND DUP4 PUSH20 0xFFFFFFFFFFFFFFFFFFFFFFFFFFFFFFFFFFFFFFFF AND EQ PUSH2 0x4582 JUMPI PUSH2 0x4581 DUP4 DUP3 PUSH2 0x4843 JUMP JUMPDEST JUMPDEST JUMPDEST PUSH0 PUSH20 0xFFFFFFFFFFFFFFFFFFFFFFFFFFFFFFFFFFFFFFFF AND DUP3 PUSH20 0xFFFFFFFFFFFFFFFFFFFFFFFFFFFFFFFFFFFFFFFF AND SUB PUSH2 0x45C4 JUMPI PUSH2 0x45BF DUP2 PUSH2 0x4999 JUMP JUMPDEST PUSH2 0x4603 JUMP JUMPDEST DUP3 PUSH20 0xFFFFFFFFFFFFFFFFFFFFFFFFFFFFFFFFFFFFFFFF AND DUP3 PUSH20 0xFFFFFFFFFFFFFFFFFFFFFFFFFFFFFFFFFFFFFFFF AND EQ PUSH2 0x4602 JUMPI PUSH2 0x4601 DUP3 DUP3 PUSH2 0x4A59 JUMP JUMPDEST JUMPDEST JUMPDEST POP POP POP JUMP JUMPDEST PUSH2 0x4612 DUP4 DUP4 PUSH2 0x4AD1 JUMP JUMPDEST PUSH2 0x461E PUSH0 DUP5 DUP5 DUP5 PUSH2 0x4060 JUMP JUMPDEST PUSH2 0x465D JUMPI PUSH1 0x40 MLOAD PUSH32 0x8C379A000000000000000000000000000000000000000000000000000000000 DUP2 MSTORE PUSH1 0x4 ADD PUSH2 0x4654 SWAP1 PUSH2 0x782E JUMP JUMPDEST PUSH1 0x40 MLOAD DUP1 SWAP2 SUB SWAP1 REVERT JUMPDEST POP POP POP JUMP JUMPDEST PUSH2 0x466B DUP2 PUSH2 0x3F0D JUMP JUMPDEST DUP1 PUSH20 0xFFFFFFFFFFFFFFFFFFFFFFFFFFFFFFFFFFFFFFFF AND PUSH32 0xBC7CD75A20EE27FD9ADEBAB32041F755214DBC6BFFA90CC0225B39DA2E5C2D3B PUSH1 0x40 MLOAD PUSH1 0x40 MLOAD DUP1 SWAP2 SUB SWAP1 LOG2 POP JUMP JUMPDEST PUSH1 0x60 PUSH2 0x46BC DUP4 PUSH2 0x3745 JUMP JUMPDEST PUSH2 0x46FB JUMPI PUSH1 0x40 MLOAD PUSH32 0x8C379A000000000000000000000000000000000000000000000000000000000 DUP2 MSTORE PUSH1 0x4 ADD PUSH2 0x46F2 SWAP1 PUSH2 0x7C3E JUMP JUMPDEST PUSH1 0x40 MLOAD DUP1 SWAP2 SUB SWAP1 REVERT JUMPDEST PUSH0 DUP1 DUP5 PUSH20 0xFFFFFFFFFFFFFFFFFFFFFFFFFFFFFFFFFFFFFFFF AND DUP5 PUSH1 0x40 MLOAD PUSH2 0x4722 SWAP2 SWAP1 PUSH2 0x6B13 JUMP JUMPDEST PUSH0 PUSH1 0x40 MLOAD DUP1 DUP4 SUB DUP2 DUP6 GAS DELEGATECALL SWAP2 POP POP RETURNDATASIZE DUP1 PUSH0 DUP2 EQ PUSH2 0x475A JUMPI PUSH1 0x40 MLOAD SWAP2 POP PUSH1 0x1F NOT PUSH1 0x3F RETURNDATASIZE ADD AND DUP3 ADD PUSH1 0x40 MSTORE RETURNDATASIZE DUP3 MSTORE RETURNDATASIZE PUSH0 PUSH1 0x20 DUP5 ADD RETURNDATACOPY PUSH2 0x475F JUMP JUMPDEST PUSH1 0x60 SWAP2 POP JUMPDEST POP SWAP2 POP SWAP2 POP PUSH2 0x4787 DUP3 DUP3 PUSH1 0x40 MLOAD DUP1 PUSH1 0x60 ADD PUSH1 0x40 MSTORE DUP1 PUSH1 0x27 DUP2 MSTORE PUSH1 0x20 ADD PUSH2 0x7D5A PUSH1 0x27 SWAP2 CODECOPY PUSH2 0x4CA0 JUMP JUMPDEST SWAP3 POP POP POP SWAP3 SWAP2 POP POP JUMP JUMPDEST PUSH0 PUSH32 0x1FFC9A700000000000000000000000000000000000000000000000000000000 PUSH28 0xFFFFFFFFFFFFFFFFFFFFFFFFFFFFFFFFFFFFFFFFFFFFFFFFFFFFFFFF NOT AND DUP3 PUSH28 0xFFFFFFFFFFFFFFFFFFFFFFFFFFFFFFFFFFFFFFFFFFFFFFFFFFFFFFFF NOT AND EQ SWAP1 POP SWAP2 SWAP1 POP JUMP JUMPDEST POP POP POP JUMP JUMPDEST PUSH1 0x99 DUP1 SLOAD SWAP1 POP PUSH1 0x9A PUSH0 DUP4 DUP2 MSTORE PUSH1 0x20 ADD SWAP1 DUP2 MSTORE PUSH1 0x20 ADD PUSH0 KECCAK256 DUP2 SWAP1 SSTORE POP PUSH1 0x99 DUP2 SWAP1 DUP1 PUSH1 0x1 DUP2 SLOAD ADD DUP1 DUP3 SSTORE DUP1 SWAP2 POP POP PUSH1 0x1 SWAP1 SUB SWAP1 PUSH0 MSTORE PUSH1 0x20 PUSH0 KECCAK256 ADD PUSH0 SWAP1 SWAP2 SWAP1 SWAP2 SWAP1 SWAP2 POP SSTORE POP JUMP JUMPDEST PUSH0 PUSH1 0x1 PUSH2 0x484F DUP5 PUSH2 0x1D94 JUMP JUMPDEST PUSH2 0x4859 SWAP2 SWAP1 PUSH2 0x7212 JUMP JUMPDEST SWAP1 POP PUSH0 PUSH1 0x98 PUSH0 DUP5 DUP2 MSTORE PUSH1 0x20 ADD SWAP1 DUP2 MSTORE PUSH1 0x20 ADD PUSH0 KECCAK256 SLOAD SWAP1 POP DUP2 DUP2 EQ PUSH2 0x4930 JUMPI PUSH0 PUSH1 0x97 PUSH0 DUP7 PUSH20 0xFFFFFFFFFFFFFFFFFFFFFFFFFFFFFFFFFFFFFFFF AND PUSH20 0xFFFFFFFFFFFFFFFFFFFFFFFFFFFFFFFFFFFFFFFF AND DUP2 MSTORE PUSH1 0x20 ADD SWAP1 DUP2 MSTORE PUSH1 0x20 ADD PUSH0 KECCAK256 PUSH0 DUP5 DUP2 MSTORE PUSH1 0x20 ADD SWAP1 DUP2 MSTORE PUSH1 0x20 ADD PUSH0 KECCAK256 SLOAD SWAP1 POP DUP1 PUSH1 0x97 PUSH0 DUP8 PUSH20 0xFFFFFFFFFFFFFFFFFFFFFFFFFFFFFFFFFFFFFFFF AND PUSH20 0xFFFFFFFFFFFFFFFFFFFFFFFFFFFFFFFFFFFFFFFF AND DUP2 MSTORE PUSH1 0x20 ADD SWAP1 DUP2 MSTORE PUSH1 0x20 ADD PUSH0 KECCAK256 PUSH0 DUP5 DUP2 MSTORE PUSH1 0x20 ADD SWAP1 DUP2 MSTORE PUSH1 0x20 ADD PUSH0 KECCAK256 DUP2 SWAP1 SSTORE POP DUP2 PUSH1 0x98 PUSH0 DUP4 DUP2 MSTORE PUSH1 0x20 ADD SWAP1 DUP2 MSTORE PUSH1 0x20 ADD PUSH0 KECCAK256 DUP2 SWAP1 SSTORE POP POP JUMPDEST PUSH1 0x98 PUSH0 DUP5 DUP2 MSTORE PUSH1 0x20 ADD SWAP1 DUP2 MSTORE PUSH1 0x20 ADD PUSH0 KECCAK256 PUSH0 SWAP1 SSTORE PUSH1 0x97 PUSH0 DUP6 PUSH20 0xFFFFFFFFFFFFFFFFFFFFFFFFFFFFFFFFFFFFFFFF AND PUSH20 0xFFFFFFFFFFFFFFFFFFFFFFFFFFFFFFFFFFFFFFFF AND DUP2 MSTORE PUSH1 0x20 ADD SWAP1 DUP2 MSTORE PUSH1 0x20 ADD PUSH0 KECCAK256 PUSH0 DUP4 DUP2 MSTORE PUSH1 0x20 ADD SWAP1 DUP2 MSTORE PUSH1 0x20 ADD PUSH0 KECCAK256 PUSH0 SWAP1 SSTORE POP POP POP POP JUMP JUMPDEST PUSH0 PUSH1 0x1 PUSH1 0x99 DUP1 SLOAD SWAP1 POP PUSH2 0x49AC SWAP2 SWAP1 PUSH2 0x7212 JUMP JUMPDEST SWAP1 POP PUSH0 PUSH1 0x9A PUSH0 DUP5 DUP2 MSTORE PUSH1 0x20 ADD SWAP1 DUP2 MSTORE PUSH1 0x20 ADD PUSH0 KECCAK256 SLOAD SWAP1 POP PUSH0 PUSH1 0x99 DUP4 DUP2 SLOAD DUP2 LT PUSH2 0x49D8 JUMPI PUSH2 0x49D7 PUSH2 0x5E5E JUMP JUMPDEST JUMPDEST SWAP1 PUSH0 MSTORE PUSH1 0x20 PUSH0 KECCAK256 ADD SLOAD SWAP1 POP DUP1 PUSH1 0x99 DUP4 DUP2 SLOAD DUP2 LT PUSH2 0x49F8 JUMPI PUSH2 0x49F7 PUSH2 0x5E5E JUMP JUMPDEST JUMPDEST SWAP1 PUSH0 MSTORE PUSH1 0x20 PUSH0 KECCAK256 ADD DUP2 SWAP1 SSTORE POP DUP2 PUSH1 0x9A PUSH0 DUP4 DUP2 MSTORE PUSH1 0x20 ADD SWAP1 DUP2 MSTORE PUSH1 0x20 ADD PUSH0 KECCAK256 DUP2 SWAP1 SSTORE POP PUSH1 0x9A PUSH0 DUP6 DUP2 MSTORE PUSH1 0x20 ADD SWAP1 DUP2 MSTORE PUSH1 0x20 ADD PUSH0 KECCAK256 PUSH0 SWAP1 SSTORE PUSH1 0x99 DUP1 SLOAD DUP1 PUSH2 0x4A40 JUMPI PUSH2 0x4A3F PUSH2 0x7C5C JUMP JUMPDEST JUMPDEST PUSH1 0x1 SWAP1 SUB DUP2 DUP2 SWAP1 PUSH0 MSTORE PUSH1 0x20 PUSH0 KECCAK256 ADD PUSH0 SWAP1 SSTORE SWAP1 SSTORE POP POP POP POP JUMP JUMPDEST PUSH0 PUSH2 0x4A63 DUP4 PUSH2 0x1D94 JUMP JUMPDEST SWAP1 POP DUP2 PUSH1 0x97 PUSH0 DUP6 PUSH20 0xFFFFFFFFFFFFFFFFFFFFFFFFFFFFFFFFFFFFFFFF AND PUSH20 0xFFFFFFFFFFFFFFFFFFFFFFFFFFFFFFFFFFFFFFFF AND DUP2 MSTORE PUSH1 0x20 ADD SWAP1 DUP2 MSTORE PUSH1 0x20 ADD PUSH0 KECCAK256 PUSH0 DUP4 DUP2 MSTORE PUSH1 0x20 ADD SWAP1 DUP2 MSTORE PUSH1 0x20 ADD PUSH0 KECCAK256 DUP2 SWAP1 SSTORE POP DUP1 PUSH1 0x98 PUSH0 DUP5 DUP2 MSTORE PUSH1 0x20 ADD SWAP1 DUP2 MSTORE PUSH1 0x20 ADD PUSH0 KECCAK256 DUP2 SWAP1 SSTORE POP POP POP POP JUMP JUMPDEST PUSH0 PUSH20 0xFFFFFFFFFFFFFFFFFFFFFFFFFFFFFFFFFFFFFFFF AND DUP3 PUSH20 0xFFFFFFFFFFFFFFFFFFFFFFFFFFFFFFFFFFFFFFFF AND SUB PUSH2 0x4B3F JUMPI PUSH1 0x40 MLOAD PUSH32 0x8C379A000000000000000000000000000000000000000000000000000000000 DUP2 MSTORE PUSH1 0x4 ADD PUSH2 0x4B36 SWAP1 PUSH2 0x7CD3 JUMP JUMPDEST PUSH1 0x40 MLOAD DUP1 SWAP2 SUB SWAP1 REVERT JUMPDEST PUSH2 0x4B48 DUP2 PUSH2 0x3D37 JUMP JUMPDEST ISZERO PUSH2 0x4B88 JUMPI PUSH1 0x40 MLOAD PUSH32 0x8C379A000000000000000000000000000000000000000000000000000000000 DUP2 MSTORE PUSH1 0x4 ADD PUSH2 0x4B7F SWAP1 PUSH2 0x7D3B JUMP JUMPDEST PUSH1 0x40 MLOAD DUP1 SWAP2 SUB SWAP1 REVERT JUMPDEST PUSH2 0x4B93 PUSH0 DUP4 DUP4 PUSH2 0x3E3B JUMP JUMPDEST PUSH1 0x1 PUSH1 0x68 PUSH0 DUP5 PUSH20 0xFFFFFFFFFFFFFFFFFFFFFFFFFFFFFFFFFFFFFFFF AND PUSH20 0xFFFFFFFFFFFFFFFFFFFFFFFFFFFFFFFFFFFFFFFF AND DUP2 MSTORE PUSH1 0x20 ADD SWAP1 DUP2 MSTORE PUSH1 0x20 ADD PUSH0 KECCAK256 PUSH0 DUP3 DUP3 SLOAD PUSH2 0x4BE0 SWAP2 SWAP1 PUSH2 0x5EB8 JUMP JUMPDEST SWAP3 POP POP DUP2 SWAP1 SSTORE POP DUP2 PUSH1 0x67 PUSH0 DUP4 DUP2 MSTORE PUSH1 0x20 ADD SWAP1 DUP2 MSTORE PUSH1 0x20 ADD PUSH0 KECCAK256 PUSH0 PUSH2 0x100 EXP DUP2 SLOAD DUP2 PUSH20 0xFFFFFFFFFFFFFFFFFFFFFFFFFFFFFFFFFFFFFFFF MUL NOT AND SWAP1 DUP4 PUSH20 0xFFFFFFFFFFFFFFFFFFFFFFFFFFFFFFFFFFFFFFFF AND MUL OR SWAP1 SSTORE POP DUP1 DUP3 PUSH20 0xFFFFFFFFFFFFFFFFFFFFFFFFFFFFFFFFFFFFFFFF AND PUSH0 PUSH20 0xFFFFFFFFFFFFFFFFFFFFFFFFFFFFFFFFFFFFFFFF AND PUSH32 0xDDF252AD1BE2C89B69C2B068FC378DAA952BA7F163C4A11628F55A4DF523B3EF PUSH1 0x40 MLOAD PUSH1 0x40 MLOAD DUP1 SWAP2 SUB SWAP1 LOG4 PUSH2 0x4C9C PUSH0 DUP4 DUP4 PUSH2 0x3EB9 JUMP JUMPDEST POP POP JUMP JUMPDEST PUSH1 0x60 DUP4 ISZERO PUSH2 0x4CB0 JUMPI DUP3 SWAP1 POP PUSH2 0x4CFF JUMP JUMPDEST PUSH0 DUP4 MLOAD GT ISZERO PUSH2 0x4CC2 JUMPI DUP3 MLOAD DUP1 DUP5 PUSH1 0x20 ADD REVERT JUMPDEST DUP2 PUSH1 0x40 MLOAD PUSH32 0x8C379A000000000000000000000000000000000000000000000000000000000 DUP2 MSTORE PUSH1 0x4 ADD PUSH2 0x4CF6 SWAP2 SWAP1 PUSH2 0x4F65 JUMP JUMPDEST PUSH1 0x40 MLOAD DUP1 SWAP2 SUB SWAP1 REVERT JUMPDEST SWAP4 SWAP3 POP POP POP JUMP JUMPDEST DUP3 PUSH1 0x2 DUP2 ADD SWAP3 DUP3 ISZERO PUSH2 0x4D35 JUMPI SWAP2 PUSH1 0x20 MUL DUP3 ADD JUMPDEST DUP3 DUP2 GT ISZERO PUSH2 0x4D34 JUMPI DUP3 CALLDATALOAD DUP3 SSTORE SWAP2 PUSH1 0x20 ADD SWAP2 SWAP1 PUSH1 0x1 ADD SWAP1 PUSH2 0x4D19 JUMP JUMPDEST JUMPDEST POP SWAP1 POP PUSH2 0x4D42 SWAP2 SWAP1 PUSH2 0x4D46 JUMP JUMPDEST POP SWAP1 JUMP JUMPDEST JUMPDEST DUP1 DUP3 GT ISZERO PUSH2 0x4D5D JUMPI PUSH0 DUP2 PUSH0 SWAP1 SSTORE POP PUSH1 0x1 ADD PUSH2 0x4D47 JUMP JUMPDEST POP SWAP1 JUMP JUMPDEST PUSH0 PUSH1 0x40 MLOAD SWAP1 POP SWAP1 JUMP JUMPDEST PUSH0 DUP1 REVERT JUMPDEST PUSH0 DUP1 REVERT JUMPDEST PUSH0 PUSH20 0xFFFFFFFFFFFFFFFFFFFFFFFFFFFFFFFFFFFFFFFF DUP3 AND SWAP1 POP SWAP2 SWAP1 POP JUMP JUMPDEST PUSH0 PUSH2 0x4D9B DUP3 PUSH2 0x4D72 JUMP JUMPDEST SWAP1 POP SWAP2 SWAP1 POP JUMP JUMPDEST PUSH2 0x4DAB DUP2 PUSH2 0x4D91 JUMP JUMPDEST DUP2 EQ PUSH2 0x4DB5 JUMPI PUSH0 DUP1 REVERT JUMPDEST POP JUMP JUMPDEST PUSH0 DUP2 CALLDATALOAD SWAP1 POP PUSH2 0x4DC6 DUP2 PUSH2 0x4DA2 JUMP JUMPDEST SWAP3 SWAP2 POP POP JUMP JUMPDEST PUSH0 PUSH1 0x20 DUP3 DUP5 SUB SLT ISZERO PUSH2 0x4DE1 JUMPI PUSH2 0x4DE0 PUSH2 0x4D6A JUMP JUMPDEST JUMPDEST PUSH0 PUSH2 0x4DEE DUP5 DUP3 DUP6 ADD PUSH2 0x4DB8 JUMP JUMPDEST SWAP2 POP POP SWAP3 SWAP2 POP POP JUMP JUMPDEST PUSH0 DUP2 SWAP1 POP SWAP2 SWAP1 POP JUMP JUMPDEST PUSH2 0x4E09 DUP2 PUSH2 0x4DF7 JUMP JUMPDEST DUP3 MSTORE POP POP JUMP JUMPDEST PUSH0 PUSH1 0x20 DUP3 ADD SWAP1 POP PUSH2 0x4E22 PUSH0 DUP4 ADD DUP5 PUSH2 0x4E00 JUMP JUMPDEST SWAP3 SWAP2 POP POP JUMP JUMPDEST PUSH0 PUSH32 0xFFFFFFFF00000000000000000000000000000000000000000000000000000000 DUP3 AND SWAP1 POP SWAP2 SWAP1 POP JUMP JUMPDEST PUSH2 0x4E5C DUP2 PUSH2 0x4E28 JUMP JUMPDEST DUP2 EQ PUSH2 0x4E66 JUMPI PUSH0 DUP1 REVERT JUMPDEST POP JUMP JUMPDEST PUSH0 DUP2 CALLDATALOAD SWAP1 POP PUSH2 0x4E77 DUP2 PUSH2 0x4E53 JUMP JUMPDEST SWAP3 SWAP2 POP POP JUMP JUMPDEST PUSH0 PUSH1 0x20 DUP3 DUP5 SUB SLT ISZERO PUSH2 0x4E92 JUMPI PUSH2 0x4E91 PUSH2 0x4D6A JUMP JUMPDEST JUMPDEST PUSH0 PUSH2 0x4E9F DUP5 DUP3 DUP6 ADD PUSH2 0x4E69 JUMP JUMPDEST SWAP2 POP POP SWAP3 SWAP2 POP POP JUMP JUMPDEST PUSH0 DUP2 ISZERO ISZERO SWAP1 POP SWAP2 SWAP1 POP JUMP JUMPDEST PUSH2 0x4EBC DUP2 PUSH2 0x4EA8 JUMP JUMPDEST DUP3 MSTORE POP POP JUMP JUMPDEST PUSH0 PUSH1 0x20 DUP3 ADD SWAP1 POP PUSH2 0x4ED5 PUSH0 DUP4 ADD DUP5 PUSH2 0x4EB3 JUMP JUMPDEST SWAP3 SWAP2 POP POP JUMP JUMPDEST PUSH0 DUP2 MLOAD SWAP1 POP SWAP2 SWAP1 POP JUMP JUMPDEST PUSH0 DUP3 DUP3 MSTORE PUSH1 0x20 DUP3 ADD SWAP1 POP SWAP3 SWAP2 POP POP JUMP JUMPDEST PUSH0 JUMPDEST DUP4 DUP2 LT ISZERO PUSH2 0x4F12 JUMPI DUP1 DUP3 ADD MLOAD DUP2 DUP5 ADD MSTORE PUSH1 0x20 DUP2 ADD SWAP1 POP PUSH2 0x4EF7 JUMP JUMPDEST PUSH0 DUP5 DUP5 ADD MSTORE POP POP POP POP JUMP JUMPDEST PUSH0 PUSH1 0x1F NOT PUSH1 0x1F DUP4 ADD AND SWAP1 POP SWAP2 SWAP1 POP JUMP JUMPDEST PUSH0 PUSH2 0x4F37 DUP3 PUSH2 0x4EDB JUMP JUMPDEST PUSH2 0x4F41 DUP2 DUP6 PUSH2 0x4EE5 JUMP JUMPDEST SWAP4 POP PUSH2 0x4F51 DUP2 DUP6 PUSH1 0x20 DUP7 ADD PUSH2 0x4EF5 JUMP JUMPDEST PUSH2 0x4F5A DUP2 PUSH2 0x4F1D JUMP JUMPDEST DUP5 ADD SWAP2 POP POP SWAP3 SWAP2 POP POP JUMP JUMPDEST PUSH0 PUSH1 0x20 DUP3 ADD SWAP1 POP DUP2 DUP2 SUB PUSH0 DUP4 ADD MSTORE PUSH2 0x4F7D DUP2 DUP5 PUSH2 0x4F2D JUMP JUMPDEST SWAP1 POP SWAP3 SWAP2 POP POP JUMP JUMPDEST PUSH2 0x4F8E DUP2 PUSH2 0x4DF7 JUMP JUMPDEST DUP2 EQ PUSH2 0x4F98 JUMPI PUSH0 DUP1 REVERT JUMPDEST POP JUMP JUMPDEST PUSH0 DUP2 CALLDATALOAD SWAP1 POP PUSH2 0x4FA9 DUP2 PUSH2 0x4F85 JUMP JUMPDEST SWAP3 SWAP2 POP POP JUMP JUMPDEST PUSH0 PUSH1 0x20 DUP3 DUP5 SUB SLT ISZERO PUSH2 0x4FC4 JUMPI PUSH2 0x4FC3 PUSH2 0x4D6A JUMP JUMPDEST JUMPDEST PUSH0 PUSH2 0x4FD1 DUP5 DUP3 DUP6 ADD PUSH2 0x4F9B JUMP JUMPDEST SWAP2 POP POP SWAP3 SWAP2 POP POP JUMP JUMPDEST PUSH2 0x4FE3 DUP2 PUSH2 0x4D91 JUMP JUMPDEST DUP3 MSTORE POP POP JUMP JUMPDEST PUSH0 PUSH1 0x20 DUP3 ADD SWAP1 POP PUSH2 0x4FFC PUSH0 DUP4 ADD DUP5 PUSH2 0x4FDA JUMP JUMPDEST SWAP3 SWAP2 POP POP JUMP JUMPDEST PUSH0 DUP1 PUSH1 0x40 DUP4 DUP6 SUB SLT ISZERO PUSH2 0x5018 JUMPI PUSH2 0x5017 PUSH2 0x4D6A JUMP JUMPDEST JUMPDEST PUSH0 PUSH2 0x5025 DUP6 DUP3 DUP7 ADD PUSH2 0x4DB8 JUMP JUMPDEST SWAP3 POP POP PUSH1 0x20 PUSH2 0x5036 DUP6 DUP3 DUP7 ADD PUSH2 0x4F9B JUMP JUMPDEST SWAP2 POP POP SWAP3 POP SWAP3 SWAP1 POP JUMP JUMPDEST PUSH0 DUP1 REVERT JUMPDEST PUSH0 DUP1 REVERT JUMPDEST PUSH0 DUP1 REVERT JUMPDEST PUSH0 DUP1 DUP4 PUSH1 0x1F DUP5 ADD SLT PUSH2 0x5061 JUMPI PUSH2 0x5060 PUSH2 0x5040 JUMP JUMPDEST JUMPDEST DUP3 CALLDATALOAD SWAP1 POP PUSH8 0xFFFFFFFFFFFFFFFF DUP2 GT ISZERO PUSH2 0x507E JUMPI PUSH2 0x507D PUSH2 0x5044 JUMP JUMPDEST JUMPDEST PUSH1 0x20 DUP4 ADD SWAP2 POP DUP4 PUSH1 0x20 DUP3 MUL DUP4 ADD GT ISZERO PUSH2 0x509A JUMPI PUSH2 0x5099 PUSH2 0x5048 JUMP JUMPDEST JUMPDEST SWAP3 POP SWAP3 SWAP1 POP JUMP JUMPDEST PUSH0 DUP1 PUSH0 PUSH1 0x40 DUP5 DUP7 SUB SLT ISZERO PUSH2 0x50B8 JUMPI PUSH2 0x50B7 PUSH2 0x4D6A JUMP JUMPDEST JUMPDEST PUSH0 DUP5 ADD CALLDATALOAD PUSH8 0xFFFFFFFFFFFFFFFF DUP2 GT ISZERO PUSH2 0x50D5 JUMPI PUSH2 0x50D4 PUSH2 0x4D6E JUMP JUMPDEST JUMPDEST PUSH2 0x50E1 DUP7 DUP3 DUP8 ADD PUSH2 0x504C JUMP JUMPDEST SWAP4 POP SWAP4 POP POP PUSH1 0x20 PUSH2 0x50F4 DUP7 DUP3 DUP8 ADD PUSH2 0x4F9B JUMP JUMPDEST SWAP2 POP POP SWAP3 POP SWAP3 POP SWAP3 JUMP JUMPDEST PUSH0 DUP1 REVERT JUMPDEST PUSH32 0x4E487B7100000000000000000000000000000000000000000000000000000000 PUSH0 MSTORE PUSH1 0x41 PUSH1 0x4 MSTORE PUSH1 0x24 PUSH0 REVERT JUMPDEST PUSH2 0x5138 DUP3 PUSH2 0x4F1D JUMP JUMPDEST DUP2 ADD DUP2 DUP2 LT PUSH8 0xFFFFFFFFFFFFFFFF DUP3 GT OR ISZERO PUSH2 0x5157 JUMPI PUSH2 0x5156 PUSH2 0x5102 JUMP JUMPDEST JUMPDEST DUP1 PUSH1 0x40 MSTORE POP POP POP JUMP JUMPDEST PUSH0 PUSH2 0x5169 PUSH2 0x4D61 JUMP JUMPDEST SWAP1 POP PUSH2 0x5175 DUP3 DUP3 PUSH2 0x512F JUMP JUMPDEST SWAP2 SWAP1 POP JUMP JUMPDEST PUSH0 PUSH8 0xFFFFFFFFFFFFFFFF DUP3 GT ISZERO PUSH2 0x5194 JUMPI PUSH2 0x5193 PUSH2 0x5102 JUMP JUMPDEST JUMPDEST PUSH2 0x519D DUP3 PUSH2 0x4F1D JUMP JUMPDEST SWAP1 POP PUSH1 0x20 DUP2 ADD SWAP1 POP SWAP2 SWAP1 POP JUMP JUMPDEST DUP3 DUP2 DUP4 CALLDATACOPY PUSH0 DUP4 DUP4 ADD MSTORE POP POP POP JUMP JUMPDEST PUSH0 PUSH2 0x51CA PUSH2 0x51C5 DUP5 PUSH2 0x517A JUMP JUMPDEST PUSH2 0x5160 JUMP JUMPDEST SWAP1 POP DUP3 DUP2 MSTORE PUSH1 0x20 DUP2 ADD DUP5 DUP5 DUP5 ADD GT ISZERO PUSH2 0x51E6 JUMPI PUSH2 0x51E5 PUSH2 0x50FE JUMP JUMPDEST JUMPDEST PUSH2 0x51F1 DUP5 DUP3 DUP6 PUSH2 0x51AA JUMP JUMPDEST POP SWAP4 SWAP3 POP POP POP JUMP JUMPDEST PUSH0 DUP3 PUSH1 0x1F DUP4 ADD SLT PUSH2 0x520D JUMPI PUSH2 0x520C PUSH2 0x5040 JUMP JUMPDEST JUMPDEST DUP2 CALLDATALOAD PUSH2 0x521D DUP5 DUP3 PUSH1 0x20 DUP7 ADD PUSH2 0x51B8 JUMP JUMPDEST SWAP2 POP POP SWAP3 SWAP2 POP POP JUMP JUMPDEST PUSH0 PUSH1 0x20 DUP3 DUP5 SUB SLT ISZERO PUSH2 0x523B JUMPI PUSH2 0x523A PUSH2 0x4D6A JUMP JUMPDEST JUMPDEST PUSH0 DUP3 ADD CALLDATALOAD PUSH8 0xFFFFFFFFFFFFFFFF DUP2 GT ISZERO PUSH2 0x5258 JUMPI PUSH2 0x5257 PUSH2 0x4D6E JUMP JUMPDEST JUMPDEST PUSH2 0x5264 DUP5 DUP3 DUP6 ADD PUSH2 0x51F9 JUMP JUMPDEST SWAP2 POP POP SWAP3 SWAP2 POP POP JUMP JUMPDEST PUSH0 DUP1 DUP4 PUSH1 0x1F DUP5 ADD SLT PUSH2 0x5282 JUMPI PUSH2 0x5281 PUSH2 0x5040 JUMP JUMPDEST JUMPDEST DUP3 CALLDATALOAD SWAP1 POP PUSH8 0xFFFFFFFFFFFFFFFF DUP2 GT ISZERO PUSH2 0x529F JUMPI PUSH2 0x529E PUSH2 0x5044 JUMP JUMPDEST JUMPDEST PUSH1 0x20 DUP4 ADD SWAP2 POP DUP4 PUSH1 0x1 DUP3 MUL DUP4 ADD GT ISZERO PUSH2 0x52BB JUMPI PUSH2 0x52BA PUSH2 0x5048 JUMP JUMPDEST JUMPDEST SWAP3 POP SWAP3 SWAP1 POP JUMP JUMPDEST PUSH0 DUP1 PUSH1 0x20 DUP4 DUP6 SUB SLT ISZERO PUSH2 0x52D8 JUMPI PUSH2 0x52D7 PUSH2 0x4D6A JUMP JUMPDEST JUMPDEST PUSH0 DUP4 ADD CALLDATALOAD PUSH8 0xFFFFFFFFFFFFFFFF DUP2 GT ISZERO PUSH2 0x52F5 JUMPI PUSH2 0x52F4 PUSH2 0x4D6E JUMP JUMPDEST JUMPDEST PUSH2 0x5301 DUP6 DUP3 DUP7 ADD PUSH2 0x526D JUMP JUMPDEST SWAP3 POP SWAP3 POP POP SWAP3 POP SWAP3 SWAP1 POP JUMP JUMPDEST PUSH0 DUP1 PUSH0 PUSH1 0x60 DUP5 DUP7 SUB SLT ISZERO PUSH2 0x5324 JUMPI PUSH2 0x5323 PUSH2 0x4D6A JUMP JUMPDEST JUMPDEST PUSH0 PUSH2 0x5331 DUP7 DUP3 DUP8 ADD PUSH2 0x4DB8 JUMP JUMPDEST SWAP4 POP POP PUSH1 0x20 PUSH2 0x5342 DUP7 DUP3 DUP8 ADD PUSH2 0x4DB8 JUMP JUMPDEST SWAP3 POP POP PUSH1 0x40 PUSH2 0x5353 DUP7 DUP3 DUP8 ADD PUSH2 0x4F9B JUMP JUMPDEST SWAP2 POP POP SWAP3 POP SWAP3 POP SWAP3 JUMP JUMPDEST PUSH0 DUP2 SWAP1 POP SWAP2 SWAP1 POP JUMP JUMPDEST PUSH2 0x536F DUP2 PUSH2 0x535D JUMP JUMPDEST DUP2 EQ PUSH2 0x5379 JUMPI PUSH0 DUP1 REVERT JUMPDEST POP JUMP JUMPDEST PUSH0 DUP2 CALLDATALOAD SWAP1 POP PUSH2 0x538A DUP2 PUSH2 0x5366 JUMP JUMPDEST SWAP3 SWAP2 POP POP JUMP JUMPDEST PUSH0 PUSH1 0x20 DUP3 DUP5 SUB SLT ISZERO PUSH2 0x53A5 JUMPI PUSH2 0x53A4 PUSH2 0x4D6A JUMP JUMPDEST JUMPDEST PUSH0 PUSH2 0x53B2 DUP5 DUP3 DUP6 ADD PUSH2 0x537C JUMP JUMPDEST SWAP2 POP POP SWAP3 SWAP2 POP POP JUMP JUMPDEST PUSH2 0x53C4 DUP2 PUSH2 0x535D JUMP JUMPDEST DUP3 MSTORE POP POP JUMP JUMPDEST PUSH0 PUSH1 0x20 DUP3 ADD SWAP1 POP PUSH2 0x53DD PUSH0 DUP4 ADD DUP5 PUSH2 0x53BB JUMP JUMPDEST SWAP3 SWAP2 POP POP JUMP JUMPDEST PUSH0 DUP2 SWAP1 POP DUP3 PUSH1 0x20 PUSH1 0x1 MUL DUP3 ADD GT ISZERO PUSH2 0x53FE JUMPI PUSH2 0x53FD PUSH2 0x5048 JUMP JUMPDEST JUMPDEST SWAP3 SWAP2 POP POP JUMP JUMPDEST PUSH0 DUP1 DUP4 PUSH1 0x1F DUP5 ADD SLT PUSH2 0x5419 JUMPI PUSH2 0x5418 PUSH2 0x5040 JUMP JUMPDEST JUMPDEST DUP3 CALLDATALOAD SWAP1 POP PUSH8 0xFFFFFFFFFFFFFFFF DUP2 GT ISZERO PUSH2 0x5436 JUMPI PUSH2 0x5435 PUSH2 0x5044 JUMP JUMPDEST JUMPDEST PUSH1 0x20 DUP4 ADD SWAP2 POP DUP4 PUSH1 0x1 DUP3 MUL DUP4 ADD GT ISZERO PUSH2 0x5452 JUMPI PUSH2 0x5451 PUSH2 0x5048 JUMP JUMPDEST JUMPDEST SWAP3 POP SWAP3 SWAP1 POP JUMP JUMPDEST PUSH0 DUP1 PUSH0 DUP1 PUSH0 DUP1 PUSH0 DUP1 PUSH0 PUSH1 0xC0 DUP11 DUP13 SUB SLT ISZERO PUSH2 0x5476 JUMPI PUSH2 0x5475 PUSH2 0x4D6A JUMP JUMPDEST JUMPDEST PUSH0 PUSH2 0x5483 DUP13 DUP3 DUP14 ADD PUSH2 0x4DB8 JUMP JUMPDEST SWAP10 POP POP PUSH1 0x20 PUSH2 0x5494 DUP13 DUP3 DUP14 ADD PUSH2 0x53E3 JUMP JUMPDEST SWAP9 POP POP PUSH1 0x40 PUSH2 0x54A5 DUP13 DUP3 DUP14 ADD PUSH2 0x4F9B JUMP JUMPDEST SWAP8 POP POP PUSH1 0x60 DUP11 ADD CALLDATALOAD PUSH8 0xFFFFFFFFFFFFFFFF DUP2 GT ISZERO PUSH2 0x54C6 JUMPI PUSH2 0x54C5 PUSH2 0x4D6E JUMP JUMPDEST JUMPDEST PUSH2 0x54D2 DUP13 DUP3 DUP14 ADD PUSH2 0x5404 JUMP JUMPDEST SWAP7 POP SWAP7 POP POP PUSH1 0x80 DUP11 ADD CALLDATALOAD PUSH8 0xFFFFFFFFFFFFFFFF DUP2 GT ISZERO PUSH2 0x54F5 JUMPI PUSH2 0x54F4 PUSH2 0x4D6E JUMP JUMPDEST JUMPDEST PUSH2 0x5501 DUP13 DUP3 DUP14 ADD PUSH2 0x5404 JUMP JUMPDEST SWAP5 POP SWAP5 POP POP PUSH1 0xA0 DUP11 ADD CALLDATALOAD PUSH8 0xFFFFFFFFFFFFFFFF DUP2 GT ISZERO PUSH2 0x5524 JUMPI PUSH2 0x5523 PUSH2 0x4D6E JUMP JUMPDEST JUMPDEST PUSH2 0x5530 DUP13 DUP3 DUP14 ADD PUSH2 0x526D JUMP JUMPDEST SWAP3 POP SWAP3 POP POP SWAP3 SWAP6 SWAP9 POP SWAP3 SWAP6 SWAP9 POP SWAP3 SWAP6 SWAP9 JUMP JUMPDEST PUSH0 DUP1 PUSH1 0x40 DUP4 DUP6 SUB SLT ISZERO PUSH2 0x5558 JUMPI PUSH2 0x5557 PUSH2 0x4D6A JUMP JUMPDEST JUMPDEST PUSH0 PUSH2 0x5565 DUP6 DUP3 DUP7 ADD PUSH2 0x537C JUMP JUMPDEST SWAP3 POP POP PUSH1 0x20 PUSH2 0x5576 DUP6 DUP3 DUP7 ADD PUSH2 0x4DB8 JUMP JUMPDEST SWAP2 POP POP SWAP3 POP SWAP3 SWAP1 POP JUMP JUMPDEST PUSH0 PUSH8 0xFFFFFFFFFFFFFFFF DUP3 GT ISZERO PUSH2 0x559A JUMPI PUSH2 0x5599 PUSH2 0x5102 JUMP JUMPDEST JUMPDEST PUSH2 0x55A3 DUP3 PUSH2 0x4F1D JUMP JUMPDEST SWAP1 POP PUSH1 0x20 DUP2 ADD SWAP1 POP SWAP2 SWAP1 POP JUMP JUMPDEST PUSH0 PUSH2 0x55C2 PUSH2 0x55BD DUP5 PUSH2 0x5580 JUMP JUMPDEST PUSH2 0x5160 JUMP JUMPDEST SWAP1 POP DUP3 DUP2 MSTORE PUSH1 0x20 DUP2 ADD DUP5 DUP5 DUP5 ADD GT ISZERO PUSH2 0x55DE JUMPI PUSH2 0x55DD PUSH2 0x50FE JUMP JUMPDEST JUMPDEST PUSH2 0x55E9 DUP5 DUP3 DUP6 PUSH2 0x51AA JUMP JUMPDEST POP SWAP4 SWAP3 POP POP POP JUMP JUMPDEST PUSH0 DUP3 PUSH1 0x1F DUP4 ADD SLT PUSH2 0x5605 JUMPI PUSH2 0x5604 PUSH2 0x5040 JUMP JUMPDEST JUMPDEST DUP2 CALLDATALOAD PUSH2 0x5615 DUP5 DUP3 PUSH1 0x20 DUP7 ADD PUSH2 0x55B0 JUMP JUMPDEST SWAP2 POP POP SWAP3 SWAP2 POP POP JUMP JUMPDEST PUSH0 DUP1 PUSH0 DUP1 PUSH0 PUSH1 0xA0 DUP7 DUP9 SUB SLT ISZERO PUSH2 0x5637 JUMPI PUSH2 0x5636 PUSH2 0x4D6A JUMP JUMPDEST JUMPDEST PUSH0 PUSH2 0x5644 DUP9 DUP3 DUP10 ADD PUSH2 0x4DB8 JUMP JUMPDEST SWAP6 POP POP PUSH1 0x20 DUP7 ADD CALLDATALOAD PUSH8 0xFFFFFFFFFFFFFFFF DUP2 GT ISZERO PUSH2 0x5665 JUMPI PUSH2 0x5664 PUSH2 0x4D6E JUMP JUMPDEST JUMPDEST PUSH2 0x5671 DUP9 DUP3 DUP10 ADD PUSH2 0x55F1 JUMP JUMPDEST SWAP5 POP POP PUSH1 0x40 DUP7 ADD CALLDATALOAD PUSH8 0xFFFFFFFFFFFFFFFF DUP2 GT ISZERO PUSH2 0x5692 JUMPI PUSH2 0x5691 PUSH2 0x4D6E JUMP JUMPDEST JUMPDEST PUSH2 0x569E DUP9 DUP3 DUP10 ADD PUSH2 0x55F1 JUMP JUMPDEST SWAP4 POP POP PUSH1 0x60 DUP7 ADD CALLDATALOAD PUSH8 0xFFFFFFFFFFFFFFFF DUP2 GT ISZERO PUSH2 0x56BF JUMPI PUSH2 0x56BE PUSH2 0x4D6E JUMP JUMPDEST JUMPDEST PUSH2 0x56CB DUP9 DUP3 DUP10 ADD PUSH2 0x51F9 JUMP JUMPDEST SWAP3 POP POP PUSH1 0x80 PUSH2 0x56DC DUP9 DUP3 DUP10 ADD PUSH2 0x4F9B JUMP JUMPDEST SWAP2 POP POP SWAP3 SWAP6 POP SWAP3 SWAP6 SWAP1 SWAP4 POP JUMP JUMPDEST PUSH0 DUP2 MLOAD SWAP1 POP SWAP2 SWAP1 POP JUMP JUMPDEST PUSH0 DUP3 DUP3 MSTORE PUSH1 0x20 DUP3 ADD SWAP1 POP SWAP3 SWAP2 POP POP JUMP JUMPDEST PUSH0 PUSH2 0x570D DUP3 PUSH2 0x56E9 JUMP JUMPDEST PUSH2 0x5717 DUP2 DUP6 PUSH2 0x56F3 JUMP JUMPDEST SWAP4 POP PUSH2 0x5727 DUP2 DUP6 PUSH1 0x20 DUP7 ADD PUSH2 0x4EF5 JUMP JUMPDEST PUSH2 0x5730 DUP2 PUSH2 0x4F1D JUMP JUMPDEST DUP5 ADD SWAP2 POP POP SWAP3 SWAP2 POP POP JUMP JUMPDEST PUSH0 PUSH1 0x20 DUP3 ADD SWAP1 POP DUP2 DUP2 SUB PUSH0 DUP4 ADD MSTORE PUSH2 0x5753 DUP2 DUP5 PUSH2 0x5703 JUMP JUMPDEST SWAP1 POP SWAP3 SWAP2 POP POP JUMP JUMPDEST PUSH0 DUP1 PUSH1 0x40 DUP4 DUP6 SUB SLT ISZERO PUSH2 0x5771 JUMPI PUSH2 0x5770 PUSH2 0x4D6A JUMP JUMPDEST JUMPDEST PUSH0 PUSH2 0x577E DUP6 DUP3 DUP7 ADD PUSH2 0x4DB8 JUMP JUMPDEST SWAP3 POP POP PUSH1 0x20 DUP4 ADD CALLDATALOAD PUSH8 0xFFFFFFFFFFFFFFFF DUP2 GT ISZERO PUSH2 0x579F JUMPI PUSH2 0x579E PUSH2 0x4D6E JUMP JUMPDEST JUMPDEST PUSH2 0x57AB DUP6 DUP3 DUP7 ADD PUSH2 0x51F9 JUMP JUMPDEST SWAP2 POP POP SWAP3 POP SWAP3 SWAP1 POP JUMP JUMPDEST PUSH0 DUP1 PUSH1 0x20 DUP4 DUP6 SUB SLT ISZERO PUSH2 0x57CB JUMPI PUSH2 0x57CA PUSH2 0x4D6A JUMP JUMPDEST JUMPDEST PUSH0 DUP4 ADD CALLDATALOAD PUSH8 0xFFFFFFFFFFFFFFFF DUP2 GT ISZERO PUSH2 0x57E8 JUMPI PUSH2 0x57E7 PUSH2 0x4D6E JUMP JUMPDEST JUMPDEST PUSH2 0x57F4 DUP6 DUP3 DUP7 ADD PUSH2 0x5404 JUMP JUMPDEST SWAP3 POP SWAP3 POP POP SWAP3 POP SWAP3 SWAP1 POP JUMP JUMPDEST PUSH0 PUSH1 0x60 DUP3 ADD SWAP1 POP DUP2 DUP2 SUB PUSH0 DUP4 ADD MSTORE PUSH2 0x5818 DUP2 DUP7 PUSH2 0x4F2D JUMP JUMPDEST SWAP1 POP DUP2 DUP2 SUB PUSH1 0x20 DUP4 ADD MSTORE PUSH2 0x582C DUP2 DUP6 PUSH2 0x4F2D JUMP JUMPDEST SWAP1 POP DUP2 DUP2 SUB PUSH1 0x40 DUP4 ADD MSTORE PUSH2 0x5840 DUP2 DUP5 PUSH2 0x5703 JUMP JUMPDEST SWAP1 POP SWAP5 SWAP4 POP POP POP POP JUMP JUMPDEST PUSH0 DUP1 REVERT JUMPDEST PUSH0 PUSH8 0xFFFFFFFFFFFFFFFF DUP3 GT ISZERO PUSH2 0x5868 JUMPI PUSH2 0x5867 PUSH2 0x5102 JUMP JUMPDEST JUMPDEST PUSH1 0x20 DUP3 MUL SWAP1 POP SWAP2 SWAP1 POP JUMP JUMPDEST PUSH0 PUSH2 0x5885 PUSH2 0x5880 DUP5 PUSH2 0x584E JUMP JUMPDEST PUSH2 0x5160 JUMP JUMPDEST SWAP1 POP DUP1 PUSH1 0x20 DUP5 MUL DUP4 ADD DUP6 DUP2 GT ISZERO PUSH2 0x589F JUMPI PUSH2 0x589E PUSH2 0x5048 JUMP JUMPDEST JUMPDEST DUP4 JUMPDEST DUP2 DUP2 LT ISZERO PUSH2 0x58C8 JUMPI DUP1 PUSH2 0x58B4 DUP9 DUP3 PUSH2 0x4F9B JUMP JUMPDEST DUP5 MSTORE PUSH1 0x20 DUP5 ADD SWAP4 POP POP PUSH1 0x20 DUP2 ADD SWAP1 POP PUSH2 0x58A1 JUMP JUMPDEST POP POP POP SWAP4 SWAP3 POP POP POP JUMP JUMPDEST PUSH0 DUP3 PUSH1 0x1F DUP4 ADD SLT PUSH2 0x58E6 JUMPI PUSH2 0x58E5 PUSH2 0x5040 JUMP JUMPDEST JUMPDEST PUSH1 0x2 PUSH2 0x58F3 DUP5 DUP3 DUP6 PUSH2 0x5873 JUMP JUMPDEST SWAP2 POP POP SWAP3 SWAP2 POP POP JUMP JUMPDEST PUSH0 PUSH8 0xFFFFFFFFFFFFFFFF DUP3 GT ISZERO PUSH2 0x5916 JUMPI PUSH2 0x5915 PUSH2 0x5102 JUMP JUMPDEST JUMPDEST PUSH1 0x20 DUP3 MUL SWAP1 POP SWAP2 SWAP1 POP JUMP JUMPDEST PUSH0 PUSH2 0x5933 PUSH2 0x592E DUP5 PUSH2 0x58FC JUMP JUMPDEST PUSH2 0x5160 JUMP JUMPDEST SWAP1 POP DUP1 PUSH1 0x40 DUP5 MUL DUP4 ADD DUP6 DUP2 GT ISZERO PUSH2 0x594D JUMPI PUSH2 0x594C PUSH2 0x5048 JUMP JUMPDEST JUMPDEST DUP4 JUMPDEST DUP2 DUP2 LT ISZERO PUSH2 0x5976 JUMPI DUP1 PUSH2 0x5962 DUP9 DUP3 PUSH2 0x58D2 JUMP JUMPDEST DUP5 MSTORE PUSH1 0x20 DUP5 ADD SWAP4 POP POP PUSH1 0x40 DUP2 ADD SWAP1 POP PUSH2 0x594F JUMP JUMPDEST POP POP POP SWAP4 SWAP3 POP POP POP JUMP JUMPDEST PUSH0 DUP3 PUSH1 0x1F DUP4 ADD SLT PUSH2 0x5994 JUMPI PUSH2 0x5993 PUSH2 0x5040 JUMP JUMPDEST JUMPDEST PUSH1 0x2 PUSH2 0x59A1 DUP5 DUP3 DUP6 PUSH2 0x5921 JUMP JUMPDEST SWAP2 POP POP SWAP3 SWAP2 POP POP JUMP JUMPDEST PUSH0 PUSH2 0x100 DUP3 DUP5 SUB SLT ISZERO PUSH2 0x59C0 JUMPI PUSH2 0x59BF PUSH2 0x584A JUMP JUMPDEST JUMPDEST PUSH2 0x59CA PUSH1 0x60 PUSH2 0x5160 JUMP JUMPDEST SWAP1 POP PUSH0 PUSH2 0x59D9 DUP5 DUP3 DUP6 ADD PUSH2 0x58D2 JUMP JUMPDEST PUSH0 DUP4 ADD MSTORE POP PUSH1 0x40 PUSH2 0x59EC DUP5 DUP3 DUP6 ADD PUSH2 0x5980 JUMP JUMPDEST PUSH1 0x20 DUP4 ADD MSTORE POP PUSH1 0xC0 PUSH2 0x5A00 DUP5 DUP3 DUP6 ADD PUSH2 0x58D2 JUMP JUMPDEST PUSH1 0x40 DUP4 ADD MSTORE POP SWAP3 SWAP2 POP POP JUMP JUMPDEST PUSH0 PUSH8 0xFFFFFFFFFFFFFFFF DUP3 GT ISZERO PUSH2 0x5A26 JUMPI PUSH2 0x5A25 PUSH2 0x5102 JUMP JUMPDEST JUMPDEST PUSH1 0x20 DUP3 MUL SWAP1 POP SWAP2 SWAP1 POP JUMP JUMPDEST PUSH0 PUSH2 0x5A43 PUSH2 0x5A3E DUP5 PUSH2 0x5A0C JUMP JUMPDEST PUSH2 0x5160 JUMP JUMPDEST SWAP1 POP DUP1 PUSH1 0x20 DUP5 MUL DUP4 ADD DUP6 DUP2 GT ISZERO PUSH2 0x5A5D JUMPI PUSH2 0x5A5C PUSH2 0x5048 JUMP JUMPDEST JUMPDEST DUP4 JUMPDEST DUP2 DUP2 LT ISZERO PUSH2 0x5A86 JUMPI DUP1 PUSH2 0x5A72 DUP9 DUP3 PUSH2 0x4F9B JUMP JUMPDEST DUP5 MSTORE PUSH1 0x20 DUP5 ADD SWAP4 POP POP PUSH1 0x20 DUP2 ADD SWAP1 POP PUSH2 0x5A5F JUMP JUMPDEST POP POP POP SWAP4 SWAP3 POP POP POP JUMP JUMPDEST PUSH0 DUP3 PUSH1 0x1F DUP4 ADD SLT PUSH2 0x5AA4 JUMPI PUSH2 0x5AA3 PUSH2 0x5040 JUMP JUMPDEST JUMPDEST PUSH1 0x3 PUSH2 0x5AB1 DUP5 DUP3 DUP6 PUSH2 0x5A31 JUMP JUMPDEST SWAP2 POP POP SWAP3 SWAP2 POP POP JUMP JUMPDEST PUSH0 DUP1 PUSH2 0x160 DUP4 DUP6 SUB SLT ISZERO PUSH2 0x5AD1 JUMPI PUSH2 0x5AD0 PUSH2 0x4D6A JUMP JUMPDEST JUMPDEST PUSH0 PUSH2 0x5ADE DUP6 DUP3 DUP7 ADD PUSH2 0x59AA JUMP JUMPDEST SWAP3 POP POP PUSH2 0x100 PUSH2 0x5AF0 DUP6 DUP3 DUP7 ADD PUSH2 0x5A90 JUMP JUMPDEST SWAP2 POP POP SWAP3 POP SWAP3 SWAP1 POP JUMP JUMPDEST PUSH2 0x5B03 DUP2 PUSH2 0x4EA8 JUMP JUMPDEST DUP2 EQ PUSH2 0x5B0D JUMPI PUSH0 DUP1 REVERT JUMPDEST POP JUMP JUMPDEST PUSH0 DUP2 CALLDATALOAD SWAP1 POP PUSH2 0x5B1E DUP2 PUSH2 0x5AFA JUMP JUMPDEST SWAP3 SWAP2 POP POP JUMP JUMPDEST PUSH0 DUP1 PUSH1 0x40 DUP4 DUP6 SUB SLT ISZERO PUSH2 0x5B3A JUMPI PUSH2 0x5B39 PUSH2 0x4D6A JUMP JUMPDEST JUMPDEST PUSH0 PUSH2 0x5B47 DUP6 DUP3 DUP7 ADD PUSH2 0x4DB8 JUMP JUMPDEST SWAP3 POP POP PUSH1 0x20 PUSH2 0x5B58 DUP6 DUP3 DUP7 ADD PUSH2 0x5B10 JUMP JUMPDEST SWAP2 POP POP SWAP3 POP SWAP3 SWAP1 POP JUMP JUMPDEST PUSH0 DUP1 PUSH0 DUP1 PUSH1 0x80 DUP6 DUP8 SUB SLT ISZERO PUSH2 0x5B7A JUMPI PUSH2 0x5B79 PUSH2 0x4D6A JUMP JUMPDEST JUMPDEST PUSH0 PUSH2 0x5B87 DUP8 DUP3 DUP9 ADD PUSH2 0x4DB8 JUMP JUMPDEST SWAP5 POP POP PUSH1 0x20 PUSH2 0x5B98 DUP8 DUP3 DUP9 ADD PUSH2 0x4DB8 JUMP JUMPDEST SWAP4 POP POP PUSH1 0x40 PUSH2 0x5BA9 DUP8 DUP3 DUP9 ADD PUSH2 0x4F9B JUMP JUMPDEST SWAP3 POP POP PUSH1 0x60 DUP6 ADD CALLDATALOAD PUSH8 0xFFFFFFFFFFFFFFFF DUP2 GT ISZERO PUSH2 0x5BCA JUMPI PUSH2 0x5BC9 PUSH2 0x4D6E JUMP JUMPDEST JUMPDEST PUSH2 0x5BD6 DUP8 DUP3 DUP9 ADD PUSH2 0x51F9 JUMP JUMPDEST SWAP2 POP POP SWAP3 SWAP6 SWAP2 SWAP5 POP SWAP3 POP JUMP JUMPDEST PUSH0 DUP1 PUSH0 PUSH1 0x40 DUP5 DUP7 SUB SLT ISZERO PUSH2 0x5BF9 JUMPI PUSH2 0x5BF8 PUSH2 0x4D6A JUMP JUMPDEST JUMPDEST PUSH0 PUSH2 0x5C06 DUP7 DUP3 DUP8 ADD PUSH2 0x4F9B JUMP JUMPDEST SWAP4 POP POP PUSH1 0x20 DUP5 ADD CALLDATALOAD PUSH8 0xFFFFFFFFFFFFFFFF DUP2 GT ISZERO PUSH2 0x5C27 JUMPI PUSH2 0x5C26 PUSH2 0x4D6E JUMP JUMPDEST JUMPDEST PUSH2 0x5C33 DUP7 DUP3 DUP8 ADD PUSH2 0x526D JUMP JUMPDEST SWAP3 POP SWAP3 POP POP SWAP3 POP SWAP3 POP SWAP3 JUMP JUMPDEST PUSH0 DUP1 PUSH1 0x40 DUP4 DUP6 SUB SLT ISZERO PUSH2 0x5C55 JUMPI PUSH2 0x5C54 PUSH2 0x4D6A JUMP JUMPDEST JUMPDEST PUSH0 PUSH2 0x5C62 DUP6 DUP3 DUP7 ADD PUSH2 0x4DB8 JUMP JUMPDEST SWAP3 POP POP PUSH1 0x20 PUSH2 0x5C73 DUP6 DUP3 DUP7 ADD PUSH2 0x4DB8 JUMP JUMPDEST SWAP2 POP POP SWAP3 POP SWAP3 SWAP1 POP JUMP JUMPDEST PUSH32 0x4E487B7100000000000000000000000000000000000000000000000000000000 PUSH0 MSTORE PUSH1 0x22 PUSH1 0x4 MSTORE PUSH1 0x24 PUSH0 REVERT JUMPDEST PUSH0 PUSH1 0x2 DUP3 DIV SWAP1 POP PUSH1 0x1 DUP3 AND DUP1 PUSH2 0x5CC1 JUMPI PUSH1 0x7F DUP3 AND SWAP2 POP JUMPDEST PUSH1 0x20 DUP3 LT DUP2 SUB PUSH2 0x5CD4 JUMPI PUSH2 0x5CD3 PUSH2 0x5C7D JUMP JUMPDEST JUMPDEST POP SWAP2 SWAP1 POP JUMP JUMPDEST PUSH32 0x4552433732313A20617070726F76616C20746F2063757272656E74206F776E65 PUSH0 DUP3 ADD MSTORE PUSH32 0x7200000000000000000000000000000000000000000000000000000000000000 PUSH1 0x20 DUP3 ADD MSTORE POP JUMP JUMPDEST PUSH0 PUSH2 0x5D34 PUSH1 0x21 DUP4 PUSH2 0x4EE5 JUMP JUMPDEST SWAP2 POP PUSH2 0x5D3F DUP3 PUSH2 0x5CDA JUMP JUMPDEST PUSH1 0x40 DUP3 ADD SWAP1 POP SWAP2 SWAP1 POP JUMP JUMPDEST PUSH0 PUSH1 0x20 DUP3 ADD SWAP1 POP DUP2 DUP2 SUB PUSH0 DUP4 ADD MSTORE PUSH2 0x5D61 DUP2 PUSH2 0x5D28 JUMP JUMPDEST SWAP1 POP SWAP2 SWAP1 POP JUMP JUMPDEST PUSH32 0x4552433732313A20617070726F76652063616C6C6572206973206E6F7420746F PUSH0 DUP3 ADD MSTORE PUSH32 0x6B656E206F776E6572206E6F7220617070726F76656420666F7220616C6C0000 PUSH1 0x20 DUP3 ADD MSTORE POP JUMP JUMPDEST PUSH0 PUSH2 0x5DC2 PUSH1 0x3E DUP4 PUSH2 0x4EE5 JUMP JUMPDEST SWAP2 POP PUSH2 0x5DCD DUP3 PUSH2 0x5D68 JUMP JUMPDEST PUSH1 0x40 DUP3 ADD SWAP1 POP SWAP2 SWAP1 POP JUMP JUMPDEST PUSH0 PUSH1 0x20 DUP3 ADD SWAP1 POP DUP2 DUP2 SUB PUSH0 DUP4 ADD MSTORE PUSH2 0x5DEF DUP2 PUSH2 0x5DB6 JUMP JUMPDEST SWAP1 POP SWAP2 SWAP1 POP JUMP JUMPDEST PUSH32 0x43616C6C6572206973206E6F74206120747261696E6572000000000000000000 PUSH0 DUP3 ADD MSTORE POP JUMP JUMPDEST PUSH0 PUSH2 0x5E2A PUSH1 0x17 DUP4 PUSH2 0x4EE5 JUMP JUMPDEST SWAP2 POP PUSH2 0x5E35 DUP3 PUSH2 0x5DF6 JUMP JUMPDEST PUSH1 0x20 DUP3 ADD SWAP1 POP SWAP2 SWAP1 POP JUMP JUMPDEST PUSH0 PUSH1 0x20 DUP3 ADD SWAP1 POP DUP2 DUP2 SUB PUSH0 DUP4 ADD MSTORE PUSH2 0x5E57 DUP2 PUSH2 0x5E1E JUMP JUMPDEST SWAP1 POP SWAP2 SWAP1 POP JUMP JUMPDEST PUSH32 0x4E487B7100000000000000000000000000000000000000000000000000000000 PUSH0 MSTORE PUSH1 0x32 PUSH1 0x4 MSTORE PUSH1 0x24 PUSH0 REVERT JUMPDEST PUSH32 0x4E487B7100000000000000000000000000000000000000000000000000000000 PUSH0 MSTORE PUSH1 0x11 PUSH1 0x4 MSTORE PUSH1 0x24 PUSH0 REVERT JUMPDEST PUSH0 PUSH2 0x5EC2 DUP3 PUSH2 0x4DF7 JUMP JUMPDEST SWAP2 POP PUSH2 0x5ECD DUP4 PUSH2 0x4DF7 JUMP JUMPDEST SWAP3 POP DUP3 DUP3 ADD SWAP1 POP DUP1 DUP3 GT ISZERO PUSH2 0x5EE5 JUMPI PUSH2 0x5EE4 PUSH2 0x5E8B JUMP JUMPDEST JUMPDEST SWAP3 SWAP2 POP POP JUMP JUMPDEST PUSH0 DUP3 SWAP1 POP SWAP3 SWAP2 POP POP JUMP JUMPDEST PUSH0 DUP2 SWAP1 POP DUP2 PUSH0 MSTORE PUSH1 0x20 PUSH0 KECCAK256 SWAP1 POP SWAP2 SWAP1 POP JUMP JUMPDEST PUSH0 PUSH1 0x20 PUSH1 0x1F DUP4 ADD DIV SWAP1 POP SWAP2 SWAP1 POP JUMP JUMPDEST PUSH0 DUP3 DUP3 SHL SWAP1 POP SWAP3 SWAP2 POP POP JUMP JUMPDEST PUSH0 PUSH1 0x8 DUP4 MUL PUSH2 0x5F51 PUSH32 0xFFFFFFFFFFFFFFFFFFFFFFFFFFFFFFFFFFFFFFFFFFFFFFFFFFFFFFFFFFFFFFFF DUP3 PUSH2 0x5F16 JUMP JUMPDEST PUSH2 0x5F5B DUP7 DUP4 PUSH2 0x5F16 JUMP JUMPDEST SWAP6 POP DUP1 NOT DUP5 AND SWAP4 POP DUP1 DUP7 AND DUP5 OR SWAP3 POP POP POP SWAP4 SWAP3 POP POP POP JUMP JUMPDEST PUSH0 DUP2 SWAP1 POP SWAP2 SWAP1 POP JUMP JUMPDEST PUSH0 PUSH2 0x5F96 PUSH2 0x5F91 PUSH2 0x5F8C DUP5 PUSH2 0x4DF7 JUMP JUMPDEST PUSH2 0x5F73 JUMP JUMPDEST PUSH2 0x4DF7 JUMP JUMPDEST SWAP1 POP SWAP2 SWAP1 POP JUMP JUMPDEST PUSH0 DUP2 SWAP1 POP SWAP2 SWAP1 POP JUMP JUMPDEST PUSH2 0x5FAF DUP4 PUSH2 0x5F7C JUMP JUMPDEST PUSH2 0x5FC3 PUSH2 0x5FBB DUP3 PUSH2 0x5F9D JUMP JUMPDEST DUP5 DUP5 SLOAD PUSH2 0x5F22 JUMP JUMPDEST DUP3 SSTORE POP POP POP POP JUMP JUMPDEST PUSH0 SWAP1 JUMP JUMPDEST PUSH2 0x5FD7 PUSH2 0x5FCB JUMP JUMPDEST PUSH2 0x5FE2 DUP2 DUP5 DUP5 PUSH2 0x5FA6 JUMP JUMPDEST POP POP POP JUMP JUMPDEST JUMPDEST DUP2 DUP2 LT ISZERO PUSH2 0x6005 JUMPI PUSH2 0x5FFA PUSH0 DUP3 PUSH2 0x5FCF JUMP JUMPDEST PUSH1 0x1 DUP2 ADD SWAP1 POP PUSH2 0x5FE8 JUMP JUMPDEST POP POP JUMP JUMPDEST PUSH1 0x1F DUP3 GT ISZERO PUSH2 0x604A JUMPI PUSH2 0x601B DUP2 PUSH2 0x5EF5 JUMP JUMPDEST PUSH2 0x6024 DUP5 PUSH2 0x5F07 JUMP JUMPDEST DUP2 ADD PUSH1 0x20 DUP6 LT ISZERO PUSH2 0x6033 JUMPI DUP2 SWAP1 POP JUMPDEST PUSH2 0x6047 PUSH2 0x603F DUP6 PUSH2 0x5F07 JUMP JUMPDEST DUP4 ADD DUP3 PUSH2 0x5FE7 JUMP JUMPDEST POP POP JUMPDEST POP POP POP JUMP JUMPDEST PUSH0 DUP3 DUP3 SHR SWAP1 POP SWAP3 SWAP2 POP POP JUMP JUMPDEST PUSH0 PUSH2 0x606A PUSH0 NOT DUP5 PUSH1 0x8 MUL PUSH2 0x604F JUMP JUMPDEST NOT DUP1 DUP4 AND SWAP2 POP POP SWAP3 SWAP2 POP POP JUMP JUMPDEST PUSH0 PUSH2 0x6082 DUP4 DUP4 PUSH2 0x605B JUMP JUMPDEST SWAP2 POP DUP3 PUSH1 0x2 MUL DUP3 OR SWAP1 POP SWAP3 SWAP2 POP POP JUMP JUMPDEST PUSH2 0x609C DUP4 DUP4 PUSH2 0x5EEB JUMP JUMPDEST PUSH8 0xFFFFFFFFFFFFFFFF DUP2 GT ISZERO PUSH2 0x60B5 JUMPI PUSH2 0x60B4 PUSH2 0x5102 JUMP JUMPDEST JUMPDEST PUSH2 0x60BF DUP3 SLOAD PUSH2 0x5CAA JUMP JUMPDEST PUSH2 0x60CA DUP3 DUP3 DUP6 PUSH2 0x6009 JUMP JUMPDEST PUSH0 PUSH1 0x1F DUP4 GT PUSH1 0x1 DUP2 EQ PUSH2 0x60F7 JUMPI PUSH0 DUP5 ISZERO PUSH2 0x60E5 JUMPI DUP3 DUP8 ADD CALLDATALOAD SWAP1 POP JUMPDEST PUSH2 0x60EF DUP6 DUP3 PUSH2 0x6077 JUMP JUMPDEST DUP7 SSTORE POP PUSH2 0x6156 JUMP JUMPDEST PUSH1 0x1F NOT DUP5 AND PUSH2 0x6105 DUP7 PUSH2 0x5EF5 JUMP JUMPDEST PUSH0 JUMPDEST DUP3 DUP2 LT ISZERO PUSH2 0x612C JUMPI DUP5 DUP10 ADD CALLDATALOAD DUP3 SSTORE PUSH1 0x1 DUP3 ADD SWAP2 POP PUSH1 0x20 DUP6 ADD SWAP5 POP PUSH1 0x20 DUP2 ADD SWAP1 POP PUSH2 0x6107 JUMP JUMPDEST DUP7 DUP4 LT ISZERO PUSH2 0x6149 JUMPI DUP5 DUP10 ADD CALLDATALOAD PUSH2 0x6145 PUSH1 0x1F DUP10 AND DUP3 PUSH2 0x605B JUMP JUMPDEST DUP4 SSTORE POP JUMPDEST PUSH1 0x1 PUSH1 0x2 DUP9 MUL ADD DUP9 SSTORE POP POP POP JUMPDEST POP POP POP POP POP POP POP JUMP JUMPDEST PUSH32 0x4552433732313A2063616C6C6572206973206E6F7420746F6B656E206F776E65 PUSH0 DUP3 ADD MSTORE PUSH32 0x72206E6F7220617070726F766564000000000000000000000000000000000000 PUSH1 0x20 DUP3 ADD MSTORE POP JUMP JUMPDEST PUSH0 PUSH2 0x61B9 PUSH1 0x2E DUP4 PUSH2 0x4EE5 JUMP JUMPDEST SWAP2 POP PUSH2 0x61C4 DUP3 PUSH2 0x615F JUMP JUMPDEST PUSH1 0x40 DUP3 ADD SWAP1 POP SWAP2 SWAP1 POP JUMP JUMPDEST PUSH0 PUSH1 0x20 DUP3 ADD SWAP1 POP DUP2 DUP2 SUB PUSH0 DUP4 ADD MSTORE PUSH2 0x61E6 DUP2 PUSH2 0x61AD JUMP JUMPDEST SWAP1 POP SWAP2 SWAP1 POP JUMP JUMPDEST PUSH0 DUP3 SWAP1 POP SWAP3 SWAP2 POP POP JUMP JUMPDEST PUSH0 DUP2 SWAP1 POP DUP2 PUSH0 MSTORE PUSH1 0x20 PUSH0 KECCAK256 SWAP1 POP SWAP2 SWAP1 POP JUMP JUMPDEST PUSH1 0x1F DUP3 GT ISZERO PUSH2 0x624A JUMPI PUSH2 0x621B DUP2 PUSH2 0x61F7 JUMP JUMPDEST PUSH2 0x6224 DUP5 PUSH2 0x5F07 JUMP JUMPDEST DUP2 ADD PUSH1 0x20 DUP6 LT ISZERO PUSH2 0x6233 JUMPI DUP2 SWAP1 POP JUMPDEST PUSH2 0x6247 PUSH2 0x623F DUP6 PUSH2 0x5F07 JUMP JUMPDEST DUP4 ADD DUP3 PUSH2 0x5FE7 JUMP JUMPDEST POP POP JUMPDEST POP POP POP JUMP JUMPDEST PUSH2 0x6259 DUP4 DUP4 PUSH2 0x61ED JUMP JUMPDEST PUSH8 0xFFFFFFFFFFFFFFFF DUP2 GT ISZERO PUSH2 0x6272 JUMPI PUSH2 0x6271 PUSH2 0x5102 JUMP JUMPDEST JUMPDEST PUSH2 0x627C DUP3 SLOAD PUSH2 0x5CAA JUMP JUMPDEST PUSH2 0x6287 DUP3 DUP3 DUP6 PUSH2 0x6209 JUMP JUMPDEST PUSH0 PUSH1 0x1F DUP4 GT PUSH1 0x1 DUP2 EQ PUSH2 0x62B4 JUMPI PUSH0 DUP5 ISZERO PUSH2 0x62A2 JUMPI DUP3 DUP8 ADD CALLDATALOAD SWAP1 POP JUMPDEST PUSH2 0x62AC DUP6 DUP3 PUSH2 0x6077 JUMP JUMPDEST DUP7 SSTORE POP PUSH2 0x6313 JUMP JUMPDEST PUSH1 0x1F NOT DUP5 AND PUSH2 0x62C2 DUP7 PUSH2 0x61F7 JUMP JUMPDEST PUSH0 JUMPDEST DUP3 DUP2 LT ISZERO PUSH2 0x62E9 JUMPI DUP5 DUP10 ADD CALLDATALOAD DUP3 SSTORE PUSH1 0x1 DUP3 ADD SWAP2 POP PUSH1 0x20 DUP6 ADD SWAP5 POP PUSH1 0x20 DUP2 ADD SWAP1 POP PUSH2 0x62C4 JUMP JUMPDEST DUP7 DUP4 LT ISZERO PUSH2 0x6306 JUMPI DUP5 DUP10 ADD CALLDATALOAD PUSH2 0x6302 PUSH1 0x1F DUP10 AND DUP3 PUSH2 0x605B JUMP JUMPDEST DUP4 SSTORE POP JUMPDEST PUSH1 0x1 PUSH1 0x2 DUP9 MUL ADD DUP9 SSTORE POP POP POP JUMPDEST POP POP POP POP POP POP POP JUMP JUMPDEST PUSH0 PUSH2 0x6326 DUP3 PUSH2 0x4DF7 JUMP JUMPDEST SWAP2 POP PUSH32 0xFFFFFFFFFFFFFFFFFFFFFFFFFFFFFFFFFFFFFFFFFFFFFFFFFFFFFFFFFFFFFFFF DUP3 SUB PUSH2 0x6358 JUMPI PUSH2 0x6357 PUSH2 0x5E8B JUMP JUMPDEST JUMPDEST PUSH1 0x1 DUP3 ADD SWAP1 POP SWAP2 SWAP1 POP JUMP JUMPDEST PUSH32 0x455243373231456E756D657261626C653A206F776E657220696E646578206F75 PUSH0 DUP3 ADD MSTORE PUSH32 0x74206F6620626F756E6473000000000000000000000000000000000000000000 PUSH1 0x20 DUP3 ADD MSTORE POP JUMP JUMPDEST PUSH0 PUSH2 0x63BD PUSH1 0x2B DUP4 PUSH2 0x4EE5 JUMP JUMPDEST SWAP2 POP PUSH2 0x63C8 DUP3 PUSH2 0x6363 JUMP JUMPDEST PUSH1 0x40 DUP3 ADD SWAP1 POP SWAP2 SWAP1 POP JUMP JUMPDEST PUSH0 PUSH1 0x20 DUP3 ADD SWAP1 POP DUP2 DUP2 SUB PUSH0 DUP4 ADD MSTORE PUSH2 0x63EA DUP2 PUSH2 0x63B1 JUMP JUMPDEST SWAP1 POP SWAP2 SWAP1 POP JUMP JUMPDEST PUSH32 0x6E6F206D696E74696E6720616C6C6F7765640000000000000000000000000000 PUSH0 DUP3 ADD MSTORE POP JUMP JUMPDEST PUSH0 PUSH2 0x6425 PUSH1 0x12 DUP4 PUSH2 0x4EE5 JUMP JUMPDEST SWAP2 POP PUSH2 0x6430 DUP3 PUSH2 0x63F1 JUMP JUMPDEST PUSH1 0x20 DUP3 ADD SWAP1 POP SWAP2 SWAP1 POP JUMP JUMPDEST PUSH0 PUSH1 0x20 DUP3 ADD SWAP1 POP DUP2 DUP2 SUB PUSH0 DUP4 ADD MSTORE PUSH2 0x6452 DUP2 PUSH2 0x6419 JUMP JUMPDEST SWAP1 POP SWAP2 SWAP1 POP JUMP JUMPDEST PUSH0 PUSH2 0x6463 DUP3 PUSH2 0x4DF7 JUMP JUMPDEST SWAP2 POP PUSH0 DUP3 SUB PUSH2 0x6475 JUMPI PUSH2 0x6474 PUSH2 0x5E8B JUMP JUMPDEST JUMPDEST PUSH1 0x1 DUP3 SUB SWAP1 POP SWAP2 SWAP1 POP JUMP JUMPDEST PUSH32 0x416363657373436F6E74726F6C3A2063616E206F6E6C792072656E6F756E6365 PUSH0 DUP3 ADD MSTORE PUSH32 0x20726F6C657320666F722073656C660000000000000000000000000000000000 PUSH1 0x20 DUP3 ADD MSTORE POP JUMP JUMPDEST PUSH0 PUSH2 0x64DA PUSH1 0x2F DUP4 PUSH2 0x4EE5 JUMP JUMPDEST SWAP2 POP PUSH2 0x64E5 DUP3 PUSH2 0x6480 JUMP JUMPDEST PUSH1 0x40 DUP3 ADD SWAP1 POP SWAP2 SWAP1 POP JUMP JUMPDEST PUSH0 PUSH1 0x20 DUP3 ADD SWAP1 POP DUP2 DUP2 SUB PUSH0 DUP4 ADD MSTORE PUSH2 0x6507 DUP2 PUSH2 0x64CE JUMP JUMPDEST SWAP1 POP SWAP2 SWAP1 POP JUMP JUMPDEST PUSH32 0x46756E6374696F6E206D7573742062652063616C6C6564207468726F75676820 PUSH0 DUP3 ADD MSTORE PUSH32 0x64656C656761746563616C6C0000000000000000000000000000000000000000 PUSH1 0x20 DUP3 ADD MSTORE POP JUMP JUMPDEST PUSH0 PUSH2 0x6568 PUSH1 0x2C DUP4 PUSH2 0x4EE5 JUMP JUMPDEST SWAP2 POP PUSH2 0x6573 DUP3 PUSH2 0x650E JUMP JUMPDEST PUSH1 0x40 DUP3 ADD SWAP1 POP SWAP2 SWAP1 POP JUMP JUMPDEST PUSH0 PUSH1 0x20 DUP3 ADD SWAP1 POP DUP2 DUP2 SUB PUSH0 DUP4 ADD MSTORE PUSH2 0x6595 DUP2 PUSH2 0x655C JUMP JUMPDEST SWAP1 POP SWAP2 SWAP1 POP JUMP JUMPDEST PUSH32 0x46756E6374696F6E206D7573742062652063616C6C6564207468726F75676820 PUSH0 DUP3 ADD MSTORE PUSH32 0x6163746976652070726F78790000000000000000000000000000000000000000 PUSH1 0x20 DUP3 ADD MSTORE POP JUMP JUMPDEST PUSH0 PUSH2 0x65F6 PUSH1 0x2C DUP4 PUSH2 0x4EE5 JUMP JUMPDEST SWAP2 POP PUSH2 0x6601 DUP3 PUSH2 0x659C JUMP JUMPDEST PUSH1 0x40 DUP3 ADD SWAP1 POP SWAP2 SWAP1 POP JUMP JUMPDEST PUSH0 PUSH1 0x20 DUP3 ADD SWAP1 POP DUP2 DUP2 SUB PUSH0 DUP4 ADD MSTORE PUSH2 0x6623 DUP2 PUSH2 0x65EA JUMP JUMPDEST SWAP1 POP SWAP2 SWAP1 POP JUMP JUMPDEST PUSH32 0x455243373231456E756D657261626C653A20676C6F62616C20696E646578206F PUSH0 DUP3 ADD MSTORE PUSH32 0x7574206F6620626F756E64730000000000000000000000000000000000000000 PUSH1 0x20 DUP3 ADD MSTORE POP JUMP JUMPDEST PUSH0 PUSH2 0x6684 PUSH1 0x2C DUP4 PUSH2 0x4EE5 JUMP JUMPDEST SWAP2 POP PUSH2 0x668F DUP3 PUSH2 0x662A JUMP JUMPDEST PUSH1 0x40 DUP3 ADD SWAP1 POP SWAP2 SWAP1 POP JUMP JUMPDEST PUSH0 PUSH1 0x20 DUP3 ADD SWAP1 POP DUP2 DUP2 SUB PUSH0 DUP4 ADD MSTORE PUSH2 0x66B1 DUP2 PUSH2 0x6678 JUMP JUMPDEST SWAP1 POP SWAP2 SWAP1 POP JUMP JUMPDEST PUSH32 0x555550535570677261646561626C653A206D757374206E6F742062652063616C PUSH0 DUP3 ADD MSTORE PUSH32 0x6C6564207468726F7567682064656C656761746563616C6C0000000000000000 PUSH1 0x20 DUP3 ADD MSTORE POP JUMP JUMPDEST PUSH0 PUSH2 0x6712 PUSH1 0x38 DUP4 PUSH2 0x4EE5 JUMP JUMPDEST SWAP2 POP PUSH2 0x671D DUP3 PUSH2 0x66B8 JUMP JUMPDEST PUSH1 0x40 DUP3 ADD SWAP1 POP SWAP2 SWAP1 POP JUMP JUMPDEST PUSH0 PUSH1 0x20 DUP3 ADD SWAP1 POP DUP2 DUP2 SUB PUSH0 DUP4 ADD MSTORE PUSH2 0x673F DUP2 PUSH2 0x6706 JUMP JUMPDEST SWAP1 POP SWAP2 SWAP1 POP JUMP JUMPDEST PUSH32 0x4552433732313A20696E76616C696420746F6B656E2049440000000000000000 PUSH0 DUP3 ADD MSTORE POP JUMP JUMPDEST PUSH0 PUSH2 0x677A PUSH1 0x18 DUP4 PUSH2 0x4EE5 JUMP JUMPDEST SWAP2 POP PUSH2 0x6785 DUP3 PUSH2 0x6746 JUMP JUMPDEST PUSH1 0x20 DUP3 ADD SWAP1 POP SWAP2 SWAP1 POP JUMP JUMPDEST PUSH0 PUSH1 0x20 DUP3 ADD SWAP1 POP DUP2 DUP2 SUB PUSH0 DUP4 ADD MSTORE PUSH2 0x67A7 DUP2 PUSH2 0x676E JUMP JUMPDEST SWAP1 POP SWAP2 SWAP1 POP JUMP JUMPDEST PUSH32 0x4552433732313A2061646472657373207A65726F206973206E6F742061207661 PUSH0 DUP3 ADD MSTORE PUSH32 0x6C6964206F776E65720000000000000000000000000000000000000000000000 PUSH1 0x20 DUP3 ADD MSTORE POP JUMP JUMPDEST PUSH0 PUSH2 0x6808 PUSH1 0x29 DUP4 PUSH2 0x4EE5 JUMP JUMPDEST SWAP2 POP PUSH2 0x6813 DUP3 PUSH2 0x67AE JUMP JUMPDEST PUSH1 0x40 DUP3 ADD SWAP1 POP SWAP2 SWAP1 POP JUMP JUMPDEST PUSH0 PUSH1 0x20 DUP3 ADD SWAP1 POP DUP2 DUP2 SUB PUSH0 DUP4 ADD MSTORE PUSH2 0x6835 DUP2 PUSH2 0x67FC JUMP JUMPDEST SWAP1 POP SWAP2 SWAP1 POP JUMP JUMPDEST PUSH32 0x496E697469616C697A61626C653A20636F6E747261637420697320616C726561 PUSH0 DUP3 ADD MSTORE PUSH32 0x647920696E697469616C697A6564000000000000000000000000000000000000 PUSH1 0x20 DUP3 ADD MSTORE POP JUMP JUMPDEST PUSH0 PUSH2 0x6896 PUSH1 0x2E DUP4 PUSH2 0x4EE5 JUMP JUMPDEST SWAP2 POP PUSH2 0x68A1 DUP3 PUSH2 0x683C JUMP JUMPDEST PUSH1 0x40 DUP3 ADD SWAP1 POP SWAP2 SWAP1 POP JUMP JUMPDEST PUSH0 PUSH1 0x20 DUP3 ADD SWAP1 POP DUP2 DUP2 SUB PUSH0 DUP4 ADD MSTORE PUSH2 0x68C3 DUP2 PUSH2 0x688A JUMP JUMPDEST SWAP1 POP SWAP2 SWAP1 POP JUMP JUMPDEST PUSH0 DUP2 SWAP1 POP SWAP2 SWAP1 POP JUMP JUMPDEST PUSH0 PUSH1 0xFF DUP3 AND SWAP1 POP SWAP2 SWAP1 POP JUMP JUMPDEST PUSH0 PUSH2 0x68F9 PUSH2 0x68F4 PUSH2 0x68EF DUP5 PUSH2 0x68CA JUMP JUMPDEST PUSH2 0x5F73 JUMP JUMPDEST PUSH2 0x68D3 JUMP JUMPDEST SWAP1 POP SWAP2 SWAP1 POP JUMP JUMPDEST PUSH2 0x6909 DUP2 PUSH2 0x68DF JUMP JUMPDEST DUP3 MSTORE POP POP JUMP JUMPDEST PUSH0 PUSH1 0x20 DUP3 ADD SWAP1 POP PUSH2 0x6922 PUSH0 DUP4 ADD DUP5 PUSH2 0x6900 JUMP JUMPDEST SWAP3 SWAP2 POP POP JUMP JUMPDEST PUSH32 0x6E6F206368616C6C656E67652073746172746564000000000000000000000000 PUSH0 DUP3 ADD MSTORE POP JUMP JUMPDEST PUSH0 PUSH2 0x695C PUSH1 0x14 DUP4 PUSH2 0x4EE5 JUMP JUMPDEST SWAP2 POP PUSH2 0x6967 DUP3 PUSH2 0x6928 JUMP JUMPDEST PUSH1 0x20 DUP3 ADD SWAP1 POP SWAP2 SWAP1 POP JUMP JUMPDEST PUSH0 PUSH1 0x20 DUP3 ADD SWAP1 POP DUP2 DUP2 SUB PUSH0 DUP4 ADD MSTORE PUSH2 0x6989 DUP2 PUSH2 0x6950 JUMP JUMPDEST SWAP1 POP SWAP2 SWAP1 POP JUMP JUMPDEST PUSH32 0x7075626C6973686572732072656163686564206D6178696D756D20616D6F756E PUSH0 DUP3 ADD MSTORE PUSH32 0x7400000000000000000000000000000000000000000000000000000000000000 PUSH1 0x20 DUP3 ADD MSTORE POP JUMP JUMPDEST PUSH0 PUSH2 0x69EA PUSH1 0x21 DUP4 PUSH2 0x4EE5 JUMP JUMPDEST SWAP2 POP PUSH2 0x69F5 DUP3 PUSH2 0x6990 JUMP JUMPDEST PUSH1 0x40 DUP3 ADD SWAP1 POP SWAP2 SWAP1 POP JUMP JUMPDEST PUSH0 PUSH1 0x20 DUP3 ADD SWAP1 POP DUP2 DUP2 SUB PUSH0 DUP4 ADD MSTORE PUSH2 0x6A17 DUP2 PUSH2 0x69DE JUMP JUMPDEST SWAP1 POP SWAP2 SWAP1 POP JUMP JUMPDEST PUSH0 DUP2 SWAP1 POP SWAP2 SWAP1 POP JUMP JUMPDEST PUSH2 0x6A38 PUSH2 0x6A33 DUP3 PUSH2 0x4DF7 JUMP JUMPDEST PUSH2 0x6A1E JUMP JUMPDEST DUP3 MSTORE POP POP JUMP JUMPDEST PUSH0 PUSH2 0x6A49 DUP3 DUP6 PUSH2 0x6A27 JUMP JUMPDEST PUSH1 0x20 DUP3 ADD SWAP2 POP PUSH2 0x6A59 DUP3 DUP5 PUSH2 0x6A27 JUMP JUMPDEST PUSH1 0x20 DUP3 ADD SWAP2 POP DUP2 SWAP1 POP SWAP4 SWAP3 POP POP POP JUMP JUMPDEST PUSH0 DUP2 PUSH1 0x60 SHL SWAP1 POP SWAP2 SWAP1 POP JUMP JUMPDEST PUSH0 PUSH2 0x6A7F DUP3 PUSH2 0x6A69 JUMP JUMPDEST SWAP1 POP SWAP2 SWAP1 POP JUMP JUMPDEST PUSH0 PUSH2 0x6A90 DUP3 PUSH2 0x6A75 JUMP JUMPDEST SWAP1 POP SWAP2 SWAP1 POP JUMP JUMPDEST PUSH2 0x6AA8 PUSH2 0x6AA3 DUP3 PUSH2 0x4D91 JUMP JUMPDEST PUSH2 0x6A86 JUMP JUMPDEST DUP3 MSTORE POP POP JUMP JUMPDEST PUSH0 PUSH2 0x6AB9 DUP3 DUP6 PUSH2 0x6A27 JUMP JUMPDEST PUSH1 0x20 DUP3 ADD SWAP2 POP PUSH2 0x6AC9 DUP3 DUP5 PUSH2 0x6A97 JUMP JUMPDEST PUSH1 0x14 DUP3 ADD SWAP2 POP DUP2 SWAP1 POP SWAP4 SWAP3 POP POP POP JUMP JUMPDEST PUSH0 DUP2 SWAP1 POP SWAP3 SWAP2 POP POP JUMP JUMPDEST PUSH0 PUSH2 0x6AED DUP3 PUSH2 0x56E9 JUMP JUMPDEST PUSH2 0x6AF7 DUP2 DUP6 PUSH2 0x6AD9 JUMP JUMPDEST SWAP4 POP PUSH2 0x6B07 DUP2 DUP6 PUSH1 0x20 DUP7 ADD PUSH2 0x4EF5 JUMP JUMPDEST DUP1 DUP5 ADD SWAP2 POP POP SWAP3 SWAP2 POP POP JUMP JUMPDEST PUSH0 PUSH2 0x6B1E DUP3 DUP5 PUSH2 0x6AE3 JUMP JUMPDEST SWAP2 POP DUP2 SWAP1 POP SWAP3 SWAP2 POP POP JUMP JUMPDEST PUSH32 0x70726F6F6620616C7265616479207075626C6973686564000000000000000000 PUSH0 DUP3 ADD MSTORE POP JUMP JUMPDEST PUSH0 PUSH2 0x6B5D PUSH1 0x17 DUP4 PUSH2 0x4EE5 JUMP JUMPDEST SWAP2 POP PUSH2 0x6B68 DUP3 PUSH2 0x6B29 JUMP JUMPDEST PUSH1 0x20 DUP3 ADD SWAP1 POP SWAP2 SWAP1 POP JUMP JUMPDEST PUSH0 PUSH1 0x20 DUP3 ADD SWAP1 POP DUP2 DUP2 SUB PUSH0 DUP4 ADD MSTORE PUSH2 0x6B8A DUP2 PUSH2 0x6B51 JUMP JUMPDEST SWAP1 POP SWAP2 SWAP1 POP JUMP JUMPDEST PUSH32 0x63757272656E74207075626C69736865722068617320616C7265616479207375 PUSH0 DUP3 ADD MSTORE PUSH32 0x626D697474656400000000000000000000000000000000000000000000000000 PUSH1 0x20 DUP3 ADD MSTORE POP JUMP JUMPDEST PUSH0 PUSH2 0x6BEB PUSH1 0x27 DUP4 PUSH2 0x4EE5 JUMP JUMPDEST SWAP2 POP PUSH2 0x6BF6 DUP3 PUSH2 0x6B91 JUMP JUMPDEST PUSH1 0x40 DUP3 ADD SWAP1 POP SWAP2 SWAP1 POP JUMP JUMPDEST PUSH0 PUSH1 0x20 DUP3 ADD SWAP1 POP DUP2 DUP2 SUB PUSH0 DUP4 ADD MSTORE PUSH2 0x6C18 DUP2 PUSH2 0x6BDF JUMP JUMPDEST SWAP1 POP SWAP2 SWAP1 POP JUMP JUMPDEST PUSH32 0x70726F7669646564206368616C6C656E6765206973206E6F742076616C696400 PUSH0 DUP3 ADD MSTORE POP JUMP JUMPDEST PUSH0 PUSH2 0x6C53 PUSH1 0x1F DUP4 PUSH2 0x4EE5 JUMP JUMPDEST SWAP2 POP PUSH2 0x6C5E DUP3 PUSH2 0x6C1F JUMP JUMPDEST PUSH1 0x20 DUP3 ADD SWAP1 POP SWAP2 SWAP1 POP JUMP JUMPDEST PUSH0 PUSH1 0x20 DUP3 ADD SWAP1 POP DUP2 DUP2 SUB PUSH0 DUP4 ADD MSTORE PUSH2 0x6C80 DUP2 PUSH2 0x6C47 JUMP JUMPDEST SWAP1 POP SWAP2 SWAP1 POP JUMP JUMPDEST PUSH0 PUSH1 0x2 SWAP1 POP SWAP2 SWAP1 POP JUMP JUMPDEST PUSH0 DUP2 SWAP1 POP SWAP3 SWAP2 POP POP JUMP JUMPDEST PUSH0 DUP2 SWAP1 POP SWAP2 SWAP1 POP JUMP JUMPDEST PUSH2 0x6CAD DUP2 PUSH2 0x4DF7 JUMP JUMPDEST DUP3 MSTORE POP POP JUMP JUMPDEST PUSH0 PUSH2 0x6CBE DUP4 DUP4 PUSH2 0x6CA4 JUMP JUMPDEST PUSH1 0x20 DUP4 ADD SWAP1 POP SWAP3 SWAP2 POP POP JUMP JUMPDEST PUSH0 PUSH1 0x20 DUP3 ADD SWAP1 POP SWAP2 SWAP1 POP JUMP JUMPDEST PUSH2 0x6CDF DUP2 PUSH2 0x6C87 JUMP JUMPDEST PUSH2 0x6CE9 DUP2 DUP5 PUSH2 0x6C91 JUMP JUMPDEST SWAP3 POP PUSH2 0x6CF4 DUP3 PUSH2 0x6C9B JUMP JUMPDEST DUP1 PUSH0 JUMPDEST DUP4 DUP2 LT ISZERO PUSH2 0x6D24 JUMPI DUP2 MLOAD PUSH2 0x6D0B DUP8 DUP3 PUSH2 0x6CB3 JUMP JUMPDEST SWAP7 POP PUSH2 0x6D16 DUP4 PUSH2 0x6CCA JUMP JUMPDEST SWAP3 POP POP PUSH1 0x1 DUP2 ADD SWAP1 POP PUSH2 0x6CF7 JUMP JUMPDEST POP POP POP POP POP POP JUMP JUMPDEST PUSH0 PUSH1 0x2 SWAP1 POP SWAP2 SWAP1 POP JUMP JUMPDEST PUSH0 DUP2 SWAP1 POP SWAP3 SWAP2 POP POP JUMP JUMPDEST PUSH0 DUP2 SWAP1 POP SWAP2 SWAP1 POP JUMP JUMPDEST PUSH0 DUP2 SWAP1 POP SWAP3 SWAP2 POP POP JUMP JUMPDEST PUSH2 0x6D5C DUP2 PUSH2 0x6C87 JUMP JUMPDEST PUSH2 0x6D66 DUP2 DUP5 PUSH2 0x6D49 JUMP JUMPDEST SWAP3 POP PUSH2 0x6D71 DUP3 PUSH2 0x6C9B JUMP JUMPDEST DUP1 PUSH0 JUMPDEST DUP4 DUP2 LT ISZERO PUSH2 0x6DA1 JUMPI DUP2 MLOAD PUSH2 0x6D88 DUP8 DUP3 PUSH2 0x6CB3 JUMP JUMPDEST SWAP7 POP PUSH2 0x6D93 DUP4 PUSH2 0x6CCA JUMP JUMPDEST SWAP3 POP POP PUSH1 0x1 DUP2 ADD SWAP1 POP PUSH2 0x6D74 JUMP JUMPDEST POP POP POP POP POP POP JUMP JUMPDEST PUSH0 PUSH2 0x6DB4 DUP4 DUP4 PUSH2 0x6D53 JUMP JUMPDEST PUSH1 0x40 DUP4 ADD SWAP1 POP SWAP3 SWAP2 POP POP JUMP JUMPDEST PUSH0 PUSH1 0x20 DUP3 ADD SWAP1 POP SWAP2 SWAP1 POP JUMP JUMPDEST PUSH2 0x6DD5 DUP2 PUSH2 0x6D2C JUMP JUMPDEST PUSH2 0x6DDF DUP2 DUP5 PUSH2 0x6D36 JUMP JUMPDEST SWAP3 POP PUSH2 0x6DEA DUP3 PUSH2 0x6D40 JUMP JUMPDEST DUP1 PUSH0 JUMPDEST DUP4 DUP2 LT ISZERO PUSH2 0x6E1A JUMPI DUP2 MLOAD PUSH2 0x6E01 DUP8 DUP3 PUSH2 0x6DA9 JUMP JUMPDEST SWAP7 POP PUSH2 0x6E0C DUP4 PUSH2 0x6DC0 JUMP JUMPDEST SWAP3 POP POP PUSH1 0x1 DUP2 ADD SWAP1 POP PUSH2 0x6DED JUMP JUMPDEST POP POP POP POP POP POP JUMP JUMPDEST PUSH0 PUSH1 0x3 SWAP1 POP SWAP2 SWAP1 POP JUMP JUMPDEST PUSH0 DUP2 SWAP1 POP SWAP3 SWAP2 POP POP JUMP JUMPDEST PUSH0 DUP2 SWAP1 POP SWAP2 SWAP1 POP JUMP JUMPDEST PUSH0 PUSH1 0x20 DUP3 ADD SWAP1 POP SWAP2 SWAP1 POP JUMP JUMPDEST PUSH2 0x6E54 DUP2 PUSH2 0x6E22 JUMP JUMPDEST PUSH2 0x6E5E DUP2 DUP5 PUSH2 0x6E2C JUMP JUMPDEST SWAP3 POP PUSH2 0x6E69 DUP3 PUSH2 0x6E36 JUMP JUMPDEST DUP1 PUSH0 JUMPDEST DUP4 DUP2 LT ISZERO PUSH2 0x6E99 JUMPI DUP2 MLOAD PUSH2 0x6E80 DUP8 DUP3 PUSH2 0x6CB3 JUMP JUMPDEST SWAP7 POP PUSH2 0x6E8B DUP4 PUSH2 0x6E3F JUMP JUMPDEST SWAP3 POP POP PUSH1 0x1 DUP2 ADD SWAP1 POP PUSH2 0x6E6C JUMP JUMPDEST POP POP POP POP POP POP JUMP JUMPDEST PUSH0 PUSH2 0x160 DUP3 ADD SWAP1 POP PUSH2 0x6EB5 PUSH0 DUP4 ADD DUP8 PUSH2 0x6CD6 JUMP JUMPDEST PUSH2 0x6EC2 PUSH1 0x40 DUP4 ADD DUP7 PUSH2 0x6DCC JUMP JUMPDEST PUSH2 0x6ECF PUSH1 0xC0 DUP4 ADD DUP6 PUSH2 0x6CD6 JUMP JUMPDEST PUSH2 0x6EDD PUSH2 0x100 DUP4 ADD DUP5 PUSH2 0x6E4B JUMP JUMPDEST SWAP6 SWAP5 POP POP POP POP POP JUMP JUMPDEST PUSH32 0x7468652063616C6C20746F20746865207665726966696572206661696C656400 PUSH0 DUP3 ADD MSTORE POP JUMP JUMPDEST PUSH0 PUSH2 0x6F1A PUSH1 0x1F DUP4 PUSH2 0x4EE5 JUMP JUMPDEST SWAP2 POP PUSH2 0x6F25 DUP3 PUSH2 0x6EE6 JUMP JUMPDEST PUSH1 0x20 DUP3 ADD SWAP1 POP SWAP2 SWAP1 POP JUMP JUMPDEST PUSH0 PUSH1 0x20 DUP3 ADD SWAP1 POP DUP2 DUP2 SUB PUSH0 DUP4 ADD MSTORE PUSH2 0x6F47 DUP2 PUSH2 0x6F0E JUMP JUMPDEST SWAP1 POP SWAP2 SWAP1 POP JUMP JUMPDEST PUSH0 DUP2 MLOAD SWAP1 POP PUSH2 0x6F5C DUP2 PUSH2 0x5AFA JUMP JUMPDEST SWAP3 SWAP2 POP POP JUMP JUMPDEST PUSH0 PUSH1 0x20 DUP3 DUP5 SUB SLT ISZERO PUSH2 0x6F77 JUMPI PUSH2 0x6F76 PUSH2 0x4D6A JUMP JUMPDEST JUMPDEST PUSH0 PUSH2 0x6F84 DUP5 DUP3 DUP6 ADD PUSH2 0x6F4E JUMP JUMPDEST SWAP2 POP POP SWAP3 SWAP2 POP POP JUMP JUMPDEST PUSH32 0x7468652070726F76696465642070726F6F662069736E27742076616C69640000 PUSH0 DUP3 ADD MSTORE POP JUMP JUMPDEST PUSH0 PUSH2 0x6FC1 PUSH1 0x1E DUP4 PUSH2 0x4EE5 JUMP JUMPDEST SWAP2 POP PUSH2 0x6FCC DUP3 PUSH2 0x6F8D JUMP JUMPDEST PUSH1 0x20 DUP3 ADD SWAP1 POP SWAP2 SWAP1 POP JUMP JUMPDEST PUSH0 PUSH1 0x20 DUP3 ADD SWAP1 POP DUP2 DUP2 SUB PUSH0 DUP4 ADD MSTORE PUSH2 0x6FEE DUP2 PUSH2 0x6FB5 JUMP JUMPDEST SWAP1 POP SWAP2 SWAP1 POP JUMP JUMPDEST PUSH32 0x6861736820616C72656164792073657400000000000000000000000000000000 PUSH0 DUP3 ADD MSTORE POP JUMP JUMPDEST PUSH0 PUSH2 0x7029 PUSH1 0x10 DUP4 PUSH2 0x4EE5 JUMP JUMPDEST SWAP2 POP PUSH2 0x7034 DUP3 PUSH2 0x6FF5 JUMP JUMPDEST PUSH1 0x20 DUP3 ADD SWAP1 POP SWAP2 SWAP1 POP JUMP JUMPDEST PUSH0 PUSH1 0x20 DUP3 ADD SWAP1 POP DUP2 DUP2 SUB PUSH0 DUP4 ADD MSTORE PUSH2 0x7056 DUP2 PUSH2 0x701D JUMP JUMPDEST SWAP1 POP SWAP2 SWAP1 POP JUMP JUMPDEST PUSH0 DUP2 SWAP1 POP SWAP3 SWAP2 POP POP JUMP JUMPDEST PUSH0 PUSH2 0x7071 DUP3 PUSH2 0x4EDB JUMP JUMPDEST PUSH2 0x707B DUP2 DUP6 PUSH2 0x705D JUMP JUMPDEST SWAP4 POP PUSH2 0x708B DUP2 DUP6 PUSH1 0x20 DUP7 ADD PUSH2 0x4EF5 JUMP JUMPDEST DUP1 DUP5 ADD SWAP2 POP POP SWAP3 SWAP2 POP POP JUMP JUMPDEST PUSH0 PUSH2 0x70A2 DUP3 DUP6 PUSH2 0x7067 JUMP JUMPDEST SWAP2 POP PUSH2 0x70AE DUP3 DUP5 PUSH2 0x7067 JUMP JUMPDEST SWAP2 POP DUP2 SWAP1 POP SWAP4 SWAP3 POP POP POP JUMP JUMPDEST PUSH0 PUSH2 0x70C5 DUP4 DUP6 PUSH2 0x705D JUMP JUMPDEST SWAP4 POP PUSH2 0x70D2 DUP4 DUP6 DUP5 PUSH2 0x51AA JUMP JUMPDEST DUP3 DUP5 ADD SWAP1 POP SWAP4 SWAP3 POP POP POP JUMP JUMPDEST PUSH0 PUSH2 0x70EA DUP3 DUP5 DUP7 PUSH2 0x70BA JUMP JUMPDEST SWAP2 POP DUP2 SWAP1 POP SWAP4 SWAP3 POP POP POP JUMP JUMPDEST PUSH32 0x4552433732313A207472616E736665722066726F6D20696E636F727265637420 PUSH0 DUP3 ADD MSTORE PUSH32 0x6F776E6572000000000000000000000000000000000000000000000000000000 PUSH1 0x20 DUP3 ADD MSTORE POP JUMP JUMPDEST PUSH0 PUSH2 0x7150 PUSH1 0x25 DUP4 PUSH2 0x4EE5 JUMP JUMPDEST SWAP2 POP PUSH2 0x715B DUP3 PUSH2 0x70F6 JUMP JUMPDEST PUSH1 0x40 DUP3 ADD SWAP1 POP SWAP2 SWAP1 POP JUMP JUMPDEST PUSH0 PUSH1 0x20 DUP3 ADD SWAP1 POP DUP2 DUP2 SUB PUSH0 DUP4 ADD MSTORE PUSH2 0x717D DUP2 PUSH2 0x7144 JUMP JUMPDEST SWAP1 POP SWAP2 SWAP1 POP JUMP JUMPDEST PUSH32 0x4552433732313A207472616E7366657220746F20746865207A65726F20616464 PUSH0 DUP3 ADD MSTORE PUSH32 0x7265737300000000000000000000000000000000000000000000000000000000 PUSH1 0x20 DUP3 ADD MSTORE POP JUMP JUMPDEST PUSH0 PUSH2 0x71DE PUSH1 0x24 DUP4 PUSH2 0x4EE5 JUMP JUMPDEST SWAP2 POP PUSH2 0x71E9 DUP3 PUSH2 0x7184 JUMP JUMPDEST PUSH1 0x40 DUP3 ADD SWAP1 POP SWAP2 SWAP1 POP JUMP JUMPDEST PUSH0 PUSH1 0x20 DUP3 ADD SWAP1 POP DUP2 DUP2 SUB PUSH0 DUP4 ADD MSTORE PUSH2 0x720B DUP2 PUSH2 0x71D2 JUMP JUMPDEST SWAP1 POP SWAP2 SWAP1 POP JUMP JUMPDEST PUSH0 PUSH2 0x721C DUP3 PUSH2 0x4DF7 JUMP JUMPDEST SWAP2 POP PUSH2 0x7227 DUP4 PUSH2 0x4DF7 JUMP JUMPDEST SWAP3 POP DUP3 DUP3 SUB SWAP1 POP DUP2 DUP2 GT ISZERO PUSH2 0x723F JUMPI PUSH2 0x723E PUSH2 0x5E8B JUMP JUMPDEST JUMPDEST SWAP3 SWAP2 POP POP JUMP JUMPDEST PUSH2 0x724E DUP3 PUSH2 0x4EDB JUMP JUMPDEST PUSH8 0xFFFFFFFFFFFFFFFF DUP2 GT ISZERO PUSH2 0x7267 JUMPI PUSH2 0x7266 PUSH2 0x5102 JUMP JUMPDEST JUMPDEST PUSH2 0x7271 DUP3 SLOAD PUSH2 0x5CAA JUMP JUMPDEST PUSH2 0x727C DUP3 DUP3 DUP6 PUSH2 0x6209 JUMP JUMPDEST PUSH0 PUSH1 0x20 SWAP1 POP PUSH1 0x1F DUP4 GT PUSH1 0x1 DUP2 EQ PUSH2 0x72AD JUMPI PUSH0 DUP5 ISZERO PUSH2 0x729B JUMPI DUP3 DUP8 ADD MLOAD SWAP1 POP JUMPDEST PUSH2 0x72A5 DUP6 DUP3 PUSH2 0x6077 JUMP JUMPDEST DUP7 SSTORE POP PUSH2 0x730C JUMP JUMPDEST PUSH1 0x1F NOT DUP5 AND PUSH2 0x72BB DUP7 PUSH2 0x61F7 JUMP JUMPDEST PUSH0 JUMPDEST DUP3 DUP2 LT ISZERO PUSH2 0x72E2 JUMPI DUP5 DUP10 ADD MLOAD DUP3 SSTORE PUSH1 0x1 DUP3 ADD SWAP2 POP PUSH1 0x20 DUP6 ADD SWAP5 POP PUSH1 0x20 DUP2 ADD SWAP1 POP PUSH2 0x72BD JUMP JUMPDEST DUP7 DUP4 LT ISZERO PUSH2 0x72FF JUMPI DUP5 DUP10 ADD MLOAD PUSH2 0x72FB PUSH1 0x1F DUP10 AND DUP3 PUSH2 0x605B JUMP JUMPDEST DUP4 SSTORE POP JUMPDEST PUSH1 0x1 PUSH1 0x2 DUP9 MUL ADD DUP9 SSTORE POP POP POP JUMPDEST POP POP POP POP POP POP JUMP JUMPDEST PUSH0 DUP2 SLOAD SWAP1 POP PUSH2 0x7322 DUP2 PUSH2 0x5CAA JUMP JUMPDEST SWAP1 POP SWAP2 SWAP1 POP JUMP JUMPDEST PUSH0 DUP2 SWAP1 POP DUP2 PUSH0 MSTORE PUSH1 0x20 PUSH0 KECCAK256 SWAP1 POP SWAP2 SWAP1 POP JUMP JUMPDEST DUP2 DUP2 SUB PUSH2 0x7349 JUMPI POP POP PUSH2 0x741E JUMP JUMPDEST PUSH2 0x7352 DUP3 PUSH2 0x7314 JUMP JUMPDEST PUSH8 0xFFFFFFFFFFFFFFFF DUP2 GT ISZERO PUSH2 0x736B JUMPI PUSH2 0x736A PUSH2 0x5102 JUMP JUMPDEST JUMPDEST PUSH2 0x7375 DUP3 SLOAD PUSH2 0x5CAA JUMP JUMPDEST PUSH2 0x7380 DUP3 DUP3 DUP6 PUSH2 0x6009 JUMP JUMPDEST PUSH0 PUSH1 0x1F DUP4 GT PUSH1 0x1 DUP2 EQ PUSH2 0x73AD JUMPI PUSH0 DUP5 ISZERO PUSH2 0x739B JUMPI DUP3 DUP8 ADD SLOAD SWAP1 POP JUMPDEST PUSH2 0x73A5 DUP6 DUP3 PUSH2 0x6077 JUMP JUMPDEST DUP7 SSTORE POP PUSH2 0x7417 JUMP JUMPDEST PUSH1 0x1F NOT DUP5 AND PUSH2 0x73BB DUP8 PUSH2 0x7329 JUMP JUMPDEST SWAP7 POP PUSH2 0x73C6 DUP7 PUSH2 0x5EF5 JUMP JUMPDEST PUSH0 JUMPDEST DUP3 DUP2 LT ISZERO PUSH2 0x73ED JUMPI DUP5 DUP10 ADD SLOAD DUP3 SSTORE PUSH1 0x1 DUP3 ADD SWAP2 POP PUSH1 0x1 DUP6 ADD SWAP5 POP PUSH1 0x20 DUP2 ADD SWAP1 POP PUSH2 0x73C8 JUMP JUMPDEST DUP7 DUP4 LT ISZERO PUSH2 0x740A JUMPI DUP5 DUP10 ADD SLOAD PUSH2 0x7406 PUSH1 0x1F DUP10 AND DUP3 PUSH2 0x605B JUMP JUMPDEST DUP4 SSTORE POP JUMPDEST PUSH1 0x1 PUSH1 0x2 DUP9 MUL ADD DUP9 SSTORE POP POP POP JUMPDEST POP POP POP POP POP POP JUMPDEST JUMP JUMPDEST PUSH0 PUSH2 0x742B DUP3 DUP5 PUSH2 0x7067 JUMP JUMPDEST SWAP2 POP DUP2 SWAP1 POP SWAP3 SWAP2 POP POP JUMP JUMPDEST PUSH32 0x747970652073686F756C64206265206465636C61726564000000000000000000 PUSH0 DUP3 ADD MSTORE POP JUMP JUMPDEST PUSH0 PUSH2 0x746A PUSH1 0x17 DUP4 PUSH2 0x4EE5 JUMP JUMPDEST SWAP2 POP PUSH2 0x7475 DUP3 PUSH2 0x7436 JUMP JUMPDEST PUSH1 0x20 DUP3 ADD SWAP1 POP SWAP2 SWAP1 POP JUMP JUMPDEST PUSH0 PUSH1 0x20 DUP3 ADD SWAP1 POP DUP2 DUP2 SUB PUSH0 DUP4 ADD MSTORE PUSH2 0x7497 DUP2 PUSH2 0x745E JUMP JUMPDEST SWAP1 POP SWAP2 SWAP1 POP JUMP JUMPDEST PUSH2 0x74A7 DUP3 PUSH2 0x56E9 JUMP JUMPDEST PUSH8 0xFFFFFFFFFFFFFFFF DUP2 GT ISZERO PUSH2 0x74C0 JUMPI PUSH2 0x74BF PUSH2 0x5102 JUMP JUMPDEST JUMPDEST PUSH2 0x74CA DUP3 SLOAD PUSH2 0x5CAA JUMP JUMPDEST PUSH2 0x74D5 DUP3 DUP3 DUP6 PUSH2 0x6009 JUMP JUMPDEST PUSH0 PUSH1 0x20 SWAP1 POP PUSH1 0x1F DUP4 GT PUSH1 0x1 DUP2 EQ PUSH2 0x7506 JUMPI PUSH0 DUP5 ISZERO PUSH2 0x74F4 JUMPI DUP3 DUP8 ADD MLOAD SWAP1 POP JUMPDEST PUSH2 0x74FE DUP6 DUP3 PUSH2 0x6077 JUMP JUMPDEST DUP7 SSTORE POP PUSH2 0x7565 JUMP JUMPDEST PUSH1 0x1F NOT DUP5 AND PUSH2 0x7514 DUP7 PUSH2 0x5EF5 JUMP JUMPDEST PUSH0 JUMPDEST DUP3 DUP2 LT ISZERO PUSH2 0x753B JUMPI DUP5 DUP10 ADD MLOAD DUP3 SSTORE PUSH1 0x1 DUP3 ADD SWAP2 POP PUSH1 0x20 DUP6 ADD SWAP5 POP PUSH1 0x20 DUP2 ADD SWAP1 POP PUSH2 0x7516 JUMP JUMPDEST DUP7 DUP4 LT ISZERO PUSH2 0x7558 JUMPI DUP5 DUP10 ADD MLOAD PUSH2 0x7554 PUSH1 0x1F DUP10 AND DUP3 PUSH2 0x605B JUMP JUMPDEST DUP4 SSTORE POP JUMPDEST PUSH1 0x1 PUSH1 0x2 DUP9 MUL ADD DUP9 SSTORE POP POP POP JUMPDEST POP POP POP POP POP POP JUMP JUMPDEST PUSH0 DUP2 MLOAD SWAP1 POP PUSH2 0x757B DUP2 PUSH2 0x5366 JUMP JUMPDEST SWAP3 SWAP2 POP POP JUMP JUMPDEST PUSH0 PUSH1 0x20 DUP3 DUP5 SUB SLT ISZERO PUSH2 0x7596 JUMPI PUSH2 0x7595 PUSH2 0x4D6A JUMP JUMPDEST JUMPDEST PUSH0 PUSH2 0x75A3 DUP5 DUP3 DUP6 ADD PUSH2 0x756D JUMP JUMPDEST SWAP2 POP POP SWAP3 SWAP2 POP POP JUMP JUMPDEST PUSH32 0x45524331393637557067726164653A206E657720696D706C656D656E74617469 PUSH0 DUP3 ADD MSTORE PUSH32 0x6F6E206973206E6F742055555053000000000000000000000000000000000000 PUSH1 0x20 DUP3 ADD MSTORE POP JUMP JUMPDEST PUSH0 PUSH2 0x7606 PUSH1 0x2E DUP4 PUSH2 0x4EE5 JUMP JUMPDEST SWAP2 POP PUSH2 0x7611 DUP3 PUSH2 0x75AC JUMP JUMPDEST PUSH1 0x40 DUP3 ADD SWAP1 POP SWAP2 SWAP1 POP JUMP JUMPDEST PUSH0 PUSH1 0x20 DUP3 ADD SWAP1 POP DUP2 DUP2 SUB PUSH0 DUP4 ADD MSTORE PUSH2 0x7633 DUP2 PUSH2 0x75FA JUMP JUMPDEST SWAP1 POP SWAP2 SWAP1 POP JUMP JUMPDEST PUSH32 0x45524331393637557067726164653A20756E737570706F727465642070726F78 PUSH0 DUP3 ADD MSTORE PUSH32 0x6961626C65555549440000000000000000000000000000000000000000000000 PUSH1 0x20 DUP3 ADD MSTORE POP JUMP JUMPDEST PUSH0 PUSH2 0x7694 PUSH1 0x29 DUP4 PUSH2 0x4EE5 JUMP JUMPDEST SWAP2 POP PUSH2 0x769F DUP3 PUSH2 0x763A JUMP JUMPDEST PUSH1 0x40 DUP3 ADD SWAP1 POP SWAP2 SWAP1 POP JUMP JUMPDEST PUSH0 PUSH1 0x20 DUP3 ADD SWAP1 POP DUP2 DUP2 SUB PUSH0 DUP4 ADD MSTORE PUSH2 0x76C1 DUP2 PUSH2 0x7688 JUMP JUMPDEST SWAP1 POP SWAP2 SWAP1 POP JUMP JUMPDEST PUSH32 0x496E697469616C697A61626C653A20636F6E7472616374206973206E6F742069 PUSH0 DUP3 ADD MSTORE PUSH32 0x6E697469616C697A696E67000000000000000000000000000000000000000000 PUSH1 0x20 DUP3 ADD MSTORE POP JUMP JUMPDEST PUSH0 PUSH2 0x7722 PUSH1 0x2B DUP4 PUSH2 0x4EE5 JUMP JUMPDEST SWAP2 POP PUSH2 0x772D DUP3 PUSH2 0x76C8 JUMP JUMPDEST PUSH1 0x40 DUP3 ADD SWAP1 POP SWAP2 SWAP1 POP JUMP JUMPDEST PUSH0 PUSH1 0x20 DUP3 ADD SWAP1 POP DUP2 DUP2 SUB PUSH0 DUP4 ADD MSTORE PUSH2 0x774F DUP2 PUSH2 0x7716 JUMP JUMPDEST SWAP1 POP SWAP2 SWAP1 POP JUMP JUMPDEST PUSH32 0x4552433732313A20617070726F766520746F2063616C6C657200000000000000 PUSH0 DUP3 ADD MSTORE POP JUMP JUMPDEST PUSH0 PUSH2 0x778A PUSH1 0x19 DUP4 PUSH2 0x4EE5 JUMP JUMPDEST SWAP2 POP PUSH2 0x7795 DUP3 PUSH2 0x7756 JUMP JUMPDEST PUSH1 0x20 DUP3 ADD SWAP1 POP SWAP2 SWAP1 POP JUMP JUMPDEST PUSH0 PUSH1 0x20 DUP3 ADD SWAP1 POP DUP2 DUP2 SUB PUSH0 DUP4 ADD MSTORE PUSH2 0x77B7 DUP2 PUSH2 0x777E JUMP JUMPDEST SWAP1 POP SWAP2 SWAP1 POP JUMP JUMPDEST PUSH32 0x4552433732313A207472616E7366657220746F206E6F6E204552433732315265 PUSH0 DUP3 ADD MSTORE PUSH32 0x63656976657220696D706C656D656E7465720000000000000000000000000000 PUSH1 0x20 DUP3 ADD MSTORE POP JUMP JUMPDEST PUSH0 PUSH2 0x7818 PUSH1 0x32 DUP4 PUSH2 0x4EE5 JUMP JUMPDEST SWAP2 POP PUSH2 0x7823 DUP3 PUSH2 0x77BE JUMP JUMPDEST PUSH1 0x40 DUP3 ADD SWAP1 POP SWAP2 SWAP1 POP JUMP JUMPDEST PUSH0 PUSH1 0x20 DUP3 ADD SWAP1 POP DUP2 DUP2 SUB PUSH0 DUP4 ADD MSTORE PUSH2 0x7845 DUP2 PUSH2 0x780C JUMP JUMPDEST SWAP1 POP SWAP2 SWAP1 POP JUMP JUMPDEST PUSH32 0x4E487B7100000000000000000000000000000000000000000000000000000000 PUSH0 MSTORE PUSH1 0x12 PUSH1 0x4 MSTORE PUSH1 0x24 PUSH0 REVERT JUMPDEST PUSH0 PUSH2 0x7883 DUP3 PUSH2 0x4DF7 JUMP JUMPDEST SWAP2 POP PUSH2 0x788E DUP4 PUSH2 0x4DF7 JUMP JUMPDEST SWAP3 POP DUP3 PUSH2 0x789E JUMPI PUSH2 0x789D PUSH2 0x784C JUMP JUMPDEST JUMPDEST DUP3 DUP3 DIV SWAP1 POP SWAP3 SWAP2 POP POP JUMP JUMPDEST PUSH0 PUSH2 0x78B3 DUP3 PUSH2 0x4DF7 JUMP JUMPDEST SWAP2 POP PUSH2 0x78BE DUP4 PUSH2 0x4DF7 JUMP JUMPDEST SWAP3 POP DUP3 PUSH2 0x78CE JUMPI PUSH2 0x78CD PUSH2 0x784C JUMP JUMPDEST JUMPDEST DUP3 DUP3 MOD SWAP1 POP SWAP3 SWAP2 POP POP JUMP JUMPDEST PUSH32 0x416363657373436F6E74726F6C3A206163636F756E7420000000000000000000 PUSH0 DUP3 ADD MSTORE POP JUMP JUMPDEST PUSH0 PUSH2 0x790D PUSH1 0x17 DUP4 PUSH2 0x705D JUMP JUMPDEST SWAP2 POP PUSH2 0x7918 DUP3 PUSH2 0x78D9 JUMP JUMPDEST PUSH1 0x17 DUP3 ADD SWAP1 POP SWAP2 SWAP1 POP JUMP JUMPDEST PUSH32 0x206973206D697373696E6720726F6C6520000000000000000000000000000000 PUSH0 DUP3 ADD MSTORE POP JUMP JUMPDEST PUSH0 PUSH2 0x7957 PUSH1 0x11 DUP4 PUSH2 0x705D JUMP JUMPDEST SWAP2 POP PUSH2 0x7962 DUP3 PUSH2 0x7923 JUMP JUMPDEST PUSH1 0x11 DUP3 ADD SWAP1 POP SWAP2 SWAP1 POP JUMP JUMPDEST PUSH0 PUSH2 0x7977 DUP3 PUSH2 0x7901 JUMP JUMPDEST SWAP2 POP PUSH2 0x7983 DUP3 DUP6 PUSH2 0x7067 JUMP JUMPDEST SWAP2 POP PUSH2 0x798E DUP3 PUSH2 0x794B JUMP JUMPDEST SWAP2 POP PUSH2 0x799A DUP3 DUP5 PUSH2 0x7067 JUMP JUMPDEST SWAP2 POP DUP2 SWAP1 POP SWAP4 SWAP3 POP POP POP JUMP JUMPDEST PUSH32 0x746F6B656E206E6F74207472616E7366657261626C6500000000000000000000 PUSH0 DUP3 ADD MSTORE POP JUMP JUMPDEST PUSH0 PUSH2 0x79DA PUSH1 0x16 DUP4 PUSH2 0x4EE5 JUMP JUMPDEST SWAP2 POP PUSH2 0x79E5 DUP3 PUSH2 0x79A6 JUMP JUMPDEST PUSH1 0x20 DUP3 ADD SWAP1 POP SWAP2 SWAP1 POP JUMP JUMPDEST PUSH0 PUSH1 0x20 DUP3 ADD SWAP1 POP DUP2 DUP2 SUB PUSH0 DUP4 ADD MSTORE PUSH2 0x7A07 DUP2 PUSH2 0x79CE JUMP JUMPDEST SWAP1 POP SWAP2 SWAP1 POP JUMP JUMPDEST PUSH32 0x455243313936373A206E657720696D706C656D656E746174696F6E206973206E PUSH0 DUP3 ADD MSTORE PUSH32 0x6F74206120636F6E747261637400000000000000000000000000000000000000 PUSH1 0x20 DUP3 ADD MSTORE POP JUMP JUMPDEST PUSH0 PUSH2 0x7A68 PUSH1 0x2D DUP4 PUSH2 0x4EE5 JUMP JUMPDEST SWAP2 POP PUSH2 0x7A73 DUP3 PUSH2 0x7A0E JUMP JUMPDEST PUSH1 0x40 DUP3 ADD SWAP1 POP SWAP2 SWAP1 POP JUMP JUMPDEST PUSH0 PUSH1 0x20 DUP3 ADD SWAP1 POP DUP2 DUP2 SUB PUSH0 DUP4 ADD MSTORE PUSH2 0x7A95 DUP2 PUSH2 0x7A5C JUMP JUMPDEST SWAP1 POP SWAP2 SWAP1 POP JUMP JUMPDEST PUSH0 PUSH1 0x80 DUP3 ADD SWAP1 POP PUSH2 0x7AAF PUSH0 DUP4 ADD DUP8 PUSH2 0x4FDA JUMP JUMPDEST PUSH2 0x7ABC PUSH1 0x20 DUP4 ADD DUP7 PUSH2 0x4FDA JUMP JUMPDEST PUSH2 0x7AC9 PUSH1 0x40 DUP4 ADD DUP6 PUSH2 0x4E00 JUMP JUMPDEST DUP2 DUP2 SUB PUSH1 0x60 DUP4 ADD MSTORE PUSH2 0x7ADB DUP2 DUP5 PUSH2 0x5703 JUMP JUMPDEST SWAP1 POP SWAP6 SWAP5 POP POP POP POP POP JUMP JUMPDEST PUSH0 DUP2 MLOAD SWAP1 POP PUSH2 0x7AF4 DUP2 PUSH2 0x4E53 JUMP JUMPDEST SWAP3 SWAP2 POP POP JUMP JUMPDEST PUSH0 PUSH1 0x20 DUP3 DUP5 SUB SLT ISZERO PUSH2 0x7B0F JUMPI PUSH2 0x7B0E PUSH2 0x4D6A JUMP JUMPDEST JUMPDEST PUSH0 PUSH2 0x7B1C DUP5 DUP3 DUP6 ADD PUSH2 0x7AE6 JUMP JUMPDEST SWAP2 POP POP SWAP3 SWAP2 POP POP JUMP JUMPDEST PUSH0 PUSH2 0x7B2F DUP3 PUSH2 0x4DF7 JUMP JUMPDEST SWAP2 POP PUSH2 0x7B3A DUP4 PUSH2 0x4DF7 JUMP JUMPDEST SWAP3 POP DUP3 DUP3 MUL PUSH2 0x7B48 DUP2 PUSH2 0x4DF7 JUMP JUMPDEST SWAP2 POP DUP3 DUP3 DIV DUP5 EQ DUP4 ISZERO OR PUSH2 0x7B5F JUMPI PUSH2 0x7B5E PUSH2 0x5E8B JUMP JUMPDEST JUMPDEST POP SWAP3 SWAP2 POP POP JUMP JUMPDEST PUSH32 0x537472696E67733A20686578206C656E67746820696E73756666696369656E74 PUSH0 DUP3 ADD MSTORE POP JUMP JUMPDEST PUSH0 PUSH2 0x7B9A PUSH1 0x20 DUP4 PUSH2 0x4EE5 JUMP JUMPDEST SWAP2 POP PUSH2 0x7BA5 DUP3 PUSH2 0x7B66 JUMP JUMPDEST PUSH1 0x20 DUP3 ADD SWAP1 POP SWAP2 SWAP1 POP JUMP JUMPDEST PUSH0 PUSH1 0x20 DUP3 ADD SWAP1 POP DUP2 DUP2 SUB PUSH0 DUP4 ADD MSTORE PUSH2 0x7BC7 DUP2 PUSH2 0x7B8E JUMP JUMPDEST SWAP1 POP SWAP2 SWAP1 POP JUMP JUMPDEST PUSH32 0x416464726573733A2064656C65676174652063616C6C20746F206E6F6E2D636F PUSH0 DUP3 ADD MSTORE PUSH32 0x6E74726163740000000000000000000000000000000000000000000000000000 PUSH1 0x20 DUP3 ADD MSTORE POP JUMP JUMPDEST PUSH0 PUSH2 0x7C28 PUSH1 0x26 DUP4 PUSH2 0x4EE5 JUMP JUMPDEST SWAP2 POP PUSH2 0x7C33 DUP3 PUSH2 0x7BCE JUMP JUMPDEST PUSH1 0x40 DUP3 ADD SWAP1 POP SWAP2 SWAP1 POP JUMP JUMPDEST PUSH0 PUSH1 0x20 DUP3 ADD SWAP1 POP DUP2 DUP2 SUB PUSH0 DUP4 ADD MSTORE PUSH2 0x7C55 DUP2 PUSH2 0x7C1C JUMP JUMPDEST SWAP1 POP SWAP2 SWAP1 POP JUMP JUMPDEST PUSH32 0x4E487B7100000000000000000000000000000000000000000000000000000000 PUSH0 MSTORE PUSH1 0x31 PUSH1 0x4 MSTORE PUSH1 0x24 PUSH0 REVERT JUMPDEST PUSH32 0x4552433732313A206D696E7420746F20746865207A65726F2061646472657373 PUSH0 DUP3 ADD MSTORE POP JUMP JUMPDEST PUSH0 PUSH2 0x7CBD PUSH1 0x20 DUP4 PUSH2 0x4EE5 JUMP JUMPDEST SWAP2 POP PUSH2 0x7CC8 DUP3 PUSH2 0x7C89 JUMP JUMPDEST PUSH1 0x20 DUP3 ADD SWAP1 POP SWAP2 SWAP1 POP JUMP JUMPDEST PUSH0 PUSH1 0x20 DUP3 ADD SWAP1 POP DUP2 DUP2 SUB PUSH0 DUP4 ADD MSTORE PUSH2 0x7CEA DUP2 PUSH2 0x7CB1 JUMP JUMPDEST SWAP1 POP SWAP2 SWAP1 POP JUMP JUMPDEST PUSH32 0x4552433732313A20746F6B656E20616C7265616479206D696E74656400000000 PUSH0 DUP3 ADD MSTORE POP JUMP JUMPDEST PUSH0 PUSH2 0x7D25 PUSH1 0x1C DUP4 PUSH2 0x4EE5 JUMP JUMPDEST SWAP2 POP PUSH2 0x7D30 DUP3 PUSH2 0x7CF1 JUMP JUMPDEST PUSH1 0x20 DUP3 ADD SWAP1 POP SWAP2 SWAP1 POP JUMP JUMPDEST PUSH0 PUSH1 0x20 DUP3 ADD SWAP1 POP DUP2 DUP2 SUB PUSH0 DUP4 ADD MSTORE PUSH2 0x7D52 DUP2 PUSH2 0x7D19 JUMP JUMPDEST SWAP1 POP SWAP2 SWAP1 POP JUMP INVALID COINBASE PUSH5 0x6472657373 GASPRICE KECCAK256 PUSH13 0x6F772D6C6576656C2064656C65 PUSH8 0x6174652063616C6C KECCAK256 PUSH7 0x61696C6564A264 PUSH10 0x70667358221220FD4FA9 PUSH10 0x32B5456BBDA0788CEADE 0xEF 0xE6 0xDF SIGNEXTEND SIGNEXTEND 0xE6 0xB2 ADDRESS CALLVALUE PUSH32 0xD930C6B5EA8DA1AB64736F6C6343000818003300000000000000000000000000 "
		},
		"gasEstimates": {
			"creation": {
				"codeDepositCost": "6436400",
				"executionCost": "infinite",
				"totalCost": "infinite"
			},
			"external": {
				"DEFAULT_ADMIN_ROLE()": "420",
				"addTrainer(address)": "infinite",
				"addType(string)": "infinite",
				"allowedMinting(address)": "2849",
				"approve(address,uint256)": "infinite",
				"assignHash(uint256,bytes)": "infinite",
				"balanceOf(address)": "2932",
				"baseURI()": "infinite",
				"burn(uint256)": "infinite",
				"contributorHash()": "infinite",
				"getApproved(uint256)": "5285",
				"getRoleAdmin(bytes32)": "infinite",
				"grantRemixersMinting(address[],uint256)": "infinite",
				"grantRole(bytes32,address)": "infinite",
				"hasRole(bytes32,address)": "3233",
				"initialize()": "infinite",
				"isApprovedForAll(address,address)": "infinite",
				"name()": "infinite",
				"nullifiers(bytes)": "infinite",
				"ownerOf(uint256)": "3053",
				"proxiableUUID()": "infinite",
				"publicMint(address)": "infinite",
				"publishChallenge((uint256[2],uint256[2][2],uint256[2]),uint256[3])": "infinite",
				"publishers(bytes)": "infinite",
				"publishersAmount()": "2559",
				"removeTrainer(address)": "infinite",
				"removeType(string)": "infinite",
				"renounceRole(bytes32,address)": "infinite",
				"revokeRole(bytes32,address)": "infinite",
				"safeMint(address,string,string,bytes,uint256)": "infinite",
				"safeTransferFrom(address,address,uint256)": "infinite",
				"safeTransferFrom(address,address,uint256,bytes)": "infinite",
				"setApprovalForAll(address,bool)": "infinite",
				"setBaseURI(string)": "infinite",
				"setChallenge(address,uint256[1],uint256,string,string,bytes)": "infinite",
				"setContributorHash(bytes)": "infinite",
				"supportsInterface(bytes4)": "1050",
				"symbol()": "infinite",
				"tokenByIndex(uint256)": "infinite",
				"tokenOfOwnerByIndex(address,uint256)": "infinite",
				"tokenURI(uint256)": "infinite",
				"tokensData(uint256)": "infinite",
				"totalSupply()": "2509",
				"trainers(address)": "2936",
				"transferFrom(address,address,uint256)": "infinite",
				"upgradeTo(address)": "infinite",
				"upgradeToAndCall(address,bytes)": "infinite",
				"version()": "infinite",
				"zkChallenge(uint256)": "infinite",
				"zkChallengeHash()": "infinite",
				"zkChallengeNonce()": "2515",
				"zkChallengePayload()": "infinite",
				"zkChallengeTokenType()": "infinite",
				"zkMax()": "2493",
				"zkVerifier()": "2619"
			},
			"internal": {
				"_authorizeUpgrade(address)": "infinite",
				"_baseURI()": "infinite",
				"_beforeTokenTransfer(address,address,uint256)": "infinite",
				"mintBadge(address,string memory,string memory,bytes memory,uint256)": "infinite",
				"mintRemixer(address)": "infinite"
			}
		},
		"methodIdentifiers": {
			"DEFAULT_ADMIN_ROLE()": "a217fddf",
			"addTrainer(address)": "5117a840",
			"addType(string)": "e7f08e69",
			"allowedMinting(address)": "005c154e",
			"approve(address,uint256)": "095ea7b3",
			"assignHash(uint256,bytes)": "c0cecb9a",
			"balanceOf(address)": "70a08231",
			"baseURI()": "6c0360eb",
			"burn(uint256)": "42966c68",
			"contributorHash()": "6344cd20",
			"getApproved(uint256)": "081812fc",
			"getRoleAdmin(bytes32)": "248a9ca3",
			"grantRemixersMinting(address[],uint256)": "1693d2eb",
			"grantRole(bytes32,address)": "2f2ff15d",
			"hasRole(bytes32,address)": "91d14854",
			"initialize()": "8129fc1c",
			"isApprovedForAll(address,address)": "e985e9c5",
			"name()": "06fdde03",
			"nullifiers(bytes)": "1823e26a",
			"ownerOf(uint256)": "6352211e",
			"proxiableUUID()": "52d1902d",
			"publicMint(address)": "32a93a3a",
			"publishChallenge((uint256[2],uint256[2][2],uint256[2]),uint256[3])": "865d79b3",
			"publishers(bytes)": "b63cb3b9",
			"publishersAmount()": "42778642",
			"removeTrainer(address)": "8a145777",
			"removeType(string)": "e15e2fd4",
			"renounceRole(bytes32,address)": "36568abe",
			"revokeRole(bytes32,address)": "d547741f",
			"safeMint(address,string,string,bytes,uint256)": "35b1a7ea",
			"safeTransferFrom(address,address,uint256)": "42842e0e",
			"safeTransferFrom(address,address,uint256,bytes)": "b88d4fde",
			"setApprovalForAll(address,bool)": "a22cb465",
			"setBaseURI(string)": "55f804b3",
			"setChallenge(address,uint256[1],uint256,string,string,bytes)": "2bd07d5f",
			"setContributorHash(bytes)": "1aa2c2f8",
			"supportsInterface(bytes4)": "01ffc9a7",
			"symbol()": "95d89b41",
			"tokenByIndex(uint256)": "4f6ccce7",
			"tokenOfOwnerByIndex(address,uint256)": "2f745c59",
			"tokenURI(uint256)": "c87b56dd",
			"tokensData(uint256)": "599ed3ff",
			"totalSupply()": "18160ddd",
			"trainers(address)": "2cd92f97",
			"transferFrom(address,address,uint256)": "23b872dd",
			"upgradeTo(address)": "3659cfe6",
			"upgradeToAndCall(address,bytes)": "4f1ef286",
			"version()": "54fd4d50",
			"zkChallenge(uint256)": "d674cc2b",
			"zkChallengeHash()": "43d3cf61",
			"zkChallengeNonce()": "7909eb73",
			"zkChallengePayload()": "f1fe6911",
			"zkChallengeTokenType()": "9cbff422",
			"zkMax()": "5a8afbfc",
			"zkVerifier()": "d6df096d"
		}
	},
	"abi": [
		{
			"inputs": [],
			"stateMutability": "nonpayable",
			"type": "constructor"
		},
		{
			"anonymous": false,
			"inputs": [
				{
					"indexed": false,
					"internalType": "address",
					"name": "previousAdmin",
					"type": "address"
				},
				{
					"indexed": false,
					"internalType": "address",
					"name": "newAdmin",
					"type": "address"
				}
			],
			"name": "AdminChanged",
			"type": "event"
		},
		{
			"anonymous": false,
			"inputs": [
				{
					"indexed": true,
					"internalType": "address",
					"name": "owner",
					"type": "address"
				},
				{
					"indexed": true,
					"internalType": "address",
					"name": "approved",
					"type": "address"
				},
				{
					"indexed": true,
					"internalType": "uint256",
					"name": "tokenId",
					"type": "uint256"
				}
			],
			"name": "Approval",
			"type": "event"
		},
		{
			"anonymous": false,
			"inputs": [
				{
					"indexed": true,
					"internalType": "address",
					"name": "owner",
					"type": "address"
				},
				{
					"indexed": true,
					"internalType": "address",
					"name": "operator",
					"type": "address"
				},
				{
					"indexed": false,
					"internalType": "bool",
					"name": "approved",
					"type": "bool"
				}
			],
			"name": "ApprovalForAll",
			"type": "event"
		},
		{
			"anonymous": false,
			"inputs": [
				{
					"indexed": true,
					"internalType": "address",
					"name": "beacon",
					"type": "address"
				}
			],
			"name": "BeaconUpgraded",
			"type": "event"
		},
		{
			"anonymous": false,
			"inputs": [
				{
					"indexed": false,
					"internalType": "uint8",
					"name": "version",
					"type": "uint8"
				}
			],
			"name": "Initialized",
			"type": "event"
		},
		{
			"anonymous": false,
			"inputs": [
				{
					"indexed": true,
					"internalType": "bytes32",
					"name": "role",
					"type": "bytes32"
				},
				{
					"indexed": true,
					"internalType": "bytes32",
					"name": "previousAdminRole",
					"type": "bytes32"
				},
				{
					"indexed": true,
					"internalType": "bytes32",
					"name": "newAdminRole",
					"type": "bytes32"
				}
			],
			"name": "RoleAdminChanged",
			"type": "event"
		},
		{
			"anonymous": false,
			"inputs": [
				{
					"indexed": true,
					"internalType": "bytes32",
					"name": "role",
					"type": "bytes32"
				},
				{
					"indexed": true,
					"internalType": "address",
					"name": "account",
					"type": "address"
				},
				{
					"indexed": true,
					"internalType": "address",
					"name": "sender",
					"type": "address"
				}
			],
			"name": "RoleGranted",
			"type": "event"
		},
		{
			"anonymous": false,
			"inputs": [
				{
					"indexed": true,
					"internalType": "bytes32",
					"name": "role",
					"type": "bytes32"
				},
				{
					"indexed": true,
					"internalType": "address",
					"name": "account",
					"type": "address"
				},
				{
					"indexed": true,
					"internalType": "address",
					"name": "sender",
					"type": "address"
				}
			],
			"name": "RoleRevoked",
			"type": "event"
		},
		{
			"anonymous": false,
			"inputs": [
				{
					"indexed": true,
					"internalType": "address",
					"name": "from",
					"type": "address"
				},
				{
					"indexed": true,
					"internalType": "address",
					"name": "to",
					"type": "address"
				},
				{
					"indexed": true,
					"internalType": "uint256",
					"name": "tokenId",
					"type": "uint256"
				}
			],
			"name": "Transfer",
			"type": "event"
		},
		{
			"anonymous": false,
			"inputs": [
				{
					"indexed": true,
					"internalType": "address",
					"name": "implementation",
					"type": "address"
				}
			],
			"name": "Upgraded",
			"type": "event"
		},
		{
			"inputs": [],
			"name": "DEFAULT_ADMIN_ROLE",
			"outputs": [
				{
					"internalType": "bytes32",
					"name": "",
					"type": "bytes32"
				}
			],
			"stateMutability": "view",
			"type": "function"
		},
		{
			"inputs": [
				{
					"internalType": "address",
					"name": "trainer",
					"type": "address"
				}
			],
			"name": "addTrainer",
			"outputs": [],
			"stateMutability": "nonpayable",
			"type": "function"
		},
		{
			"inputs": [
				{
					"internalType": "string",
					"name": "tokenType",
					"type": "string"
				}
			],
			"name": "addType",
			"outputs": [],
			"stateMutability": "nonpayable",
			"type": "function"
		},
		{
			"inputs": [
				{
					"internalType": "address",
					"name": "",
					"type": "address"
				}
			],
			"name": "allowedMinting",
			"outputs": [
				{
					"internalType": "uint256",
					"name": "",
					"type": "uint256"
				}
			],
			"stateMutability": "view",
			"type": "function"
		},
		{
			"inputs": [
				{
					"internalType": "address",
					"name": "to",
					"type": "address"
				},
				{
					"internalType": "uint256",
					"name": "tokenId",
					"type": "uint256"
				}
			],
			"name": "approve",
			"outputs": [],
			"stateMutability": "nonpayable",
			"type": "function"
		},
		{
			"inputs": [
				{
					"internalType": "uint256",
					"name": "tokenId",
					"type": "uint256"
				},
				{
					"internalType": "bytes",
					"name": "hash",
					"type": "bytes"
				}
			],
			"name": "assignHash",
			"outputs": [],
			"stateMutability": "nonpayable",
			"type": "function"
		},
		{
			"inputs": [
				{
					"internalType": "address",
					"name": "owner",
					"type": "address"
				}
			],
			"name": "balanceOf",
			"outputs": [
				{
					"internalType": "uint256",
					"name": "",
					"type": "uint256"
				}
			],
			"stateMutability": "view",
			"type": "function"
		},
		{
			"inputs": [],
			"name": "baseURI",
			"outputs": [
				{
					"internalType": "string",
					"name": "",
					"type": "string"
				}
			],
			"stateMutability": "view",
			"type": "function"
		},
		{
			"inputs": [
				{
					"internalType": "uint256",
					"name": "tokenId",
					"type": "uint256"
				}
			],
			"name": "burn",
			"outputs": [],
			"stateMutability": "nonpayable",
			"type": "function"
		},
		{
			"inputs": [],
			"name": "contributorHash",
			"outputs": [
				{
					"internalType": "bytes",
					"name": "",
					"type": "bytes"
				}
			],
			"stateMutability": "view",
			"type": "function"
		},
		{
			"inputs": [
				{
					"internalType": "uint256",
					"name": "tokenId",
					"type": "uint256"
				}
			],
			"name": "getApproved",
			"outputs": [
				{
					"internalType": "address",
					"name": "",
					"type": "address"
				}
			],
			"stateMutability": "view",
			"type": "function"
		},
		{
			"inputs": [
				{
					"internalType": "bytes32",
					"name": "role",
					"type": "bytes32"
				}
			],
			"name": "getRoleAdmin",
			"outputs": [
				{
					"internalType": "bytes32",
					"name": "",
					"type": "bytes32"
				}
			],
			"stateMutability": "view",
			"type": "function"
		},
		{
			"inputs": [
				{
					"internalType": "address[]",
					"name": "remixers",
					"type": "address[]"
				},
				{
					"internalType": "uint256",
					"name": "amount",
					"type": "uint256"
				}
			],
			"name": "grantRemixersMinting",
			"outputs": [],
			"stateMutability": "nonpayable",
			"type": "function"
		},
		{
			"inputs": [
				{
					"internalType": "bytes32",
					"name": "role",
					"type": "bytes32"
				},
				{
					"internalType": "address",
					"name": "account",
					"type": "address"
				}
			],
			"name": "grantRole",
			"outputs": [],
			"stateMutability": "nonpayable",
			"type": "function"
		},
		{
			"inputs": [
				{
					"internalType": "bytes32",
					"name": "role",
					"type": "bytes32"
				},
				{
					"internalType": "address",
					"name": "account",
					"type": "address"
				}
			],
			"name": "hasRole",
			"outputs": [
				{
					"internalType": "bool",
					"name": "",
					"type": "bool"
				}
			],
			"stateMutability": "view",
			"type": "function"
		},
		{
			"inputs": [],
			"name": "initialize",
			"outputs": [],
			"stateMutability": "nonpayable",
			"type": "function"
		},
		{
			"inputs": [
				{
					"internalType": "address",
					"name": "owner",
					"type": "address"
				},
				{
					"internalType": "address",
					"name": "operator",
					"type": "address"
				}
			],
			"name": "isApprovedForAll",
			"outputs": [
				{
					"internalType": "bool",
					"name": "",
					"type": "bool"
				}
			],
			"stateMutability": "view",
			"type": "function"
		},
		{
			"inputs": [],
			"name": "name",
			"outputs": [
				{
					"internalType": "string",
					"name": "",
					"type": "string"
				}
			],
			"stateMutability": "view",
			"type": "function"
		},
		{
			"inputs": [
				{
					"internalType": "bytes",
					"name": "",
					"type": "bytes"
				}
			],
			"name": "nullifiers",
			"outputs": [
				{
					"internalType": "uint256",
					"name": "",
					"type": "uint256"
				}
			],
			"stateMutability": "view",
			"type": "function"
		},
		{
			"inputs": [
				{
					"internalType": "uint256",
					"name": "tokenId",
					"type": "uint256"
				}
			],
			"name": "ownerOf",
			"outputs": [
				{
					"internalType": "address",
					"name": "",
					"type": "address"
				}
			],
			"stateMutability": "view",
			"type": "function"
		},
		{
			"inputs": [],
			"name": "proxiableUUID",
			"outputs": [
				{
					"internalType": "bytes32",
					"name": "",
					"type": "bytes32"
				}
			],
			"stateMutability": "view",
			"type": "function"
		},
		{
			"inputs": [
				{
					"internalType": "address",
					"name": "to",
					"type": "address"
				}
			],
			"name": "publicMint",
			"outputs": [],
			"stateMutability": "nonpayable",
			"type": "function"
		},
		{
			"inputs": [
				{
					"components": [
						{
							"internalType": "uint256[2]",
							"name": "a",
							"type": "uint256[2]"
						},
						{
							"internalType": "uint256[2][2]",
							"name": "b",
							"type": "uint256[2][2]"
						},
						{
							"internalType": "uint256[2]",
							"name": "c",
							"type": "uint256[2]"
						}
					],
					"internalType": "struct ZKVerifier.Proof",
					"name": "proof",
					"type": "tuple"
				},
				{
					"internalType": "uint256[3]",
					"name": "input",
					"type": "uint256[3]"
				}
			],
			"name": "publishChallenge",
			"outputs": [],
			"stateMutability": "nonpayable",
			"type": "function"
		},
		{
			"inputs": [
				{
					"internalType": "bytes",
					"name": "",
					"type": "bytes"
				}
			],
			"name": "publishers",
			"outputs": [
				{
					"internalType": "uint256",
					"name": "",
					"type": "uint256"
				}
			],
			"stateMutability": "view",
			"type": "function"
		},
		{
			"inputs": [],
			"name": "publishersAmount",
			"outputs": [
				{
					"internalType": "uint256",
					"name": "",
					"type": "uint256"
				}
			],
			"stateMutability": "view",
			"type": "function"
		},
		{
			"inputs": [
				{
					"internalType": "address",
					"name": "trainer",
					"type": "address"
				}
			],
			"name": "removeTrainer",
			"outputs": [],
			"stateMutability": "nonpayable",
			"type": "function"
		},
		{
			"inputs": [
				{
					"internalType": "string",
					"name": "tokenType",
					"type": "string"
				}
			],
			"name": "removeType",
			"outputs": [],
			"stateMutability": "nonpayable",
			"type": "function"
		},
		{
			"inputs": [
				{
					"internalType": "bytes32",
					"name": "role",
					"type": "bytes32"
				},
				{
					"internalType": "address",
					"name": "account",
					"type": "address"
				}
			],
			"name": "renounceRole",
			"outputs": [],
			"stateMutability": "nonpayable",
			"type": "function"
		},
		{
			"inputs": [
				{
					"internalType": "bytes32",
					"name": "role",
					"type": "bytes32"
				},
				{
					"internalType": "address",
					"name": "account",
					"type": "address"
				}
			],
			"name": "revokeRole",
			"outputs": [],
			"stateMutability": "nonpayable",
			"type": "function"
		},
		{
			"inputs": [
				{
					"internalType": "address",
					"name": "to",
					"type": "address"
				},
				{
					"internalType": "string",
					"name": "tokenType",
					"type": "string"
				},
				{
					"internalType": "string",
					"name": "payload",
					"type": "string"
				},
				{
					"internalType": "bytes",
					"name": "hash",
					"type": "bytes"
				},
				{
					"internalType": "uint256",
					"name": "mintGrant",
					"type": "uint256"
				}
			],
			"name": "safeMint",
			"outputs": [],
			"stateMutability": "nonpayable",
			"type": "function"
		},
		{
			"inputs": [
				{
					"internalType": "address",
					"name": "from",
					"type": "address"
				},
				{
					"internalType": "address",
					"name": "to",
					"type": "address"
				},
				{
					"internalType": "uint256",
					"name": "tokenId",
					"type": "uint256"
				}
			],
			"name": "safeTransferFrom",
			"outputs": [],
			"stateMutability": "nonpayable",
			"type": "function"
		},
		{
			"inputs": [
				{
					"internalType": "address",
					"name": "from",
					"type": "address"
				},
				{
					"internalType": "address",
					"name": "to",
					"type": "address"
				},
				{
					"internalType": "uint256",
					"name": "tokenId",
					"type": "uint256"
				},
				{
					"internalType": "bytes",
					"name": "data",
					"type": "bytes"
				}
			],
			"name": "safeTransferFrom",
			"outputs": [],
			"stateMutability": "nonpayable",
			"type": "function"
		},
		{
			"inputs": [
				{
					"internalType": "address",
					"name": "operator",
					"type": "address"
				},
				{
					"internalType": "bool",
					"name": "approved",
					"type": "bool"
				}
			],
			"name": "setApprovalForAll",
			"outputs": [],
			"stateMutability": "nonpayable",
			"type": "function"
		},
		{
			"inputs": [
				{
					"internalType": "string",
					"name": "_uri",
					"type": "string"
				}
			],
			"name": "setBaseURI",
			"outputs": [],
			"stateMutability": "nonpayable",
			"type": "function"
		},
		{
			"inputs": [
				{
					"internalType": "address",
					"name": "verifier",
					"type": "address"
				},
				{
					"internalType": "uint256[1]",
					"name": "challenge",
					"type": "uint256[1]"
				},
				{
					"internalType": "uint256",
					"name": "max",
					"type": "uint256"
				},
				{
					"internalType": "string",
					"name": "tokenType",
					"type": "string"
				},
				{
					"internalType": "string",
					"name": "payload",
					"type": "string"
				},
				{
					"internalType": "bytes",
					"name": "hash",
					"type": "bytes"
				}
			],
			"name": "setChallenge",
			"outputs": [],
			"stateMutability": "nonpayable",
			"type": "function"
		},
		{
			"inputs": [
				{
					"internalType": "bytes",
					"name": "hash",
					"type": "bytes"
				}
			],
			"name": "setContributorHash",
			"outputs": [],
			"stateMutability": "nonpayable",
			"type": "function"
		},
		{
			"inputs": [
				{
					"internalType": "bytes4",
					"name": "interfaceId",
					"type": "bytes4"
				}
			],
			"name": "supportsInterface",
			"outputs": [
				{
					"internalType": "bool",
					"name": "",
					"type": "bool"
				}
			],
			"stateMutability": "view",
			"type": "function"
		},
		{
			"inputs": [],
			"name": "symbol",
			"outputs": [
				{
					"internalType": "string",
					"name": "",
					"type": "string"
				}
			],
			"stateMutability": "view",
			"type": "function"
		},
		{
			"inputs": [
				{
					"internalType": "uint256",
					"name": "index",
					"type": "uint256"
				}
			],
			"name": "tokenByIndex",
			"outputs": [
				{
					"internalType": "uint256",
					"name": "",
					"type": "uint256"
				}
			],
			"stateMutability": "view",
			"type": "function"
		},
		{
			"inputs": [
				{
					"internalType": "address",
					"name": "owner",
					"type": "address"
				},
				{
					"internalType": "uint256",
					"name": "index",
					"type": "uint256"
				}
			],
			"name": "tokenOfOwnerByIndex",
			"outputs": [
				{
					"internalType": "uint256",
					"name": "",
					"type": "uint256"
				}
			],
			"stateMutability": "view",
			"type": "function"
		},
		{
			"inputs": [
				{
					"internalType": "uint256",
					"name": "tokenId",
					"type": "uint256"
				}
			],
			"name": "tokenURI",
			"outputs": [
				{
					"internalType": "string",
					"name": "",
					"type": "string"
				}
			],
			"stateMutability": "view",
			"type": "function"
		},
		{
			"inputs": [
				{
					"internalType": "uint256",
					"name": "",
					"type": "uint256"
				}
			],
			"name": "tokensData",
			"outputs": [
				{
					"internalType": "string",
					"name": "payload",
					"type": "string"
				},
				{
					"internalType": "string",
					"name": "tokenType",
					"type": "string"
				},
				{
					"internalType": "bytes",
					"name": "hash",
					"type": "bytes"
				}
			],
			"stateMutability": "view",
			"type": "function"
		},
		{
			"inputs": [],
			"name": "totalSupply",
			"outputs": [
				{
					"internalType": "uint256",
					"name": "",
					"type": "uint256"
				}
			],
			"stateMutability": "view",
			"type": "function"
		},
		{
			"inputs": [
				{
					"internalType": "address",
					"name": "",
					"type": "address"
				}
			],
			"name": "trainers",
			"outputs": [
				{
					"internalType": "uint256",
					"name": "",
					"type": "uint256"
				}
			],
			"stateMutability": "view",
			"type": "function"
		},
		{
			"inputs": [
				{
					"internalType": "address",
					"name": "from",
					"type": "address"
				},
				{
					"internalType": "address",
					"name": "to",
					"type": "address"
				},
				{
					"internalType": "uint256",
					"name": "tokenId",
					"type": "uint256"
				}
			],
			"name": "transferFrom",
			"outputs": [],
			"stateMutability": "nonpayable",
			"type": "function"
		},
		{
			"inputs": [
				{
					"internalType": "address",
					"name": "newImplementation",
					"type": "address"
				}
			],
			"name": "upgradeTo",
			"outputs": [],
			"stateMutability": "nonpayable",
			"type": "function"
		},
		{
			"inputs": [
				{
					"internalType": "address",
					"name": "newImplementation",
					"type": "address"
				},
				{
					"internalType": "bytes",
					"name": "data",
					"type": "bytes"
				}
			],
			"name": "upgradeToAndCall",
			"outputs": [],
			"stateMutability": "payable",
			"type": "function"
		},
		{
			"inputs": [],
			"name": "version",
			"outputs": [
				{
					"internalType": "string",
					"name": "",
					"type": "string"
				}
			],
			"stateMutability": "pure",
			"type": "function"
		},
		{
			"inputs": [
				{
					"internalType": "uint256",
					"name": "",
					"type": "uint256"
				}
			],
			"name": "zkChallenge",
			"outputs": [
				{
					"internalType": "uint256",
					"name": "",
					"type": "uint256"
				}
			],
			"stateMutability": "view",
			"type": "function"
		},
		{
			"inputs": [],
			"name": "zkChallengeHash",
			"outputs": [
				{
					"internalType": "bytes",
					"name": "",
					"type": "bytes"
				}
			],
			"stateMutability": "view",
			"type": "function"
		},
		{
			"inputs": [],
			"name": "zkChallengeNonce",
			"outputs": [
				{
					"internalType": "uint256",
					"name": "",
					"type": "uint256"
				}
			],
			"stateMutability": "view",
			"type": "function"
		},
		{
			"inputs": [],
			"name": "zkChallengePayload",
			"outputs": [
				{
					"internalType": "string",
					"name": "",
					"type": "string"
				}
			],
			"stateMutability": "view",
			"type": "function"
		},
		{
			"inputs": [],
			"name": "zkChallengeTokenType",
			"outputs": [
				{
					"internalType": "string",
					"name": "",
					"type": "string"
				}
			],
			"stateMutability": "view",
			"type": "function"
		},
		{
			"inputs": [],
			"name": "zkMax",
			"outputs": [
				{
					"internalType": "uint256",
					"name": "",
					"type": "uint256"
				}
			],
			"stateMutability": "view",
			"type": "function"
		},
		{
			"inputs": [],
			"name": "zkVerifier",
			"outputs": [
				{
					"internalType": "address",
					"name": "",
					"type": "address"
				}
			],
			"stateMutability": "view",
			"type": "function"
		}
	]
}