{
	"data": {
		"bytecode": {
			"linkReferences": {},
			"object": "60a06040523060805234801561001457600080fd5b5060805161458161004c60003960008181610f6d01528181610fad015281816111210152818161116101526112ad01526145816000f3fe60806040526004361061034f5760003560e01c806355f804b3116101c6578063a217fddf116100f7578063d674cc2b11610095578063e7f08e691161006f578063e7f08e69146109e4578063e985e9c514610a04578063f1fe691114610a4d578063ff990ffd14610a6257600080fd5b8063d674cc2b14610983578063d6df096d146109a3578063e15e2fd4146109c457600080fd5b8063b88d4fde116100d1578063b88d4fde14610903578063c0cecb9a14610923578063c87b56dd14610943578063d547741f1461096357600080fd5b8063a217fddf14610895578063a22cb465146108aa578063b63cb3b9146108ca57600080fd5b80637909eb73116101645780638a1457771161013e5780638a1457771461082b57806391d148541461084b57806395d89b411461086b5780639cbff4221461088057600080fd5b80637909eb73146107df5780637ffe8f25146107f65780638129fc1c1461081657600080fd5b80636344cd20116101a05780636344cd20146107755780636352211e1461078a5780636c0360eb146107aa57806370a08231146107bf57600080fd5b806355f804b31461070f578063599ed3ff1461072f5780635a8afbfc1461075e57600080fd5b80632f745c59116102a057806342966c681161023e5780634f6ccce7116102185780634f6ccce71461068c5780635117a840146106ac57806352d1902d146106cc57806354fd4d50146106e157600080fd5b806342966c681461064457806343d3cf61146106645780634f1ef2861461067957600080fd5b806336568abe1161027a57806336568abe146105cd5780633659cfe6146105ed578063427786421461060d57806342842e0e1461062457600080fd5b80632f745c591461056d57806332a93a3a1461058d57806335b1a7ea146105ad57600080fd5b806318160ddd1161030d57806323b872dd116102e757806323b872dd146104cf578063248a9ca3146104ef5780632cd92f971461051f5780632f2ff15d1461054d57600080fd5b806318160ddd146104615780631823e26a146104765780631aa2c2f8146104af57600080fd5b80625c154e1461035457806301ffc9a71461039557806306fdde03146103c5578063081812fc146103e7578063095ea7b31461041f5780631693d2eb14610441575b600080fd5b34801561036057600080fd5b5061038261036f3660046135b2565b6101946020526000908152604090205481565b6040519081526020015b60405180910390f35b3480156103a157600080fd5b506103b56103b03660046135e3565b610a82565b604051901515815260200161038c565b3480156103d157600080fd5b506103da610a93565b60405161038c9190613650565b3480156103f357600080fd5b50610407610402366004613663565b610b25565b6040516001600160a01b03909116815260200161038c565b34801561042b57600080fd5b5061043f61043a36600461367c565b610b4c565b005b34801561044d57600080fd5b5061043f61045c3660046136a6565b610c66565b34801561046d57600080fd5b50609954610382565b34801561048257600080fd5b5061038261049136600461380c565b805160208183018101805161019d8252928201919093012091525481565b3480156104bb57600080fd5b5061043f6104ca366004613888565b610d40565b3480156104db57600080fd5b5061043f6104ea3660046138c9565b610d59565b3480156104fb57600080fd5b5061038261050a366004613663565b600090815260fb602052604090206001015490565b34801561052b57600080fd5b5061038261053a3660046135b2565b6101a26020526000908152604090205481565b34801561055957600080fd5b5061043f610568366004613905565b610d8b565b34801561057957600080fd5b5061038261058836600461367c565b610db0565b34801561059957600080fd5b5061043f6105a83660046135b2565b610e46565b3480156105b957600080fd5b5061043f6105c8366004613931565b610ec5565b3480156105d957600080fd5b5061043f6105e8366004613905565b610ee5565b3480156105f957600080fd5b5061043f6106083660046135b2565b610f63565b34801561061957600080fd5b5061038261019c5481565b34801561063057600080fd5b5061043f61063f3660046138c9565b61103f565b34801561065057600080fd5b5061043f61065f366004613663565b61105a565b34801561067057600080fd5b506103da611088565b61043f6106873660046139d1565b611117565b34801561069857600080fd5b506103826106a7366004613663565b6111e3565b3480156106b857600080fd5b5061043f6106c73660046135b2565b611276565b3480156106d857600080fd5b506103826112a0565b3480156106ed57600080fd5b506040805180820190915260058152640322e342e360dc1b60208201526103da565b34801561071b57600080fd5b5061043f61072a366004613888565b611353565b34801561073b57600080fd5b5061074f61074a366004613663565b61136c565b60405161038c93929190613a1e565b34801561076a57600080fd5b5061038261019b5481565b34801561078157600080fd5b506103da611527565b34801561079657600080fd5b506104076107a5366004613663565b611535565b3480156107b657600080fd5b506103da611595565b3480156107cb57600080fd5b506103826107da3660046135b2565b6115a3565b3480156107eb57600080fd5b5061038261019a5481565b34801561080257600080fd5b5061043f610811366004613a61565b611629565b34801561082257600080fd5b5061043f6116c4565b34801561083757600080fd5b5061043f6108463660046135b2565b611837565b34801561085757600080fd5b506103b5610866366004613905565b61185e565b34801561087757600080fd5b506103da611889565b34801561088c57600080fd5b506103da611898565b3480156108a157600080fd5b50610382600081565b3480156108b657600080fd5b5061043f6108c5366004613b3a565b6118a6565b3480156108d657600080fd5b506103826108e536600461380c565b805160208183018101805161019e8252928201919093012091525481565b34801561090f57600080fd5b5061043f61091e366004613b71565b6118b1565b34801561092f57600080fd5b5061043f61093e366004613bd8565b6118e3565b34801561094f57600080fd5b506103da61095e366004613663565b61197a565b34801561096f57600080fd5b5061043f61097e366004613905565b6119e1565b34801561098f57600080fd5b5061038261099e366004613663565b611a06565b3480156109af57600080fd5b5061019754610407906001600160a01b031681565b3480156109d057600080fd5b5061043f6109df366004613888565b611a1e565b3480156109f057600080fd5b5061043f6109ff366004613888565b611a58565b348015610a1057600080fd5b506103b5610a1f366004613c23565b6001600160a01b039182166000908152606a6020908152604080832093909416825291909152205460ff1690565b348015610a5957600080fd5b506103da611a9d565b348015610a6e57600080fd5b5061043f610a7d366004613d0e565b611aab565b6000610a8d826120c0565b92915050565b606060658054610aa290613dc5565b80601f0160208091040260200160405190810160405280929190818152602001828054610ace90613dc5565b8015610b1b5780601f10610af057610100808354040283529160200191610b1b565b820191906000526020600020905b815481529060010190602001808311610afe57829003601f168201915b5050505050905090565b6000610b30826120e5565b506000908152606960205260409020546001600160a01b031690565b6000610b5782611535565b9050806001600160a01b0316836001600160a01b031603610bc95760405162461bcd60e51b815260206004820152602160248201527f4552433732313a20617070726f76616c20746f2063757272656e74206f776e656044820152603960f91b60648201526084015b60405180910390fd5b336001600160a01b0382161480610be55750610be58133610a1f565b610c575760405162461bcd60e51b815260206004820152603e60248201527f4552433732313a20617070726f76652063616c6c6572206973206e6f7420746f60448201527f6b656e206f776e6572206e6f7220617070726f76656420666f7220616c6c00006064820152608401610bc0565b610c618383612144565b505050565b3360009081526101a26020526040902054600114610cc65760405162461bcd60e51b815260206004820152601760248201527f43616c6c6572206973206e6f74206120747261696e65720000000000000000006044820152606401610bc0565b60005b82811015610d3a57816101946000868685818110610ce957610ce9613dff565b9050602002016020810190610cfe91906135b2565b6001600160a01b03166001600160a01b031681526020019081526020016000206000828254610d2d9190613e2b565b9091555050600101610cc9565b50505050565b6000610d4b816121b2565b610195610d3a838583613e9b565b610d64335b826121bc565b610d805760405162461bcd60e51b8152600401610bc090613f54565b610c6183838361223b565b600082815260fb6020526040902060010154610da6816121b2565b610c6183836123e2565b6000610dbb836115a3565b8210610e1d5760405162461bcd60e51b815260206004820152602b60248201527f455243373231456e756d657261626c653a206f776e657220696e646578206f7560448201526a74206f6620626f756e647360a81b6064820152608401610bc0565b506001600160a01b03919091166000908152609760209081526040808320938352929052205490565b3360009081526101946020526040902054610e985760405162461bcd60e51b81526020600482015260126024820152711b9bc81b5a5b9d1a5b99c8185b1b1bddd95960721b6044820152606401610bc0565b33600090815261019460205260408120805491610eb483613fa2565b9190505550610ec281612468565b50565b6000610ed0816121b2565b610edd86868686866124f1565b505050505050565b6001600160a01b0381163314610f555760405162461bcd60e51b815260206004820152602f60248201527f416363657373436f6e74726f6c3a2063616e206f6e6c792072656e6f756e636560448201526e103937b632b9903337b91039b2b63360891b6064820152608401610bc0565b610f5f8282612629565b5050565b6001600160a01b037f0000000000000000000000000000000000000000000000000000000000000000163003610fab5760405162461bcd60e51b8152600401610bc090613fb9565b7f00000000000000000000000000000000000000000000000000000000000000006001600160a01b0316610ff4600080516020614505833981519152546001600160a01b031690565b6001600160a01b03161461101a5760405162461bcd60e51b8152600401610bc090614005565b61102381612690565b60408051600080825260208201909252610ec29183919061269b565b610c61838383604051806020016040528060008152506118b1565b61106333610d5e565b61107f5760405162461bcd60e51b8152600401610bc090613f54565b610ec281612806565b6101a1805461109690613dc5565b80601f01602080910402602001604051908101604052809291908181526020018280546110c290613dc5565b801561110f5780601f106110e45761010080835404028352916020019161110f565b820191906000526020600020905b8154815290600101906020018083116110f257829003601f168201915b505050505081565b6001600160a01b037f000000000000000000000000000000000000000000000000000000000000000016300361115f5760405162461bcd60e51b8152600401610bc090613fb9565b7f00000000000000000000000000000000000000000000000000000000000000006001600160a01b03166111a8600080516020614505833981519152546001600160a01b031690565b6001600160a01b0316146111ce5760405162461bcd60e51b8152600401610bc090614005565b6111d782612690565b610f5f8282600161269b565b60006111ee60995490565b82106112515760405162461bcd60e51b815260206004820152602c60248201527f455243373231456e756d657261626c653a20676c6f62616c20696e646578206f60448201526b7574206f6620626f756e647360a01b6064820152608401610bc0565b6099828154811061126457611264613dff565b90600052602060002001549050919050565b6000611281816121b2565b506001600160a01b031660009081526101a26020526040902060019055565b6000306001600160a01b037f000000000000000000000000000000000000000000000000000000000000000016146113405760405162461bcd60e51b815260206004820152603860248201527f555550535570677261646561626c653a206d757374206e6f742062652063616c60448201527f6c6564207468726f7567682064656c656761746563616c6c00000000000000006064820152608401610bc0565b5060008051602061450583398151915290565b600061135e816121b2565b610196610d3a838583613e9b565b6101936020526000908152604090208054819061138890613dc5565b80601f01602080910402602001604051908101604052809291908181526020018280546113b490613dc5565b80156114015780601f106113d657610100808354040283529160200191611401565b820191906000526020600020905b8154815290600101906020018083116113e457829003601f168201915b50505050509080600101805461141690613dc5565b80601f016020809104026020016040519081016040528092919081815260200182805461144290613dc5565b801561148f5780601f106114645761010080835404028352916020019161148f565b820191906000526020600020905b81548152906001019060200180831161147257829003601f168201915b5050505050908060020180546114a490613dc5565b80601f01602080910402602001604051908101604052809291908181526020018280546114d090613dc5565b801561151d5780601f106114f25761010080835404028352916020019161151d565b820191906000526020600020905b81548152906001019060200180831161150057829003601f168201915b5050505050905083565b610195805461109690613dc5565b6000818152606760205260408120546001600160a01b031680610a8d5760405162461bcd60e51b8152602060048201526018602482015277115490cdcc8c4e881a5b9d985b1a59081d1bdad95b88125160421b6044820152606401610bc0565b610196805461109690613dc5565b60006001600160a01b03821661160d5760405162461bcd60e51b815260206004820152602960248201527f4552433732313a2061646472657373207a65726f206973206e6f7420612076616044820152683634b21037bbb732b960b91b6064820152608401610bc0565b506001600160a01b031660009081526068602052604090205490565b6000611634816121b2565b61163e8787611a58565b61019780546001600160a01b0319166001600160a01b038c161790556116686101988a6002613543565b5061019f611677878983613e9b565b506101a0611686858783613e9b565b506101a1611695838583613e9b565b5061019b889055600061019c81905561019a8054916116b383614051565b919050555050505050505050505050565b600054610100900460ff16158080156116e45750600054600160ff909116105b806116fe5750303b1580156116fe575060005460ff166001145b6117615760405162461bcd60e51b815260206004820152602e60248201527f496e697469616c697a61626c653a20636f6e747261637420697320616c72656160448201526d191e481a5b9a5d1a585b1a5e995960921b6064820152608401610bc0565b6000805460ff191660011790558015611784576000805461ff0019166101001790555b6117c4604051806040016040528060058152602001640a4cadad2f60db1b815250604051806040016040528060018152602001602960f91b8152506128ad565b6117cc6128de565b6117d46128de565b6117dc6128de565b6117e46128de565b6117ef600033612907565b8015610ec2576000805461ff0019169055604051600181527f7f26b83ff96e1f2b6a682f133852f6798a09c465da95921460cefb38474024989060200160405180910390a150565b6000611842816121b2565b506001600160a01b031660009081526101a26020526040812055565b600091825260fb602090815260408084206001600160a01b0393909316845291905290205460ff1690565b606060668054610aa290613dc5565b61019f805461109690613dc5565b610f5f338383612911565b6118bb33836121bc565b6118d75760405162461bcd60e51b8152600401610bc090613f54565b610d3a848484846129df565b60006118ee816121b2565b6118f7846120e5565b600084815261019360205260409020600201805461191490613dc5565b1590506119565760405162461bcd60e51b815260206004820152601060248201526f1a185cda08185b1c9958591e481cd95d60821b6044820152606401610bc0565b600084815261019360205260409020600201611973838583613e9b565b5050505050565b6060611985826120e5565b600061198f612a12565b905060008151116119af57604051806020016040528060008152506119da565b806119b984612a22565b6040516020016119ca92919061406a565b6040516020818303038152906040525b9392505050565b600082815260fb60205260409020600101546119fc816121b2565b610c618383612629565b6101988160028110611a1757600080fd5b0154905081565b6000611a29816121b2565b6101928383604051611a3c929190614099565b908152604051908190036020019020805460ff19169055505050565b6000611a63816121b2565b60016101928484604051611a78929190614099565b908152604051908190036020019020805491151560ff19909216919091179055505050565b6101a0805461109690613dc5565b610197546001600160a01b0316611afb5760405162461bcd60e51b81526020600482015260146024820152731b9bc818da185b1b195b99d9481cdd185c9d195960621b6044820152606401610bc0565b61019b5461019c5410611b5a5760405162461bcd60e51b815260206004820152602160248201527f7075626c6973686572732072656163686564206d6178696d756d20616d6f756e6044820152601d60fa1b6064820152608401610bc0565b61019a54604080830151815160208101939093529082015260009060600160408051808303601f1901815282825261019a5460208401523360601b6bffffffffffffffffffffffff19168383015281516034818503018152605490930191829052925061019d90611bcc9084906140a9565b908152602001604051809103902054600014611c2a5760405162461bcd60e51b815260206004820152601760248201527f70726f6f6620616c7265616479207075626c69736865640000000000000000006044820152606401610bc0565b61019e81604051611c3b91906140a9565b908152602001604051809103902054600014611ca95760405162461bcd60e51b815260206004820152602760248201527f63757272656e74207075626c69736865642068617320616c7265616479207375604482015266189b5a5d1d195960ca1b6064820152608401610bc0565b82516101985414611cfc5760405162461bcd60e51b815260206004820152601f60248201527f70726f7669646564206368616c6c656e6765206973206e6f742076616c6964006044820152606401610bc0565b60208301516101995414611d525760405162461bcd60e51b815260206004820152601f60248201527f70726f7669646564206368616c6c656e6765206973206e6f742076616c6964006044820152606401610bc0565b6101975460405160009182916001600160a01b03909116908290611d7c90899089906024016140e8565b60408051601f198184030181529181526020820180516001600160e01b0316630f9c5d4960e01b17905251611db191906140a9565b60006040518083038185875af1925050503d8060008114611dee576040519150601f19603f3d011682016040523d82523d6000602084013e611df3565b606091505b509150915081611e455760405162461bcd60e51b815260206004820152601f60248201527f7468652063616c6c20746f20746865207665726966696572206661696c6564006044820152606401610bc0565b600081806020019051810190611e5b9190614169565b905080611eaa5760405162461bcd60e51b815260206004820152601e60248201527f7468652070726f76696465642070726f6f662069736e27742076616c696400006044820152606401610bc0565b6120593361019f8054611ebc90613dc5565b80601f0160208091040260200160405190810160405280929190818152602001828054611ee890613dc5565b8015611f355780601f10611f0a57610100808354040283529160200191611f35565b820191906000526020600020905b815481529060010190602001808311611f1857829003601f168201915b50505050506101a08054611f4890613dc5565b80601f0160208091040260200160405190810160405280929190818152602001828054611f7490613dc5565b8015611fc15780601f10611f9657610100808354040283529160200191611fc1565b820191906000526020600020905b815481529060010190602001808311611fa457829003601f168201915b50505050506101a18054611fd490613dc5565b80601f016020809104026020016040519081016040528092919081815260200182805461200090613dc5565b801561204d5780601f106120225761010080835404028352916020019161204d565b820191906000526020600020905b81548152906001019060200180831161203057829003601f168201915b505050505060016124f1565b61019c805490600061206a83614051565b9190505550600161019d8660405161208291906140a9565b908152602001604051809103902081905550600161019e856040516120a791906140a9565b9081526040519081900360200190205550505050505050565b60006001600160e01b03198216637965db0b60e01b1480610a8d5750610a8d82612b22565b6000818152606760205260409020546001600160a01b0316610ec25760405162461bcd60e51b8152602060048201526018602482015277115490cdcc8c4e881a5b9d985b1a59081d1bdad95b88125160421b6044820152606401610bc0565b600081815260696020526040902080546001600160a01b0319166001600160a01b038416908117909155819061217982611535565b6001600160a01b03167f8c5be1e5ebec7d5bd14f71427d1e84f3dd0314c0f7b2291e5b200ac8c7c3b92560405160405180910390a45050565b610ec28133612b47565b6000806121c883611535565b9050806001600160a01b0316846001600160a01b0316148061220f57506001600160a01b038082166000908152606a602090815260408083209388168352929052205460ff165b806122335750836001600160a01b031661222884610b25565b6001600160a01b0316145b949350505050565b826001600160a01b031661224e82611535565b6001600160a01b0316146122b25760405162461bcd60e51b815260206004820152602560248201527f4552433732313a207472616e736665722066726f6d20696e636f72726563742060448201526437bbb732b960d91b6064820152608401610bc0565b6001600160a01b0382166123145760405162461bcd60e51b8152602060048201526024808201527f4552433732313a207472616e7366657220746f20746865207a65726f206164646044820152637265737360e01b6064820152608401610bc0565b61231f838383612bab565b61232a600082612144565b6001600160a01b0383166000908152606860205260408120805460019290612353908490614186565b90915550506001600160a01b0382166000908152606860205260408120805460019290612381908490613e2b565b909155505060008181526067602052604080822080546001600160a01b0319166001600160a01b0386811691821790925591518493918716917fddf252ad1be2c89b69c2b068fc378daa952ba7f163c4a11628f55a4df523b3ef91a4505050565b6123ec828261185e565b610f5f57600082815260fb602090815260408083206001600160a01b03851684529091529020805460ff191660011790556124243390565b6001600160a01b0316816001600160a01b0316837f2f8788117e7eff1d82e926ec794901d17c78024a50270940304540a733656f0d60405160405180910390a45050565b60006124746101915490565b905061248561019180546001019055565b61248f8282612c06565b604051806040016040528060078152602001662932b6b4bc32b960c91b815250610193600083815260200190815260200160002060010190816124d29190614199565b50600081815261019360205260409020600201610c6161019582614252565b6101928460405161250291906140a9565b9081526040519081900360200190205460ff166125615760405162461bcd60e51b815260206004820152601760248201527f747970652073686f756c64206265206465636c617265640000000000000000006044820152606401610bc0565b600061256d6101915490565b905061257e61019180546001019055565b6125888682612c06565b6000818152610193602052604090206125a18582614199565b506000818152610193602052604090206001016125be8682614199565b506000818152610193602052604090206002016125db8482614199565b508115610edd576001600160a01b03861660009081526101946020526040902054612607908390613e2b565b6001600160a01b03871660009081526101946020526040902055505050505050565b612633828261185e565b15610f5f57600082815260fb602090815260408083206001600160a01b0385168085529252808320805460ff1916905551339285917ff6391f5c32d9c69d2a47ea670b442974b53935d1edc7fd64eb21e047a839171b9190a45050565b6000610f5f816121b2565b7f4910fdfa16fed3260ed0e7147f7cc6da11a60208b5b9406d12a635614ffd91435460ff16156126ce57610c6183612c20565b826001600160a01b03166352d1902d6040518163ffffffff1660e01b8152600401602060405180830381865afa925050508015612728575060408051601f3d908101601f191682019092526127259181019061431e565b60015b61278b5760405162461bcd60e51b815260206004820152602e60248201527f45524331393637557067726164653a206e657720696d706c656d656e7461746960448201526d6f6e206973206e6f74205555505360901b6064820152608401610bc0565b60008051602061450583398151915281146127fa5760405162461bcd60e51b815260206004820152602960248201527f45524331393637557067726164653a20756e737570706f727465642070726f786044820152681a58589b195555525160ba1b6064820152608401610bc0565b50610c61838383612cbc565b600061281182611535565b905061281f81600084612bab565b61282a600083612144565b6001600160a01b0381166000908152606860205260408120805460019290612853908490614186565b909155505060008281526067602052604080822080546001600160a01b0319169055518391906001600160a01b038416907fddf252ad1be2c89b69c2b068fc378daa952ba7f163c4a11628f55a4df523b3ef908390a45050565b600054610100900460ff166128d45760405162461bcd60e51b8152600401610bc090614337565b610f5f8282612ce1565b600054610100900460ff166129055760405162461bcd60e51b8152600401610bc090614337565b565b610f5f82826123e2565b816001600160a01b0316836001600160a01b0316036129725760405162461bcd60e51b815260206004820152601960248201527f4552433732313a20617070726f766520746f2063616c6c6572000000000000006044820152606401610bc0565b6001600160a01b038381166000818152606a6020908152604080832094871680845294825291829020805460ff191686151590811790915591519182527f17307eab39ab6107e8899845ad3d59bd9653f200f220920489ca2b5937696c31910160405180910390a3505050565b6129ea84848461223b565b6129f684848484612d21565b610d3a5760405162461bcd60e51b8152600401610bc090614382565b60606101968054610aa290613dc5565b606081600003612a495750506040805180820190915260018152600360fc1b602082015290565b8160005b8115612a735780612a5d81614051565b9150612a6c9050600a836143ea565b9150612a4d565b6000816001600160401b03811115612a8d57612a8d613720565b6040519080825280601f01601f191660200182016040528015612ab7576020820181803683370190505b5090505b841561223357612acc600183614186565b9150612ad9600a866143fe565b612ae4906030613e2b565b60f81b818381518110612af957612af9613dff565b60200101906001600160f81b031916908160001a905350612b1b600a866143ea565b9450612abb565b60006001600160e01b0319821663780e9d6360e01b1480610a8d5750610a8d82612e22565b612b51828261185e565b610f5f57612b69816001600160a01b03166014612e72565b612b74836020612e72565b604051602001612b85929190614412565b60408051601f198184030181529082905262461bcd60e51b8252610bc091600401613650565b6001600160a01b03831615612bfb5760405162461bcd60e51b8152602060048201526016602482015275746f6b656e206e6f74207472616e7366657261626c6560501b6044820152606401610bc0565b610c6183838361300d565b610f5f8282604051806020016040528060008152506130c5565b6001600160a01b0381163b612c8d5760405162461bcd60e51b815260206004820152602d60248201527f455243313936373a206e657720696d706c656d656e746174696f6e206973206e60448201526c1bdd08184818dbdb9d1c9858dd609a1b6064820152608401610bc0565b60008051602061450583398151915280546001600160a01b0319166001600160a01b0392909216919091179055565b612cc5836130f8565b600082511180612cd25750805b15610c6157610d3a8383613138565b600054610100900460ff16612d085760405162461bcd60e51b8152600401610bc090614337565b6065612d148382614199565b506066610c618282614199565b60006001600160a01b0384163b15612e1757604051630a85bd0160e11b81526001600160a01b0385169063150b7a0290612d65903390899088908890600401614487565b6020604051808303816000875af1925050508015612da0575060408051601f3d908101601f19168201909252612d9d918101906144ba565b60015b612dfd573d808015612dce576040519150601f19603f3d011682016040523d82523d6000602084013e612dd3565b606091505b508051600003612df55760405162461bcd60e51b8152600401610bc090614382565b805181602001fd5b6001600160e01b031916630a85bd0160e11b149050612233565b506001949350505050565b60006001600160e01b031982166380ac58cd60e01b1480612e5357506001600160e01b03198216635b5e139f60e01b145b80610a8d57506301ffc9a760e01b6001600160e01b0319831614610a8d565b60606000612e818360026144d7565b612e8c906002613e2b565b6001600160401b03811115612ea357612ea3613720565b6040519080825280601f01601f191660200182016040528015612ecd576020820181803683370190505b509050600360fc1b81600081518110612ee857612ee8613dff565b60200101906001600160f81b031916908160001a905350600f60fb1b81600181518110612f1757612f17613dff565b60200101906001600160f81b031916908160001a9053506000612f3b8460026144d7565b612f46906001613e2b565b90505b6001811115612fbe576f181899199a1a9b1b9c1cb0b131b232b360811b85600f1660108110612f7a57612f7a613dff565b1a60f81b828281518110612f9057612f90613dff565b60200101906001600160f81b031916908160001a90535060049490941c93612fb781613fa2565b9050612f49565b5083156119da5760405162461bcd60e51b815260206004820181905260248201527f537472696e67733a20686578206c656e67746820696e73756666696369656e746044820152606401610bc0565b6001600160a01b0383166130685761306381609980546000838152609a60205260408120829055600182018355919091527f72a152ddfb8e864297c917af52ea6c1c68aead0fee1a62673fcc7e0c94979d000155565b61308b565b816001600160a01b0316836001600160a01b03161461308b5761308b838261322c565b6001600160a01b0382166130a257610c61816132c9565b826001600160a01b0316826001600160a01b031614610c6157610c618282613378565b6130cf83836133bc565b6130dc6000848484612d21565b610c615760405162461bcd60e51b8152600401610bc090614382565b61310181612c20565b6040516001600160a01b038216907fbc7cd75a20ee27fd9adebab32041f755214dbc6bffa90cc0225b39da2e5c2d3b90600090a250565b60606001600160a01b0383163b6131a05760405162461bcd60e51b815260206004820152602660248201527f416464726573733a2064656c65676174652063616c6c20746f206e6f6e2d636f6044820152651b9d1c9858dd60d21b6064820152608401610bc0565b600080846001600160a01b0316846040516131bb91906140a9565b600060405180830381855af49150503d80600081146131f6576040519150601f19603f3d011682016040523d82523d6000602084013e6131fb565b606091505b509150915061322382826040518060600160405280602781526020016145256027913961350a565b95945050505050565b60006001613239846115a3565b6132439190614186565b600083815260986020526040902054909150808214613296576001600160a01b03841660009081526097602090815260408083208584528252808320548484528184208190558352609890915290208190555b5060009182526098602090815260408084208490556001600160a01b039094168352609781528383209183525290812055565b6099546000906132db90600190614186565b6000838152609a60205260408120546099805493945090928490811061330357613303613dff565b90600052602060002001549050806099838154811061332457613324613dff565b6000918252602080832090910192909255828152609a9091526040808220849055858252812055609980548061335c5761335c6144ee565b6001900381819060005260206000200160009055905550505050565b6000613383836115a3565b6001600160a01b039093166000908152609760209081526040808320868452825280832085905593825260989052919091209190915550565b6001600160a01b0382166134125760405162461bcd60e51b815260206004820181905260248201527f4552433732313a206d696e7420746f20746865207a65726f20616464726573736044820152606401610bc0565b6000818152606760205260409020546001600160a01b0316156134775760405162461bcd60e51b815260206004820152601c60248201527f4552433732313a20746f6b656e20616c7265616479206d696e746564000000006044820152606401610bc0565b61348360008383612bab565b6001600160a01b03821660009081526068602052604081208054600192906134ac908490613e2b565b909155505060008181526067602052604080822080546001600160a01b0319166001600160a01b03861690811790915590518392907fddf252ad1be2c89b69c2b068fc378daa952ba7f163c4a11628f55a4df523b3ef908290a45050565b606083156135195750816119da565b8251156135295782518084602001fd5b8160405162461bcd60e51b8152600401610bc09190613650565b8260028101928215613571579160200282015b82811115613571578235825591602001919060010190613556565b5061357d929150613581565b5090565b5b8082111561357d5760008155600101613582565b80356001600160a01b03811681146135ad57600080fd5b919050565b6000602082840312156135c457600080fd5b6119da82613596565b6001600160e01b031981168114610ec257600080fd5b6000602082840312156135f557600080fd5b81356119da816135cd565b60005b8381101561361b578181015183820152602001613603565b50506000910152565b6000815180845261363c816020860160208601613600565b601f01601f19169290920160200192915050565b6020815260006119da6020830184613624565b60006020828403121561367557600080fd5b5035919050565b6000806040838503121561368f57600080fd5b61369883613596565b946020939093013593505050565b6000806000604084860312156136bb57600080fd5b83356001600160401b03808211156136d257600080fd5b818601915086601f8301126136e657600080fd5b8135818111156136f557600080fd5b8760208260051b850101111561370a57600080fd5b6020928301989097509590910135949350505050565b634e487b7160e01b600052604160045260246000fd5b604080519081016001600160401b038111828210171561375857613758613720565b60405290565b604051606081016001600160401b038111828210171561375857613758613720565b600082601f83011261379157600080fd5b81356001600160401b03808211156137ab576137ab613720565b604051601f8301601f19908116603f011681019082821181831017156137d3576137d3613720565b816040528381528660208588010111156137ec57600080fd5b836020870160208301376000602085830101528094505050505092915050565b60006020828403121561381e57600080fd5b81356001600160401b0381111561383457600080fd5b61223384828501613780565b60008083601f84011261385257600080fd5b5081356001600160401b0381111561386957600080fd5b60208301915083602082850101111561388157600080fd5b9250929050565b6000806020838503121561389b57600080fd5b82356001600160401b038111156138b157600080fd5b6138bd85828601613840565b90969095509350505050565b6000806000606084860312156138de57600080fd5b6138e784613596565b92506138f560208501613596565b9150604084013590509250925092565b6000806040838503121561391857600080fd5b8235915061392860208401613596565b90509250929050565b600080600080600060a0868803121561394957600080fd5b61395286613596565b945060208601356001600160401b038082111561396e57600080fd5b61397a89838a01613780565b9550604088013591508082111561399057600080fd5b61399c89838a01613780565b945060608801359150808211156139b257600080fd5b506139bf88828901613780565b95989497509295608001359392505050565b600080604083850312156139e457600080fd5b6139ed83613596565b915060208301356001600160401b03811115613a0857600080fd5b613a1485828601613780565b9150509250929050565b606081526000613a316060830186613624565b8281036020840152613a438186613624565b90508281036040840152613a578185613624565b9695505050505050565b600080600080600080600080600060e08a8c031215613a7f57600080fd5b613a888a613596565b985060608a018b811115613a9b57600080fd5b60208b01985035965060808a01356001600160401b0380821115613abe57600080fd5b613aca8d838e01613840565b909850965060a08c0135915080821115613ae357600080fd5b613aef8d838e01613840565b909650945060c08c0135915080821115613b0857600080fd5b50613b158c828d01613840565b915080935050809150509295985092959850929598565b8015158114610ec257600080fd5b60008060408385031215613b4d57600080fd5b613b5683613596565b91506020830135613b6681613b2c565b809150509250929050565b60008060008060808587031215613b8757600080fd5b613b9085613596565b9350613b9e60208601613596565b92506040850135915060608501356001600160401b03811115613bc057600080fd5b613bcc87828801613780565b91505092959194509250565b600080600060408486031215613bed57600080fd5b8335925060208401356001600160401b03811115613c0a57600080fd5b613c1686828701613840565b9497909650939450505050565b60008060408385031215613c3657600080fd5b613c3f83613596565b915061392860208401613596565b600060408284031215613c5f57600080fd5b613c67613736565b9050813581526020820135602082015292915050565b6000613c8761375e565b9050806060830184811115613c9b57600080fd5b835b81811015613cb5578035835260209283019201613c9d565b50505092915050565b600082601f830112613ccf57600080fd5b613cd7613736565b806040840185811115613ce957600080fd5b845b81811015613d03578035845260209384019301613ceb565b509095945050505050565b600080828403610160811215613d2357600080fd5b61010080821215613d3357600080fd5b613d3b61375e565b613d458787613c4d565b81526080603f1984011215613d5957600080fd5b613d61613736565b9250613d708760408801613cbe565b8352613d7f8760808801613cbe565b6020840152826020820152613d978760c08801613c4d565b6040820152935061011f85018613613dae57600080fd5b613dba86828701613c7d565b925050509250929050565b600181811c90821680613dd957607f821691505b602082108103613df957634e487b7160e01b600052602260045260246000fd5b50919050565b634e487b7160e01b600052603260045260246000fd5b634e487b7160e01b600052601160045260246000fd5b80820180821115610a8d57610a8d613e15565b601f821115610c61576000816000526020600020601f850160051c81016020861015613e675750805b601f850160051c820191505b81811015610edd57828155600101613e73565b600019600383901b1c191660019190911b1790565b6001600160401b03831115613eb257613eb2613720565b613ec683613ec08354613dc5565b83613e3e565b6000601f841160018114613ef45760008515613ee25750838201355b613eec8682613e86565b845550611973565b600083815260209020601f19861690835b82811015613f255786850135825560209485019460019092019101613f05565b5086821015613f425760001960f88860031b161c19848701351681555b505060018560011b0183555050505050565b6020808252602e908201527f4552433732313a2063616c6c6572206973206e6f7420746f6b656e206f776e6560408201526d1c881b9bdc88185c1c1c9bdd995960921b606082015260800190565b600081613fb157613fb1613e15565b506000190190565b6020808252602c908201527f46756e6374696f6e206d7573742062652063616c6c6564207468726f7567682060408201526b19195b1959d85d1958d85b1b60a21b606082015260800190565b6020808252602c908201527f46756e6374696f6e206d7573742062652063616c6c6564207468726f7567682060408201526b6163746976652070726f787960a01b606082015260800190565b60006001820161406357614063613e15565b5060010190565b6000835161407c818460208801613600565b835190830190614090818360208801613600565b01949350505050565b8183823760009101908152919050565b600082516140bb818460208701613600565b9190910192915050565b8060005b6002811015610d3a5781518452602093840193909101906001016140c9565b8251805182526020908101519082015261016081016020808501516141116040850182516140c5565b6020015161412260808501826140c5565b506040850151805160c08501526020015160e084015261010083018460005b600381101561415e57815183529183019190830190600101614141565b505050509392505050565b60006020828403121561417b57600080fd5b81516119da81613b2c565b81810381811115610a8d57610a8d613e15565b81516001600160401b038111156141b2576141b2613720565b6141c6816141c08454613dc5565b84613e3e565b602080601f8311600181146141f557600084156141e35750858301515b6141ed8582613e86565b865550610edd565b600085815260208120601f198616915b8281101561422457888601518255948401946001909101908401614205565b50858210156142425787850151600019600388901b60f8161c191681555b5050505050600190811b01905550565b81810361425d575050565b6142678254613dc5565b6001600160401b0381111561427e5761427e613720565b61428c816141c08454613dc5565b6000601f8211600181146142ba57600083156142a85750848201545b6142b28482613e86565b855550611973565b600085815260209020601f19841690600086815260209020845b838110156142f457828601548255600195860195909101906020016142d4565b50858310156142425793015460001960f8600387901b161c19169092555050600190811b01905550565b60006020828403121561433057600080fd5b5051919050565b6020808252602b908201527f496e697469616c697a61626c653a20636f6e7472616374206973206e6f74206960408201526a6e697469616c697a696e6760a81b606082015260800190565b60208082526032908201527f4552433732313a207472616e7366657220746f206e6f6e20455243373231526560408201527131b2b4bb32b91034b6b83632b6b2b73a32b960711b606082015260800190565b634e487b7160e01b600052601260045260246000fd5b6000826143f9576143f96143d4565b500490565b60008261440d5761440d6143d4565b500690565b7f416363657373436f6e74726f6c3a206163636f756e742000000000000000000081526000835161444a816017850160208801613600565b7001034b99036b4b9b9b4b733903937b6329607d1b601791840191820152835161447b816028840160208801613600565b01602801949350505050565b6001600160a01b0385811682528416602082015260408101839052608060608201819052600090613a5790830184613624565b6000602082840312156144cc57600080fd5b81516119da816135cd565b8082028115828204841417610a8d57610a8d613e15565b634e487b7160e01b600052603160045260246000fdfe360894a13ba1a3210667c828492db98dca3e2076cc3735a920a3ca505d382bbc416464726573733a206c6f772d6c6576656c2064656c65676174652063616c6c206661696c6564a264697066735822122036e0bb61a9d84f0c584f6e1c290399894da40a1852f1718f94264dc5660930d164736f6c63430008160033",
			"opcodes": "PUSH1 0xA0 PUSH1 0x40 MSTORE ADDRESS PUSH1 0x80 MSTORE CALLVALUE DUP1 ISZERO PUSH2 0x14 JUMPI PUSH1 0x0 DUP1 REVERT JUMPDEST POP PUSH1 0x80 MLOAD PUSH2 0x4581 PUSH2 0x4C PUSH1 0x0 CODECOPY PUSH1 0x0 DUP2 DUP2 PUSH2 0xF6D ADD MSTORE DUP2 DUP2 PUSH2 0xFAD ADD MSTORE DUP2 DUP2 PUSH2 0x1121 ADD MSTORE DUP2 DUP2 PUSH2 0x1161 ADD MSTORE PUSH2 0x12AD ADD MSTORE PUSH2 0x4581 PUSH1 0x0 RETURN INVALID PUSH1 0x80 PUSH1 0x40 MSTORE PUSH1 0x4 CALLDATASIZE LT PUSH2 0x34F JUMPI PUSH1 0x0 CALLDATALOAD PUSH1 0xE0 SHR DUP1 PUSH4 0x55F804B3 GT PUSH2 0x1C6 JUMPI DUP1 PUSH4 0xA217FDDF GT PUSH2 0xF7 JUMPI DUP1 PUSH4 0xD674CC2B GT PUSH2 0x95 JUMPI DUP1 PUSH4 0xE7F08E69 GT PUSH2 0x6F JUMPI DUP1 PUSH4 0xE7F08E69 EQ PUSH2 0x9E4 JUMPI DUP1 PUSH4 0xE985E9C5 EQ PUSH2 0xA04 JUMPI DUP1 PUSH4 0xF1FE6911 EQ PUSH2 0xA4D JUMPI DUP1 PUSH4 0xFF990FFD EQ PUSH2 0xA62 JUMPI PUSH1 0x0 DUP1 REVERT JUMPDEST DUP1 PUSH4 0xD674CC2B EQ PUSH2 0x983 JUMPI DUP1 PUSH4 0xD6DF096D EQ PUSH2 0x9A3 JUMPI DUP1 PUSH4 0xE15E2FD4 EQ PUSH2 0x9C4 JUMPI PUSH1 0x0 DUP1 REVERT JUMPDEST DUP1 PUSH4 0xB88D4FDE GT PUSH2 0xD1 JUMPI DUP1 PUSH4 0xB88D4FDE EQ PUSH2 0x903 JUMPI DUP1 PUSH4 0xC0CECB9A EQ PUSH2 0x923 JUMPI DUP1 PUSH4 0xC87B56DD EQ PUSH2 0x943 JUMPI DUP1 PUSH4 0xD547741F EQ PUSH2 0x963 JUMPI PUSH1 0x0 DUP1 REVERT JUMPDEST DUP1 PUSH4 0xA217FDDF EQ PUSH2 0x895 JUMPI DUP1 PUSH4 0xA22CB465 EQ PUSH2 0x8AA JUMPI DUP1 PUSH4 0xB63CB3B9 EQ PUSH2 0x8CA JUMPI PUSH1 0x0 DUP1 REVERT JUMPDEST DUP1 PUSH4 0x7909EB73 GT PUSH2 0x164 JUMPI DUP1 PUSH4 0x8A145777 GT PUSH2 0x13E JUMPI DUP1 PUSH4 0x8A145777 EQ PUSH2 0x82B JUMPI DUP1 PUSH4 0x91D14854 EQ PUSH2 0x84B JUMPI DUP1 PUSH4 0x95D89B41 EQ PUSH2 0x86B JUMPI DUP1 PUSH4 0x9CBFF422 EQ PUSH2 0x880 JUMPI PUSH1 0x0 DUP1 REVERT JUMPDEST DUP1 PUSH4 0x7909EB73 EQ PUSH2 0x7DF JUMPI DUP1 PUSH4 0x7FFE8F25 EQ PUSH2 0x7F6 JUMPI DUP1 PUSH4 0x8129FC1C EQ PUSH2 0x816 JUMPI PUSH1 0x0 DUP1 REVERT JUMPDEST DUP1 PUSH4 0x6344CD20 GT PUSH2 0x1A0 JUMPI DUP1 PUSH4 0x6344CD20 EQ PUSH2 0x775 JUMPI DUP1 PUSH4 0x6352211E EQ PUSH2 0x78A JUMPI DUP1 PUSH4 0x6C0360EB EQ PUSH2 0x7AA JUMPI DUP1 PUSH4 0x70A08231 EQ PUSH2 0x7BF JUMPI PUSH1 0x0 DUP1 REVERT JUMPDEST DUP1 PUSH4 0x55F804B3 EQ PUSH2 0x70F JUMPI DUP1 PUSH4 0x599ED3FF EQ PUSH2 0x72F JUMPI DUP1 PUSH4 0x5A8AFBFC EQ PUSH2 0x75E JUMPI PUSH1 0x0 DUP1 REVERT JUMPDEST DUP1 PUSH4 0x2F745C59 GT PUSH2 0x2A0 JUMPI DUP1 PUSH4 0x42966C68 GT PUSH2 0x23E JUMPI DUP1 PUSH4 0x4F6CCCE7 GT PUSH2 0x218 JUMPI DUP1 PUSH4 0x4F6CCCE7 EQ PUSH2 0x68C JUMPI DUP1 PUSH4 0x5117A840 EQ PUSH2 0x6AC JUMPI DUP1 PUSH4 0x52D1902D EQ PUSH2 0x6CC JUMPI DUP1 PUSH4 0x54FD4D50 EQ PUSH2 0x6E1 JUMPI PUSH1 0x0 DUP1 REVERT JUMPDEST DUP1 PUSH4 0x42966C68 EQ PUSH2 0x644 JUMPI DUP1 PUSH4 0x43D3CF61 EQ PUSH2 0x664 JUMPI DUP1 PUSH4 0x4F1EF286 EQ PUSH2 0x679 JUMPI PUSH1 0x0 DUP1 REVERT JUMPDEST DUP1 PUSH4 0x36568ABE GT PUSH2 0x27A JUMPI DUP1 PUSH4 0x36568ABE EQ PUSH2 0x5CD JUMPI DUP1 PUSH4 0x3659CFE6 EQ PUSH2 0x5ED JUMPI DUP1 PUSH4 0x42778642 EQ PUSH2 0x60D JUMPI DUP1 PUSH4 0x42842E0E EQ PUSH2 0x624 JUMPI PUSH1 0x0 DUP1 REVERT JUMPDEST DUP1 PUSH4 0x2F745C59 EQ PUSH2 0x56D JUMPI DUP1 PUSH4 0x32A93A3A EQ PUSH2 0x58D JUMPI DUP1 PUSH4 0x35B1A7EA EQ PUSH2 0x5AD JUMPI PUSH1 0x0 DUP1 REVERT JUMPDEST DUP1 PUSH4 0x18160DDD GT PUSH2 0x30D JUMPI DUP1 PUSH4 0x23B872DD GT PUSH2 0x2E7 JUMPI DUP1 PUSH4 0x23B872DD EQ PUSH2 0x4CF JUMPI DUP1 PUSH4 0x248A9CA3 EQ PUSH2 0x4EF JUMPI DUP1 PUSH4 0x2CD92F97 EQ PUSH2 0x51F JUMPI DUP1 PUSH4 0x2F2FF15D EQ PUSH2 0x54D JUMPI PUSH1 0x0 DUP1 REVERT JUMPDEST DUP1 PUSH4 0x18160DDD EQ PUSH2 0x461 JUMPI DUP1 PUSH4 0x1823E26A EQ PUSH2 0x476 JUMPI DUP1 PUSH4 0x1AA2C2F8 EQ PUSH2 0x4AF JUMPI PUSH1 0x0 DUP1 REVERT JUMPDEST DUP1 PUSH3 0x5C154E EQ PUSH2 0x354 JUMPI DUP1 PUSH4 0x1FFC9A7 EQ PUSH2 0x395 JUMPI DUP1 PUSH4 0x6FDDE03 EQ PUSH2 0x3C5 JUMPI DUP1 PUSH4 0x81812FC EQ PUSH2 0x3E7 JUMPI DUP1 PUSH4 0x95EA7B3 EQ PUSH2 0x41F JUMPI DUP1 PUSH4 0x1693D2EB EQ PUSH2 0x441 JUMPI JUMPDEST PUSH1 0x0 DUP1 REVERT JUMPDEST CALLVALUE DUP1 ISZERO PUSH2 0x360 JUMPI PUSH1 0x0 DUP1 REVERT JUMPDEST POP PUSH2 0x382 PUSH2 0x36F CALLDATASIZE PUSH1 0x4 PUSH2 0x35B2 JUMP JUMPDEST PUSH2 0x194 PUSH1 0x20 MSTORE PUSH1 0x0 SWAP1 DUP2 MSTORE PUSH1 0x40 SWAP1 KECCAK256 SLOAD DUP2 JUMP JUMPDEST PUSH1 0x40 MLOAD SWAP1 DUP2 MSTORE PUSH1 0x20 ADD JUMPDEST PUSH1 0x40 MLOAD DUP1 SWAP2 SUB SWAP1 RETURN JUMPDEST CALLVALUE DUP1 ISZERO PUSH2 0x3A1 JUMPI PUSH1 0x0 DUP1 REVERT JUMPDEST POP PUSH2 0x3B5 PUSH2 0x3B0 CALLDATASIZE PUSH1 0x4 PUSH2 0x35E3 JUMP JUMPDEST PUSH2 0xA82 JUMP JUMPDEST PUSH1 0x40 MLOAD SWAP1 ISZERO ISZERO DUP2 MSTORE PUSH1 0x20 ADD PUSH2 0x38C JUMP JUMPDEST CALLVALUE DUP1 ISZERO PUSH2 0x3D1 JUMPI PUSH1 0x0 DUP1 REVERT JUMPDEST POP PUSH2 0x3DA PUSH2 0xA93 JUMP JUMPDEST PUSH1 0x40 MLOAD PUSH2 0x38C SWAP2 SWAP1 PUSH2 0x3650 JUMP JUMPDEST CALLVALUE DUP1 ISZERO PUSH2 0x3F3 JUMPI PUSH1 0x0 DUP1 REVERT JUMPDEST POP PUSH2 0x407 PUSH2 0x402 CALLDATASIZE PUSH1 0x4 PUSH2 0x3663 JUMP JUMPDEST PUSH2 0xB25 JUMP JUMPDEST PUSH1 0x40 MLOAD PUSH1 0x1 PUSH1 0x1 PUSH1 0xA0 SHL SUB SWAP1 SWAP2 AND DUP2 MSTORE PUSH1 0x20 ADD PUSH2 0x38C JUMP JUMPDEST CALLVALUE DUP1 ISZERO PUSH2 0x42B JUMPI PUSH1 0x0 DUP1 REVERT JUMPDEST POP PUSH2 0x43F PUSH2 0x43A CALLDATASIZE PUSH1 0x4 PUSH2 0x367C JUMP JUMPDEST PUSH2 0xB4C JUMP JUMPDEST STOP JUMPDEST CALLVALUE DUP1 ISZERO PUSH2 0x44D JUMPI PUSH1 0x0 DUP1 REVERT JUMPDEST POP PUSH2 0x43F PUSH2 0x45C CALLDATASIZE PUSH1 0x4 PUSH2 0x36A6 JUMP JUMPDEST PUSH2 0xC66 JUMP JUMPDEST CALLVALUE DUP1 ISZERO PUSH2 0x46D JUMPI PUSH1 0x0 DUP1 REVERT JUMPDEST POP PUSH1 0x99 SLOAD PUSH2 0x382 JUMP JUMPDEST CALLVALUE DUP1 ISZERO PUSH2 0x482 JUMPI PUSH1 0x0 DUP1 REVERT JUMPDEST POP PUSH2 0x382 PUSH2 0x491 CALLDATASIZE PUSH1 0x4 PUSH2 0x380C JUMP JUMPDEST DUP1 MLOAD PUSH1 0x20 DUP2 DUP4 ADD DUP2 ADD DUP1 MLOAD PUSH2 0x19D DUP3 MSTORE SWAP3 DUP3 ADD SWAP2 SWAP1 SWAP4 ADD KECCAK256 SWAP2 MSTORE SLOAD DUP2 JUMP JUMPDEST CALLVALUE DUP1 ISZERO PUSH2 0x4BB JUMPI PUSH1 0x0 DUP1 REVERT JUMPDEST POP PUSH2 0x43F PUSH2 0x4CA CALLDATASIZE PUSH1 0x4 PUSH2 0x3888 JUMP JUMPDEST PUSH2 0xD40 JUMP JUMPDEST CALLVALUE DUP1 ISZERO PUSH2 0x4DB JUMPI PUSH1 0x0 DUP1 REVERT JUMPDEST POP PUSH2 0x43F PUSH2 0x4EA CALLDATASIZE PUSH1 0x4 PUSH2 0x38C9 JUMP JUMPDEST PUSH2 0xD59 JUMP JUMPDEST CALLVALUE DUP1 ISZERO PUSH2 0x4FB JUMPI PUSH1 0x0 DUP1 REVERT JUMPDEST POP PUSH2 0x382 PUSH2 0x50A CALLDATASIZE PUSH1 0x4 PUSH2 0x3663 JUMP JUMPDEST PUSH1 0x0 SWAP1 DUP2 MSTORE PUSH1 0xFB PUSH1 0x20 MSTORE PUSH1 0x40 SWAP1 KECCAK256 PUSH1 0x1 ADD SLOAD SWAP1 JUMP JUMPDEST CALLVALUE DUP1 ISZERO PUSH2 0x52B JUMPI PUSH1 0x0 DUP1 REVERT JUMPDEST POP PUSH2 0x382 PUSH2 0x53A CALLDATASIZE PUSH1 0x4 PUSH2 0x35B2 JUMP JUMPDEST PUSH2 0x1A2 PUSH1 0x20 MSTORE PUSH1 0x0 SWAP1 DUP2 MSTORE PUSH1 0x40 SWAP1 KECCAK256 SLOAD DUP2 JUMP JUMPDEST CALLVALUE DUP1 ISZERO PUSH2 0x559 JUMPI PUSH1 0x0 DUP1 REVERT JUMPDEST POP PUSH2 0x43F PUSH2 0x568 CALLDATASIZE PUSH1 0x4 PUSH2 0x3905 JUMP JUMPDEST PUSH2 0xD8B JUMP JUMPDEST CALLVALUE DUP1 ISZERO PUSH2 0x579 JUMPI PUSH1 0x0 DUP1 REVERT JUMPDEST POP PUSH2 0x382 PUSH2 0x588 CALLDATASIZE PUSH1 0x4 PUSH2 0x367C JUMP JUMPDEST PUSH2 0xDB0 JUMP JUMPDEST CALLVALUE DUP1 ISZERO PUSH2 0x599 JUMPI PUSH1 0x0 DUP1 REVERT JUMPDEST POP PUSH2 0x43F PUSH2 0x5A8 CALLDATASIZE PUSH1 0x4 PUSH2 0x35B2 JUMP JUMPDEST PUSH2 0xE46 JUMP JUMPDEST CALLVALUE DUP1 ISZERO PUSH2 0x5B9 JUMPI PUSH1 0x0 DUP1 REVERT JUMPDEST POP PUSH2 0x43F PUSH2 0x5C8 CALLDATASIZE PUSH1 0x4 PUSH2 0x3931 JUMP JUMPDEST PUSH2 0xEC5 JUMP JUMPDEST CALLVALUE DUP1 ISZERO PUSH2 0x5D9 JUMPI PUSH1 0x0 DUP1 REVERT JUMPDEST POP PUSH2 0x43F PUSH2 0x5E8 CALLDATASIZE PUSH1 0x4 PUSH2 0x3905 JUMP JUMPDEST PUSH2 0xEE5 JUMP JUMPDEST CALLVALUE DUP1 ISZERO PUSH2 0x5F9 JUMPI PUSH1 0x0 DUP1 REVERT JUMPDEST POP PUSH2 0x43F PUSH2 0x608 CALLDATASIZE PUSH1 0x4 PUSH2 0x35B2 JUMP JUMPDEST PUSH2 0xF63 JUMP JUMPDEST CALLVALUE DUP1 ISZERO PUSH2 0x619 JUMPI PUSH1 0x0 DUP1 REVERT JUMPDEST POP PUSH2 0x382 PUSH2 0x19C SLOAD DUP2 JUMP JUMPDEST CALLVALUE DUP1 ISZERO PUSH2 0x630 JUMPI PUSH1 0x0 DUP1 REVERT JUMPDEST POP PUSH2 0x43F PUSH2 0x63F CALLDATASIZE PUSH1 0x4 PUSH2 0x38C9 JUMP JUMPDEST PUSH2 0x103F JUMP JUMPDEST CALLVALUE DUP1 ISZERO PUSH2 0x650 JUMPI PUSH1 0x0 DUP1 REVERT JUMPDEST POP PUSH2 0x43F PUSH2 0x65F CALLDATASIZE PUSH1 0x4 PUSH2 0x3663 JUMP JUMPDEST PUSH2 0x105A JUMP JUMPDEST CALLVALUE DUP1 ISZERO PUSH2 0x670 JUMPI PUSH1 0x0 DUP1 REVERT JUMPDEST POP PUSH2 0x3DA PUSH2 0x1088 JUMP JUMPDEST PUSH2 0x43F PUSH2 0x687 CALLDATASIZE PUSH1 0x4 PUSH2 0x39D1 JUMP JUMPDEST PUSH2 0x1117 JUMP JUMPDEST CALLVALUE DUP1 ISZERO PUSH2 0x698 JUMPI PUSH1 0x0 DUP1 REVERT JUMPDEST POP PUSH2 0x382 PUSH2 0x6A7 CALLDATASIZE PUSH1 0x4 PUSH2 0x3663 JUMP JUMPDEST PUSH2 0x11E3 JUMP JUMPDEST CALLVALUE DUP1 ISZERO PUSH2 0x6B8 JUMPI PUSH1 0x0 DUP1 REVERT JUMPDEST POP PUSH2 0x43F PUSH2 0x6C7 CALLDATASIZE PUSH1 0x4 PUSH2 0x35B2 JUMP JUMPDEST PUSH2 0x1276 JUMP JUMPDEST CALLVALUE DUP1 ISZERO PUSH2 0x6D8 JUMPI PUSH1 0x0 DUP1 REVERT JUMPDEST POP PUSH2 0x382 PUSH2 0x12A0 JUMP JUMPDEST CALLVALUE DUP1 ISZERO PUSH2 0x6ED JUMPI PUSH1 0x0 DUP1 REVERT JUMPDEST POP PUSH1 0x40 DUP1 MLOAD DUP1 DUP3 ADD SWAP1 SWAP2 MSTORE PUSH1 0x5 DUP2 MSTORE PUSH5 0x322E342E3 PUSH1 0xDC SHL PUSH1 0x20 DUP3 ADD MSTORE PUSH2 0x3DA JUMP JUMPDEST CALLVALUE DUP1 ISZERO PUSH2 0x71B JUMPI PUSH1 0x0 DUP1 REVERT JUMPDEST POP PUSH2 0x43F PUSH2 0x72A CALLDATASIZE PUSH1 0x4 PUSH2 0x3888 JUMP JUMPDEST PUSH2 0x1353 JUMP JUMPDEST CALLVALUE DUP1 ISZERO PUSH2 0x73B JUMPI PUSH1 0x0 DUP1 REVERT JUMPDEST POP PUSH2 0x74F PUSH2 0x74A CALLDATASIZE PUSH1 0x4 PUSH2 0x3663 JUMP JUMPDEST PUSH2 0x136C JUMP JUMPDEST PUSH1 0x40 MLOAD PUSH2 0x38C SWAP4 SWAP3 SWAP2 SWAP1 PUSH2 0x3A1E JUMP JUMPDEST CALLVALUE DUP1 ISZERO PUSH2 0x76A JUMPI PUSH1 0x0 DUP1 REVERT JUMPDEST POP PUSH2 0x382 PUSH2 0x19B SLOAD DUP2 JUMP JUMPDEST CALLVALUE DUP1 ISZERO PUSH2 0x781 JUMPI PUSH1 0x0 DUP1 REVERT JUMPDEST POP PUSH2 0x3DA PUSH2 0x1527 JUMP JUMPDEST CALLVALUE DUP1 ISZERO PUSH2 0x796 JUMPI PUSH1 0x0 DUP1 REVERT JUMPDEST POP PUSH2 0x407 PUSH2 0x7A5 CALLDATASIZE PUSH1 0x4 PUSH2 0x3663 JUMP JUMPDEST PUSH2 0x1535 JUMP JUMPDEST CALLVALUE DUP1 ISZERO PUSH2 0x7B6 JUMPI PUSH1 0x0 DUP1 REVERT JUMPDEST POP PUSH2 0x3DA PUSH2 0x1595 JUMP JUMPDEST CALLVALUE DUP1 ISZERO PUSH2 0x7CB JUMPI PUSH1 0x0 DUP1 REVERT JUMPDEST POP PUSH2 0x382 PUSH2 0x7DA CALLDATASIZE PUSH1 0x4 PUSH2 0x35B2 JUMP JUMPDEST PUSH2 0x15A3 JUMP JUMPDEST CALLVALUE DUP1 ISZERO PUSH2 0x7EB JUMPI PUSH1 0x0 DUP1 REVERT JUMPDEST POP PUSH2 0x382 PUSH2 0x19A SLOAD DUP2 JUMP JUMPDEST CALLVALUE DUP1 ISZERO PUSH2 0x802 JUMPI PUSH1 0x0 DUP1 REVERT JUMPDEST POP PUSH2 0x43F PUSH2 0x811 CALLDATASIZE PUSH1 0x4 PUSH2 0x3A61 JUMP JUMPDEST PUSH2 0x1629 JUMP JUMPDEST CALLVALUE DUP1 ISZERO PUSH2 0x822 JUMPI PUSH1 0x0 DUP1 REVERT JUMPDEST POP PUSH2 0x43F PUSH2 0x16C4 JUMP JUMPDEST CALLVALUE DUP1 ISZERO PUSH2 0x837 JUMPI PUSH1 0x0 DUP1 REVERT JUMPDEST POP PUSH2 0x43F PUSH2 0x846 CALLDATASIZE PUSH1 0x4 PUSH2 0x35B2 JUMP JUMPDEST PUSH2 0x1837 JUMP JUMPDEST CALLVALUE DUP1 ISZERO PUSH2 0x857 JUMPI PUSH1 0x0 DUP1 REVERT JUMPDEST POP PUSH2 0x3B5 PUSH2 0x866 CALLDATASIZE PUSH1 0x4 PUSH2 0x3905 JUMP JUMPDEST PUSH2 0x185E JUMP JUMPDEST CALLVALUE DUP1 ISZERO PUSH2 0x877 JUMPI PUSH1 0x0 DUP1 REVERT JUMPDEST POP PUSH2 0x3DA PUSH2 0x1889 JUMP JUMPDEST CALLVALUE DUP1 ISZERO PUSH2 0x88C JUMPI PUSH1 0x0 DUP1 REVERT JUMPDEST POP PUSH2 0x3DA PUSH2 0x1898 JUMP JUMPDEST CALLVALUE DUP1 ISZERO PUSH2 0x8A1 JUMPI PUSH1 0x0 DUP1 REVERT JUMPDEST POP PUSH2 0x382 PUSH1 0x0 DUP2 JUMP JUMPDEST CALLVALUE DUP1 ISZERO PUSH2 0x8B6 JUMPI PUSH1 0x0 DUP1 REVERT JUMPDEST POP PUSH2 0x43F PUSH2 0x8C5 CALLDATASIZE PUSH1 0x4 PUSH2 0x3B3A JUMP JUMPDEST PUSH2 0x18A6 JUMP JUMPDEST CALLVALUE DUP1 ISZERO PUSH2 0x8D6 JUMPI PUSH1 0x0 DUP1 REVERT JUMPDEST POP PUSH2 0x382 PUSH2 0x8E5 CALLDATASIZE PUSH1 0x4 PUSH2 0x380C JUMP JUMPDEST DUP1 MLOAD PUSH1 0x20 DUP2 DUP4 ADD DUP2 ADD DUP1 MLOAD PUSH2 0x19E DUP3 MSTORE SWAP3 DUP3 ADD SWAP2 SWAP1 SWAP4 ADD KECCAK256 SWAP2 MSTORE SLOAD DUP2 JUMP JUMPDEST CALLVALUE DUP1 ISZERO PUSH2 0x90F JUMPI PUSH1 0x0 DUP1 REVERT JUMPDEST POP PUSH2 0x43F PUSH2 0x91E CALLDATASIZE PUSH1 0x4 PUSH2 0x3B71 JUMP JUMPDEST PUSH2 0x18B1 JUMP JUMPDEST CALLVALUE DUP1 ISZERO PUSH2 0x92F JUMPI PUSH1 0x0 DUP1 REVERT JUMPDEST POP PUSH2 0x43F PUSH2 0x93E CALLDATASIZE PUSH1 0x4 PUSH2 0x3BD8 JUMP JUMPDEST PUSH2 0x18E3 JUMP JUMPDEST CALLVALUE DUP1 ISZERO PUSH2 0x94F JUMPI PUSH1 0x0 DUP1 REVERT JUMPDEST POP PUSH2 0x3DA PUSH2 0x95E CALLDATASIZE PUSH1 0x4 PUSH2 0x3663 JUMP JUMPDEST PUSH2 0x197A JUMP JUMPDEST CALLVALUE DUP1 ISZERO PUSH2 0x96F JUMPI PUSH1 0x0 DUP1 REVERT JUMPDEST POP PUSH2 0x43F PUSH2 0x97E CALLDATASIZE PUSH1 0x4 PUSH2 0x3905 JUMP JUMPDEST PUSH2 0x19E1 JUMP JUMPDEST CALLVALUE DUP1 ISZERO PUSH2 0x98F JUMPI PUSH1 0x0 DUP1 REVERT JUMPDEST POP PUSH2 0x382 PUSH2 0x99E CALLDATASIZE PUSH1 0x4 PUSH2 0x3663 JUMP JUMPDEST PUSH2 0x1A06 JUMP JUMPDEST CALLVALUE DUP1 ISZERO PUSH2 0x9AF JUMPI PUSH1 0x0 DUP1 REVERT JUMPDEST POP PUSH2 0x197 SLOAD PUSH2 0x407 SWAP1 PUSH1 0x1 PUSH1 0x1 PUSH1 0xA0 SHL SUB AND DUP2 JUMP JUMPDEST CALLVALUE DUP1 ISZERO PUSH2 0x9D0 JUMPI PUSH1 0x0 DUP1 REVERT JUMPDEST POP PUSH2 0x43F PUSH2 0x9DF CALLDATASIZE PUSH1 0x4 PUSH2 0x3888 JUMP JUMPDEST PUSH2 0x1A1E JUMP JUMPDEST CALLVALUE DUP1 ISZERO PUSH2 0x9F0 JUMPI PUSH1 0x0 DUP1 REVERT JUMPDEST POP PUSH2 0x43F PUSH2 0x9FF CALLDATASIZE PUSH1 0x4 PUSH2 0x3888 JUMP JUMPDEST PUSH2 0x1A58 JUMP JUMPDEST CALLVALUE DUP1 ISZERO PUSH2 0xA10 JUMPI PUSH1 0x0 DUP1 REVERT JUMPDEST POP PUSH2 0x3B5 PUSH2 0xA1F CALLDATASIZE PUSH1 0x4 PUSH2 0x3C23 JUMP JUMPDEST PUSH1 0x1 PUSH1 0x1 PUSH1 0xA0 SHL SUB SWAP2 DUP3 AND PUSH1 0x0 SWAP1 DUP2 MSTORE PUSH1 0x6A PUSH1 0x20 SWAP1 DUP2 MSTORE PUSH1 0x40 DUP1 DUP4 KECCAK256 SWAP4 SWAP1 SWAP5 AND DUP3 MSTORE SWAP2 SWAP1 SWAP2 MSTORE KECCAK256 SLOAD PUSH1 0xFF AND SWAP1 JUMP JUMPDEST CALLVALUE DUP1 ISZERO PUSH2 0xA59 JUMPI PUSH1 0x0 DUP1 REVERT JUMPDEST POP PUSH2 0x3DA PUSH2 0x1A9D JUMP JUMPDEST CALLVALUE DUP1 ISZERO PUSH2 0xA6E JUMPI PUSH1 0x0 DUP1 REVERT JUMPDEST POP PUSH2 0x43F PUSH2 0xA7D CALLDATASIZE PUSH1 0x4 PUSH2 0x3D0E JUMP JUMPDEST PUSH2 0x1AAB JUMP JUMPDEST PUSH1 0x0 PUSH2 0xA8D DUP3 PUSH2 0x20C0 JUMP JUMPDEST SWAP3 SWAP2 POP POP JUMP JUMPDEST PUSH1 0x60 PUSH1 0x65 DUP1 SLOAD PUSH2 0xAA2 SWAP1 PUSH2 0x3DC5 JUMP JUMPDEST DUP1 PUSH1 0x1F ADD PUSH1 0x20 DUP1 SWAP2 DIV MUL PUSH1 0x20 ADD PUSH1 0x40 MLOAD SWAP1 DUP2 ADD PUSH1 0x40 MSTORE DUP1 SWAP3 SWAP2 SWAP1 DUP2 DUP2 MSTORE PUSH1 0x20 ADD DUP3 DUP1 SLOAD PUSH2 0xACE SWAP1 PUSH2 0x3DC5 JUMP JUMPDEST DUP1 ISZERO PUSH2 0xB1B JUMPI DUP1 PUSH1 0x1F LT PUSH2 0xAF0 JUMPI PUSH2 0x100 DUP1 DUP4 SLOAD DIV MUL DUP4 MSTORE SWAP2 PUSH1 0x20 ADD SWAP2 PUSH2 0xB1B JUMP JUMPDEST DUP3 ADD SWAP2 SWAP1 PUSH1 0x0 MSTORE PUSH1 0x20 PUSH1 0x0 KECCAK256 SWAP1 JUMPDEST DUP2 SLOAD DUP2 MSTORE SWAP1 PUSH1 0x1 ADD SWAP1 PUSH1 0x20 ADD DUP1 DUP4 GT PUSH2 0xAFE JUMPI DUP3 SWAP1 SUB PUSH1 0x1F AND DUP3 ADD SWAP2 JUMPDEST POP POP POP POP POP SWAP1 POP SWAP1 JUMP JUMPDEST PUSH1 0x0 PUSH2 0xB30 DUP3 PUSH2 0x20E5 JUMP JUMPDEST POP PUSH1 0x0 SWAP1 DUP2 MSTORE PUSH1 0x69 PUSH1 0x20 MSTORE PUSH1 0x40 SWAP1 KECCAK256 SLOAD PUSH1 0x1 PUSH1 0x1 PUSH1 0xA0 SHL SUB AND SWAP1 JUMP JUMPDEST PUSH1 0x0 PUSH2 0xB57 DUP3 PUSH2 0x1535 JUMP JUMPDEST SWAP1 POP DUP1 PUSH1 0x1 PUSH1 0x1 PUSH1 0xA0 SHL SUB AND DUP4 PUSH1 0x1 PUSH1 0x1 PUSH1 0xA0 SHL SUB AND SUB PUSH2 0xBC9 JUMPI PUSH1 0x40 MLOAD PUSH3 0x461BCD PUSH1 0xE5 SHL DUP2 MSTORE PUSH1 0x20 PUSH1 0x4 DUP3 ADD MSTORE PUSH1 0x21 PUSH1 0x24 DUP3 ADD MSTORE PUSH32 0x4552433732313A20617070726F76616C20746F2063757272656E74206F776E65 PUSH1 0x44 DUP3 ADD MSTORE PUSH1 0x39 PUSH1 0xF9 SHL PUSH1 0x64 DUP3 ADD MSTORE PUSH1 0x84 ADD JUMPDEST PUSH1 0x40 MLOAD DUP1 SWAP2 SUB SWAP1 REVERT JUMPDEST CALLER PUSH1 0x1 PUSH1 0x1 PUSH1 0xA0 SHL SUB DUP3 AND EQ DUP1 PUSH2 0xBE5 JUMPI POP PUSH2 0xBE5 DUP2 CALLER PUSH2 0xA1F JUMP JUMPDEST PUSH2 0xC57 JUMPI PUSH1 0x40 MLOAD PUSH3 0x461BCD PUSH1 0xE5 SHL DUP2 MSTORE PUSH1 0x20 PUSH1 0x4 DUP3 ADD MSTORE PUSH1 0x3E PUSH1 0x24 DUP3 ADD MSTORE PUSH32 0x4552433732313A20617070726F76652063616C6C6572206973206E6F7420746F PUSH1 0x44 DUP3 ADD MSTORE PUSH32 0x6B656E206F776E6572206E6F7220617070726F76656420666F7220616C6C0000 PUSH1 0x64 DUP3 ADD MSTORE PUSH1 0x84 ADD PUSH2 0xBC0 JUMP JUMPDEST PUSH2 0xC61 DUP4 DUP4 PUSH2 0x2144 JUMP JUMPDEST POP POP POP JUMP JUMPDEST CALLER PUSH1 0x0 SWAP1 DUP2 MSTORE PUSH2 0x1A2 PUSH1 0x20 MSTORE PUSH1 0x40 SWAP1 KECCAK256 SLOAD PUSH1 0x1 EQ PUSH2 0xCC6 JUMPI PUSH1 0x40 MLOAD PUSH3 0x461BCD PUSH1 0xE5 SHL DUP2 MSTORE PUSH1 0x20 PUSH1 0x4 DUP3 ADD MSTORE PUSH1 0x17 PUSH1 0x24 DUP3 ADD MSTORE PUSH32 0x43616C6C6572206973206E6F74206120747261696E6572000000000000000000 PUSH1 0x44 DUP3 ADD MSTORE PUSH1 0x64 ADD PUSH2 0xBC0 JUMP JUMPDEST PUSH1 0x0 JUMPDEST DUP3 DUP2 LT ISZERO PUSH2 0xD3A JUMPI DUP2 PUSH2 0x194 PUSH1 0x0 DUP7 DUP7 DUP6 DUP2 DUP2 LT PUSH2 0xCE9 JUMPI PUSH2 0xCE9 PUSH2 0x3DFF JUMP JUMPDEST SWAP1 POP PUSH1 0x20 MUL ADD PUSH1 0x20 DUP2 ADD SWAP1 PUSH2 0xCFE SWAP2 SWAP1 PUSH2 0x35B2 JUMP JUMPDEST PUSH1 0x1 PUSH1 0x1 PUSH1 0xA0 SHL SUB AND PUSH1 0x1 PUSH1 0x1 PUSH1 0xA0 SHL SUB AND DUP2 MSTORE PUSH1 0x20 ADD SWAP1 DUP2 MSTORE PUSH1 0x20 ADD PUSH1 0x0 KECCAK256 PUSH1 0x0 DUP3 DUP3 SLOAD PUSH2 0xD2D SWAP2 SWAP1 PUSH2 0x3E2B JUMP JUMPDEST SWAP1 SWAP2 SSTORE POP POP PUSH1 0x1 ADD PUSH2 0xCC9 JUMP JUMPDEST POP POP POP POP JUMP JUMPDEST PUSH1 0x0 PUSH2 0xD4B DUP2 PUSH2 0x21B2 JUMP JUMPDEST PUSH2 0x195 PUSH2 0xD3A DUP4 DUP6 DUP4 PUSH2 0x3E9B JUMP JUMPDEST PUSH2 0xD64 CALLER JUMPDEST DUP3 PUSH2 0x21BC JUMP JUMPDEST PUSH2 0xD80 JUMPI PUSH1 0x40 MLOAD PUSH3 0x461BCD PUSH1 0xE5 SHL DUP2 MSTORE PUSH1 0x4 ADD PUSH2 0xBC0 SWAP1 PUSH2 0x3F54 JUMP JUMPDEST PUSH2 0xC61 DUP4 DUP4 DUP4 PUSH2 0x223B JUMP JUMPDEST PUSH1 0x0 DUP3 DUP2 MSTORE PUSH1 0xFB PUSH1 0x20 MSTORE PUSH1 0x40 SWAP1 KECCAK256 PUSH1 0x1 ADD SLOAD PUSH2 0xDA6 DUP2 PUSH2 0x21B2 JUMP JUMPDEST PUSH2 0xC61 DUP4 DUP4 PUSH2 0x23E2 JUMP JUMPDEST PUSH1 0x0 PUSH2 0xDBB DUP4 PUSH2 0x15A3 JUMP JUMPDEST DUP3 LT PUSH2 0xE1D JUMPI PUSH1 0x40 MLOAD PUSH3 0x461BCD PUSH1 0xE5 SHL DUP2 MSTORE PUSH1 0x20 PUSH1 0x4 DUP3 ADD MSTORE PUSH1 0x2B PUSH1 0x24 DUP3 ADD MSTORE PUSH32 0x455243373231456E756D657261626C653A206F776E657220696E646578206F75 PUSH1 0x44 DUP3 ADD MSTORE PUSH11 0x74206F6620626F756E6473 PUSH1 0xA8 SHL PUSH1 0x64 DUP3 ADD MSTORE PUSH1 0x84 ADD PUSH2 0xBC0 JUMP JUMPDEST POP PUSH1 0x1 PUSH1 0x1 PUSH1 0xA0 SHL SUB SWAP2 SWAP1 SWAP2 AND PUSH1 0x0 SWAP1 DUP2 MSTORE PUSH1 0x97 PUSH1 0x20 SWAP1 DUP2 MSTORE PUSH1 0x40 DUP1 DUP4 KECCAK256 SWAP4 DUP4 MSTORE SWAP3 SWAP1 MSTORE KECCAK256 SLOAD SWAP1 JUMP JUMPDEST CALLER PUSH1 0x0 SWAP1 DUP2 MSTORE PUSH2 0x194 PUSH1 0x20 MSTORE PUSH1 0x40 SWAP1 KECCAK256 SLOAD PUSH2 0xE98 JUMPI PUSH1 0x40 MLOAD PUSH3 0x461BCD PUSH1 0xE5 SHL DUP2 MSTORE PUSH1 0x20 PUSH1 0x4 DUP3 ADD MSTORE PUSH1 0x12 PUSH1 0x24 DUP3 ADD MSTORE PUSH18 0x1B9BC81B5A5B9D1A5B99C8185B1B1BDDD959 PUSH1 0x72 SHL PUSH1 0x44 DUP3 ADD MSTORE PUSH1 0x64 ADD PUSH2 0xBC0 JUMP JUMPDEST CALLER PUSH1 0x0 SWAP1 DUP2 MSTORE PUSH2 0x194 PUSH1 0x20 MSTORE PUSH1 0x40 DUP2 KECCAK256 DUP1 SLOAD SWAP2 PUSH2 0xEB4 DUP4 PUSH2 0x3FA2 JUMP JUMPDEST SWAP2 SWAP1 POP SSTORE POP PUSH2 0xEC2 DUP2 PUSH2 0x2468 JUMP JUMPDEST POP JUMP JUMPDEST PUSH1 0x0 PUSH2 0xED0 DUP2 PUSH2 0x21B2 JUMP JUMPDEST PUSH2 0xEDD DUP7 DUP7 DUP7 DUP7 DUP7 PUSH2 0x24F1 JUMP JUMPDEST POP POP POP POP POP POP JUMP JUMPDEST PUSH1 0x1 PUSH1 0x1 PUSH1 0xA0 SHL SUB DUP2 AND CALLER EQ PUSH2 0xF55 JUMPI PUSH1 0x40 MLOAD PUSH3 0x461BCD PUSH1 0xE5 SHL DUP2 MSTORE PUSH1 0x20 PUSH1 0x4 DUP3 ADD MSTORE PUSH1 0x2F PUSH1 0x24 DUP3 ADD MSTORE PUSH32 0x416363657373436F6E74726F6C3A2063616E206F6E6C792072656E6F756E6365 PUSH1 0x44 DUP3 ADD MSTORE PUSH15 0x103937B632B9903337B91039B2B633 PUSH1 0x89 SHL PUSH1 0x64 DUP3 ADD MSTORE PUSH1 0x84 ADD PUSH2 0xBC0 JUMP JUMPDEST PUSH2 0xF5F DUP3 DUP3 PUSH2 0x2629 JUMP JUMPDEST POP POP JUMP JUMPDEST PUSH1 0x1 PUSH1 0x1 PUSH1 0xA0 SHL SUB PUSH32 0x0 AND ADDRESS SUB PUSH2 0xFAB JUMPI PUSH1 0x40 MLOAD PUSH3 0x461BCD PUSH1 0xE5 SHL DUP2 MSTORE PUSH1 0x4 ADD PUSH2 0xBC0 SWAP1 PUSH2 0x3FB9 JUMP JUMPDEST PUSH32 0x0 PUSH1 0x1 PUSH1 0x1 PUSH1 0xA0 SHL SUB AND PUSH2 0xFF4 PUSH1 0x0 DUP1 MLOAD PUSH1 0x20 PUSH2 0x4505 DUP4 CODECOPY DUP2 MLOAD SWAP2 MSTORE SLOAD PUSH1 0x1 PUSH1 0x1 PUSH1 0xA0 SHL SUB AND SWAP1 JUMP JUMPDEST PUSH1 0x1 PUSH1 0x1 PUSH1 0xA0 SHL SUB AND EQ PUSH2 0x101A JUMPI PUSH1 0x40 MLOAD PUSH3 0x461BCD PUSH1 0xE5 SHL DUP2 MSTORE PUSH1 0x4 ADD PUSH2 0xBC0 SWAP1 PUSH2 0x4005 JUMP JUMPDEST PUSH2 0x1023 DUP2 PUSH2 0x2690 JUMP JUMPDEST PUSH1 0x40 DUP1 MLOAD PUSH1 0x0 DUP1 DUP3 MSTORE PUSH1 0x20 DUP3 ADD SWAP1 SWAP3 MSTORE PUSH2 0xEC2 SWAP2 DUP4 SWAP2 SWAP1 PUSH2 0x269B JUMP JUMPDEST PUSH2 0xC61 DUP4 DUP4 DUP4 PUSH1 0x40 MLOAD DUP1 PUSH1 0x20 ADD PUSH1 0x40 MSTORE DUP1 PUSH1 0x0 DUP2 MSTORE POP PUSH2 0x18B1 JUMP JUMPDEST PUSH2 0x1063 CALLER PUSH2 0xD5E JUMP JUMPDEST PUSH2 0x107F JUMPI PUSH1 0x40 MLOAD PUSH3 0x461BCD PUSH1 0xE5 SHL DUP2 MSTORE PUSH1 0x4 ADD PUSH2 0xBC0 SWAP1 PUSH2 0x3F54 JUMP JUMPDEST PUSH2 0xEC2 DUP2 PUSH2 0x2806 JUMP JUMPDEST PUSH2 0x1A1 DUP1 SLOAD PUSH2 0x1096 SWAP1 PUSH2 0x3DC5 JUMP JUMPDEST DUP1 PUSH1 0x1F ADD PUSH1 0x20 DUP1 SWAP2 DIV MUL PUSH1 0x20 ADD PUSH1 0x40 MLOAD SWAP1 DUP2 ADD PUSH1 0x40 MSTORE DUP1 SWAP3 SWAP2 SWAP1 DUP2 DUP2 MSTORE PUSH1 0x20 ADD DUP3 DUP1 SLOAD PUSH2 0x10C2 SWAP1 PUSH2 0x3DC5 JUMP JUMPDEST DUP1 ISZERO PUSH2 0x110F JUMPI DUP1 PUSH1 0x1F LT PUSH2 0x10E4 JUMPI PUSH2 0x100 DUP1 DUP4 SLOAD DIV MUL DUP4 MSTORE SWAP2 PUSH1 0x20 ADD SWAP2 PUSH2 0x110F JUMP JUMPDEST DUP3 ADD SWAP2 SWAP1 PUSH1 0x0 MSTORE PUSH1 0x20 PUSH1 0x0 KECCAK256 SWAP1 JUMPDEST DUP2 SLOAD DUP2 MSTORE SWAP1 PUSH1 0x1 ADD SWAP1 PUSH1 0x20 ADD DUP1 DUP4 GT PUSH2 0x10F2 JUMPI DUP3 SWAP1 SUB PUSH1 0x1F AND DUP3 ADD SWAP2 JUMPDEST POP POP POP POP POP DUP2 JUMP JUMPDEST PUSH1 0x1 PUSH1 0x1 PUSH1 0xA0 SHL SUB PUSH32 0x0 AND ADDRESS SUB PUSH2 0x115F JUMPI PUSH1 0x40 MLOAD PUSH3 0x461BCD PUSH1 0xE5 SHL DUP2 MSTORE PUSH1 0x4 ADD PUSH2 0xBC0 SWAP1 PUSH2 0x3FB9 JUMP JUMPDEST PUSH32 0x0 PUSH1 0x1 PUSH1 0x1 PUSH1 0xA0 SHL SUB AND PUSH2 0x11A8 PUSH1 0x0 DUP1 MLOAD PUSH1 0x20 PUSH2 0x4505 DUP4 CODECOPY DUP2 MLOAD SWAP2 MSTORE SLOAD PUSH1 0x1 PUSH1 0x1 PUSH1 0xA0 SHL SUB AND SWAP1 JUMP JUMPDEST PUSH1 0x1 PUSH1 0x1 PUSH1 0xA0 SHL SUB AND EQ PUSH2 0x11CE JUMPI PUSH1 0x40 MLOAD PUSH3 0x461BCD PUSH1 0xE5 SHL DUP2 MSTORE PUSH1 0x4 ADD PUSH2 0xBC0 SWAP1 PUSH2 0x4005 JUMP JUMPDEST PUSH2 0x11D7 DUP3 PUSH2 0x2690 JUMP JUMPDEST PUSH2 0xF5F DUP3 DUP3 PUSH1 0x1 PUSH2 0x269B JUMP JUMPDEST PUSH1 0x0 PUSH2 0x11EE PUSH1 0x99 SLOAD SWAP1 JUMP JUMPDEST DUP3 LT PUSH2 0x1251 JUMPI PUSH1 0x40 MLOAD PUSH3 0x461BCD PUSH1 0xE5 SHL DUP2 MSTORE PUSH1 0x20 PUSH1 0x4 DUP3 ADD MSTORE PUSH1 0x2C PUSH1 0x24 DUP3 ADD MSTORE PUSH32 0x455243373231456E756D657261626C653A20676C6F62616C20696E646578206F PUSH1 0x44 DUP3 ADD MSTORE PUSH12 0x7574206F6620626F756E6473 PUSH1 0xA0 SHL PUSH1 0x64 DUP3 ADD MSTORE PUSH1 0x84 ADD PUSH2 0xBC0 JUMP JUMPDEST PUSH1 0x99 DUP3 DUP2 SLOAD DUP2 LT PUSH2 0x1264 JUMPI PUSH2 0x1264 PUSH2 0x3DFF JUMP JUMPDEST SWAP1 PUSH1 0x0 MSTORE PUSH1 0x20 PUSH1 0x0 KECCAK256 ADD SLOAD SWAP1 POP SWAP2 SWAP1 POP JUMP JUMPDEST PUSH1 0x0 PUSH2 0x1281 DUP2 PUSH2 0x21B2 JUMP JUMPDEST POP PUSH1 0x1 PUSH1 0x1 PUSH1 0xA0 SHL SUB AND PUSH1 0x0 SWAP1 DUP2 MSTORE PUSH2 0x1A2 PUSH1 0x20 MSTORE PUSH1 0x40 SWAP1 KECCAK256 PUSH1 0x1 SWAP1 SSTORE JUMP JUMPDEST PUSH1 0x0 ADDRESS PUSH1 0x1 PUSH1 0x1 PUSH1 0xA0 SHL SUB PUSH32 0x0 AND EQ PUSH2 0x1340 JUMPI PUSH1 0x40 MLOAD PUSH3 0x461BCD PUSH1 0xE5 SHL DUP2 MSTORE PUSH1 0x20 PUSH1 0x4 DUP3 ADD MSTORE PUSH1 0x38 PUSH1 0x24 DUP3 ADD MSTORE PUSH32 0x555550535570677261646561626C653A206D757374206E6F742062652063616C PUSH1 0x44 DUP3 ADD MSTORE PUSH32 0x6C6564207468726F7567682064656C656761746563616C6C0000000000000000 PUSH1 0x64 DUP3 ADD MSTORE PUSH1 0x84 ADD PUSH2 0xBC0 JUMP JUMPDEST POP PUSH1 0x0 DUP1 MLOAD PUSH1 0x20 PUSH2 0x4505 DUP4 CODECOPY DUP2 MLOAD SWAP2 MSTORE SWAP1 JUMP JUMPDEST PUSH1 0x0 PUSH2 0x135E DUP2 PUSH2 0x21B2 JUMP JUMPDEST PUSH2 0x196 PUSH2 0xD3A DUP4 DUP6 DUP4 PUSH2 0x3E9B JUMP JUMPDEST PUSH2 0x193 PUSH1 0x20 MSTORE PUSH1 0x0 SWAP1 DUP2 MSTORE PUSH1 0x40 SWAP1 KECCAK256 DUP1 SLOAD DUP2 SWAP1 PUSH2 0x1388 SWAP1 PUSH2 0x3DC5 JUMP JUMPDEST DUP1 PUSH1 0x1F ADD PUSH1 0x20 DUP1 SWAP2 DIV MUL PUSH1 0x20 ADD PUSH1 0x40 MLOAD SWAP1 DUP2 ADD PUSH1 0x40 MSTORE DUP1 SWAP3 SWAP2 SWAP1 DUP2 DUP2 MSTORE PUSH1 0x20 ADD DUP3 DUP1 SLOAD PUSH2 0x13B4 SWAP1 PUSH2 0x3DC5 JUMP JUMPDEST DUP1 ISZERO PUSH2 0x1401 JUMPI DUP1 PUSH1 0x1F LT PUSH2 0x13D6 JUMPI PUSH2 0x100 DUP1 DUP4 SLOAD DIV MUL DUP4 MSTORE SWAP2 PUSH1 0x20 ADD SWAP2 PUSH2 0x1401 JUMP JUMPDEST DUP3 ADD SWAP2 SWAP1 PUSH1 0x0 MSTORE PUSH1 0x20 PUSH1 0x0 KECCAK256 SWAP1 JUMPDEST DUP2 SLOAD DUP2 MSTORE SWAP1 PUSH1 0x1 ADD SWAP1 PUSH1 0x20 ADD DUP1 DUP4 GT PUSH2 0x13E4 JUMPI DUP3 SWAP1 SUB PUSH1 0x1F AND DUP3 ADD SWAP2 JUMPDEST POP POP POP POP POP SWAP1 DUP1 PUSH1 0x1 ADD DUP1 SLOAD PUSH2 0x1416 SWAP1 PUSH2 0x3DC5 JUMP JUMPDEST DUP1 PUSH1 0x1F ADD PUSH1 0x20 DUP1 SWAP2 DIV MUL PUSH1 0x20 ADD PUSH1 0x40 MLOAD SWAP1 DUP2 ADD PUSH1 0x40 MSTORE DUP1 SWAP3 SWAP2 SWAP1 DUP2 DUP2 MSTORE PUSH1 0x20 ADD DUP3 DUP1 SLOAD PUSH2 0x1442 SWAP1 PUSH2 0x3DC5 JUMP JUMPDEST DUP1 ISZERO PUSH2 0x148F JUMPI DUP1 PUSH1 0x1F LT PUSH2 0x1464 JUMPI PUSH2 0x100 DUP1 DUP4 SLOAD DIV MUL DUP4 MSTORE SWAP2 PUSH1 0x20 ADD SWAP2 PUSH2 0x148F JUMP JUMPDEST DUP3 ADD SWAP2 SWAP1 PUSH1 0x0 MSTORE PUSH1 0x20 PUSH1 0x0 KECCAK256 SWAP1 JUMPDEST DUP2 SLOAD DUP2 MSTORE SWAP1 PUSH1 0x1 ADD SWAP1 PUSH1 0x20 ADD DUP1 DUP4 GT PUSH2 0x1472 JUMPI DUP3 SWAP1 SUB PUSH1 0x1F AND DUP3 ADD SWAP2 JUMPDEST POP POP POP POP POP SWAP1 DUP1 PUSH1 0x2 ADD DUP1 SLOAD PUSH2 0x14A4 SWAP1 PUSH2 0x3DC5 JUMP JUMPDEST DUP1 PUSH1 0x1F ADD PUSH1 0x20 DUP1 SWAP2 DIV MUL PUSH1 0x20 ADD PUSH1 0x40 MLOAD SWAP1 DUP2 ADD PUSH1 0x40 MSTORE DUP1 SWAP3 SWAP2 SWAP1 DUP2 DUP2 MSTORE PUSH1 0x20 ADD DUP3 DUP1 SLOAD PUSH2 0x14D0 SWAP1 PUSH2 0x3DC5 JUMP JUMPDEST DUP1 ISZERO PUSH2 0x151D JUMPI DUP1 PUSH1 0x1F LT PUSH2 0x14F2 JUMPI PUSH2 0x100 DUP1 DUP4 SLOAD DIV MUL DUP4 MSTORE SWAP2 PUSH1 0x20 ADD SWAP2 PUSH2 0x151D JUMP JUMPDEST DUP3 ADD SWAP2 SWAP1 PUSH1 0x0 MSTORE PUSH1 0x20 PUSH1 0x0 KECCAK256 SWAP1 JUMPDEST DUP2 SLOAD DUP2 MSTORE SWAP1 PUSH1 0x1 ADD SWAP1 PUSH1 0x20 ADD DUP1 DUP4 GT PUSH2 0x1500 JUMPI DUP3 SWAP1 SUB PUSH1 0x1F AND DUP3 ADD SWAP2 JUMPDEST POP POP POP POP POP SWAP1 POP DUP4 JUMP JUMPDEST PUSH2 0x195 DUP1 SLOAD PUSH2 0x1096 SWAP1 PUSH2 0x3DC5 JUMP JUMPDEST PUSH1 0x0 DUP2 DUP2 MSTORE PUSH1 0x67 PUSH1 0x20 MSTORE PUSH1 0x40 DUP2 KECCAK256 SLOAD PUSH1 0x1 PUSH1 0x1 PUSH1 0xA0 SHL SUB AND DUP1 PUSH2 0xA8D JUMPI PUSH1 0x40 MLOAD PUSH3 0x461BCD PUSH1 0xE5 SHL DUP2 MSTORE PUSH1 0x20 PUSH1 0x4 DUP3 ADD MSTORE PUSH1 0x18 PUSH1 0x24 DUP3 ADD MSTORE PUSH24 0x115490CDCC8C4E881A5B9D985B1A59081D1BDAD95B881251 PUSH1 0x42 SHL PUSH1 0x44 DUP3 ADD MSTORE PUSH1 0x64 ADD PUSH2 0xBC0 JUMP JUMPDEST PUSH2 0x196 DUP1 SLOAD PUSH2 0x1096 SWAP1 PUSH2 0x3DC5 JUMP JUMPDEST PUSH1 0x0 PUSH1 0x1 PUSH1 0x1 PUSH1 0xA0 SHL SUB DUP3 AND PUSH2 0x160D JUMPI PUSH1 0x40 MLOAD PUSH3 0x461BCD PUSH1 0xE5 SHL DUP2 MSTORE PUSH1 0x20 PUSH1 0x4 DUP3 ADD MSTORE PUSH1 0x29 PUSH1 0x24 DUP3 ADD MSTORE PUSH32 0x4552433732313A2061646472657373207A65726F206973206E6F742061207661 PUSH1 0x44 DUP3 ADD MSTORE PUSH9 0x3634B21037BBB732B9 PUSH1 0xB9 SHL PUSH1 0x64 DUP3 ADD MSTORE PUSH1 0x84 ADD PUSH2 0xBC0 JUMP JUMPDEST POP PUSH1 0x1 PUSH1 0x1 PUSH1 0xA0 SHL SUB AND PUSH1 0x0 SWAP1 DUP2 MSTORE PUSH1 0x68 PUSH1 0x20 MSTORE PUSH1 0x40 SWAP1 KECCAK256 SLOAD SWAP1 JUMP JUMPDEST PUSH1 0x0 PUSH2 0x1634 DUP2 PUSH2 0x21B2 JUMP JUMPDEST PUSH2 0x163E DUP8 DUP8 PUSH2 0x1A58 JUMP JUMPDEST PUSH2 0x197 DUP1 SLOAD PUSH1 0x1 PUSH1 0x1 PUSH1 0xA0 SHL SUB NOT AND PUSH1 0x1 PUSH1 0x1 PUSH1 0xA0 SHL SUB DUP13 AND OR SWAP1 SSTORE PUSH2 0x1668 PUSH2 0x198 DUP11 PUSH1 0x2 PUSH2 0x3543 JUMP JUMPDEST POP PUSH2 0x19F PUSH2 0x1677 DUP8 DUP10 DUP4 PUSH2 0x3E9B JUMP JUMPDEST POP PUSH2 0x1A0 PUSH2 0x1686 DUP6 DUP8 DUP4 PUSH2 0x3E9B JUMP JUMPDEST POP PUSH2 0x1A1 PUSH2 0x1695 DUP4 DUP6 DUP4 PUSH2 0x3E9B JUMP JUMPDEST POP PUSH2 0x19B DUP9 SWAP1 SSTORE PUSH1 0x0 PUSH2 0x19C DUP2 SWAP1 SSTORE PUSH2 0x19A DUP1 SLOAD SWAP2 PUSH2 0x16B3 DUP4 PUSH2 0x4051 JUMP JUMPDEST SWAP2 SWAP1 POP SSTORE POP POP POP POP POP POP POP POP POP POP POP JUMP JUMPDEST PUSH1 0x0 SLOAD PUSH2 0x100 SWAP1 DIV PUSH1 0xFF AND ISZERO DUP1 DUP1 ISZERO PUSH2 0x16E4 JUMPI POP PUSH1 0x0 SLOAD PUSH1 0x1 PUSH1 0xFF SWAP1 SWAP2 AND LT JUMPDEST DUP1 PUSH2 0x16FE JUMPI POP ADDRESS EXTCODESIZE ISZERO DUP1 ISZERO PUSH2 0x16FE JUMPI POP PUSH1 0x0 SLOAD PUSH1 0xFF AND PUSH1 0x1 EQ JUMPDEST PUSH2 0x1761 JUMPI PUSH1 0x40 MLOAD PUSH3 0x461BCD PUSH1 0xE5 SHL DUP2 MSTORE PUSH1 0x20 PUSH1 0x4 DUP3 ADD MSTORE PUSH1 0x2E PUSH1 0x24 DUP3 ADD MSTORE PUSH32 0x496E697469616C697A61626C653A20636F6E747261637420697320616C726561 PUSH1 0x44 DUP3 ADD MSTORE PUSH14 0x191E481A5B9A5D1A585B1A5E9959 PUSH1 0x92 SHL PUSH1 0x64 DUP3 ADD MSTORE PUSH1 0x84 ADD PUSH2 0xBC0 JUMP JUMPDEST PUSH1 0x0 DUP1 SLOAD PUSH1 0xFF NOT AND PUSH1 0x1 OR SWAP1 SSTORE DUP1 ISZERO PUSH2 0x1784 JUMPI PUSH1 0x0 DUP1 SLOAD PUSH2 0xFF00 NOT AND PUSH2 0x100 OR SWAP1 SSTORE JUMPDEST PUSH2 0x17C4 PUSH1 0x40 MLOAD DUP1 PUSH1 0x40 ADD PUSH1 0x40 MSTORE DUP1 PUSH1 0x5 DUP2 MSTORE PUSH1 0x20 ADD PUSH5 0xA4CADAD2F PUSH1 0xDB SHL DUP2 MSTORE POP PUSH1 0x40 MLOAD DUP1 PUSH1 0x40 ADD PUSH1 0x40 MSTORE DUP1 PUSH1 0x1 DUP2 MSTORE PUSH1 0x20 ADD PUSH1 0x29 PUSH1 0xF9 SHL DUP2 MSTORE POP PUSH2 0x28AD JUMP JUMPDEST PUSH2 0x17CC PUSH2 0x28DE JUMP JUMPDEST PUSH2 0x17D4 PUSH2 0x28DE JUMP JUMPDEST PUSH2 0x17DC PUSH2 0x28DE JUMP JUMPDEST PUSH2 0x17E4 PUSH2 0x28DE JUMP JUMPDEST PUSH2 0x17EF PUSH1 0x0 CALLER PUSH2 0x2907 JUMP JUMPDEST DUP1 ISZERO PUSH2 0xEC2 JUMPI PUSH1 0x0 DUP1 SLOAD PUSH2 0xFF00 NOT AND SWAP1 SSTORE PUSH1 0x40 MLOAD PUSH1 0x1 DUP2 MSTORE PUSH32 0x7F26B83FF96E1F2B6A682F133852F6798A09C465DA95921460CEFB3847402498 SWAP1 PUSH1 0x20 ADD PUSH1 0x40 MLOAD DUP1 SWAP2 SUB SWAP1 LOG1 POP JUMP JUMPDEST PUSH1 0x0 PUSH2 0x1842 DUP2 PUSH2 0x21B2 JUMP JUMPDEST POP PUSH1 0x1 PUSH1 0x1 PUSH1 0xA0 SHL SUB AND PUSH1 0x0 SWAP1 DUP2 MSTORE PUSH2 0x1A2 PUSH1 0x20 MSTORE PUSH1 0x40 DUP2 KECCAK256 SSTORE JUMP JUMPDEST PUSH1 0x0 SWAP2 DUP3 MSTORE PUSH1 0xFB PUSH1 0x20 SWAP1 DUP2 MSTORE PUSH1 0x40 DUP1 DUP5 KECCAK256 PUSH1 0x1 PUSH1 0x1 PUSH1 0xA0 SHL SUB SWAP4 SWAP1 SWAP4 AND DUP5 MSTORE SWAP2 SWAP1 MSTORE SWAP1 KECCAK256 SLOAD PUSH1 0xFF AND SWAP1 JUMP JUMPDEST PUSH1 0x60 PUSH1 0x66 DUP1 SLOAD PUSH2 0xAA2 SWAP1 PUSH2 0x3DC5 JUMP JUMPDEST PUSH2 0x19F DUP1 SLOAD PUSH2 0x1096 SWAP1 PUSH2 0x3DC5 JUMP JUMPDEST PUSH2 0xF5F CALLER DUP4 DUP4 PUSH2 0x2911 JUMP JUMPDEST PUSH2 0x18BB CALLER DUP4 PUSH2 0x21BC JUMP JUMPDEST PUSH2 0x18D7 JUMPI PUSH1 0x40 MLOAD PUSH3 0x461BCD PUSH1 0xE5 SHL DUP2 MSTORE PUSH1 0x4 ADD PUSH2 0xBC0 SWAP1 PUSH2 0x3F54 JUMP JUMPDEST PUSH2 0xD3A DUP5 DUP5 DUP5 DUP5 PUSH2 0x29DF JUMP JUMPDEST PUSH1 0x0 PUSH2 0x18EE DUP2 PUSH2 0x21B2 JUMP JUMPDEST PUSH2 0x18F7 DUP5 PUSH2 0x20E5 JUMP JUMPDEST PUSH1 0x0 DUP5 DUP2 MSTORE PUSH2 0x193 PUSH1 0x20 MSTORE PUSH1 0x40 SWAP1 KECCAK256 PUSH1 0x2 ADD DUP1 SLOAD PUSH2 0x1914 SWAP1 PUSH2 0x3DC5 JUMP JUMPDEST ISZERO SWAP1 POP PUSH2 0x1956 JUMPI PUSH1 0x40 MLOAD PUSH3 0x461BCD PUSH1 0xE5 SHL DUP2 MSTORE PUSH1 0x20 PUSH1 0x4 DUP3 ADD MSTORE PUSH1 0x10 PUSH1 0x24 DUP3 ADD MSTORE PUSH16 0x1A185CDA08185B1C9958591E481CD95D PUSH1 0x82 SHL PUSH1 0x44 DUP3 ADD MSTORE PUSH1 0x64 ADD PUSH2 0xBC0 JUMP JUMPDEST PUSH1 0x0 DUP5 DUP2 MSTORE PUSH2 0x193 PUSH1 0x20 MSTORE PUSH1 0x40 SWAP1 KECCAK256 PUSH1 0x2 ADD PUSH2 0x1973 DUP4 DUP6 DUP4 PUSH2 0x3E9B JUMP JUMPDEST POP POP POP POP POP JUMP JUMPDEST PUSH1 0x60 PUSH2 0x1985 DUP3 PUSH2 0x20E5 JUMP JUMPDEST PUSH1 0x0 PUSH2 0x198F PUSH2 0x2A12 JUMP JUMPDEST SWAP1 POP PUSH1 0x0 DUP2 MLOAD GT PUSH2 0x19AF JUMPI PUSH1 0x40 MLOAD DUP1 PUSH1 0x20 ADD PUSH1 0x40 MSTORE DUP1 PUSH1 0x0 DUP2 MSTORE POP PUSH2 0x19DA JUMP JUMPDEST DUP1 PUSH2 0x19B9 DUP5 PUSH2 0x2A22 JUMP JUMPDEST PUSH1 0x40 MLOAD PUSH1 0x20 ADD PUSH2 0x19CA SWAP3 SWAP2 SWAP1 PUSH2 0x406A JUMP JUMPDEST PUSH1 0x40 MLOAD PUSH1 0x20 DUP2 DUP4 SUB SUB DUP2 MSTORE SWAP1 PUSH1 0x40 MSTORE JUMPDEST SWAP4 SWAP3 POP POP POP JUMP JUMPDEST PUSH1 0x0 DUP3 DUP2 MSTORE PUSH1 0xFB PUSH1 0x20 MSTORE PUSH1 0x40 SWAP1 KECCAK256 PUSH1 0x1 ADD SLOAD PUSH2 0x19FC DUP2 PUSH2 0x21B2 JUMP JUMPDEST PUSH2 0xC61 DUP4 DUP4 PUSH2 0x2629 JUMP JUMPDEST PUSH2 0x198 DUP2 PUSH1 0x2 DUP2 LT PUSH2 0x1A17 JUMPI PUSH1 0x0 DUP1 REVERT JUMPDEST ADD SLOAD SWAP1 POP DUP2 JUMP JUMPDEST PUSH1 0x0 PUSH2 0x1A29 DUP2 PUSH2 0x21B2 JUMP JUMPDEST PUSH2 0x192 DUP4 DUP4 PUSH1 0x40 MLOAD PUSH2 0x1A3C SWAP3 SWAP2 SWAP1 PUSH2 0x4099 JUMP JUMPDEST SWAP1 DUP2 MSTORE PUSH1 0x40 MLOAD SWAP1 DUP2 SWAP1 SUB PUSH1 0x20 ADD SWAP1 KECCAK256 DUP1 SLOAD PUSH1 0xFF NOT AND SWAP1 SSTORE POP POP POP JUMP JUMPDEST PUSH1 0x0 PUSH2 0x1A63 DUP2 PUSH2 0x21B2 JUMP JUMPDEST PUSH1 0x1 PUSH2 0x192 DUP5 DUP5 PUSH1 0x40 MLOAD PUSH2 0x1A78 SWAP3 SWAP2 SWAP1 PUSH2 0x4099 JUMP JUMPDEST SWAP1 DUP2 MSTORE PUSH1 0x40 MLOAD SWAP1 DUP2 SWAP1 SUB PUSH1 0x20 ADD SWAP1 KECCAK256 DUP1 SLOAD SWAP2 ISZERO ISZERO PUSH1 0xFF NOT SWAP1 SWAP3 AND SWAP2 SWAP1 SWAP2 OR SWAP1 SSTORE POP POP POP JUMP JUMPDEST PUSH2 0x1A0 DUP1 SLOAD PUSH2 0x1096 SWAP1 PUSH2 0x3DC5 JUMP JUMPDEST PUSH2 0x197 SLOAD PUSH1 0x1 PUSH1 0x1 PUSH1 0xA0 SHL SUB AND PUSH2 0x1AFB JUMPI PUSH1 0x40 MLOAD PUSH3 0x461BCD PUSH1 0xE5 SHL DUP2 MSTORE PUSH1 0x20 PUSH1 0x4 DUP3 ADD MSTORE PUSH1 0x14 PUSH1 0x24 DUP3 ADD MSTORE PUSH20 0x1B9BC818DA185B1B195B99D9481CDD185C9D1959 PUSH1 0x62 SHL PUSH1 0x44 DUP3 ADD MSTORE PUSH1 0x64 ADD PUSH2 0xBC0 JUMP JUMPDEST PUSH2 0x19B SLOAD PUSH2 0x19C SLOAD LT PUSH2 0x1B5A JUMPI PUSH1 0x40 MLOAD PUSH3 0x461BCD PUSH1 0xE5 SHL DUP2 MSTORE PUSH1 0x20 PUSH1 0x4 DUP3 ADD MSTORE PUSH1 0x21 PUSH1 0x24 DUP3 ADD MSTORE PUSH32 0x7075626C6973686572732072656163686564206D6178696D756D20616D6F756E PUSH1 0x44 DUP3 ADD MSTORE PUSH1 0x1D PUSH1 0xFA SHL PUSH1 0x64 DUP3 ADD MSTORE PUSH1 0x84 ADD PUSH2 0xBC0 JUMP JUMPDEST PUSH2 0x19A SLOAD PUSH1 0x40 DUP1 DUP4 ADD MLOAD DUP2 MLOAD PUSH1 0x20 DUP2 ADD SWAP4 SWAP1 SWAP4 MSTORE SWAP1 DUP3 ADD MSTORE PUSH1 0x0 SWAP1 PUSH1 0x60 ADD PUSH1 0x40 DUP1 MLOAD DUP1 DUP4 SUB PUSH1 0x1F NOT ADD DUP2 MSTORE DUP3 DUP3 MSTORE PUSH2 0x19A SLOAD PUSH1 0x20 DUP5 ADD MSTORE CALLER PUSH1 0x60 SHL PUSH12 0xFFFFFFFFFFFFFFFFFFFFFFFF NOT AND DUP4 DUP4 ADD MSTORE DUP2 MLOAD PUSH1 0x34 DUP2 DUP6 SUB ADD DUP2 MSTORE PUSH1 0x54 SWAP1 SWAP4 ADD SWAP2 DUP3 SWAP1 MSTORE SWAP3 POP PUSH2 0x19D SWAP1 PUSH2 0x1BCC SWAP1 DUP5 SWAP1 PUSH2 0x40A9 JUMP JUMPDEST SWAP1 DUP2 MSTORE PUSH1 0x20 ADD PUSH1 0x40 MLOAD DUP1 SWAP2 SUB SWAP1 KECCAK256 SLOAD PUSH1 0x0 EQ PUSH2 0x1C2A JUMPI PUSH1 0x40 MLOAD PUSH3 0x461BCD PUSH1 0xE5 SHL DUP2 MSTORE PUSH1 0x20 PUSH1 0x4 DUP3 ADD MSTORE PUSH1 0x17 PUSH1 0x24 DUP3 ADD MSTORE PUSH32 0x70726F6F6620616C7265616479207075626C6973686564000000000000000000 PUSH1 0x44 DUP3 ADD MSTORE PUSH1 0x64 ADD PUSH2 0xBC0 JUMP JUMPDEST PUSH2 0x19E DUP2 PUSH1 0x40 MLOAD PUSH2 0x1C3B SWAP2 SWAP1 PUSH2 0x40A9 JUMP JUMPDEST SWAP1 DUP2 MSTORE PUSH1 0x20 ADD PUSH1 0x40 MLOAD DUP1 SWAP2 SUB SWAP1 KECCAK256 SLOAD PUSH1 0x0 EQ PUSH2 0x1CA9 JUMPI PUSH1 0x40 MLOAD PUSH3 0x461BCD PUSH1 0xE5 SHL DUP2 MSTORE PUSH1 0x20 PUSH1 0x4 DUP3 ADD MSTORE PUSH1 0x27 PUSH1 0x24 DUP3 ADD MSTORE PUSH32 0x63757272656E74207075626C69736865642068617320616C7265616479207375 PUSH1 0x44 DUP3 ADD MSTORE PUSH7 0x189B5A5D1D1959 PUSH1 0xCA SHL PUSH1 0x64 DUP3 ADD MSTORE PUSH1 0x84 ADD PUSH2 0xBC0 JUMP JUMPDEST DUP3 MLOAD PUSH2 0x198 SLOAD EQ PUSH2 0x1CFC JUMPI PUSH1 0x40 MLOAD PUSH3 0x461BCD PUSH1 0xE5 SHL DUP2 MSTORE PUSH1 0x20 PUSH1 0x4 DUP3 ADD MSTORE PUSH1 0x1F PUSH1 0x24 DUP3 ADD MSTORE PUSH32 0x70726F7669646564206368616C6C656E6765206973206E6F742076616C696400 PUSH1 0x44 DUP3 ADD MSTORE PUSH1 0x64 ADD PUSH2 0xBC0 JUMP JUMPDEST PUSH1 0x20 DUP4 ADD MLOAD PUSH2 0x199 SLOAD EQ PUSH2 0x1D52 JUMPI PUSH1 0x40 MLOAD PUSH3 0x461BCD PUSH1 0xE5 SHL DUP2 MSTORE PUSH1 0x20 PUSH1 0x4 DUP3 ADD MSTORE PUSH1 0x1F PUSH1 0x24 DUP3 ADD MSTORE PUSH32 0x70726F7669646564206368616C6C656E6765206973206E6F742076616C696400 PUSH1 0x44 DUP3 ADD MSTORE PUSH1 0x64 ADD PUSH2 0xBC0 JUMP JUMPDEST PUSH2 0x197 SLOAD PUSH1 0x40 MLOAD PUSH1 0x0 SWAP2 DUP3 SWAP2 PUSH1 0x1 PUSH1 0x1 PUSH1 0xA0 SHL SUB SWAP1 SWAP2 AND SWAP1 DUP3 SWAP1 PUSH2 0x1D7C SWAP1 DUP10 SWAP1 DUP10 SWAP1 PUSH1 0x24 ADD PUSH2 0x40E8 JUMP JUMPDEST PUSH1 0x40 DUP1 MLOAD PUSH1 0x1F NOT DUP2 DUP5 SUB ADD DUP2 MSTORE SWAP2 DUP2 MSTORE PUSH1 0x20 DUP3 ADD DUP1 MLOAD PUSH1 0x1 PUSH1 0x1 PUSH1 0xE0 SHL SUB AND PUSH4 0xF9C5D49 PUSH1 0xE0 SHL OR SWAP1 MSTORE MLOAD PUSH2 0x1DB1 SWAP2 SWAP1 PUSH2 0x40A9 JUMP JUMPDEST PUSH1 0x0 PUSH1 0x40 MLOAD DUP1 DUP4 SUB DUP2 DUP6 DUP8 GAS CALL SWAP3 POP POP POP RETURNDATASIZE DUP1 PUSH1 0x0 DUP2 EQ PUSH2 0x1DEE JUMPI PUSH1 0x40 MLOAD SWAP2 POP PUSH1 0x1F NOT PUSH1 0x3F RETURNDATASIZE ADD AND DUP3 ADD PUSH1 0x40 MSTORE RETURNDATASIZE DUP3 MSTORE RETURNDATASIZE PUSH1 0x0 PUSH1 0x20 DUP5 ADD RETURNDATACOPY PUSH2 0x1DF3 JUMP JUMPDEST PUSH1 0x60 SWAP2 POP JUMPDEST POP SWAP2 POP SWAP2 POP DUP2 PUSH2 0x1E45 JUMPI PUSH1 0x40 MLOAD PUSH3 0x461BCD PUSH1 0xE5 SHL DUP2 MSTORE PUSH1 0x20 PUSH1 0x4 DUP3 ADD MSTORE PUSH1 0x1F PUSH1 0x24 DUP3 ADD MSTORE PUSH32 0x7468652063616C6C20746F20746865207665726966696572206661696C656400 PUSH1 0x44 DUP3 ADD MSTORE PUSH1 0x64 ADD PUSH2 0xBC0 JUMP JUMPDEST PUSH1 0x0 DUP2 DUP1 PUSH1 0x20 ADD SWAP1 MLOAD DUP2 ADD SWAP1 PUSH2 0x1E5B SWAP2 SWAP1 PUSH2 0x4169 JUMP JUMPDEST SWAP1 POP DUP1 PUSH2 0x1EAA JUMPI PUSH1 0x40 MLOAD PUSH3 0x461BCD PUSH1 0xE5 SHL DUP2 MSTORE PUSH1 0x20 PUSH1 0x4 DUP3 ADD MSTORE PUSH1 0x1E PUSH1 0x24 DUP3 ADD MSTORE PUSH32 0x7468652070726F76696465642070726F6F662069736E27742076616C69640000 PUSH1 0x44 DUP3 ADD MSTORE PUSH1 0x64 ADD PUSH2 0xBC0 JUMP JUMPDEST PUSH2 0x2059 CALLER PUSH2 0x19F DUP1 SLOAD PUSH2 0x1EBC SWAP1 PUSH2 0x3DC5 JUMP JUMPDEST DUP1 PUSH1 0x1F ADD PUSH1 0x20 DUP1 SWAP2 DIV MUL PUSH1 0x20 ADD PUSH1 0x40 MLOAD SWAP1 DUP2 ADD PUSH1 0x40 MSTORE DUP1 SWAP3 SWAP2 SWAP1 DUP2 DUP2 MSTORE PUSH1 0x20 ADD DUP3 DUP1 SLOAD PUSH2 0x1EE8 SWAP1 PUSH2 0x3DC5 JUMP JUMPDEST DUP1 ISZERO PUSH2 0x1F35 JUMPI DUP1 PUSH1 0x1F LT PUSH2 0x1F0A JUMPI PUSH2 0x100 DUP1 DUP4 SLOAD DIV MUL DUP4 MSTORE SWAP2 PUSH1 0x20 ADD SWAP2 PUSH2 0x1F35 JUMP JUMPDEST DUP3 ADD SWAP2 SWAP1 PUSH1 0x0 MSTORE PUSH1 0x20 PUSH1 0x0 KECCAK256 SWAP1 JUMPDEST DUP2 SLOAD DUP2 MSTORE SWAP1 PUSH1 0x1 ADD SWAP1 PUSH1 0x20 ADD DUP1 DUP4 GT PUSH2 0x1F18 JUMPI DUP3 SWAP1 SUB PUSH1 0x1F AND DUP3 ADD SWAP2 JUMPDEST POP POP POP POP POP PUSH2 0x1A0 DUP1 SLOAD PUSH2 0x1F48 SWAP1 PUSH2 0x3DC5 JUMP JUMPDEST DUP1 PUSH1 0x1F ADD PUSH1 0x20 DUP1 SWAP2 DIV MUL PUSH1 0x20 ADD PUSH1 0x40 MLOAD SWAP1 DUP2 ADD PUSH1 0x40 MSTORE DUP1 SWAP3 SWAP2 SWAP1 DUP2 DUP2 MSTORE PUSH1 0x20 ADD DUP3 DUP1 SLOAD PUSH2 0x1F74 SWAP1 PUSH2 0x3DC5 JUMP JUMPDEST DUP1 ISZERO PUSH2 0x1FC1 JUMPI DUP1 PUSH1 0x1F LT PUSH2 0x1F96 JUMPI PUSH2 0x100 DUP1 DUP4 SLOAD DIV MUL DUP4 MSTORE SWAP2 PUSH1 0x20 ADD SWAP2 PUSH2 0x1FC1 JUMP JUMPDEST DUP3 ADD SWAP2 SWAP1 PUSH1 0x0 MSTORE PUSH1 0x20 PUSH1 0x0 KECCAK256 SWAP1 JUMPDEST DUP2 SLOAD DUP2 MSTORE SWAP1 PUSH1 0x1 ADD SWAP1 PUSH1 0x20 ADD DUP1 DUP4 GT PUSH2 0x1FA4 JUMPI DUP3 SWAP1 SUB PUSH1 0x1F AND DUP3 ADD SWAP2 JUMPDEST POP POP POP POP POP PUSH2 0x1A1 DUP1 SLOAD PUSH2 0x1FD4 SWAP1 PUSH2 0x3DC5 JUMP JUMPDEST DUP1 PUSH1 0x1F ADD PUSH1 0x20 DUP1 SWAP2 DIV MUL PUSH1 0x20 ADD PUSH1 0x40 MLOAD SWAP1 DUP2 ADD PUSH1 0x40 MSTORE DUP1 SWAP3 SWAP2 SWAP1 DUP2 DUP2 MSTORE PUSH1 0x20 ADD DUP3 DUP1 SLOAD PUSH2 0x2000 SWAP1 PUSH2 0x3DC5 JUMP JUMPDEST DUP1 ISZERO PUSH2 0x204D JUMPI DUP1 PUSH1 0x1F LT PUSH2 0x2022 JUMPI PUSH2 0x100 DUP1 DUP4 SLOAD DIV MUL DUP4 MSTORE SWAP2 PUSH1 0x20 ADD SWAP2 PUSH2 0x204D JUMP JUMPDEST DUP3 ADD SWAP2 SWAP1 PUSH1 0x0 MSTORE PUSH1 0x20 PUSH1 0x0 KECCAK256 SWAP1 JUMPDEST DUP2 SLOAD DUP2 MSTORE SWAP1 PUSH1 0x1 ADD SWAP1 PUSH1 0x20 ADD DUP1 DUP4 GT PUSH2 0x2030 JUMPI DUP3 SWAP1 SUB PUSH1 0x1F AND DUP3 ADD SWAP2 JUMPDEST POP POP POP POP POP PUSH1 0x1 PUSH2 0x24F1 JUMP JUMPDEST PUSH2 0x19C DUP1 SLOAD SWAP1 PUSH1 0x0 PUSH2 0x206A DUP4 PUSH2 0x4051 JUMP JUMPDEST SWAP2 SWAP1 POP SSTORE POP PUSH1 0x1 PUSH2 0x19D DUP7 PUSH1 0x40 MLOAD PUSH2 0x2082 SWAP2 SWAP1 PUSH2 0x40A9 JUMP JUMPDEST SWAP1 DUP2 MSTORE PUSH1 0x20 ADD PUSH1 0x40 MLOAD DUP1 SWAP2 SUB SWAP1 KECCAK256 DUP2 SWAP1 SSTORE POP PUSH1 0x1 PUSH2 0x19E DUP6 PUSH1 0x40 MLOAD PUSH2 0x20A7 SWAP2 SWAP1 PUSH2 0x40A9 JUMP JUMPDEST SWAP1 DUP2 MSTORE PUSH1 0x40 MLOAD SWAP1 DUP2 SWAP1 SUB PUSH1 0x20 ADD SWAP1 KECCAK256 SSTORE POP POP POP POP POP POP POP JUMP JUMPDEST PUSH1 0x0 PUSH1 0x1 PUSH1 0x1 PUSH1 0xE0 SHL SUB NOT DUP3 AND PUSH4 0x7965DB0B PUSH1 0xE0 SHL EQ DUP1 PUSH2 0xA8D JUMPI POP PUSH2 0xA8D DUP3 PUSH2 0x2B22 JUMP JUMPDEST PUSH1 0x0 DUP2 DUP2 MSTORE PUSH1 0x67 PUSH1 0x20 MSTORE PUSH1 0x40 SWAP1 KECCAK256 SLOAD PUSH1 0x1 PUSH1 0x1 PUSH1 0xA0 SHL SUB AND PUSH2 0xEC2 JUMPI PUSH1 0x40 MLOAD PUSH3 0x461BCD PUSH1 0xE5 SHL DUP2 MSTORE PUSH1 0x20 PUSH1 0x4 DUP3 ADD MSTORE PUSH1 0x18 PUSH1 0x24 DUP3 ADD MSTORE PUSH24 0x115490CDCC8C4E881A5B9D985B1A59081D1BDAD95B881251 PUSH1 0x42 SHL PUSH1 0x44 DUP3 ADD MSTORE PUSH1 0x64 ADD PUSH2 0xBC0 JUMP JUMPDEST PUSH1 0x0 DUP2 DUP2 MSTORE PUSH1 0x69 PUSH1 0x20 MSTORE PUSH1 0x40 SWAP1 KECCAK256 DUP1 SLOAD PUSH1 0x1 PUSH1 0x1 PUSH1 0xA0 SHL SUB NOT AND PUSH1 0x1 PUSH1 0x1 PUSH1 0xA0 SHL SUB DUP5 AND SWAP1 DUP2 OR SWAP1 SWAP2 SSTORE DUP2 SWAP1 PUSH2 0x2179 DUP3 PUSH2 0x1535 JUMP JUMPDEST PUSH1 0x1 PUSH1 0x1 PUSH1 0xA0 SHL SUB AND PUSH32 0x8C5BE1E5EBEC7D5BD14F71427D1E84F3DD0314C0F7B2291E5B200AC8C7C3B925 PUSH1 0x40 MLOAD PUSH1 0x40 MLOAD DUP1 SWAP2 SUB SWAP1 LOG4 POP POP JUMP JUMPDEST PUSH2 0xEC2 DUP2 CALLER PUSH2 0x2B47 JUMP JUMPDEST PUSH1 0x0 DUP1 PUSH2 0x21C8 DUP4 PUSH2 0x1535 JUMP JUMPDEST SWAP1 POP DUP1 PUSH1 0x1 PUSH1 0x1 PUSH1 0xA0 SHL SUB AND DUP5 PUSH1 0x1 PUSH1 0x1 PUSH1 0xA0 SHL SUB AND EQ DUP1 PUSH2 0x220F JUMPI POP PUSH1 0x1 PUSH1 0x1 PUSH1 0xA0 SHL SUB DUP1 DUP3 AND PUSH1 0x0 SWAP1 DUP2 MSTORE PUSH1 0x6A PUSH1 0x20 SWAP1 DUP2 MSTORE PUSH1 0x40 DUP1 DUP4 KECCAK256 SWAP4 DUP9 AND DUP4 MSTORE SWAP3 SWAP1 MSTORE KECCAK256 SLOAD PUSH1 0xFF AND JUMPDEST DUP1 PUSH2 0x2233 JUMPI POP DUP4 PUSH1 0x1 PUSH1 0x1 PUSH1 0xA0 SHL SUB AND PUSH2 0x2228 DUP5 PUSH2 0xB25 JUMP JUMPDEST PUSH1 0x1 PUSH1 0x1 PUSH1 0xA0 SHL SUB AND EQ JUMPDEST SWAP5 SWAP4 POP POP POP POP JUMP JUMPDEST DUP3 PUSH1 0x1 PUSH1 0x1 PUSH1 0xA0 SHL SUB AND PUSH2 0x224E DUP3 PUSH2 0x1535 JUMP JUMPDEST PUSH1 0x1 PUSH1 0x1 PUSH1 0xA0 SHL SUB AND EQ PUSH2 0x22B2 JUMPI PUSH1 0x40 MLOAD PUSH3 0x461BCD PUSH1 0xE5 SHL DUP2 MSTORE PUSH1 0x20 PUSH1 0x4 DUP3 ADD MSTORE PUSH1 0x25 PUSH1 0x24 DUP3 ADD MSTORE PUSH32 0x4552433732313A207472616E736665722066726F6D20696E636F727265637420 PUSH1 0x44 DUP3 ADD MSTORE PUSH5 0x37BBB732B9 PUSH1 0xD9 SHL PUSH1 0x64 DUP3 ADD MSTORE PUSH1 0x84 ADD PUSH2 0xBC0 JUMP JUMPDEST PUSH1 0x1 PUSH1 0x1 PUSH1 0xA0 SHL SUB DUP3 AND PUSH2 0x2314 JUMPI PUSH1 0x40 MLOAD PUSH3 0x461BCD PUSH1 0xE5 SHL DUP2 MSTORE PUSH1 0x20 PUSH1 0x4 DUP3 ADD MSTORE PUSH1 0x24 DUP1 DUP3 ADD MSTORE PUSH32 0x4552433732313A207472616E7366657220746F20746865207A65726F20616464 PUSH1 0x44 DUP3 ADD MSTORE PUSH4 0x72657373 PUSH1 0xE0 SHL PUSH1 0x64 DUP3 ADD MSTORE PUSH1 0x84 ADD PUSH2 0xBC0 JUMP JUMPDEST PUSH2 0x231F DUP4 DUP4 DUP4 PUSH2 0x2BAB JUMP JUMPDEST PUSH2 0x232A PUSH1 0x0 DUP3 PUSH2 0x2144 JUMP JUMPDEST PUSH1 0x1 PUSH1 0x1 PUSH1 0xA0 SHL SUB DUP4 AND PUSH1 0x0 SWAP1 DUP2 MSTORE PUSH1 0x68 PUSH1 0x20 MSTORE PUSH1 0x40 DUP2 KECCAK256 DUP1 SLOAD PUSH1 0x1 SWAP3 SWAP1 PUSH2 0x2353 SWAP1 DUP5 SWAP1 PUSH2 0x4186 JUMP JUMPDEST SWAP1 SWAP2 SSTORE POP POP PUSH1 0x1 PUSH1 0x1 PUSH1 0xA0 SHL SUB DUP3 AND PUSH1 0x0 SWAP1 DUP2 MSTORE PUSH1 0x68 PUSH1 0x20 MSTORE PUSH1 0x40 DUP2 KECCAK256 DUP1 SLOAD PUSH1 0x1 SWAP3 SWAP1 PUSH2 0x2381 SWAP1 DUP5 SWAP1 PUSH2 0x3E2B JUMP JUMPDEST SWAP1 SWAP2 SSTORE POP POP PUSH1 0x0 DUP2 DUP2 MSTORE PUSH1 0x67 PUSH1 0x20 MSTORE PUSH1 0x40 DUP1 DUP3 KECCAK256 DUP1 SLOAD PUSH1 0x1 PUSH1 0x1 PUSH1 0xA0 SHL SUB NOT AND PUSH1 0x1 PUSH1 0x1 PUSH1 0xA0 SHL SUB DUP7 DUP2 AND SWAP2 DUP3 OR SWAP1 SWAP3 SSTORE SWAP2 MLOAD DUP5 SWAP4 SWAP2 DUP8 AND SWAP2 PUSH32 0xDDF252AD1BE2C89B69C2B068FC378DAA952BA7F163C4A11628F55A4DF523B3EF SWAP2 LOG4 POP POP POP JUMP JUMPDEST PUSH2 0x23EC DUP3 DUP3 PUSH2 0x185E JUMP JUMPDEST PUSH2 0xF5F JUMPI PUSH1 0x0 DUP3 DUP2 MSTORE PUSH1 0xFB PUSH1 0x20 SWAP1 DUP2 MSTORE PUSH1 0x40 DUP1 DUP4 KECCAK256 PUSH1 0x1 PUSH1 0x1 PUSH1 0xA0 SHL SUB DUP6 AND DUP5 MSTORE SWAP1 SWAP2 MSTORE SWAP1 KECCAK256 DUP1 SLOAD PUSH1 0xFF NOT AND PUSH1 0x1 OR SWAP1 SSTORE PUSH2 0x2424 CALLER SWAP1 JUMP JUMPDEST PUSH1 0x1 PUSH1 0x1 PUSH1 0xA0 SHL SUB AND DUP2 PUSH1 0x1 PUSH1 0x1 PUSH1 0xA0 SHL SUB AND DUP4 PUSH32 0x2F8788117E7EFF1D82E926EC794901D17C78024A50270940304540A733656F0D PUSH1 0x40 MLOAD PUSH1 0x40 MLOAD DUP1 SWAP2 SUB SWAP1 LOG4 POP POP JUMP JUMPDEST PUSH1 0x0 PUSH2 0x2474 PUSH2 0x191 SLOAD SWAP1 JUMP JUMPDEST SWAP1 POP PUSH2 0x2485 PUSH2 0x191 DUP1 SLOAD PUSH1 0x1 ADD SWAP1 SSTORE JUMP JUMPDEST PUSH2 0x248F DUP3 DUP3 PUSH2 0x2C06 JUMP JUMPDEST PUSH1 0x40 MLOAD DUP1 PUSH1 0x40 ADD PUSH1 0x40 MSTORE DUP1 PUSH1 0x7 DUP2 MSTORE PUSH1 0x20 ADD PUSH7 0x2932B6B4BC32B9 PUSH1 0xC9 SHL DUP2 MSTORE POP PUSH2 0x193 PUSH1 0x0 DUP4 DUP2 MSTORE PUSH1 0x20 ADD SWAP1 DUP2 MSTORE PUSH1 0x20 ADD PUSH1 0x0 KECCAK256 PUSH1 0x1 ADD SWAP1 DUP2 PUSH2 0x24D2 SWAP2 SWAP1 PUSH2 0x4199 JUMP JUMPDEST POP PUSH1 0x0 DUP2 DUP2 MSTORE PUSH2 0x193 PUSH1 0x20 MSTORE PUSH1 0x40 SWAP1 KECCAK256 PUSH1 0x2 ADD PUSH2 0xC61 PUSH2 0x195 DUP3 PUSH2 0x4252 JUMP JUMPDEST PUSH2 0x192 DUP5 PUSH1 0x40 MLOAD PUSH2 0x2502 SWAP2 SWAP1 PUSH2 0x40A9 JUMP JUMPDEST SWAP1 DUP2 MSTORE PUSH1 0x40 MLOAD SWAP1 DUP2 SWAP1 SUB PUSH1 0x20 ADD SWAP1 KECCAK256 SLOAD PUSH1 0xFF AND PUSH2 0x2561 JUMPI PUSH1 0x40 MLOAD PUSH3 0x461BCD PUSH1 0xE5 SHL DUP2 MSTORE PUSH1 0x20 PUSH1 0x4 DUP3 ADD MSTORE PUSH1 0x17 PUSH1 0x24 DUP3 ADD MSTORE PUSH32 0x747970652073686F756C64206265206465636C61726564000000000000000000 PUSH1 0x44 DUP3 ADD MSTORE PUSH1 0x64 ADD PUSH2 0xBC0 JUMP JUMPDEST PUSH1 0x0 PUSH2 0x256D PUSH2 0x191 SLOAD SWAP1 JUMP JUMPDEST SWAP1 POP PUSH2 0x257E PUSH2 0x191 DUP1 SLOAD PUSH1 0x1 ADD SWAP1 SSTORE JUMP JUMPDEST PUSH2 0x2588 DUP7 DUP3 PUSH2 0x2C06 JUMP JUMPDEST PUSH1 0x0 DUP2 DUP2 MSTORE PUSH2 0x193 PUSH1 0x20 MSTORE PUSH1 0x40 SWAP1 KECCAK256 PUSH2 0x25A1 DUP6 DUP3 PUSH2 0x4199 JUMP JUMPDEST POP PUSH1 0x0 DUP2 DUP2 MSTORE PUSH2 0x193 PUSH1 0x20 MSTORE PUSH1 0x40 SWAP1 KECCAK256 PUSH1 0x1 ADD PUSH2 0x25BE DUP7 DUP3 PUSH2 0x4199 JUMP JUMPDEST POP PUSH1 0x0 DUP2 DUP2 MSTORE PUSH2 0x193 PUSH1 0x20 MSTORE PUSH1 0x40 SWAP1 KECCAK256 PUSH1 0x2 ADD PUSH2 0x25DB DUP5 DUP3 PUSH2 0x4199 JUMP JUMPDEST POP DUP2 ISZERO PUSH2 0xEDD JUMPI PUSH1 0x1 PUSH1 0x1 PUSH1 0xA0 SHL SUB DUP7 AND PUSH1 0x0 SWAP1 DUP2 MSTORE PUSH2 0x194 PUSH1 0x20 MSTORE PUSH1 0x40 SWAP1 KECCAK256 SLOAD PUSH2 0x2607 SWAP1 DUP4 SWAP1 PUSH2 0x3E2B JUMP JUMPDEST PUSH1 0x1 PUSH1 0x1 PUSH1 0xA0 SHL SUB DUP8 AND PUSH1 0x0 SWAP1 DUP2 MSTORE PUSH2 0x194 PUSH1 0x20 MSTORE PUSH1 0x40 SWAP1 KECCAK256 SSTORE POP POP POP POP POP POP JUMP JUMPDEST PUSH2 0x2633 DUP3 DUP3 PUSH2 0x185E JUMP JUMPDEST ISZERO PUSH2 0xF5F JUMPI PUSH1 0x0 DUP3 DUP2 MSTORE PUSH1 0xFB PUSH1 0x20 SWAP1 DUP2 MSTORE PUSH1 0x40 DUP1 DUP4 KECCAK256 PUSH1 0x1 PUSH1 0x1 PUSH1 0xA0 SHL SUB DUP6 AND DUP1 DUP6 MSTORE SWAP3 MSTORE DUP1 DUP4 KECCAK256 DUP1 SLOAD PUSH1 0xFF NOT AND SWAP1 SSTORE MLOAD CALLER SWAP3 DUP6 SWAP2 PUSH32 0xF6391F5C32D9C69D2A47EA670B442974B53935D1EDC7FD64EB21E047A839171B SWAP2 SWAP1 LOG4 POP POP JUMP JUMPDEST PUSH1 0x0 PUSH2 0xF5F DUP2 PUSH2 0x21B2 JUMP JUMPDEST PUSH32 0x4910FDFA16FED3260ED0E7147F7CC6DA11A60208B5B9406D12A635614FFD9143 SLOAD PUSH1 0xFF AND ISZERO PUSH2 0x26CE JUMPI PUSH2 0xC61 DUP4 PUSH2 0x2C20 JUMP JUMPDEST DUP3 PUSH1 0x1 PUSH1 0x1 PUSH1 0xA0 SHL SUB AND PUSH4 0x52D1902D PUSH1 0x40 MLOAD DUP2 PUSH4 0xFFFFFFFF AND PUSH1 0xE0 SHL DUP2 MSTORE PUSH1 0x4 ADD PUSH1 0x20 PUSH1 0x40 MLOAD DUP1 DUP4 SUB DUP2 DUP7 GAS STATICCALL SWAP3 POP POP POP DUP1 ISZERO PUSH2 0x2728 JUMPI POP PUSH1 0x40 DUP1 MLOAD PUSH1 0x1F RETURNDATASIZE SWAP1 DUP2 ADD PUSH1 0x1F NOT AND DUP3 ADD SWAP1 SWAP3 MSTORE PUSH2 0x2725 SWAP2 DUP2 ADD SWAP1 PUSH2 0x431E JUMP JUMPDEST PUSH1 0x1 JUMPDEST PUSH2 0x278B JUMPI PUSH1 0x40 MLOAD PUSH3 0x461BCD PUSH1 0xE5 SHL DUP2 MSTORE PUSH1 0x20 PUSH1 0x4 DUP3 ADD MSTORE PUSH1 0x2E PUSH1 0x24 DUP3 ADD MSTORE PUSH32 0x45524331393637557067726164653A206E657720696D706C656D656E74617469 PUSH1 0x44 DUP3 ADD MSTORE PUSH14 0x6F6E206973206E6F742055555053 PUSH1 0x90 SHL PUSH1 0x64 DUP3 ADD MSTORE PUSH1 0x84 ADD PUSH2 0xBC0 JUMP JUMPDEST PUSH1 0x0 DUP1 MLOAD PUSH1 0x20 PUSH2 0x4505 DUP4 CODECOPY DUP2 MLOAD SWAP2 MSTORE DUP2 EQ PUSH2 0x27FA JUMPI PUSH1 0x40 MLOAD PUSH3 0x461BCD PUSH1 0xE5 SHL DUP2 MSTORE PUSH1 0x20 PUSH1 0x4 DUP3 ADD MSTORE PUSH1 0x29 PUSH1 0x24 DUP3 ADD MSTORE PUSH32 0x45524331393637557067726164653A20756E737570706F727465642070726F78 PUSH1 0x44 DUP3 ADD MSTORE PUSH9 0x1A58589B1955555251 PUSH1 0xBA SHL PUSH1 0x64 DUP3 ADD MSTORE PUSH1 0x84 ADD PUSH2 0xBC0 JUMP JUMPDEST POP PUSH2 0xC61 DUP4 DUP4 DUP4 PUSH2 0x2CBC JUMP JUMPDEST PUSH1 0x0 PUSH2 0x2811 DUP3 PUSH2 0x1535 JUMP JUMPDEST SWAP1 POP PUSH2 0x281F DUP2 PUSH1 0x0 DUP5 PUSH2 0x2BAB JUMP JUMPDEST PUSH2 0x282A PUSH1 0x0 DUP4 PUSH2 0x2144 JUMP JUMPDEST PUSH1 0x1 PUSH1 0x1 PUSH1 0xA0 SHL SUB DUP2 AND PUSH1 0x0 SWAP1 DUP2 MSTORE PUSH1 0x68 PUSH1 0x20 MSTORE PUSH1 0x40 DUP2 KECCAK256 DUP1 SLOAD PUSH1 0x1 SWAP3 SWAP1 PUSH2 0x2853 SWAP1 DUP5 SWAP1 PUSH2 0x4186 JUMP JUMPDEST SWAP1 SWAP2 SSTORE POP POP PUSH1 0x0 DUP3 DUP2 MSTORE PUSH1 0x67 PUSH1 0x20 MSTORE PUSH1 0x40 DUP1 DUP3 KECCAK256 DUP1 SLOAD PUSH1 0x1 PUSH1 0x1 PUSH1 0xA0 SHL SUB NOT AND SWAP1 SSTORE MLOAD DUP4 SWAP2 SWAP1 PUSH1 0x1 PUSH1 0x1 PUSH1 0xA0 SHL SUB DUP5 AND SWAP1 PUSH32 0xDDF252AD1BE2C89B69C2B068FC378DAA952BA7F163C4A11628F55A4DF523B3EF SWAP1 DUP4 SWAP1 LOG4 POP POP JUMP JUMPDEST PUSH1 0x0 SLOAD PUSH2 0x100 SWAP1 DIV PUSH1 0xFF AND PUSH2 0x28D4 JUMPI PUSH1 0x40 MLOAD PUSH3 0x461BCD PUSH1 0xE5 SHL DUP2 MSTORE PUSH1 0x4 ADD PUSH2 0xBC0 SWAP1 PUSH2 0x4337 JUMP JUMPDEST PUSH2 0xF5F DUP3 DUP3 PUSH2 0x2CE1 JUMP JUMPDEST PUSH1 0x0 SLOAD PUSH2 0x100 SWAP1 DIV PUSH1 0xFF AND PUSH2 0x2905 JUMPI PUSH1 0x40 MLOAD PUSH3 0x461BCD PUSH1 0xE5 SHL DUP2 MSTORE PUSH1 0x4 ADD PUSH2 0xBC0 SWAP1 PUSH2 0x4337 JUMP JUMPDEST JUMP JUMPDEST PUSH2 0xF5F DUP3 DUP3 PUSH2 0x23E2 JUMP JUMPDEST DUP2 PUSH1 0x1 PUSH1 0x1 PUSH1 0xA0 SHL SUB AND DUP4 PUSH1 0x1 PUSH1 0x1 PUSH1 0xA0 SHL SUB AND SUB PUSH2 0x2972 JUMPI PUSH1 0x40 MLOAD PUSH3 0x461BCD PUSH1 0xE5 SHL DUP2 MSTORE PUSH1 0x20 PUSH1 0x4 DUP3 ADD MSTORE PUSH1 0x19 PUSH1 0x24 DUP3 ADD MSTORE PUSH32 0x4552433732313A20617070726F766520746F2063616C6C657200000000000000 PUSH1 0x44 DUP3 ADD MSTORE PUSH1 0x64 ADD PUSH2 0xBC0 JUMP JUMPDEST PUSH1 0x1 PUSH1 0x1 PUSH1 0xA0 SHL SUB DUP4 DUP2 AND PUSH1 0x0 DUP2 DUP2 MSTORE PUSH1 0x6A PUSH1 0x20 SWAP1 DUP2 MSTORE PUSH1 0x40 DUP1 DUP4 KECCAK256 SWAP5 DUP8 AND DUP1 DUP5 MSTORE SWAP5 DUP3 MSTORE SWAP2 DUP3 SWAP1 KECCAK256 DUP1 SLOAD PUSH1 0xFF NOT AND DUP7 ISZERO ISZERO SWAP1 DUP2 OR SWAP1 SWAP2 SSTORE SWAP2 MLOAD SWAP2 DUP3 MSTORE PUSH32 0x17307EAB39AB6107E8899845AD3D59BD9653F200F220920489CA2B5937696C31 SWAP2 ADD PUSH1 0x40 MLOAD DUP1 SWAP2 SUB SWAP1 LOG3 POP POP POP JUMP JUMPDEST PUSH2 0x29EA DUP5 DUP5 DUP5 PUSH2 0x223B JUMP JUMPDEST PUSH2 0x29F6 DUP5 DUP5 DUP5 DUP5 PUSH2 0x2D21 JUMP JUMPDEST PUSH2 0xD3A JUMPI PUSH1 0x40 MLOAD PUSH3 0x461BCD PUSH1 0xE5 SHL DUP2 MSTORE PUSH1 0x4 ADD PUSH2 0xBC0 SWAP1 PUSH2 0x4382 JUMP JUMPDEST PUSH1 0x60 PUSH2 0x196 DUP1 SLOAD PUSH2 0xAA2 SWAP1 PUSH2 0x3DC5 JUMP JUMPDEST PUSH1 0x60 DUP2 PUSH1 0x0 SUB PUSH2 0x2A49 JUMPI POP POP PUSH1 0x40 DUP1 MLOAD DUP1 DUP3 ADD SWAP1 SWAP2 MSTORE PUSH1 0x1 DUP2 MSTORE PUSH1 0x3 PUSH1 0xFC SHL PUSH1 0x20 DUP3 ADD MSTORE SWAP1 JUMP JUMPDEST DUP2 PUSH1 0x0 JUMPDEST DUP2 ISZERO PUSH2 0x2A73 JUMPI DUP1 PUSH2 0x2A5D DUP2 PUSH2 0x4051 JUMP JUMPDEST SWAP2 POP PUSH2 0x2A6C SWAP1 POP PUSH1 0xA DUP4 PUSH2 0x43EA JUMP JUMPDEST SWAP2 POP PUSH2 0x2A4D JUMP JUMPDEST PUSH1 0x0 DUP2 PUSH1 0x1 PUSH1 0x1 PUSH1 0x40 SHL SUB DUP2 GT ISZERO PUSH2 0x2A8D JUMPI PUSH2 0x2A8D PUSH2 0x3720 JUMP JUMPDEST PUSH1 0x40 MLOAD SWAP1 DUP1 DUP3 MSTORE DUP1 PUSH1 0x1F ADD PUSH1 0x1F NOT AND PUSH1 0x20 ADD DUP3 ADD PUSH1 0x40 MSTORE DUP1 ISZERO PUSH2 0x2AB7 JUMPI PUSH1 0x20 DUP3 ADD DUP2 DUP1 CALLDATASIZE DUP4 CALLDATACOPY ADD SWAP1 POP JUMPDEST POP SWAP1 POP JUMPDEST DUP5 ISZERO PUSH2 0x2233 JUMPI PUSH2 0x2ACC PUSH1 0x1 DUP4 PUSH2 0x4186 JUMP JUMPDEST SWAP2 POP PUSH2 0x2AD9 PUSH1 0xA DUP7 PUSH2 0x43FE JUMP JUMPDEST PUSH2 0x2AE4 SWAP1 PUSH1 0x30 PUSH2 0x3E2B JUMP JUMPDEST PUSH1 0xF8 SHL DUP2 DUP4 DUP2 MLOAD DUP2 LT PUSH2 0x2AF9 JUMPI PUSH2 0x2AF9 PUSH2 0x3DFF JUMP JUMPDEST PUSH1 0x20 ADD ADD SWAP1 PUSH1 0x1 PUSH1 0x1 PUSH1 0xF8 SHL SUB NOT AND SWAP1 DUP2 PUSH1 0x0 BYTE SWAP1 MSTORE8 POP PUSH2 0x2B1B PUSH1 0xA DUP7 PUSH2 0x43EA JUMP JUMPDEST SWAP5 POP PUSH2 0x2ABB JUMP JUMPDEST PUSH1 0x0 PUSH1 0x1 PUSH1 0x1 PUSH1 0xE0 SHL SUB NOT DUP3 AND PUSH4 0x780E9D63 PUSH1 0xE0 SHL EQ DUP1 PUSH2 0xA8D JUMPI POP PUSH2 0xA8D DUP3 PUSH2 0x2E22 JUMP JUMPDEST PUSH2 0x2B51 DUP3 DUP3 PUSH2 0x185E JUMP JUMPDEST PUSH2 0xF5F JUMPI PUSH2 0x2B69 DUP2 PUSH1 0x1 PUSH1 0x1 PUSH1 0xA0 SHL SUB AND PUSH1 0x14 PUSH2 0x2E72 JUMP JUMPDEST PUSH2 0x2B74 DUP4 PUSH1 0x20 PUSH2 0x2E72 JUMP JUMPDEST PUSH1 0x40 MLOAD PUSH1 0x20 ADD PUSH2 0x2B85 SWAP3 SWAP2 SWAP1 PUSH2 0x4412 JUMP JUMPDEST PUSH1 0x40 DUP1 MLOAD PUSH1 0x1F NOT DUP2 DUP5 SUB ADD DUP2 MSTORE SWAP1 DUP3 SWAP1 MSTORE PUSH3 0x461BCD PUSH1 0xE5 SHL DUP3 MSTORE PUSH2 0xBC0 SWAP2 PUSH1 0x4 ADD PUSH2 0x3650 JUMP JUMPDEST PUSH1 0x1 PUSH1 0x1 PUSH1 0xA0 SHL SUB DUP4 AND ISZERO PUSH2 0x2BFB JUMPI PUSH1 0x40 MLOAD PUSH3 0x461BCD PUSH1 0xE5 SHL DUP2 MSTORE PUSH1 0x20 PUSH1 0x4 DUP3 ADD MSTORE PUSH1 0x16 PUSH1 0x24 DUP3 ADD MSTORE PUSH22 0x746F6B656E206E6F74207472616E7366657261626C65 PUSH1 0x50 SHL PUSH1 0x44 DUP3 ADD MSTORE PUSH1 0x64 ADD PUSH2 0xBC0 JUMP JUMPDEST PUSH2 0xC61 DUP4 DUP4 DUP4 PUSH2 0x300D JUMP JUMPDEST PUSH2 0xF5F DUP3 DUP3 PUSH1 0x40 MLOAD DUP1 PUSH1 0x20 ADD PUSH1 0x40 MSTORE DUP1 PUSH1 0x0 DUP2 MSTORE POP PUSH2 0x30C5 JUMP JUMPDEST PUSH1 0x1 PUSH1 0x1 PUSH1 0xA0 SHL SUB DUP2 AND EXTCODESIZE PUSH2 0x2C8D JUMPI PUSH1 0x40 MLOAD PUSH3 0x461BCD PUSH1 0xE5 SHL DUP2 MSTORE PUSH1 0x20 PUSH1 0x4 DUP3 ADD MSTORE PUSH1 0x2D PUSH1 0x24 DUP3 ADD MSTORE PUSH32 0x455243313936373A206E657720696D706C656D656E746174696F6E206973206E PUSH1 0x44 DUP3 ADD MSTORE PUSH13 0x1BDD08184818DBDB9D1C9858DD PUSH1 0x9A SHL PUSH1 0x64 DUP3 ADD MSTORE PUSH1 0x84 ADD PUSH2 0xBC0 JUMP JUMPDEST PUSH1 0x0 DUP1 MLOAD PUSH1 0x20 PUSH2 0x4505 DUP4 CODECOPY DUP2 MLOAD SWAP2 MSTORE DUP1 SLOAD PUSH1 0x1 PUSH1 0x1 PUSH1 0xA0 SHL SUB NOT AND PUSH1 0x1 PUSH1 0x1 PUSH1 0xA0 SHL SUB SWAP3 SWAP1 SWAP3 AND SWAP2 SWAP1 SWAP2 OR SWAP1 SSTORE JUMP JUMPDEST PUSH2 0x2CC5 DUP4 PUSH2 0x30F8 JUMP JUMPDEST PUSH1 0x0 DUP3 MLOAD GT DUP1 PUSH2 0x2CD2 JUMPI POP DUP1 JUMPDEST ISZERO PUSH2 0xC61 JUMPI PUSH2 0xD3A DUP4 DUP4 PUSH2 0x3138 JUMP JUMPDEST PUSH1 0x0 SLOAD PUSH2 0x100 SWAP1 DIV PUSH1 0xFF AND PUSH2 0x2D08 JUMPI PUSH1 0x40 MLOAD PUSH3 0x461BCD PUSH1 0xE5 SHL DUP2 MSTORE PUSH1 0x4 ADD PUSH2 0xBC0 SWAP1 PUSH2 0x4337 JUMP JUMPDEST PUSH1 0x65 PUSH2 0x2D14 DUP4 DUP3 PUSH2 0x4199 JUMP JUMPDEST POP PUSH1 0x66 PUSH2 0xC61 DUP3 DUP3 PUSH2 0x4199 JUMP JUMPDEST PUSH1 0x0 PUSH1 0x1 PUSH1 0x1 PUSH1 0xA0 SHL SUB DUP5 AND EXTCODESIZE ISZERO PUSH2 0x2E17 JUMPI PUSH1 0x40 MLOAD PUSH4 0xA85BD01 PUSH1 0xE1 SHL DUP2 MSTORE PUSH1 0x1 PUSH1 0x1 PUSH1 0xA0 SHL SUB DUP6 AND SWAP1 PUSH4 0x150B7A02 SWAP1 PUSH2 0x2D65 SWAP1 CALLER SWAP1 DUP10 SWAP1 DUP9 SWAP1 DUP9 SWAP1 PUSH1 0x4 ADD PUSH2 0x4487 JUMP JUMPDEST PUSH1 0x20 PUSH1 0x40 MLOAD DUP1 DUP4 SUB DUP2 PUSH1 0x0 DUP8 GAS CALL SWAP3 POP POP POP DUP1 ISZERO PUSH2 0x2DA0 JUMPI POP PUSH1 0x40 DUP1 MLOAD PUSH1 0x1F RETURNDATASIZE SWAP1 DUP2 ADD PUSH1 0x1F NOT AND DUP3 ADD SWAP1 SWAP3 MSTORE PUSH2 0x2D9D SWAP2 DUP2 ADD SWAP1 PUSH2 0x44BA JUMP JUMPDEST PUSH1 0x1 JUMPDEST PUSH2 0x2DFD JUMPI RETURNDATASIZE DUP1 DUP1 ISZERO PUSH2 0x2DCE JUMPI PUSH1 0x40 MLOAD SWAP2 POP PUSH1 0x1F NOT PUSH1 0x3F RETURNDATASIZE ADD AND DUP3 ADD PUSH1 0x40 MSTORE RETURNDATASIZE DUP3 MSTORE RETURNDATASIZE PUSH1 0x0 PUSH1 0x20 DUP5 ADD RETURNDATACOPY PUSH2 0x2DD3 JUMP JUMPDEST PUSH1 0x60 SWAP2 POP JUMPDEST POP DUP1 MLOAD PUSH1 0x0 SUB PUSH2 0x2DF5 JUMPI PUSH1 0x40 MLOAD PUSH3 0x461BCD PUSH1 0xE5 SHL DUP2 MSTORE PUSH1 0x4 ADD PUSH2 0xBC0 SWAP1 PUSH2 0x4382 JUMP JUMPDEST DUP1 MLOAD DUP2 PUSH1 0x20 ADD REVERT JUMPDEST PUSH1 0x1 PUSH1 0x1 PUSH1 0xE0 SHL SUB NOT AND PUSH4 0xA85BD01 PUSH1 0xE1 SHL EQ SWAP1 POP PUSH2 0x2233 JUMP JUMPDEST POP PUSH1 0x1 SWAP5 SWAP4 POP POP POP POP JUMP JUMPDEST PUSH1 0x0 PUSH1 0x1 PUSH1 0x1 PUSH1 0xE0 SHL SUB NOT DUP3 AND PUSH4 0x80AC58CD PUSH1 0xE0 SHL EQ DUP1 PUSH2 0x2E53 JUMPI POP PUSH1 0x1 PUSH1 0x1 PUSH1 0xE0 SHL SUB NOT DUP3 AND PUSH4 0x5B5E139F PUSH1 0xE0 SHL EQ JUMPDEST DUP1 PUSH2 0xA8D JUMPI POP PUSH4 0x1FFC9A7 PUSH1 0xE0 SHL PUSH1 0x1 PUSH1 0x1 PUSH1 0xE0 SHL SUB NOT DUP4 AND EQ PUSH2 0xA8D JUMP JUMPDEST PUSH1 0x60 PUSH1 0x0 PUSH2 0x2E81 DUP4 PUSH1 0x2 PUSH2 0x44D7 JUMP JUMPDEST PUSH2 0x2E8C SWAP1 PUSH1 0x2 PUSH2 0x3E2B JUMP JUMPDEST PUSH1 0x1 PUSH1 0x1 PUSH1 0x40 SHL SUB DUP2 GT ISZERO PUSH2 0x2EA3 JUMPI PUSH2 0x2EA3 PUSH2 0x3720 JUMP JUMPDEST PUSH1 0x40 MLOAD SWAP1 DUP1 DUP3 MSTORE DUP1 PUSH1 0x1F ADD PUSH1 0x1F NOT AND PUSH1 0x20 ADD DUP3 ADD PUSH1 0x40 MSTORE DUP1 ISZERO PUSH2 0x2ECD JUMPI PUSH1 0x20 DUP3 ADD DUP2 DUP1 CALLDATASIZE DUP4 CALLDATACOPY ADD SWAP1 POP JUMPDEST POP SWAP1 POP PUSH1 0x3 PUSH1 0xFC SHL DUP2 PUSH1 0x0 DUP2 MLOAD DUP2 LT PUSH2 0x2EE8 JUMPI PUSH2 0x2EE8 PUSH2 0x3DFF JUMP JUMPDEST PUSH1 0x20 ADD ADD SWAP1 PUSH1 0x1 PUSH1 0x1 PUSH1 0xF8 SHL SUB NOT AND SWAP1 DUP2 PUSH1 0x0 BYTE SWAP1 MSTORE8 POP PUSH1 0xF PUSH1 0xFB SHL DUP2 PUSH1 0x1 DUP2 MLOAD DUP2 LT PUSH2 0x2F17 JUMPI PUSH2 0x2F17 PUSH2 0x3DFF JUMP JUMPDEST PUSH1 0x20 ADD ADD SWAP1 PUSH1 0x1 PUSH1 0x1 PUSH1 0xF8 SHL SUB NOT AND SWAP1 DUP2 PUSH1 0x0 BYTE SWAP1 MSTORE8 POP PUSH1 0x0 PUSH2 0x2F3B DUP5 PUSH1 0x2 PUSH2 0x44D7 JUMP JUMPDEST PUSH2 0x2F46 SWAP1 PUSH1 0x1 PUSH2 0x3E2B JUMP JUMPDEST SWAP1 POP JUMPDEST PUSH1 0x1 DUP2 GT ISZERO PUSH2 0x2FBE JUMPI PUSH16 0x181899199A1A9B1B9C1CB0B131B232B3 PUSH1 0x81 SHL DUP6 PUSH1 0xF AND PUSH1 0x10 DUP2 LT PUSH2 0x2F7A JUMPI PUSH2 0x2F7A PUSH2 0x3DFF JUMP JUMPDEST BYTE PUSH1 0xF8 SHL DUP3 DUP3 DUP2 MLOAD DUP2 LT PUSH2 0x2F90 JUMPI PUSH2 0x2F90 PUSH2 0x3DFF JUMP JUMPDEST PUSH1 0x20 ADD ADD SWAP1 PUSH1 0x1 PUSH1 0x1 PUSH1 0xF8 SHL SUB NOT AND SWAP1 DUP2 PUSH1 0x0 BYTE SWAP1 MSTORE8 POP PUSH1 0x4 SWAP5 SWAP1 SWAP5 SHR SWAP4 PUSH2 0x2FB7 DUP2 PUSH2 0x3FA2 JUMP JUMPDEST SWAP1 POP PUSH2 0x2F49 JUMP JUMPDEST POP DUP4 ISZERO PUSH2 0x19DA JUMPI PUSH1 0x40 MLOAD PUSH3 0x461BCD PUSH1 0xE5 SHL DUP2 MSTORE PUSH1 0x20 PUSH1 0x4 DUP3 ADD DUP2 SWAP1 MSTORE PUSH1 0x24 DUP3 ADD MSTORE PUSH32 0x537472696E67733A20686578206C656E67746820696E73756666696369656E74 PUSH1 0x44 DUP3 ADD MSTORE PUSH1 0x64 ADD PUSH2 0xBC0 JUMP JUMPDEST PUSH1 0x1 PUSH1 0x1 PUSH1 0xA0 SHL SUB DUP4 AND PUSH2 0x3068 JUMPI PUSH2 0x3063 DUP2 PUSH1 0x99 DUP1 SLOAD PUSH1 0x0 DUP4 DUP2 MSTORE PUSH1 0x9A PUSH1 0x20 MSTORE PUSH1 0x40 DUP2 KECCAK256 DUP3 SWAP1 SSTORE PUSH1 0x1 DUP3 ADD DUP4 SSTORE SWAP2 SWAP1 SWAP2 MSTORE PUSH32 0x72A152DDFB8E864297C917AF52EA6C1C68AEAD0FEE1A62673FCC7E0C94979D00 ADD SSTORE JUMP JUMPDEST PUSH2 0x308B JUMP JUMPDEST DUP2 PUSH1 0x1 PUSH1 0x1 PUSH1 0xA0 SHL SUB AND DUP4 PUSH1 0x1 PUSH1 0x1 PUSH1 0xA0 SHL SUB AND EQ PUSH2 0x308B JUMPI PUSH2 0x308B DUP4 DUP3 PUSH2 0x322C JUMP JUMPDEST PUSH1 0x1 PUSH1 0x1 PUSH1 0xA0 SHL SUB DUP3 AND PUSH2 0x30A2 JUMPI PUSH2 0xC61 DUP2 PUSH2 0x32C9 JUMP JUMPDEST DUP3 PUSH1 0x1 PUSH1 0x1 PUSH1 0xA0 SHL SUB AND DUP3 PUSH1 0x1 PUSH1 0x1 PUSH1 0xA0 SHL SUB AND EQ PUSH2 0xC61 JUMPI PUSH2 0xC61 DUP3 DUP3 PUSH2 0x3378 JUMP JUMPDEST PUSH2 0x30CF DUP4 DUP4 PUSH2 0x33BC JUMP JUMPDEST PUSH2 0x30DC PUSH1 0x0 DUP5 DUP5 DUP5 PUSH2 0x2D21 JUMP JUMPDEST PUSH2 0xC61 JUMPI PUSH1 0x40 MLOAD PUSH3 0x461BCD PUSH1 0xE5 SHL DUP2 MSTORE PUSH1 0x4 ADD PUSH2 0xBC0 SWAP1 PUSH2 0x4382 JUMP JUMPDEST PUSH2 0x3101 DUP2 PUSH2 0x2C20 JUMP JUMPDEST PUSH1 0x40 MLOAD PUSH1 0x1 PUSH1 0x1 PUSH1 0xA0 SHL SUB DUP3 AND SWAP1 PUSH32 0xBC7CD75A20EE27FD9ADEBAB32041F755214DBC6BFFA90CC0225B39DA2E5C2D3B SWAP1 PUSH1 0x0 SWAP1 LOG2 POP JUMP JUMPDEST PUSH1 0x60 PUSH1 0x1 PUSH1 0x1 PUSH1 0xA0 SHL SUB DUP4 AND EXTCODESIZE PUSH2 0x31A0 JUMPI PUSH1 0x40 MLOAD PUSH3 0x461BCD PUSH1 0xE5 SHL DUP2 MSTORE PUSH1 0x20 PUSH1 0x4 DUP3 ADD MSTORE PUSH1 0x26 PUSH1 0x24 DUP3 ADD MSTORE PUSH32 0x416464726573733A2064656C65676174652063616C6C20746F206E6F6E2D636F PUSH1 0x44 DUP3 ADD MSTORE PUSH6 0x1B9D1C9858DD PUSH1 0xD2 SHL PUSH1 0x64 DUP3 ADD MSTORE PUSH1 0x84 ADD PUSH2 0xBC0 JUMP JUMPDEST PUSH1 0x0 DUP1 DUP5 PUSH1 0x1 PUSH1 0x1 PUSH1 0xA0 SHL SUB AND DUP5 PUSH1 0x40 MLOAD PUSH2 0x31BB SWAP2 SWAP1 PUSH2 0x40A9 JUMP JUMPDEST PUSH1 0x0 PUSH1 0x40 MLOAD DUP1 DUP4 SUB DUP2 DUP6 GAS DELEGATECALL SWAP2 POP POP RETURNDATASIZE DUP1 PUSH1 0x0 DUP2 EQ PUSH2 0x31F6 JUMPI PUSH1 0x40 MLOAD SWAP2 POP PUSH1 0x1F NOT PUSH1 0x3F RETURNDATASIZE ADD AND DUP3 ADD PUSH1 0x40 MSTORE RETURNDATASIZE DUP3 MSTORE RETURNDATASIZE PUSH1 0x0 PUSH1 0x20 DUP5 ADD RETURNDATACOPY PUSH2 0x31FB JUMP JUMPDEST PUSH1 0x60 SWAP2 POP JUMPDEST POP SWAP2 POP SWAP2 POP PUSH2 0x3223 DUP3 DUP3 PUSH1 0x40 MLOAD DUP1 PUSH1 0x60 ADD PUSH1 0x40 MSTORE DUP1 PUSH1 0x27 DUP2 MSTORE PUSH1 0x20 ADD PUSH2 0x4525 PUSH1 0x27 SWAP2 CODECOPY PUSH2 0x350A JUMP JUMPDEST SWAP6 SWAP5 POP POP POP POP POP JUMP JUMPDEST PUSH1 0x0 PUSH1 0x1 PUSH2 0x3239 DUP5 PUSH2 0x15A3 JUMP JUMPDEST PUSH2 0x3243 SWAP2 SWAP1 PUSH2 0x4186 JUMP JUMPDEST PUSH1 0x0 DUP4 DUP2 MSTORE PUSH1 0x98 PUSH1 0x20 MSTORE PUSH1 0x40 SWAP1 KECCAK256 SLOAD SWAP1 SWAP2 POP DUP1 DUP3 EQ PUSH2 0x3296 JUMPI PUSH1 0x1 PUSH1 0x1 PUSH1 0xA0 SHL SUB DUP5 AND PUSH1 0x0 SWAP1 DUP2 MSTORE PUSH1 0x97 PUSH1 0x20 SWAP1 DUP2 MSTORE PUSH1 0x40 DUP1 DUP4 KECCAK256 DUP6 DUP5 MSTORE DUP3 MSTORE DUP1 DUP4 KECCAK256 SLOAD DUP5 DUP5 MSTORE DUP2 DUP5 KECCAK256 DUP2 SWAP1 SSTORE DUP4 MSTORE PUSH1 0x98 SWAP1 SWAP2 MSTORE SWAP1 KECCAK256 DUP2 SWAP1 SSTORE JUMPDEST POP PUSH1 0x0 SWAP2 DUP3 MSTORE PUSH1 0x98 PUSH1 0x20 SWAP1 DUP2 MSTORE PUSH1 0x40 DUP1 DUP5 KECCAK256 DUP5 SWAP1 SSTORE PUSH1 0x1 PUSH1 0x1 PUSH1 0xA0 SHL SUB SWAP1 SWAP5 AND DUP4 MSTORE PUSH1 0x97 DUP2 MSTORE DUP4 DUP4 KECCAK256 SWAP2 DUP4 MSTORE MSTORE SWAP1 DUP2 KECCAK256 SSTORE JUMP JUMPDEST PUSH1 0x99 SLOAD PUSH1 0x0 SWAP1 PUSH2 0x32DB SWAP1 PUSH1 0x1 SWAP1 PUSH2 0x4186 JUMP JUMPDEST PUSH1 0x0 DUP4 DUP2 MSTORE PUSH1 0x9A PUSH1 0x20 MSTORE PUSH1 0x40 DUP2 KECCAK256 SLOAD PUSH1 0x99 DUP1 SLOAD SWAP4 SWAP5 POP SWAP1 SWAP3 DUP5 SWAP1 DUP2 LT PUSH2 0x3303 JUMPI PUSH2 0x3303 PUSH2 0x3DFF JUMP JUMPDEST SWAP1 PUSH1 0x0 MSTORE PUSH1 0x20 PUSH1 0x0 KECCAK256 ADD SLOAD SWAP1 POP DUP1 PUSH1 0x99 DUP4 DUP2 SLOAD DUP2 LT PUSH2 0x3324 JUMPI PUSH2 0x3324 PUSH2 0x3DFF JUMP JUMPDEST PUSH1 0x0 SWAP2 DUP3 MSTORE PUSH1 0x20 DUP1 DUP4 KECCAK256 SWAP1 SWAP2 ADD SWAP3 SWAP1 SWAP3 SSTORE DUP3 DUP2 MSTORE PUSH1 0x9A SWAP1 SWAP2 MSTORE PUSH1 0x40 DUP1 DUP3 KECCAK256 DUP5 SWAP1 SSTORE DUP6 DUP3 MSTORE DUP2 KECCAK256 SSTORE PUSH1 0x99 DUP1 SLOAD DUP1 PUSH2 0x335C JUMPI PUSH2 0x335C PUSH2 0x44EE JUMP JUMPDEST PUSH1 0x1 SWAP1 SUB DUP2 DUP2 SWAP1 PUSH1 0x0 MSTORE PUSH1 0x20 PUSH1 0x0 KECCAK256 ADD PUSH1 0x0 SWAP1 SSTORE SWAP1 SSTORE POP POP POP POP JUMP JUMPDEST PUSH1 0x0 PUSH2 0x3383 DUP4 PUSH2 0x15A3 JUMP JUMPDEST PUSH1 0x1 PUSH1 0x1 PUSH1 0xA0 SHL SUB SWAP1 SWAP4 AND PUSH1 0x0 SWAP1 DUP2 MSTORE PUSH1 0x97 PUSH1 0x20 SWAP1 DUP2 MSTORE PUSH1 0x40 DUP1 DUP4 KECCAK256 DUP7 DUP5 MSTORE DUP3 MSTORE DUP1 DUP4 KECCAK256 DUP6 SWAP1 SSTORE SWAP4 DUP3 MSTORE PUSH1 0x98 SWAP1 MSTORE SWAP2 SWAP1 SWAP2 KECCAK256 SWAP2 SWAP1 SWAP2 SSTORE POP JUMP JUMPDEST PUSH1 0x1 PUSH1 0x1 PUSH1 0xA0 SHL SUB DUP3 AND PUSH2 0x3412 JUMPI PUSH1 0x40 MLOAD PUSH3 0x461BCD PUSH1 0xE5 SHL DUP2 MSTORE PUSH1 0x20 PUSH1 0x4 DUP3 ADD DUP2 SWAP1 MSTORE PUSH1 0x24 DUP3 ADD MSTORE PUSH32 0x4552433732313A206D696E7420746F20746865207A65726F2061646472657373 PUSH1 0x44 DUP3 ADD MSTORE PUSH1 0x64 ADD PUSH2 0xBC0 JUMP JUMPDEST PUSH1 0x0 DUP2 DUP2 MSTORE PUSH1 0x67 PUSH1 0x20 MSTORE PUSH1 0x40 SWAP1 KECCAK256 SLOAD PUSH1 0x1 PUSH1 0x1 PUSH1 0xA0 SHL SUB AND ISZERO PUSH2 0x3477 JUMPI PUSH1 0x40 MLOAD PUSH3 0x461BCD PUSH1 0xE5 SHL DUP2 MSTORE PUSH1 0x20 PUSH1 0x4 DUP3 ADD MSTORE PUSH1 0x1C PUSH1 0x24 DUP3 ADD MSTORE PUSH32 0x4552433732313A20746F6B656E20616C7265616479206D696E74656400000000 PUSH1 0x44 DUP3 ADD MSTORE PUSH1 0x64 ADD PUSH2 0xBC0 JUMP JUMPDEST PUSH2 0x3483 PUSH1 0x0 DUP4 DUP4 PUSH2 0x2BAB JUMP JUMPDEST PUSH1 0x1 PUSH1 0x1 PUSH1 0xA0 SHL SUB DUP3 AND PUSH1 0x0 SWAP1 DUP2 MSTORE PUSH1 0x68 PUSH1 0x20 MSTORE PUSH1 0x40 DUP2 KECCAK256 DUP1 SLOAD PUSH1 0x1 SWAP3 SWAP1 PUSH2 0x34AC SWAP1 DUP5 SWAP1 PUSH2 0x3E2B JUMP JUMPDEST SWAP1 SWAP2 SSTORE POP POP PUSH1 0x0 DUP2 DUP2 MSTORE PUSH1 0x67 PUSH1 0x20 MSTORE PUSH1 0x40 DUP1 DUP3 KECCAK256 DUP1 SLOAD PUSH1 0x1 PUSH1 0x1 PUSH1 0xA0 SHL SUB NOT AND PUSH1 0x1 PUSH1 0x1 PUSH1 0xA0 SHL SUB DUP7 AND SWAP1 DUP2 OR SWAP1 SWAP2 SSTORE SWAP1 MLOAD DUP4 SWAP3 SWAP1 PUSH32 0xDDF252AD1BE2C89B69C2B068FC378DAA952BA7F163C4A11628F55A4DF523B3EF SWAP1 DUP3 SWAP1 LOG4 POP POP JUMP JUMPDEST PUSH1 0x60 DUP4 ISZERO PUSH2 0x3519 JUMPI POP DUP2 PUSH2 0x19DA JUMP JUMPDEST DUP3 MLOAD ISZERO PUSH2 0x3529 JUMPI DUP3 MLOAD DUP1 DUP5 PUSH1 0x20 ADD REVERT JUMPDEST DUP2 PUSH1 0x40 MLOAD PUSH3 0x461BCD PUSH1 0xE5 SHL DUP2 MSTORE PUSH1 0x4 ADD PUSH2 0xBC0 SWAP2 SWAP1 PUSH2 0x3650 JUMP JUMPDEST DUP3 PUSH1 0x2 DUP2 ADD SWAP3 DUP3 ISZERO PUSH2 0x3571 JUMPI SWAP2 PUSH1 0x20 MUL DUP3 ADD JUMPDEST DUP3 DUP2 GT ISZERO PUSH2 0x3571 JUMPI DUP3 CALLDATALOAD DUP3 SSTORE SWAP2 PUSH1 0x20 ADD SWAP2 SWAP1 PUSH1 0x1 ADD SWAP1 PUSH2 0x3556 JUMP JUMPDEST POP PUSH2 0x357D SWAP3 SWAP2 POP PUSH2 0x3581 JUMP JUMPDEST POP SWAP1 JUMP JUMPDEST JUMPDEST DUP1 DUP3 GT ISZERO PUSH2 0x357D JUMPI PUSH1 0x0 DUP2 SSTORE PUSH1 0x1 ADD PUSH2 0x3582 JUMP JUMPDEST DUP1 CALLDATALOAD PUSH1 0x1 PUSH1 0x1 PUSH1 0xA0 SHL SUB DUP2 AND DUP2 EQ PUSH2 0x35AD JUMPI PUSH1 0x0 DUP1 REVERT JUMPDEST SWAP2 SWAP1 POP JUMP JUMPDEST PUSH1 0x0 PUSH1 0x20 DUP3 DUP5 SUB SLT ISZERO PUSH2 0x35C4 JUMPI PUSH1 0x0 DUP1 REVERT JUMPDEST PUSH2 0x19DA DUP3 PUSH2 0x3596 JUMP JUMPDEST PUSH1 0x1 PUSH1 0x1 PUSH1 0xE0 SHL SUB NOT DUP2 AND DUP2 EQ PUSH2 0xEC2 JUMPI PUSH1 0x0 DUP1 REVERT JUMPDEST PUSH1 0x0 PUSH1 0x20 DUP3 DUP5 SUB SLT ISZERO PUSH2 0x35F5 JUMPI PUSH1 0x0 DUP1 REVERT JUMPDEST DUP2 CALLDATALOAD PUSH2 0x19DA DUP2 PUSH2 0x35CD JUMP JUMPDEST PUSH1 0x0 JUMPDEST DUP4 DUP2 LT ISZERO PUSH2 0x361B JUMPI DUP2 DUP2 ADD MLOAD DUP4 DUP3 ADD MSTORE PUSH1 0x20 ADD PUSH2 0x3603 JUMP JUMPDEST POP POP PUSH1 0x0 SWAP2 ADD MSTORE JUMP JUMPDEST PUSH1 0x0 DUP2 MLOAD DUP1 DUP5 MSTORE PUSH2 0x363C DUP2 PUSH1 0x20 DUP7 ADD PUSH1 0x20 DUP7 ADD PUSH2 0x3600 JUMP JUMPDEST PUSH1 0x1F ADD PUSH1 0x1F NOT AND SWAP3 SWAP1 SWAP3 ADD PUSH1 0x20 ADD SWAP3 SWAP2 POP POP JUMP JUMPDEST PUSH1 0x20 DUP2 MSTORE PUSH1 0x0 PUSH2 0x19DA PUSH1 0x20 DUP4 ADD DUP5 PUSH2 0x3624 JUMP JUMPDEST PUSH1 0x0 PUSH1 0x20 DUP3 DUP5 SUB SLT ISZERO PUSH2 0x3675 JUMPI PUSH1 0x0 DUP1 REVERT JUMPDEST POP CALLDATALOAD SWAP2 SWAP1 POP JUMP JUMPDEST PUSH1 0x0 DUP1 PUSH1 0x40 DUP4 DUP6 SUB SLT ISZERO PUSH2 0x368F JUMPI PUSH1 0x0 DUP1 REVERT JUMPDEST PUSH2 0x3698 DUP4 PUSH2 0x3596 JUMP JUMPDEST SWAP5 PUSH1 0x20 SWAP4 SWAP1 SWAP4 ADD CALLDATALOAD SWAP4 POP POP POP JUMP JUMPDEST PUSH1 0x0 DUP1 PUSH1 0x0 PUSH1 0x40 DUP5 DUP7 SUB SLT ISZERO PUSH2 0x36BB JUMPI PUSH1 0x0 DUP1 REVERT JUMPDEST DUP4 CALLDATALOAD PUSH1 0x1 PUSH1 0x1 PUSH1 0x40 SHL SUB DUP1 DUP3 GT ISZERO PUSH2 0x36D2 JUMPI PUSH1 0x0 DUP1 REVERT JUMPDEST DUP2 DUP7 ADD SWAP2 POP DUP7 PUSH1 0x1F DUP4 ADD SLT PUSH2 0x36E6 JUMPI PUSH1 0x0 DUP1 REVERT JUMPDEST DUP2 CALLDATALOAD DUP2 DUP2 GT ISZERO PUSH2 0x36F5 JUMPI PUSH1 0x0 DUP1 REVERT JUMPDEST DUP8 PUSH1 0x20 DUP3 PUSH1 0x5 SHL DUP6 ADD ADD GT ISZERO PUSH2 0x370A JUMPI PUSH1 0x0 DUP1 REVERT JUMPDEST PUSH1 0x20 SWAP3 DUP4 ADD SWAP9 SWAP1 SWAP8 POP SWAP6 SWAP1 SWAP2 ADD CALLDATALOAD SWAP5 SWAP4 POP POP POP POP JUMP JUMPDEST PUSH4 0x4E487B71 PUSH1 0xE0 SHL PUSH1 0x0 MSTORE PUSH1 0x41 PUSH1 0x4 MSTORE PUSH1 0x24 PUSH1 0x0 REVERT JUMPDEST PUSH1 0x40 DUP1 MLOAD SWAP1 DUP2 ADD PUSH1 0x1 PUSH1 0x1 PUSH1 0x40 SHL SUB DUP2 GT DUP3 DUP3 LT OR ISZERO PUSH2 0x3758 JUMPI PUSH2 0x3758 PUSH2 0x3720 JUMP JUMPDEST PUSH1 0x40 MSTORE SWAP1 JUMP JUMPDEST PUSH1 0x40 MLOAD PUSH1 0x60 DUP2 ADD PUSH1 0x1 PUSH1 0x1 PUSH1 0x40 SHL SUB DUP2 GT DUP3 DUP3 LT OR ISZERO PUSH2 0x3758 JUMPI PUSH2 0x3758 PUSH2 0x3720 JUMP JUMPDEST PUSH1 0x0 DUP3 PUSH1 0x1F DUP4 ADD SLT PUSH2 0x3791 JUMPI PUSH1 0x0 DUP1 REVERT JUMPDEST DUP2 CALLDATALOAD PUSH1 0x1 PUSH1 0x1 PUSH1 0x40 SHL SUB DUP1 DUP3 GT ISZERO PUSH2 0x37AB JUMPI PUSH2 0x37AB PUSH2 0x3720 JUMP JUMPDEST PUSH1 0x40 MLOAD PUSH1 0x1F DUP4 ADD PUSH1 0x1F NOT SWAP1 DUP2 AND PUSH1 0x3F ADD AND DUP2 ADD SWAP1 DUP3 DUP3 GT DUP2 DUP4 LT OR ISZERO PUSH2 0x37D3 JUMPI PUSH2 0x37D3 PUSH2 0x3720 JUMP JUMPDEST DUP2 PUSH1 0x40 MSTORE DUP4 DUP2 MSTORE DUP7 PUSH1 0x20 DUP6 DUP9 ADD ADD GT ISZERO PUSH2 0x37EC JUMPI PUSH1 0x0 DUP1 REVERT JUMPDEST DUP4 PUSH1 0x20 DUP8 ADD PUSH1 0x20 DUP4 ADD CALLDATACOPY PUSH1 0x0 PUSH1 0x20 DUP6 DUP4 ADD ADD MSTORE DUP1 SWAP5 POP POP POP POP POP SWAP3 SWAP2 POP POP JUMP JUMPDEST PUSH1 0x0 PUSH1 0x20 DUP3 DUP5 SUB SLT ISZERO PUSH2 0x381E JUMPI PUSH1 0x0 DUP1 REVERT JUMPDEST DUP2 CALLDATALOAD PUSH1 0x1 PUSH1 0x1 PUSH1 0x40 SHL SUB DUP2 GT ISZERO PUSH2 0x3834 JUMPI PUSH1 0x0 DUP1 REVERT JUMPDEST PUSH2 0x2233 DUP5 DUP3 DUP6 ADD PUSH2 0x3780 JUMP JUMPDEST PUSH1 0x0 DUP1 DUP4 PUSH1 0x1F DUP5 ADD SLT PUSH2 0x3852 JUMPI PUSH1 0x0 DUP1 REVERT JUMPDEST POP DUP2 CALLDATALOAD PUSH1 0x1 PUSH1 0x1 PUSH1 0x40 SHL SUB DUP2 GT ISZERO PUSH2 0x3869 JUMPI PUSH1 0x0 DUP1 REVERT JUMPDEST PUSH1 0x20 DUP4 ADD SWAP2 POP DUP4 PUSH1 0x20 DUP3 DUP6 ADD ADD GT ISZERO PUSH2 0x3881 JUMPI PUSH1 0x0 DUP1 REVERT JUMPDEST SWAP3 POP SWAP3 SWAP1 POP JUMP JUMPDEST PUSH1 0x0 DUP1 PUSH1 0x20 DUP4 DUP6 SUB SLT ISZERO PUSH2 0x389B JUMPI PUSH1 0x0 DUP1 REVERT JUMPDEST DUP3 CALLDATALOAD PUSH1 0x1 PUSH1 0x1 PUSH1 0x40 SHL SUB DUP2 GT ISZERO PUSH2 0x38B1 JUMPI PUSH1 0x0 DUP1 REVERT JUMPDEST PUSH2 0x38BD DUP6 DUP3 DUP7 ADD PUSH2 0x3840 JUMP JUMPDEST SWAP1 SWAP7 SWAP1 SWAP6 POP SWAP4 POP POP POP POP JUMP JUMPDEST PUSH1 0x0 DUP1 PUSH1 0x0 PUSH1 0x60 DUP5 DUP7 SUB SLT ISZERO PUSH2 0x38DE JUMPI PUSH1 0x0 DUP1 REVERT JUMPDEST PUSH2 0x38E7 DUP5 PUSH2 0x3596 JUMP JUMPDEST SWAP3 POP PUSH2 0x38F5 PUSH1 0x20 DUP6 ADD PUSH2 0x3596 JUMP JUMPDEST SWAP2 POP PUSH1 0x40 DUP5 ADD CALLDATALOAD SWAP1 POP SWAP3 POP SWAP3 POP SWAP3 JUMP JUMPDEST PUSH1 0x0 DUP1 PUSH1 0x40 DUP4 DUP6 SUB SLT ISZERO PUSH2 0x3918 JUMPI PUSH1 0x0 DUP1 REVERT JUMPDEST DUP3 CALLDATALOAD SWAP2 POP PUSH2 0x3928 PUSH1 0x20 DUP5 ADD PUSH2 0x3596 JUMP JUMPDEST SWAP1 POP SWAP3 POP SWAP3 SWAP1 POP JUMP JUMPDEST PUSH1 0x0 DUP1 PUSH1 0x0 DUP1 PUSH1 0x0 PUSH1 0xA0 DUP7 DUP9 SUB SLT ISZERO PUSH2 0x3949 JUMPI PUSH1 0x0 DUP1 REVERT JUMPDEST PUSH2 0x3952 DUP7 PUSH2 0x3596 JUMP JUMPDEST SWAP5 POP PUSH1 0x20 DUP7 ADD CALLDATALOAD PUSH1 0x1 PUSH1 0x1 PUSH1 0x40 SHL SUB DUP1 DUP3 GT ISZERO PUSH2 0x396E JUMPI PUSH1 0x0 DUP1 REVERT JUMPDEST PUSH2 0x397A DUP10 DUP4 DUP11 ADD PUSH2 0x3780 JUMP JUMPDEST SWAP6 POP PUSH1 0x40 DUP9 ADD CALLDATALOAD SWAP2 POP DUP1 DUP3 GT ISZERO PUSH2 0x3990 JUMPI PUSH1 0x0 DUP1 REVERT JUMPDEST PUSH2 0x399C DUP10 DUP4 DUP11 ADD PUSH2 0x3780 JUMP JUMPDEST SWAP5 POP PUSH1 0x60 DUP9 ADD CALLDATALOAD SWAP2 POP DUP1 DUP3 GT ISZERO PUSH2 0x39B2 JUMPI PUSH1 0x0 DUP1 REVERT JUMPDEST POP PUSH2 0x39BF DUP9 DUP3 DUP10 ADD PUSH2 0x3780 JUMP JUMPDEST SWAP6 SWAP9 SWAP5 SWAP8 POP SWAP3 SWAP6 PUSH1 0x80 ADD CALLDATALOAD SWAP4 SWAP3 POP POP POP JUMP JUMPDEST PUSH1 0x0 DUP1 PUSH1 0x40 DUP4 DUP6 SUB SLT ISZERO PUSH2 0x39E4 JUMPI PUSH1 0x0 DUP1 REVERT JUMPDEST PUSH2 0x39ED DUP4 PUSH2 0x3596 JUMP JUMPDEST SWAP2 POP PUSH1 0x20 DUP4 ADD CALLDATALOAD PUSH1 0x1 PUSH1 0x1 PUSH1 0x40 SHL SUB DUP2 GT ISZERO PUSH2 0x3A08 JUMPI PUSH1 0x0 DUP1 REVERT JUMPDEST PUSH2 0x3A14 DUP6 DUP3 DUP7 ADD PUSH2 0x3780 JUMP JUMPDEST SWAP2 POP POP SWAP3 POP SWAP3 SWAP1 POP JUMP JUMPDEST PUSH1 0x60 DUP2 MSTORE PUSH1 0x0 PUSH2 0x3A31 PUSH1 0x60 DUP4 ADD DUP7 PUSH2 0x3624 JUMP JUMPDEST DUP3 DUP2 SUB PUSH1 0x20 DUP5 ADD MSTORE PUSH2 0x3A43 DUP2 DUP7 PUSH2 0x3624 JUMP JUMPDEST SWAP1 POP DUP3 DUP2 SUB PUSH1 0x40 DUP5 ADD MSTORE PUSH2 0x3A57 DUP2 DUP6 PUSH2 0x3624 JUMP JUMPDEST SWAP7 SWAP6 POP POP POP POP POP POP JUMP JUMPDEST PUSH1 0x0 DUP1 PUSH1 0x0 DUP1 PUSH1 0x0 DUP1 PUSH1 0x0 DUP1 PUSH1 0x0 PUSH1 0xE0 DUP11 DUP13 SUB SLT ISZERO PUSH2 0x3A7F JUMPI PUSH1 0x0 DUP1 REVERT JUMPDEST PUSH2 0x3A88 DUP11 PUSH2 0x3596 JUMP JUMPDEST SWAP9 POP PUSH1 0x60 DUP11 ADD DUP12 DUP2 GT ISZERO PUSH2 0x3A9B JUMPI PUSH1 0x0 DUP1 REVERT JUMPDEST PUSH1 0x20 DUP12 ADD SWAP9 POP CALLDATALOAD SWAP7 POP PUSH1 0x80 DUP11 ADD CALLDATALOAD PUSH1 0x1 PUSH1 0x1 PUSH1 0x40 SHL SUB DUP1 DUP3 GT ISZERO PUSH2 0x3ABE JUMPI PUSH1 0x0 DUP1 REVERT JUMPDEST PUSH2 0x3ACA DUP14 DUP4 DUP15 ADD PUSH2 0x3840 JUMP JUMPDEST SWAP1 SWAP9 POP SWAP7 POP PUSH1 0xA0 DUP13 ADD CALLDATALOAD SWAP2 POP DUP1 DUP3 GT ISZERO PUSH2 0x3AE3 JUMPI PUSH1 0x0 DUP1 REVERT JUMPDEST PUSH2 0x3AEF DUP14 DUP4 DUP15 ADD PUSH2 0x3840 JUMP JUMPDEST SWAP1 SWAP7 POP SWAP5 POP PUSH1 0xC0 DUP13 ADD CALLDATALOAD SWAP2 POP DUP1 DUP3 GT ISZERO PUSH2 0x3B08 JUMPI PUSH1 0x0 DUP1 REVERT JUMPDEST POP PUSH2 0x3B15 DUP13 DUP3 DUP14 ADD PUSH2 0x3840 JUMP JUMPDEST SWAP2 POP DUP1 SWAP4 POP POP DUP1 SWAP2 POP POP SWAP3 SWAP6 SWAP9 POP SWAP3 SWAP6 SWAP9 POP SWAP3 SWAP6 SWAP9 JUMP JUMPDEST DUP1 ISZERO ISZERO DUP2 EQ PUSH2 0xEC2 JUMPI PUSH1 0x0 DUP1 REVERT JUMPDEST PUSH1 0x0 DUP1 PUSH1 0x40 DUP4 DUP6 SUB SLT ISZERO PUSH2 0x3B4D JUMPI PUSH1 0x0 DUP1 REVERT JUMPDEST PUSH2 0x3B56 DUP4 PUSH2 0x3596 JUMP JUMPDEST SWAP2 POP PUSH1 0x20 DUP4 ADD CALLDATALOAD PUSH2 0x3B66 DUP2 PUSH2 0x3B2C JUMP JUMPDEST DUP1 SWAP2 POP POP SWAP3 POP SWAP3 SWAP1 POP JUMP JUMPDEST PUSH1 0x0 DUP1 PUSH1 0x0 DUP1 PUSH1 0x80 DUP6 DUP8 SUB SLT ISZERO PUSH2 0x3B87 JUMPI PUSH1 0x0 DUP1 REVERT JUMPDEST PUSH2 0x3B90 DUP6 PUSH2 0x3596 JUMP JUMPDEST SWAP4 POP PUSH2 0x3B9E PUSH1 0x20 DUP7 ADD PUSH2 0x3596 JUMP JUMPDEST SWAP3 POP PUSH1 0x40 DUP6 ADD CALLDATALOAD SWAP2 POP PUSH1 0x60 DUP6 ADD CALLDATALOAD PUSH1 0x1 PUSH1 0x1 PUSH1 0x40 SHL SUB DUP2 GT ISZERO PUSH2 0x3BC0 JUMPI PUSH1 0x0 DUP1 REVERT JUMPDEST PUSH2 0x3BCC DUP8 DUP3 DUP9 ADD PUSH2 0x3780 JUMP JUMPDEST SWAP2 POP POP SWAP3 SWAP6 SWAP2 SWAP5 POP SWAP3 POP JUMP JUMPDEST PUSH1 0x0 DUP1 PUSH1 0x0 PUSH1 0x40 DUP5 DUP7 SUB SLT ISZERO PUSH2 0x3BED JUMPI PUSH1 0x0 DUP1 REVERT JUMPDEST DUP4 CALLDATALOAD SWAP3 POP PUSH1 0x20 DUP5 ADD CALLDATALOAD PUSH1 0x1 PUSH1 0x1 PUSH1 0x40 SHL SUB DUP2 GT ISZERO PUSH2 0x3C0A JUMPI PUSH1 0x0 DUP1 REVERT JUMPDEST PUSH2 0x3C16 DUP7 DUP3 DUP8 ADD PUSH2 0x3840 JUMP JUMPDEST SWAP5 SWAP8 SWAP1 SWAP7 POP SWAP4 SWAP5 POP POP POP POP JUMP JUMPDEST PUSH1 0x0 DUP1 PUSH1 0x40 DUP4 DUP6 SUB SLT ISZERO PUSH2 0x3C36 JUMPI PUSH1 0x0 DUP1 REVERT JUMPDEST PUSH2 0x3C3F DUP4 PUSH2 0x3596 JUMP JUMPDEST SWAP2 POP PUSH2 0x3928 PUSH1 0x20 DUP5 ADD PUSH2 0x3596 JUMP JUMPDEST PUSH1 0x0 PUSH1 0x40 DUP3 DUP5 SUB SLT ISZERO PUSH2 0x3C5F JUMPI PUSH1 0x0 DUP1 REVERT JUMPDEST PUSH2 0x3C67 PUSH2 0x3736 JUMP JUMPDEST SWAP1 POP DUP2 CALLDATALOAD DUP2 MSTORE PUSH1 0x20 DUP3 ADD CALLDATALOAD PUSH1 0x20 DUP3 ADD MSTORE SWAP3 SWAP2 POP POP JUMP JUMPDEST PUSH1 0x0 PUSH2 0x3C87 PUSH2 0x375E JUMP JUMPDEST SWAP1 POP DUP1 PUSH1 0x60 DUP4 ADD DUP5 DUP2 GT ISZERO PUSH2 0x3C9B JUMPI PUSH1 0x0 DUP1 REVERT JUMPDEST DUP4 JUMPDEST DUP2 DUP2 LT ISZERO PUSH2 0x3CB5 JUMPI DUP1 CALLDATALOAD DUP4 MSTORE PUSH1 0x20 SWAP3 DUP4 ADD SWAP3 ADD PUSH2 0x3C9D JUMP JUMPDEST POP POP POP SWAP3 SWAP2 POP POP JUMP JUMPDEST PUSH1 0x0 DUP3 PUSH1 0x1F DUP4 ADD SLT PUSH2 0x3CCF JUMPI PUSH1 0x0 DUP1 REVERT JUMPDEST PUSH2 0x3CD7 PUSH2 0x3736 JUMP JUMPDEST DUP1 PUSH1 0x40 DUP5 ADD DUP6 DUP2 GT ISZERO PUSH2 0x3CE9 JUMPI PUSH1 0x0 DUP1 REVERT JUMPDEST DUP5 JUMPDEST DUP2 DUP2 LT ISZERO PUSH2 0x3D03 JUMPI DUP1 CALLDATALOAD DUP5 MSTORE PUSH1 0x20 SWAP4 DUP5 ADD SWAP4 ADD PUSH2 0x3CEB JUMP JUMPDEST POP SWAP1 SWAP6 SWAP5 POP POP POP POP POP JUMP JUMPDEST PUSH1 0x0 DUP1 DUP3 DUP5 SUB PUSH2 0x160 DUP2 SLT ISZERO PUSH2 0x3D23 JUMPI PUSH1 0x0 DUP1 REVERT JUMPDEST PUSH2 0x100 DUP1 DUP3 SLT ISZERO PUSH2 0x3D33 JUMPI PUSH1 0x0 DUP1 REVERT JUMPDEST PUSH2 0x3D3B PUSH2 0x375E JUMP JUMPDEST PUSH2 0x3D45 DUP8 DUP8 PUSH2 0x3C4D JUMP JUMPDEST DUP2 MSTORE PUSH1 0x80 PUSH1 0x3F NOT DUP5 ADD SLT ISZERO PUSH2 0x3D59 JUMPI PUSH1 0x0 DUP1 REVERT JUMPDEST PUSH2 0x3D61 PUSH2 0x3736 JUMP JUMPDEST SWAP3 POP PUSH2 0x3D70 DUP8 PUSH1 0x40 DUP9 ADD PUSH2 0x3CBE JUMP JUMPDEST DUP4 MSTORE PUSH2 0x3D7F DUP8 PUSH1 0x80 DUP9 ADD PUSH2 0x3CBE JUMP JUMPDEST PUSH1 0x20 DUP5 ADD MSTORE DUP3 PUSH1 0x20 DUP3 ADD MSTORE PUSH2 0x3D97 DUP8 PUSH1 0xC0 DUP9 ADD PUSH2 0x3C4D JUMP JUMPDEST PUSH1 0x40 DUP3 ADD MSTORE SWAP4 POP PUSH2 0x11F DUP6 ADD DUP7 SGT PUSH2 0x3DAE JUMPI PUSH1 0x0 DUP1 REVERT JUMPDEST PUSH2 0x3DBA DUP7 DUP3 DUP8 ADD PUSH2 0x3C7D JUMP JUMPDEST SWAP3 POP POP POP SWAP3 POP SWAP3 SWAP1 POP JUMP JUMPDEST PUSH1 0x1 DUP2 DUP2 SHR SWAP1 DUP3 AND DUP1 PUSH2 0x3DD9 JUMPI PUSH1 0x7F DUP3 AND SWAP2 POP JUMPDEST PUSH1 0x20 DUP3 LT DUP2 SUB PUSH2 0x3DF9 JUMPI PUSH4 0x4E487B71 PUSH1 0xE0 SHL PUSH1 0x0 MSTORE PUSH1 0x22 PUSH1 0x4 MSTORE PUSH1 0x24 PUSH1 0x0 REVERT JUMPDEST POP SWAP2 SWAP1 POP JUMP JUMPDEST PUSH4 0x4E487B71 PUSH1 0xE0 SHL PUSH1 0x0 MSTORE PUSH1 0x32 PUSH1 0x4 MSTORE PUSH1 0x24 PUSH1 0x0 REVERT JUMPDEST PUSH4 0x4E487B71 PUSH1 0xE0 SHL PUSH1 0x0 MSTORE PUSH1 0x11 PUSH1 0x4 MSTORE PUSH1 0x24 PUSH1 0x0 REVERT JUMPDEST DUP1 DUP3 ADD DUP1 DUP3 GT ISZERO PUSH2 0xA8D JUMPI PUSH2 0xA8D PUSH2 0x3E15 JUMP JUMPDEST PUSH1 0x1F DUP3 GT ISZERO PUSH2 0xC61 JUMPI PUSH1 0x0 DUP2 PUSH1 0x0 MSTORE PUSH1 0x20 PUSH1 0x0 KECCAK256 PUSH1 0x1F DUP6 ADD PUSH1 0x5 SHR DUP2 ADD PUSH1 0x20 DUP7 LT ISZERO PUSH2 0x3E67 JUMPI POP DUP1 JUMPDEST PUSH1 0x1F DUP6 ADD PUSH1 0x5 SHR DUP3 ADD SWAP2 POP JUMPDEST DUP2 DUP2 LT ISZERO PUSH2 0xEDD JUMPI DUP3 DUP2 SSTORE PUSH1 0x1 ADD PUSH2 0x3E73 JUMP JUMPDEST PUSH1 0x0 NOT PUSH1 0x3 DUP4 SWAP1 SHL SHR NOT AND PUSH1 0x1 SWAP2 SWAP1 SWAP2 SHL OR SWAP1 JUMP JUMPDEST PUSH1 0x1 PUSH1 0x1 PUSH1 0x40 SHL SUB DUP4 GT ISZERO PUSH2 0x3EB2 JUMPI PUSH2 0x3EB2 PUSH2 0x3720 JUMP JUMPDEST PUSH2 0x3EC6 DUP4 PUSH2 0x3EC0 DUP4 SLOAD PUSH2 0x3DC5 JUMP JUMPDEST DUP4 PUSH2 0x3E3E JUMP JUMPDEST PUSH1 0x0 PUSH1 0x1F DUP5 GT PUSH1 0x1 DUP2 EQ PUSH2 0x3EF4 JUMPI PUSH1 0x0 DUP6 ISZERO PUSH2 0x3EE2 JUMPI POP DUP4 DUP3 ADD CALLDATALOAD JUMPDEST PUSH2 0x3EEC DUP7 DUP3 PUSH2 0x3E86 JUMP JUMPDEST DUP5 SSTORE POP PUSH2 0x1973 JUMP JUMPDEST PUSH1 0x0 DUP4 DUP2 MSTORE PUSH1 0x20 SWAP1 KECCAK256 PUSH1 0x1F NOT DUP7 AND SWAP1 DUP4 JUMPDEST DUP3 DUP2 LT ISZERO PUSH2 0x3F25 JUMPI DUP7 DUP6 ADD CALLDATALOAD DUP3 SSTORE PUSH1 0x20 SWAP5 DUP6 ADD SWAP5 PUSH1 0x1 SWAP1 SWAP3 ADD SWAP2 ADD PUSH2 0x3F05 JUMP JUMPDEST POP DUP7 DUP3 LT ISZERO PUSH2 0x3F42 JUMPI PUSH1 0x0 NOT PUSH1 0xF8 DUP9 PUSH1 0x3 SHL AND SHR NOT DUP5 DUP8 ADD CALLDATALOAD AND DUP2 SSTORE JUMPDEST POP POP PUSH1 0x1 DUP6 PUSH1 0x1 SHL ADD DUP4 SSTORE POP POP POP POP POP JUMP JUMPDEST PUSH1 0x20 DUP1 DUP3 MSTORE PUSH1 0x2E SWAP1 DUP3 ADD MSTORE PUSH32 0x4552433732313A2063616C6C6572206973206E6F7420746F6B656E206F776E65 PUSH1 0x40 DUP3 ADD MSTORE PUSH14 0x1C881B9BDC88185C1C1C9BDD9959 PUSH1 0x92 SHL PUSH1 0x60 DUP3 ADD MSTORE PUSH1 0x80 ADD SWAP1 JUMP JUMPDEST PUSH1 0x0 DUP2 PUSH2 0x3FB1 JUMPI PUSH2 0x3FB1 PUSH2 0x3E15 JUMP JUMPDEST POP PUSH1 0x0 NOT ADD SWAP1 JUMP JUMPDEST PUSH1 0x20 DUP1 DUP3 MSTORE PUSH1 0x2C SWAP1 DUP3 ADD MSTORE PUSH32 0x46756E6374696F6E206D7573742062652063616C6C6564207468726F75676820 PUSH1 0x40 DUP3 ADD MSTORE PUSH12 0x19195B1959D85D1958D85B1B PUSH1 0xA2 SHL PUSH1 0x60 DUP3 ADD MSTORE PUSH1 0x80 ADD SWAP1 JUMP JUMPDEST PUSH1 0x20 DUP1 DUP3 MSTORE PUSH1 0x2C SWAP1 DUP3 ADD MSTORE PUSH32 0x46756E6374696F6E206D7573742062652063616C6C6564207468726F75676820 PUSH1 0x40 DUP3 ADD MSTORE PUSH12 0x6163746976652070726F7879 PUSH1 0xA0 SHL PUSH1 0x60 DUP3 ADD MSTORE PUSH1 0x80 ADD SWAP1 JUMP JUMPDEST PUSH1 0x0 PUSH1 0x1 DUP3 ADD PUSH2 0x4063 JUMPI PUSH2 0x4063 PUSH2 0x3E15 JUMP JUMPDEST POP PUSH1 0x1 ADD SWAP1 JUMP JUMPDEST PUSH1 0x0 DUP4 MLOAD PUSH2 0x407C DUP2 DUP5 PUSH1 0x20 DUP9 ADD PUSH2 0x3600 JUMP JUMPDEST DUP4 MLOAD SWAP1 DUP4 ADD SWAP1 PUSH2 0x4090 DUP2 DUP4 PUSH1 0x20 DUP9 ADD PUSH2 0x3600 JUMP JUMPDEST ADD SWAP5 SWAP4 POP POP POP POP JUMP JUMPDEST DUP2 DUP4 DUP3 CALLDATACOPY PUSH1 0x0 SWAP2 ADD SWAP1 DUP2 MSTORE SWAP2 SWAP1 POP JUMP JUMPDEST PUSH1 0x0 DUP3 MLOAD PUSH2 0x40BB DUP2 DUP5 PUSH1 0x20 DUP8 ADD PUSH2 0x3600 JUMP JUMPDEST SWAP2 SWAP1 SWAP2 ADD SWAP3 SWAP2 POP POP JUMP JUMPDEST DUP1 PUSH1 0x0 JUMPDEST PUSH1 0x2 DUP2 LT ISZERO PUSH2 0xD3A JUMPI DUP2 MLOAD DUP5 MSTORE PUSH1 0x20 SWAP4 DUP5 ADD SWAP4 SWAP1 SWAP2 ADD SWAP1 PUSH1 0x1 ADD PUSH2 0x40C9 JUMP JUMPDEST DUP3 MLOAD DUP1 MLOAD DUP3 MSTORE PUSH1 0x20 SWAP1 DUP2 ADD MLOAD SWAP1 DUP3 ADD MSTORE PUSH2 0x160 DUP2 ADD PUSH1 0x20 DUP1 DUP6 ADD MLOAD PUSH2 0x4111 PUSH1 0x40 DUP6 ADD DUP3 MLOAD PUSH2 0x40C5 JUMP JUMPDEST PUSH1 0x20 ADD MLOAD PUSH2 0x4122 PUSH1 0x80 DUP6 ADD DUP3 PUSH2 0x40C5 JUMP JUMPDEST POP PUSH1 0x40 DUP6 ADD MLOAD DUP1 MLOAD PUSH1 0xC0 DUP6 ADD MSTORE PUSH1 0x20 ADD MLOAD PUSH1 0xE0 DUP5 ADD MSTORE PUSH2 0x100 DUP4 ADD DUP5 PUSH1 0x0 JUMPDEST PUSH1 0x3 DUP2 LT ISZERO PUSH2 0x415E JUMPI DUP2 MLOAD DUP4 MSTORE SWAP2 DUP4 ADD SWAP2 SWAP1 DUP4 ADD SWAP1 PUSH1 0x1 ADD PUSH2 0x4141 JUMP JUMPDEST POP POP POP POP SWAP4 SWAP3 POP POP POP JUMP JUMPDEST PUSH1 0x0 PUSH1 0x20 DUP3 DUP5 SUB SLT ISZERO PUSH2 0x417B JUMPI PUSH1 0x0 DUP1 REVERT JUMPDEST DUP2 MLOAD PUSH2 0x19DA DUP2 PUSH2 0x3B2C JUMP JUMPDEST DUP2 DUP2 SUB DUP2 DUP2 GT ISZERO PUSH2 0xA8D JUMPI PUSH2 0xA8D PUSH2 0x3E15 JUMP JUMPDEST DUP2 MLOAD PUSH1 0x1 PUSH1 0x1 PUSH1 0x40 SHL SUB DUP2 GT ISZERO PUSH2 0x41B2 JUMPI PUSH2 0x41B2 PUSH2 0x3720 JUMP JUMPDEST PUSH2 0x41C6 DUP2 PUSH2 0x41C0 DUP5 SLOAD PUSH2 0x3DC5 JUMP JUMPDEST DUP5 PUSH2 0x3E3E JUMP JUMPDEST PUSH1 0x20 DUP1 PUSH1 0x1F DUP4 GT PUSH1 0x1 DUP2 EQ PUSH2 0x41F5 JUMPI PUSH1 0x0 DUP5 ISZERO PUSH2 0x41E3 JUMPI POP DUP6 DUP4 ADD MLOAD JUMPDEST PUSH2 0x41ED DUP6 DUP3 PUSH2 0x3E86 JUMP JUMPDEST DUP7 SSTORE POP PUSH2 0xEDD JUMP JUMPDEST PUSH1 0x0 DUP6 DUP2 MSTORE PUSH1 0x20 DUP2 KECCAK256 PUSH1 0x1F NOT DUP7 AND SWAP2 JUMPDEST DUP3 DUP2 LT ISZERO PUSH2 0x4224 JUMPI DUP9 DUP7 ADD MLOAD DUP3 SSTORE SWAP5 DUP5 ADD SWAP5 PUSH1 0x1 SWAP1 SWAP2 ADD SWAP1 DUP5 ADD PUSH2 0x4205 JUMP JUMPDEST POP DUP6 DUP3 LT ISZERO PUSH2 0x4242 JUMPI DUP8 DUP6 ADD MLOAD PUSH1 0x0 NOT PUSH1 0x3 DUP9 SWAP1 SHL PUSH1 0xF8 AND SHR NOT AND DUP2 SSTORE JUMPDEST POP POP POP POP POP PUSH1 0x1 SWAP1 DUP2 SHL ADD SWAP1 SSTORE POP JUMP JUMPDEST DUP2 DUP2 SUB PUSH2 0x425D JUMPI POP POP JUMP JUMPDEST PUSH2 0x4267 DUP3 SLOAD PUSH2 0x3DC5 JUMP JUMPDEST PUSH1 0x1 PUSH1 0x1 PUSH1 0x40 SHL SUB DUP2 GT ISZERO PUSH2 0x427E JUMPI PUSH2 0x427E PUSH2 0x3720 JUMP JUMPDEST PUSH2 0x428C DUP2 PUSH2 0x41C0 DUP5 SLOAD PUSH2 0x3DC5 JUMP JUMPDEST PUSH1 0x0 PUSH1 0x1F DUP3 GT PUSH1 0x1 DUP2 EQ PUSH2 0x42BA JUMPI PUSH1 0x0 DUP4 ISZERO PUSH2 0x42A8 JUMPI POP DUP5 DUP3 ADD SLOAD JUMPDEST PUSH2 0x42B2 DUP5 DUP3 PUSH2 0x3E86 JUMP JUMPDEST DUP6 SSTORE POP PUSH2 0x1973 JUMP JUMPDEST PUSH1 0x0 DUP6 DUP2 MSTORE PUSH1 0x20 SWAP1 KECCAK256 PUSH1 0x1F NOT DUP5 AND SWAP1 PUSH1 0x0 DUP7 DUP2 MSTORE PUSH1 0x20 SWAP1 KECCAK256 DUP5 JUMPDEST DUP4 DUP2 LT ISZERO PUSH2 0x42F4 JUMPI DUP3 DUP7 ADD SLOAD DUP3 SSTORE PUSH1 0x1 SWAP6 DUP7 ADD SWAP6 SWAP1 SWAP2 ADD SWAP1 PUSH1 0x20 ADD PUSH2 0x42D4 JUMP JUMPDEST POP DUP6 DUP4 LT ISZERO PUSH2 0x4242 JUMPI SWAP4 ADD SLOAD PUSH1 0x0 NOT PUSH1 0xF8 PUSH1 0x3 DUP8 SWAP1 SHL AND SHR NOT AND SWAP1 SWAP3 SSTORE POP POP PUSH1 0x1 SWAP1 DUP2 SHL ADD SWAP1 SSTORE POP JUMP JUMPDEST PUSH1 0x0 PUSH1 0x20 DUP3 DUP5 SUB SLT ISZERO PUSH2 0x4330 JUMPI PUSH1 0x0 DUP1 REVERT JUMPDEST POP MLOAD SWAP2 SWAP1 POP JUMP JUMPDEST PUSH1 0x20 DUP1 DUP3 MSTORE PUSH1 0x2B SWAP1 DUP3 ADD MSTORE PUSH32 0x496E697469616C697A61626C653A20636F6E7472616374206973206E6F742069 PUSH1 0x40 DUP3 ADD MSTORE PUSH11 0x6E697469616C697A696E67 PUSH1 0xA8 SHL PUSH1 0x60 DUP3 ADD MSTORE PUSH1 0x80 ADD SWAP1 JUMP JUMPDEST PUSH1 0x20 DUP1 DUP3 MSTORE PUSH1 0x32 SWAP1 DUP3 ADD MSTORE PUSH32 0x4552433732313A207472616E7366657220746F206E6F6E204552433732315265 PUSH1 0x40 DUP3 ADD MSTORE PUSH18 0x31B2B4BB32B91034B6B83632B6B2B73A32B9 PUSH1 0x71 SHL PUSH1 0x60 DUP3 ADD MSTORE PUSH1 0x80 ADD SWAP1 JUMP JUMPDEST PUSH4 0x4E487B71 PUSH1 0xE0 SHL PUSH1 0x0 MSTORE PUSH1 0x12 PUSH1 0x4 MSTORE PUSH1 0x24 PUSH1 0x0 REVERT JUMPDEST PUSH1 0x0 DUP3 PUSH2 0x43F9 JUMPI PUSH2 0x43F9 PUSH2 0x43D4 JUMP JUMPDEST POP DIV SWAP1 JUMP JUMPDEST PUSH1 0x0 DUP3 PUSH2 0x440D JUMPI PUSH2 0x440D PUSH2 0x43D4 JUMP JUMPDEST POP MOD SWAP1 JUMP JUMPDEST PUSH32 0x416363657373436F6E74726F6C3A206163636F756E7420000000000000000000 DUP2 MSTORE PUSH1 0x0 DUP4 MLOAD PUSH2 0x444A DUP2 PUSH1 0x17 DUP6 ADD PUSH1 0x20 DUP9 ADD PUSH2 0x3600 JUMP JUMPDEST PUSH17 0x1034B99036B4B9B9B4B733903937B6329 PUSH1 0x7D SHL PUSH1 0x17 SWAP2 DUP5 ADD SWAP2 DUP3 ADD MSTORE DUP4 MLOAD PUSH2 0x447B DUP2 PUSH1 0x28 DUP5 ADD PUSH1 0x20 DUP9 ADD PUSH2 0x3600 JUMP JUMPDEST ADD PUSH1 0x28 ADD SWAP5 SWAP4 POP POP POP POP JUMP JUMPDEST PUSH1 0x1 PUSH1 0x1 PUSH1 0xA0 SHL SUB DUP6 DUP2 AND DUP3 MSTORE DUP5 AND PUSH1 0x20 DUP3 ADD MSTORE PUSH1 0x40 DUP2 ADD DUP4 SWAP1 MSTORE PUSH1 0x80 PUSH1 0x60 DUP3 ADD DUP2 SWAP1 MSTORE PUSH1 0x0 SWAP1 PUSH2 0x3A57 SWAP1 DUP4 ADD DUP5 PUSH2 0x3624 JUMP JUMPDEST PUSH1 0x0 PUSH1 0x20 DUP3 DUP5 SUB SLT ISZERO PUSH2 0x44CC JUMPI PUSH1 0x0 DUP1 REVERT JUMPDEST DUP2 MLOAD PUSH2 0x19DA DUP2 PUSH2 0x35CD JUMP JUMPDEST DUP1 DUP3 MUL DUP2 ISZERO DUP3 DUP3 DIV DUP5 EQ OR PUSH2 0xA8D JUMPI PUSH2 0xA8D PUSH2 0x3E15 JUMP JUMPDEST PUSH4 0x4E487B71 PUSH1 0xE0 SHL PUSH1 0x0 MSTORE PUSH1 0x31 PUSH1 0x4 MSTORE PUSH1 0x24 PUSH1 0x0 REVERT INVALID CALLDATASIZE ADDMOD SWAP5 LOG1 EXTCODESIZE LOG1 LOG3 0x21 MOD PUSH8 0xC828492DB98DCA3E KECCAK256 PUSH23 0xCC3735A920A3CA505D382BBC416464726573733A206C6F PUSH24 0x2D6C6576656C2064656C65676174652063616C6C20666169 PUSH13 0x6564A264697066735822122036 0xE0 0xBB PUSH2 0xA9D8 0x4F 0xC PC 0x4F PUSH15 0x1C290399894DA40A1852F1718F9426 0x4D 0xC5 PUSH7 0x930D164736F6C PUSH4 0x43000816 STOP CALLER "
		},
		"gasEstimates": {
			"creation": {
				"codeDepositCost": "3558600",
				"executionCost": "infinite",
				"totalCost": "infinite"
			},
			"external": {
				"DEFAULT_ADMIN_ROLE()": "252",
				"addTrainer(address)": "infinite",
				"addType(string)": "infinite",
				"allowedMinting(address)": "2555",
				"approve(address,uint256)": "infinite",
				"assignHash(uint256,bytes)": "infinite",
				"balanceOf(address)": "2712",
				"baseURI()": "infinite",
				"burn(uint256)": "infinite",
				"contributorHash()": "infinite",
				"getApproved(uint256)": "4837",
				"getRoleAdmin(bytes32)": "2523",
				"grantRemixersMinting(address[],uint256)": "infinite",
				"grantRole(bytes32,address)": "infinite",
				"hasRole(bytes32,address)": "2754",
				"initialize()": "infinite",
				"isApprovedForAll(address,address)": "infinite",
				"name()": "infinite",
				"nullifiers(bytes)": "infinite",
				"ownerOf(uint256)": "2628",
				"proxiableUUID()": "infinite",
				"publicMint(address)": "infinite",
				"publishChallenge(((uint256,uint256),(uint256[2],uint256[2]),(uint256,uint256)),uint256[3])": "infinite",
				"publishers(bytes)": "infinite",
				"publishersAmount()": "2396",
				"removeTrainer(address)": "infinite",
				"removeType(string)": "infinite",
				"renounceRole(bytes32,address)": "29069",
				"revokeRole(bytes32,address)": "infinite",
				"safeMint(address,string,string,bytes,uint256)": "infinite",
				"safeTransferFrom(address,address,uint256)": "infinite",
				"safeTransferFrom(address,address,uint256,bytes)": "infinite",
				"setApprovalForAll(address,bool)": "26802",
				"setBaseURI(string)": "infinite",
				"setChallenge(address,uint256[2],uint256,string,string,bytes)": "infinite",
				"setContributorHash(bytes)": "infinite",
				"supportsInterface(bytes4)": "infinite",
				"symbol()": "infinite",
				"tokenByIndex(uint256)": "6771",
				"tokenOfOwnerByIndex(address,uint256)": "4988",
				"tokenURI(uint256)": "infinite",
				"tokensData(uint256)": "infinite",
				"totalSupply()": "2350",
				"trainers(address)": "2620",
				"transferFrom(address,address,uint256)": "infinite",
				"upgradeTo(address)": "infinite",
				"upgradeToAndCall(address,bytes)": "infinite",
				"version()": "infinite",
				"zkChallenge(uint256)": "2474",
				"zkChallengeHash()": "infinite",
				"zkChallengeNonce()": "2352",
				"zkChallengePayload()": "infinite",
				"zkChallengeTokenType()": "infinite",
				"zkMax()": "2397",
				"zkVerifier()": "2426"
			},
			"internal": {
				"_authorizeUpgrade(address)": "infinite",
				"_baseURI()": "infinite",
				"_beforeTokenTransfer(address,address,uint256)": "infinite",
				"mintBadge(address,string memory,string memory,bytes memory,uint256)": "infinite",
				"mintRemixer(address)": "infinite"
			}
		},
		"methodIdentifiers": {
			"DEFAULT_ADMIN_ROLE()": "a217fddf",
			"addTrainer(address)": "5117a840",
			"addType(string)": "e7f08e69",
			"allowedMinting(address)": "005c154e",
			"approve(address,uint256)": "095ea7b3",
			"assignHash(uint256,bytes)": "c0cecb9a",
			"balanceOf(address)": "70a08231",
			"baseURI()": "6c0360eb",
			"burn(uint256)": "42966c68",
			"contributorHash()": "6344cd20",
			"getApproved(uint256)": "081812fc",
			"getRoleAdmin(bytes32)": "248a9ca3",
			"grantRemixersMinting(address[],uint256)": "1693d2eb",
			"grantRole(bytes32,address)": "2f2ff15d",
			"hasRole(bytes32,address)": "91d14854",
			"initialize()": "8129fc1c",
			"isApprovedForAll(address,address)": "e985e9c5",
			"name()": "06fdde03",
			"nullifiers(bytes)": "1823e26a",
			"ownerOf(uint256)": "6352211e",
			"proxiableUUID()": "52d1902d",
			"publicMint(address)": "32a93a3a",
			"publishChallenge(((uint256,uint256),(uint256[2],uint256[2]),(uint256,uint256)),uint256[3])": "ff990ffd",
			"publishers(bytes)": "b63cb3b9",
			"publishersAmount()": "42778642",
			"removeTrainer(address)": "8a145777",
			"removeType(string)": "e15e2fd4",
			"renounceRole(bytes32,address)": "36568abe",
			"revokeRole(bytes32,address)": "d547741f",
			"safeMint(address,string,string,bytes,uint256)": "35b1a7ea",
			"safeTransferFrom(address,address,uint256)": "42842e0e",
			"safeTransferFrom(address,address,uint256,bytes)": "b88d4fde",
			"setApprovalForAll(address,bool)": "a22cb465",
			"setBaseURI(string)": "55f804b3",
			"setChallenge(address,uint256[2],uint256,string,string,bytes)": "7ffe8f25",
			"setContributorHash(bytes)": "1aa2c2f8",
			"supportsInterface(bytes4)": "01ffc9a7",
			"symbol()": "95d89b41",
			"tokenByIndex(uint256)": "4f6ccce7",
			"tokenOfOwnerByIndex(address,uint256)": "2f745c59",
			"tokenURI(uint256)": "c87b56dd",
			"tokensData(uint256)": "599ed3ff",
			"totalSupply()": "18160ddd",
			"trainers(address)": "2cd92f97",
			"transferFrom(address,address,uint256)": "23b872dd",
			"upgradeTo(address)": "3659cfe6",
			"upgradeToAndCall(address,bytes)": "4f1ef286",
			"version()": "54fd4d50",
			"zkChallenge(uint256)": "d674cc2b",
			"zkChallengeHash()": "43d3cf61",
			"zkChallengeNonce()": "7909eb73",
			"zkChallengePayload()": "f1fe6911",
			"zkChallengeTokenType()": "9cbff422",
			"zkMax()": "5a8afbfc",
			"zkVerifier()": "d6df096d"
		}
	},
	"abi": [
		{
			"inputs": [],
			"stateMutability": "nonpayable",
			"type": "constructor"
		},
		{
			"anonymous": false,
			"inputs": [
				{
					"indexed": false,
					"internalType": "address",
					"name": "previousAdmin",
					"type": "address"
				},
				{
					"indexed": false,
					"internalType": "address",
					"name": "newAdmin",
					"type": "address"
				}
			],
			"name": "AdminChanged",
			"type": "event"
		},
		{
			"anonymous": false,
			"inputs": [
				{
					"indexed": true,
					"internalType": "address",
					"name": "owner",
					"type": "address"
				},
				{
					"indexed": true,
					"internalType": "address",
					"name": "approved",
					"type": "address"
				},
				{
					"indexed": true,
					"internalType": "uint256",
					"name": "tokenId",
					"type": "uint256"
				}
			],
			"name": "Approval",
			"type": "event"
		},
		{
			"anonymous": false,
			"inputs": [
				{
					"indexed": true,
					"internalType": "address",
					"name": "owner",
					"type": "address"
				},
				{
					"indexed": true,
					"internalType": "address",
					"name": "operator",
					"type": "address"
				},
				{
					"indexed": false,
					"internalType": "bool",
					"name": "approved",
					"type": "bool"
				}
			],
			"name": "ApprovalForAll",
			"type": "event"
		},
		{
			"anonymous": false,
			"inputs": [
				{
					"indexed": true,
					"internalType": "address",
					"name": "beacon",
					"type": "address"
				}
			],
			"name": "BeaconUpgraded",
			"type": "event"
		},
		{
			"anonymous": false,
			"inputs": [
				{
					"indexed": false,
					"internalType": "uint8",
					"name": "version",
					"type": "uint8"
				}
			],
			"name": "Initialized",
			"type": "event"
		},
		{
			"anonymous": false,
			"inputs": [
				{
					"indexed": true,
					"internalType": "bytes32",
					"name": "role",
					"type": "bytes32"
				},
				{
					"indexed": true,
					"internalType": "bytes32",
					"name": "previousAdminRole",
					"type": "bytes32"
				},
				{
					"indexed": true,
					"internalType": "bytes32",
					"name": "newAdminRole",
					"type": "bytes32"
				}
			],
			"name": "RoleAdminChanged",
			"type": "event"
		},
		{
			"anonymous": false,
			"inputs": [
				{
					"indexed": true,
					"internalType": "bytes32",
					"name": "role",
					"type": "bytes32"
				},
				{
					"indexed": true,
					"internalType": "address",
					"name": "account",
					"type": "address"
				},
				{
					"indexed": true,
					"internalType": "address",
					"name": "sender",
					"type": "address"
				}
			],
			"name": "RoleGranted",
			"type": "event"
		},
		{
			"anonymous": false,
			"inputs": [
				{
					"indexed": true,
					"internalType": "bytes32",
					"name": "role",
					"type": "bytes32"
				},
				{
					"indexed": true,
					"internalType": "address",
					"name": "account",
					"type": "address"
				},
				{
					"indexed": true,
					"internalType": "address",
					"name": "sender",
					"type": "address"
				}
			],
			"name": "RoleRevoked",
			"type": "event"
		},
		{
			"anonymous": false,
			"inputs": [
				{
					"indexed": true,
					"internalType": "address",
					"name": "from",
					"type": "address"
				},
				{
					"indexed": true,
					"internalType": "address",
					"name": "to",
					"type": "address"
				},
				{
					"indexed": true,
					"internalType": "uint256",
					"name": "tokenId",
					"type": "uint256"
				}
			],
			"name": "Transfer",
			"type": "event"
		},
		{
			"anonymous": false,
			"inputs": [
				{
					"indexed": true,
					"internalType": "address",
					"name": "implementation",
					"type": "address"
				}
			],
			"name": "Upgraded",
			"type": "event"
		},
		{
			"inputs": [],
			"name": "DEFAULT_ADMIN_ROLE",
			"outputs": [
				{
					"internalType": "bytes32",
					"name": "",
					"type": "bytes32"
				}
			],
			"stateMutability": "view",
			"type": "function"
		},
		{
			"inputs": [
				{
					"internalType": "address",
					"name": "trainer",
					"type": "address"
				}
			],
			"name": "addTrainer",
			"outputs": [],
			"stateMutability": "nonpayable",
			"type": "function"
		},
		{
			"inputs": [
				{
					"internalType": "string",
					"name": "tokenType",
					"type": "string"
				}
			],
			"name": "addType",
			"outputs": [],
			"stateMutability": "nonpayable",
			"type": "function"
		},
		{
			"inputs": [
				{
					"internalType": "address",
					"name": "",
					"type": "address"
				}
			],
			"name": "allowedMinting",
			"outputs": [
				{
					"internalType": "uint256",
					"name": "",
					"type": "uint256"
				}
			],
			"stateMutability": "view",
			"type": "function"
		},
		{
			"inputs": [
				{
					"internalType": "address",
					"name": "to",
					"type": "address"
				},
				{
					"internalType": "uint256",
					"name": "tokenId",
					"type": "uint256"
				}
			],
			"name": "approve",
			"outputs": [],
			"stateMutability": "nonpayable",
			"type": "function"
		},
		{
			"inputs": [
				{
					"internalType": "uint256",
					"name": "tokenId",
					"type": "uint256"
				},
				{
					"internalType": "bytes",
					"name": "hash",
					"type": "bytes"
				}
			],
			"name": "assignHash",
			"outputs": [],
			"stateMutability": "nonpayable",
			"type": "function"
		},
		{
			"inputs": [
				{
					"internalType": "address",
					"name": "owner",
					"type": "address"
				}
			],
			"name": "balanceOf",
			"outputs": [
				{
					"internalType": "uint256",
					"name": "",
					"type": "uint256"
				}
			],
			"stateMutability": "view",
			"type": "function"
		},
		{
			"inputs": [],
			"name": "baseURI",
			"outputs": [
				{
					"internalType": "string",
					"name": "",
					"type": "string"
				}
			],
			"stateMutability": "view",
			"type": "function"
		},
		{
			"inputs": [
				{
					"internalType": "uint256",
					"name": "tokenId",
					"type": "uint256"
				}
			],
			"name": "burn",
			"outputs": [],
			"stateMutability": "nonpayable",
			"type": "function"
		},
		{
			"inputs": [],
			"name": "contributorHash",
			"outputs": [
				{
					"internalType": "bytes",
					"name": "",
					"type": "bytes"
				}
			],
			"stateMutability": "view",
			"type": "function"
		},
		{
			"inputs": [
				{
					"internalType": "uint256",
					"name": "tokenId",
					"type": "uint256"
				}
			],
			"name": "getApproved",
			"outputs": [
				{
					"internalType": "address",
					"name": "",
					"type": "address"
				}
			],
			"stateMutability": "view",
			"type": "function"
		},
		{
			"inputs": [
				{
					"internalType": "bytes32",
					"name": "role",
					"type": "bytes32"
				}
			],
			"name": "getRoleAdmin",
			"outputs": [
				{
					"internalType": "bytes32",
					"name": "",
					"type": "bytes32"
				}
			],
			"stateMutability": "view",
			"type": "function"
		},
		{
			"inputs": [
				{
					"internalType": "address[]",
					"name": "remixers",
					"type": "address[]"
				},
				{
					"internalType": "uint256",
					"name": "amount",
					"type": "uint256"
				}
			],
			"name": "grantRemixersMinting",
			"outputs": [],
			"stateMutability": "nonpayable",
			"type": "function"
		},
		{
			"inputs": [
				{
					"internalType": "bytes32",
					"name": "role",
					"type": "bytes32"
				},
				{
					"internalType": "address",
					"name": "account",
					"type": "address"
				}
			],
			"name": "grantRole",
			"outputs": [],
			"stateMutability": "nonpayable",
			"type": "function"
		},
		{
			"inputs": [
				{
					"internalType": "bytes32",
					"name": "role",
					"type": "bytes32"
				},
				{
					"internalType": "address",
					"name": "account",
					"type": "address"
				}
			],
			"name": "hasRole",
			"outputs": [
				{
					"internalType": "bool",
					"name": "",
					"type": "bool"
				}
			],
			"stateMutability": "view",
			"type": "function"
		},
		{
			"inputs": [],
			"name": "initialize",
			"outputs": [],
			"stateMutability": "nonpayable",
			"type": "function"
		},
		{
			"inputs": [
				{
					"internalType": "address",
					"name": "owner",
					"type": "address"
				},
				{
					"internalType": "address",
					"name": "operator",
					"type": "address"
				}
			],
			"name": "isApprovedForAll",
			"outputs": [
				{
					"internalType": "bool",
					"name": "",
					"type": "bool"
				}
			],
			"stateMutability": "view",
			"type": "function"
		},
		{
			"inputs": [],
			"name": "name",
			"outputs": [
				{
					"internalType": "string",
					"name": "",
					"type": "string"
				}
			],
			"stateMutability": "view",
			"type": "function"
		},
		{
			"inputs": [
				{
					"internalType": "bytes",
					"name": "",
					"type": "bytes"
				}
			],
			"name": "nullifiers",
			"outputs": [
				{
					"internalType": "uint256",
					"name": "",
					"type": "uint256"
				}
			],
			"stateMutability": "view",
			"type": "function"
		},
		{
			"inputs": [
				{
					"internalType": "uint256",
					"name": "tokenId",
					"type": "uint256"
				}
			],
			"name": "ownerOf",
			"outputs": [
				{
					"internalType": "address",
					"name": "",
					"type": "address"
				}
			],
			"stateMutability": "view",
			"type": "function"
		},
		{
			"inputs": [],
			"name": "proxiableUUID",
			"outputs": [
				{
					"internalType": "bytes32",
					"name": "",
					"type": "bytes32"
				}
			],
			"stateMutability": "view",
			"type": "function"
		},
		{
			"inputs": [
				{
					"internalType": "address",
					"name": "to",
					"type": "address"
				}
			],
			"name": "publicMint",
			"outputs": [],
			"stateMutability": "nonpayable",
			"type": "function"
		},
		{
			"inputs": [
				{
					"components": [
						{
							"components": [
								{
									"internalType": "uint256",
									"name": "X",
									"type": "uint256"
								},
								{
									"internalType": "uint256",
									"name": "Y",
									"type": "uint256"
								}
							],
							"internalType": "struct ZKVerifier.G1Point",
							"name": "a",
							"type": "tuple"
						},
						{
							"components": [
								{
									"internalType": "uint256[2]",
									"name": "X",
									"type": "uint256[2]"
								},
								{
									"internalType": "uint256[2]",
									"name": "Y",
									"type": "uint256[2]"
								}
							],
							"internalType": "struct ZKVerifier.G2Point",
							"name": "b",
							"type": "tuple"
						},
						{
							"components": [
								{
									"internalType": "uint256",
									"name": "X",
									"type": "uint256"
								},
								{
									"internalType": "uint256",
									"name": "Y",
									"type": "uint256"
								}
							],
							"internalType": "struct ZKVerifier.G1Point",
							"name": "c",
							"type": "tuple"
						}
					],
					"internalType": "struct ZKVerifier.Proof",
					"name": "proof",
					"type": "tuple"
				},
				{
					"internalType": "uint256[3]",
					"name": "input",
					"type": "uint256[3]"
				}
			],
			"name": "publishChallenge",
			"outputs": [],
			"stateMutability": "nonpayable",
			"type": "function"
		},
		{
			"inputs": [
				{
					"internalType": "bytes",
					"name": "",
					"type": "bytes"
				}
			],
			"name": "publishers",
			"outputs": [
				{
					"internalType": "uint256",
					"name": "",
					"type": "uint256"
				}
			],
			"stateMutability": "view",
			"type": "function"
		},
		{
			"inputs": [],
			"name": "publishersAmount",
			"outputs": [
				{
					"internalType": "uint256",
					"name": "",
					"type": "uint256"
				}
			],
			"stateMutability": "view",
			"type": "function"
		},
		{
			"inputs": [
				{
					"internalType": "address",
					"name": "trainer",
					"type": "address"
				}
			],
			"name": "removeTrainer",
			"outputs": [],
			"stateMutability": "nonpayable",
			"type": "function"
		},
		{
			"inputs": [
				{
					"internalType": "string",
					"name": "tokenType",
					"type": "string"
				}
			],
			"name": "removeType",
			"outputs": [],
			"stateMutability": "nonpayable",
			"type": "function"
		},
		{
			"inputs": [
				{
					"internalType": "bytes32",
					"name": "role",
					"type": "bytes32"
				},
				{
					"internalType": "address",
					"name": "account",
					"type": "address"
				}
			],
			"name": "renounceRole",
			"outputs": [],
			"stateMutability": "nonpayable",
			"type": "function"
		},
		{
			"inputs": [
				{
					"internalType": "bytes32",
					"name": "role",
					"type": "bytes32"
				},
				{
					"internalType": "address",
					"name": "account",
					"type": "address"
				}
			],
			"name": "revokeRole",
			"outputs": [],
			"stateMutability": "nonpayable",
			"type": "function"
		},
		{
			"inputs": [
				{
					"internalType": "address",
					"name": "to",
					"type": "address"
				},
				{
					"internalType": "string",
					"name": "tokenType",
					"type": "string"
				},
				{
					"internalType": "string",
					"name": "payload",
					"type": "string"
				},
				{
					"internalType": "bytes",
					"name": "hash",
					"type": "bytes"
				},
				{
					"internalType": "uint256",
					"name": "mintGrant",
					"type": "uint256"
				}
			],
			"name": "safeMint",
			"outputs": [],
			"stateMutability": "nonpayable",
			"type": "function"
		},
		{
			"inputs": [
				{
					"internalType": "address",
					"name": "from",
					"type": "address"
				},
				{
					"internalType": "address",
					"name": "to",
					"type": "address"
				},
				{
					"internalType": "uint256",
					"name": "tokenId",
					"type": "uint256"
				}
			],
			"name": "safeTransferFrom",
			"outputs": [],
			"stateMutability": "nonpayable",
			"type": "function"
		},
		{
			"inputs": [
				{
					"internalType": "address",
					"name": "from",
					"type": "address"
				},
				{
					"internalType": "address",
					"name": "to",
					"type": "address"
				},
				{
					"internalType": "uint256",
					"name": "tokenId",
					"type": "uint256"
				},
				{
					"internalType": "bytes",
					"name": "data",
					"type": "bytes"
				}
			],
			"name": "safeTransferFrom",
			"outputs": [],
			"stateMutability": "nonpayable",
			"type": "function"
		},
		{
			"inputs": [
				{
					"internalType": "address",
					"name": "operator",
					"type": "address"
				},
				{
					"internalType": "bool",
					"name": "approved",
					"type": "bool"
				}
			],
			"name": "setApprovalForAll",
			"outputs": [],
			"stateMutability": "nonpayable",
			"type": "function"
		},
		{
			"inputs": [
				{
					"internalType": "string",
					"name": "_uri",
					"type": "string"
				}
			],
			"name": "setBaseURI",
			"outputs": [],
			"stateMutability": "nonpayable",
			"type": "function"
		},
		{
			"inputs": [
				{
					"internalType": "address",
					"name": "verifier",
					"type": "address"
				},
				{
					"internalType": "uint256[2]",
					"name": "challenge",
					"type": "uint256[2]"
				},
				{
					"internalType": "uint256",
					"name": "max",
					"type": "uint256"
				},
				{
					"internalType": "string",
					"name": "tokenType",
					"type": "string"
				},
				{
					"internalType": "string",
					"name": "payload",
					"type": "string"
				},
				{
					"internalType": "bytes",
					"name": "hash",
					"type": "bytes"
				}
			],
			"name": "setChallenge",
			"outputs": [],
			"stateMutability": "nonpayable",
			"type": "function"
		},
		{
			"inputs": [
				{
					"internalType": "bytes",
					"name": "hash",
					"type": "bytes"
				}
			],
			"name": "setContributorHash",
			"outputs": [],
			"stateMutability": "nonpayable",
			"type": "function"
		},
		{
			"inputs": [
				{
					"internalType": "bytes4",
					"name": "interfaceId",
					"type": "bytes4"
				}
			],
			"name": "supportsInterface",
			"outputs": [
				{
					"internalType": "bool",
					"name": "",
					"type": "bool"
				}
			],
			"stateMutability": "view",
			"type": "function"
		},
		{
			"inputs": [],
			"name": "symbol",
			"outputs": [
				{
					"internalType": "string",
					"name": "",
					"type": "string"
				}
			],
			"stateMutability": "view",
			"type": "function"
		},
		{
			"inputs": [
				{
					"internalType": "uint256",
					"name": "index",
					"type": "uint256"
				}
			],
			"name": "tokenByIndex",
			"outputs": [
				{
					"internalType": "uint256",
					"name": "",
					"type": "uint256"
				}
			],
			"stateMutability": "view",
			"type": "function"
		},
		{
			"inputs": [
				{
					"internalType": "address",
					"name": "owner",
					"type": "address"
				},
				{
					"internalType": "uint256",
					"name": "index",
					"type": "uint256"
				}
			],
			"name": "tokenOfOwnerByIndex",
			"outputs": [
				{
					"internalType": "uint256",
					"name": "",
					"type": "uint256"
				}
			],
			"stateMutability": "view",
			"type": "function"
		},
		{
			"inputs": [
				{
					"internalType": "uint256",
					"name": "tokenId",
					"type": "uint256"
				}
			],
			"name": "tokenURI",
			"outputs": [
				{
					"internalType": "string",
					"name": "",
					"type": "string"
				}
			],
			"stateMutability": "view",
			"type": "function"
		},
		{
			"inputs": [
				{
					"internalType": "uint256",
					"name": "",
					"type": "uint256"
				}
			],
			"name": "tokensData",
			"outputs": [
				{
					"internalType": "string",
					"name": "payload",
					"type": "string"
				},
				{
					"internalType": "string",
					"name": "tokenType",
					"type": "string"
				},
				{
					"internalType": "bytes",
					"name": "hash",
					"type": "bytes"
				}
			],
			"stateMutability": "view",
			"type": "function"
		},
		{
			"inputs": [],
			"name": "totalSupply",
			"outputs": [
				{
					"internalType": "uint256",
					"name": "",
					"type": "uint256"
				}
			],
			"stateMutability": "view",
			"type": "function"
		},
		{
			"inputs": [
				{
					"internalType": "address",
					"name": "",
					"type": "address"
				}
			],
			"name": "trainers",
			"outputs": [
				{
					"internalType": "uint256",
					"name": "",
					"type": "uint256"
				}
			],
			"stateMutability": "view",
			"type": "function"
		},
		{
			"inputs": [
				{
					"internalType": "address",
					"name": "from",
					"type": "address"
				},
				{
					"internalType": "address",
					"name": "to",
					"type": "address"
				},
				{
					"internalType": "uint256",
					"name": "tokenId",
					"type": "uint256"
				}
			],
			"name": "transferFrom",
			"outputs": [],
			"stateMutability": "nonpayable",
			"type": "function"
		},
		{
			"inputs": [
				{
					"internalType": "address",
					"name": "newImplementation",
					"type": "address"
				}
			],
			"name": "upgradeTo",
			"outputs": [],
			"stateMutability": "nonpayable",
			"type": "function"
		},
		{
			"inputs": [
				{
					"internalType": "address",
					"name": "newImplementation",
					"type": "address"
				},
				{
					"internalType": "bytes",
					"name": "data",
					"type": "bytes"
				}
			],
			"name": "upgradeToAndCall",
			"outputs": [],
			"stateMutability": "payable",
			"type": "function"
		},
		{
			"inputs": [],
			"name": "version",
			"outputs": [
				{
					"internalType": "string",
					"name": "",
					"type": "string"
				}
			],
			"stateMutability": "pure",
			"type": "function"
		},
		{
			"inputs": [
				{
					"internalType": "uint256",
					"name": "",
					"type": "uint256"
				}
			],
			"name": "zkChallenge",
			"outputs": [
				{
					"internalType": "uint256",
					"name": "",
					"type": "uint256"
				}
			],
			"stateMutability": "view",
			"type": "function"
		},
		{
			"inputs": [],
			"name": "zkChallengeHash",
			"outputs": [
				{
					"internalType": "bytes",
					"name": "",
					"type": "bytes"
				}
			],
			"stateMutability": "view",
			"type": "function"
		},
		{
			"inputs": [],
			"name": "zkChallengeNonce",
			"outputs": [
				{
					"internalType": "uint256",
					"name": "",
					"type": "uint256"
				}
			],
			"stateMutability": "view",
			"type": "function"
		},
		{
			"inputs": [],
			"name": "zkChallengePayload",
			"outputs": [
				{
					"internalType": "string",
					"name": "",
					"type": "string"
				}
			],
			"stateMutability": "view",
			"type": "function"
		},
		{
			"inputs": [],
			"name": "zkChallengeTokenType",
			"outputs": [
				{
					"internalType": "string",
					"name": "",
					"type": "string"
				}
			],
			"stateMutability": "view",
			"type": "function"
		},
		{
			"inputs": [],
			"name": "zkMax",
			"outputs": [
				{
					"internalType": "uint256",
					"name": "",
					"type": "uint256"
				}
			],
			"stateMutability": "view",
			"type": "function"
		},
		{
			"inputs": [],
			"name": "zkVerifier",
			"outputs": [
				{
					"internalType": "address",
					"name": "",
					"type": "address"
				}
			],
			"stateMutability": "view",
			"type": "function"
		}
	]
}