{
	"data": {
		"bytecode": {
			"linkReferences": {},
			"object": "608060405234801561000f575f80fd5b50610ff08061001d5f395ff3fe608060405234801561000f575f80fd5b5060043610610029575f3560e01c80630f9c5d491461002d575b5f80fd5b61004061003b366004610e84565b610054565b604051901515815260200160405180910390f35b604080516003808252608082019092525f91829190602082016060803683370190505090505f5b60038110156100c05783816003811061009657610096610f36565b60200201518282815181106100ad576100ad610f36565b602090810291909101015260010161007b565b506100cb81856100e6565b5f036100db5760019150506100e0565b5f9150505b92915050565b5f7f30644e72e131a029b85045b68181585d2833e84879b9709143e1f593f000000181610111610258565b9050806080015151855160016101279190610f5e565b14610130575f80fd5b604080518082019091525f808252602082018190525b86518110156101d2578387828151811061016257610162610f36565b602002602001015110610173575f80fd5b6101c8826101c3856080015184600161018c9190610f5e565b8151811061019c5761019c610f36565b60200260200101518a85815181106101b6576101b6610f36565b60200260200101516106df565b61073a565b9150600101610146565b506101fa8183608001515f815181106101ed576101ed610f36565b602002602001015161073a565b905061023d855f015186602001516102118461078e565b85604001516102238a6040015161078e565b606088015188516102339061078e565b896020015161082a565b61024d57600193505050506100e0565b505f95945050505050565b610260610c7d565b6040805180820182527f0cfbc164a3c8319679c4cb02e2d2952a35f1c55403d723b042b3e96c5074f64281527f1bc601c28e82378ca238c0463ed5df1cfd4e0fc0720e9aa5b248790087faf1d16020808301919091529083528151608080820184527f1d04b90bbe51a3519095d9dc797e72907ad258c16bc6f1581ecdcfffb10d42458285019081527f01f71636e1e84c1540859ca82453db35bf8917cf367cac35e2b50a26add751dc606080850191909152908352845180860186527f0a3ed1438f10ff2e90d1a2f57d63b4d7fbd98dada1cc03fe2392dde84f944f4881527f014e59ee5ea74ed97ffad93919556b11551e2d778359344b611ce8e1eb709a48818601528385015285840192909252835180820185527f283d11715317c52070d911740120b77b661d592fb0a91427801ff4e7e86afeb08186019081527f078e95a39caf9d5a8607ae94a6ebe480e145560b3969643ed4a8ae6cbb6550c1828501528152845180860186527f11d1268bce46bdadb50b9166f787f87637f5fbd6da8ea1e176bc3702cfddb92381527f24427343a076528081ebe58a49e90b689ab31d84be348e31e8a45bdb8b9d0669818601528185015285850152835190810184527f169e6004791a30625d4adebd8427877ffc2c373bcd840bd0efe7be58ed936fb98185019081527f05a220ffec0caff445f0ea1638727671cddc0b30400e48256b9164402c611145828401528152835180850185527f19029825a15efd9aadbe09708b693e633dcfb0ee577e60650351c414b14664dd81527f0952c022d89cc22c0304e7751e7f92a9df612019ec0fee5626bb835775cce9118185015281840152908401528151600480825260a08201909352919082015b604080518082019091525f80825260208201528152602001906001900390816104db57505060808201908152604080518082019091527f09cb6bbb16eee6ed3456df63ecaf8439f4c3dcf96db8096493e466ab230ad65881527f0313c03b72432e8a6212e95d4a354416558010e9322cc5741c6ed1438a4675b76020820152905180515f9061056c5761056c610f36565b602002602001018190525060405180604001604052807f2e4389fea4aed10f5f359e3ea3c11ca21f7cab08f1314ace892df3a4da650eea81526020017f05f2f54205e6ac482eff33edeeb28921465c3e54ab6218167c60e33a3f088ee081525081608001516001815181106105e3576105e3610f36565b602002602001018190525060405180604001604052807f24d381a2fb963aa5e331bd181f1e97774451c38ee4afc03835603af146b4c2c281526020017f10c4a0663c6b60fe9e3773968f6c84d7d29e93e4f8f90ffdf742f23c114ea432815250816080015160028151811061065a5761065a610f36565b602002602001018190525060405180604001604052807f021762af0aa84a20025fd0466d75af908a6b0fe4bfd64468ddf53287e629e0f481526020017f0dda9507241bee10b8cac0035f0aaf1b28997973df320ce0cbe5bdb51dd6abf381525081608001516003815181106106d1576106d1610f36565b602002602001018190525090565b604080518082019091525f80825260208201526106fa610ccd565b8351815260208085015190820152604081018390525f60608360808460076107d05a03fa9050808061072857fe5b5080610732575f80fd5b505092915050565b604080518082019091525f8082526020820152610755610ceb565b8351815260208085015181830152835160408301528301516060808301919091525f908360c08460066107d05a03fa9050808061072857fe5b604080518082019091525f808252602082015281517f30644e72e131a029b85045b68181585d97816a916871ca8d3c208c16d87cfd47901580156107d457506020830151155b156107f3575050604080518082019091525f8082526020820152919050565b6040518060400160405280845f015181526020018285602001516108179190610f71565b6108219084610f90565b90529392505050565b60408051600480825260a082019092525f91829190816020015b604080518082019091525f808252602082015281526020019060019003908161084457505060408051600480825260a082019092529192505f9190602082015b61088c610d09565b8152602001906001900390816108845790505090508a825f815181106108b4576108b4610f36565b602002602001018190525088826001815181106108d3576108d3610f36565b602002602001018190525086826002815181106108f2576108f2610f36565b6020026020010181905250848260038151811061091157610911610f36565b602002602001018190525089815f8151811061092f5761092f610f36565b6020026020010181905250878160018151811061094e5761094e610f36565b6020026020010181905250858160028151811061096d5761096d610f36565b6020026020010181905250838160038151811061098c5761098c610f36565b60200260200101819052506109a182826109b0565b9b9a5050505050505050505050565b5f81518351146109be575f80fd5b82515f6109cc826006610fa3565b90505f8167ffffffffffffffff8111156109e8576109e8610d6a565b604051908082528060200260200182016040528015610a11578160200160208202803683370190505b5090505f5b83811015610c3e57868181518110610a3057610a30610f36565b60200260200101515f015182826006610a499190610fa3565b610a53905f610f5e565b81518110610a6357610a63610f36565b602002602001018181525050868181518110610a8157610a81610f36565b60200260200101516020015182826006610a9b9190610fa3565b610aa6906001610f5e565b81518110610ab657610ab6610f36565b602002602001018181525050858181518110610ad457610ad4610f36565b60209081029190910181015151015182610aef836006610fa3565b610afa906002610f5e565b81518110610b0a57610b0a610f36565b602002602001018181525050858181518110610b2857610b28610f36565b6020908102919091010151515182610b41836006610fa3565b610b4c906003610f5e565b81518110610b5c57610b5c610f36565b602002602001018181525050858181518110610b7a57610b7a610f36565b602002602001015160200151600160028110610b9857610b98610f36565b602002015182610ba9836006610fa3565b610bb4906004610f5e565b81518110610bc457610bc4610f36565b602002602001018181525050858181518110610be257610be2610f36565b6020026020010151602001515f60028110610bff57610bff610f36565b602002015182610c10836006610fa3565b610c1b906005610f5e565b81518110610c2b57610c2b610f36565b6020908102919091010152600101610a16565b50610c47610d2e565b5f602082602086026020860160086107d05a03fa90508080610c6557fe5b5080610c6f575f80fd5b505115159695505050505050565b6040805160e081019091525f60a0820181815260c0830191909152815260208101610ca6610d09565b8152602001610cb3610d09565b8152602001610cc0610d09565b8152602001606081525090565b60405180606001604052806003906020820280368337509192915050565b60405180608001604052806004906020820280368337509192915050565b6040518060400160405280610d1c610d4c565b8152602001610d29610d4c565b905290565b60405180602001604052806001906020820280368337509192915050565b60405180604001604052806002906020820280368337509192915050565b634e487b7160e01b5f52604160045260245ffd5b6040805190810167ffffffffffffffff81118282101715610da157610da1610d6a565b60405290565b6040516060810167ffffffffffffffff81118282101715610da157610da1610d6a565b5f60408284031215610dda575f80fd5b610de2610d7e565b9050813581526020820135602082015292915050565b5f610e01610da7565b9050806060830184811115610e14575f80fd5b835b81811015610e2e578035835260209283019201610e16565b50505092915050565b5f82601f830112610e46575f80fd5b610e4e610d7e565b806040840185811115610e5f575f80fd5b845b81811015610e79578035845260209384019301610e61565b509095945050505050565b5f80828403610160811215610e97575f80fd5b61010080821215610ea6575f80fd5b610eae610da7565b610eb88787610dca565b81526080603f1984011215610ecb575f80fd5b610ed3610d7e565b9250610ee28760408801610e37565b8352610ef18760808801610e37565b6020840152826020820152610f098760c08801610dca565b6040820152935061011f85018613610f1f575f80fd5b610f2b86828701610df8565b925050509250929050565b634e487b7160e01b5f52603260045260245ffd5b634e487b7160e01b5f52601160045260245ffd5b808201808211156100e0576100e0610f4a565b5f82610f8b57634e487b7160e01b5f52601260045260245ffd5b500690565b818103818111156100e0576100e0610f4a565b80820281158282048414176100e0576100e0610f4a56fea264697066735822122077328878d6efb3bbf0b5c3e8360015b57c869fe66d68b11cfce3ed2ade40443464736f6c63430008160033",
			"opcodes": "PUSH1 0x80 PUSH1 0x40 MSTORE CALLVALUE DUP1 ISZERO PUSH2 0xF JUMPI PUSH0 DUP1 REVERT JUMPDEST POP PUSH2 0xFF0 DUP1 PUSH2 0x1D PUSH0 CODECOPY PUSH0 RETURN INVALID PUSH1 0x80 PUSH1 0x40 MSTORE CALLVALUE DUP1 ISZERO PUSH2 0xF JUMPI PUSH0 DUP1 REVERT JUMPDEST POP PUSH1 0x4 CALLDATASIZE LT PUSH2 0x29 JUMPI PUSH0 CALLDATALOAD PUSH1 0xE0 SHR DUP1 PUSH4 0xF9C5D49 EQ PUSH2 0x2D JUMPI JUMPDEST PUSH0 DUP1 REVERT JUMPDEST PUSH2 0x40 PUSH2 0x3B CALLDATASIZE PUSH1 0x4 PUSH2 0xE84 JUMP JUMPDEST PUSH2 0x54 JUMP JUMPDEST PUSH1 0x40 MLOAD SWAP1 ISZERO ISZERO DUP2 MSTORE PUSH1 0x20 ADD PUSH1 0x40 MLOAD DUP1 SWAP2 SUB SWAP1 RETURN JUMPDEST PUSH1 0x40 DUP1 MLOAD PUSH1 0x3 DUP1 DUP3 MSTORE PUSH1 0x80 DUP3 ADD SWAP1 SWAP3 MSTORE PUSH0 SWAP2 DUP3 SWAP2 SWAP1 PUSH1 0x20 DUP3 ADD PUSH1 0x60 DUP1 CALLDATASIZE DUP4 CALLDATACOPY ADD SWAP1 POP POP SWAP1 POP PUSH0 JUMPDEST PUSH1 0x3 DUP2 LT ISZERO PUSH2 0xC0 JUMPI DUP4 DUP2 PUSH1 0x3 DUP2 LT PUSH2 0x96 JUMPI PUSH2 0x96 PUSH2 0xF36 JUMP JUMPDEST PUSH1 0x20 MUL ADD MLOAD DUP3 DUP3 DUP2 MLOAD DUP2 LT PUSH2 0xAD JUMPI PUSH2 0xAD PUSH2 0xF36 JUMP JUMPDEST PUSH1 0x20 SWAP1 DUP2 MUL SWAP2 SWAP1 SWAP2 ADD ADD MSTORE PUSH1 0x1 ADD PUSH2 0x7B JUMP JUMPDEST POP PUSH2 0xCB DUP2 DUP6 PUSH2 0xE6 JUMP JUMPDEST PUSH0 SUB PUSH2 0xDB JUMPI PUSH1 0x1 SWAP2 POP POP PUSH2 0xE0 JUMP JUMPDEST PUSH0 SWAP2 POP POP JUMPDEST SWAP3 SWAP2 POP POP JUMP JUMPDEST PUSH0 PUSH32 0x30644E72E131A029B85045B68181585D2833E84879B9709143E1F593F0000001 DUP2 PUSH2 0x111 PUSH2 0x258 JUMP JUMPDEST SWAP1 POP DUP1 PUSH1 0x80 ADD MLOAD MLOAD DUP6 MLOAD PUSH1 0x1 PUSH2 0x127 SWAP2 SWAP1 PUSH2 0xF5E JUMP JUMPDEST EQ PUSH2 0x130 JUMPI PUSH0 DUP1 REVERT JUMPDEST PUSH1 0x40 DUP1 MLOAD DUP1 DUP3 ADD SWAP1 SWAP2 MSTORE PUSH0 DUP1 DUP3 MSTORE PUSH1 0x20 DUP3 ADD DUP2 SWAP1 MSTORE JUMPDEST DUP7 MLOAD DUP2 LT ISZERO PUSH2 0x1D2 JUMPI DUP4 DUP8 DUP3 DUP2 MLOAD DUP2 LT PUSH2 0x162 JUMPI PUSH2 0x162 PUSH2 0xF36 JUMP JUMPDEST PUSH1 0x20 MUL PUSH1 0x20 ADD ADD MLOAD LT PUSH2 0x173 JUMPI PUSH0 DUP1 REVERT JUMPDEST PUSH2 0x1C8 DUP3 PUSH2 0x1C3 DUP6 PUSH1 0x80 ADD MLOAD DUP5 PUSH1 0x1 PUSH2 0x18C SWAP2 SWAP1 PUSH2 0xF5E JUMP JUMPDEST DUP2 MLOAD DUP2 LT PUSH2 0x19C JUMPI PUSH2 0x19C PUSH2 0xF36 JUMP JUMPDEST PUSH1 0x20 MUL PUSH1 0x20 ADD ADD MLOAD DUP11 DUP6 DUP2 MLOAD DUP2 LT PUSH2 0x1B6 JUMPI PUSH2 0x1B6 PUSH2 0xF36 JUMP JUMPDEST PUSH1 0x20 MUL PUSH1 0x20 ADD ADD MLOAD PUSH2 0x6DF JUMP JUMPDEST PUSH2 0x73A JUMP JUMPDEST SWAP2 POP PUSH1 0x1 ADD PUSH2 0x146 JUMP JUMPDEST POP PUSH2 0x1FA DUP2 DUP4 PUSH1 0x80 ADD MLOAD PUSH0 DUP2 MLOAD DUP2 LT PUSH2 0x1ED JUMPI PUSH2 0x1ED PUSH2 0xF36 JUMP JUMPDEST PUSH1 0x20 MUL PUSH1 0x20 ADD ADD MLOAD PUSH2 0x73A JUMP JUMPDEST SWAP1 POP PUSH2 0x23D DUP6 PUSH0 ADD MLOAD DUP7 PUSH1 0x20 ADD MLOAD PUSH2 0x211 DUP5 PUSH2 0x78E JUMP JUMPDEST DUP6 PUSH1 0x40 ADD MLOAD PUSH2 0x223 DUP11 PUSH1 0x40 ADD MLOAD PUSH2 0x78E JUMP JUMPDEST PUSH1 0x60 DUP9 ADD MLOAD DUP9 MLOAD PUSH2 0x233 SWAP1 PUSH2 0x78E JUMP JUMPDEST DUP10 PUSH1 0x20 ADD MLOAD PUSH2 0x82A JUMP JUMPDEST PUSH2 0x24D JUMPI PUSH1 0x1 SWAP4 POP POP POP POP PUSH2 0xE0 JUMP JUMPDEST POP PUSH0 SWAP6 SWAP5 POP POP POP POP POP JUMP JUMPDEST PUSH2 0x260 PUSH2 0xC7D JUMP JUMPDEST PUSH1 0x40 DUP1 MLOAD DUP1 DUP3 ADD DUP3 MSTORE PUSH32 0xCFBC164A3C8319679C4CB02E2D2952A35F1C55403D723B042B3E96C5074F642 DUP2 MSTORE PUSH32 0x1BC601C28E82378CA238C0463ED5DF1CFD4E0FC0720E9AA5B248790087FAF1D1 PUSH1 0x20 DUP1 DUP4 ADD SWAP2 SWAP1 SWAP2 MSTORE SWAP1 DUP4 MSTORE DUP2 MLOAD PUSH1 0x80 DUP1 DUP3 ADD DUP5 MSTORE PUSH32 0x1D04B90BBE51A3519095D9DC797E72907AD258C16BC6F1581ECDCFFFB10D4245 DUP3 DUP6 ADD SWAP1 DUP2 MSTORE PUSH32 0x1F71636E1E84C1540859CA82453DB35BF8917CF367CAC35E2B50A26ADD751DC PUSH1 0x60 DUP1 DUP6 ADD SWAP2 SWAP1 SWAP2 MSTORE SWAP1 DUP4 MSTORE DUP5 MLOAD DUP1 DUP7 ADD DUP7 MSTORE PUSH32 0xA3ED1438F10FF2E90D1A2F57D63B4D7FBD98DADA1CC03FE2392DDE84F944F48 DUP2 MSTORE PUSH32 0x14E59EE5EA74ED97FFAD93919556B11551E2D778359344B611CE8E1EB709A48 DUP2 DUP7 ADD MSTORE DUP4 DUP6 ADD MSTORE DUP6 DUP5 ADD SWAP3 SWAP1 SWAP3 MSTORE DUP4 MLOAD DUP1 DUP3 ADD DUP6 MSTORE PUSH32 0x283D11715317C52070D911740120B77B661D592FB0A91427801FF4E7E86AFEB0 DUP2 DUP7 ADD SWAP1 DUP2 MSTORE PUSH32 0x78E95A39CAF9D5A8607AE94A6EBE480E145560B3969643ED4A8AE6CBB6550C1 DUP3 DUP6 ADD MSTORE DUP2 MSTORE DUP5 MLOAD DUP1 DUP7 ADD DUP7 MSTORE PUSH32 0x11D1268BCE46BDADB50B9166F787F87637F5FBD6DA8EA1E176BC3702CFDDB923 DUP2 MSTORE PUSH32 0x24427343A076528081EBE58A49E90B689AB31D84BE348E31E8A45BDB8B9D0669 DUP2 DUP7 ADD MSTORE DUP2 DUP6 ADD MSTORE DUP6 DUP6 ADD MSTORE DUP4 MLOAD SWAP1 DUP2 ADD DUP5 MSTORE PUSH32 0x169E6004791A30625D4ADEBD8427877FFC2C373BCD840BD0EFE7BE58ED936FB9 DUP2 DUP6 ADD SWAP1 DUP2 MSTORE PUSH32 0x5A220FFEC0CAFF445F0EA1638727671CDDC0B30400E48256B9164402C611145 DUP3 DUP5 ADD MSTORE DUP2 MSTORE DUP4 MLOAD DUP1 DUP6 ADD DUP6 MSTORE PUSH32 0x19029825A15EFD9AADBE09708B693E633DCFB0EE577E60650351C414B14664DD DUP2 MSTORE PUSH32 0x952C022D89CC22C0304E7751E7F92A9DF612019EC0FEE5626BB835775CCE911 DUP2 DUP6 ADD MSTORE DUP2 DUP5 ADD MSTORE SWAP1 DUP5 ADD MSTORE DUP2 MLOAD PUSH1 0x4 DUP1 DUP3 MSTORE PUSH1 0xA0 DUP3 ADD SWAP1 SWAP4 MSTORE SWAP2 SWAP1 DUP3 ADD JUMPDEST PUSH1 0x40 DUP1 MLOAD DUP1 DUP3 ADD SWAP1 SWAP2 MSTORE PUSH0 DUP1 DUP3 MSTORE PUSH1 0x20 DUP3 ADD MSTORE DUP2 MSTORE PUSH1 0x20 ADD SWAP1 PUSH1 0x1 SWAP1 SUB SWAP1 DUP2 PUSH2 0x4DB JUMPI POP POP PUSH1 0x80 DUP3 ADD SWAP1 DUP2 MSTORE PUSH1 0x40 DUP1 MLOAD DUP1 DUP3 ADD SWAP1 SWAP2 MSTORE PUSH32 0x9CB6BBB16EEE6ED3456DF63ECAF8439F4C3DCF96DB8096493E466AB230AD658 DUP2 MSTORE PUSH32 0x313C03B72432E8A6212E95D4A354416558010E9322CC5741C6ED1438A4675B7 PUSH1 0x20 DUP3 ADD MSTORE SWAP1 MLOAD DUP1 MLOAD PUSH0 SWAP1 PUSH2 0x56C JUMPI PUSH2 0x56C PUSH2 0xF36 JUMP JUMPDEST PUSH1 0x20 MUL PUSH1 0x20 ADD ADD DUP2 SWAP1 MSTORE POP PUSH1 0x40 MLOAD DUP1 PUSH1 0x40 ADD PUSH1 0x40 MSTORE DUP1 PUSH32 0x2E4389FEA4AED10F5F359E3EA3C11CA21F7CAB08F1314ACE892DF3A4DA650EEA DUP2 MSTORE PUSH1 0x20 ADD PUSH32 0x5F2F54205E6AC482EFF33EDEEB28921465C3E54AB6218167C60E33A3F088EE0 DUP2 MSTORE POP DUP2 PUSH1 0x80 ADD MLOAD PUSH1 0x1 DUP2 MLOAD DUP2 LT PUSH2 0x5E3 JUMPI PUSH2 0x5E3 PUSH2 0xF36 JUMP JUMPDEST PUSH1 0x20 MUL PUSH1 0x20 ADD ADD DUP2 SWAP1 MSTORE POP PUSH1 0x40 MLOAD DUP1 PUSH1 0x40 ADD PUSH1 0x40 MSTORE DUP1 PUSH32 0x24D381A2FB963AA5E331BD181F1E97774451C38EE4AFC03835603AF146B4C2C2 DUP2 MSTORE PUSH1 0x20 ADD PUSH32 0x10C4A0663C6B60FE9E3773968F6C84D7D29E93E4F8F90FFDF742F23C114EA432 DUP2 MSTORE POP DUP2 PUSH1 0x80 ADD MLOAD PUSH1 0x2 DUP2 MLOAD DUP2 LT PUSH2 0x65A JUMPI PUSH2 0x65A PUSH2 0xF36 JUMP JUMPDEST PUSH1 0x20 MUL PUSH1 0x20 ADD ADD DUP2 SWAP1 MSTORE POP PUSH1 0x40 MLOAD DUP1 PUSH1 0x40 ADD PUSH1 0x40 MSTORE DUP1 PUSH32 0x21762AF0AA84A20025FD0466D75AF908A6B0FE4BFD64468DDF53287E629E0F4 DUP2 MSTORE PUSH1 0x20 ADD PUSH32 0xDDA9507241BEE10B8CAC0035F0AAF1B28997973DF320CE0CBE5BDB51DD6ABF3 DUP2 MSTORE POP DUP2 PUSH1 0x80 ADD MLOAD PUSH1 0x3 DUP2 MLOAD DUP2 LT PUSH2 0x6D1 JUMPI PUSH2 0x6D1 PUSH2 0xF36 JUMP JUMPDEST PUSH1 0x20 MUL PUSH1 0x20 ADD ADD DUP2 SWAP1 MSTORE POP SWAP1 JUMP JUMPDEST PUSH1 0x40 DUP1 MLOAD DUP1 DUP3 ADD SWAP1 SWAP2 MSTORE PUSH0 DUP1 DUP3 MSTORE PUSH1 0x20 DUP3 ADD MSTORE PUSH2 0x6FA PUSH2 0xCCD JUMP JUMPDEST DUP4 MLOAD DUP2 MSTORE PUSH1 0x20 DUP1 DUP6 ADD MLOAD SWAP1 DUP3 ADD MSTORE PUSH1 0x40 DUP2 ADD DUP4 SWAP1 MSTORE PUSH0 PUSH1 0x60 DUP4 PUSH1 0x80 DUP5 PUSH1 0x7 PUSH2 0x7D0 GAS SUB STATICCALL SWAP1 POP DUP1 DUP1 PUSH2 0x728 JUMPI INVALID JUMPDEST POP DUP1 PUSH2 0x732 JUMPI PUSH0 DUP1 REVERT JUMPDEST POP POP SWAP3 SWAP2 POP POP JUMP JUMPDEST PUSH1 0x40 DUP1 MLOAD DUP1 DUP3 ADD SWAP1 SWAP2 MSTORE PUSH0 DUP1 DUP3 MSTORE PUSH1 0x20 DUP3 ADD MSTORE PUSH2 0x755 PUSH2 0xCEB JUMP JUMPDEST DUP4 MLOAD DUP2 MSTORE PUSH1 0x20 DUP1 DUP6 ADD MLOAD DUP2 DUP4 ADD MSTORE DUP4 MLOAD PUSH1 0x40 DUP4 ADD MSTORE DUP4 ADD MLOAD PUSH1 0x60 DUP1 DUP4 ADD SWAP2 SWAP1 SWAP2 MSTORE PUSH0 SWAP1 DUP4 PUSH1 0xC0 DUP5 PUSH1 0x6 PUSH2 0x7D0 GAS SUB STATICCALL SWAP1 POP DUP1 DUP1 PUSH2 0x728 JUMPI INVALID JUMPDEST PUSH1 0x40 DUP1 MLOAD DUP1 DUP3 ADD SWAP1 SWAP2 MSTORE PUSH0 DUP1 DUP3 MSTORE PUSH1 0x20 DUP3 ADD MSTORE DUP2 MLOAD PUSH32 0x30644E72E131A029B85045B68181585D97816A916871CA8D3C208C16D87CFD47 SWAP1 ISZERO DUP1 ISZERO PUSH2 0x7D4 JUMPI POP PUSH1 0x20 DUP4 ADD MLOAD ISZERO JUMPDEST ISZERO PUSH2 0x7F3 JUMPI POP POP PUSH1 0x40 DUP1 MLOAD DUP1 DUP3 ADD SWAP1 SWAP2 MSTORE PUSH0 DUP1 DUP3 MSTORE PUSH1 0x20 DUP3 ADD MSTORE SWAP2 SWAP1 POP JUMP JUMPDEST PUSH1 0x40 MLOAD DUP1 PUSH1 0x40 ADD PUSH1 0x40 MSTORE DUP1 DUP5 PUSH0 ADD MLOAD DUP2 MSTORE PUSH1 0x20 ADD DUP3 DUP6 PUSH1 0x20 ADD MLOAD PUSH2 0x817 SWAP2 SWAP1 PUSH2 0xF71 JUMP JUMPDEST PUSH2 0x821 SWAP1 DUP5 PUSH2 0xF90 JUMP JUMPDEST SWAP1 MSTORE SWAP4 SWAP3 POP POP POP JUMP JUMPDEST PUSH1 0x40 DUP1 MLOAD PUSH1 0x4 DUP1 DUP3 MSTORE PUSH1 0xA0 DUP3 ADD SWAP1 SWAP3 MSTORE PUSH0 SWAP2 DUP3 SWAP2 SWAP1 DUP2 PUSH1 0x20 ADD JUMPDEST PUSH1 0x40 DUP1 MLOAD DUP1 DUP3 ADD SWAP1 SWAP2 MSTORE PUSH0 DUP1 DUP3 MSTORE PUSH1 0x20 DUP3 ADD MSTORE DUP2 MSTORE PUSH1 0x20 ADD SWAP1 PUSH1 0x1 SWAP1 SUB SWAP1 DUP2 PUSH2 0x844 JUMPI POP POP PUSH1 0x40 DUP1 MLOAD PUSH1 0x4 DUP1 DUP3 MSTORE PUSH1 0xA0 DUP3 ADD SWAP1 SWAP3 MSTORE SWAP2 SWAP3 POP PUSH0 SWAP2 SWAP1 PUSH1 0x20 DUP3 ADD JUMPDEST PUSH2 0x88C PUSH2 0xD09 JUMP JUMPDEST DUP2 MSTORE PUSH1 0x20 ADD SWAP1 PUSH1 0x1 SWAP1 SUB SWAP1 DUP2 PUSH2 0x884 JUMPI SWAP1 POP POP SWAP1 POP DUP11 DUP3 PUSH0 DUP2 MLOAD DUP2 LT PUSH2 0x8B4 JUMPI PUSH2 0x8B4 PUSH2 0xF36 JUMP JUMPDEST PUSH1 0x20 MUL PUSH1 0x20 ADD ADD DUP2 SWAP1 MSTORE POP DUP9 DUP3 PUSH1 0x1 DUP2 MLOAD DUP2 LT PUSH2 0x8D3 JUMPI PUSH2 0x8D3 PUSH2 0xF36 JUMP JUMPDEST PUSH1 0x20 MUL PUSH1 0x20 ADD ADD DUP2 SWAP1 MSTORE POP DUP7 DUP3 PUSH1 0x2 DUP2 MLOAD DUP2 LT PUSH2 0x8F2 JUMPI PUSH2 0x8F2 PUSH2 0xF36 JUMP JUMPDEST PUSH1 0x20 MUL PUSH1 0x20 ADD ADD DUP2 SWAP1 MSTORE POP DUP5 DUP3 PUSH1 0x3 DUP2 MLOAD DUP2 LT PUSH2 0x911 JUMPI PUSH2 0x911 PUSH2 0xF36 JUMP JUMPDEST PUSH1 0x20 MUL PUSH1 0x20 ADD ADD DUP2 SWAP1 MSTORE POP DUP10 DUP2 PUSH0 DUP2 MLOAD DUP2 LT PUSH2 0x92F JUMPI PUSH2 0x92F PUSH2 0xF36 JUMP JUMPDEST PUSH1 0x20 MUL PUSH1 0x20 ADD ADD DUP2 SWAP1 MSTORE POP DUP8 DUP2 PUSH1 0x1 DUP2 MLOAD DUP2 LT PUSH2 0x94E JUMPI PUSH2 0x94E PUSH2 0xF36 JUMP JUMPDEST PUSH1 0x20 MUL PUSH1 0x20 ADD ADD DUP2 SWAP1 MSTORE POP DUP6 DUP2 PUSH1 0x2 DUP2 MLOAD DUP2 LT PUSH2 0x96D JUMPI PUSH2 0x96D PUSH2 0xF36 JUMP JUMPDEST PUSH1 0x20 MUL PUSH1 0x20 ADD ADD DUP2 SWAP1 MSTORE POP DUP4 DUP2 PUSH1 0x3 DUP2 MLOAD DUP2 LT PUSH2 0x98C JUMPI PUSH2 0x98C PUSH2 0xF36 JUMP JUMPDEST PUSH1 0x20 MUL PUSH1 0x20 ADD ADD DUP2 SWAP1 MSTORE POP PUSH2 0x9A1 DUP3 DUP3 PUSH2 0x9B0 JUMP JUMPDEST SWAP12 SWAP11 POP POP POP POP POP POP POP POP POP POP POP JUMP JUMPDEST PUSH0 DUP2 MLOAD DUP4 MLOAD EQ PUSH2 0x9BE JUMPI PUSH0 DUP1 REVERT JUMPDEST DUP3 MLOAD PUSH0 PUSH2 0x9CC DUP3 PUSH1 0x6 PUSH2 0xFA3 JUMP JUMPDEST SWAP1 POP PUSH0 DUP2 PUSH8 0xFFFFFFFFFFFFFFFF DUP2 GT ISZERO PUSH2 0x9E8 JUMPI PUSH2 0x9E8 PUSH2 0xD6A JUMP JUMPDEST PUSH1 0x40 MLOAD SWAP1 DUP1 DUP3 MSTORE DUP1 PUSH1 0x20 MUL PUSH1 0x20 ADD DUP3 ADD PUSH1 0x40 MSTORE DUP1 ISZERO PUSH2 0xA11 JUMPI DUP2 PUSH1 0x20 ADD PUSH1 0x20 DUP3 MUL DUP1 CALLDATASIZE DUP4 CALLDATACOPY ADD SWAP1 POP JUMPDEST POP SWAP1 POP PUSH0 JUMPDEST DUP4 DUP2 LT ISZERO PUSH2 0xC3E JUMPI DUP7 DUP2 DUP2 MLOAD DUP2 LT PUSH2 0xA30 JUMPI PUSH2 0xA30 PUSH2 0xF36 JUMP JUMPDEST PUSH1 0x20 MUL PUSH1 0x20 ADD ADD MLOAD PUSH0 ADD MLOAD DUP3 DUP3 PUSH1 0x6 PUSH2 0xA49 SWAP2 SWAP1 PUSH2 0xFA3 JUMP JUMPDEST PUSH2 0xA53 SWAP1 PUSH0 PUSH2 0xF5E JUMP JUMPDEST DUP2 MLOAD DUP2 LT PUSH2 0xA63 JUMPI PUSH2 0xA63 PUSH2 0xF36 JUMP JUMPDEST PUSH1 0x20 MUL PUSH1 0x20 ADD ADD DUP2 DUP2 MSTORE POP POP DUP7 DUP2 DUP2 MLOAD DUP2 LT PUSH2 0xA81 JUMPI PUSH2 0xA81 PUSH2 0xF36 JUMP JUMPDEST PUSH1 0x20 MUL PUSH1 0x20 ADD ADD MLOAD PUSH1 0x20 ADD MLOAD DUP3 DUP3 PUSH1 0x6 PUSH2 0xA9B SWAP2 SWAP1 PUSH2 0xFA3 JUMP JUMPDEST PUSH2 0xAA6 SWAP1 PUSH1 0x1 PUSH2 0xF5E JUMP JUMPDEST DUP2 MLOAD DUP2 LT PUSH2 0xAB6 JUMPI PUSH2 0xAB6 PUSH2 0xF36 JUMP JUMPDEST PUSH1 0x20 MUL PUSH1 0x20 ADD ADD DUP2 DUP2 MSTORE POP POP DUP6 DUP2 DUP2 MLOAD DUP2 LT PUSH2 0xAD4 JUMPI PUSH2 0xAD4 PUSH2 0xF36 JUMP JUMPDEST PUSH1 0x20 SWAP1 DUP2 MUL SWAP2 SWAP1 SWAP2 ADD DUP2 ADD MLOAD MLOAD ADD MLOAD DUP3 PUSH2 0xAEF DUP4 PUSH1 0x6 PUSH2 0xFA3 JUMP JUMPDEST PUSH2 0xAFA SWAP1 PUSH1 0x2 PUSH2 0xF5E JUMP JUMPDEST DUP2 MLOAD DUP2 LT PUSH2 0xB0A JUMPI PUSH2 0xB0A PUSH2 0xF36 JUMP JUMPDEST PUSH1 0x20 MUL PUSH1 0x20 ADD ADD DUP2 DUP2 MSTORE POP POP DUP6 DUP2 DUP2 MLOAD DUP2 LT PUSH2 0xB28 JUMPI PUSH2 0xB28 PUSH2 0xF36 JUMP JUMPDEST PUSH1 0x20 SWAP1 DUP2 MUL SWAP2 SWAP1 SWAP2 ADD ADD MLOAD MLOAD MLOAD DUP3 PUSH2 0xB41 DUP4 PUSH1 0x6 PUSH2 0xFA3 JUMP JUMPDEST PUSH2 0xB4C SWAP1 PUSH1 0x3 PUSH2 0xF5E JUMP JUMPDEST DUP2 MLOAD DUP2 LT PUSH2 0xB5C JUMPI PUSH2 0xB5C PUSH2 0xF36 JUMP JUMPDEST PUSH1 0x20 MUL PUSH1 0x20 ADD ADD DUP2 DUP2 MSTORE POP POP DUP6 DUP2 DUP2 MLOAD DUP2 LT PUSH2 0xB7A JUMPI PUSH2 0xB7A PUSH2 0xF36 JUMP JUMPDEST PUSH1 0x20 MUL PUSH1 0x20 ADD ADD MLOAD PUSH1 0x20 ADD MLOAD PUSH1 0x1 PUSH1 0x2 DUP2 LT PUSH2 0xB98 JUMPI PUSH2 0xB98 PUSH2 0xF36 JUMP JUMPDEST PUSH1 0x20 MUL ADD MLOAD DUP3 PUSH2 0xBA9 DUP4 PUSH1 0x6 PUSH2 0xFA3 JUMP JUMPDEST PUSH2 0xBB4 SWAP1 PUSH1 0x4 PUSH2 0xF5E JUMP JUMPDEST DUP2 MLOAD DUP2 LT PUSH2 0xBC4 JUMPI PUSH2 0xBC4 PUSH2 0xF36 JUMP JUMPDEST PUSH1 0x20 MUL PUSH1 0x20 ADD ADD DUP2 DUP2 MSTORE POP POP DUP6 DUP2 DUP2 MLOAD DUP2 LT PUSH2 0xBE2 JUMPI PUSH2 0xBE2 PUSH2 0xF36 JUMP JUMPDEST PUSH1 0x20 MUL PUSH1 0x20 ADD ADD MLOAD PUSH1 0x20 ADD MLOAD PUSH0 PUSH1 0x2 DUP2 LT PUSH2 0xBFF JUMPI PUSH2 0xBFF PUSH2 0xF36 JUMP JUMPDEST PUSH1 0x20 MUL ADD MLOAD DUP3 PUSH2 0xC10 DUP4 PUSH1 0x6 PUSH2 0xFA3 JUMP JUMPDEST PUSH2 0xC1B SWAP1 PUSH1 0x5 PUSH2 0xF5E JUMP JUMPDEST DUP2 MLOAD DUP2 LT PUSH2 0xC2B JUMPI PUSH2 0xC2B PUSH2 0xF36 JUMP JUMPDEST PUSH1 0x20 SWAP1 DUP2 MUL SWAP2 SWAP1 SWAP2 ADD ADD MSTORE PUSH1 0x1 ADD PUSH2 0xA16 JUMP JUMPDEST POP PUSH2 0xC47 PUSH2 0xD2E JUMP JUMPDEST PUSH0 PUSH1 0x20 DUP3 PUSH1 0x20 DUP7 MUL PUSH1 0x20 DUP7 ADD PUSH1 0x8 PUSH2 0x7D0 GAS SUB STATICCALL SWAP1 POP DUP1 DUP1 PUSH2 0xC65 JUMPI INVALID JUMPDEST POP DUP1 PUSH2 0xC6F JUMPI PUSH0 DUP1 REVERT JUMPDEST POP MLOAD ISZERO ISZERO SWAP7 SWAP6 POP POP POP POP POP POP JUMP JUMPDEST PUSH1 0x40 DUP1 MLOAD PUSH1 0xE0 DUP2 ADD SWAP1 SWAP2 MSTORE PUSH0 PUSH1 0xA0 DUP3 ADD DUP2 DUP2 MSTORE PUSH1 0xC0 DUP4 ADD SWAP2 SWAP1 SWAP2 MSTORE DUP2 MSTORE PUSH1 0x20 DUP2 ADD PUSH2 0xCA6 PUSH2 0xD09 JUMP JUMPDEST DUP2 MSTORE PUSH1 0x20 ADD PUSH2 0xCB3 PUSH2 0xD09 JUMP JUMPDEST DUP2 MSTORE PUSH1 0x20 ADD PUSH2 0xCC0 PUSH2 0xD09 JUMP JUMPDEST DUP2 MSTORE PUSH1 0x20 ADD PUSH1 0x60 DUP2 MSTORE POP SWAP1 JUMP JUMPDEST PUSH1 0x40 MLOAD DUP1 PUSH1 0x60 ADD PUSH1 0x40 MSTORE DUP1 PUSH1 0x3 SWAP1 PUSH1 0x20 DUP3 MUL DUP1 CALLDATASIZE DUP4 CALLDATACOPY POP SWAP2 SWAP3 SWAP2 POP POP JUMP JUMPDEST PUSH1 0x40 MLOAD DUP1 PUSH1 0x80 ADD PUSH1 0x40 MSTORE DUP1 PUSH1 0x4 SWAP1 PUSH1 0x20 DUP3 MUL DUP1 CALLDATASIZE DUP4 CALLDATACOPY POP SWAP2 SWAP3 SWAP2 POP POP JUMP JUMPDEST PUSH1 0x40 MLOAD DUP1 PUSH1 0x40 ADD PUSH1 0x40 MSTORE DUP1 PUSH2 0xD1C PUSH2 0xD4C JUMP JUMPDEST DUP2 MSTORE PUSH1 0x20 ADD PUSH2 0xD29 PUSH2 0xD4C JUMP JUMPDEST SWAP1 MSTORE SWAP1 JUMP JUMPDEST PUSH1 0x40 MLOAD DUP1 PUSH1 0x20 ADD PUSH1 0x40 MSTORE DUP1 PUSH1 0x1 SWAP1 PUSH1 0x20 DUP3 MUL DUP1 CALLDATASIZE DUP4 CALLDATACOPY POP SWAP2 SWAP3 SWAP2 POP POP JUMP JUMPDEST PUSH1 0x40 MLOAD DUP1 PUSH1 0x40 ADD PUSH1 0x40 MSTORE DUP1 PUSH1 0x2 SWAP1 PUSH1 0x20 DUP3 MUL DUP1 CALLDATASIZE DUP4 CALLDATACOPY POP SWAP2 SWAP3 SWAP2 POP POP JUMP JUMPDEST PUSH4 0x4E487B71 PUSH1 0xE0 SHL PUSH0 MSTORE PUSH1 0x41 PUSH1 0x4 MSTORE PUSH1 0x24 PUSH0 REVERT JUMPDEST PUSH1 0x40 DUP1 MLOAD SWAP1 DUP2 ADD PUSH8 0xFFFFFFFFFFFFFFFF DUP2 GT DUP3 DUP3 LT OR ISZERO PUSH2 0xDA1 JUMPI PUSH2 0xDA1 PUSH2 0xD6A JUMP JUMPDEST PUSH1 0x40 MSTORE SWAP1 JUMP JUMPDEST PUSH1 0x40 MLOAD PUSH1 0x60 DUP2 ADD PUSH8 0xFFFFFFFFFFFFFFFF DUP2 GT DUP3 DUP3 LT OR ISZERO PUSH2 0xDA1 JUMPI PUSH2 0xDA1 PUSH2 0xD6A JUMP JUMPDEST PUSH0 PUSH1 0x40 DUP3 DUP5 SUB SLT ISZERO PUSH2 0xDDA JUMPI PUSH0 DUP1 REVERT JUMPDEST PUSH2 0xDE2 PUSH2 0xD7E JUMP JUMPDEST SWAP1 POP DUP2 CALLDATALOAD DUP2 MSTORE PUSH1 0x20 DUP3 ADD CALLDATALOAD PUSH1 0x20 DUP3 ADD MSTORE SWAP3 SWAP2 POP POP JUMP JUMPDEST PUSH0 PUSH2 0xE01 PUSH2 0xDA7 JUMP JUMPDEST SWAP1 POP DUP1 PUSH1 0x60 DUP4 ADD DUP5 DUP2 GT ISZERO PUSH2 0xE14 JUMPI PUSH0 DUP1 REVERT JUMPDEST DUP4 JUMPDEST DUP2 DUP2 LT ISZERO PUSH2 0xE2E JUMPI DUP1 CALLDATALOAD DUP4 MSTORE PUSH1 0x20 SWAP3 DUP4 ADD SWAP3 ADD PUSH2 0xE16 JUMP JUMPDEST POP POP POP SWAP3 SWAP2 POP POP JUMP JUMPDEST PUSH0 DUP3 PUSH1 0x1F DUP4 ADD SLT PUSH2 0xE46 JUMPI PUSH0 DUP1 REVERT JUMPDEST PUSH2 0xE4E PUSH2 0xD7E JUMP JUMPDEST DUP1 PUSH1 0x40 DUP5 ADD DUP6 DUP2 GT ISZERO PUSH2 0xE5F JUMPI PUSH0 DUP1 REVERT JUMPDEST DUP5 JUMPDEST DUP2 DUP2 LT ISZERO PUSH2 0xE79 JUMPI DUP1 CALLDATALOAD DUP5 MSTORE PUSH1 0x20 SWAP4 DUP5 ADD SWAP4 ADD PUSH2 0xE61 JUMP JUMPDEST POP SWAP1 SWAP6 SWAP5 POP POP POP POP POP JUMP JUMPDEST PUSH0 DUP1 DUP3 DUP5 SUB PUSH2 0x160 DUP2 SLT ISZERO PUSH2 0xE97 JUMPI PUSH0 DUP1 REVERT JUMPDEST PUSH2 0x100 DUP1 DUP3 SLT ISZERO PUSH2 0xEA6 JUMPI PUSH0 DUP1 REVERT JUMPDEST PUSH2 0xEAE PUSH2 0xDA7 JUMP JUMPDEST PUSH2 0xEB8 DUP8 DUP8 PUSH2 0xDCA JUMP JUMPDEST DUP2 MSTORE PUSH1 0x80 PUSH1 0x3F NOT DUP5 ADD SLT ISZERO PUSH2 0xECB JUMPI PUSH0 DUP1 REVERT JUMPDEST PUSH2 0xED3 PUSH2 0xD7E JUMP JUMPDEST SWAP3 POP PUSH2 0xEE2 DUP8 PUSH1 0x40 DUP9 ADD PUSH2 0xE37 JUMP JUMPDEST DUP4 MSTORE PUSH2 0xEF1 DUP8 PUSH1 0x80 DUP9 ADD PUSH2 0xE37 JUMP JUMPDEST PUSH1 0x20 DUP5 ADD MSTORE DUP3 PUSH1 0x20 DUP3 ADD MSTORE PUSH2 0xF09 DUP8 PUSH1 0xC0 DUP9 ADD PUSH2 0xDCA JUMP JUMPDEST PUSH1 0x40 DUP3 ADD MSTORE SWAP4 POP PUSH2 0x11F DUP6 ADD DUP7 SGT PUSH2 0xF1F JUMPI PUSH0 DUP1 REVERT JUMPDEST PUSH2 0xF2B DUP7 DUP3 DUP8 ADD PUSH2 0xDF8 JUMP JUMPDEST SWAP3 POP POP POP SWAP3 POP SWAP3 SWAP1 POP JUMP JUMPDEST PUSH4 0x4E487B71 PUSH1 0xE0 SHL PUSH0 MSTORE PUSH1 0x32 PUSH1 0x4 MSTORE PUSH1 0x24 PUSH0 REVERT JUMPDEST PUSH4 0x4E487B71 PUSH1 0xE0 SHL PUSH0 MSTORE PUSH1 0x11 PUSH1 0x4 MSTORE PUSH1 0x24 PUSH0 REVERT JUMPDEST DUP1 DUP3 ADD DUP1 DUP3 GT ISZERO PUSH2 0xE0 JUMPI PUSH2 0xE0 PUSH2 0xF4A JUMP JUMPDEST PUSH0 DUP3 PUSH2 0xF8B JUMPI PUSH4 0x4E487B71 PUSH1 0xE0 SHL PUSH0 MSTORE PUSH1 0x12 PUSH1 0x4 MSTORE PUSH1 0x24 PUSH0 REVERT JUMPDEST POP MOD SWAP1 JUMP JUMPDEST DUP2 DUP2 SUB DUP2 DUP2 GT ISZERO PUSH2 0xE0 JUMPI PUSH2 0xE0 PUSH2 0xF4A JUMP JUMPDEST DUP1 DUP3 MUL DUP2 ISZERO DUP3 DUP3 DIV DUP5 EQ OR PUSH2 0xE0 JUMPI PUSH2 0xE0 PUSH2 0xF4A JUMP INVALID LOG2 PUSH5 0x6970667358 0x22 SLT KECCAK256 PUSH24 0x328878D6EFB3BBF0B5C3E8360015B57C869FE66D68B11CFC 0xE3 0xED 0x2A 0xDE BLOCKHASH PREVRANDAO CALLVALUE PUSH5 0x736F6C6343 STOP ADDMOD AND STOP CALLER "
		},
		"gasEstimates": {
			"creation": {
				"codeDepositCost": "816000",
				"executionCost": "849",
				"totalCost": "816849"
			},
			"external": {
				"verifyTx(((uint256,uint256),(uint256[2],uint256[2]),(uint256,uint256)),uint256[3])": "infinite"
			},
			"internal": {
				"verify(uint256[] memory,struct Verifier.Proof memory)": "infinite",
				"verifyingKey()": "infinite"
			}
		},
		"methodIdentifiers": {
			"verifyTx(((uint256,uint256),(uint256[2],uint256[2]),(uint256,uint256)),uint256[3])": "0f9c5d49"
		}
	},
	"abi": [
		{
			"inputs": [
				{
					"components": [
						{
							"components": [
								{
									"internalType": "uint256",
									"name": "X",
									"type": "uint256"
								},
								{
									"internalType": "uint256",
									"name": "Y",
									"type": "uint256"
								}
							],
							"internalType": "struct Pairing.G1Point",
							"name": "a",
							"type": "tuple"
						},
						{
							"components": [
								{
									"internalType": "uint256[2]",
									"name": "X",
									"type": "uint256[2]"
								},
								{
									"internalType": "uint256[2]",
									"name": "Y",
									"type": "uint256[2]"
								}
							],
							"internalType": "struct Pairing.G2Point",
							"name": "b",
							"type": "tuple"
						},
						{
							"components": [
								{
									"internalType": "uint256",
									"name": "X",
									"type": "uint256"
								},
								{
									"internalType": "uint256",
									"name": "Y",
									"type": "uint256"
								}
							],
							"internalType": "struct Pairing.G1Point",
							"name": "c",
							"type": "tuple"
						}
					],
					"internalType": "struct Verifier.Proof",
					"name": "proof",
					"type": "tuple"
				},
				{
					"internalType": "uint256[3]",
					"name": "input",
					"type": "uint256[3]"
				}
			],
			"name": "verifyTx",
			"outputs": [
				{
					"internalType": "bool",
					"name": "r",
					"type": "bool"
				}
			],
			"stateMutability": "view",
			"type": "function"
		}
	]
}